{
	"contract/vaultBTC.sol": {
		"VaultBTC": {
			"abi": [
				{
					"inputs": [
						{
							"internalType": "address",
							"name": "_btcToken",
							"type": "address"
						}
					],
					"stateMutability": "nonpayable",
					"type": "constructor"
				},
				{
					"inputs": [],
					"name": "ReentrancyGuardReentrantCall",
					"type": "error"
				},
				{
					"anonymous": false,
					"inputs": [
						{
							"indexed": true,
							"internalType": "address",
							"name": "user",
							"type": "address"
						},
						{
							"indexed": false,
							"internalType": "uint256",
							"name": "amount",
							"type": "uint256"
						}
					],
					"name": "BTCWithdrawn",
					"type": "event"
				},
				{
					"anonymous": false,
					"inputs": [
						{
							"indexed": true,
							"internalType": "address",
							"name": "user",
							"type": "address"
						},
						{
							"indexed": false,
							"internalType": "uint256",
							"name": "vaultId",
							"type": "uint256"
						},
						{
							"indexed": false,
							"internalType": "uint256",
							"name": "amount",
							"type": "uint256"
						}
					],
					"name": "VaultCreated",
					"type": "event"
				},
				{
					"anonymous": false,
					"inputs": [
						{
							"indexed": true,
							"internalType": "address",
							"name": "user",
							"type": "address"
						},
						{
							"indexed": false,
							"internalType": "uint256",
							"name": "amount",
							"type": "uint256"
						}
					],
					"name": "YieldAccrued",
					"type": "event"
				},
				{
					"inputs": [],
					"name": "SECONDS_PER_YEAR",
					"outputs": [
						{
							"internalType": "uint256",
							"name": "",
							"type": "uint256"
						}
					],
					"stateMutability": "view",
					"type": "function"
				},
				{
					"inputs": [],
					"name": "YIELD_RATE",
					"outputs": [
						{
							"internalType": "uint256",
							"name": "",
							"type": "uint256"
						}
					],
					"stateMutability": "view",
					"type": "function"
				},
				{
					"inputs": [],
					"name": "btcToken",
					"outputs": [
						{
							"internalType": "contract IERC20",
							"name": "",
							"type": "address"
						}
					],
					"stateMutability": "view",
					"type": "function"
				},
				{
					"inputs": [],
					"name": "claimYield",
					"outputs": [],
					"stateMutability": "nonpayable",
					"type": "function"
				},
				{
					"inputs": [
						{
							"internalType": "uint256",
							"name": "amount",
							"type": "uint256"
						}
					],
					"name": "depositBTC",
					"outputs": [],
					"stateMutability": "nonpayable",
					"type": "function"
				},
				{
					"inputs": [
						{
							"internalType": "address",
							"name": "user",
							"type": "address"
						}
					],
					"name": "getPendingYield",
					"outputs": [
						{
							"internalType": "uint256",
							"name": "",
							"type": "uint256"
						}
					],
					"stateMutability": "view",
					"type": "function"
				},
				{
					"inputs": [
						{
							"internalType": "address",
							"name": "user",
							"type": "address"
						}
					],
					"name": "getVaultPosition",
					"outputs": [
						{
							"components": [
								{
									"internalType": "uint256",
									"name": "vaultId",
									"type": "uint256"
								},
								{
									"internalType": "uint256",
									"name": "stakedAmount",
									"type": "uint256"
								},
								{
									"internalType": "uint256",
									"name": "yieldAccrued",
									"type": "uint256"
								},
								{
									"internalType": "uint256",
									"name": "lastYieldUpdate",
									"type": "uint256"
								},
								{
									"internalType": "uint256",
									"name": "lockTime",
									"type": "uint256"
								},
								{
									"internalType": "bool",
									"name": "isActive",
									"type": "bool"
								}
							],
							"internalType": "struct VaultBTC.VaultPosition",
							"name": "",
							"type": "tuple"
						}
					],
					"stateMutability": "view",
					"type": "function"
				},
				{
					"inputs": [
						{
							"internalType": "address",
							"name": "",
							"type": "address"
						}
					],
					"name": "vaultPositions",
					"outputs": [
						{
							"internalType": "uint256",
							"name": "vaultId",
							"type": "uint256"
						},
						{
							"internalType": "uint256",
							"name": "stakedAmount",
							"type": "uint256"
						},
						{
							"internalType": "uint256",
							"name": "yieldAccrued",
							"type": "uint256"
						},
						{
							"internalType": "uint256",
							"name": "lastYieldUpdate",
							"type": "uint256"
						},
						{
							"internalType": "uint256",
							"name": "lockTime",
							"type": "uint256"
						},
						{
							"internalType": "bool",
							"name": "isActive",
							"type": "bool"
						}
					],
					"stateMutability": "view",
					"type": "function"
				},
				{
					"inputs": [
						{
							"internalType": "uint256",
							"name": "amount",
							"type": "uint256"
						}
					],
					"name": "withdrawBTC",
					"outputs": [],
					"stateMutability": "nonpayable",
					"type": "function"
				}
			],
			"devdoc": {
				"errors": {
					"ReentrancyGuardReentrantCall()": [
						{
							"details": "Unauthorized reentrant call."
						}
					]
				},
				"kind": "dev",
				"methods": {},
				"version": 1
			},
			"evm": {
				"assembly": "    /* \"contract/vaultBTC.sol\":233:4059  contract VaultBTC is ReentrancyGuard {... */\n  mstore(0x40, 0xa0)\n    /* \"contract/vaultBTC.sol\":930:1006  constructor(address _btcToken) {... */\n  callvalue\n  dup1\n  iszero\n  tag_1\n  jumpi\n  revert(0x00, 0x00)\ntag_1:\n  pop\n  mload(0x40)\n  sub(codesize, bytecodeSize)\n  dup1\n  bytecodeSize\n  dup4\n  codecopy\n  dup2\n  dup2\n  add\n  0x40\n  mstore\n  dup2\n  add\n  swap1\n  tag_2\n  swap2\n  swap1\n  tag_3\n  jump\t// in\ntag_2:\n    /* \"@openzeppelin/contracts/utils/ReentrancyGuard.sol\":1857:1858  1 */\n  0x01\n    /* \"@openzeppelin/contracts/utils/ReentrancyGuard.sol\":2061:2068  _status */\n  0x00\n    /* \"@openzeppelin/contracts/utils/ReentrancyGuard.sol\":2061:2082  _status = NOT_ENTERED */\n  dup2\n  swap1\n  sstore\n  pop\n    /* \"contract/vaultBTC.sol\":989:998  _btcToken */\n  dup1\n    /* \"contract/vaultBTC.sol\":971:999  btcToken = IERC20(_btcToken) */\n  0xffffffffffffffffffffffffffffffffffffffff\n  and\n  0x80\n  dup2\n  0xffffffffffffffffffffffffffffffffffffffff\n  and\n  dup2\n  mstore\n  pop\n  pop\n    /* \"contract/vaultBTC.sol\":930:1006  constructor(address _btcToken) {... */\n  pop\n    /* \"contract/vaultBTC.sol\":233:4059  contract VaultBTC is ReentrancyGuard {... */\n  jump(tag_8)\n    /* \"#utility.yul\":88:205   */\ntag_10:\n    /* \"#utility.yul\":197:198   */\n  0x00\n    /* \"#utility.yul\":194:195   */\n  0x00\n    /* \"#utility.yul\":187:199   */\n  revert\n    /* \"#utility.yul\":334:460   */\ntag_12:\n    /* \"#utility.yul\":371:378   */\n  0x00\n    /* \"#utility.yul\":411:453   */\n  0xffffffffffffffffffffffffffffffffffffffff\n    /* \"#utility.yul\":404:409   */\n  dup3\n    /* \"#utility.yul\":400:454   */\n  and\n    /* \"#utility.yul\":389:454   */\n  swap1\n  pop\n    /* \"#utility.yul\":334:460   */\n  swap2\n  swap1\n  pop\n  jump\t// out\n    /* \"#utility.yul\":466:562   */\ntag_13:\n    /* \"#utility.yul\":503:510   */\n  0x00\n    /* \"#utility.yul\":532:556   */\n  tag_22\n    /* \"#utility.yul\":550:555   */\n  dup3\n    /* \"#utility.yul\":532:556   */\n  tag_12\n  jump\t// in\ntag_22:\n    /* \"#utility.yul\":521:556   */\n  swap1\n  pop\n    /* \"#utility.yul\":466:562   */\n  swap2\n  swap1\n  pop\n  jump\t// out\n    /* \"#utility.yul\":568:690   */\ntag_14:\n    /* \"#utility.yul\":641:665   */\n  tag_24\n    /* \"#utility.yul\":659:664   */\n  dup2\n    /* \"#utility.yul\":641:665   */\n  tag_13\n  jump\t// in\ntag_24:\n    /* \"#utility.yul\":634:639   */\n  dup2\n    /* \"#utility.yul\":631:666   */\n  eq\n    /* \"#utility.yul\":621:684   */\n  tag_25\n  jumpi\n    /* \"#utility.yul\":680:681   */\n  0x00\n    /* \"#utility.yul\":677:678   */\n  0x00\n    /* \"#utility.yul\":670:682   */\n  revert\n    /* \"#utility.yul\":621:684   */\ntag_25:\n    /* \"#utility.yul\":568:690   */\n  pop\n  jump\t// out\n    /* \"#utility.yul\":696:839   */\ntag_15:\n    /* \"#utility.yul\":753:758   */\n  0x00\n    /* \"#utility.yul\":784:790   */\n  dup2\n    /* \"#utility.yul\":778:791   */\n  mload\n    /* \"#utility.yul\":769:791   */\n  swap1\n  pop\n    /* \"#utility.yul\":800:833   */\n  tag_27\n    /* \"#utility.yul\":827:832   */\n  dup2\n    /* \"#utility.yul\":800:833   */\n  tag_14\n  jump\t// in\ntag_27:\n    /* \"#utility.yul\":696:839   */\n  swap3\n  swap2\n  pop\n  pop\n  jump\t// out\n    /* \"#utility.yul\":845:1196   */\ntag_3:\n    /* \"#utility.yul\":915:921   */\n  0x00\n    /* \"#utility.yul\":964:966   */\n  0x20\n    /* \"#utility.yul\":952:961   */\n  dup3\n    /* \"#utility.yul\":943:950   */\n  dup5\n    /* \"#utility.yul\":939:962   */\n  sub\n    /* \"#utility.yul\":935:967   */\n  slt\n    /* \"#utility.yul\":932:1051   */\n  iszero\n  tag_29\n  jumpi\n    /* \"#utility.yul\":970:1049   */\n  tag_30\n  tag_10\n  jump\t// in\ntag_30:\n    /* \"#utility.yul\":932:1051   */\ntag_29:\n    /* \"#utility.yul\":1090:1091   */\n  0x00\n    /* \"#utility.yul\":1115:1179   */\n  tag_31\n    /* \"#utility.yul\":1171:1178   */\n  dup5\n    /* \"#utility.yul\":1162:1168   */\n  dup3\n    /* \"#utility.yul\":1151:1160   */\n  dup6\n    /* \"#utility.yul\":1147:1169   */\n  add\n    /* \"#utility.yul\":1115:1179   */\n  tag_15\n  jump\t// in\ntag_31:\n    /* \"#utility.yul\":1105:1179   */\n  swap2\n  pop\n    /* \"#utility.yul\":1061:1189   */\n  pop\n    /* \"#utility.yul\":845:1196   */\n  swap3\n  swap2\n  pop\n  pop\n  jump\t// out\n    /* \"contract/vaultBTC.sol\":233:4059  contract VaultBTC is ReentrancyGuard {... */\ntag_8:\n  mload(0x80)\n  codecopy(0x00, dataOffset(sub_0), dataSize(sub_0))\n  0x00\n  assignImmutable(\"0x0bf130d09ff5f4b6139a92ba375974bc03314776406dd3b463c5d5893e064a66\")\n  return(0x00, dataSize(sub_0))\nstop\n\nsub_0: assembly {\n        /* \"contract/vaultBTC.sol\":233:4059  contract VaultBTC is ReentrancyGuard {... */\n      mstore(0x40, 0x80)\n      callvalue\n      dup1\n      iszero\n      tag_1\n      jumpi\n      revert(0x00, 0x00)\n    tag_1:\n      pop\n      jumpi(tag_2, lt(calldatasize, 0x04))\n      shr(0xe0, calldataload(0x00))\n      dup1\n      0xa6b6d798\n      gt\n      tag_12\n      jumpi\n      dup1\n      0xa6b6d798\n      eq\n      tag_7\n      jumpi\n      dup1\n      0xd6c89758\n      eq\n      tag_8\n      jumpi\n      dup1\n      0xe6a69ab8\n      eq\n      tag_9\n      jumpi\n      dup1\n      0xe852090a\n      eq\n      tag_10\n      jumpi\n      dup1\n      0xe9169a2c\n      eq\n      tag_11\n      jumpi\n      jump(tag_2)\n    tag_12:\n      dup1\n      0x074bc101\n      eq\n      tag_3\n      jumpi\n      dup1\n      0x406cf229\n      eq\n      tag_4\n      jumpi\n      dup1\n      0x537bb137\n      eq\n      tag_5\n      jumpi\n      dup1\n      0x90b4588b\n      eq\n      tag_6\n      jumpi\n    tag_2:\n      revert(0x00, 0x00)\n        /* \"contract/vaultBTC.sol\":276:308  IERC20 public immutable btcToken */\n    tag_3:\n      tag_13\n      tag_14\n      jump\t// in\n    tag_13:\n      mload(0x40)\n      tag_15\n      swap2\n      swap1\n      tag_16\n      jump\t// in\n    tag_15:\n      mload(0x40)\n      dup1\n      swap2\n      sub\n      swap1\n      return\n        /* \"contract/vaultBTC.sol\":2470:2847  function claimYield() external nonReentrant {... */\n    tag_4:\n      tag_17\n      tag_18\n      jump\t// in\n    tag_17:\n      stop\n        /* \"contract/vaultBTC.sol\":3568:4057  function getPendingYield(address user) external view returns (uint256) {... */\n    tag_5:\n      tag_19\n      0x04\n      dup1\n      calldatasize\n      sub\n      dup2\n      add\n      swap1\n      tag_20\n      swap2\n      swap1\n      tag_21\n      jump\t// in\n    tag_20:\n      tag_22\n      jump\t// in\n    tag_19:\n      mload(0x40)\n      tag_23\n      swap2\n      swap1\n      tag_24\n      jump\t// in\n    tag_23:\n      mload(0x40)\n      dup1\n      swap2\n      sub\n      swap1\n      return\n        /* \"contract/vaultBTC.sol\":1881:2460  function withdrawBTC(uint256 amount) external nonReentrant {... */\n    tag_6:\n      tag_25\n      0x04\n      dup1\n      calldatasize\n      sub\n      dup2\n      add\n      swap1\n      tag_26\n      swap2\n      swap1\n      tag_27\n      jump\t// in\n    tag_26:\n      tag_28\n      jump\t// in\n    tag_25:\n      stop\n        /* \"contract/vaultBTC.sol\":1016:1871  function depositBTC(uint256 amount) external nonReentrant {... */\n    tag_7:\n      tag_29\n      0x04\n      dup1\n      calldatasize\n      sub\n      dup2\n      add\n      swap1\n      tag_30\n      swap2\n      swap1\n      tag_27\n      jump\t// in\n    tag_30:\n      tag_31\n      jump\t// in\n    tag_29:\n      stop\n        /* \"contract/vaultBTC.sol\":524:579  mapping(address => VaultPosition) public vaultPositions */\n    tag_8:\n      tag_32\n      0x04\n      dup1\n      calldatasize\n      sub\n      dup2\n      add\n      swap1\n      tag_33\n      swap2\n      swap1\n      tag_21\n      jump\t// in\n    tag_33:\n      tag_34\n      jump\t// in\n    tag_32:\n      mload(0x40)\n      tag_35\n      swap7\n      swap6\n      swap5\n      swap4\n      swap3\n      swap2\n      swap1\n      tag_36\n      jump\t// in\n    tag_35:\n      mload(0x40)\n      dup1\n      swap2\n      sub\n      swap1\n      return\n        /* \"contract/vaultBTC.sol\":660:711  uint256 public constant SECONDS_PER_YEAR = 365 days */\n    tag_9:\n      tag_37\n      tag_38\n      jump\t// in\n    tag_37:\n      mload(0x40)\n      tag_39\n      swap2\n      swap1\n      tag_24\n      jump\t// in\n    tag_39:\n      mload(0x40)\n      dup1\n      swap2\n      sub\n      swap1\n      return\n        /* \"contract/vaultBTC.sol\":585:625  uint256 public constant YIELD_RATE = 500 */\n    tag_10:\n      tag_40\n      tag_41\n      jump\t// in\n    tag_40:\n      mload(0x40)\n      tag_42\n      swap2\n      swap1\n      tag_24\n      jump\t// in\n    tag_42:\n      mload(0x40)\n      dup1\n      swap2\n      sub\n      swap1\n      return\n        /* \"contract/vaultBTC.sol\":3429:3558  function getVaultPosition(address user) external view returns (VaultPosition memory) {... */\n    tag_11:\n      tag_43\n      0x04\n      dup1\n      calldatasize\n      sub\n      dup2\n      add\n      swap1\n      tag_44\n      swap2\n      swap1\n      tag_21\n      jump\t// in\n    tag_44:\n      tag_45\n      jump\t// in\n    tag_43:\n      mload(0x40)\n      tag_46\n      swap2\n      swap1\n      tag_47\n      jump\t// in\n    tag_46:\n      mload(0x40)\n      dup1\n      swap2\n      sub\n      swap1\n      return\n        /* \"contract/vaultBTC.sol\":276:308  IERC20 public immutable btcToken */\n    tag_14:\n      immutable(\"0x0bf130d09ff5f4b6139a92ba375974bc03314776406dd3b463c5d5893e064a66\")\n      dup2\n      jump\t// out\n        /* \"contract/vaultBTC.sol\":2470:2847  function claimYield() external nonReentrant {... */\n    tag_18:\n        /* \"@openzeppelin/contracts/utils/ReentrancyGuard.sol\":2500:2521  _nonReentrantBefore() */\n      tag_49\n        /* \"@openzeppelin/contracts/utils/ReentrancyGuard.sol\":2500:2519  _nonReentrantBefore */\n      tag_50\n        /* \"@openzeppelin/contracts/utils/ReentrancyGuard.sol\":2500:2521  _nonReentrantBefore() */\n      jump\t// in\n    tag_49:\n        /* \"contract/vaultBTC.sol\":2524:2548  _updateYield(msg.sender) */\n      tag_52\n        /* \"contract/vaultBTC.sol\":2537:2547  msg.sender */\n      caller\n        /* \"contract/vaultBTC.sol\":2524:2536  _updateYield */\n      tag_53\n        /* \"contract/vaultBTC.sol\":2524:2548  _updateYield(msg.sender) */\n      jump\t// in\n    tag_52:\n        /* \"contract/vaultBTC.sol\":2567:2597  VaultPosition storage position */\n      0x00\n        /* \"contract/vaultBTC.sol\":2600:2614  vaultPositions */\n      0x01\n        /* \"contract/vaultBTC.sol\":2600:2626  vaultPositions[msg.sender] */\n      0x00\n        /* \"contract/vaultBTC.sol\":2615:2625  msg.sender */\n      caller\n        /* \"contract/vaultBTC.sol\":2600:2626  vaultPositions[msg.sender] */\n      0xffffffffffffffffffffffffffffffffffffffff\n      and\n      0xffffffffffffffffffffffffffffffffffffffff\n      and\n      dup2\n      mstore\n      0x20\n      add\n      swap1\n      dup2\n      mstore\n      0x20\n      add\n      0x00\n      keccak256\n        /* \"contract/vaultBTC.sol\":2567:2626  VaultPosition storage position = vaultPositions[msg.sender] */\n      swap1\n      pop\n        /* \"contract/vaultBTC.sol\":2636:2649  uint256 yield */\n      0x00\n        /* \"contract/vaultBTC.sol\":2652:2660  position */\n      dup2\n        /* \"contract/vaultBTC.sol\":2652:2673  position.yieldAccrued */\n      0x02\n      add\n      sload\n        /* \"contract/vaultBTC.sol\":2636:2673  uint256 yield = position.yieldAccrued */\n      swap1\n      pop\n        /* \"contract/vaultBTC.sol\":2699:2700  0 */\n      0x00\n        /* \"contract/vaultBTC.sol\":2691:2696  yield */\n      dup2\n        /* \"contract/vaultBTC.sol\":2691:2700  yield > 0 */\n      gt\n        /* \"contract/vaultBTC.sol\":2683:2722  require(yield > 0, \"No yield to claim\") */\n      tag_54\n      jumpi\n      mload(0x40)\n      0x08c379a000000000000000000000000000000000000000000000000000000000\n      dup2\n      mstore\n      0x04\n      add\n      tag_55\n      swap1\n      tag_56\n      jump\t// in\n    tag_55:\n      mload(0x40)\n      dup1\n      swap2\n      sub\n      swap1\n      revert\n    tag_54:\n        /* \"contract/vaultBTC.sol\":2765:2766  0 */\n      0x00\n        /* \"contract/vaultBTC.sol\":2741:2749  position */\n      dup3\n        /* \"contract/vaultBTC.sol\":2741:2762  position.yieldAccrued */\n      0x02\n      add\n        /* \"contract/vaultBTC.sol\":2741:2766  position.yieldAccrued = 0 */\n      dup2\n      swap1\n      sstore\n      pop\n        /* \"contract/vaultBTC.sol\":2784:2792  btcToken */\n      immutable(\"0x0bf130d09ff5f4b6139a92ba375974bc03314776406dd3b463c5d5893e064a66\")\n        /* \"contract/vaultBTC.sol\":2784:2801  btcToken.transfer */\n      0xffffffffffffffffffffffffffffffffffffffff\n      and\n      0xa9059cbb\n        /* \"contract/vaultBTC.sol\":2802:2812  msg.sender */\n      caller\n        /* \"contract/vaultBTC.sol\":2814:2819  yield */\n      dup4\n        /* \"contract/vaultBTC.sol\":2784:2820  btcToken.transfer(msg.sender, yield) */\n      mload(0x40)\n      dup4\n      0xffffffff\n      and\n      0xe0\n      shl\n      dup2\n      mstore\n      0x04\n      add\n      tag_57\n      swap3\n      swap2\n      swap1\n      tag_58\n      jump\t// in\n    tag_57:\n      0x20\n      mload(0x40)\n      dup1\n      dup4\n      sub\n      dup2\n      0x00\n      dup8\n      gas\n      call\n      iszero\n      dup1\n      iszero\n      tag_60\n      jumpi\n      returndatacopy(0x00, 0x00, returndatasize)\n      revert(0x00, returndatasize)\n    tag_60:\n      pop\n      pop\n      pop\n      pop\n      mload(0x40)\n      returndatasize\n      not(0x1f)\n      0x1f\n      dup3\n      add\n      and\n      dup3\n      add\n      dup1\n      0x40\n      mstore\n      pop\n      dup2\n      add\n      swap1\n      tag_61\n      swap2\n      swap1\n      tag_62\n      jump\t// in\n    tag_61:\n        /* \"contract/vaultBTC.sol\":2776:2840  require(btcToken.transfer(msg.sender, yield), \"Transfer failed\") */\n      tag_63\n      jumpi\n      mload(0x40)\n      0x08c379a000000000000000000000000000000000000000000000000000000000\n      dup2\n      mstore\n      0x04\n      add\n      tag_64\n      swap1\n      tag_65\n      jump\t// in\n    tag_64:\n      mload(0x40)\n      dup1\n      swap2\n      sub\n      swap1\n      revert\n    tag_63:\n        /* \"contract/vaultBTC.sol\":2514:2847  {... */\n      pop\n      pop\n        /* \"@openzeppelin/contracts/utils/ReentrancyGuard.sol\":2542:2562  _nonReentrantAfter() */\n      tag_66\n        /* \"@openzeppelin/contracts/utils/ReentrancyGuard.sol\":2542:2560  _nonReentrantAfter */\n      tag_67\n        /* \"@openzeppelin/contracts/utils/ReentrancyGuard.sol\":2542:2562  _nonReentrantAfter() */\n      jump\t// in\n    tag_66:\n        /* \"contract/vaultBTC.sol\":2470:2847  function claimYield() external nonReentrant {... */\n      jump\t// out\n        /* \"contract/vaultBTC.sol\":3568:4057  function getPendingYield(address user) external view returns (uint256) {... */\n    tag_22:\n        /* \"contract/vaultBTC.sol\":3630:3637  uint256 */\n      0x00\n        /* \"contract/vaultBTC.sol\":3649:3678  VaultPosition memory position */\n      0x00\n        /* \"contract/vaultBTC.sol\":3681:3695  vaultPositions */\n      0x01\n        /* \"contract/vaultBTC.sol\":3681:3701  vaultPositions[user] */\n      0x00\n        /* \"contract/vaultBTC.sol\":3696:3700  user */\n      dup5\n        /* \"contract/vaultBTC.sol\":3681:3701  vaultPositions[user] */\n      0xffffffffffffffffffffffffffffffffffffffff\n      and\n      0xffffffffffffffffffffffffffffffffffffffff\n      and\n      dup2\n      mstore\n      0x20\n      add\n      swap1\n      dup2\n      mstore\n      0x20\n      add\n      0x00\n      keccak256\n        /* \"contract/vaultBTC.sol\":3649:3701  VaultPosition memory position = vaultPositions[user] */\n      mload(0x40)\n      dup1\n      0xc0\n      add\n      0x40\n      mstore\n      swap1\n      dup2\n      0x00\n      dup3\n      add\n      sload\n      dup2\n      mstore\n      0x20\n      add\n      0x01\n      dup3\n      add\n      sload\n      dup2\n      mstore\n      0x20\n      add\n      0x02\n      dup3\n      add\n      sload\n      dup2\n      mstore\n      0x20\n      add\n      0x03\n      dup3\n      add\n      sload\n      dup2\n      mstore\n      0x20\n      add\n      0x04\n      dup3\n      add\n      sload\n      dup2\n      mstore\n      0x20\n      add\n      0x05\n      dup3\n      add\n      0x00\n      swap1\n      sload\n      swap1\n      0x0100\n      exp\n      swap1\n      div\n      0xff\n      and\n      iszero\n      iszero\n      iszero\n      iszero\n      dup2\n      mstore\n      pop\n      pop\n      swap1\n      pop\n        /* \"contract/vaultBTC.sol\":3716:3724  position */\n      dup1\n        /* \"contract/vaultBTC.sol\":3716:3733  position.isActive */\n      0xa0\n      add\n      mload\n        /* \"contract/vaultBTC.sol\":3715:3733  !position.isActive */\n      iszero\n        /* \"contract/vaultBTC.sol\":3715:3763  !position.isActive || position.stakedAmount == 0 */\n      dup1\n      tag_69\n      jumpi\n      pop\n        /* \"contract/vaultBTC.sol\":3762:3763  0 */\n      0x00\n        /* \"contract/vaultBTC.sol\":3737:3745  position */\n      dup2\n        /* \"contract/vaultBTC.sol\":3737:3758  position.stakedAmount */\n      0x20\n      add\n      mload\n        /* \"contract/vaultBTC.sol\":3737:3763  position.stakedAmount == 0 */\n      eq\n        /* \"contract/vaultBTC.sol\":3715:3763  !position.isActive || position.stakedAmount == 0 */\n    tag_69:\n        /* \"contract/vaultBTC.sol\":3711:3793  if (!position.isActive || position.stakedAmount == 0) return position.yieldAccrued */\n      iszero\n      tag_70\n      jumpi\n        /* \"contract/vaultBTC.sol\":3772:3780  position */\n      dup1\n        /* \"contract/vaultBTC.sol\":3772:3793  position.yieldAccrued */\n      0x40\n      add\n      mload\n        /* \"contract/vaultBTC.sol\":3765:3793  return position.yieldAccrued */\n      swap2\n      pop\n      pop\n      jump(tag_68)\n        /* \"contract/vaultBTC.sol\":3711:3793  if (!position.isActive || position.stakedAmount == 0) return position.yieldAccrued */\n    tag_70:\n        /* \"contract/vaultBTC.sol\":3812:3831  uint256 timeElapsed */\n      0x00\n        /* \"contract/vaultBTC.sol\":3852:3860  position */\n      dup2\n        /* \"contract/vaultBTC.sol\":3852:3876  position.lastYieldUpdate */\n      0x60\n      add\n      mload\n        /* \"contract/vaultBTC.sol\":3834:3849  block.timestamp */\n      timestamp\n        /* \"contract/vaultBTC.sol\":3834:3876  block.timestamp - position.lastYieldUpdate */\n      tag_71\n      swap2\n      swap1\n      tag_72\n      jump\t// in\n    tag_71:\n        /* \"contract/vaultBTC.sol\":3812:3876  uint256 timeElapsed = block.timestamp - position.lastYieldUpdate */\n      swap1\n      pop\n        /* \"contract/vaultBTC.sol\":3886:3906  uint256 pendingYield */\n      0x00\n        /* \"contract/vaultBTC.sol\":703:711  365 days */\n      0x01e13380\n        /* \"contract/vaultBTC.sol\":3963:3968  10000 */\n      0x2710\n        /* \"contract/vaultBTC.sol\":3963:3987  10000 * SECONDS_PER_YEAR */\n      tag_73\n      swap2\n      swap1\n      tag_74\n      jump\t// in\n    tag_73:\n        /* \"contract/vaultBTC.sol\":3947:3958  timeElapsed */\n      dup3\n        /* \"contract/vaultBTC.sol\":622:625  500 */\n      0x01f4\n        /* \"contract/vaultBTC.sol\":3910:3918  position */\n      dup6\n        /* \"contract/vaultBTC.sol\":3910:3931  position.stakedAmount */\n      0x20\n      add\n      mload\n        /* \"contract/vaultBTC.sol\":3910:3944  position.stakedAmount * YIELD_RATE */\n      tag_75\n      swap2\n      swap1\n      tag_74\n      jump\t// in\n    tag_75:\n        /* \"contract/vaultBTC.sol\":3910:3958  position.stakedAmount * YIELD_RATE * timeElapsed */\n      tag_76\n      swap2\n      swap1\n      tag_74\n      jump\t// in\n    tag_76:\n        /* \"contract/vaultBTC.sol\":3909:3988  (position.stakedAmount * YIELD_RATE * timeElapsed) / (10000 * SECONDS_PER_YEAR) */\n      tag_77\n      swap2\n      swap1\n      tag_78\n      jump\t// in\n    tag_77:\n        /* \"contract/vaultBTC.sol\":3886:3988  uint256 pendingYield = (position.stakedAmount * YIELD_RATE * timeElapsed) / (10000 * SECONDS_PER_YEAR) */\n      swap1\n      pop\n        /* \"contract/vaultBTC.sol\":4038:4050  pendingYield */\n      dup1\n        /* \"contract/vaultBTC.sol\":4014:4022  position */\n      dup4\n        /* \"contract/vaultBTC.sol\":4014:4035  position.yieldAccrued */\n      0x40\n      add\n      mload\n        /* \"contract/vaultBTC.sol\":4014:4050  position.yieldAccrued + pendingYield */\n      tag_79\n      swap2\n      swap1\n      tag_80\n      jump\t// in\n    tag_79:\n        /* \"contract/vaultBTC.sol\":4007:4050  return position.yieldAccrued + pendingYield */\n      swap4\n      pop\n      pop\n      pop\n      pop\n        /* \"contract/vaultBTC.sol\":3568:4057  function getPendingYield(address user) external view returns (uint256) {... */\n    tag_68:\n      swap2\n      swap1\n      pop\n      jump\t// out\n        /* \"contract/vaultBTC.sol\":1881:2460  function withdrawBTC(uint256 amount) external nonReentrant {... */\n    tag_28:\n        /* \"@openzeppelin/contracts/utils/ReentrancyGuard.sol\":2500:2521  _nonReentrantBefore() */\n      tag_82\n        /* \"@openzeppelin/contracts/utils/ReentrancyGuard.sol\":2500:2519  _nonReentrantBefore */\n      tag_50\n        /* \"@openzeppelin/contracts/utils/ReentrancyGuard.sol\":2500:2521  _nonReentrantBefore() */\n      jump\t// in\n    tag_82:\n        /* \"contract/vaultBTC.sol\":1950:1980  VaultPosition storage position */\n      0x00\n        /* \"contract/vaultBTC.sol\":1983:1997  vaultPositions */\n      0x01\n        /* \"contract/vaultBTC.sol\":1983:2009  vaultPositions[msg.sender] */\n      0x00\n        /* \"contract/vaultBTC.sol\":1998:2008  msg.sender */\n      caller\n        /* \"contract/vaultBTC.sol\":1983:2009  vaultPositions[msg.sender] */\n      0xffffffffffffffffffffffffffffffffffffffff\n      and\n      0xffffffffffffffffffffffffffffffffffffffff\n      and\n      dup2\n      mstore\n      0x20\n      add\n      swap1\n      dup2\n      mstore\n      0x20\n      add\n      0x00\n      keccak256\n        /* \"contract/vaultBTC.sol\":1950:2009  VaultPosition storage position = vaultPositions[msg.sender] */\n      swap1\n      pop\n        /* \"contract/vaultBTC.sol\":2027:2035  position */\n      dup1\n        /* \"contract/vaultBTC.sol\":2027:2044  position.isActive */\n      0x05\n      add\n      0x00\n      swap1\n      sload\n      swap1\n      0x0100\n      exp\n      swap1\n      div\n      0xff\n      and\n        /* \"contract/vaultBTC.sol\":2019:2064  require(position.isActive, \"No active vault\") */\n      tag_84\n      jumpi\n      mload(0x40)\n      0x08c379a000000000000000000000000000000000000000000000000000000000\n      dup2\n      mstore\n      0x04\n      add\n      tag_85\n      swap1\n      tag_86\n      jump\t// in\n    tag_85:\n      mload(0x40)\n      dup1\n      swap2\n      sub\n      swap1\n      revert\n    tag_84:\n        /* \"contract/vaultBTC.sol\":2092:2100  position */\n      dup1\n        /* \"contract/vaultBTC.sol\":2092:2113  position.stakedAmount */\n      0x01\n      add\n      sload\n        /* \"contract/vaultBTC.sol\":2082:2088  amount */\n      dup3\n        /* \"contract/vaultBTC.sol\":2082:2113  amount <= position.stakedAmount */\n      gt\n      iszero\n        /* \"contract/vaultBTC.sol\":2074:2138  require(amount <= position.stakedAmount, \"Insufficient balance\") */\n      tag_87\n      jumpi\n      mload(0x40)\n      0x08c379a000000000000000000000000000000000000000000000000000000000\n      dup2\n      mstore\n      0x04\n      add\n      tag_88\n      swap1\n      tag_89\n      jump\t// in\n    tag_88:\n      mload(0x40)\n      dup1\n      swap2\n      sub\n      swap1\n      revert\n    tag_87:\n        /* \"contract/vaultBTC.sol\":2157:2181  _updateYield(msg.sender) */\n      tag_90\n        /* \"contract/vaultBTC.sol\":2170:2180  msg.sender */\n      caller\n        /* \"contract/vaultBTC.sol\":2157:2169  _updateYield */\n      tag_53\n        /* \"contract/vaultBTC.sol\":2157:2181  _updateYield(msg.sender) */\n      jump\t// in\n    tag_90:\n        /* \"contract/vaultBTC.sol\":2225:2231  amount */\n      dup2\n        /* \"contract/vaultBTC.sol\":2200:2208  position */\n      dup2\n        /* \"contract/vaultBTC.sol\":2200:2221  position.stakedAmount */\n      0x01\n      add\n      0x00\n        /* \"contract/vaultBTC.sol\":2200:2231  position.stakedAmount -= amount */\n      dup3\n      dup3\n      sload\n      tag_91\n      swap2\n      swap1\n      tag_72\n      jump\t// in\n    tag_91:\n      swap3\n      pop\n      pop\n      dup2\n      swap1\n      sstore\n      pop\n        /* \"contract/vaultBTC.sol\":2270:2271  0 */\n      0x00\n        /* \"contract/vaultBTC.sol\":2245:2253  position */\n      dup2\n        /* \"contract/vaultBTC.sol\":2245:2266  position.stakedAmount */\n      0x01\n      add\n      sload\n        /* \"contract/vaultBTC.sol\":2245:2271  position.stakedAmount == 0 */\n      sub\n        /* \"contract/vaultBTC.sol\":2241:2323  if (position.stakedAmount == 0) {... */\n      tag_92\n      jumpi\n        /* \"contract/vaultBTC.sol\":2307:2312  false */\n      0x00\n        /* \"contract/vaultBTC.sol\":2287:2295  position */\n      dup2\n        /* \"contract/vaultBTC.sol\":2287:2304  position.isActive */\n      0x05\n      add\n      0x00\n        /* \"contract/vaultBTC.sol\":2287:2312  position.isActive = false */\n      0x0100\n      exp\n      dup2\n      sload\n      dup2\n      0xff\n      mul\n      not\n      and\n      swap1\n      dup4\n      iszero\n      iszero\n      mul\n      or\n      swap1\n      sstore\n      pop\n        /* \"contract/vaultBTC.sol\":2241:2323  if (position.stakedAmount == 0) {... */\n    tag_92:\n        /* \"contract/vaultBTC.sol\":2349:2357  btcToken */\n      immutable(\"0x0bf130d09ff5f4b6139a92ba375974bc03314776406dd3b463c5d5893e064a66\")\n        /* \"contract/vaultBTC.sol\":2349:2366  btcToken.transfer */\n      0xffffffffffffffffffffffffffffffffffffffff\n      and\n      0xa9059cbb\n        /* \"contract/vaultBTC.sol\":2367:2377  msg.sender */\n      caller\n        /* \"contract/vaultBTC.sol\":2379:2385  amount */\n      dup5\n        /* \"contract/vaultBTC.sol\":2349:2386  btcToken.transfer(msg.sender, amount) */\n      mload(0x40)\n      dup4\n      0xffffffff\n      and\n      0xe0\n      shl\n      dup2\n      mstore\n      0x04\n      add\n      tag_93\n      swap3\n      swap2\n      swap1\n      tag_58\n      jump\t// in\n    tag_93:\n      0x20\n      mload(0x40)\n      dup1\n      dup4\n      sub\n      dup2\n      0x00\n      dup8\n      gas\n      call\n      iszero\n      dup1\n      iszero\n      tag_95\n      jumpi\n      returndatacopy(0x00, 0x00, returndatasize)\n      revert(0x00, returndatasize)\n    tag_95:\n      pop\n      pop\n      pop\n      pop\n      mload(0x40)\n      returndatasize\n      not(0x1f)\n      0x1f\n      dup3\n      add\n      and\n      dup3\n      add\n      dup1\n      0x40\n      mstore\n      pop\n      dup2\n      add\n      swap1\n      tag_96\n      swap2\n      swap1\n      tag_62\n      jump\t// in\n    tag_96:\n        /* \"contract/vaultBTC.sol\":2341:2406  require(btcToken.transfer(msg.sender, amount), \"Transfer failed\") */\n      tag_97\n      jumpi\n      mload(0x40)\n      0x08c379a000000000000000000000000000000000000000000000000000000000\n      dup2\n      mstore\n      0x04\n      add\n      tag_98\n      swap1\n      tag_65\n      jump\t// in\n    tag_98:\n      mload(0x40)\n      dup1\n      swap2\n      sub\n      swap1\n      revert\n    tag_97:\n        /* \"contract/vaultBTC.sol\":2434:2444  msg.sender */\n      caller\n        /* \"contract/vaultBTC.sol\":2421:2453  BTCWithdrawn(msg.sender, amount) */\n      0xffffffffffffffffffffffffffffffffffffffff\n      and\n      0x46cb947848d6e66f42fd865aff4e0b9765da557ed05874db5a3c931ccea58ef1\n        /* \"contract/vaultBTC.sol\":2446:2452  amount */\n      dup4\n        /* \"contract/vaultBTC.sol\":2421:2453  BTCWithdrawn(msg.sender, amount) */\n      mload(0x40)\n      tag_99\n      swap2\n      swap1\n      tag_24\n      jump\t// in\n    tag_99:\n      mload(0x40)\n      dup1\n      swap2\n      sub\n      swap1\n      log2\n        /* \"contract/vaultBTC.sol\":1940:2460  {... */\n      pop\n        /* \"@openzeppelin/contracts/utils/ReentrancyGuard.sol\":2542:2562  _nonReentrantAfter() */\n      tag_100\n        /* \"@openzeppelin/contracts/utils/ReentrancyGuard.sol\":2542:2560  _nonReentrantAfter */\n      tag_67\n        /* \"@openzeppelin/contracts/utils/ReentrancyGuard.sol\":2542:2562  _nonReentrantAfter() */\n      jump\t// in\n    tag_100:\n        /* \"contract/vaultBTC.sol\":1881:2460  function withdrawBTC(uint256 amount) external nonReentrant {... */\n      pop\n      jump\t// out\n        /* \"contract/vaultBTC.sol\":1016:1871  function depositBTC(uint256 amount) external nonReentrant {... */\n    tag_31:\n        /* \"@openzeppelin/contracts/utils/ReentrancyGuard.sol\":2500:2521  _nonReentrantBefore() */\n      tag_102\n        /* \"@openzeppelin/contracts/utils/ReentrancyGuard.sol\":2500:2519  _nonReentrantBefore */\n      tag_50\n        /* \"@openzeppelin/contracts/utils/ReentrancyGuard.sol\":2500:2521  _nonReentrantBefore() */\n      jump\t// in\n    tag_102:\n        /* \"contract/vaultBTC.sol\":1101:1102  0 */\n      0x00\n        /* \"contract/vaultBTC.sol\":1092:1098  amount */\n      dup2\n        /* \"contract/vaultBTC.sol\":1092:1102  amount > 0 */\n      gt\n        /* \"contract/vaultBTC.sol\":1084:1125  require(amount > 0, \"Amount must be > 0\") */\n      tag_104\n      jumpi\n      mload(0x40)\n      0x08c379a000000000000000000000000000000000000000000000000000000000\n      dup2\n      mstore\n      0x04\n      add\n      tag_105\n      swap1\n      tag_106\n      jump\t// in\n    tag_105:\n      mload(0x40)\n      dup1\n      swap2\n      sub\n      swap1\n      revert\n    tag_104:\n        /* \"contract/vaultBTC.sol\":1143:1151  btcToken */\n      immutable(\"0x0bf130d09ff5f4b6139a92ba375974bc03314776406dd3b463c5d5893e064a66\")\n        /* \"contract/vaultBTC.sol\":1143:1164  btcToken.transferFrom */\n      0xffffffffffffffffffffffffffffffffffffffff\n      and\n      0x23b872dd\n        /* \"contract/vaultBTC.sol\":1165:1175  msg.sender */\n      caller\n        /* \"contract/vaultBTC.sol\":1185:1189  this */\n      address\n        /* \"contract/vaultBTC.sol\":1192:1198  amount */\n      dup5\n        /* \"contract/vaultBTC.sol\":1143:1199  btcToken.transferFrom(msg.sender, address(this), amount) */\n      mload(0x40)\n      dup5\n      0xffffffff\n      and\n      0xe0\n      shl\n      dup2\n      mstore\n      0x04\n      add\n      tag_107\n      swap4\n      swap3\n      swap2\n      swap1\n      tag_108\n      jump\t// in\n    tag_107:\n      0x20\n      mload(0x40)\n      dup1\n      dup4\n      sub\n      dup2\n      0x00\n      dup8\n      gas\n      call\n      iszero\n      dup1\n      iszero\n      tag_110\n      jumpi\n      returndatacopy(0x00, 0x00, returndatasize)\n      revert(0x00, returndatasize)\n    tag_110:\n      pop\n      pop\n      pop\n      pop\n      mload(0x40)\n      returndatasize\n      not(0x1f)\n      0x1f\n      dup3\n      add\n      and\n      dup3\n      add\n      dup1\n      0x40\n      mstore\n      pop\n      dup2\n      add\n      swap1\n      tag_111\n      swap2\n      swap1\n      tag_62\n      jump\t// in\n    tag_111:\n        /* \"contract/vaultBTC.sol\":1135:1219  require(btcToken.transferFrom(msg.sender, address(this), amount), \"Transfer failed\") */\n      tag_112\n      jumpi\n      mload(0x40)\n      0x08c379a000000000000000000000000000000000000000000000000000000000\n      dup2\n      mstore\n      0x04\n      add\n      tag_113\n      swap1\n      tag_65\n      jump\t// in\n    tag_113:\n      mload(0x40)\n      dup1\n      swap2\n      sub\n      swap1\n      revert\n    tag_112:\n        /* \"contract/vaultBTC.sol\":1238:1262  _updateYield(msg.sender) */\n      tag_114\n        /* \"contract/vaultBTC.sol\":1251:1261  msg.sender */\n      caller\n        /* \"contract/vaultBTC.sol\":1238:1250  _updateYield */\n      tag_53\n        /* \"contract/vaultBTC.sol\":1238:1262  _updateYield(msg.sender) */\n      jump\t// in\n    tag_114:\n        /* \"contract/vaultBTC.sol\":1285:1299  vaultPositions */\n      0x01\n        /* \"contract/vaultBTC.sol\":1285:1311  vaultPositions[msg.sender] */\n      0x00\n        /* \"contract/vaultBTC.sol\":1300:1310  msg.sender */\n      caller\n        /* \"contract/vaultBTC.sol\":1285:1311  vaultPositions[msg.sender] */\n      0xffffffffffffffffffffffffffffffffffffffff\n      and\n      0xffffffffffffffffffffffffffffffffffffffff\n      and\n      dup2\n      mstore\n      0x20\n      add\n      swap1\n      dup2\n      mstore\n      0x20\n      add\n      0x00\n      keccak256\n        /* \"contract/vaultBTC.sol\":1285:1320  vaultPositions[msg.sender].isActive */\n      0x05\n      add\n      0x00\n      swap1\n      sload\n      swap1\n      0x0100\n      exp\n      swap1\n      div\n      0xff\n      and\n        /* \"contract/vaultBTC.sol\":1281:1773  if (vaultPositions[msg.sender].isActive) {... */\n      iszero\n      tag_115\n      jumpi\n        /* \"contract/vaultBTC.sol\":1379:1385  amount */\n      dup1\n        /* \"contract/vaultBTC.sol\":1336:1350  vaultPositions */\n      0x01\n        /* \"contract/vaultBTC.sol\":1336:1362  vaultPositions[msg.sender] */\n      0x00\n        /* \"contract/vaultBTC.sol\":1351:1361  msg.sender */\n      caller\n        /* \"contract/vaultBTC.sol\":1336:1362  vaultPositions[msg.sender] */\n      0xffffffffffffffffffffffffffffffffffffffff\n      and\n      0xffffffffffffffffffffffffffffffffffffffff\n      and\n      dup2\n      mstore\n      0x20\n      add\n      swap1\n      dup2\n      mstore\n      0x20\n      add\n      0x00\n      keccak256\n        /* \"contract/vaultBTC.sol\":1336:1375  vaultPositions[msg.sender].stakedAmount */\n      0x01\n      add\n      0x00\n        /* \"contract/vaultBTC.sol\":1336:1385  vaultPositions[msg.sender].stakedAmount += amount */\n      dup3\n      dup3\n      sload\n      tag_116\n      swap2\n      swap1\n      tag_80\n      jump\t// in\n    tag_116:\n      swap3\n      pop\n      pop\n      dup2\n      swap1\n      sstore\n      pop\n        /* \"contract/vaultBTC.sol\":1281:1773  if (vaultPositions[msg.sender].isActive) {... */\n      jump(tag_117)\n    tag_115:\n        /* \"contract/vaultBTC.sol\":1445:1762  VaultPosition({... */\n      mload(0x40)\n      dup1\n      0xc0\n      add\n      0x40\n      mstore\n      dup1\n        /* \"contract/vaultBTC.sol\":1521:1531  msg.sender */\n      caller\n        /* \"contract/vaultBTC.sol\":1533:1548  block.timestamp */\n      timestamp\n        /* \"contract/vaultBTC.sol\":1504:1549  abi.encodePacked(msg.sender, block.timestamp) */\n      add(0x20, mload(0x40))\n      tag_118\n      swap3\n      swap2\n      swap1\n      tag_119\n      jump\t// in\n    tag_118:\n      mload(0x40)\n      0x20\n      dup2\n      dup4\n      sub\n      sub\n      dup2\n      mstore\n      swap1\n      0x40\n      mstore\n        /* \"contract/vaultBTC.sol\":1494:1550  keccak256(abi.encodePacked(msg.sender, block.timestamp)) */\n      dup1\n      mload\n      swap1\n      0x20\n      add\n      keccak256\n        /* \"contract/vaultBTC.sol\":1486:1551  uint256(keccak256(abi.encodePacked(msg.sender, block.timestamp))) */\n      0x00\n      shr\n        /* \"contract/vaultBTC.sol\":1445:1762  VaultPosition({... */\n      dup2\n      mstore\n      0x20\n      add\n        /* \"contract/vaultBTC.sol\":1583:1589  amount */\n      dup3\n        /* \"contract/vaultBTC.sol\":1445:1762  VaultPosition({... */\n      dup2\n      mstore\n      0x20\n      add\n        /* \"contract/vaultBTC.sol\":1621:1622  0 */\n      0x00\n        /* \"contract/vaultBTC.sol\":1445:1762  VaultPosition({... */\n      dup2\n      mstore\n      0x20\n      add\n        /* \"contract/vaultBTC.sol\":1657:1672  block.timestamp */\n      timestamp\n        /* \"contract/vaultBTC.sol\":1445:1762  VaultPosition({... */\n      dup2\n      mstore\n      0x20\n      add\n        /* \"contract/vaultBTC.sol\":1700:1715  block.timestamp */\n      timestamp\n        /* \"contract/vaultBTC.sol\":1445:1762  VaultPosition({... */\n      dup2\n      mstore\n      0x20\n      add\n        /* \"contract/vaultBTC.sol\":1743:1747  true */\n      0x01\n        /* \"contract/vaultBTC.sol\":1445:1762  VaultPosition({... */\n      iszero\n      iszero\n      dup2\n      mstore\n      pop\n        /* \"contract/vaultBTC.sol\":1416:1430  vaultPositions */\n      0x01\n        /* \"contract/vaultBTC.sol\":1416:1442  vaultPositions[msg.sender] */\n      0x00\n        /* \"contract/vaultBTC.sol\":1431:1441  msg.sender */\n      caller\n        /* \"contract/vaultBTC.sol\":1416:1442  vaultPositions[msg.sender] */\n      0xffffffffffffffffffffffffffffffffffffffff\n      and\n      0xffffffffffffffffffffffffffffffffffffffff\n      and\n      dup2\n      mstore\n      0x20\n      add\n      swap1\n      dup2\n      mstore\n      0x20\n      add\n      0x00\n      keccak256\n        /* \"contract/vaultBTC.sol\":1416:1762  vaultPositions[msg.sender] = VaultPosition({... */\n      0x00\n      dup3\n      add\n      mload\n      dup2\n      0x00\n      add\n      sstore\n      0x20\n      dup3\n      add\n      mload\n      dup2\n      0x01\n      add\n      sstore\n      0x40\n      dup3\n      add\n      mload\n      dup2\n      0x02\n      add\n      sstore\n      0x60\n      dup3\n      add\n      mload\n      dup2\n      0x03\n      add\n      sstore\n      0x80\n      dup3\n      add\n      mload\n      dup2\n      0x04\n      add\n      sstore\n      0xa0\n      dup3\n      add\n      mload\n      dup2\n      0x05\n      add\n      exp(0x0100, 0x00)\n      dup2\n      sload\n      dup2\n      0xff\n      mul\n      not\n      and\n      swap1\n      dup4\n      iszero\n      iszero\n      mul\n      or\n      swap1\n      sstore\n      pop\n      swap1\n      pop\n      pop\n        /* \"contract/vaultBTC.sol\":1281:1773  if (vaultPositions[msg.sender].isActive) {... */\n    tag_117:\n        /* \"contract/vaultBTC.sol\":1809:1819  msg.sender */\n      caller\n        /* \"contract/vaultBTC.sol\":1796:1864  VaultCreated(msg.sender, vaultPositions[msg.sender].vaultId, amount) */\n      0xffffffffffffffffffffffffffffffffffffffff\n      and\n      0x482cfbeb47f8c37dbc7f6d858203153f1728e4ea8f3343f4a3ffc6e7a6157134\n        /* \"contract/vaultBTC.sol\":1821:1835  vaultPositions */\n      0x01\n        /* \"contract/vaultBTC.sol\":1821:1847  vaultPositions[msg.sender] */\n      0x00\n        /* \"contract/vaultBTC.sol\":1836:1846  msg.sender */\n      caller\n        /* \"contract/vaultBTC.sol\":1821:1847  vaultPositions[msg.sender] */\n      0xffffffffffffffffffffffffffffffffffffffff\n      and\n      0xffffffffffffffffffffffffffffffffffffffff\n      and\n      dup2\n      mstore\n      0x20\n      add\n      swap1\n      dup2\n      mstore\n      0x20\n      add\n      0x00\n      keccak256\n        /* \"contract/vaultBTC.sol\":1821:1855  vaultPositions[msg.sender].vaultId */\n      0x00\n      add\n      sload\n        /* \"contract/vaultBTC.sol\":1857:1863  amount */\n      dup4\n        /* \"contract/vaultBTC.sol\":1796:1864  VaultCreated(msg.sender, vaultPositions[msg.sender].vaultId, amount) */\n      mload(0x40)\n      tag_120\n      swap3\n      swap2\n      swap1\n      tag_121\n      jump\t// in\n    tag_120:\n      mload(0x40)\n      dup1\n      swap2\n      sub\n      swap1\n      log2\n        /* \"@openzeppelin/contracts/utils/ReentrancyGuard.sol\":2542:2562  _nonReentrantAfter() */\n      tag_122\n        /* \"@openzeppelin/contracts/utils/ReentrancyGuard.sol\":2542:2560  _nonReentrantAfter */\n      tag_67\n        /* \"@openzeppelin/contracts/utils/ReentrancyGuard.sol\":2542:2562  _nonReentrantAfter() */\n      jump\t// in\n    tag_122:\n        /* \"contract/vaultBTC.sol\":1016:1871  function depositBTC(uint256 amount) external nonReentrant {... */\n      pop\n      jump\t// out\n        /* \"contract/vaultBTC.sol\":524:579  mapping(address => VaultPosition) public vaultPositions */\n    tag_34:\n      mstore(0x20, 0x01)\n      dup1\n      0x00\n      mstore\n      keccak256(0x00, 0x40)\n      0x00\n      swap2\n      pop\n      swap1\n      pop\n      dup1\n      0x00\n      add\n      sload\n      swap1\n      dup1\n      0x01\n      add\n      sload\n      swap1\n      dup1\n      0x02\n      add\n      sload\n      swap1\n      dup1\n      0x03\n      add\n      sload\n      swap1\n      dup1\n      0x04\n      add\n      sload\n      swap1\n      dup1\n      0x05\n      add\n      0x00\n      swap1\n      sload\n      swap1\n      0x0100\n      exp\n      swap1\n      div\n      0xff\n      and\n      swap1\n      pop\n      dup7\n      jump\t// out\n        /* \"contract/vaultBTC.sol\":660:711  uint256 public constant SECONDS_PER_YEAR = 365 days */\n    tag_38:\n        /* \"contract/vaultBTC.sol\":703:711  365 days */\n      0x01e13380\n        /* \"contract/vaultBTC.sol\":660:711  uint256 public constant SECONDS_PER_YEAR = 365 days */\n      dup2\n      jump\t// out\n        /* \"contract/vaultBTC.sol\":585:625  uint256 public constant YIELD_RATE = 500 */\n    tag_41:\n        /* \"contract/vaultBTC.sol\":622:625  500 */\n      0x01f4\n        /* \"contract/vaultBTC.sol\":585:625  uint256 public constant YIELD_RATE = 500 */\n      dup2\n      jump\t// out\n        /* \"contract/vaultBTC.sol\":3429:3558  function getVaultPosition(address user) external view returns (VaultPosition memory) {... */\n    tag_45:\n        /* \"contract/vaultBTC.sol\":3492:3512  VaultPosition memory */\n      tag_123\n      tag_124\n      jump\t// in\n    tag_123:\n        /* \"contract/vaultBTC.sol\":3531:3545  vaultPositions */\n      0x01\n        /* \"contract/vaultBTC.sol\":3531:3551  vaultPositions[user] */\n      0x00\n        /* \"contract/vaultBTC.sol\":3546:3550  user */\n      dup4\n        /* \"contract/vaultBTC.sol\":3531:3551  vaultPositions[user] */\n      0xffffffffffffffffffffffffffffffffffffffff\n      and\n      0xffffffffffffffffffffffffffffffffffffffff\n      and\n      dup2\n      mstore\n      0x20\n      add\n      swap1\n      dup2\n      mstore\n      0x20\n      add\n      0x00\n      keccak256\n        /* \"contract/vaultBTC.sol\":3524:3551  return vaultPositions[user] */\n      mload(0x40)\n      dup1\n      0xc0\n      add\n      0x40\n      mstore\n      swap1\n      dup2\n      0x00\n      dup3\n      add\n      sload\n      dup2\n      mstore\n      0x20\n      add\n      0x01\n      dup3\n      add\n      sload\n      dup2\n      mstore\n      0x20\n      add\n      0x02\n      dup3\n      add\n      sload\n      dup2\n      mstore\n      0x20\n      add\n      0x03\n      dup3\n      add\n      sload\n      dup2\n      mstore\n      0x20\n      add\n      0x04\n      dup3\n      add\n      sload\n      dup2\n      mstore\n      0x20\n      add\n      0x05\n      dup3\n      add\n      0x00\n      swap1\n      sload\n      swap1\n      0x0100\n      exp\n      swap1\n      div\n      0xff\n      and\n      iszero\n      iszero\n      iszero\n      iszero\n      dup2\n      mstore\n      pop\n      pop\n      swap1\n      pop\n        /* \"contract/vaultBTC.sol\":3429:3558  function getVaultPosition(address user) external view returns (VaultPosition memory) {... */\n      swap2\n      swap1\n      pop\n      jump\t// out\n        /* \"@openzeppelin/contracts/utils/ReentrancyGuard.sol\":2575:2882  function _nonReentrantBefore() private {... */\n    tag_50:\n        /* \"@openzeppelin/contracts/utils/ReentrancyGuard.sol\":1899:1900  2 */\n      0x02\n        /* \"@openzeppelin/contracts/utils/ReentrancyGuard.sol\":2702:2709  _status */\n      sload(0x00)\n        /* \"@openzeppelin/contracts/utils/ReentrancyGuard.sol\":2702:2720  _status == ENTERED */\n      sub\n        /* \"@openzeppelin/contracts/utils/ReentrancyGuard.sol\":2698:2784  if (_status == ENTERED) {... */\n      tag_127\n      jumpi\n        /* \"@openzeppelin/contracts/utils/ReentrancyGuard.sol\":2743:2773  ReentrancyGuardReentrantCall() */\n      mload(0x40)\n      0x3ee5aeb500000000000000000000000000000000000000000000000000000000\n      dup2\n      mstore\n      0x04\n      add\n      mload(0x40)\n      dup1\n      swap2\n      sub\n      swap1\n      revert\n        /* \"@openzeppelin/contracts/utils/ReentrancyGuard.sol\":2698:2784  if (_status == ENTERED) {... */\n    tag_127:\n        /* \"@openzeppelin/contracts/utils/ReentrancyGuard.sol\":1899:1900  2 */\n      0x02\n        /* \"@openzeppelin/contracts/utils/ReentrancyGuard.sol\":2858:2865  _status */\n      0x00\n        /* \"@openzeppelin/contracts/utils/ReentrancyGuard.sol\":2858:2875  _status = ENTERED */\n      dup2\n      swap1\n      sstore\n      pop\n        /* \"@openzeppelin/contracts/utils/ReentrancyGuard.sol\":2575:2882  function _nonReentrantBefore() private {... */\n      jump\t// out\n        /* \"contract/vaultBTC.sol\":2857:3419  function _updateYield(address user) internal {... */\n    tag_53:\n        /* \"contract/vaultBTC.sol\":2912:2942  VaultPosition storage position */\n      0x00\n        /* \"contract/vaultBTC.sol\":2945:2959  vaultPositions */\n      0x01\n        /* \"contract/vaultBTC.sol\":2945:2965  vaultPositions[user] */\n      0x00\n        /* \"contract/vaultBTC.sol\":2960:2964  user */\n      dup4\n        /* \"contract/vaultBTC.sol\":2945:2965  vaultPositions[user] */\n      0xffffffffffffffffffffffffffffffffffffffff\n      and\n      0xffffffffffffffffffffffffffffffffffffffff\n      and\n      dup2\n      mstore\n      0x20\n      add\n      swap1\n      dup2\n      mstore\n      0x20\n      add\n      0x00\n      keccak256\n        /* \"contract/vaultBTC.sol\":2912:2965  VaultPosition storage position = vaultPositions[user] */\n      swap1\n      pop\n        /* \"contract/vaultBTC.sol\":2980:2988  position */\n      dup1\n        /* \"contract/vaultBTC.sol\":2980:2997  position.isActive */\n      0x05\n      add\n      0x00\n      swap1\n      sload\n      swap1\n      0x0100\n      exp\n      swap1\n      div\n      0xff\n      and\n        /* \"contract/vaultBTC.sol\":2979:2997  !position.isActive */\n      iszero\n        /* \"contract/vaultBTC.sol\":2979:3027  !position.isActive || position.stakedAmount == 0 */\n      dup1\n      tag_129\n      jumpi\n      pop\n        /* \"contract/vaultBTC.sol\":3026:3027  0 */\n      0x00\n        /* \"contract/vaultBTC.sol\":3001:3009  position */\n      dup2\n        /* \"contract/vaultBTC.sol\":3001:3022  position.stakedAmount */\n      0x01\n      add\n      sload\n        /* \"contract/vaultBTC.sol\":3001:3027  position.stakedAmount == 0 */\n      eq\n        /* \"contract/vaultBTC.sol\":2979:3027  !position.isActive || position.stakedAmount == 0 */\n    tag_129:\n        /* \"contract/vaultBTC.sol\":2975:3036  if (!position.isActive || position.stakedAmount == 0) return; */\n      iszero\n      tag_130\n      jumpi\n        /* \"contract/vaultBTC.sol\":3029:3036  return; */\n      pop\n      jump(tag_128)\n        /* \"contract/vaultBTC.sol\":2975:3036  if (!position.isActive || position.stakedAmount == 0) return; */\n    tag_130:\n        /* \"contract/vaultBTC.sol\":3054:3073  uint256 timeElapsed */\n      0x00\n        /* \"contract/vaultBTC.sol\":3094:3102  position */\n      dup2\n        /* \"contract/vaultBTC.sol\":3094:3118  position.lastYieldUpdate */\n      0x03\n      add\n      sload\n        /* \"contract/vaultBTC.sol\":3076:3091  block.timestamp */\n      timestamp\n        /* \"contract/vaultBTC.sol\":3076:3118  block.timestamp - position.lastYieldUpdate */\n      tag_131\n      swap2\n      swap1\n      tag_72\n      jump\t// in\n    tag_131:\n        /* \"contract/vaultBTC.sol\":3054:3118  uint256 timeElapsed = block.timestamp - position.lastYieldUpdate */\n      swap1\n      pop\n        /* \"contract/vaultBTC.sol\":3128:3141  uint256 yield */\n      0x00\n        /* \"contract/vaultBTC.sol\":703:711  365 days */\n      0x01e13380\n        /* \"contract/vaultBTC.sol\":3198:3203  10000 */\n      0x2710\n        /* \"contract/vaultBTC.sol\":3198:3222  10000 * SECONDS_PER_YEAR */\n      tag_132\n      swap2\n      swap1\n      tag_74\n      jump\t// in\n    tag_132:\n        /* \"contract/vaultBTC.sol\":3182:3193  timeElapsed */\n      dup3\n        /* \"contract/vaultBTC.sol\":622:625  500 */\n      0x01f4\n        /* \"contract/vaultBTC.sol\":3145:3153  position */\n      dup6\n        /* \"contract/vaultBTC.sol\":3145:3166  position.stakedAmount */\n      0x01\n      add\n      sload\n        /* \"contract/vaultBTC.sol\":3145:3179  position.stakedAmount * YIELD_RATE */\n      tag_133\n      swap2\n      swap1\n      tag_74\n      jump\t// in\n    tag_133:\n        /* \"contract/vaultBTC.sol\":3145:3193  position.stakedAmount * YIELD_RATE * timeElapsed */\n      tag_134\n      swap2\n      swap1\n      tag_74\n      jump\t// in\n    tag_134:\n        /* \"contract/vaultBTC.sol\":3144:3223  (position.stakedAmount * YIELD_RATE * timeElapsed) / (10000 * SECONDS_PER_YEAR) */\n      tag_135\n      swap2\n      swap1\n      tag_78\n      jump\t// in\n    tag_135:\n        /* \"contract/vaultBTC.sol\":3128:3223  uint256 yield = (position.stakedAmount * YIELD_RATE * timeElapsed) / (10000 * SECONDS_PER_YEAR) */\n      swap1\n      pop\n        /* \"contract/vaultBTC.sol\":3267:3272  yield */\n      dup1\n        /* \"contract/vaultBTC.sol\":3242:3250  position */\n      dup4\n        /* \"contract/vaultBTC.sol\":3242:3263  position.yieldAccrued */\n      0x02\n      add\n      0x00\n        /* \"contract/vaultBTC.sol\":3242:3272  position.yieldAccrued += yield */\n      dup3\n      dup3\n      sload\n      tag_136\n      swap2\n      swap1\n      tag_80\n      jump\t// in\n    tag_136:\n      swap3\n      pop\n      pop\n      dup2\n      swap1\n      sstore\n      pop\n        /* \"contract/vaultBTC.sol\":3309:3324  block.timestamp */\n      timestamp\n        /* \"contract/vaultBTC.sol\":3282:3290  position */\n      dup4\n        /* \"contract/vaultBTC.sol\":3282:3306  position.lastYieldUpdate */\n      0x03\n      add\n        /* \"contract/vaultBTC.sol\":3282:3324  position.lastYieldUpdate = block.timestamp */\n      dup2\n      swap1\n      sstore\n      pop\n        /* \"contract/vaultBTC.sol\":3355:3356  0 */\n      0x00\n        /* \"contract/vaultBTC.sol\":3347:3352  yield */\n      dup2\n        /* \"contract/vaultBTC.sol\":3347:3356  yield > 0 */\n      gt\n        /* \"contract/vaultBTC.sol\":3343:3413  if (yield > 0) {... */\n      iszero\n      tag_137\n      jumpi\n        /* \"contract/vaultBTC.sol\":3390:3394  user */\n      dup4\n        /* \"contract/vaultBTC.sol\":3377:3402  YieldAccrued(user, yield) */\n      0xffffffffffffffffffffffffffffffffffffffff\n      and\n      0x8258a59886e03bdb78e5ddb9566b8ad4957a1747e8d15fd0b4a24274f35cf317\n        /* \"contract/vaultBTC.sol\":3396:3401  yield */\n      dup3\n        /* \"contract/vaultBTC.sol\":3377:3402  YieldAccrued(user, yield) */\n      mload(0x40)\n      tag_138\n      swap2\n      swap1\n      tag_24\n      jump\t// in\n    tag_138:\n      mload(0x40)\n      dup1\n      swap2\n      sub\n      swap1\n      log2\n        /* \"contract/vaultBTC.sol\":3343:3413  if (yield > 0) {... */\n    tag_137:\n        /* \"contract/vaultBTC.sol\":2902:3419  {... */\n      pop\n      pop\n      pop\n        /* \"contract/vaultBTC.sol\":2857:3419  function _updateYield(address user) internal {... */\n    tag_128:\n      pop\n      jump\t// out\n        /* \"@openzeppelin/contracts/utils/ReentrancyGuard.sol\":2888:3096  function _nonReentrantAfter() private {... */\n    tag_67:\n        /* \"@openzeppelin/contracts/utils/ReentrancyGuard.sol\":1857:1858  1 */\n      0x01\n        /* \"@openzeppelin/contracts/utils/ReentrancyGuard.sol\":3068:3075  _status */\n      0x00\n        /* \"@openzeppelin/contracts/utils/ReentrancyGuard.sol\":3068:3089  _status = NOT_ENTERED */\n      dup2\n      swap1\n      sstore\n      pop\n        /* \"@openzeppelin/contracts/utils/ReentrancyGuard.sol\":2888:3096  function _nonReentrantAfter() private {... */\n      jump\t// out\n    tag_124:\n      mload(0x40)\n      dup1\n      0xc0\n      add\n      0x40\n      mstore\n      dup1\n      0x00\n      dup2\n      mstore\n      0x20\n      add\n      0x00\n      dup2\n      mstore\n      0x20\n      add\n      0x00\n      dup2\n      mstore\n      0x20\n      add\n      0x00\n      dup2\n      mstore\n      0x20\n      add\n      0x00\n      dup2\n      mstore\n      0x20\n      add\n      iszero(iszero(0x00))\n      dup2\n      mstore\n      pop\n      swap1\n      jump\t// out\n        /* \"#utility.yul\":7:133   */\n    tag_140:\n        /* \"#utility.yul\":44:51   */\n      0x00\n        /* \"#utility.yul\":84:126   */\n      0xffffffffffffffffffffffffffffffffffffffff\n        /* \"#utility.yul\":77:82   */\n      dup3\n        /* \"#utility.yul\":73:127   */\n      and\n        /* \"#utility.yul\":62:127   */\n      swap1\n      pop\n        /* \"#utility.yul\":7:133   */\n      swap2\n      swap1\n      pop\n      jump\t// out\n        /* \"#utility.yul\":139:199   */\n    tag_141:\n        /* \"#utility.yul\":167:170   */\n      0x00\n        /* \"#utility.yul\":188:193   */\n      dup2\n        /* \"#utility.yul\":181:193   */\n      swap1\n      pop\n        /* \"#utility.yul\":139:199   */\n      swap2\n      swap1\n      pop\n      jump\t// out\n        /* \"#utility.yul\":205:347   */\n    tag_142:\n        /* \"#utility.yul\":255:264   */\n      0x00\n        /* \"#utility.yul\":288:341   */\n      tag_187\n        /* \"#utility.yul\":306:340   */\n      tag_188\n        /* \"#utility.yul\":315:339   */\n      tag_189\n        /* \"#utility.yul\":333:338   */\n      dup5\n        /* \"#utility.yul\":315:339   */\n      tag_140\n      jump\t// in\n    tag_189:\n        /* \"#utility.yul\":306:340   */\n      tag_141\n      jump\t// in\n    tag_188:\n        /* \"#utility.yul\":288:341   */\n      tag_140\n      jump\t// in\n    tag_187:\n        /* \"#utility.yul\":275:341   */\n      swap1\n      pop\n        /* \"#utility.yul\":205:347   */\n      swap2\n      swap1\n      pop\n      jump\t// out\n        /* \"#utility.yul\":353:479   */\n    tag_143:\n        /* \"#utility.yul\":403:412   */\n      0x00\n        /* \"#utility.yul\":436:473   */\n      tag_191\n        /* \"#utility.yul\":467:472   */\n      dup3\n        /* \"#utility.yul\":436:473   */\n      tag_142\n      jump\t// in\n    tag_191:\n        /* \"#utility.yul\":423:473   */\n      swap1\n      pop\n        /* \"#utility.yul\":353:479   */\n      swap2\n      swap1\n      pop\n      jump\t// out\n        /* \"#utility.yul\":485:625   */\n    tag_144:\n        /* \"#utility.yul\":549:558   */\n      0x00\n        /* \"#utility.yul\":582:619   */\n      tag_193\n        /* \"#utility.yul\":613:618   */\n      dup3\n        /* \"#utility.yul\":582:619   */\n      tag_143\n      jump\t// in\n    tag_193:\n        /* \"#utility.yul\":569:619   */\n      swap1\n      pop\n        /* \"#utility.yul\":485:625   */\n      swap2\n      swap1\n      pop\n      jump\t// out\n        /* \"#utility.yul\":631:790   */\n    tag_145:\n        /* \"#utility.yul\":732:783   */\n      tag_195\n        /* \"#utility.yul\":777:782   */\n      dup2\n        /* \"#utility.yul\":732:783   */\n      tag_144\n      jump\t// in\n    tag_195:\n        /* \"#utility.yul\":727:730   */\n      dup3\n        /* \"#utility.yul\":720:784   */\n      mstore\n        /* \"#utility.yul\":631:790   */\n      pop\n      pop\n      jump\t// out\n        /* \"#utility.yul\":796:1046   */\n    tag_16:\n        /* \"#utility.yul\":903:907   */\n      0x00\n        /* \"#utility.yul\":941:943   */\n      0x20\n        /* \"#utility.yul\":930:939   */\n      dup3\n        /* \"#utility.yul\":926:944   */\n      add\n        /* \"#utility.yul\":918:944   */\n      swap1\n      pop\n        /* \"#utility.yul\":954:1039   */\n      tag_197\n        /* \"#utility.yul\":1036:1037   */\n      0x00\n        /* \"#utility.yul\":1025:1034   */\n      dup4\n        /* \"#utility.yul\":1021:1038   */\n      add\n        /* \"#utility.yul\":1012:1018   */\n      dup5\n        /* \"#utility.yul\":954:1039   */\n      tag_145\n      jump\t// in\n    tag_197:\n        /* \"#utility.yul\":796:1046   */\n      swap3\n      swap2\n      pop\n      pop\n      jump\t// out\n        /* \"#utility.yul\":1133:1250   */\n    tag_147:\n        /* \"#utility.yul\":1242:1243   */\n      0x00\n        /* \"#utility.yul\":1239:1240   */\n      0x00\n        /* \"#utility.yul\":1232:1244   */\n      revert\n        /* \"#utility.yul\":1379:1475   */\n    tag_149:\n        /* \"#utility.yul\":1416:1423   */\n      0x00\n        /* \"#utility.yul\":1445:1469   */\n      tag_202\n        /* \"#utility.yul\":1463:1468   */\n      dup3\n        /* \"#utility.yul\":1445:1469   */\n      tag_140\n      jump\t// in\n    tag_202:\n        /* \"#utility.yul\":1434:1469   */\n      swap1\n      pop\n        /* \"#utility.yul\":1379:1475   */\n      swap2\n      swap1\n      pop\n      jump\t// out\n        /* \"#utility.yul\":1481:1603   */\n    tag_150:\n        /* \"#utility.yul\":1554:1578   */\n      tag_204\n        /* \"#utility.yul\":1572:1577   */\n      dup2\n        /* \"#utility.yul\":1554:1578   */\n      tag_149\n      jump\t// in\n    tag_204:\n        /* \"#utility.yul\":1547:1552   */\n      dup2\n        /* \"#utility.yul\":1544:1579   */\n      eq\n        /* \"#utility.yul\":1534:1597   */\n      tag_205\n      jumpi\n        /* \"#utility.yul\":1593:1594   */\n      0x00\n        /* \"#utility.yul\":1590:1591   */\n      0x00\n        /* \"#utility.yul\":1583:1595   */\n      revert\n        /* \"#utility.yul\":1534:1597   */\n    tag_205:\n        /* \"#utility.yul\":1481:1603   */\n      pop\n      jump\t// out\n        /* \"#utility.yul\":1609:1748   */\n    tag_151:\n        /* \"#utility.yul\":1655:1660   */\n      0x00\n        /* \"#utility.yul\":1693:1699   */\n      dup2\n        /* \"#utility.yul\":1680:1700   */\n      calldataload\n        /* \"#utility.yul\":1671:1700   */\n      swap1\n      pop\n        /* \"#utility.yul\":1709:1742   */\n      tag_207\n        /* \"#utility.yul\":1736:1741   */\n      dup2\n        /* \"#utility.yul\":1709:1742   */\n      tag_150\n      jump\t// in\n    tag_207:\n        /* \"#utility.yul\":1609:1748   */\n      swap3\n      swap2\n      pop\n      pop\n      jump\t// out\n        /* \"#utility.yul\":1754:2083   */\n    tag_21:\n        /* \"#utility.yul\":1813:1819   */\n      0x00\n        /* \"#utility.yul\":1862:1864   */\n      0x20\n        /* \"#utility.yul\":1850:1859   */\n      dup3\n        /* \"#utility.yul\":1841:1848   */\n      dup5\n        /* \"#utility.yul\":1837:1860   */\n      sub\n        /* \"#utility.yul\":1833:1865   */\n      slt\n        /* \"#utility.yul\":1830:1949   */\n      iszero\n      tag_209\n      jumpi\n        /* \"#utility.yul\":1868:1947   */\n      tag_210\n      tag_147\n      jump\t// in\n    tag_210:\n        /* \"#utility.yul\":1830:1949   */\n    tag_209:\n        /* \"#utility.yul\":1988:1989   */\n      0x00\n        /* \"#utility.yul\":2013:2066   */\n      tag_211\n        /* \"#utility.yul\":2058:2065   */\n      dup5\n        /* \"#utility.yul\":2049:2055   */\n      dup3\n        /* \"#utility.yul\":2038:2047   */\n      dup6\n        /* \"#utility.yul\":2034:2056   */\n      add\n        /* \"#utility.yul\":2013:2066   */\n      tag_151\n      jump\t// in\n    tag_211:\n        /* \"#utility.yul\":2003:2066   */\n      swap2\n      pop\n        /* \"#utility.yul\":1959:2076   */\n      pop\n        /* \"#utility.yul\":1754:2083   */\n      swap3\n      swap2\n      pop\n      pop\n      jump\t// out\n        /* \"#utility.yul\":2089:2166   */\n    tag_152:\n        /* \"#utility.yul\":2126:2133   */\n      0x00\n        /* \"#utility.yul\":2155:2160   */\n      dup2\n        /* \"#utility.yul\":2144:2160   */\n      swap1\n      pop\n        /* \"#utility.yul\":2089:2166   */\n      swap2\n      swap1\n      pop\n      jump\t// out\n        /* \"#utility.yul\":2172:2290   */\n    tag_153:\n        /* \"#utility.yul\":2259:2283   */\n      tag_214\n        /* \"#utility.yul\":2277:2282   */\n      dup2\n        /* \"#utility.yul\":2259:2283   */\n      tag_152\n      jump\t// in\n    tag_214:\n        /* \"#utility.yul\":2254:2257   */\n      dup3\n        /* \"#utility.yul\":2247:2284   */\n      mstore\n        /* \"#utility.yul\":2172:2290   */\n      pop\n      pop\n      jump\t// out\n        /* \"#utility.yul\":2296:2518   */\n    tag_24:\n        /* \"#utility.yul\":2389:2393   */\n      0x00\n        /* \"#utility.yul\":2427:2429   */\n      0x20\n        /* \"#utility.yul\":2416:2425   */\n      dup3\n        /* \"#utility.yul\":2412:2430   */\n      add\n        /* \"#utility.yul\":2404:2430   */\n      swap1\n      pop\n        /* \"#utility.yul\":2440:2511   */\n      tag_216\n        /* \"#utility.yul\":2508:2509   */\n      0x00\n        /* \"#utility.yul\":2497:2506   */\n      dup4\n        /* \"#utility.yul\":2493:2510   */\n      add\n        /* \"#utility.yul\":2484:2490   */\n      dup5\n        /* \"#utility.yul\":2440:2511   */\n      tag_153\n      jump\t// in\n    tag_216:\n        /* \"#utility.yul\":2296:2518   */\n      swap3\n      swap2\n      pop\n      pop\n      jump\t// out\n        /* \"#utility.yul\":2524:2646   */\n    tag_154:\n        /* \"#utility.yul\":2597:2621   */\n      tag_218\n        /* \"#utility.yul\":2615:2620   */\n      dup2\n        /* \"#utility.yul\":2597:2621   */\n      tag_152\n      jump\t// in\n    tag_218:\n        /* \"#utility.yul\":2590:2595   */\n      dup2\n        /* \"#utility.yul\":2587:2622   */\n      eq\n        /* \"#utility.yul\":2577:2640   */\n      tag_219\n      jumpi\n        /* \"#utility.yul\":2636:2637   */\n      0x00\n        /* \"#utility.yul\":2633:2634   */\n      0x00\n        /* \"#utility.yul\":2626:2638   */\n      revert\n        /* \"#utility.yul\":2577:2640   */\n    tag_219:\n        /* \"#utility.yul\":2524:2646   */\n      pop\n      jump\t// out\n        /* \"#utility.yul\":2652:2791   */\n    tag_155:\n        /* \"#utility.yul\":2698:2703   */\n      0x00\n        /* \"#utility.yul\":2736:2742   */\n      dup2\n        /* \"#utility.yul\":2723:2743   */\n      calldataload\n        /* \"#utility.yul\":2714:2743   */\n      swap1\n      pop\n        /* \"#utility.yul\":2752:2785   */\n      tag_221\n        /* \"#utility.yul\":2779:2784   */\n      dup2\n        /* \"#utility.yul\":2752:2785   */\n      tag_154\n      jump\t// in\n    tag_221:\n        /* \"#utility.yul\":2652:2791   */\n      swap3\n      swap2\n      pop\n      pop\n      jump\t// out\n        /* \"#utility.yul\":2797:3126   */\n    tag_27:\n        /* \"#utility.yul\":2856:2862   */\n      0x00\n        /* \"#utility.yul\":2905:2907   */\n      0x20\n        /* \"#utility.yul\":2893:2902   */\n      dup3\n        /* \"#utility.yul\":2884:2891   */\n      dup5\n        /* \"#utility.yul\":2880:2903   */\n      sub\n        /* \"#utility.yul\":2876:2908   */\n      slt\n        /* \"#utility.yul\":2873:2992   */\n      iszero\n      tag_223\n      jumpi\n        /* \"#utility.yul\":2911:2990   */\n      tag_224\n      tag_147\n      jump\t// in\n    tag_224:\n        /* \"#utility.yul\":2873:2992   */\n    tag_223:\n        /* \"#utility.yul\":3031:3032   */\n      0x00\n        /* \"#utility.yul\":3056:3109   */\n      tag_225\n        /* \"#utility.yul\":3101:3108   */\n      dup5\n        /* \"#utility.yul\":3092:3098   */\n      dup3\n        /* \"#utility.yul\":3081:3090   */\n      dup6\n        /* \"#utility.yul\":3077:3099   */\n      add\n        /* \"#utility.yul\":3056:3109   */\n      tag_155\n      jump\t// in\n    tag_225:\n        /* \"#utility.yul\":3046:3109   */\n      swap2\n      pop\n        /* \"#utility.yul\":3002:3119   */\n      pop\n        /* \"#utility.yul\":2797:3126   */\n      swap3\n      swap2\n      pop\n      pop\n      jump\t// out\n        /* \"#utility.yul\":3132:3222   */\n    tag_156:\n        /* \"#utility.yul\":3166:3173   */\n      0x00\n        /* \"#utility.yul\":3209:3214   */\n      dup2\n        /* \"#utility.yul\":3202:3215   */\n      iszero\n        /* \"#utility.yul\":3195:3216   */\n      iszero\n        /* \"#utility.yul\":3184:3216   */\n      swap1\n      pop\n        /* \"#utility.yul\":3132:3222   */\n      swap2\n      swap1\n      pop\n      jump\t// out\n        /* \"#utility.yul\":3228:3337   */\n    tag_157:\n        /* \"#utility.yul\":3309:3330   */\n      tag_228\n        /* \"#utility.yul\":3324:3329   */\n      dup2\n        /* \"#utility.yul\":3309:3330   */\n      tag_156\n      jump\t// in\n    tag_228:\n        /* \"#utility.yul\":3304:3307   */\n      dup3\n        /* \"#utility.yul\":3297:3331   */\n      mstore\n        /* \"#utility.yul\":3228:3337   */\n      pop\n      pop\n      jump\t// out\n        /* \"#utility.yul\":3343:4106   */\n    tag_36:\n        /* \"#utility.yul\":3570:3574   */\n      0x00\n        /* \"#utility.yul\":3608:3611   */\n      0xc0\n        /* \"#utility.yul\":3597:3606   */\n      dup3\n        /* \"#utility.yul\":3593:3612   */\n      add\n        /* \"#utility.yul\":3585:3612   */\n      swap1\n      pop\n        /* \"#utility.yul\":3622:3693   */\n      tag_230\n        /* \"#utility.yul\":3690:3691   */\n      0x00\n        /* \"#utility.yul\":3679:3688   */\n      dup4\n        /* \"#utility.yul\":3675:3692   */\n      add\n        /* \"#utility.yul\":3666:3672   */\n      dup10\n        /* \"#utility.yul\":3622:3693   */\n      tag_153\n      jump\t// in\n    tag_230:\n        /* \"#utility.yul\":3703:3775   */\n      tag_231\n        /* \"#utility.yul\":3771:3773   */\n      0x20\n        /* \"#utility.yul\":3760:3769   */\n      dup4\n        /* \"#utility.yul\":3756:3774   */\n      add\n        /* \"#utility.yul\":3747:3753   */\n      dup9\n        /* \"#utility.yul\":3703:3775   */\n      tag_153\n      jump\t// in\n    tag_231:\n        /* \"#utility.yul\":3785:3857   */\n      tag_232\n        /* \"#utility.yul\":3853:3855   */\n      0x40\n        /* \"#utility.yul\":3842:3851   */\n      dup4\n        /* \"#utility.yul\":3838:3856   */\n      add\n        /* \"#utility.yul\":3829:3835   */\n      dup8\n        /* \"#utility.yul\":3785:3857   */\n      tag_153\n      jump\t// in\n    tag_232:\n        /* \"#utility.yul\":3867:3939   */\n      tag_233\n        /* \"#utility.yul\":3935:3937   */\n      0x60\n        /* \"#utility.yul\":3924:3933   */\n      dup4\n        /* \"#utility.yul\":3920:3938   */\n      add\n        /* \"#utility.yul\":3911:3917   */\n      dup7\n        /* \"#utility.yul\":3867:3939   */\n      tag_153\n      jump\t// in\n    tag_233:\n        /* \"#utility.yul\":3949:4022   */\n      tag_234\n        /* \"#utility.yul\":4017:4020   */\n      0x80\n        /* \"#utility.yul\":4006:4015   */\n      dup4\n        /* \"#utility.yul\":4002:4021   */\n      add\n        /* \"#utility.yul\":3993:3999   */\n      dup6\n        /* \"#utility.yul\":3949:4022   */\n      tag_153\n      jump\t// in\n    tag_234:\n        /* \"#utility.yul\":4032:4099   */\n      tag_235\n        /* \"#utility.yul\":4094:4097   */\n      0xa0\n        /* \"#utility.yul\":4083:4092   */\n      dup4\n        /* \"#utility.yul\":4079:4098   */\n      add\n        /* \"#utility.yul\":4070:4076   */\n      dup5\n        /* \"#utility.yul\":4032:4099   */\n      tag_157\n      jump\t// in\n    tag_235:\n        /* \"#utility.yul\":3343:4106   */\n      swap8\n      swap7\n      pop\n      pop\n      pop\n      pop\n      pop\n      pop\n      pop\n      jump\t// out\n        /* \"#utility.yul\":4112:4220   */\n    tag_158:\n        /* \"#utility.yul\":4189:4213   */\n      tag_237\n        /* \"#utility.yul\":4207:4212   */\n      dup2\n        /* \"#utility.yul\":4189:4213   */\n      tag_152\n      jump\t// in\n    tag_237:\n        /* \"#utility.yul\":4184:4187   */\n      dup3\n        /* \"#utility.yul\":4177:4214   */\n      mstore\n        /* \"#utility.yul\":4112:4220   */\n      pop\n      pop\n      jump\t// out\n        /* \"#utility.yul\":4226:4325   */\n    tag_159:\n        /* \"#utility.yul\":4297:4318   */\n      tag_239\n        /* \"#utility.yul\":4312:4317   */\n      dup2\n        /* \"#utility.yul\":4297:4318   */\n      tag_156\n      jump\t// in\n    tag_239:\n        /* \"#utility.yul\":4292:4295   */\n      dup3\n        /* \"#utility.yul\":4285:4319   */\n      mstore\n        /* \"#utility.yul\":4226:4325   */\n      pop\n      pop\n      jump\t// out\n        /* \"#utility.yul\":4401:5646   */\n    tag_160:\n        /* \"#utility.yul\":4558:4562   */\n      0xc0\n        /* \"#utility.yul\":4553:4556   */\n      dup3\n        /* \"#utility.yul\":4549:4563   */\n      add\n        /* \"#utility.yul\":4648:4652   */\n      0x00\n        /* \"#utility.yul\":4641:4646   */\n      dup3\n        /* \"#utility.yul\":4637:4653   */\n      add\n        /* \"#utility.yul\":4631:4654   */\n      mload\n        /* \"#utility.yul\":4667:4730   */\n      tag_241\n        /* \"#utility.yul\":4724:4728   */\n      0x00\n        /* \"#utility.yul\":4719:4722   */\n      dup6\n        /* \"#utility.yul\":4715:4729   */\n      add\n        /* \"#utility.yul\":4701:4713   */\n      dup3\n        /* \"#utility.yul\":4667:4730   */\n      tag_158\n      jump\t// in\n    tag_241:\n        /* \"#utility.yul\":4573:4740   */\n      pop\n        /* \"#utility.yul\":4830:4834   */\n      0x20\n        /* \"#utility.yul\":4823:4828   */\n      dup3\n        /* \"#utility.yul\":4819:4835   */\n      add\n        /* \"#utility.yul\":4813:4836   */\n      mload\n        /* \"#utility.yul\":4849:4912   */\n      tag_242\n        /* \"#utility.yul\":4906:4910   */\n      0x20\n        /* \"#utility.yul\":4901:4904   */\n      dup6\n        /* \"#utility.yul\":4897:4911   */\n      add\n        /* \"#utility.yul\":4883:4895   */\n      dup3\n        /* \"#utility.yul\":4849:4912   */\n      tag_158\n      jump\t// in\n    tag_242:\n        /* \"#utility.yul\":4750:4922   */\n      pop\n        /* \"#utility.yul\":5012:5016   */\n      0x40\n        /* \"#utility.yul\":5005:5010   */\n      dup3\n        /* \"#utility.yul\":5001:5017   */\n      add\n        /* \"#utility.yul\":4995:5018   */\n      mload\n        /* \"#utility.yul\":5031:5094   */\n      tag_243\n        /* \"#utility.yul\":5088:5092   */\n      0x40\n        /* \"#utility.yul\":5083:5086   */\n      dup6\n        /* \"#utility.yul\":5079:5093   */\n      add\n        /* \"#utility.yul\":5065:5077   */\n      dup3\n        /* \"#utility.yul\":5031:5094   */\n      tag_158\n      jump\t// in\n    tag_243:\n        /* \"#utility.yul\":4932:5104   */\n      pop\n        /* \"#utility.yul\":5197:5201   */\n      0x60\n        /* \"#utility.yul\":5190:5195   */\n      dup3\n        /* \"#utility.yul\":5186:5202   */\n      add\n        /* \"#utility.yul\":5180:5203   */\n      mload\n        /* \"#utility.yul\":5216:5279   */\n      tag_244\n        /* \"#utility.yul\":5273:5277   */\n      0x60\n        /* \"#utility.yul\":5268:5271   */\n      dup6\n        /* \"#utility.yul\":5264:5278   */\n      add\n        /* \"#utility.yul\":5250:5262   */\n      dup3\n        /* \"#utility.yul\":5216:5279   */\n      tag_158\n      jump\t// in\n    tag_244:\n        /* \"#utility.yul\":5114:5289   */\n      pop\n        /* \"#utility.yul\":5375:5379   */\n      0x80\n        /* \"#utility.yul\":5368:5373   */\n      dup3\n        /* \"#utility.yul\":5364:5380   */\n      add\n        /* \"#utility.yul\":5358:5381   */\n      mload\n        /* \"#utility.yul\":5394:5457   */\n      tag_245\n        /* \"#utility.yul\":5451:5455   */\n      0x80\n        /* \"#utility.yul\":5446:5449   */\n      dup6\n        /* \"#utility.yul\":5442:5456   */\n      add\n        /* \"#utility.yul\":5428:5440   */\n      dup3\n        /* \"#utility.yul\":5394:5457   */\n      tag_158\n      jump\t// in\n    tag_245:\n        /* \"#utility.yul\":5299:5467   */\n      pop\n        /* \"#utility.yul\":5553:5557   */\n      0xa0\n        /* \"#utility.yul\":5546:5551   */\n      dup3\n        /* \"#utility.yul\":5542:5558   */\n      add\n        /* \"#utility.yul\":5536:5559   */\n      mload\n        /* \"#utility.yul\":5572:5629   */\n      tag_246\n        /* \"#utility.yul\":5623:5627   */\n      0xa0\n        /* \"#utility.yul\":5618:5621   */\n      dup6\n        /* \"#utility.yul\":5614:5628   */\n      add\n        /* \"#utility.yul\":5600:5612   */\n      dup3\n        /* \"#utility.yul\":5572:5629   */\n      tag_159\n      jump\t// in\n    tag_246:\n        /* \"#utility.yul\":5477:5639   */\n      pop\n        /* \"#utility.yul\":4527:5646   */\n      pop\n        /* \"#utility.yul\":4401:5646   */\n      pop\n      pop\n      jump\t// out\n        /* \"#utility.yul\":5652:5995   */\n    tag_47:\n        /* \"#utility.yul\":5805:5809   */\n      0x00\n        /* \"#utility.yul\":5843:5846   */\n      0xc0\n        /* \"#utility.yul\":5832:5841   */\n      dup3\n        /* \"#utility.yul\":5828:5847   */\n      add\n        /* \"#utility.yul\":5820:5847   */\n      swap1\n      pop\n        /* \"#utility.yul\":5857:5988   */\n      tag_248\n        /* \"#utility.yul\":5985:5986   */\n      0x00\n        /* \"#utility.yul\":5974:5983   */\n      dup4\n        /* \"#utility.yul\":5970:5987   */\n      add\n        /* \"#utility.yul\":5961:5967   */\n      dup5\n        /* \"#utility.yul\":5857:5988   */\n      tag_160\n      jump\t// in\n    tag_248:\n        /* \"#utility.yul\":5652:5995   */\n      swap3\n      swap2\n      pop\n      pop\n      jump\t// out\n        /* \"#utility.yul\":6001:6170   */\n    tag_161:\n        /* \"#utility.yul\":6085:6096   */\n      0x00\n        /* \"#utility.yul\":6119:6125   */\n      dup3\n        /* \"#utility.yul\":6114:6117   */\n      dup3\n        /* \"#utility.yul\":6107:6126   */\n      mstore\n        /* \"#utility.yul\":6159:6163   */\n      0x20\n        /* \"#utility.yul\":6154:6157   */\n      dup3\n        /* \"#utility.yul\":6150:6164   */\n      add\n        /* \"#utility.yul\":6135:6164   */\n      swap1\n      pop\n        /* \"#utility.yul\":6001:6170   */\n      swap3\n      swap2\n      pop\n      pop\n      jump\t// out\n        /* \"#utility.yul\":6176:6343   */\n    tag_162:\n        /* \"#utility.yul\":6316:6335   */\n      0x4e6f207969656c6420746f20636c61696d000000000000000000000000000000\n        /* \"#utility.yul\":6312:6313   */\n      0x00\n        /* \"#utility.yul\":6304:6310   */\n      dup3\n        /* \"#utility.yul\":6300:6314   */\n      add\n        /* \"#utility.yul\":6293:6336   */\n      mstore\n        /* \"#utility.yul\":6176:6343   */\n      pop\n      jump\t// out\n        /* \"#utility.yul\":6349:6715   */\n    tag_163:\n        /* \"#utility.yul\":6491:6494   */\n      0x00\n        /* \"#utility.yul\":6512:6579   */\n      tag_252\n        /* \"#utility.yul\":6576:6578   */\n      0x11\n        /* \"#utility.yul\":6571:6574   */\n      dup4\n        /* \"#utility.yul\":6512:6579   */\n      tag_161\n      jump\t// in\n    tag_252:\n        /* \"#utility.yul\":6505:6579   */\n      swap2\n      pop\n        /* \"#utility.yul\":6588:6681   */\n      tag_253\n        /* \"#utility.yul\":6677:6680   */\n      dup3\n        /* \"#utility.yul\":6588:6681   */\n      tag_162\n      jump\t// in\n    tag_253:\n        /* \"#utility.yul\":6706:6708   */\n      0x20\n        /* \"#utility.yul\":6701:6704   */\n      dup3\n        /* \"#utility.yul\":6697:6709   */\n      add\n        /* \"#utility.yul\":6690:6709   */\n      swap1\n      pop\n        /* \"#utility.yul\":6349:6715   */\n      swap2\n      swap1\n      pop\n      jump\t// out\n        /* \"#utility.yul\":6721:7140   */\n    tag_56:\n        /* \"#utility.yul\":6887:6891   */\n      0x00\n        /* \"#utility.yul\":6925:6927   */\n      0x20\n        /* \"#utility.yul\":6914:6923   */\n      dup3\n        /* \"#utility.yul\":6910:6928   */\n      add\n        /* \"#utility.yul\":6902:6928   */\n      swap1\n      pop\n        /* \"#utility.yul\":6974:6983   */\n      dup2\n        /* \"#utility.yul\":6968:6972   */\n      dup2\n        /* \"#utility.yul\":6964:6984   */\n      sub\n        /* \"#utility.yul\":6960:6961   */\n      0x00\n        /* \"#utility.yul\":6949:6958   */\n      dup4\n        /* \"#utility.yul\":6945:6962   */\n      add\n        /* \"#utility.yul\":6938:6985   */\n      mstore\n        /* \"#utility.yul\":7002:7133   */\n      tag_255\n        /* \"#utility.yul\":7128:7132   */\n      dup2\n        /* \"#utility.yul\":7002:7133   */\n      tag_163\n      jump\t// in\n    tag_255:\n        /* \"#utility.yul\":6994:7133   */\n      swap1\n      pop\n        /* \"#utility.yul\":6721:7140   */\n      swap2\n      swap1\n      pop\n      jump\t// out\n        /* \"#utility.yul\":7146:7264   */\n    tag_164:\n        /* \"#utility.yul\":7233:7257   */\n      tag_257\n        /* \"#utility.yul\":7251:7256   */\n      dup2\n        /* \"#utility.yul\":7233:7257   */\n      tag_149\n      jump\t// in\n    tag_257:\n        /* \"#utility.yul\":7228:7231   */\n      dup3\n        /* \"#utility.yul\":7221:7258   */\n      mstore\n        /* \"#utility.yul\":7146:7264   */\n      pop\n      pop\n      jump\t// out\n        /* \"#utility.yul\":7270:7602   */\n    tag_58:\n        /* \"#utility.yul\":7391:7395   */\n      0x00\n        /* \"#utility.yul\":7429:7431   */\n      0x40\n        /* \"#utility.yul\":7418:7427   */\n      dup3\n        /* \"#utility.yul\":7414:7432   */\n      add\n        /* \"#utility.yul\":7406:7432   */\n      swap1\n      pop\n        /* \"#utility.yul\":7442:7513   */\n      tag_259\n        /* \"#utility.yul\":7510:7511   */\n      0x00\n        /* \"#utility.yul\":7499:7508   */\n      dup4\n        /* \"#utility.yul\":7495:7512   */\n      add\n        /* \"#utility.yul\":7486:7492   */\n      dup6\n        /* \"#utility.yul\":7442:7513   */\n      tag_164\n      jump\t// in\n    tag_259:\n        /* \"#utility.yul\":7523:7595   */\n      tag_260\n        /* \"#utility.yul\":7591:7593   */\n      0x20\n        /* \"#utility.yul\":7580:7589   */\n      dup4\n        /* \"#utility.yul\":7576:7594   */\n      add\n        /* \"#utility.yul\":7567:7573   */\n      dup5\n        /* \"#utility.yul\":7523:7595   */\n      tag_153\n      jump\t// in\n    tag_260:\n        /* \"#utility.yul\":7270:7602   */\n      swap4\n      swap3\n      pop\n      pop\n      pop\n      jump\t// out\n        /* \"#utility.yul\":7608:7724   */\n    tag_165:\n        /* \"#utility.yul\":7678:7699   */\n      tag_262\n        /* \"#utility.yul\":7693:7698   */\n      dup2\n        /* \"#utility.yul\":7678:7699   */\n      tag_156\n      jump\t// in\n    tag_262:\n        /* \"#utility.yul\":7671:7676   */\n      dup2\n        /* \"#utility.yul\":7668:7700   */\n      eq\n        /* \"#utility.yul\":7658:7718   */\n      tag_263\n      jumpi\n        /* \"#utility.yul\":7714:7715   */\n      0x00\n        /* \"#utility.yul\":7711:7712   */\n      0x00\n        /* \"#utility.yul\":7704:7716   */\n      revert\n        /* \"#utility.yul\":7658:7718   */\n    tag_263:\n        /* \"#utility.yul\":7608:7724   */\n      pop\n      jump\t// out\n        /* \"#utility.yul\":7730:7867   */\n    tag_166:\n        /* \"#utility.yul\":7784:7789   */\n      0x00\n        /* \"#utility.yul\":7815:7821   */\n      dup2\n        /* \"#utility.yul\":7809:7822   */\n      mload\n        /* \"#utility.yul\":7800:7822   */\n      swap1\n      pop\n        /* \"#utility.yul\":7831:7861   */\n      tag_265\n        /* \"#utility.yul\":7855:7860   */\n      dup2\n        /* \"#utility.yul\":7831:7861   */\n      tag_165\n      jump\t// in\n    tag_265:\n        /* \"#utility.yul\":7730:7867   */\n      swap3\n      swap2\n      pop\n      pop\n      jump\t// out\n        /* \"#utility.yul\":7873:8218   */\n    tag_62:\n        /* \"#utility.yul\":7940:7946   */\n      0x00\n        /* \"#utility.yul\":7989:7991   */\n      0x20\n        /* \"#utility.yul\":7977:7986   */\n      dup3\n        /* \"#utility.yul\":7968:7975   */\n      dup5\n        /* \"#utility.yul\":7964:7987   */\n      sub\n        /* \"#utility.yul\":7960:7992   */\n      slt\n        /* \"#utility.yul\":7957:8076   */\n      iszero\n      tag_267\n      jumpi\n        /* \"#utility.yul\":7995:8074   */\n      tag_268\n      tag_147\n      jump\t// in\n    tag_268:\n        /* \"#utility.yul\":7957:8076   */\n    tag_267:\n        /* \"#utility.yul\":8115:8116   */\n      0x00\n        /* \"#utility.yul\":8140:8201   */\n      tag_269\n        /* \"#utility.yul\":8193:8200   */\n      dup5\n        /* \"#utility.yul\":8184:8190   */\n      dup3\n        /* \"#utility.yul\":8173:8182   */\n      dup6\n        /* \"#utility.yul\":8169:8191   */\n      add\n        /* \"#utility.yul\":8140:8201   */\n      tag_166\n      jump\t// in\n    tag_269:\n        /* \"#utility.yul\":8130:8201   */\n      swap2\n      pop\n        /* \"#utility.yul\":8086:8211   */\n      pop\n        /* \"#utility.yul\":7873:8218   */\n      swap3\n      swap2\n      pop\n      pop\n      jump\t// out\n        /* \"#utility.yul\":8224:8389   */\n    tag_167:\n        /* \"#utility.yul\":8364:8381   */\n      0x5472616e73666572206661696c65640000000000000000000000000000000000\n        /* \"#utility.yul\":8360:8361   */\n      0x00\n        /* \"#utility.yul\":8352:8358   */\n      dup3\n        /* \"#utility.yul\":8348:8362   */\n      add\n        /* \"#utility.yul\":8341:8382   */\n      mstore\n        /* \"#utility.yul\":8224:8389   */\n      pop\n      jump\t// out\n        /* \"#utility.yul\":8395:8761   */\n    tag_168:\n        /* \"#utility.yul\":8537:8540   */\n      0x00\n        /* \"#utility.yul\":8558:8625   */\n      tag_272\n        /* \"#utility.yul\":8622:8624   */\n      0x0f\n        /* \"#utility.yul\":8617:8620   */\n      dup4\n        /* \"#utility.yul\":8558:8625   */\n      tag_161\n      jump\t// in\n    tag_272:\n        /* \"#utility.yul\":8551:8625   */\n      swap2\n      pop\n        /* \"#utility.yul\":8634:8727   */\n      tag_273\n        /* \"#utility.yul\":8723:8726   */\n      dup3\n        /* \"#utility.yul\":8634:8727   */\n      tag_167\n      jump\t// in\n    tag_273:\n        /* \"#utility.yul\":8752:8754   */\n      0x20\n        /* \"#utility.yul\":8747:8750   */\n      dup3\n        /* \"#utility.yul\":8743:8755   */\n      add\n        /* \"#utility.yul\":8736:8755   */\n      swap1\n      pop\n        /* \"#utility.yul\":8395:8761   */\n      swap2\n      swap1\n      pop\n      jump\t// out\n        /* \"#utility.yul\":8767:9186   */\n    tag_65:\n        /* \"#utility.yul\":8933:8937   */\n      0x00\n        /* \"#utility.yul\":8971:8973   */\n      0x20\n        /* \"#utility.yul\":8960:8969   */\n      dup3\n        /* \"#utility.yul\":8956:8974   */\n      add\n        /* \"#utility.yul\":8948:8974   */\n      swap1\n      pop\n        /* \"#utility.yul\":9020:9029   */\n      dup2\n        /* \"#utility.yul\":9014:9018   */\n      dup2\n        /* \"#utility.yul\":9010:9030   */\n      sub\n        /* \"#utility.yul\":9006:9007   */\n      0x00\n        /* \"#utility.yul\":8995:9004   */\n      dup4\n        /* \"#utility.yul\":8991:9008   */\n      add\n        /* \"#utility.yul\":8984:9031   */\n      mstore\n        /* \"#utility.yul\":9048:9179   */\n      tag_275\n        /* \"#utility.yul\":9174:9178   */\n      dup2\n        /* \"#utility.yul\":9048:9179   */\n      tag_168\n      jump\t// in\n    tag_275:\n        /* \"#utility.yul\":9040:9179   */\n      swap1\n      pop\n        /* \"#utility.yul\":8767:9186   */\n      swap2\n      swap1\n      pop\n      jump\t// out\n        /* \"#utility.yul\":9192:9372   */\n    tag_169:\n        /* \"#utility.yul\":9240:9317   */\n      0x4e487b7100000000000000000000000000000000000000000000000000000000\n        /* \"#utility.yul\":9237:9238   */\n      0x00\n        /* \"#utility.yul\":9230:9318   */\n      mstore\n        /* \"#utility.yul\":9337:9341   */\n      0x11\n        /* \"#utility.yul\":9334:9335   */\n      0x04\n        /* \"#utility.yul\":9327:9342   */\n      mstore\n        /* \"#utility.yul\":9361:9365   */\n      0x24\n        /* \"#utility.yul\":9358:9359   */\n      0x00\n        /* \"#utility.yul\":9351:9366   */\n      revert\n        /* \"#utility.yul\":9378:9572   */\n    tag_72:\n        /* \"#utility.yul\":9418:9422   */\n      0x00\n        /* \"#utility.yul\":9438:9458   */\n      tag_278\n        /* \"#utility.yul\":9456:9457   */\n      dup3\n        /* \"#utility.yul\":9438:9458   */\n      tag_152\n      jump\t// in\n    tag_278:\n        /* \"#utility.yul\":9433:9458   */\n      swap2\n      pop\n        /* \"#utility.yul\":9472:9492   */\n      tag_279\n        /* \"#utility.yul\":9490:9491   */\n      dup4\n        /* \"#utility.yul\":9472:9492   */\n      tag_152\n      jump\t// in\n    tag_279:\n        /* \"#utility.yul\":9467:9492   */\n      swap3\n      pop\n        /* \"#utility.yul\":9516:9517   */\n      dup3\n        /* \"#utility.yul\":9513:9514   */\n      dup3\n        /* \"#utility.yul\":9509:9518   */\n      sub\n        /* \"#utility.yul\":9501:9518   */\n      swap1\n      pop\n        /* \"#utility.yul\":9540:9541   */\n      dup2\n        /* \"#utility.yul\":9534:9538   */\n      dup2\n        /* \"#utility.yul\":9531:9542   */\n      gt\n        /* \"#utility.yul\":9528:9565   */\n      iszero\n      tag_280\n      jumpi\n        /* \"#utility.yul\":9545:9563   */\n      tag_281\n      tag_169\n      jump\t// in\n    tag_281:\n        /* \"#utility.yul\":9528:9565   */\n    tag_280:\n        /* \"#utility.yul\":9378:9572   */\n      swap3\n      swap2\n      pop\n      pop\n      jump\t// out\n        /* \"#utility.yul\":9578:9988   */\n    tag_74:\n        /* \"#utility.yul\":9618:9625   */\n      0x00\n        /* \"#utility.yul\":9641:9661   */\n      tag_283\n        /* \"#utility.yul\":9659:9660   */\n      dup3\n        /* \"#utility.yul\":9641:9661   */\n      tag_152\n      jump\t// in\n    tag_283:\n        /* \"#utility.yul\":9636:9661   */\n      swap2\n      pop\n        /* \"#utility.yul\":9675:9695   */\n      tag_284\n        /* \"#utility.yul\":9693:9694   */\n      dup4\n        /* \"#utility.yul\":9675:9695   */\n      tag_152\n      jump\t// in\n    tag_284:\n        /* \"#utility.yul\":9670:9695   */\n      swap3\n      pop\n        /* \"#utility.yul\":9730:9731   */\n      dup3\n        /* \"#utility.yul\":9727:9728   */\n      dup3\n        /* \"#utility.yul\":9723:9732   */\n      mul\n        /* \"#utility.yul\":9752:9782   */\n      tag_285\n        /* \"#utility.yul\":9770:9781   */\n      dup2\n        /* \"#utility.yul\":9752:9782   */\n      tag_152\n      jump\t// in\n    tag_285:\n        /* \"#utility.yul\":9741:9782   */\n      swap2\n      pop\n        /* \"#utility.yul\":9931:9932   */\n      dup3\n        /* \"#utility.yul\":9922:9929   */\n      dup3\n        /* \"#utility.yul\":9918:9933   */\n      div\n        /* \"#utility.yul\":9915:9916   */\n      dup5\n        /* \"#utility.yul\":9912:9934   */\n      eq\n        /* \"#utility.yul\":9892:9893   */\n      dup4\n        /* \"#utility.yul\":9885:9894   */\n      iszero\n        /* \"#utility.yul\":9865:9948   */\n      or\n        /* \"#utility.yul\":9842:9981   */\n      tag_286\n      jumpi\n        /* \"#utility.yul\":9961:9979   */\n      tag_287\n      tag_169\n      jump\t// in\n    tag_287:\n        /* \"#utility.yul\":9842:9981   */\n    tag_286:\n        /* \"#utility.yul\":9626:9988   */\n      pop\n        /* \"#utility.yul\":9578:9988   */\n      swap3\n      swap2\n      pop\n      pop\n      jump\t// out\n        /* \"#utility.yul\":9994:10174   */\n    tag_170:\n        /* \"#utility.yul\":10042:10119   */\n      0x4e487b7100000000000000000000000000000000000000000000000000000000\n        /* \"#utility.yul\":10039:10040   */\n      0x00\n        /* \"#utility.yul\":10032:10120   */\n      mstore\n        /* \"#utility.yul\":10139:10143   */\n      0x12\n        /* \"#utility.yul\":10136:10137   */\n      0x04\n        /* \"#utility.yul\":10129:10144   */\n      mstore\n        /* \"#utility.yul\":10163:10167   */\n      0x24\n        /* \"#utility.yul\":10160:10161   */\n      0x00\n        /* \"#utility.yul\":10153:10168   */\n      revert\n        /* \"#utility.yul\":10180:10365   */\n    tag_78:\n        /* \"#utility.yul\":10220:10221   */\n      0x00\n        /* \"#utility.yul\":10237:10257   */\n      tag_290\n        /* \"#utility.yul\":10255:10256   */\n      dup3\n        /* \"#utility.yul\":10237:10257   */\n      tag_152\n      jump\t// in\n    tag_290:\n        /* \"#utility.yul\":10232:10257   */\n      swap2\n      pop\n        /* \"#utility.yul\":10271:10291   */\n      tag_291\n        /* \"#utility.yul\":10289:10290   */\n      dup4\n        /* \"#utility.yul\":10271:10291   */\n      tag_152\n      jump\t// in\n    tag_291:\n        /* \"#utility.yul\":10266:10291   */\n      swap3\n      pop\n        /* \"#utility.yul\":10310:10311   */\n      dup3\n        /* \"#utility.yul\":10300:10335   */\n      tag_292\n      jumpi\n        /* \"#utility.yul\":10315:10333   */\n      tag_293\n      tag_170\n      jump\t// in\n    tag_293:\n        /* \"#utility.yul\":10300:10335   */\n    tag_292:\n        /* \"#utility.yul\":10357:10358   */\n      dup3\n        /* \"#utility.yul\":10354:10355   */\n      dup3\n        /* \"#utility.yul\":10350:10359   */\n      div\n        /* \"#utility.yul\":10345:10359   */\n      swap1\n      pop\n        /* \"#utility.yul\":10180:10365   */\n      swap3\n      swap2\n      pop\n      pop\n      jump\t// out\n        /* \"#utility.yul\":10371:10562   */\n    tag_80:\n        /* \"#utility.yul\":10411:10414   */\n      0x00\n        /* \"#utility.yul\":10430:10450   */\n      tag_295\n        /* \"#utility.yul\":10448:10449   */\n      dup3\n        /* \"#utility.yul\":10430:10450   */\n      tag_152\n      jump\t// in\n    tag_295:\n        /* \"#utility.yul\":10425:10450   */\n      swap2\n      pop\n        /* \"#utility.yul\":10464:10484   */\n      tag_296\n        /* \"#utility.yul\":10482:10483   */\n      dup4\n        /* \"#utility.yul\":10464:10484   */\n      tag_152\n      jump\t// in\n    tag_296:\n        /* \"#utility.yul\":10459:10484   */\n      swap3\n      pop\n        /* \"#utility.yul\":10507:10508   */\n      dup3\n        /* \"#utility.yul\":10504:10505   */\n      dup3\n        /* \"#utility.yul\":10500:10509   */\n      add\n        /* \"#utility.yul\":10493:10509   */\n      swap1\n      pop\n        /* \"#utility.yul\":10528:10531   */\n      dup1\n        /* \"#utility.yul\":10525:10526   */\n      dup3\n        /* \"#utility.yul\":10522:10532   */\n      gt\n        /* \"#utility.yul\":10519:10555   */\n      iszero\n      tag_297\n      jumpi\n        /* \"#utility.yul\":10535:10553   */\n      tag_298\n      tag_169\n      jump\t// in\n    tag_298:\n        /* \"#utility.yul\":10519:10555   */\n    tag_297:\n        /* \"#utility.yul\":10371:10562   */\n      swap3\n      swap2\n      pop\n      pop\n      jump\t// out\n        /* \"#utility.yul\":10568:10733   */\n    tag_171:\n        /* \"#utility.yul\":10708:10725   */\n      0x4e6f20616374697665207661756c740000000000000000000000000000000000\n        /* \"#utility.yul\":10704:10705   */\n      0x00\n        /* \"#utility.yul\":10696:10702   */\n      dup3\n        /* \"#utility.yul\":10692:10706   */\n      add\n        /* \"#utility.yul\":10685:10726   */\n      mstore\n        /* \"#utility.yul\":10568:10733   */\n      pop\n      jump\t// out\n        /* \"#utility.yul\":10739:11105   */\n    tag_172:\n        /* \"#utility.yul\":10881:10884   */\n      0x00\n        /* \"#utility.yul\":10902:10969   */\n      tag_301\n        /* \"#utility.yul\":10966:10968   */\n      0x0f\n        /* \"#utility.yul\":10961:10964   */\n      dup4\n        /* \"#utility.yul\":10902:10969   */\n      tag_161\n      jump\t// in\n    tag_301:\n        /* \"#utility.yul\":10895:10969   */\n      swap2\n      pop\n        /* \"#utility.yul\":10978:11071   */\n      tag_302\n        /* \"#utility.yul\":11067:11070   */\n      dup3\n        /* \"#utility.yul\":10978:11071   */\n      tag_171\n      jump\t// in\n    tag_302:\n        /* \"#utility.yul\":11096:11098   */\n      0x20\n        /* \"#utility.yul\":11091:11094   */\n      dup3\n        /* \"#utility.yul\":11087:11099   */\n      add\n        /* \"#utility.yul\":11080:11099   */\n      swap1\n      pop\n        /* \"#utility.yul\":10739:11105   */\n      swap2\n      swap1\n      pop\n      jump\t// out\n        /* \"#utility.yul\":11111:11530   */\n    tag_86:\n        /* \"#utility.yul\":11277:11281   */\n      0x00\n        /* \"#utility.yul\":11315:11317   */\n      0x20\n        /* \"#utility.yul\":11304:11313   */\n      dup3\n        /* \"#utility.yul\":11300:11318   */\n      add\n        /* \"#utility.yul\":11292:11318   */\n      swap1\n      pop\n        /* \"#utility.yul\":11364:11373   */\n      dup2\n        /* \"#utility.yul\":11358:11362   */\n      dup2\n        /* \"#utility.yul\":11354:11374   */\n      sub\n        /* \"#utility.yul\":11350:11351   */\n      0x00\n        /* \"#utility.yul\":11339:11348   */\n      dup4\n        /* \"#utility.yul\":11335:11352   */\n      add\n        /* \"#utility.yul\":11328:11375   */\n      mstore\n        /* \"#utility.yul\":11392:11523   */\n      tag_304\n        /* \"#utility.yul\":11518:11522   */\n      dup2\n        /* \"#utility.yul\":11392:11523   */\n      tag_172\n      jump\t// in\n    tag_304:\n        /* \"#utility.yul\":11384:11523   */\n      swap1\n      pop\n        /* \"#utility.yul\":11111:11530   */\n      swap2\n      swap1\n      pop\n      jump\t// out\n        /* \"#utility.yul\":11536:11706   */\n    tag_173:\n        /* \"#utility.yul\":11676:11698   */\n      0x496e73756666696369656e742062616c616e6365000000000000000000000000\n        /* \"#utility.yul\":11672:11673   */\n      0x00\n        /* \"#utility.yul\":11664:11670   */\n      dup3\n        /* \"#utility.yul\":11660:11674   */\n      add\n        /* \"#utility.yul\":11653:11699   */\n      mstore\n        /* \"#utility.yul\":11536:11706   */\n      pop\n      jump\t// out\n        /* \"#utility.yul\":11712:12078   */\n    tag_174:\n        /* \"#utility.yul\":11854:11857   */\n      0x00\n        /* \"#utility.yul\":11875:11942   */\n      tag_307\n        /* \"#utility.yul\":11939:11941   */\n      0x14\n        /* \"#utility.yul\":11934:11937   */\n      dup4\n        /* \"#utility.yul\":11875:11942   */\n      tag_161\n      jump\t// in\n    tag_307:\n        /* \"#utility.yul\":11868:11942   */\n      swap2\n      pop\n        /* \"#utility.yul\":11951:12044   */\n      tag_308\n        /* \"#utility.yul\":12040:12043   */\n      dup3\n        /* \"#utility.yul\":11951:12044   */\n      tag_173\n      jump\t// in\n    tag_308:\n        /* \"#utility.yul\":12069:12071   */\n      0x20\n        /* \"#utility.yul\":12064:12067   */\n      dup3\n        /* \"#utility.yul\":12060:12072   */\n      add\n        /* \"#utility.yul\":12053:12072   */\n      swap1\n      pop\n        /* \"#utility.yul\":11712:12078   */\n      swap2\n      swap1\n      pop\n      jump\t// out\n        /* \"#utility.yul\":12084:12503   */\n    tag_89:\n        /* \"#utility.yul\":12250:12254   */\n      0x00\n        /* \"#utility.yul\":12288:12290   */\n      0x20\n        /* \"#utility.yul\":12277:12286   */\n      dup3\n        /* \"#utility.yul\":12273:12291   */\n      add\n        /* \"#utility.yul\":12265:12291   */\n      swap1\n      pop\n        /* \"#utility.yul\":12337:12346   */\n      dup2\n        /* \"#utility.yul\":12331:12335   */\n      dup2\n        /* \"#utility.yul\":12327:12347   */\n      sub\n        /* \"#utility.yul\":12323:12324   */\n      0x00\n        /* \"#utility.yul\":12312:12321   */\n      dup4\n        /* \"#utility.yul\":12308:12325   */\n      add\n        /* \"#utility.yul\":12301:12348   */\n      mstore\n        /* \"#utility.yul\":12365:12496   */\n      tag_310\n        /* \"#utility.yul\":12491:12495   */\n      dup2\n        /* \"#utility.yul\":12365:12496   */\n      tag_174\n      jump\t// in\n    tag_310:\n        /* \"#utility.yul\":12357:12496   */\n      swap1\n      pop\n        /* \"#utility.yul\":12084:12503   */\n      swap2\n      swap1\n      pop\n      jump\t// out\n        /* \"#utility.yul\":12509:12677   */\n    tag_175:\n        /* \"#utility.yul\":12649:12669   */\n      0x416d6f756e74206d757374206265203e20300000000000000000000000000000\n        /* \"#utility.yul\":12645:12646   */\n      0x00\n        /* \"#utility.yul\":12637:12643   */\n      dup3\n        /* \"#utility.yul\":12633:12647   */\n      add\n        /* \"#utility.yul\":12626:12670   */\n      mstore\n        /* \"#utility.yul\":12509:12677   */\n      pop\n      jump\t// out\n        /* \"#utility.yul\":12683:13049   */\n    tag_176:\n        /* \"#utility.yul\":12825:12828   */\n      0x00\n        /* \"#utility.yul\":12846:12913   */\n      tag_313\n        /* \"#utility.yul\":12910:12912   */\n      0x12\n        /* \"#utility.yul\":12905:12908   */\n      dup4\n        /* \"#utility.yul\":12846:12913   */\n      tag_161\n      jump\t// in\n    tag_313:\n        /* \"#utility.yul\":12839:12913   */\n      swap2\n      pop\n        /* \"#utility.yul\":12922:13015   */\n      tag_314\n        /* \"#utility.yul\":13011:13014   */\n      dup3\n        /* \"#utility.yul\":12922:13015   */\n      tag_175\n      jump\t// in\n    tag_314:\n        /* \"#utility.yul\":13040:13042   */\n      0x20\n        /* \"#utility.yul\":13035:13038   */\n      dup3\n        /* \"#utility.yul\":13031:13043   */\n      add\n        /* \"#utility.yul\":13024:13043   */\n      swap1\n      pop\n        /* \"#utility.yul\":12683:13049   */\n      swap2\n      swap1\n      pop\n      jump\t// out\n        /* \"#utility.yul\":13055:13474   */\n    tag_106:\n        /* \"#utility.yul\":13221:13225   */\n      0x00\n        /* \"#utility.yul\":13259:13261   */\n      0x20\n        /* \"#utility.yul\":13248:13257   */\n      dup3\n        /* \"#utility.yul\":13244:13262   */\n      add\n        /* \"#utility.yul\":13236:13262   */\n      swap1\n      pop\n        /* \"#utility.yul\":13308:13317   */\n      dup2\n        /* \"#utility.yul\":13302:13306   */\n      dup2\n        /* \"#utility.yul\":13298:13318   */\n      sub\n        /* \"#utility.yul\":13294:13295   */\n      0x00\n        /* \"#utility.yul\":13283:13292   */\n      dup4\n        /* \"#utility.yul\":13279:13296   */\n      add\n        /* \"#utility.yul\":13272:13319   */\n      mstore\n        /* \"#utility.yul\":13336:13467   */\n      tag_316\n        /* \"#utility.yul\":13462:13466   */\n      dup2\n        /* \"#utility.yul\":13336:13467   */\n      tag_176\n      jump\t// in\n    tag_316:\n        /* \"#utility.yul\":13328:13467   */\n      swap1\n      pop\n        /* \"#utility.yul\":13055:13474   */\n      swap2\n      swap1\n      pop\n      jump\t// out\n        /* \"#utility.yul\":13480:13922   */\n    tag_108:\n        /* \"#utility.yul\":13629:13633   */\n      0x00\n        /* \"#utility.yul\":13667:13669   */\n      0x60\n        /* \"#utility.yul\":13656:13665   */\n      dup3\n        /* \"#utility.yul\":13652:13670   */\n      add\n        /* \"#utility.yul\":13644:13670   */\n      swap1\n      pop\n        /* \"#utility.yul\":13680:13751   */\n      tag_318\n        /* \"#utility.yul\":13748:13749   */\n      0x00\n        /* \"#utility.yul\":13737:13746   */\n      dup4\n        /* \"#utility.yul\":13733:13750   */\n      add\n        /* \"#utility.yul\":13724:13730   */\n      dup7\n        /* \"#utility.yul\":13680:13751   */\n      tag_164\n      jump\t// in\n    tag_318:\n        /* \"#utility.yul\":13761:13833   */\n      tag_319\n        /* \"#utility.yul\":13829:13831   */\n      0x20\n        /* \"#utility.yul\":13818:13827   */\n      dup4\n        /* \"#utility.yul\":13814:13832   */\n      add\n        /* \"#utility.yul\":13805:13811   */\n      dup6\n        /* \"#utility.yul\":13761:13833   */\n      tag_164\n      jump\t// in\n    tag_319:\n        /* \"#utility.yul\":13843:13915   */\n      tag_320\n        /* \"#utility.yul\":13911:13913   */\n      0x40\n        /* \"#utility.yul\":13900:13909   */\n      dup4\n        /* \"#utility.yul\":13896:13914   */\n      add\n        /* \"#utility.yul\":13887:13893   */\n      dup5\n        /* \"#utility.yul\":13843:13915   */\n      tag_153\n      jump\t// in\n    tag_320:\n        /* \"#utility.yul\":13480:13922   */\n      swap5\n      swap4\n      pop\n      pop\n      pop\n      pop\n      jump\t// out\n        /* \"#utility.yul\":13928:14022   */\n    tag_177:\n        /* \"#utility.yul\":13961:13969   */\n      0x00\n        /* \"#utility.yul\":14009:14014   */\n      dup2\n        /* \"#utility.yul\":14005:14007   */\n      0x60\n        /* \"#utility.yul\":14001:14015   */\n      shl\n        /* \"#utility.yul\":13980:14015   */\n      swap1\n      pop\n        /* \"#utility.yul\":13928:14022   */\n      swap2\n      swap1\n      pop\n      jump\t// out\n        /* \"#utility.yul\":14028:14122   */\n    tag_178:\n        /* \"#utility.yul\":14067:14074   */\n      0x00\n        /* \"#utility.yul\":14096:14116   */\n      tag_323\n        /* \"#utility.yul\":14110:14115   */\n      dup3\n        /* \"#utility.yul\":14096:14116   */\n      tag_177\n      jump\t// in\n    tag_323:\n        /* \"#utility.yul\":14085:14116   */\n      swap1\n      pop\n        /* \"#utility.yul\":14028:14122   */\n      swap2\n      swap1\n      pop\n      jump\t// out\n        /* \"#utility.yul\":14128:14228   */\n    tag_179:\n        /* \"#utility.yul\":14167:14174   */\n      0x00\n        /* \"#utility.yul\":14196:14222   */\n      tag_325\n        /* \"#utility.yul\":14216:14221   */\n      dup3\n        /* \"#utility.yul\":14196:14222   */\n      tag_178\n      jump\t// in\n    tag_325:\n        /* \"#utility.yul\":14185:14222   */\n      swap1\n      pop\n        /* \"#utility.yul\":14128:14228   */\n      swap2\n      swap1\n      pop\n      jump\t// out\n        /* \"#utility.yul\":14234:14391   */\n    tag_180:\n        /* \"#utility.yul\":14339:14384   */\n      tag_327\n        /* \"#utility.yul\":14359:14383   */\n      tag_328\n        /* \"#utility.yul\":14377:14382   */\n      dup3\n        /* \"#utility.yul\":14359:14383   */\n      tag_149\n      jump\t// in\n    tag_328:\n        /* \"#utility.yul\":14339:14384   */\n      tag_179\n      jump\t// in\n    tag_327:\n        /* \"#utility.yul\":14334:14337   */\n      dup3\n        /* \"#utility.yul\":14327:14385   */\n      mstore\n        /* \"#utility.yul\":14234:14391   */\n      pop\n      pop\n      jump\t// out\n        /* \"#utility.yul\":14397:14476   */\n    tag_181:\n        /* \"#utility.yul\":14436:14443   */\n      0x00\n        /* \"#utility.yul\":14465:14470   */\n      dup2\n        /* \"#utility.yul\":14454:14470   */\n      swap1\n      pop\n        /* \"#utility.yul\":14397:14476   */\n      swap2\n      swap1\n      pop\n      jump\t// out\n        /* \"#utility.yul\":14482:14639   */\n    tag_182:\n        /* \"#utility.yul\":14587:14632   */\n      tag_331\n        /* \"#utility.yul\":14607:14631   */\n      tag_332\n        /* \"#utility.yul\":14625:14630   */\n      dup3\n        /* \"#utility.yul\":14607:14631   */\n      tag_152\n      jump\t// in\n    tag_332:\n        /* \"#utility.yul\":14587:14632   */\n      tag_181\n      jump\t// in\n    tag_331:\n        /* \"#utility.yul\":14582:14585   */\n      dup3\n        /* \"#utility.yul\":14575:14633   */\n      mstore\n        /* \"#utility.yul\":14482:14639   */\n      pop\n      pop\n      jump\t// out\n        /* \"#utility.yul\":14645:15042   */\n    tag_119:\n        /* \"#utility.yul\":14785:14788   */\n      0x00\n        /* \"#utility.yul\":14800:14875   */\n      tag_334\n        /* \"#utility.yul\":14871:14874   */\n      dup3\n        /* \"#utility.yul\":14862:14868   */\n      dup6\n        /* \"#utility.yul\":14800:14875   */\n      tag_180\n      jump\t// in\n    tag_334:\n        /* \"#utility.yul\":14900:14902   */\n      0x14\n        /* \"#utility.yul\":14895:14898   */\n      dup3\n        /* \"#utility.yul\":14891:14903   */\n      add\n        /* \"#utility.yul\":14884:14903   */\n      swap2\n      pop\n        /* \"#utility.yul\":14913:14988   */\n      tag_335\n        /* \"#utility.yul\":14984:14987   */\n      dup3\n        /* \"#utility.yul\":14975:14981   */\n      dup5\n        /* \"#utility.yul\":14913:14988   */\n      tag_182\n      jump\t// in\n    tag_335:\n        /* \"#utility.yul\":15013:15015   */\n      0x20\n        /* \"#utility.yul\":15008:15011   */\n      dup3\n        /* \"#utility.yul\":15004:15016   */\n      add\n        /* \"#utility.yul\":14997:15016   */\n      swap2\n      pop\n        /* \"#utility.yul\":15033:15036   */\n      dup2\n        /* \"#utility.yul\":15026:15036   */\n      swap1\n      pop\n        /* \"#utility.yul\":14645:15042   */\n      swap4\n      swap3\n      pop\n      pop\n      pop\n      jump\t// out\n        /* \"#utility.yul\":15048:15380   */\n    tag_121:\n        /* \"#utility.yul\":15169:15173   */\n      0x00\n        /* \"#utility.yul\":15207:15209   */\n      0x40\n        /* \"#utility.yul\":15196:15205   */\n      dup3\n        /* \"#utility.yul\":15192:15210   */\n      add\n        /* \"#utility.yul\":15184:15210   */\n      swap1\n      pop\n        /* \"#utility.yul\":15220:15291   */\n      tag_337\n        /* \"#utility.yul\":15288:15289   */\n      0x00\n        /* \"#utility.yul\":15277:15286   */\n      dup4\n        /* \"#utility.yul\":15273:15290   */\n      add\n        /* \"#utility.yul\":15264:15270   */\n      dup6\n        /* \"#utility.yul\":15220:15291   */\n      tag_153\n      jump\t// in\n    tag_337:\n        /* \"#utility.yul\":15301:15373   */\n      tag_338\n        /* \"#utility.yul\":15369:15371   */\n      0x20\n        /* \"#utility.yul\":15358:15367   */\n      dup4\n        /* \"#utility.yul\":15354:15372   */\n      add\n        /* \"#utility.yul\":15345:15351   */\n      dup5\n        /* \"#utility.yul\":15301:15373   */\n      tag_153\n      jump\t// in\n    tag_338:\n        /* \"#utility.yul\":15048:15380   */\n      swap4\n      swap3\n      pop\n      pop\n      pop\n      jump\t// out\n\n    auxdata: 0xa2646970667358221220bf974b8cdefa991814e064e5700b40783a69e6a7cddead716462d18784be0bb164736f6c634300081e0033\n}\n",
				"bytecode": {
					"linkReferences": {},
					"object": "60a060405234801561000f575f5ffd5b506040516115d03803806115d0833981810160405281019061003191906100d0565b60015f819055508073ffffffffffffffffffffffffffffffffffffffff1660808173ffffffffffffffffffffffffffffffffffffffff1681525050506100fb565b5f5ffd5b5f73ffffffffffffffffffffffffffffffffffffffff82169050919050565b5f61009f82610076565b9050919050565b6100af81610095565b81146100b9575f5ffd5b50565b5f815190506100ca816100a6565b92915050565b5f602082840312156100e5576100e4610072565b5b5f6100f2848285016100bc565b91505092915050565b6080516114a86101285f395f81816101c801528181610290015281816105c6015261074401526114a85ff3fe608060405234801561000f575f5ffd5b5060043610610091575f3560e01c8063a6b6d79811610064578063a6b6d79814610109578063d6c8975814610125578063e6a69ab81461015a578063e852090a14610178578063e9169a2c1461019657610091565b8063074bc10114610095578063406cf229146100b3578063537bb137146100bd57806390b4588b146100ed575b5f5ffd5b61009d6101c6565b6040516100aa9190610d80565b60405180910390f35b6100bb6101ea565b005b6100d760048036038101906100d29190610dd8565b610374565b6040516100e49190610e1b565b60405180910390f35b61010760048036038101906101029190610e5e565b61049b565b005b610123600480360381019061011e9190610e5e565b6106f8565b005b61013f600480360381019061013a9190610dd8565b610a58565b60405161015196959493929190610ea3565b60405180910390f35b610162610a9c565b60405161016f9190610e1b565b60405180910390f35b610180610aa4565b60405161018d9190610e1b565b60405180910390f35b6101b060048036038101906101ab9190610dd8565b610aaa565b6040516101bd9190610f99565b60405180910390f35b7f000000000000000000000000000000000000000000000000000000000000000081565b6101f2610b4c565b6101fb33610b90565b5f60015f3373ffffffffffffffffffffffffffffffffffffffff1673ffffffffffffffffffffffffffffffffffffffff1681526020019081526020015f2090505f816002015490505f8111610285576040517f08c379a000000000000000000000000000000000000000000000000000000000815260040161027c9061100c565b60405180910390fd5b5f82600201819055507f000000000000000000000000000000000000000000000000000000000000000073ffffffffffffffffffffffffffffffffffffffff1663a9059cbb33836040518363ffffffff1660e01b81526004016102e9929190611039565b6020604051808303815f875af1158015610305573d5f5f3e3d5ffd5b505050506040513d601f19601f82011682018060405250810190610329919061108a565b610368576040517f08c379a000000000000000000000000000000000000000000000000000000000815260040161035f906110ff565b60405180910390fd5b5050610372610ccb565b565b5f5f60015f8473ffffffffffffffffffffffffffffffffffffffff1673ffffffffffffffffffffffffffffffffffffffff1681526020019081526020015f206040518060c00160405290815f820154815260200160018201548152602001600282015481526020016003820154815260200160048201548152602001600582015f9054906101000a900460ff16151515158152505090508060a00151158061041f57505f8160200151145b15610431578060400151915050610496565b5f816060015142610442919061114a565b90505f6301e13380612710610457919061117d565b826101f4856020015161046a919061117d565b610474919061117d565b61047e91906111eb565b9050808360400151610490919061121b565b93505050505b919050565b6104a3610b4c565b5f60015f3373ffffffffffffffffffffffffffffffffffffffff1673ffffffffffffffffffffffffffffffffffffffff1681526020019081526020015f209050806005015f9054906101000a900460ff16610533576040517f08c379a000000000000000000000000000000000000000000000000000000000815260040161052a90611298565b60405180910390fd5b806001015482111561057a576040517f08c379a000000000000000000000000000000000000000000000000000000000815260040161057190611300565b60405180910390fd5b61058333610b90565b81816001015f828254610596919061114a565b925050819055505f8160010154036105c4575f816005015f6101000a81548160ff0219169083151502179055505b7f000000000000000000000000000000000000000000000000000000000000000073ffffffffffffffffffffffffffffffffffffffff1663a9059cbb33846040518363ffffffff1660e01b815260040161061f929190611039565b6020604051808303815f875af115801561063b573d5f5f3e3d5ffd5b505050506040513d601f19601f8201168201806040525081019061065f919061108a565b61069e576040517f08c379a0000000000000000000000000000000000000000000000000000000008152600401610695906110ff565b60405180910390fd5b3373ffffffffffffffffffffffffffffffffffffffff167f46cb947848d6e66f42fd865aff4e0b9765da557ed05874db5a3c931ccea58ef1836040516106e49190610e1b565b60405180910390a2506106f5610ccb565b50565b610700610b4c565b5f8111610742576040517f08c379a000000000000000000000000000000000000000000000000000000000815260040161073990611368565b60405180910390fd5b7f000000000000000000000000000000000000000000000000000000000000000073ffffffffffffffffffffffffffffffffffffffff166323b872dd3330846040518463ffffffff1660e01b815260040161079f93929190611386565b6020604051808303815f875af11580156107bb573d5f5f3e3d5ffd5b505050506040513d601f19601f820116820180604052508101906107df919061108a565b61081e576040517f08c379a0000000000000000000000000000000000000000000000000000000008152600401610815906110ff565b60405180910390fd5b61082733610b90565b60015f3373ffffffffffffffffffffffffffffffffffffffff1673ffffffffffffffffffffffffffffffffffffffff1681526020019081526020015f206005015f9054906101000a900460ff16156108d4578060015f3373ffffffffffffffffffffffffffffffffffffffff1673ffffffffffffffffffffffffffffffffffffffff1681526020019081526020015f206001015f8282546108c8919061121b565b925050819055506109be565b6040518060c0016040528033426040516020016108f2929190611420565b604051602081830303815290604052805190602001205f1c81526020018281526020015f81526020014281526020014281526020016001151581525060015f3373ffffffffffffffffffffffffffffffffffffffff1673ffffffffffffffffffffffffffffffffffffffff1681526020019081526020015f205f820151815f01556020820151816001015560408201518160020155606082015181600301556080820151816004015560a0820151816005015f6101000a81548160ff0219169083151502179055509050505b3373ffffffffffffffffffffffffffffffffffffffff167f482cfbeb47f8c37dbc7f6d858203153f1728e4ea8f3343f4a3ffc6e7a615713460015f3373ffffffffffffffffffffffffffffffffffffffff1673ffffffffffffffffffffffffffffffffffffffff1681526020019081526020015f205f015483604051610a4592919061144b565b60405180910390a2610a55610ccb565b50565b6001602052805f5260405f205f91509050805f015490806001015490806002015490806003015490806004015490806005015f9054906101000a900460ff16905086565b6301e1338081565b6101f481565b610ab2610cd4565b60015f8373ffffffffffffffffffffffffffffffffffffffff1673ffffffffffffffffffffffffffffffffffffffff1681526020019081526020015f206040518060c00160405290815f820154815260200160018201548152602001600282015481526020016003820154815260200160048201548152602001600582015f9054906101000a900460ff1615151515815250509050919050565b60025f5403610b87576040517f3ee5aeb500000000000000000000000000000000000000000000000000000000815260040160405180910390fd5b60025f81905550565b5f60015f8373ffffffffffffffffffffffffffffffffffffffff1673ffffffffffffffffffffffffffffffffffffffff1681526020019081526020015f209050806005015f9054906101000a900460ff161580610bf057505f8160010154145b15610bfb5750610cc8565b5f816003015442610c0c919061114a565b90505f6301e13380612710610c21919061117d565b826101f48560010154610c34919061117d565b610c3e919061117d565b610c4891906111eb565b905080836002015f828254610c5d919061121b565b925050819055504283600301819055505f811115610cc4578373ffffffffffffffffffffffffffffffffffffffff167f8258a59886e03bdb78e5ddb9566b8ad4957a1747e8d15fd0b4a24274f35cf31782604051610cbb9190610e1b565b60405180910390a25b5050505b50565b60015f81905550565b6040518060c001604052805f81526020015f81526020015f81526020015f81526020015f81526020015f151581525090565b5f73ffffffffffffffffffffffffffffffffffffffff82169050919050565b5f819050919050565b5f610d48610d43610d3e84610d06565b610d25565b610d06565b9050919050565b5f610d5982610d2e565b9050919050565b5f610d6a82610d4f565b9050919050565b610d7a81610d60565b82525050565b5f602082019050610d935f830184610d71565b92915050565b5f5ffd5b5f610da782610d06565b9050919050565b610db781610d9d565b8114610dc1575f5ffd5b50565b5f81359050610dd281610dae565b92915050565b5f60208284031215610ded57610dec610d99565b5b5f610dfa84828501610dc4565b91505092915050565b5f819050919050565b610e1581610e03565b82525050565b5f602082019050610e2e5f830184610e0c565b92915050565b610e3d81610e03565b8114610e47575f5ffd5b50565b5f81359050610e5881610e34565b92915050565b5f60208284031215610e7357610e72610d99565b5b5f610e8084828501610e4a565b91505092915050565b5f8115159050919050565b610e9d81610e89565b82525050565b5f60c082019050610eb65f830189610e0c565b610ec36020830188610e0c565b610ed06040830187610e0c565b610edd6060830186610e0c565b610eea6080830185610e0c565b610ef760a0830184610e94565b979650505050505050565b610f0b81610e03565b82525050565b610f1a81610e89565b82525050565b60c082015f820151610f345f850182610f02565b506020820151610f476020850182610f02565b506040820151610f5a6040850182610f02565b506060820151610f6d6060850182610f02565b506080820151610f806080850182610f02565b5060a0820151610f9360a0850182610f11565b50505050565b5f60c082019050610fac5f830184610f20565b92915050565b5f82825260208201905092915050565b7f4e6f207969656c6420746f20636c61696d0000000000000000000000000000005f82015250565b5f610ff6601183610fb2565b915061100182610fc2565b602082019050919050565b5f6020820190508181035f83015261102381610fea565b9050919050565b61103381610d9d565b82525050565b5f60408201905061104c5f83018561102a565b6110596020830184610e0c565b9392505050565b61106981610e89565b8114611073575f5ffd5b50565b5f8151905061108481611060565b92915050565b5f6020828403121561109f5761109e610d99565b5b5f6110ac84828501611076565b91505092915050565b7f5472616e73666572206661696c656400000000000000000000000000000000005f82015250565b5f6110e9600f83610fb2565b91506110f4826110b5565b602082019050919050565b5f6020820190508181035f830152611116816110dd565b9050919050565b7f4e487b71000000000000000000000000000000000000000000000000000000005f52601160045260245ffd5b5f61115482610e03565b915061115f83610e03565b92508282039050818111156111775761117661111d565b5b92915050565b5f61118782610e03565b915061119283610e03565b92508282026111a081610e03565b915082820484148315176111b7576111b661111d565b5b5092915050565b7f4e487b71000000000000000000000000000000000000000000000000000000005f52601260045260245ffd5b5f6111f582610e03565b915061120083610e03565b9250826112105761120f6111be565b5b828204905092915050565b5f61122582610e03565b915061123083610e03565b92508282019050808211156112485761124761111d565b5b92915050565b7f4e6f20616374697665207661756c7400000000000000000000000000000000005f82015250565b5f611282600f83610fb2565b915061128d8261124e565b602082019050919050565b5f6020820190508181035f8301526112af81611276565b9050919050565b7f496e73756666696369656e742062616c616e63650000000000000000000000005f82015250565b5f6112ea601483610fb2565b91506112f5826112b6565b602082019050919050565b5f6020820190508181035f830152611317816112de565b9050919050565b7f416d6f756e74206d757374206265203e203000000000000000000000000000005f82015250565b5f611352601283610fb2565b915061135d8261131e565b602082019050919050565b5f6020820190508181035f83015261137f81611346565b9050919050565b5f6060820190506113995f83018661102a565b6113a6602083018561102a565b6113b36040830184610e0c565b949350505050565b5f8160601b9050919050565b5f6113d1826113bb565b9050919050565b5f6113e2826113c7565b9050919050565b6113fa6113f582610d9d565b6113d8565b82525050565b5f819050919050565b61141a61141582610e03565b611400565b82525050565b5f61142b82856113e9565b60148201915061143b8284611409565b6020820191508190509392505050565b5f60408201905061145e5f830185610e0c565b61146b6020830184610e0c565b939250505056fea2646970667358221220bf974b8cdefa991814e064e5700b40783a69e6a7cddead716462d18784be0bb164736f6c634300081e0033",
					"opcodes": "PUSH1 0xA0 PUSH1 0x40 MSTORE CALLVALUE DUP1 ISZERO PUSH2 0xF JUMPI PUSH0 PUSH0 REVERT JUMPDEST POP PUSH1 0x40 MLOAD PUSH2 0x15D0 CODESIZE SUB DUP1 PUSH2 0x15D0 DUP4 CODECOPY DUP2 DUP2 ADD PUSH1 0x40 MSTORE DUP2 ADD SWAP1 PUSH2 0x31 SWAP2 SWAP1 PUSH2 0xD0 JUMP JUMPDEST PUSH1 0x1 PUSH0 DUP2 SWAP1 SSTORE POP DUP1 PUSH20 0xFFFFFFFFFFFFFFFFFFFFFFFFFFFFFFFFFFFFFFFF AND PUSH1 0x80 DUP2 PUSH20 0xFFFFFFFFFFFFFFFFFFFFFFFFFFFFFFFFFFFFFFFF AND DUP2 MSTORE POP POP POP PUSH2 0xFB JUMP JUMPDEST PUSH0 PUSH0 REVERT JUMPDEST PUSH0 PUSH20 0xFFFFFFFFFFFFFFFFFFFFFFFFFFFFFFFFFFFFFFFF DUP3 AND SWAP1 POP SWAP2 SWAP1 POP JUMP JUMPDEST PUSH0 PUSH2 0x9F DUP3 PUSH2 0x76 JUMP JUMPDEST SWAP1 POP SWAP2 SWAP1 POP JUMP JUMPDEST PUSH2 0xAF DUP2 PUSH2 0x95 JUMP JUMPDEST DUP2 EQ PUSH2 0xB9 JUMPI PUSH0 PUSH0 REVERT JUMPDEST POP JUMP JUMPDEST PUSH0 DUP2 MLOAD SWAP1 POP PUSH2 0xCA DUP2 PUSH2 0xA6 JUMP JUMPDEST SWAP3 SWAP2 POP POP JUMP JUMPDEST PUSH0 PUSH1 0x20 DUP3 DUP5 SUB SLT ISZERO PUSH2 0xE5 JUMPI PUSH2 0xE4 PUSH2 0x72 JUMP JUMPDEST JUMPDEST PUSH0 PUSH2 0xF2 DUP5 DUP3 DUP6 ADD PUSH2 0xBC JUMP JUMPDEST SWAP2 POP POP SWAP3 SWAP2 POP POP JUMP JUMPDEST PUSH1 0x80 MLOAD PUSH2 0x14A8 PUSH2 0x128 PUSH0 CODECOPY PUSH0 DUP2 DUP2 PUSH2 0x1C8 ADD MSTORE DUP2 DUP2 PUSH2 0x290 ADD MSTORE DUP2 DUP2 PUSH2 0x5C6 ADD MSTORE PUSH2 0x744 ADD MSTORE PUSH2 0x14A8 PUSH0 RETURN INVALID PUSH1 0x80 PUSH1 0x40 MSTORE CALLVALUE DUP1 ISZERO PUSH2 0xF JUMPI PUSH0 PUSH0 REVERT JUMPDEST POP PUSH1 0x4 CALLDATASIZE LT PUSH2 0x91 JUMPI PUSH0 CALLDATALOAD PUSH1 0xE0 SHR DUP1 PUSH4 0xA6B6D798 GT PUSH2 0x64 JUMPI DUP1 PUSH4 0xA6B6D798 EQ PUSH2 0x109 JUMPI DUP1 PUSH4 0xD6C89758 EQ PUSH2 0x125 JUMPI DUP1 PUSH4 0xE6A69AB8 EQ PUSH2 0x15A JUMPI DUP1 PUSH4 0xE852090A EQ PUSH2 0x178 JUMPI DUP1 PUSH4 0xE9169A2C EQ PUSH2 0x196 JUMPI PUSH2 0x91 JUMP JUMPDEST DUP1 PUSH4 0x74BC101 EQ PUSH2 0x95 JUMPI DUP1 PUSH4 0x406CF229 EQ PUSH2 0xB3 JUMPI DUP1 PUSH4 0x537BB137 EQ PUSH2 0xBD JUMPI DUP1 PUSH4 0x90B4588B EQ PUSH2 0xED JUMPI JUMPDEST PUSH0 PUSH0 REVERT JUMPDEST PUSH2 0x9D PUSH2 0x1C6 JUMP JUMPDEST PUSH1 0x40 MLOAD PUSH2 0xAA SWAP2 SWAP1 PUSH2 0xD80 JUMP JUMPDEST PUSH1 0x40 MLOAD DUP1 SWAP2 SUB SWAP1 RETURN JUMPDEST PUSH2 0xBB PUSH2 0x1EA JUMP JUMPDEST STOP JUMPDEST PUSH2 0xD7 PUSH1 0x4 DUP1 CALLDATASIZE SUB DUP2 ADD SWAP1 PUSH2 0xD2 SWAP2 SWAP1 PUSH2 0xDD8 JUMP JUMPDEST PUSH2 0x374 JUMP JUMPDEST PUSH1 0x40 MLOAD PUSH2 0xE4 SWAP2 SWAP1 PUSH2 0xE1B JUMP JUMPDEST PUSH1 0x40 MLOAD DUP1 SWAP2 SUB SWAP1 RETURN JUMPDEST PUSH2 0x107 PUSH1 0x4 DUP1 CALLDATASIZE SUB DUP2 ADD SWAP1 PUSH2 0x102 SWAP2 SWAP1 PUSH2 0xE5E JUMP JUMPDEST PUSH2 0x49B JUMP JUMPDEST STOP JUMPDEST PUSH2 0x123 PUSH1 0x4 DUP1 CALLDATASIZE SUB DUP2 ADD SWAP1 PUSH2 0x11E SWAP2 SWAP1 PUSH2 0xE5E JUMP JUMPDEST PUSH2 0x6F8 JUMP JUMPDEST STOP JUMPDEST PUSH2 0x13F PUSH1 0x4 DUP1 CALLDATASIZE SUB DUP2 ADD SWAP1 PUSH2 0x13A SWAP2 SWAP1 PUSH2 0xDD8 JUMP JUMPDEST PUSH2 0xA58 JUMP JUMPDEST PUSH1 0x40 MLOAD PUSH2 0x151 SWAP7 SWAP6 SWAP5 SWAP4 SWAP3 SWAP2 SWAP1 PUSH2 0xEA3 JUMP JUMPDEST PUSH1 0x40 MLOAD DUP1 SWAP2 SUB SWAP1 RETURN JUMPDEST PUSH2 0x162 PUSH2 0xA9C JUMP JUMPDEST PUSH1 0x40 MLOAD PUSH2 0x16F SWAP2 SWAP1 PUSH2 0xE1B JUMP JUMPDEST PUSH1 0x40 MLOAD DUP1 SWAP2 SUB SWAP1 RETURN JUMPDEST PUSH2 0x180 PUSH2 0xAA4 JUMP JUMPDEST PUSH1 0x40 MLOAD PUSH2 0x18D SWAP2 SWAP1 PUSH2 0xE1B JUMP JUMPDEST PUSH1 0x40 MLOAD DUP1 SWAP2 SUB SWAP1 RETURN JUMPDEST PUSH2 0x1B0 PUSH1 0x4 DUP1 CALLDATASIZE SUB DUP2 ADD SWAP1 PUSH2 0x1AB SWAP2 SWAP1 PUSH2 0xDD8 JUMP JUMPDEST PUSH2 0xAAA JUMP JUMPDEST PUSH1 0x40 MLOAD PUSH2 0x1BD SWAP2 SWAP1 PUSH2 0xF99 JUMP JUMPDEST PUSH1 0x40 MLOAD DUP1 SWAP2 SUB SWAP1 RETURN JUMPDEST PUSH32 0x0 DUP2 JUMP JUMPDEST PUSH2 0x1F2 PUSH2 0xB4C JUMP JUMPDEST PUSH2 0x1FB CALLER PUSH2 0xB90 JUMP JUMPDEST PUSH0 PUSH1 0x1 PUSH0 CALLER PUSH20 0xFFFFFFFFFFFFFFFFFFFFFFFFFFFFFFFFFFFFFFFF AND PUSH20 0xFFFFFFFFFFFFFFFFFFFFFFFFFFFFFFFFFFFFFFFF AND DUP2 MSTORE PUSH1 0x20 ADD SWAP1 DUP2 MSTORE PUSH1 0x20 ADD PUSH0 KECCAK256 SWAP1 POP PUSH0 DUP2 PUSH1 0x2 ADD SLOAD SWAP1 POP PUSH0 DUP2 GT PUSH2 0x285 JUMPI PUSH1 0x40 MLOAD PUSH32 0x8C379A000000000000000000000000000000000000000000000000000000000 DUP2 MSTORE PUSH1 0x4 ADD PUSH2 0x27C SWAP1 PUSH2 0x100C JUMP JUMPDEST PUSH1 0x40 MLOAD DUP1 SWAP2 SUB SWAP1 REVERT JUMPDEST PUSH0 DUP3 PUSH1 0x2 ADD DUP2 SWAP1 SSTORE POP PUSH32 0x0 PUSH20 0xFFFFFFFFFFFFFFFFFFFFFFFFFFFFFFFFFFFFFFFF AND PUSH4 0xA9059CBB CALLER DUP4 PUSH1 0x40 MLOAD DUP4 PUSH4 0xFFFFFFFF AND PUSH1 0xE0 SHL DUP2 MSTORE PUSH1 0x4 ADD PUSH2 0x2E9 SWAP3 SWAP2 SWAP1 PUSH2 0x1039 JUMP JUMPDEST PUSH1 0x20 PUSH1 0x40 MLOAD DUP1 DUP4 SUB DUP2 PUSH0 DUP8 GAS CALL ISZERO DUP1 ISZERO PUSH2 0x305 JUMPI RETURNDATASIZE PUSH0 PUSH0 RETURNDATACOPY RETURNDATASIZE PUSH0 REVERT JUMPDEST POP POP POP POP PUSH1 0x40 MLOAD RETURNDATASIZE PUSH1 0x1F NOT PUSH1 0x1F DUP3 ADD AND DUP3 ADD DUP1 PUSH1 0x40 MSTORE POP DUP2 ADD SWAP1 PUSH2 0x329 SWAP2 SWAP1 PUSH2 0x108A JUMP JUMPDEST PUSH2 0x368 JUMPI PUSH1 0x40 MLOAD PUSH32 0x8C379A000000000000000000000000000000000000000000000000000000000 DUP2 MSTORE PUSH1 0x4 ADD PUSH2 0x35F SWAP1 PUSH2 0x10FF JUMP JUMPDEST PUSH1 0x40 MLOAD DUP1 SWAP2 SUB SWAP1 REVERT JUMPDEST POP POP PUSH2 0x372 PUSH2 0xCCB JUMP JUMPDEST JUMP JUMPDEST PUSH0 PUSH0 PUSH1 0x1 PUSH0 DUP5 PUSH20 0xFFFFFFFFFFFFFFFFFFFFFFFFFFFFFFFFFFFFFFFF AND PUSH20 0xFFFFFFFFFFFFFFFFFFFFFFFFFFFFFFFFFFFFFFFF AND DUP2 MSTORE PUSH1 0x20 ADD SWAP1 DUP2 MSTORE PUSH1 0x20 ADD PUSH0 KECCAK256 PUSH1 0x40 MLOAD DUP1 PUSH1 0xC0 ADD PUSH1 0x40 MSTORE SWAP1 DUP2 PUSH0 DUP3 ADD SLOAD DUP2 MSTORE PUSH1 0x20 ADD PUSH1 0x1 DUP3 ADD SLOAD DUP2 MSTORE PUSH1 0x20 ADD PUSH1 0x2 DUP3 ADD SLOAD DUP2 MSTORE PUSH1 0x20 ADD PUSH1 0x3 DUP3 ADD SLOAD DUP2 MSTORE PUSH1 0x20 ADD PUSH1 0x4 DUP3 ADD SLOAD DUP2 MSTORE PUSH1 0x20 ADD PUSH1 0x5 DUP3 ADD PUSH0 SWAP1 SLOAD SWAP1 PUSH2 0x100 EXP SWAP1 DIV PUSH1 0xFF AND ISZERO ISZERO ISZERO ISZERO DUP2 MSTORE POP POP SWAP1 POP DUP1 PUSH1 0xA0 ADD MLOAD ISZERO DUP1 PUSH2 0x41F JUMPI POP PUSH0 DUP2 PUSH1 0x20 ADD MLOAD EQ JUMPDEST ISZERO PUSH2 0x431 JUMPI DUP1 PUSH1 0x40 ADD MLOAD SWAP2 POP POP PUSH2 0x496 JUMP JUMPDEST PUSH0 DUP2 PUSH1 0x60 ADD MLOAD TIMESTAMP PUSH2 0x442 SWAP2 SWAP1 PUSH2 0x114A JUMP JUMPDEST SWAP1 POP PUSH0 PUSH4 0x1E13380 PUSH2 0x2710 PUSH2 0x457 SWAP2 SWAP1 PUSH2 0x117D JUMP JUMPDEST DUP3 PUSH2 0x1F4 DUP6 PUSH1 0x20 ADD MLOAD PUSH2 0x46A SWAP2 SWAP1 PUSH2 0x117D JUMP JUMPDEST PUSH2 0x474 SWAP2 SWAP1 PUSH2 0x117D JUMP JUMPDEST PUSH2 0x47E SWAP2 SWAP1 PUSH2 0x11EB JUMP JUMPDEST SWAP1 POP DUP1 DUP4 PUSH1 0x40 ADD MLOAD PUSH2 0x490 SWAP2 SWAP1 PUSH2 0x121B JUMP JUMPDEST SWAP4 POP POP POP POP JUMPDEST SWAP2 SWAP1 POP JUMP JUMPDEST PUSH2 0x4A3 PUSH2 0xB4C JUMP JUMPDEST PUSH0 PUSH1 0x1 PUSH0 CALLER PUSH20 0xFFFFFFFFFFFFFFFFFFFFFFFFFFFFFFFFFFFFFFFF AND PUSH20 0xFFFFFFFFFFFFFFFFFFFFFFFFFFFFFFFFFFFFFFFF AND DUP2 MSTORE PUSH1 0x20 ADD SWAP1 DUP2 MSTORE PUSH1 0x20 ADD PUSH0 KECCAK256 SWAP1 POP DUP1 PUSH1 0x5 ADD PUSH0 SWAP1 SLOAD SWAP1 PUSH2 0x100 EXP SWAP1 DIV PUSH1 0xFF AND PUSH2 0x533 JUMPI PUSH1 0x40 MLOAD PUSH32 0x8C379A000000000000000000000000000000000000000000000000000000000 DUP2 MSTORE PUSH1 0x4 ADD PUSH2 0x52A SWAP1 PUSH2 0x1298 JUMP JUMPDEST PUSH1 0x40 MLOAD DUP1 SWAP2 SUB SWAP1 REVERT JUMPDEST DUP1 PUSH1 0x1 ADD SLOAD DUP3 GT ISZERO PUSH2 0x57A JUMPI PUSH1 0x40 MLOAD PUSH32 0x8C379A000000000000000000000000000000000000000000000000000000000 DUP2 MSTORE PUSH1 0x4 ADD PUSH2 0x571 SWAP1 PUSH2 0x1300 JUMP JUMPDEST PUSH1 0x40 MLOAD DUP1 SWAP2 SUB SWAP1 REVERT JUMPDEST PUSH2 0x583 CALLER PUSH2 0xB90 JUMP JUMPDEST DUP2 DUP2 PUSH1 0x1 ADD PUSH0 DUP3 DUP3 SLOAD PUSH2 0x596 SWAP2 SWAP1 PUSH2 0x114A JUMP JUMPDEST SWAP3 POP POP DUP2 SWAP1 SSTORE POP PUSH0 DUP2 PUSH1 0x1 ADD SLOAD SUB PUSH2 0x5C4 JUMPI PUSH0 DUP2 PUSH1 0x5 ADD PUSH0 PUSH2 0x100 EXP DUP2 SLOAD DUP2 PUSH1 0xFF MUL NOT AND SWAP1 DUP4 ISZERO ISZERO MUL OR SWAP1 SSTORE POP JUMPDEST PUSH32 0x0 PUSH20 0xFFFFFFFFFFFFFFFFFFFFFFFFFFFFFFFFFFFFFFFF AND PUSH4 0xA9059CBB CALLER DUP5 PUSH1 0x40 MLOAD DUP4 PUSH4 0xFFFFFFFF AND PUSH1 0xE0 SHL DUP2 MSTORE PUSH1 0x4 ADD PUSH2 0x61F SWAP3 SWAP2 SWAP1 PUSH2 0x1039 JUMP JUMPDEST PUSH1 0x20 PUSH1 0x40 MLOAD DUP1 DUP4 SUB DUP2 PUSH0 DUP8 GAS CALL ISZERO DUP1 ISZERO PUSH2 0x63B JUMPI RETURNDATASIZE PUSH0 PUSH0 RETURNDATACOPY RETURNDATASIZE PUSH0 REVERT JUMPDEST POP POP POP POP PUSH1 0x40 MLOAD RETURNDATASIZE PUSH1 0x1F NOT PUSH1 0x1F DUP3 ADD AND DUP3 ADD DUP1 PUSH1 0x40 MSTORE POP DUP2 ADD SWAP1 PUSH2 0x65F SWAP2 SWAP1 PUSH2 0x108A JUMP JUMPDEST PUSH2 0x69E JUMPI PUSH1 0x40 MLOAD PUSH32 0x8C379A000000000000000000000000000000000000000000000000000000000 DUP2 MSTORE PUSH1 0x4 ADD PUSH2 0x695 SWAP1 PUSH2 0x10FF JUMP JUMPDEST PUSH1 0x40 MLOAD DUP1 SWAP2 SUB SWAP1 REVERT JUMPDEST CALLER PUSH20 0xFFFFFFFFFFFFFFFFFFFFFFFFFFFFFFFFFFFFFFFF AND PUSH32 0x46CB947848D6E66F42FD865AFF4E0B9765DA557ED05874DB5A3C931CCEA58EF1 DUP4 PUSH1 0x40 MLOAD PUSH2 0x6E4 SWAP2 SWAP1 PUSH2 0xE1B JUMP JUMPDEST PUSH1 0x40 MLOAD DUP1 SWAP2 SUB SWAP1 LOG2 POP PUSH2 0x6F5 PUSH2 0xCCB JUMP JUMPDEST POP JUMP JUMPDEST PUSH2 0x700 PUSH2 0xB4C JUMP JUMPDEST PUSH0 DUP2 GT PUSH2 0x742 JUMPI PUSH1 0x40 MLOAD PUSH32 0x8C379A000000000000000000000000000000000000000000000000000000000 DUP2 MSTORE PUSH1 0x4 ADD PUSH2 0x739 SWAP1 PUSH2 0x1368 JUMP JUMPDEST PUSH1 0x40 MLOAD DUP1 SWAP2 SUB SWAP1 REVERT JUMPDEST PUSH32 0x0 PUSH20 0xFFFFFFFFFFFFFFFFFFFFFFFFFFFFFFFFFFFFFFFF AND PUSH4 0x23B872DD CALLER ADDRESS DUP5 PUSH1 0x40 MLOAD DUP5 PUSH4 0xFFFFFFFF AND PUSH1 0xE0 SHL DUP2 MSTORE PUSH1 0x4 ADD PUSH2 0x79F SWAP4 SWAP3 SWAP2 SWAP1 PUSH2 0x1386 JUMP JUMPDEST PUSH1 0x20 PUSH1 0x40 MLOAD DUP1 DUP4 SUB DUP2 PUSH0 DUP8 GAS CALL ISZERO DUP1 ISZERO PUSH2 0x7BB JUMPI RETURNDATASIZE PUSH0 PUSH0 RETURNDATACOPY RETURNDATASIZE PUSH0 REVERT JUMPDEST POP POP POP POP PUSH1 0x40 MLOAD RETURNDATASIZE PUSH1 0x1F NOT PUSH1 0x1F DUP3 ADD AND DUP3 ADD DUP1 PUSH1 0x40 MSTORE POP DUP2 ADD SWAP1 PUSH2 0x7DF SWAP2 SWAP1 PUSH2 0x108A JUMP JUMPDEST PUSH2 0x81E JUMPI PUSH1 0x40 MLOAD PUSH32 0x8C379A000000000000000000000000000000000000000000000000000000000 DUP2 MSTORE PUSH1 0x4 ADD PUSH2 0x815 SWAP1 PUSH2 0x10FF JUMP JUMPDEST PUSH1 0x40 MLOAD DUP1 SWAP2 SUB SWAP1 REVERT JUMPDEST PUSH2 0x827 CALLER PUSH2 0xB90 JUMP JUMPDEST PUSH1 0x1 PUSH0 CALLER PUSH20 0xFFFFFFFFFFFFFFFFFFFFFFFFFFFFFFFFFFFFFFFF AND PUSH20 0xFFFFFFFFFFFFFFFFFFFFFFFFFFFFFFFFFFFFFFFF AND DUP2 MSTORE PUSH1 0x20 ADD SWAP1 DUP2 MSTORE PUSH1 0x20 ADD PUSH0 KECCAK256 PUSH1 0x5 ADD PUSH0 SWAP1 SLOAD SWAP1 PUSH2 0x100 EXP SWAP1 DIV PUSH1 0xFF AND ISZERO PUSH2 0x8D4 JUMPI DUP1 PUSH1 0x1 PUSH0 CALLER PUSH20 0xFFFFFFFFFFFFFFFFFFFFFFFFFFFFFFFFFFFFFFFF AND PUSH20 0xFFFFFFFFFFFFFFFFFFFFFFFFFFFFFFFFFFFFFFFF AND DUP2 MSTORE PUSH1 0x20 ADD SWAP1 DUP2 MSTORE PUSH1 0x20 ADD PUSH0 KECCAK256 PUSH1 0x1 ADD PUSH0 DUP3 DUP3 SLOAD PUSH2 0x8C8 SWAP2 SWAP1 PUSH2 0x121B JUMP JUMPDEST SWAP3 POP POP DUP2 SWAP1 SSTORE POP PUSH2 0x9BE JUMP JUMPDEST PUSH1 0x40 MLOAD DUP1 PUSH1 0xC0 ADD PUSH1 0x40 MSTORE DUP1 CALLER TIMESTAMP PUSH1 0x40 MLOAD PUSH1 0x20 ADD PUSH2 0x8F2 SWAP3 SWAP2 SWAP1 PUSH2 0x1420 JUMP JUMPDEST PUSH1 0x40 MLOAD PUSH1 0x20 DUP2 DUP4 SUB SUB DUP2 MSTORE SWAP1 PUSH1 0x40 MSTORE DUP1 MLOAD SWAP1 PUSH1 0x20 ADD KECCAK256 PUSH0 SHR DUP2 MSTORE PUSH1 0x20 ADD DUP3 DUP2 MSTORE PUSH1 0x20 ADD PUSH0 DUP2 MSTORE PUSH1 0x20 ADD TIMESTAMP DUP2 MSTORE PUSH1 0x20 ADD TIMESTAMP DUP2 MSTORE PUSH1 0x20 ADD PUSH1 0x1 ISZERO ISZERO DUP2 MSTORE POP PUSH1 0x1 PUSH0 CALLER PUSH20 0xFFFFFFFFFFFFFFFFFFFFFFFFFFFFFFFFFFFFFFFF AND PUSH20 0xFFFFFFFFFFFFFFFFFFFFFFFFFFFFFFFFFFFFFFFF AND DUP2 MSTORE PUSH1 0x20 ADD SWAP1 DUP2 MSTORE PUSH1 0x20 ADD PUSH0 KECCAK256 PUSH0 DUP3 ADD MLOAD DUP2 PUSH0 ADD SSTORE PUSH1 0x20 DUP3 ADD MLOAD DUP2 PUSH1 0x1 ADD SSTORE PUSH1 0x40 DUP3 ADD MLOAD DUP2 PUSH1 0x2 ADD SSTORE PUSH1 0x60 DUP3 ADD MLOAD DUP2 PUSH1 0x3 ADD SSTORE PUSH1 0x80 DUP3 ADD MLOAD DUP2 PUSH1 0x4 ADD SSTORE PUSH1 0xA0 DUP3 ADD MLOAD DUP2 PUSH1 0x5 ADD PUSH0 PUSH2 0x100 EXP DUP2 SLOAD DUP2 PUSH1 0xFF MUL NOT AND SWAP1 DUP4 ISZERO ISZERO MUL OR SWAP1 SSTORE POP SWAP1 POP POP JUMPDEST CALLER PUSH20 0xFFFFFFFFFFFFFFFFFFFFFFFFFFFFFFFFFFFFFFFF AND PUSH32 0x482CFBEB47F8C37DBC7F6D858203153F1728E4EA8F3343F4A3FFC6E7A6157134 PUSH1 0x1 PUSH0 CALLER PUSH20 0xFFFFFFFFFFFFFFFFFFFFFFFFFFFFFFFFFFFFFFFF AND PUSH20 0xFFFFFFFFFFFFFFFFFFFFFFFFFFFFFFFFFFFFFFFF AND DUP2 MSTORE PUSH1 0x20 ADD SWAP1 DUP2 MSTORE PUSH1 0x20 ADD PUSH0 KECCAK256 PUSH0 ADD SLOAD DUP4 PUSH1 0x40 MLOAD PUSH2 0xA45 SWAP3 SWAP2 SWAP1 PUSH2 0x144B JUMP JUMPDEST PUSH1 0x40 MLOAD DUP1 SWAP2 SUB SWAP1 LOG2 PUSH2 0xA55 PUSH2 0xCCB JUMP JUMPDEST POP JUMP JUMPDEST PUSH1 0x1 PUSH1 0x20 MSTORE DUP1 PUSH0 MSTORE PUSH1 0x40 PUSH0 KECCAK256 PUSH0 SWAP2 POP SWAP1 POP DUP1 PUSH0 ADD SLOAD SWAP1 DUP1 PUSH1 0x1 ADD SLOAD SWAP1 DUP1 PUSH1 0x2 ADD SLOAD SWAP1 DUP1 PUSH1 0x3 ADD SLOAD SWAP1 DUP1 PUSH1 0x4 ADD SLOAD SWAP1 DUP1 PUSH1 0x5 ADD PUSH0 SWAP1 SLOAD SWAP1 PUSH2 0x100 EXP SWAP1 DIV PUSH1 0xFF AND SWAP1 POP DUP7 JUMP JUMPDEST PUSH4 0x1E13380 DUP2 JUMP JUMPDEST PUSH2 0x1F4 DUP2 JUMP JUMPDEST PUSH2 0xAB2 PUSH2 0xCD4 JUMP JUMPDEST PUSH1 0x1 PUSH0 DUP4 PUSH20 0xFFFFFFFFFFFFFFFFFFFFFFFFFFFFFFFFFFFFFFFF AND PUSH20 0xFFFFFFFFFFFFFFFFFFFFFFFFFFFFFFFFFFFFFFFF AND DUP2 MSTORE PUSH1 0x20 ADD SWAP1 DUP2 MSTORE PUSH1 0x20 ADD PUSH0 KECCAK256 PUSH1 0x40 MLOAD DUP1 PUSH1 0xC0 ADD PUSH1 0x40 MSTORE SWAP1 DUP2 PUSH0 DUP3 ADD SLOAD DUP2 MSTORE PUSH1 0x20 ADD PUSH1 0x1 DUP3 ADD SLOAD DUP2 MSTORE PUSH1 0x20 ADD PUSH1 0x2 DUP3 ADD SLOAD DUP2 MSTORE PUSH1 0x20 ADD PUSH1 0x3 DUP3 ADD SLOAD DUP2 MSTORE PUSH1 0x20 ADD PUSH1 0x4 DUP3 ADD SLOAD DUP2 MSTORE PUSH1 0x20 ADD PUSH1 0x5 DUP3 ADD PUSH0 SWAP1 SLOAD SWAP1 PUSH2 0x100 EXP SWAP1 DIV PUSH1 0xFF AND ISZERO ISZERO ISZERO ISZERO DUP2 MSTORE POP POP SWAP1 POP SWAP2 SWAP1 POP JUMP JUMPDEST PUSH1 0x2 PUSH0 SLOAD SUB PUSH2 0xB87 JUMPI PUSH1 0x40 MLOAD PUSH32 0x3EE5AEB500000000000000000000000000000000000000000000000000000000 DUP2 MSTORE PUSH1 0x4 ADD PUSH1 0x40 MLOAD DUP1 SWAP2 SUB SWAP1 REVERT JUMPDEST PUSH1 0x2 PUSH0 DUP2 SWAP1 SSTORE POP JUMP JUMPDEST PUSH0 PUSH1 0x1 PUSH0 DUP4 PUSH20 0xFFFFFFFFFFFFFFFFFFFFFFFFFFFFFFFFFFFFFFFF AND PUSH20 0xFFFFFFFFFFFFFFFFFFFFFFFFFFFFFFFFFFFFFFFF AND DUP2 MSTORE PUSH1 0x20 ADD SWAP1 DUP2 MSTORE PUSH1 0x20 ADD PUSH0 KECCAK256 SWAP1 POP DUP1 PUSH1 0x5 ADD PUSH0 SWAP1 SLOAD SWAP1 PUSH2 0x100 EXP SWAP1 DIV PUSH1 0xFF AND ISZERO DUP1 PUSH2 0xBF0 JUMPI POP PUSH0 DUP2 PUSH1 0x1 ADD SLOAD EQ JUMPDEST ISZERO PUSH2 0xBFB JUMPI POP PUSH2 0xCC8 JUMP JUMPDEST PUSH0 DUP2 PUSH1 0x3 ADD SLOAD TIMESTAMP PUSH2 0xC0C SWAP2 SWAP1 PUSH2 0x114A JUMP JUMPDEST SWAP1 POP PUSH0 PUSH4 0x1E13380 PUSH2 0x2710 PUSH2 0xC21 SWAP2 SWAP1 PUSH2 0x117D JUMP JUMPDEST DUP3 PUSH2 0x1F4 DUP6 PUSH1 0x1 ADD SLOAD PUSH2 0xC34 SWAP2 SWAP1 PUSH2 0x117D JUMP JUMPDEST PUSH2 0xC3E SWAP2 SWAP1 PUSH2 0x117D JUMP JUMPDEST PUSH2 0xC48 SWAP2 SWAP1 PUSH2 0x11EB JUMP JUMPDEST SWAP1 POP DUP1 DUP4 PUSH1 0x2 ADD PUSH0 DUP3 DUP3 SLOAD PUSH2 0xC5D SWAP2 SWAP1 PUSH2 0x121B JUMP JUMPDEST SWAP3 POP POP DUP2 SWAP1 SSTORE POP TIMESTAMP DUP4 PUSH1 0x3 ADD DUP2 SWAP1 SSTORE POP PUSH0 DUP2 GT ISZERO PUSH2 0xCC4 JUMPI DUP4 PUSH20 0xFFFFFFFFFFFFFFFFFFFFFFFFFFFFFFFFFFFFFFFF AND PUSH32 0x8258A59886E03BDB78E5DDB9566B8AD4957A1747E8D15FD0B4A24274F35CF317 DUP3 PUSH1 0x40 MLOAD PUSH2 0xCBB SWAP2 SWAP1 PUSH2 0xE1B JUMP JUMPDEST PUSH1 0x40 MLOAD DUP1 SWAP2 SUB SWAP1 LOG2 JUMPDEST POP POP POP JUMPDEST POP JUMP JUMPDEST PUSH1 0x1 PUSH0 DUP2 SWAP1 SSTORE POP JUMP JUMPDEST PUSH1 0x40 MLOAD DUP1 PUSH1 0xC0 ADD PUSH1 0x40 MSTORE DUP1 PUSH0 DUP2 MSTORE PUSH1 0x20 ADD PUSH0 DUP2 MSTORE PUSH1 0x20 ADD PUSH0 DUP2 MSTORE PUSH1 0x20 ADD PUSH0 DUP2 MSTORE PUSH1 0x20 ADD PUSH0 DUP2 MSTORE PUSH1 0x20 ADD PUSH0 ISZERO ISZERO DUP2 MSTORE POP SWAP1 JUMP JUMPDEST PUSH0 PUSH20 0xFFFFFFFFFFFFFFFFFFFFFFFFFFFFFFFFFFFFFFFF DUP3 AND SWAP1 POP SWAP2 SWAP1 POP JUMP JUMPDEST PUSH0 DUP2 SWAP1 POP SWAP2 SWAP1 POP JUMP JUMPDEST PUSH0 PUSH2 0xD48 PUSH2 0xD43 PUSH2 0xD3E DUP5 PUSH2 0xD06 JUMP JUMPDEST PUSH2 0xD25 JUMP JUMPDEST PUSH2 0xD06 JUMP JUMPDEST SWAP1 POP SWAP2 SWAP1 POP JUMP JUMPDEST PUSH0 PUSH2 0xD59 DUP3 PUSH2 0xD2E JUMP JUMPDEST SWAP1 POP SWAP2 SWAP1 POP JUMP JUMPDEST PUSH0 PUSH2 0xD6A DUP3 PUSH2 0xD4F JUMP JUMPDEST SWAP1 POP SWAP2 SWAP1 POP JUMP JUMPDEST PUSH2 0xD7A DUP2 PUSH2 0xD60 JUMP JUMPDEST DUP3 MSTORE POP POP JUMP JUMPDEST PUSH0 PUSH1 0x20 DUP3 ADD SWAP1 POP PUSH2 0xD93 PUSH0 DUP4 ADD DUP5 PUSH2 0xD71 JUMP JUMPDEST SWAP3 SWAP2 POP POP JUMP JUMPDEST PUSH0 PUSH0 REVERT JUMPDEST PUSH0 PUSH2 0xDA7 DUP3 PUSH2 0xD06 JUMP JUMPDEST SWAP1 POP SWAP2 SWAP1 POP JUMP JUMPDEST PUSH2 0xDB7 DUP2 PUSH2 0xD9D JUMP JUMPDEST DUP2 EQ PUSH2 0xDC1 JUMPI PUSH0 PUSH0 REVERT JUMPDEST POP JUMP JUMPDEST PUSH0 DUP2 CALLDATALOAD SWAP1 POP PUSH2 0xDD2 DUP2 PUSH2 0xDAE JUMP JUMPDEST SWAP3 SWAP2 POP POP JUMP JUMPDEST PUSH0 PUSH1 0x20 DUP3 DUP5 SUB SLT ISZERO PUSH2 0xDED JUMPI PUSH2 0xDEC PUSH2 0xD99 JUMP JUMPDEST JUMPDEST PUSH0 PUSH2 0xDFA DUP5 DUP3 DUP6 ADD PUSH2 0xDC4 JUMP JUMPDEST SWAP2 POP POP SWAP3 SWAP2 POP POP JUMP JUMPDEST PUSH0 DUP2 SWAP1 POP SWAP2 SWAP1 POP JUMP JUMPDEST PUSH2 0xE15 DUP2 PUSH2 0xE03 JUMP JUMPDEST DUP3 MSTORE POP POP JUMP JUMPDEST PUSH0 PUSH1 0x20 DUP3 ADD SWAP1 POP PUSH2 0xE2E PUSH0 DUP4 ADD DUP5 PUSH2 0xE0C JUMP JUMPDEST SWAP3 SWAP2 POP POP JUMP JUMPDEST PUSH2 0xE3D DUP2 PUSH2 0xE03 JUMP JUMPDEST DUP2 EQ PUSH2 0xE47 JUMPI PUSH0 PUSH0 REVERT JUMPDEST POP JUMP JUMPDEST PUSH0 DUP2 CALLDATALOAD SWAP1 POP PUSH2 0xE58 DUP2 PUSH2 0xE34 JUMP JUMPDEST SWAP3 SWAP2 POP POP JUMP JUMPDEST PUSH0 PUSH1 0x20 DUP3 DUP5 SUB SLT ISZERO PUSH2 0xE73 JUMPI PUSH2 0xE72 PUSH2 0xD99 JUMP JUMPDEST JUMPDEST PUSH0 PUSH2 0xE80 DUP5 DUP3 DUP6 ADD PUSH2 0xE4A JUMP JUMPDEST SWAP2 POP POP SWAP3 SWAP2 POP POP JUMP JUMPDEST PUSH0 DUP2 ISZERO ISZERO SWAP1 POP SWAP2 SWAP1 POP JUMP JUMPDEST PUSH2 0xE9D DUP2 PUSH2 0xE89 JUMP JUMPDEST DUP3 MSTORE POP POP JUMP JUMPDEST PUSH0 PUSH1 0xC0 DUP3 ADD SWAP1 POP PUSH2 0xEB6 PUSH0 DUP4 ADD DUP10 PUSH2 0xE0C JUMP JUMPDEST PUSH2 0xEC3 PUSH1 0x20 DUP4 ADD DUP9 PUSH2 0xE0C JUMP JUMPDEST PUSH2 0xED0 PUSH1 0x40 DUP4 ADD DUP8 PUSH2 0xE0C JUMP JUMPDEST PUSH2 0xEDD PUSH1 0x60 DUP4 ADD DUP7 PUSH2 0xE0C JUMP JUMPDEST PUSH2 0xEEA PUSH1 0x80 DUP4 ADD DUP6 PUSH2 0xE0C JUMP JUMPDEST PUSH2 0xEF7 PUSH1 0xA0 DUP4 ADD DUP5 PUSH2 0xE94 JUMP JUMPDEST SWAP8 SWAP7 POP POP POP POP POP POP POP JUMP JUMPDEST PUSH2 0xF0B DUP2 PUSH2 0xE03 JUMP JUMPDEST DUP3 MSTORE POP POP JUMP JUMPDEST PUSH2 0xF1A DUP2 PUSH2 0xE89 JUMP JUMPDEST DUP3 MSTORE POP POP JUMP JUMPDEST PUSH1 0xC0 DUP3 ADD PUSH0 DUP3 ADD MLOAD PUSH2 0xF34 PUSH0 DUP6 ADD DUP3 PUSH2 0xF02 JUMP JUMPDEST POP PUSH1 0x20 DUP3 ADD MLOAD PUSH2 0xF47 PUSH1 0x20 DUP6 ADD DUP3 PUSH2 0xF02 JUMP JUMPDEST POP PUSH1 0x40 DUP3 ADD MLOAD PUSH2 0xF5A PUSH1 0x40 DUP6 ADD DUP3 PUSH2 0xF02 JUMP JUMPDEST POP PUSH1 0x60 DUP3 ADD MLOAD PUSH2 0xF6D PUSH1 0x60 DUP6 ADD DUP3 PUSH2 0xF02 JUMP JUMPDEST POP PUSH1 0x80 DUP3 ADD MLOAD PUSH2 0xF80 PUSH1 0x80 DUP6 ADD DUP3 PUSH2 0xF02 JUMP JUMPDEST POP PUSH1 0xA0 DUP3 ADD MLOAD PUSH2 0xF93 PUSH1 0xA0 DUP6 ADD DUP3 PUSH2 0xF11 JUMP JUMPDEST POP POP POP POP JUMP JUMPDEST PUSH0 PUSH1 0xC0 DUP3 ADD SWAP1 POP PUSH2 0xFAC PUSH0 DUP4 ADD DUP5 PUSH2 0xF20 JUMP JUMPDEST SWAP3 SWAP2 POP POP JUMP JUMPDEST PUSH0 DUP3 DUP3 MSTORE PUSH1 0x20 DUP3 ADD SWAP1 POP SWAP3 SWAP2 POP POP JUMP JUMPDEST PUSH32 0x4E6F207969656C6420746F20636C61696D000000000000000000000000000000 PUSH0 DUP3 ADD MSTORE POP JUMP JUMPDEST PUSH0 PUSH2 0xFF6 PUSH1 0x11 DUP4 PUSH2 0xFB2 JUMP JUMPDEST SWAP2 POP PUSH2 0x1001 DUP3 PUSH2 0xFC2 JUMP JUMPDEST PUSH1 0x20 DUP3 ADD SWAP1 POP SWAP2 SWAP1 POP JUMP JUMPDEST PUSH0 PUSH1 0x20 DUP3 ADD SWAP1 POP DUP2 DUP2 SUB PUSH0 DUP4 ADD MSTORE PUSH2 0x1023 DUP2 PUSH2 0xFEA JUMP JUMPDEST SWAP1 POP SWAP2 SWAP1 POP JUMP JUMPDEST PUSH2 0x1033 DUP2 PUSH2 0xD9D JUMP JUMPDEST DUP3 MSTORE POP POP JUMP JUMPDEST PUSH0 PUSH1 0x40 DUP3 ADD SWAP1 POP PUSH2 0x104C PUSH0 DUP4 ADD DUP6 PUSH2 0x102A JUMP JUMPDEST PUSH2 0x1059 PUSH1 0x20 DUP4 ADD DUP5 PUSH2 0xE0C JUMP JUMPDEST SWAP4 SWAP3 POP POP POP JUMP JUMPDEST PUSH2 0x1069 DUP2 PUSH2 0xE89 JUMP JUMPDEST DUP2 EQ PUSH2 0x1073 JUMPI PUSH0 PUSH0 REVERT JUMPDEST POP JUMP JUMPDEST PUSH0 DUP2 MLOAD SWAP1 POP PUSH2 0x1084 DUP2 PUSH2 0x1060 JUMP JUMPDEST SWAP3 SWAP2 POP POP JUMP JUMPDEST PUSH0 PUSH1 0x20 DUP3 DUP5 SUB SLT ISZERO PUSH2 0x109F JUMPI PUSH2 0x109E PUSH2 0xD99 JUMP JUMPDEST JUMPDEST PUSH0 PUSH2 0x10AC DUP5 DUP3 DUP6 ADD PUSH2 0x1076 JUMP JUMPDEST SWAP2 POP POP SWAP3 SWAP2 POP POP JUMP JUMPDEST PUSH32 0x5472616E73666572206661696C65640000000000000000000000000000000000 PUSH0 DUP3 ADD MSTORE POP JUMP JUMPDEST PUSH0 PUSH2 0x10E9 PUSH1 0xF DUP4 PUSH2 0xFB2 JUMP JUMPDEST SWAP2 POP PUSH2 0x10F4 DUP3 PUSH2 0x10B5 JUMP JUMPDEST PUSH1 0x20 DUP3 ADD SWAP1 POP SWAP2 SWAP1 POP JUMP JUMPDEST PUSH0 PUSH1 0x20 DUP3 ADD SWAP1 POP DUP2 DUP2 SUB PUSH0 DUP4 ADD MSTORE PUSH2 0x1116 DUP2 PUSH2 0x10DD JUMP JUMPDEST SWAP1 POP SWAP2 SWAP1 POP JUMP JUMPDEST PUSH32 0x4E487B7100000000000000000000000000000000000000000000000000000000 PUSH0 MSTORE PUSH1 0x11 PUSH1 0x4 MSTORE PUSH1 0x24 PUSH0 REVERT JUMPDEST PUSH0 PUSH2 0x1154 DUP3 PUSH2 0xE03 JUMP JUMPDEST SWAP2 POP PUSH2 0x115F DUP4 PUSH2 0xE03 JUMP JUMPDEST SWAP3 POP DUP3 DUP3 SUB SWAP1 POP DUP2 DUP2 GT ISZERO PUSH2 0x1177 JUMPI PUSH2 0x1176 PUSH2 0x111D JUMP JUMPDEST JUMPDEST SWAP3 SWAP2 POP POP JUMP JUMPDEST PUSH0 PUSH2 0x1187 DUP3 PUSH2 0xE03 JUMP JUMPDEST SWAP2 POP PUSH2 0x1192 DUP4 PUSH2 0xE03 JUMP JUMPDEST SWAP3 POP DUP3 DUP3 MUL PUSH2 0x11A0 DUP2 PUSH2 0xE03 JUMP JUMPDEST SWAP2 POP DUP3 DUP3 DIV DUP5 EQ DUP4 ISZERO OR PUSH2 0x11B7 JUMPI PUSH2 0x11B6 PUSH2 0x111D JUMP JUMPDEST JUMPDEST POP SWAP3 SWAP2 POP POP JUMP JUMPDEST PUSH32 0x4E487B7100000000000000000000000000000000000000000000000000000000 PUSH0 MSTORE PUSH1 0x12 PUSH1 0x4 MSTORE PUSH1 0x24 PUSH0 REVERT JUMPDEST PUSH0 PUSH2 0x11F5 DUP3 PUSH2 0xE03 JUMP JUMPDEST SWAP2 POP PUSH2 0x1200 DUP4 PUSH2 0xE03 JUMP JUMPDEST SWAP3 POP DUP3 PUSH2 0x1210 JUMPI PUSH2 0x120F PUSH2 0x11BE JUMP JUMPDEST JUMPDEST DUP3 DUP3 DIV SWAP1 POP SWAP3 SWAP2 POP POP JUMP JUMPDEST PUSH0 PUSH2 0x1225 DUP3 PUSH2 0xE03 JUMP JUMPDEST SWAP2 POP PUSH2 0x1230 DUP4 PUSH2 0xE03 JUMP JUMPDEST SWAP3 POP DUP3 DUP3 ADD SWAP1 POP DUP1 DUP3 GT ISZERO PUSH2 0x1248 JUMPI PUSH2 0x1247 PUSH2 0x111D JUMP JUMPDEST JUMPDEST SWAP3 SWAP2 POP POP JUMP JUMPDEST PUSH32 0x4E6F20616374697665207661756C740000000000000000000000000000000000 PUSH0 DUP3 ADD MSTORE POP JUMP JUMPDEST PUSH0 PUSH2 0x1282 PUSH1 0xF DUP4 PUSH2 0xFB2 JUMP JUMPDEST SWAP2 POP PUSH2 0x128D DUP3 PUSH2 0x124E JUMP JUMPDEST PUSH1 0x20 DUP3 ADD SWAP1 POP SWAP2 SWAP1 POP JUMP JUMPDEST PUSH0 PUSH1 0x20 DUP3 ADD SWAP1 POP DUP2 DUP2 SUB PUSH0 DUP4 ADD MSTORE PUSH2 0x12AF DUP2 PUSH2 0x1276 JUMP JUMPDEST SWAP1 POP SWAP2 SWAP1 POP JUMP JUMPDEST PUSH32 0x496E73756666696369656E742062616C616E6365000000000000000000000000 PUSH0 DUP3 ADD MSTORE POP JUMP JUMPDEST PUSH0 PUSH2 0x12EA PUSH1 0x14 DUP4 PUSH2 0xFB2 JUMP JUMPDEST SWAP2 POP PUSH2 0x12F5 DUP3 PUSH2 0x12B6 JUMP JUMPDEST PUSH1 0x20 DUP3 ADD SWAP1 POP SWAP2 SWAP1 POP JUMP JUMPDEST PUSH0 PUSH1 0x20 DUP3 ADD SWAP1 POP DUP2 DUP2 SUB PUSH0 DUP4 ADD MSTORE PUSH2 0x1317 DUP2 PUSH2 0x12DE JUMP JUMPDEST SWAP1 POP SWAP2 SWAP1 POP JUMP JUMPDEST PUSH32 0x416D6F756E74206D757374206265203E20300000000000000000000000000000 PUSH0 DUP3 ADD MSTORE POP JUMP JUMPDEST PUSH0 PUSH2 0x1352 PUSH1 0x12 DUP4 PUSH2 0xFB2 JUMP JUMPDEST SWAP2 POP PUSH2 0x135D DUP3 PUSH2 0x131E JUMP JUMPDEST PUSH1 0x20 DUP3 ADD SWAP1 POP SWAP2 SWAP1 POP JUMP JUMPDEST PUSH0 PUSH1 0x20 DUP3 ADD SWAP1 POP DUP2 DUP2 SUB PUSH0 DUP4 ADD MSTORE PUSH2 0x137F DUP2 PUSH2 0x1346 JUMP JUMPDEST SWAP1 POP SWAP2 SWAP1 POP JUMP JUMPDEST PUSH0 PUSH1 0x60 DUP3 ADD SWAP1 POP PUSH2 0x1399 PUSH0 DUP4 ADD DUP7 PUSH2 0x102A JUMP JUMPDEST PUSH2 0x13A6 PUSH1 0x20 DUP4 ADD DUP6 PUSH2 0x102A JUMP JUMPDEST PUSH2 0x13B3 PUSH1 0x40 DUP4 ADD DUP5 PUSH2 0xE0C JUMP JUMPDEST SWAP5 SWAP4 POP POP POP POP JUMP JUMPDEST PUSH0 DUP2 PUSH1 0x60 SHL SWAP1 POP SWAP2 SWAP1 POP JUMP JUMPDEST PUSH0 PUSH2 0x13D1 DUP3 PUSH2 0x13BB JUMP JUMPDEST SWAP1 POP SWAP2 SWAP1 POP JUMP JUMPDEST PUSH0 PUSH2 0x13E2 DUP3 PUSH2 0x13C7 JUMP JUMPDEST SWAP1 POP SWAP2 SWAP1 POP JUMP JUMPDEST PUSH2 0x13FA PUSH2 0x13F5 DUP3 PUSH2 0xD9D JUMP JUMPDEST PUSH2 0x13D8 JUMP JUMPDEST DUP3 MSTORE POP POP JUMP JUMPDEST PUSH0 DUP2 SWAP1 POP SWAP2 SWAP1 POP JUMP JUMPDEST PUSH2 0x141A PUSH2 0x1415 DUP3 PUSH2 0xE03 JUMP JUMPDEST PUSH2 0x1400 JUMP JUMPDEST DUP3 MSTORE POP POP JUMP JUMPDEST PUSH0 PUSH2 0x142B DUP3 DUP6 PUSH2 0x13E9 JUMP JUMPDEST PUSH1 0x14 DUP3 ADD SWAP2 POP PUSH2 0x143B DUP3 DUP5 PUSH2 0x1409 JUMP JUMPDEST PUSH1 0x20 DUP3 ADD SWAP2 POP DUP2 SWAP1 POP SWAP4 SWAP3 POP POP POP JUMP JUMPDEST PUSH0 PUSH1 0x40 DUP3 ADD SWAP1 POP PUSH2 0x145E PUSH0 DUP4 ADD DUP6 PUSH2 0xE0C JUMP JUMPDEST PUSH2 0x146B PUSH1 0x20 DUP4 ADD DUP5 PUSH2 0xE0C JUMP JUMPDEST SWAP4 SWAP3 POP POP POP JUMP INVALID LOG2 PUSH5 0x6970667358 0x22 SLT KECCAK256 0xBF SWAP8 0x4B DUP13 0xDE STATICCALL SWAP10 XOR EQ RJUMP 0x64E5 PUSH17 0xB40783A69E6A7CDDEAD716462D18784BE SIGNEXTEND 0xB1 PUSH5 0x736F6C6343 STOP ADDMOD 0x1E STOP CALLER "
				},
				"gasEstimates": {
					"creation": {
						"codeDepositCost": "1057600",
						"executionCost": "infinite",
						"totalCost": "infinite"
					},
					"external": {
						"SECONDS_PER_YEAR()": "369",
						"YIELD_RATE()": "391",
						"btcToken()": "infinite",
						"claimYield()": "infinite",
						"depositBTC(uint256)": "infinite",
						"getPendingYield(address)": "infinite",
						"getVaultPosition(address)": "infinite",
						"vaultPositions(address)": "infinite",
						"withdrawBTC(uint256)": "infinite"
					},
					"internal": {
						"_updateYield(address)": "infinite"
					}
				},
				"methodIdentifiers": {
					"SECONDS_PER_YEAR()": "e6a69ab8",
					"YIELD_RATE()": "e852090a",
					"btcToken()": "074bc101",
					"claimYield()": "406cf229",
					"depositBTC(uint256)": "a6b6d798",
					"getPendingYield(address)": "537bb137",
					"getVaultPosition(address)": "e9169a2c",
					"vaultPositions(address)": "d6c89758",
					"withdrawBTC(uint256)": "90b4588b"
				}
			},
			"storageLayout": {
				"storage": [
					{
						"astId": 796,
						"contract": "contract/vaultBTC.sol:VaultBTC",
						"label": "_status",
						"offset": 0,
						"slot": "0",
						"type": "t_uint256"
					},
					{
						"astId": 882,
						"contract": "contract/vaultBTC.sol:VaultBTC",
						"label": "vaultPositions",
						"offset": 0,
						"slot": "1",
						"type": "t_mapping(t_address,t_struct(VaultPosition)877_storage)"
					}
				],
				"types": {
					"t_address": {
						"encoding": "inplace",
						"label": "address",
						"numberOfBytes": "20"
					},
					"t_bool": {
						"encoding": "inplace",
						"label": "bool",
						"numberOfBytes": "1"
					},
					"t_mapping(t_address,t_struct(VaultPosition)877_storage)": {
						"encoding": "mapping",
						"key": "t_address",
						"label": "mapping(address => struct VaultBTC.VaultPosition)",
						"numberOfBytes": "32",
						"value": "t_struct(VaultPosition)877_storage"
					},
					"t_struct(VaultPosition)877_storage": {
						"encoding": "inplace",
						"label": "struct VaultBTC.VaultPosition",
						"members": [
							{
								"astId": 866,
								"contract": "contract/vaultBTC.sol:VaultBTC",
								"label": "vaultId",
								"offset": 0,
								"slot": "0",
								"type": "t_uint256"
							},
							{
								"astId": 868,
								"contract": "contract/vaultBTC.sol:VaultBTC",
								"label": "stakedAmount",
								"offset": 0,
								"slot": "1",
								"type": "t_uint256"
							},
							{
								"astId": 870,
								"contract": "contract/vaultBTC.sol:VaultBTC",
								"label": "yieldAccrued",
								"offset": 0,
								"slot": "2",
								"type": "t_uint256"
							},
							{
								"astId": 872,
								"contract": "contract/vaultBTC.sol:VaultBTC",
								"label": "lastYieldUpdate",
								"offset": 0,
								"slot": "3",
								"type": "t_uint256"
							},
							{
								"astId": 874,
								"contract": "contract/vaultBTC.sol:VaultBTC",
								"label": "lockTime",
								"offset": 0,
								"slot": "4",
								"type": "t_uint256"
							},
							{
								"astId": 876,
								"contract": "contract/vaultBTC.sol:VaultBTC",
								"label": "isActive",
								"offset": 0,
								"slot": "5",
								"type": "t_bool"
							}
						],
						"numberOfBytes": "192"
					},
					"t_uint256": {
						"encoding": "inplace",
						"label": "uint256",
						"numberOfBytes": "32"
					}
				}
			},
			"userdoc": {
				"kind": "user",
				"methods": {},
				"version": 1
			}
		}
	}
}