{
	"contract/ipriceoracle.sol": {
		"MockPriceOracle": {
			"abi": [
				{
					"inputs": [
						{
							"internalType": "uint256",
							"name": "initialPrice",
							"type": "uint256"
						}
					],
					"stateMutability": "nonpayable",
					"type": "constructor"
				},
				{
					"inputs": [
						{
							"internalType": "address",
							"name": "owner",
							"type": "address"
						}
					],
					"name": "OwnableInvalidOwner",
					"type": "error"
				},
				{
					"inputs": [
						{
							"internalType": "address",
							"name": "account",
							"type": "address"
						}
					],
					"name": "OwnableUnauthorizedAccount",
					"type": "error"
				},
				{
					"anonymous": false,
					"inputs": [
						{
							"indexed": true,
							"internalType": "address",
							"name": "previousOwner",
							"type": "address"
						},
						{
							"indexed": true,
							"internalType": "address",
							"name": "newOwner",
							"type": "address"
						}
					],
					"name": "OwnershipTransferred",
					"type": "event"
				},
				{
					"anonymous": false,
					"inputs": [
						{
							"indexed": false,
							"internalType": "uint256",
							"name": "newPrice",
							"type": "uint256"
						},
						{
							"indexed": false,
							"internalType": "uint256",
							"name": "timestamp",
							"type": "uint256"
						}
					],
					"name": "PriceUpdated",
					"type": "event"
				},
				{
					"inputs": [],
					"name": "decimals",
					"outputs": [
						{
							"internalType": "uint8",
							"name": "",
							"type": "uint8"
						}
					],
					"stateMutability": "view",
					"type": "function"
				},
				{
					"inputs": [],
					"name": "getPrice",
					"outputs": [
						{
							"internalType": "uint256",
							"name": "",
							"type": "uint256"
						}
					],
					"stateMutability": "view",
					"type": "function"
				},
				{
					"inputs": [],
					"name": "lastUpdate",
					"outputs": [
						{
							"internalType": "uint256",
							"name": "",
							"type": "uint256"
						}
					],
					"stateMutability": "view",
					"type": "function"
				},
				{
					"inputs": [],
					"name": "owner",
					"outputs": [
						{
							"internalType": "address",
							"name": "",
							"type": "address"
						}
					],
					"stateMutability": "view",
					"type": "function"
				},
				{
					"inputs": [],
					"name": "renounceOwnership",
					"outputs": [],
					"stateMutability": "nonpayable",
					"type": "function"
				},
				{
					"inputs": [
						{
							"internalType": "address",
							"name": "newOwner",
							"type": "address"
						}
					],
					"name": "transferOwnership",
					"outputs": [],
					"stateMutability": "nonpayable",
					"type": "function"
				},
				{
					"inputs": [
						{
							"internalType": "uint256",
							"name": "newPrice",
							"type": "uint256"
						}
					],
					"name": "updatePrice",
					"outputs": [],
					"stateMutability": "nonpayable",
					"type": "function"
				}
			],
			"devdoc": {
				"errors": {
					"OwnableInvalidOwner(address)": [
						{
							"details": "The owner is not a valid owner account. (eg. `address(0)`)"
						}
					],
					"OwnableUnauthorizedAccount(address)": [
						{
							"details": "The caller account is not authorized to perform an operation."
						}
					]
				},
				"kind": "dev",
				"methods": {
					"owner()": {
						"details": "Returns the address of the current owner."
					},
					"renounceOwnership()": {
						"details": "Leaves the contract without owner. It will not be possible to call `onlyOwner` functions. Can only be called by the current owner. NOTE: Renouncing ownership will leave the contract without an owner, thereby disabling any functionality that is only available to the owner."
					},
					"transferOwnership(address)": {
						"details": "Transfers ownership of the contract to a new account (`newOwner`). Can only be called by the current owner."
					}
				},
				"version": 1
			},
			"evm": {
				"assembly": "    /* \"contract/ipriceoracle.sol\":252:1135  contract MockPriceOracle is IPriceOracle, Ownable {... */\n  mstore(0x40, 0x80)\n    /* \"contract/ipriceoracle.sol\":466:618  constructor(uint256 initialPrice) Ownable(msg.sender) {... */\n  callvalue\n  dup1\n  iszero\n  tag_1\n  jumpi\n  revert(0x00, 0x00)\ntag_1:\n  pop\n  mload(0x40)\n  sub(codesize, bytecodeSize)\n  dup1\n  bytecodeSize\n  dup4\n  codecopy\n  dup2\n  dup2\n  add\n  0x40\n  mstore\n  dup2\n  add\n  swap1\n  tag_2\n  swap2\n  swap1\n  tag_3\n  jump\t// in\ntag_2:\n    /* \"contract/ipriceoracle.sol\":508:518  msg.sender */\n  caller\n    /* \"@openzeppelin/contracts/access/Ownable.sol\":1297:1298  0 */\n  0x00\n    /* \"@openzeppelin/contracts/access/Ownable.sol\":1273:1299  initialOwner == address(0) */\n  0xffffffffffffffffffffffffffffffffffffffff\n  and\n    /* \"@openzeppelin/contracts/access/Ownable.sol\":1273:1285  initialOwner */\n  dup2\n    /* \"@openzeppelin/contracts/access/Ownable.sol\":1273:1299  initialOwner == address(0) */\n  0xffffffffffffffffffffffffffffffffffffffff\n  and\n  sub\n    /* \"@openzeppelin/contracts/access/Ownable.sol\":1269:1364  if (initialOwner == address(0)) {... */\n  tag_7\n  jumpi\n    /* \"@openzeppelin/contracts/access/Ownable.sol\":1350:1351  0 */\n  0x00\n    /* \"@openzeppelin/contracts/access/Ownable.sol\":1322:1353  OwnableInvalidOwner(address(0)) */\n  mload(0x40)\n  0x1e4fbdf700000000000000000000000000000000000000000000000000000000\n  dup2\n  mstore\n  0x04\n  add\n  tag_8\n  swap2\n  swap1\n  tag_9\n  jump\t// in\ntag_8:\n  mload(0x40)\n  dup1\n  swap2\n  sub\n  swap1\n  revert\n    /* \"@openzeppelin/contracts/access/Ownable.sol\":1269:1364  if (initialOwner == address(0)) {... */\ntag_7:\n    /* \"@openzeppelin/contracts/access/Ownable.sol\":1373:1405  _transferOwnership(initialOwner) */\n  tag_10\n    /* \"@openzeppelin/contracts/access/Ownable.sol\":1392:1404  initialOwner */\n  dup2\n    /* \"@openzeppelin/contracts/access/Ownable.sol\":1373:1391  _transferOwnership */\n  shl(0x20, tag_11)\n    /* \"@openzeppelin/contracts/access/Ownable.sol\":1373:1405  _transferOwnership(initialOwner) */\n  0x20\n  shr\n  jump\t// in\ntag_10:\n    /* \"@openzeppelin/contracts/access/Ownable.sol\":1225:1412  constructor(address initialOwner) {... */\n  pop\n    /* \"contract/ipriceoracle.sol\":538:550  initialPrice */\n  dup1\n    /* \"contract/ipriceoracle.sol\":530:535  price */\n  0x01\n    /* \"contract/ipriceoracle.sol\":530:550  price = initialPrice */\n  dup2\n  swap1\n  sstore\n  pop\n    /* \"contract/ipriceoracle.sol\":572:573  8 */\n  0x08\n    /* \"contract/ipriceoracle.sol\":560:569  _decimals */\n  0x02\n  0x00\n    /* \"contract/ipriceoracle.sol\":560:573  _decimals = 8 */\n  0x0100\n  exp\n  dup2\n  sload\n  dup2\n  0xff\n  mul\n  not\n  and\n  swap1\n  dup4\n  0xff\n  and\n  mul\n  or\n  swap1\n  sstore\n  pop\n    /* \"contract/ipriceoracle.sol\":596:611  block.timestamp */\n  timestamp\n    /* \"contract/ipriceoracle.sol\":583:593  lastUpdate */\n  0x03\n    /* \"contract/ipriceoracle.sol\":583:611  lastUpdate = block.timestamp */\n  dup2\n  swap1\n  sstore\n  pop\n    /* \"contract/ipriceoracle.sol\":466:618  constructor(uint256 initialPrice) Ownable(msg.sender) {... */\n  pop\n    /* \"contract/ipriceoracle.sol\":252:1135  contract MockPriceOracle is IPriceOracle, Ownable {... */\n  jump(tag_13)\n    /* \"@openzeppelin/contracts/access/Ownable.sol\":2912:3099  function _transferOwnership(address newOwner) internal virtual {... */\ntag_11:\n    /* \"@openzeppelin/contracts/access/Ownable.sol\":2985:3001  address oldOwner */\n  0x00\n    /* \"@openzeppelin/contracts/access/Ownable.sol\":3004:3010  _owner */\n  0x00\n  0x00\n  swap1\n  sload\n  swap1\n  0x0100\n  exp\n  swap1\n  div\n  0xffffffffffffffffffffffffffffffffffffffff\n  and\n    /* \"@openzeppelin/contracts/access/Ownable.sol\":2985:3010  address oldOwner = _owner */\n  swap1\n  pop\n    /* \"@openzeppelin/contracts/access/Ownable.sol\":3029:3037  newOwner */\n  dup2\n    /* \"@openzeppelin/contracts/access/Ownable.sol\":3020:3026  _owner */\n  0x00\n  0x00\n    /* \"@openzeppelin/contracts/access/Ownable.sol\":3020:3037  _owner = newOwner */\n  0x0100\n  exp\n  dup2\n  sload\n  dup2\n  0xffffffffffffffffffffffffffffffffffffffff\n  mul\n  not\n  and\n  swap1\n  dup4\n  0xffffffffffffffffffffffffffffffffffffffff\n  and\n  mul\n  or\n  swap1\n  sstore\n  pop\n    /* \"@openzeppelin/contracts/access/Ownable.sol\":3083:3091  newOwner */\n  dup2\n    /* \"@openzeppelin/contracts/access/Ownable.sol\":3052:3092  OwnershipTransferred(oldOwner, newOwner) */\n  0xffffffffffffffffffffffffffffffffffffffff\n  and\n    /* \"@openzeppelin/contracts/access/Ownable.sol\":3073:3081  oldOwner */\n  dup2\n    /* \"@openzeppelin/contracts/access/Ownable.sol\":3052:3092  OwnershipTransferred(oldOwner, newOwner) */\n  0xffffffffffffffffffffffffffffffffffffffff\n  and\n  0x8be0079c531659141344cd1fd0a4f28419497f9722a3daafe3b4186f6b6457e0\n  mload(0x40)\n  mload(0x40)\n  dup1\n  swap2\n  sub\n  swap1\n  log3\n    /* \"@openzeppelin/contracts/access/Ownable.sol\":2975:3099  {... */\n  pop\n    /* \"@openzeppelin/contracts/access/Ownable.sol\":2912:3099  function _transferOwnership(address newOwner) internal virtual {... */\n  pop\n  jump\t// out\n    /* \"#utility.yul\":88:205   */\ntag_16:\n    /* \"#utility.yul\":197:198   */\n  0x00\n    /* \"#utility.yul\":194:195   */\n  0x00\n    /* \"#utility.yul\":187:199   */\n  revert\n    /* \"#utility.yul\":334:411   */\ntag_18:\n    /* \"#utility.yul\":371:378   */\n  0x00\n    /* \"#utility.yul\":400:405   */\n  dup2\n    /* \"#utility.yul\":389:405   */\n  swap1\n  pop\n    /* \"#utility.yul\":334:411   */\n  swap2\n  swap1\n  pop\n  jump\t// out\n    /* \"#utility.yul\":417:539   */\ntag_19:\n    /* \"#utility.yul\":490:514   */\n  tag_30\n    /* \"#utility.yul\":508:513   */\n  dup2\n    /* \"#utility.yul\":490:514   */\n  tag_18\n  jump\t// in\ntag_30:\n    /* \"#utility.yul\":483:488   */\n  dup2\n    /* \"#utility.yul\":480:515   */\n  eq\n    /* \"#utility.yul\":470:533   */\n  tag_31\n  jumpi\n    /* \"#utility.yul\":529:530   */\n  0x00\n    /* \"#utility.yul\":526:527   */\n  0x00\n    /* \"#utility.yul\":519:531   */\n  revert\n    /* \"#utility.yul\":470:533   */\ntag_31:\n    /* \"#utility.yul\":417:539   */\n  pop\n  jump\t// out\n    /* \"#utility.yul\":545:688   */\ntag_20:\n    /* \"#utility.yul\":602:607   */\n  0x00\n    /* \"#utility.yul\":633:639   */\n  dup2\n    /* \"#utility.yul\":627:640   */\n  mload\n    /* \"#utility.yul\":618:640   */\n  swap1\n  pop\n    /* \"#utility.yul\":649:682   */\n  tag_33\n    /* \"#utility.yul\":676:681   */\n  dup2\n    /* \"#utility.yul\":649:682   */\n  tag_19\n  jump\t// in\ntag_33:\n    /* \"#utility.yul\":545:688   */\n  swap3\n  swap2\n  pop\n  pop\n  jump\t// out\n    /* \"#utility.yul\":694:1045   */\ntag_3:\n    /* \"#utility.yul\":764:770   */\n  0x00\n    /* \"#utility.yul\":813:815   */\n  0x20\n    /* \"#utility.yul\":801:810   */\n  dup3\n    /* \"#utility.yul\":792:799   */\n  dup5\n    /* \"#utility.yul\":788:811   */\n  sub\n    /* \"#utility.yul\":784:816   */\n  slt\n    /* \"#utility.yul\":781:900   */\n  iszero\n  tag_35\n  jumpi\n    /* \"#utility.yul\":819:898   */\n  tag_36\n  tag_16\n  jump\t// in\ntag_36:\n    /* \"#utility.yul\":781:900   */\ntag_35:\n    /* \"#utility.yul\":939:940   */\n  0x00\n    /* \"#utility.yul\":964:1028   */\n  tag_37\n    /* \"#utility.yul\":1020:1027   */\n  dup5\n    /* \"#utility.yul\":1011:1017   */\n  dup3\n    /* \"#utility.yul\":1000:1009   */\n  dup6\n    /* \"#utility.yul\":996:1018   */\n  add\n    /* \"#utility.yul\":964:1028   */\n  tag_20\n  jump\t// in\ntag_37:\n    /* \"#utility.yul\":954:1028   */\n  swap2\n  pop\n    /* \"#utility.yul\":910:1038   */\n  pop\n    /* \"#utility.yul\":694:1045   */\n  swap3\n  swap2\n  pop\n  pop\n  jump\t// out\n    /* \"#utility.yul\":1051:1177   */\ntag_21:\n    /* \"#utility.yul\":1088:1095   */\n  0x00\n    /* \"#utility.yul\":1128:1170   */\n  0xffffffffffffffffffffffffffffffffffffffff\n    /* \"#utility.yul\":1121:1126   */\n  dup3\n    /* \"#utility.yul\":1117:1171   */\n  and\n    /* \"#utility.yul\":1106:1171   */\n  swap1\n  pop\n    /* \"#utility.yul\":1051:1177   */\n  swap2\n  swap1\n  pop\n  jump\t// out\n    /* \"#utility.yul\":1183:1279   */\ntag_22:\n    /* \"#utility.yul\":1220:1227   */\n  0x00\n    /* \"#utility.yul\":1249:1273   */\n  tag_40\n    /* \"#utility.yul\":1267:1272   */\n  dup3\n    /* \"#utility.yul\":1249:1273   */\n  tag_21\n  jump\t// in\ntag_40:\n    /* \"#utility.yul\":1238:1273   */\n  swap1\n  pop\n    /* \"#utility.yul\":1183:1279   */\n  swap2\n  swap1\n  pop\n  jump\t// out\n    /* \"#utility.yul\":1285:1403   */\ntag_23:\n    /* \"#utility.yul\":1372:1396   */\n  tag_42\n    /* \"#utility.yul\":1390:1395   */\n  dup2\n    /* \"#utility.yul\":1372:1396   */\n  tag_22\n  jump\t// in\ntag_42:\n    /* \"#utility.yul\":1367:1370   */\n  dup3\n    /* \"#utility.yul\":1360:1397   */\n  mstore\n    /* \"#utility.yul\":1285:1403   */\n  pop\n  pop\n  jump\t// out\n    /* \"#utility.yul\":1409:1631   */\ntag_9:\n    /* \"#utility.yul\":1502:1506   */\n  0x00\n    /* \"#utility.yul\":1540:1542   */\n  0x20\n    /* \"#utility.yul\":1529:1538   */\n  dup3\n    /* \"#utility.yul\":1525:1543   */\n  add\n    /* \"#utility.yul\":1517:1543   */\n  swap1\n  pop\n    /* \"#utility.yul\":1553:1624   */\n  tag_44\n    /* \"#utility.yul\":1621:1622   */\n  0x00\n    /* \"#utility.yul\":1610:1619   */\n  dup4\n    /* \"#utility.yul\":1606:1623   */\n  add\n    /* \"#utility.yul\":1597:1603   */\n  dup5\n    /* \"#utility.yul\":1553:1624   */\n  tag_23\n  jump\t// in\ntag_44:\n    /* \"#utility.yul\":1409:1631   */\n  swap3\n  swap2\n  pop\n  pop\n  jump\t// out\n    /* \"contract/ipriceoracle.sol\":252:1135  contract MockPriceOracle is IPriceOracle, Ownable {... */\ntag_13:\n  dataSize(sub_0)\n  dup1\n  dataOffset(sub_0)\n  0x00\n  codecopy\n  0x00\n  return\nstop\n\nsub_0: assembly {\n        /* \"contract/ipriceoracle.sol\":252:1135  contract MockPriceOracle is IPriceOracle, Ownable {... */\n      mstore(0x40, 0x80)\n      callvalue\n      dup1\n      iszero\n      tag_1\n      jumpi\n      revert(0x00, 0x00)\n    tag_1:\n      pop\n      jumpi(tag_2, lt(calldatasize, 0x04))\n      shr(0xe0, calldataload(0x00))\n      dup1\n      0x8da5cb5b\n      gt\n      tag_10\n      jumpi\n      dup1\n      0x8da5cb5b\n      eq\n      tag_6\n      jumpi\n      dup1\n      0x98d5fdca\n      eq\n      tag_7\n      jumpi\n      dup1\n      0xc0463711\n      eq\n      tag_8\n      jumpi\n      dup1\n      0xf2fde38b\n      eq\n      tag_9\n      jumpi\n      jump(tag_2)\n    tag_10:\n      dup1\n      0x313ce567\n      eq\n      tag_3\n      jumpi\n      dup1\n      0x715018a6\n      eq\n      tag_4\n      jumpi\n      dup1\n      0x8d6cc56d\n      eq\n      tag_5\n      jumpi\n    tag_2:\n      revert(0x00, 0x00)\n        /* \"contract/ipriceoracle.sol\":800:892  function decimals() external view override returns (uint8) {... */\n    tag_3:\n      tag_11\n      tag_12\n      jump\t// in\n    tag_11:\n      mload(0x40)\n      tag_13\n      swap2\n      swap1\n      tag_14\n      jump\t// in\n    tag_13:\n      mload(0x40)\n      dup1\n      swap2\n      sub\n      swap1\n      return\n        /* \"@openzeppelin/contracts/access/Ownable.sol\":2293:2394  function renounceOwnership() public virtual onlyOwner {... */\n    tag_4:\n      tag_15\n      tag_16\n      jump\t// in\n    tag_15:\n      stop\n        /* \"contract/ipriceoracle.sol\":902:1133  function updatePrice(uint256 newPrice) external onlyOwner {... */\n    tag_5:\n      tag_17\n      0x04\n      dup1\n      calldatasize\n      sub\n      dup2\n      add\n      swap1\n      tag_18\n      swap2\n      swap1\n      tag_19\n      jump\t// in\n    tag_18:\n      tag_20\n      jump\t// in\n    tag_17:\n      stop\n        /* \"@openzeppelin/contracts/access/Ownable.sol\":1638:1723  function owner() public view virtual returns (address) {... */\n    tag_6:\n      tag_21\n      tag_22\n      jump\t// in\n    tag_21:\n      mload(0x40)\n      tag_23\n      swap2\n      swap1\n      tag_24\n      jump\t// in\n    tag_23:\n      mload(0x40)\n      dup1\n      swap2\n      sub\n      swap1\n      return\n        /* \"contract/ipriceoracle.sol\":628:790  function getPrice() external view override returns (uint256) {... */\n    tag_7:\n      tag_25\n      tag_26\n      jump\t// in\n    tag_25:\n      mload(0x40)\n      tag_27\n      swap2\n      swap1\n      tag_28\n      jump\t// in\n    tag_27:\n      mload(0x40)\n      dup1\n      swap2\n      sub\n      swap1\n      return\n        /* \"contract/ipriceoracle.sol\":364:389  uint256 public lastUpdate */\n    tag_8:\n      tag_29\n      tag_30\n      jump\t// in\n    tag_29:\n      mload(0x40)\n      tag_31\n      swap2\n      swap1\n      tag_28\n      jump\t// in\n    tag_31:\n      mload(0x40)\n      dup1\n      swap2\n      sub\n      swap1\n      return\n        /* \"@openzeppelin/contracts/access/Ownable.sol\":2543:2758  function transferOwnership(address newOwner) public virtual onlyOwner {... */\n    tag_9:\n      tag_32\n      0x04\n      dup1\n      calldatasize\n      sub\n      dup2\n      add\n      swap1\n      tag_33\n      swap2\n      swap1\n      tag_34\n      jump\t// in\n    tag_33:\n      tag_35\n      jump\t// in\n    tag_32:\n      stop\n        /* \"contract/ipriceoracle.sol\":800:892  function decimals() external view override returns (uint8) {... */\n    tag_12:\n        /* \"contract/ipriceoracle.sol\":852:857  uint8 */\n      0x00\n        /* \"contract/ipriceoracle.sol\":876:885  _decimals */\n      0x02\n      0x00\n      swap1\n      sload\n      swap1\n      0x0100\n      exp\n      swap1\n      div\n      0xff\n      and\n        /* \"contract/ipriceoracle.sol\":869:885  return _decimals */\n      swap1\n      pop\n        /* \"contract/ipriceoracle.sol\":800:892  function decimals() external view override returns (uint8) {... */\n      swap1\n      jump\t// out\n        /* \"@openzeppelin/contracts/access/Ownable.sol\":2293:2394  function renounceOwnership() public virtual onlyOwner {... */\n    tag_16:\n        /* \"@openzeppelin/contracts/access/Ownable.sol\":1531:1544  _checkOwner() */\n      tag_38\n        /* \"@openzeppelin/contracts/access/Ownable.sol\":1531:1542  _checkOwner */\n      tag_39\n        /* \"@openzeppelin/contracts/access/Ownable.sol\":1531:1544  _checkOwner() */\n      jump\t// in\n    tag_38:\n        /* \"@openzeppelin/contracts/access/Ownable.sol\":2357:2387  _transferOwnership(address(0)) */\n      tag_41\n        /* \"@openzeppelin/contracts/access/Ownable.sol\":2384:2385  0 */\n      0x00\n        /* \"@openzeppelin/contracts/access/Ownable.sol\":2357:2375  _transferOwnership */\n      tag_42\n        /* \"@openzeppelin/contracts/access/Ownable.sol\":2357:2387  _transferOwnership(address(0)) */\n      jump\t// in\n    tag_41:\n        /* \"@openzeppelin/contracts/access/Ownable.sol\":2293:2394  function renounceOwnership() public virtual onlyOwner {... */\n      jump\t// out\n        /* \"contract/ipriceoracle.sol\":902:1133  function updatePrice(uint256 newPrice) external onlyOwner {... */\n    tag_20:\n        /* \"@openzeppelin/contracts/access/Ownable.sol\":1531:1544  _checkOwner() */\n      tag_44\n        /* \"@openzeppelin/contracts/access/Ownable.sol\":1531:1542  _checkOwner */\n      tag_39\n        /* \"@openzeppelin/contracts/access/Ownable.sol\":1531:1544  _checkOwner() */\n      jump\t// in\n    tag_44:\n        /* \"contract/ipriceoracle.sol\":989:990  0 */\n      0x00\n        /* \"contract/ipriceoracle.sol\":978:986  newPrice */\n      dup2\n        /* \"contract/ipriceoracle.sol\":978:990  newPrice > 0 */\n      gt\n        /* \"contract/ipriceoracle.sol\":970:1008  require(newPrice > 0, \"Invalid price\") */\n      tag_46\n      jumpi\n      mload(0x40)\n      0x08c379a000000000000000000000000000000000000000000000000000000000\n      dup2\n      mstore\n      0x04\n      add\n      tag_47\n      swap1\n      tag_48\n      jump\t// in\n    tag_47:\n      mload(0x40)\n      dup1\n      swap2\n      sub\n      swap1\n      revert\n    tag_46:\n        /* \"contract/ipriceoracle.sol\":1026:1034  newPrice */\n      dup1\n        /* \"contract/ipriceoracle.sol\":1018:1023  price */\n      0x01\n        /* \"contract/ipriceoracle.sol\":1018:1034  price = newPrice */\n      dup2\n      swap1\n      sstore\n      pop\n        /* \"contract/ipriceoracle.sol\":1057:1072  block.timestamp */\n      timestamp\n        /* \"contract/ipriceoracle.sol\":1044:1054  lastUpdate */\n      0x03\n        /* \"contract/ipriceoracle.sol\":1044:1072  lastUpdate = block.timestamp */\n      dup2\n      swap1\n      sstore\n      pop\n        /* \"contract/ipriceoracle.sol\":1087:1126  PriceUpdated(newPrice, block.timestamp) */\n      0x945c1c4e99aa89f648fbfe3df471b916f719e16d960fcec0737d4d56bd696838\n        /* \"contract/ipriceoracle.sol\":1100:1108  newPrice */\n      dup2\n        /* \"contract/ipriceoracle.sol\":1110:1125  block.timestamp */\n      timestamp\n        /* \"contract/ipriceoracle.sol\":1087:1126  PriceUpdated(newPrice, block.timestamp) */\n      mload(0x40)\n      tag_49\n      swap3\n      swap2\n      swap1\n      tag_50\n      jump\t// in\n    tag_49:\n      mload(0x40)\n      dup1\n      swap2\n      sub\n      swap1\n      log1\n        /* \"contract/ipriceoracle.sol\":902:1133  function updatePrice(uint256 newPrice) external onlyOwner {... */\n      pop\n      jump\t// out\n        /* \"@openzeppelin/contracts/access/Ownable.sol\":1638:1723  function owner() public view virtual returns (address) {... */\n    tag_22:\n        /* \"@openzeppelin/contracts/access/Ownable.sol\":1684:1691  address */\n      0x00\n        /* \"@openzeppelin/contracts/access/Ownable.sol\":1710:1716  _owner */\n      0x00\n      0x00\n      swap1\n      sload\n      swap1\n      0x0100\n      exp\n      swap1\n      div\n      0xffffffffffffffffffffffffffffffffffffffff\n      and\n        /* \"@openzeppelin/contracts/access/Ownable.sol\":1703:1716  return _owner */\n      swap1\n      pop\n        /* \"@openzeppelin/contracts/access/Ownable.sol\":1638:1723  function owner() public view virtual returns (address) {... */\n      swap1\n      jump\t// out\n        /* \"contract/ipriceoracle.sol\":628:790  function getPrice() external view override returns (uint256) {... */\n    tag_26:\n        /* \"contract/ipriceoracle.sol\":680:687  uint256 */\n      0x00\n        /* \"contract/ipriceoracle.sol\":738:745  1 hours */\n      0x0e10\n        /* \"contract/ipriceoracle.sol\":725:735  lastUpdate */\n      sload(0x03)\n        /* \"contract/ipriceoracle.sol\":707:722  block.timestamp */\n      timestamp\n        /* \"contract/ipriceoracle.sol\":707:735  block.timestamp - lastUpdate */\n      tag_53\n      swap2\n      swap1\n      tag_54\n      jump\t// in\n    tag_53:\n        /* \"contract/ipriceoracle.sol\":707:745  block.timestamp - lastUpdate < 1 hours */\n      lt\n        /* \"contract/ipriceoracle.sol\":699:761  require(block.timestamp - lastUpdate < 1 hours, \"Price stale\") */\n      tag_55\n      jumpi\n      mload(0x40)\n      0x08c379a000000000000000000000000000000000000000000000000000000000\n      dup2\n      mstore\n      0x04\n      add\n      tag_56\n      swap1\n      tag_57\n      jump\t// in\n    tag_56:\n      mload(0x40)\n      dup1\n      swap2\n      sub\n      swap1\n      revert\n    tag_55:\n        /* \"contract/ipriceoracle.sol\":778:783  price */\n      sload(0x01)\n        /* \"contract/ipriceoracle.sol\":771:783  return price */\n      swap1\n      pop\n        /* \"contract/ipriceoracle.sol\":628:790  function getPrice() external view override returns (uint256) {... */\n      swap1\n      jump\t// out\n        /* \"contract/ipriceoracle.sol\":364:389  uint256 public lastUpdate */\n    tag_30:\n      sload(0x03)\n      dup2\n      jump\t// out\n        /* \"@openzeppelin/contracts/access/Ownable.sol\":2543:2758  function transferOwnership(address newOwner) public virtual onlyOwner {... */\n    tag_35:\n        /* \"@openzeppelin/contracts/access/Ownable.sol\":1531:1544  _checkOwner() */\n      tag_59\n        /* \"@openzeppelin/contracts/access/Ownable.sol\":1531:1542  _checkOwner */\n      tag_39\n        /* \"@openzeppelin/contracts/access/Ownable.sol\":1531:1544  _checkOwner() */\n      jump\t// in\n    tag_59:\n        /* \"@openzeppelin/contracts/access/Ownable.sol\":2647:2648  0 */\n      0x00\n        /* \"@openzeppelin/contracts/access/Ownable.sol\":2627:2649  newOwner == address(0) */\n      0xffffffffffffffffffffffffffffffffffffffff\n      and\n        /* \"@openzeppelin/contracts/access/Ownable.sol\":2627:2635  newOwner */\n      dup2\n        /* \"@openzeppelin/contracts/access/Ownable.sol\":2627:2649  newOwner == address(0) */\n      0xffffffffffffffffffffffffffffffffffffffff\n      and\n      sub\n        /* \"@openzeppelin/contracts/access/Ownable.sol\":2623:2714  if (newOwner == address(0)) {... */\n      tag_61\n      jumpi\n        /* \"@openzeppelin/contracts/access/Ownable.sol\":2700:2701  0 */\n      0x00\n        /* \"@openzeppelin/contracts/access/Ownable.sol\":2672:2703  OwnableInvalidOwner(address(0)) */\n      mload(0x40)\n      0x1e4fbdf700000000000000000000000000000000000000000000000000000000\n      dup2\n      mstore\n      0x04\n      add\n      tag_62\n      swap2\n      swap1\n      tag_24\n      jump\t// in\n    tag_62:\n      mload(0x40)\n      dup1\n      swap2\n      sub\n      swap1\n      revert\n        /* \"@openzeppelin/contracts/access/Ownable.sol\":2623:2714  if (newOwner == address(0)) {... */\n    tag_61:\n        /* \"@openzeppelin/contracts/access/Ownable.sol\":2723:2751  _transferOwnership(newOwner) */\n      tag_63\n        /* \"@openzeppelin/contracts/access/Ownable.sol\":2742:2750  newOwner */\n      dup2\n        /* \"@openzeppelin/contracts/access/Ownable.sol\":2723:2741  _transferOwnership */\n      tag_42\n        /* \"@openzeppelin/contracts/access/Ownable.sol\":2723:2751  _transferOwnership(newOwner) */\n      jump\t// in\n    tag_63:\n        /* \"@openzeppelin/contracts/access/Ownable.sol\":2543:2758  function transferOwnership(address newOwner) public virtual onlyOwner {... */\n      pop\n      jump\t// out\n        /* \"@openzeppelin/contracts/access/Ownable.sol\":1796:1958  function _checkOwner() internal view virtual {... */\n    tag_39:\n        /* \"@openzeppelin/contracts/access/Ownable.sol\":1866:1878  _msgSender() */\n      tag_65\n        /* \"@openzeppelin/contracts/access/Ownable.sol\":1866:1876  _msgSender */\n      tag_66\n        /* \"@openzeppelin/contracts/access/Ownable.sol\":1866:1878  _msgSender() */\n      jump\t// in\n    tag_65:\n        /* \"@openzeppelin/contracts/access/Ownable.sol\":1855:1878  owner() != _msgSender() */\n      0xffffffffffffffffffffffffffffffffffffffff\n      and\n        /* \"@openzeppelin/contracts/access/Ownable.sol\":1855:1862  owner() */\n      tag_67\n        /* \"@openzeppelin/contracts/access/Ownable.sol\":1855:1860  owner */\n      tag_22\n        /* \"@openzeppelin/contracts/access/Ownable.sol\":1855:1862  owner() */\n      jump\t// in\n    tag_67:\n        /* \"@openzeppelin/contracts/access/Ownable.sol\":1855:1878  owner() != _msgSender() */\n      0xffffffffffffffffffffffffffffffffffffffff\n      and\n      eq\n        /* \"@openzeppelin/contracts/access/Ownable.sol\":1851:1952  if (owner() != _msgSender()) {... */\n      tag_68\n      jumpi\n        /* \"@openzeppelin/contracts/access/Ownable.sol\":1928:1940  _msgSender() */\n      tag_69\n        /* \"@openzeppelin/contracts/access/Ownable.sol\":1928:1938  _msgSender */\n      tag_66\n        /* \"@openzeppelin/contracts/access/Ownable.sol\":1928:1940  _msgSender() */\n      jump\t// in\n    tag_69:\n        /* \"@openzeppelin/contracts/access/Ownable.sol\":1901:1941  OwnableUnauthorizedAccount(_msgSender()) */\n      mload(0x40)\n      0x118cdaa700000000000000000000000000000000000000000000000000000000\n      dup2\n      mstore\n      0x04\n      add\n      tag_70\n      swap2\n      swap1\n      tag_24\n      jump\t// in\n    tag_70:\n      mload(0x40)\n      dup1\n      swap2\n      sub\n      swap1\n      revert\n        /* \"@openzeppelin/contracts/access/Ownable.sol\":1851:1952  if (owner() != _msgSender()) {... */\n    tag_68:\n        /* \"@openzeppelin/contracts/access/Ownable.sol\":1796:1958  function _checkOwner() internal view virtual {... */\n      jump\t// out\n        /* \"@openzeppelin/contracts/access/Ownable.sol\":2912:3099  function _transferOwnership(address newOwner) internal virtual {... */\n    tag_42:\n        /* \"@openzeppelin/contracts/access/Ownable.sol\":2985:3001  address oldOwner */\n      0x00\n        /* \"@openzeppelin/contracts/access/Ownable.sol\":3004:3010  _owner */\n      0x00\n      0x00\n      swap1\n      sload\n      swap1\n      0x0100\n      exp\n      swap1\n      div\n      0xffffffffffffffffffffffffffffffffffffffff\n      and\n        /* \"@openzeppelin/contracts/access/Ownable.sol\":2985:3010  address oldOwner = _owner */\n      swap1\n      pop\n        /* \"@openzeppelin/contracts/access/Ownable.sol\":3029:3037  newOwner */\n      dup2\n        /* \"@openzeppelin/contracts/access/Ownable.sol\":3020:3026  _owner */\n      0x00\n      0x00\n        /* \"@openzeppelin/contracts/access/Ownable.sol\":3020:3037  _owner = newOwner */\n      0x0100\n      exp\n      dup2\n      sload\n      dup2\n      0xffffffffffffffffffffffffffffffffffffffff\n      mul\n      not\n      and\n      swap1\n      dup4\n      0xffffffffffffffffffffffffffffffffffffffff\n      and\n      mul\n      or\n      swap1\n      sstore\n      pop\n        /* \"@openzeppelin/contracts/access/Ownable.sol\":3083:3091  newOwner */\n      dup2\n        /* \"@openzeppelin/contracts/access/Ownable.sol\":3052:3092  OwnershipTransferred(oldOwner, newOwner) */\n      0xffffffffffffffffffffffffffffffffffffffff\n      and\n        /* \"@openzeppelin/contracts/access/Ownable.sol\":3073:3081  oldOwner */\n      dup2\n        /* \"@openzeppelin/contracts/access/Ownable.sol\":3052:3092  OwnershipTransferred(oldOwner, newOwner) */\n      0xffffffffffffffffffffffffffffffffffffffff\n      and\n      0x8be0079c531659141344cd1fd0a4f28419497f9722a3daafe3b4186f6b6457e0\n      mload(0x40)\n      mload(0x40)\n      dup1\n      swap2\n      sub\n      swap1\n      log3\n        /* \"@openzeppelin/contracts/access/Ownable.sol\":2975:3099  {... */\n      pop\n        /* \"@openzeppelin/contracts/access/Ownable.sol\":2912:3099  function _transferOwnership(address newOwner) internal virtual {... */\n      pop\n      jump\t// out\n        /* \"@openzeppelin/contracts/utils/Context.sol\":656:752  function _msgSender() internal view virtual returns (address) {... */\n    tag_66:\n        /* \"@openzeppelin/contracts/utils/Context.sol\":709:716  address */\n      0x00\n        /* \"@openzeppelin/contracts/utils/Context.sol\":735:745  msg.sender */\n      caller\n        /* \"@openzeppelin/contracts/utils/Context.sol\":728:745  return msg.sender */\n      swap1\n      pop\n        /* \"@openzeppelin/contracts/utils/Context.sol\":656:752  function _msgSender() internal view virtual returns (address) {... */\n      swap1\n      jump\t// out\n        /* \"#utility.yul\":7:93   */\n    tag_73:\n        /* \"#utility.yul\":42:49   */\n      0x00\n        /* \"#utility.yul\":82:86   */\n      0xff\n        /* \"#utility.yul\":75:80   */\n      dup3\n        /* \"#utility.yul\":71:87   */\n      and\n        /* \"#utility.yul\":60:87   */\n      swap1\n      pop\n        /* \"#utility.yul\":7:93   */\n      swap2\n      swap1\n      pop\n      jump\t// out\n        /* \"#utility.yul\":99:211   */\n    tag_74:\n        /* \"#utility.yul\":182:204   */\n      tag_96\n        /* \"#utility.yul\":198:203   */\n      dup2\n        /* \"#utility.yul\":182:204   */\n      tag_73\n      jump\t// in\n    tag_96:\n        /* \"#utility.yul\":177:180   */\n      dup3\n        /* \"#utility.yul\":170:205   */\n      mstore\n        /* \"#utility.yul\":99:211   */\n      pop\n      pop\n      jump\t// out\n        /* \"#utility.yul\":217:431   */\n    tag_14:\n        /* \"#utility.yul\":306:310   */\n      0x00\n        /* \"#utility.yul\":344:346   */\n      0x20\n        /* \"#utility.yul\":333:342   */\n      dup3\n        /* \"#utility.yul\":329:347   */\n      add\n        /* \"#utility.yul\":321:347   */\n      swap1\n      pop\n        /* \"#utility.yul\":357:424   */\n      tag_98\n        /* \"#utility.yul\":421:422   */\n      0x00\n        /* \"#utility.yul\":410:419   */\n      dup4\n        /* \"#utility.yul\":406:423   */\n      add\n        /* \"#utility.yul\":397:403   */\n      dup5\n        /* \"#utility.yul\":357:424   */\n      tag_74\n      jump\t// in\n    tag_98:\n        /* \"#utility.yul\":217:431   */\n      swap3\n      swap2\n      pop\n      pop\n      jump\t// out\n        /* \"#utility.yul\":518:635   */\n    tag_76:\n        /* \"#utility.yul\":627:628   */\n      0x00\n        /* \"#utility.yul\":624:625   */\n      0x00\n        /* \"#utility.yul\":617:629   */\n      revert\n        /* \"#utility.yul\":764:841   */\n    tag_78:\n        /* \"#utility.yul\":801:808   */\n      0x00\n        /* \"#utility.yul\":830:835   */\n      dup2\n        /* \"#utility.yul\":819:835   */\n      swap1\n      pop\n        /* \"#utility.yul\":764:841   */\n      swap2\n      swap1\n      pop\n      jump\t// out\n        /* \"#utility.yul\":847:969   */\n    tag_79:\n        /* \"#utility.yul\":920:944   */\n      tag_104\n        /* \"#utility.yul\":938:943   */\n      dup2\n        /* \"#utility.yul\":920:944   */\n      tag_78\n      jump\t// in\n    tag_104:\n        /* \"#utility.yul\":913:918   */\n      dup2\n        /* \"#utility.yul\":910:945   */\n      eq\n        /* \"#utility.yul\":900:963   */\n      tag_105\n      jumpi\n        /* \"#utility.yul\":959:960   */\n      0x00\n        /* \"#utility.yul\":956:957   */\n      0x00\n        /* \"#utility.yul\":949:961   */\n      revert\n        /* \"#utility.yul\":900:963   */\n    tag_105:\n        /* \"#utility.yul\":847:969   */\n      pop\n      jump\t// out\n        /* \"#utility.yul\":975:1114   */\n    tag_80:\n        /* \"#utility.yul\":1021:1026   */\n      0x00\n        /* \"#utility.yul\":1059:1065   */\n      dup2\n        /* \"#utility.yul\":1046:1066   */\n      calldataload\n        /* \"#utility.yul\":1037:1066   */\n      swap1\n      pop\n        /* \"#utility.yul\":1075:1108   */\n      tag_107\n        /* \"#utility.yul\":1102:1107   */\n      dup2\n        /* \"#utility.yul\":1075:1108   */\n      tag_79\n      jump\t// in\n    tag_107:\n        /* \"#utility.yul\":975:1114   */\n      swap3\n      swap2\n      pop\n      pop\n      jump\t// out\n        /* \"#utility.yul\":1120:1449   */\n    tag_19:\n        /* \"#utility.yul\":1179:1185   */\n      0x00\n        /* \"#utility.yul\":1228:1230   */\n      0x20\n        /* \"#utility.yul\":1216:1225   */\n      dup3\n        /* \"#utility.yul\":1207:1214   */\n      dup5\n        /* \"#utility.yul\":1203:1226   */\n      sub\n        /* \"#utility.yul\":1199:1231   */\n      slt\n        /* \"#utility.yul\":1196:1315   */\n      iszero\n      tag_109\n      jumpi\n        /* \"#utility.yul\":1234:1313   */\n      tag_110\n      tag_76\n      jump\t// in\n    tag_110:\n        /* \"#utility.yul\":1196:1315   */\n    tag_109:\n        /* \"#utility.yul\":1354:1355   */\n      0x00\n        /* \"#utility.yul\":1379:1432   */\n      tag_111\n        /* \"#utility.yul\":1424:1431   */\n      dup5\n        /* \"#utility.yul\":1415:1421   */\n      dup3\n        /* \"#utility.yul\":1404:1413   */\n      dup6\n        /* \"#utility.yul\":1400:1422   */\n      add\n        /* \"#utility.yul\":1379:1432   */\n      tag_80\n      jump\t// in\n    tag_111:\n        /* \"#utility.yul\":1369:1432   */\n      swap2\n      pop\n        /* \"#utility.yul\":1325:1442   */\n      pop\n        /* \"#utility.yul\":1120:1449   */\n      swap3\n      swap2\n      pop\n      pop\n      jump\t// out\n        /* \"#utility.yul\":1455:1581   */\n    tag_81:\n        /* \"#utility.yul\":1492:1499   */\n      0x00\n        /* \"#utility.yul\":1532:1574   */\n      0xffffffffffffffffffffffffffffffffffffffff\n        /* \"#utility.yul\":1525:1530   */\n      dup3\n        /* \"#utility.yul\":1521:1575   */\n      and\n        /* \"#utility.yul\":1510:1575   */\n      swap1\n      pop\n        /* \"#utility.yul\":1455:1581   */\n      swap2\n      swap1\n      pop\n      jump\t// out\n        /* \"#utility.yul\":1587:1683   */\n    tag_82:\n        /* \"#utility.yul\":1624:1631   */\n      0x00\n        /* \"#utility.yul\":1653:1677   */\n      tag_114\n        /* \"#utility.yul\":1671:1676   */\n      dup3\n        /* \"#utility.yul\":1653:1677   */\n      tag_81\n      jump\t// in\n    tag_114:\n        /* \"#utility.yul\":1642:1677   */\n      swap1\n      pop\n        /* \"#utility.yul\":1587:1683   */\n      swap2\n      swap1\n      pop\n      jump\t// out\n        /* \"#utility.yul\":1689:1807   */\n    tag_83:\n        /* \"#utility.yul\":1776:1800   */\n      tag_116\n        /* \"#utility.yul\":1794:1799   */\n      dup2\n        /* \"#utility.yul\":1776:1800   */\n      tag_82\n      jump\t// in\n    tag_116:\n        /* \"#utility.yul\":1771:1774   */\n      dup3\n        /* \"#utility.yul\":1764:1801   */\n      mstore\n        /* \"#utility.yul\":1689:1807   */\n      pop\n      pop\n      jump\t// out\n        /* \"#utility.yul\":1813:2035   */\n    tag_24:\n        /* \"#utility.yul\":1906:1910   */\n      0x00\n        /* \"#utility.yul\":1944:1946   */\n      0x20\n        /* \"#utility.yul\":1933:1942   */\n      dup3\n        /* \"#utility.yul\":1929:1947   */\n      add\n        /* \"#utility.yul\":1921:1947   */\n      swap1\n      pop\n        /* \"#utility.yul\":1957:2028   */\n      tag_118\n        /* \"#utility.yul\":2025:2026   */\n      0x00\n        /* \"#utility.yul\":2014:2023   */\n      dup4\n        /* \"#utility.yul\":2010:2027   */\n      add\n        /* \"#utility.yul\":2001:2007   */\n      dup5\n        /* \"#utility.yul\":1957:2028   */\n      tag_83\n      jump\t// in\n    tag_118:\n        /* \"#utility.yul\":1813:2035   */\n      swap3\n      swap2\n      pop\n      pop\n      jump\t// out\n        /* \"#utility.yul\":2041:2159   */\n    tag_84:\n        /* \"#utility.yul\":2128:2152   */\n      tag_120\n        /* \"#utility.yul\":2146:2151   */\n      dup2\n        /* \"#utility.yul\":2128:2152   */\n      tag_78\n      jump\t// in\n    tag_120:\n        /* \"#utility.yul\":2123:2126   */\n      dup3\n        /* \"#utility.yul\":2116:2153   */\n      mstore\n        /* \"#utility.yul\":2041:2159   */\n      pop\n      pop\n      jump\t// out\n        /* \"#utility.yul\":2165:2387   */\n    tag_28:\n        /* \"#utility.yul\":2258:2262   */\n      0x00\n        /* \"#utility.yul\":2296:2298   */\n      0x20\n        /* \"#utility.yul\":2285:2294   */\n      dup3\n        /* \"#utility.yul\":2281:2299   */\n      add\n        /* \"#utility.yul\":2273:2299   */\n      swap1\n      pop\n        /* \"#utility.yul\":2309:2380   */\n      tag_122\n        /* \"#utility.yul\":2377:2378   */\n      0x00\n        /* \"#utility.yul\":2366:2375   */\n      dup4\n        /* \"#utility.yul\":2362:2379   */\n      add\n        /* \"#utility.yul\":2353:2359   */\n      dup5\n        /* \"#utility.yul\":2309:2380   */\n      tag_84\n      jump\t// in\n    tag_122:\n        /* \"#utility.yul\":2165:2387   */\n      swap3\n      swap2\n      pop\n      pop\n      jump\t// out\n        /* \"#utility.yul\":2393:2515   */\n    tag_85:\n        /* \"#utility.yul\":2466:2490   */\n      tag_124\n        /* \"#utility.yul\":2484:2489   */\n      dup2\n        /* \"#utility.yul\":2466:2490   */\n      tag_82\n      jump\t// in\n    tag_124:\n        /* \"#utility.yul\":2459:2464   */\n      dup2\n        /* \"#utility.yul\":2456:2491   */\n      eq\n        /* \"#utility.yul\":2446:2509   */\n      tag_125\n      jumpi\n        /* \"#utility.yul\":2505:2506   */\n      0x00\n        /* \"#utility.yul\":2502:2503   */\n      0x00\n        /* \"#utility.yul\":2495:2507   */\n      revert\n        /* \"#utility.yul\":2446:2509   */\n    tag_125:\n        /* \"#utility.yul\":2393:2515   */\n      pop\n      jump\t// out\n        /* \"#utility.yul\":2521:2660   */\n    tag_86:\n        /* \"#utility.yul\":2567:2572   */\n      0x00\n        /* \"#utility.yul\":2605:2611   */\n      dup2\n        /* \"#utility.yul\":2592:2612   */\n      calldataload\n        /* \"#utility.yul\":2583:2612   */\n      swap1\n      pop\n        /* \"#utility.yul\":2621:2654   */\n      tag_127\n        /* \"#utility.yul\":2648:2653   */\n      dup2\n        /* \"#utility.yul\":2621:2654   */\n      tag_85\n      jump\t// in\n    tag_127:\n        /* \"#utility.yul\":2521:2660   */\n      swap3\n      swap2\n      pop\n      pop\n      jump\t// out\n        /* \"#utility.yul\":2666:2995   */\n    tag_34:\n        /* \"#utility.yul\":2725:2731   */\n      0x00\n        /* \"#utility.yul\":2774:2776   */\n      0x20\n        /* \"#utility.yul\":2762:2771   */\n      dup3\n        /* \"#utility.yul\":2753:2760   */\n      dup5\n        /* \"#utility.yul\":2749:2772   */\n      sub\n        /* \"#utility.yul\":2745:2777   */\n      slt\n        /* \"#utility.yul\":2742:2861   */\n      iszero\n      tag_129\n      jumpi\n        /* \"#utility.yul\":2780:2859   */\n      tag_130\n      tag_76\n      jump\t// in\n    tag_130:\n        /* \"#utility.yul\":2742:2861   */\n    tag_129:\n        /* \"#utility.yul\":2900:2901   */\n      0x00\n        /* \"#utility.yul\":2925:2978   */\n      tag_131\n        /* \"#utility.yul\":2970:2977   */\n      dup5\n        /* \"#utility.yul\":2961:2967   */\n      dup3\n        /* \"#utility.yul\":2950:2959   */\n      dup6\n        /* \"#utility.yul\":2946:2968   */\n      add\n        /* \"#utility.yul\":2925:2978   */\n      tag_86\n      jump\t// in\n    tag_131:\n        /* \"#utility.yul\":2915:2978   */\n      swap2\n      pop\n        /* \"#utility.yul\":2871:2988   */\n      pop\n        /* \"#utility.yul\":2666:2995   */\n      swap3\n      swap2\n      pop\n      pop\n      jump\t// out\n        /* \"#utility.yul\":3001:3170   */\n    tag_87:\n        /* \"#utility.yul\":3085:3096   */\n      0x00\n        /* \"#utility.yul\":3119:3125   */\n      dup3\n        /* \"#utility.yul\":3114:3117   */\n      dup3\n        /* \"#utility.yul\":3107:3126   */\n      mstore\n        /* \"#utility.yul\":3159:3163   */\n      0x20\n        /* \"#utility.yul\":3154:3157   */\n      dup3\n        /* \"#utility.yul\":3150:3164   */\n      add\n        /* \"#utility.yul\":3135:3164   */\n      swap1\n      pop\n        /* \"#utility.yul\":3001:3170   */\n      swap3\n      swap2\n      pop\n      pop\n      jump\t// out\n        /* \"#utility.yul\":3176:3339   */\n    tag_88:\n        /* \"#utility.yul\":3316:3331   */\n      0x496e76616c696420707269636500000000000000000000000000000000000000\n        /* \"#utility.yul\":3312:3313   */\n      0x00\n        /* \"#utility.yul\":3304:3310   */\n      dup3\n        /* \"#utility.yul\":3300:3314   */\n      add\n        /* \"#utility.yul\":3293:3332   */\n      mstore\n        /* \"#utility.yul\":3176:3339   */\n      pop\n      jump\t// out\n        /* \"#utility.yul\":3345:3711   */\n    tag_89:\n        /* \"#utility.yul\":3487:3490   */\n      0x00\n        /* \"#utility.yul\":3508:3575   */\n      tag_135\n        /* \"#utility.yul\":3572:3574   */\n      0x0d\n        /* \"#utility.yul\":3567:3570   */\n      dup4\n        /* \"#utility.yul\":3508:3575   */\n      tag_87\n      jump\t// in\n    tag_135:\n        /* \"#utility.yul\":3501:3575   */\n      swap2\n      pop\n        /* \"#utility.yul\":3584:3677   */\n      tag_136\n        /* \"#utility.yul\":3673:3676   */\n      dup3\n        /* \"#utility.yul\":3584:3677   */\n      tag_88\n      jump\t// in\n    tag_136:\n        /* \"#utility.yul\":3702:3704   */\n      0x20\n        /* \"#utility.yul\":3697:3700   */\n      dup3\n        /* \"#utility.yul\":3693:3705   */\n      add\n        /* \"#utility.yul\":3686:3705   */\n      swap1\n      pop\n        /* \"#utility.yul\":3345:3711   */\n      swap2\n      swap1\n      pop\n      jump\t// out\n        /* \"#utility.yul\":3717:4136   */\n    tag_48:\n        /* \"#utility.yul\":3883:3887   */\n      0x00\n        /* \"#utility.yul\":3921:3923   */\n      0x20\n        /* \"#utility.yul\":3910:3919   */\n      dup3\n        /* \"#utility.yul\":3906:3924   */\n      add\n        /* \"#utility.yul\":3898:3924   */\n      swap1\n      pop\n        /* \"#utility.yul\":3970:3979   */\n      dup2\n        /* \"#utility.yul\":3964:3968   */\n      dup2\n        /* \"#utility.yul\":3960:3980   */\n      sub\n        /* \"#utility.yul\":3956:3957   */\n      0x00\n        /* \"#utility.yul\":3945:3954   */\n      dup4\n        /* \"#utility.yul\":3941:3958   */\n      add\n        /* \"#utility.yul\":3934:3981   */\n      mstore\n        /* \"#utility.yul\":3998:4129   */\n      tag_138\n        /* \"#utility.yul\":4124:4128   */\n      dup2\n        /* \"#utility.yul\":3998:4129   */\n      tag_89\n      jump\t// in\n    tag_138:\n        /* \"#utility.yul\":3990:4129   */\n      swap1\n      pop\n        /* \"#utility.yul\":3717:4136   */\n      swap2\n      swap1\n      pop\n      jump\t// out\n        /* \"#utility.yul\":4142:4474   */\n    tag_50:\n        /* \"#utility.yul\":4263:4267   */\n      0x00\n        /* \"#utility.yul\":4301:4303   */\n      0x40\n        /* \"#utility.yul\":4290:4299   */\n      dup3\n        /* \"#utility.yul\":4286:4304   */\n      add\n        /* \"#utility.yul\":4278:4304   */\n      swap1\n      pop\n        /* \"#utility.yul\":4314:4385   */\n      tag_140\n        /* \"#utility.yul\":4382:4383   */\n      0x00\n        /* \"#utility.yul\":4371:4380   */\n      dup4\n        /* \"#utility.yul\":4367:4384   */\n      add\n        /* \"#utility.yul\":4358:4364   */\n      dup6\n        /* \"#utility.yul\":4314:4385   */\n      tag_84\n      jump\t// in\n    tag_140:\n        /* \"#utility.yul\":4395:4467   */\n      tag_141\n        /* \"#utility.yul\":4463:4465   */\n      0x20\n        /* \"#utility.yul\":4452:4461   */\n      dup4\n        /* \"#utility.yul\":4448:4466   */\n      add\n        /* \"#utility.yul\":4439:4445   */\n      dup5\n        /* \"#utility.yul\":4395:4467   */\n      tag_84\n      jump\t// in\n    tag_141:\n        /* \"#utility.yul\":4142:4474   */\n      swap4\n      swap3\n      pop\n      pop\n      pop\n      jump\t// out\n        /* \"#utility.yul\":4480:4660   */\n    tag_90:\n        /* \"#utility.yul\":4528:4605   */\n      0x4e487b7100000000000000000000000000000000000000000000000000000000\n        /* \"#utility.yul\":4525:4526   */\n      0x00\n        /* \"#utility.yul\":4518:4606   */\n      mstore\n        /* \"#utility.yul\":4625:4629   */\n      0x11\n        /* \"#utility.yul\":4622:4623   */\n      0x04\n        /* \"#utility.yul\":4615:4630   */\n      mstore\n        /* \"#utility.yul\":4649:4653   */\n      0x24\n        /* \"#utility.yul\":4646:4647   */\n      0x00\n        /* \"#utility.yul\":4639:4654   */\n      revert\n        /* \"#utility.yul\":4666:4860   */\n    tag_54:\n        /* \"#utility.yul\":4706:4710   */\n      0x00\n        /* \"#utility.yul\":4726:4746   */\n      tag_144\n        /* \"#utility.yul\":4744:4745   */\n      dup3\n        /* \"#utility.yul\":4726:4746   */\n      tag_78\n      jump\t// in\n    tag_144:\n        /* \"#utility.yul\":4721:4746   */\n      swap2\n      pop\n        /* \"#utility.yul\":4760:4780   */\n      tag_145\n        /* \"#utility.yul\":4778:4779   */\n      dup4\n        /* \"#utility.yul\":4760:4780   */\n      tag_78\n      jump\t// in\n    tag_145:\n        /* \"#utility.yul\":4755:4780   */\n      swap3\n      pop\n        /* \"#utility.yul\":4804:4805   */\n      dup3\n        /* \"#utility.yul\":4801:4802   */\n      dup3\n        /* \"#utility.yul\":4797:4806   */\n      sub\n        /* \"#utility.yul\":4789:4806   */\n      swap1\n      pop\n        /* \"#utility.yul\":4828:4829   */\n      dup2\n        /* \"#utility.yul\":4822:4826   */\n      dup2\n        /* \"#utility.yul\":4819:4830   */\n      gt\n        /* \"#utility.yul\":4816:4853   */\n      iszero\n      tag_146\n      jumpi\n        /* \"#utility.yul\":4833:4851   */\n      tag_147\n      tag_90\n      jump\t// in\n    tag_147:\n        /* \"#utility.yul\":4816:4853   */\n    tag_146:\n        /* \"#utility.yul\":4666:4860   */\n      swap3\n      swap2\n      pop\n      pop\n      jump\t// out\n        /* \"#utility.yul\":4866:5027   */\n    tag_91:\n        /* \"#utility.yul\":5006:5019   */\n      0x5072696365207374616c65000000000000000000000000000000000000000000\n        /* \"#utility.yul\":5002:5003   */\n      0x00\n        /* \"#utility.yul\":4994:5000   */\n      dup3\n        /* \"#utility.yul\":4990:5004   */\n      add\n        /* \"#utility.yul\":4983:5020   */\n      mstore\n        /* \"#utility.yul\":4866:5027   */\n      pop\n      jump\t// out\n        /* \"#utility.yul\":5033:5399   */\n    tag_92:\n        /* \"#utility.yul\":5175:5178   */\n      0x00\n        /* \"#utility.yul\":5196:5263   */\n      tag_150\n        /* \"#utility.yul\":5260:5262   */\n      0x0b\n        /* \"#utility.yul\":5255:5258   */\n      dup4\n        /* \"#utility.yul\":5196:5263   */\n      tag_87\n      jump\t// in\n    tag_150:\n        /* \"#utility.yul\":5189:5263   */\n      swap2\n      pop\n        /* \"#utility.yul\":5272:5365   */\n      tag_151\n        /* \"#utility.yul\":5361:5364   */\n      dup3\n        /* \"#utility.yul\":5272:5365   */\n      tag_91\n      jump\t// in\n    tag_151:\n        /* \"#utility.yul\":5390:5392   */\n      0x20\n        /* \"#utility.yul\":5385:5388   */\n      dup3\n        /* \"#utility.yul\":5381:5393   */\n      add\n        /* \"#utility.yul\":5374:5393   */\n      swap1\n      pop\n        /* \"#utility.yul\":5033:5399   */\n      swap2\n      swap1\n      pop\n      jump\t// out\n        /* \"#utility.yul\":5405:5824   */\n    tag_57:\n        /* \"#utility.yul\":5571:5575   */\n      0x00\n        /* \"#utility.yul\":5609:5611   */\n      0x20\n        /* \"#utility.yul\":5598:5607   */\n      dup3\n        /* \"#utility.yul\":5594:5612   */\n      add\n        /* \"#utility.yul\":5586:5612   */\n      swap1\n      pop\n        /* \"#utility.yul\":5658:5667   */\n      dup2\n        /* \"#utility.yul\":5652:5656   */\n      dup2\n        /* \"#utility.yul\":5648:5668   */\n      sub\n        /* \"#utility.yul\":5644:5645   */\n      0x00\n        /* \"#utility.yul\":5633:5642   */\n      dup4\n        /* \"#utility.yul\":5629:5646   */\n      add\n        /* \"#utility.yul\":5622:5669   */\n      mstore\n        /* \"#utility.yul\":5686:5817   */\n      tag_153\n        /* \"#utility.yul\":5812:5816   */\n      dup2\n        /* \"#utility.yul\":5686:5817   */\n      tag_92\n      jump\t// in\n    tag_153:\n        /* \"#utility.yul\":5678:5817   */\n      swap1\n      pop\n        /* \"#utility.yul\":5405:5824   */\n      swap2\n      swap1\n      pop\n      jump\t// out\n\n    auxdata: 0xa26469706673582212200ce3fd908929e8fc64b16ee06daeca07f1eb71c3b8f8ae61b37669c958ff4aa164736f6c634300081e0033\n}\n",
				"bytecode": {
					"linkReferences": {},
					"object": "608060405234801561000f575f5ffd5b506040516109c03803806109c0833981810160405281019061003191906101d9565b335f73ffffffffffffffffffffffffffffffffffffffff168173ffffffffffffffffffffffffffffffffffffffff16036100a2575f6040517f1e4fbdf70000000000000000000000000000000000000000000000000000000081526004016100999190610243565b60405180910390fd5b6100b1816100e160201b60201c565b5080600181905550600860025f6101000a81548160ff021916908360ff160217905550426003819055505061025c565b5f5f5f9054906101000a900473ffffffffffffffffffffffffffffffffffffffff169050815f5f6101000a81548173ffffffffffffffffffffffffffffffffffffffff021916908373ffffffffffffffffffffffffffffffffffffffff1602179055508173ffffffffffffffffffffffffffffffffffffffff168173ffffffffffffffffffffffffffffffffffffffff167f8be0079c531659141344cd1fd0a4f28419497f9722a3daafe3b4186f6b6457e060405160405180910390a35050565b5f5ffd5b5f819050919050565b6101b8816101a6565b81146101c2575f5ffd5b50565b5f815190506101d3816101af565b92915050565b5f602082840312156101ee576101ed6101a2565b5b5f6101fb848285016101c5565b91505092915050565b5f73ffffffffffffffffffffffffffffffffffffffff82169050919050565b5f61022d82610204565b9050919050565b61023d81610223565b82525050565b5f6020820190506102565f830184610234565b92915050565b610757806102695f395ff3fe608060405234801561000f575f5ffd5b506004361061007b575f3560e01c80638da5cb5b116100595780638da5cb5b146100c357806398d5fdca146100e1578063c0463711146100ff578063f2fde38b1461011d5761007b565b8063313ce5671461007f578063715018a61461009d5780638d6cc56d146100a7575b5f5ffd5b610087610139565b604051610094919061046a565b60405180910390f35b6100a561014e565b005b6100c160048036038101906100bc91906104ba565b610161565b005b6100cb6101f5565b6040516100d89190610524565b60405180910390f35b6100e961021c565b6040516100f6919061054c565b60405180910390f35b610107610276565b604051610114919061054c565b60405180910390f35b6101376004803603810190610132919061058f565b61027c565b005b5f60025f9054906101000a900460ff16905090565b610156610300565b61015f5f610387565b565b610169610300565b5f81116101ab576040517f08c379a00000000000000000000000000000000000000000000000000000000081526004016101a290610614565b60405180910390fd5b80600181905550426003819055507f945c1c4e99aa89f648fbfe3df471b916f719e16d960fcec0737d4d56bd69683881426040516101ea929190610632565b60405180910390a150565b5f5f5f9054906101000a900473ffffffffffffffffffffffffffffffffffffffff16905090565b5f610e106003544261022e9190610686565b1061026e576040517f08c379a000000000000000000000000000000000000000000000000000000000815260040161026590610703565b60405180910390fd5b600154905090565b60035481565b610284610300565b5f73ffffffffffffffffffffffffffffffffffffffff168173ffffffffffffffffffffffffffffffffffffffff16036102f4575f6040517f1e4fbdf70000000000000000000000000000000000000000000000000000000081526004016102eb9190610524565b60405180910390fd5b6102fd81610387565b50565b610308610448565b73ffffffffffffffffffffffffffffffffffffffff166103266101f5565b73ffffffffffffffffffffffffffffffffffffffff161461038557610349610448565b6040517f118cdaa700000000000000000000000000000000000000000000000000000000815260040161037c9190610524565b60405180910390fd5b565b5f5f5f9054906101000a900473ffffffffffffffffffffffffffffffffffffffff169050815f5f6101000a81548173ffffffffffffffffffffffffffffffffffffffff021916908373ffffffffffffffffffffffffffffffffffffffff1602179055508173ffffffffffffffffffffffffffffffffffffffff168173ffffffffffffffffffffffffffffffffffffffff167f8be0079c531659141344cd1fd0a4f28419497f9722a3daafe3b4186f6b6457e060405160405180910390a35050565b5f33905090565b5f60ff82169050919050565b6104648161044f565b82525050565b5f60208201905061047d5f83018461045b565b92915050565b5f5ffd5b5f819050919050565b61049981610487565b81146104a3575f5ffd5b50565b5f813590506104b481610490565b92915050565b5f602082840312156104cf576104ce610483565b5b5f6104dc848285016104a6565b91505092915050565b5f73ffffffffffffffffffffffffffffffffffffffff82169050919050565b5f61050e826104e5565b9050919050565b61051e81610504565b82525050565b5f6020820190506105375f830184610515565b92915050565b61054681610487565b82525050565b5f60208201905061055f5f83018461053d565b92915050565b61056e81610504565b8114610578575f5ffd5b50565b5f8135905061058981610565565b92915050565b5f602082840312156105a4576105a3610483565b5b5f6105b18482850161057b565b91505092915050565b5f82825260208201905092915050565b7f496e76616c6964207072696365000000000000000000000000000000000000005f82015250565b5f6105fe600d836105ba565b9150610609826105ca565b602082019050919050565b5f6020820190508181035f83015261062b816105f2565b9050919050565b5f6040820190506106455f83018561053d565b610652602083018461053d565b9392505050565b7f4e487b71000000000000000000000000000000000000000000000000000000005f52601160045260245ffd5b5f61069082610487565b915061069b83610487565b92508282039050818111156106b3576106b2610659565b5b92915050565b7f5072696365207374616c650000000000000000000000000000000000000000005f82015250565b5f6106ed600b836105ba565b91506106f8826106b9565b602082019050919050565b5f6020820190508181035f83015261071a816106e1565b905091905056fea26469706673582212200ce3fd908929e8fc64b16ee06daeca07f1eb71c3b8f8ae61b37669c958ff4aa164736f6c634300081e0033",
					"opcodes": "PUSH1 0x80 PUSH1 0x40 MSTORE CALLVALUE DUP1 ISZERO PUSH2 0xF JUMPI PUSH0 PUSH0 REVERT JUMPDEST POP PUSH1 0x40 MLOAD PUSH2 0x9C0 CODESIZE SUB DUP1 PUSH2 0x9C0 DUP4 CODECOPY DUP2 DUP2 ADD PUSH1 0x40 MSTORE DUP2 ADD SWAP1 PUSH2 0x31 SWAP2 SWAP1 PUSH2 0x1D9 JUMP JUMPDEST CALLER PUSH0 PUSH20 0xFFFFFFFFFFFFFFFFFFFFFFFFFFFFFFFFFFFFFFFF AND DUP2 PUSH20 0xFFFFFFFFFFFFFFFFFFFFFFFFFFFFFFFFFFFFFFFF AND SUB PUSH2 0xA2 JUMPI PUSH0 PUSH1 0x40 MLOAD PUSH32 0x1E4FBDF700000000000000000000000000000000000000000000000000000000 DUP2 MSTORE PUSH1 0x4 ADD PUSH2 0x99 SWAP2 SWAP1 PUSH2 0x243 JUMP JUMPDEST PUSH1 0x40 MLOAD DUP1 SWAP2 SUB SWAP1 REVERT JUMPDEST PUSH2 0xB1 DUP2 PUSH2 0xE1 PUSH1 0x20 SHL PUSH1 0x20 SHR JUMP JUMPDEST POP DUP1 PUSH1 0x1 DUP2 SWAP1 SSTORE POP PUSH1 0x8 PUSH1 0x2 PUSH0 PUSH2 0x100 EXP DUP2 SLOAD DUP2 PUSH1 0xFF MUL NOT AND SWAP1 DUP4 PUSH1 0xFF AND MUL OR SWAP1 SSTORE POP TIMESTAMP PUSH1 0x3 DUP2 SWAP1 SSTORE POP POP PUSH2 0x25C JUMP JUMPDEST PUSH0 PUSH0 PUSH0 SWAP1 SLOAD SWAP1 PUSH2 0x100 EXP SWAP1 DIV PUSH20 0xFFFFFFFFFFFFFFFFFFFFFFFFFFFFFFFFFFFFFFFF AND SWAP1 POP DUP2 PUSH0 PUSH0 PUSH2 0x100 EXP DUP2 SLOAD DUP2 PUSH20 0xFFFFFFFFFFFFFFFFFFFFFFFFFFFFFFFFFFFFFFFF MUL NOT AND SWAP1 DUP4 PUSH20 0xFFFFFFFFFFFFFFFFFFFFFFFFFFFFFFFFFFFFFFFF AND MUL OR SWAP1 SSTORE POP DUP2 PUSH20 0xFFFFFFFFFFFFFFFFFFFFFFFFFFFFFFFFFFFFFFFF AND DUP2 PUSH20 0xFFFFFFFFFFFFFFFFFFFFFFFFFFFFFFFFFFFFFFFF AND PUSH32 0x8BE0079C531659141344CD1FD0A4F28419497F9722A3DAAFE3B4186F6B6457E0 PUSH1 0x40 MLOAD PUSH1 0x40 MLOAD DUP1 SWAP2 SUB SWAP1 LOG3 POP POP JUMP JUMPDEST PUSH0 PUSH0 REVERT JUMPDEST PUSH0 DUP2 SWAP1 POP SWAP2 SWAP1 POP JUMP JUMPDEST PUSH2 0x1B8 DUP2 PUSH2 0x1A6 JUMP JUMPDEST DUP2 EQ PUSH2 0x1C2 JUMPI PUSH0 PUSH0 REVERT JUMPDEST POP JUMP JUMPDEST PUSH0 DUP2 MLOAD SWAP1 POP PUSH2 0x1D3 DUP2 PUSH2 0x1AF JUMP JUMPDEST SWAP3 SWAP2 POP POP JUMP JUMPDEST PUSH0 PUSH1 0x20 DUP3 DUP5 SUB SLT ISZERO PUSH2 0x1EE JUMPI PUSH2 0x1ED PUSH2 0x1A2 JUMP JUMPDEST JUMPDEST PUSH0 PUSH2 0x1FB DUP5 DUP3 DUP6 ADD PUSH2 0x1C5 JUMP JUMPDEST SWAP2 POP POP SWAP3 SWAP2 POP POP JUMP JUMPDEST PUSH0 PUSH20 0xFFFFFFFFFFFFFFFFFFFFFFFFFFFFFFFFFFFFFFFF DUP3 AND SWAP1 POP SWAP2 SWAP1 POP JUMP JUMPDEST PUSH0 PUSH2 0x22D DUP3 PUSH2 0x204 JUMP JUMPDEST SWAP1 POP SWAP2 SWAP1 POP JUMP JUMPDEST PUSH2 0x23D DUP2 PUSH2 0x223 JUMP JUMPDEST DUP3 MSTORE POP POP JUMP JUMPDEST PUSH0 PUSH1 0x20 DUP3 ADD SWAP1 POP PUSH2 0x256 PUSH0 DUP4 ADD DUP5 PUSH2 0x234 JUMP JUMPDEST SWAP3 SWAP2 POP POP JUMP JUMPDEST PUSH2 0x757 DUP1 PUSH2 0x269 PUSH0 CODECOPY PUSH0 RETURN INVALID PUSH1 0x80 PUSH1 0x40 MSTORE CALLVALUE DUP1 ISZERO PUSH2 0xF JUMPI PUSH0 PUSH0 REVERT JUMPDEST POP PUSH1 0x4 CALLDATASIZE LT PUSH2 0x7B JUMPI PUSH0 CALLDATALOAD PUSH1 0xE0 SHR DUP1 PUSH4 0x8DA5CB5B GT PUSH2 0x59 JUMPI DUP1 PUSH4 0x8DA5CB5B EQ PUSH2 0xC3 JUMPI DUP1 PUSH4 0x98D5FDCA EQ PUSH2 0xE1 JUMPI DUP1 PUSH4 0xC0463711 EQ PUSH2 0xFF JUMPI DUP1 PUSH4 0xF2FDE38B EQ PUSH2 0x11D JUMPI PUSH2 0x7B JUMP JUMPDEST DUP1 PUSH4 0x313CE567 EQ PUSH2 0x7F JUMPI DUP1 PUSH4 0x715018A6 EQ PUSH2 0x9D JUMPI DUP1 PUSH4 0x8D6CC56D EQ PUSH2 0xA7 JUMPI JUMPDEST PUSH0 PUSH0 REVERT JUMPDEST PUSH2 0x87 PUSH2 0x139 JUMP JUMPDEST PUSH1 0x40 MLOAD PUSH2 0x94 SWAP2 SWAP1 PUSH2 0x46A JUMP JUMPDEST PUSH1 0x40 MLOAD DUP1 SWAP2 SUB SWAP1 RETURN JUMPDEST PUSH2 0xA5 PUSH2 0x14E JUMP JUMPDEST STOP JUMPDEST PUSH2 0xC1 PUSH1 0x4 DUP1 CALLDATASIZE SUB DUP2 ADD SWAP1 PUSH2 0xBC SWAP2 SWAP1 PUSH2 0x4BA JUMP JUMPDEST PUSH2 0x161 JUMP JUMPDEST STOP JUMPDEST PUSH2 0xCB PUSH2 0x1F5 JUMP JUMPDEST PUSH1 0x40 MLOAD PUSH2 0xD8 SWAP2 SWAP1 PUSH2 0x524 JUMP JUMPDEST PUSH1 0x40 MLOAD DUP1 SWAP2 SUB SWAP1 RETURN JUMPDEST PUSH2 0xE9 PUSH2 0x21C JUMP JUMPDEST PUSH1 0x40 MLOAD PUSH2 0xF6 SWAP2 SWAP1 PUSH2 0x54C JUMP JUMPDEST PUSH1 0x40 MLOAD DUP1 SWAP2 SUB SWAP1 RETURN JUMPDEST PUSH2 0x107 PUSH2 0x276 JUMP JUMPDEST PUSH1 0x40 MLOAD PUSH2 0x114 SWAP2 SWAP1 PUSH2 0x54C JUMP JUMPDEST PUSH1 0x40 MLOAD DUP1 SWAP2 SUB SWAP1 RETURN JUMPDEST PUSH2 0x137 PUSH1 0x4 DUP1 CALLDATASIZE SUB DUP2 ADD SWAP1 PUSH2 0x132 SWAP2 SWAP1 PUSH2 0x58F JUMP JUMPDEST PUSH2 0x27C JUMP JUMPDEST STOP JUMPDEST PUSH0 PUSH1 0x2 PUSH0 SWAP1 SLOAD SWAP1 PUSH2 0x100 EXP SWAP1 DIV PUSH1 0xFF AND SWAP1 POP SWAP1 JUMP JUMPDEST PUSH2 0x156 PUSH2 0x300 JUMP JUMPDEST PUSH2 0x15F PUSH0 PUSH2 0x387 JUMP JUMPDEST JUMP JUMPDEST PUSH2 0x169 PUSH2 0x300 JUMP JUMPDEST PUSH0 DUP2 GT PUSH2 0x1AB JUMPI PUSH1 0x40 MLOAD PUSH32 0x8C379A000000000000000000000000000000000000000000000000000000000 DUP2 MSTORE PUSH1 0x4 ADD PUSH2 0x1A2 SWAP1 PUSH2 0x614 JUMP JUMPDEST PUSH1 0x40 MLOAD DUP1 SWAP2 SUB SWAP1 REVERT JUMPDEST DUP1 PUSH1 0x1 DUP2 SWAP1 SSTORE POP TIMESTAMP PUSH1 0x3 DUP2 SWAP1 SSTORE POP PUSH32 0x945C1C4E99AA89F648FBFE3DF471B916F719E16D960FCEC0737D4D56BD696838 DUP2 TIMESTAMP PUSH1 0x40 MLOAD PUSH2 0x1EA SWAP3 SWAP2 SWAP1 PUSH2 0x632 JUMP JUMPDEST PUSH1 0x40 MLOAD DUP1 SWAP2 SUB SWAP1 LOG1 POP JUMP JUMPDEST PUSH0 PUSH0 PUSH0 SWAP1 SLOAD SWAP1 PUSH2 0x100 EXP SWAP1 DIV PUSH20 0xFFFFFFFFFFFFFFFFFFFFFFFFFFFFFFFFFFFFFFFF AND SWAP1 POP SWAP1 JUMP JUMPDEST PUSH0 PUSH2 0xE10 PUSH1 0x3 SLOAD TIMESTAMP PUSH2 0x22E SWAP2 SWAP1 PUSH2 0x686 JUMP JUMPDEST LT PUSH2 0x26E JUMPI PUSH1 0x40 MLOAD PUSH32 0x8C379A000000000000000000000000000000000000000000000000000000000 DUP2 MSTORE PUSH1 0x4 ADD PUSH2 0x265 SWAP1 PUSH2 0x703 JUMP JUMPDEST PUSH1 0x40 MLOAD DUP1 SWAP2 SUB SWAP1 REVERT JUMPDEST PUSH1 0x1 SLOAD SWAP1 POP SWAP1 JUMP JUMPDEST PUSH1 0x3 SLOAD DUP2 JUMP JUMPDEST PUSH2 0x284 PUSH2 0x300 JUMP JUMPDEST PUSH0 PUSH20 0xFFFFFFFFFFFFFFFFFFFFFFFFFFFFFFFFFFFFFFFF AND DUP2 PUSH20 0xFFFFFFFFFFFFFFFFFFFFFFFFFFFFFFFFFFFFFFFF AND SUB PUSH2 0x2F4 JUMPI PUSH0 PUSH1 0x40 MLOAD PUSH32 0x1E4FBDF700000000000000000000000000000000000000000000000000000000 DUP2 MSTORE PUSH1 0x4 ADD PUSH2 0x2EB SWAP2 SWAP1 PUSH2 0x524 JUMP JUMPDEST PUSH1 0x40 MLOAD DUP1 SWAP2 SUB SWAP1 REVERT JUMPDEST PUSH2 0x2FD DUP2 PUSH2 0x387 JUMP JUMPDEST POP JUMP JUMPDEST PUSH2 0x308 PUSH2 0x448 JUMP JUMPDEST PUSH20 0xFFFFFFFFFFFFFFFFFFFFFFFFFFFFFFFFFFFFFFFF AND PUSH2 0x326 PUSH2 0x1F5 JUMP JUMPDEST PUSH20 0xFFFFFFFFFFFFFFFFFFFFFFFFFFFFFFFFFFFFFFFF AND EQ PUSH2 0x385 JUMPI PUSH2 0x349 PUSH2 0x448 JUMP JUMPDEST PUSH1 0x40 MLOAD PUSH32 0x118CDAA700000000000000000000000000000000000000000000000000000000 DUP2 MSTORE PUSH1 0x4 ADD PUSH2 0x37C SWAP2 SWAP1 PUSH2 0x524 JUMP JUMPDEST PUSH1 0x40 MLOAD DUP1 SWAP2 SUB SWAP1 REVERT JUMPDEST JUMP JUMPDEST PUSH0 PUSH0 PUSH0 SWAP1 SLOAD SWAP1 PUSH2 0x100 EXP SWAP1 DIV PUSH20 0xFFFFFFFFFFFFFFFFFFFFFFFFFFFFFFFFFFFFFFFF AND SWAP1 POP DUP2 PUSH0 PUSH0 PUSH2 0x100 EXP DUP2 SLOAD DUP2 PUSH20 0xFFFFFFFFFFFFFFFFFFFFFFFFFFFFFFFFFFFFFFFF MUL NOT AND SWAP1 DUP4 PUSH20 0xFFFFFFFFFFFFFFFFFFFFFFFFFFFFFFFFFFFFFFFF AND MUL OR SWAP1 SSTORE POP DUP2 PUSH20 0xFFFFFFFFFFFFFFFFFFFFFFFFFFFFFFFFFFFFFFFF AND DUP2 PUSH20 0xFFFFFFFFFFFFFFFFFFFFFFFFFFFFFFFFFFFFFFFF AND PUSH32 0x8BE0079C531659141344CD1FD0A4F28419497F9722A3DAAFE3B4186F6B6457E0 PUSH1 0x40 MLOAD PUSH1 0x40 MLOAD DUP1 SWAP2 SUB SWAP1 LOG3 POP POP JUMP JUMPDEST PUSH0 CALLER SWAP1 POP SWAP1 JUMP JUMPDEST PUSH0 PUSH1 0xFF DUP3 AND SWAP1 POP SWAP2 SWAP1 POP JUMP JUMPDEST PUSH2 0x464 DUP2 PUSH2 0x44F JUMP JUMPDEST DUP3 MSTORE POP POP JUMP JUMPDEST PUSH0 PUSH1 0x20 DUP3 ADD SWAP1 POP PUSH2 0x47D PUSH0 DUP4 ADD DUP5 PUSH2 0x45B JUMP JUMPDEST SWAP3 SWAP2 POP POP JUMP JUMPDEST PUSH0 PUSH0 REVERT JUMPDEST PUSH0 DUP2 SWAP1 POP SWAP2 SWAP1 POP JUMP JUMPDEST PUSH2 0x499 DUP2 PUSH2 0x487 JUMP JUMPDEST DUP2 EQ PUSH2 0x4A3 JUMPI PUSH0 PUSH0 REVERT JUMPDEST POP JUMP JUMPDEST PUSH0 DUP2 CALLDATALOAD SWAP1 POP PUSH2 0x4B4 DUP2 PUSH2 0x490 JUMP JUMPDEST SWAP3 SWAP2 POP POP JUMP JUMPDEST PUSH0 PUSH1 0x20 DUP3 DUP5 SUB SLT ISZERO PUSH2 0x4CF JUMPI PUSH2 0x4CE PUSH2 0x483 JUMP JUMPDEST JUMPDEST PUSH0 PUSH2 0x4DC DUP5 DUP3 DUP6 ADD PUSH2 0x4A6 JUMP JUMPDEST SWAP2 POP POP SWAP3 SWAP2 POP POP JUMP JUMPDEST PUSH0 PUSH20 0xFFFFFFFFFFFFFFFFFFFFFFFFFFFFFFFFFFFFFFFF DUP3 AND SWAP1 POP SWAP2 SWAP1 POP JUMP JUMPDEST PUSH0 PUSH2 0x50E DUP3 PUSH2 0x4E5 JUMP JUMPDEST SWAP1 POP SWAP2 SWAP1 POP JUMP JUMPDEST PUSH2 0x51E DUP2 PUSH2 0x504 JUMP JUMPDEST DUP3 MSTORE POP POP JUMP JUMPDEST PUSH0 PUSH1 0x20 DUP3 ADD SWAP1 POP PUSH2 0x537 PUSH0 DUP4 ADD DUP5 PUSH2 0x515 JUMP JUMPDEST SWAP3 SWAP2 POP POP JUMP JUMPDEST PUSH2 0x546 DUP2 PUSH2 0x487 JUMP JUMPDEST DUP3 MSTORE POP POP JUMP JUMPDEST PUSH0 PUSH1 0x20 DUP3 ADD SWAP1 POP PUSH2 0x55F PUSH0 DUP4 ADD DUP5 PUSH2 0x53D JUMP JUMPDEST SWAP3 SWAP2 POP POP JUMP JUMPDEST PUSH2 0x56E DUP2 PUSH2 0x504 JUMP JUMPDEST DUP2 EQ PUSH2 0x578 JUMPI PUSH0 PUSH0 REVERT JUMPDEST POP JUMP JUMPDEST PUSH0 DUP2 CALLDATALOAD SWAP1 POP PUSH2 0x589 DUP2 PUSH2 0x565 JUMP JUMPDEST SWAP3 SWAP2 POP POP JUMP JUMPDEST PUSH0 PUSH1 0x20 DUP3 DUP5 SUB SLT ISZERO PUSH2 0x5A4 JUMPI PUSH2 0x5A3 PUSH2 0x483 JUMP JUMPDEST JUMPDEST PUSH0 PUSH2 0x5B1 DUP5 DUP3 DUP6 ADD PUSH2 0x57B JUMP JUMPDEST SWAP2 POP POP SWAP3 SWAP2 POP POP JUMP JUMPDEST PUSH0 DUP3 DUP3 MSTORE PUSH1 0x20 DUP3 ADD SWAP1 POP SWAP3 SWAP2 POP POP JUMP JUMPDEST PUSH32 0x496E76616C696420707269636500000000000000000000000000000000000000 PUSH0 DUP3 ADD MSTORE POP JUMP JUMPDEST PUSH0 PUSH2 0x5FE PUSH1 0xD DUP4 PUSH2 0x5BA JUMP JUMPDEST SWAP2 POP PUSH2 0x609 DUP3 PUSH2 0x5CA JUMP JUMPDEST PUSH1 0x20 DUP3 ADD SWAP1 POP SWAP2 SWAP1 POP JUMP JUMPDEST PUSH0 PUSH1 0x20 DUP3 ADD SWAP1 POP DUP2 DUP2 SUB PUSH0 DUP4 ADD MSTORE PUSH2 0x62B DUP2 PUSH2 0x5F2 JUMP JUMPDEST SWAP1 POP SWAP2 SWAP1 POP JUMP JUMPDEST PUSH0 PUSH1 0x40 DUP3 ADD SWAP1 POP PUSH2 0x645 PUSH0 DUP4 ADD DUP6 PUSH2 0x53D JUMP JUMPDEST PUSH2 0x652 PUSH1 0x20 DUP4 ADD DUP5 PUSH2 0x53D JUMP JUMPDEST SWAP4 SWAP3 POP POP POP JUMP JUMPDEST PUSH32 0x4E487B7100000000000000000000000000000000000000000000000000000000 PUSH0 MSTORE PUSH1 0x11 PUSH1 0x4 MSTORE PUSH1 0x24 PUSH0 REVERT JUMPDEST PUSH0 PUSH2 0x690 DUP3 PUSH2 0x487 JUMP JUMPDEST SWAP2 POP PUSH2 0x69B DUP4 PUSH2 0x487 JUMP JUMPDEST SWAP3 POP DUP3 DUP3 SUB SWAP1 POP DUP2 DUP2 GT ISZERO PUSH2 0x6B3 JUMPI PUSH2 0x6B2 PUSH2 0x659 JUMP JUMPDEST JUMPDEST SWAP3 SWAP2 POP POP JUMP JUMPDEST PUSH32 0x5072696365207374616C65000000000000000000000000000000000000000000 PUSH0 DUP3 ADD MSTORE POP JUMP JUMPDEST PUSH0 PUSH2 0x6ED PUSH1 0xB DUP4 PUSH2 0x5BA JUMP JUMPDEST SWAP2 POP PUSH2 0x6F8 DUP3 PUSH2 0x6B9 JUMP JUMPDEST PUSH1 0x20 DUP3 ADD SWAP1 POP SWAP2 SWAP1 POP JUMP JUMPDEST PUSH0 PUSH1 0x20 DUP3 ADD SWAP1 POP DUP2 DUP2 SUB PUSH0 DUP4 ADD MSTORE PUSH2 0x71A DUP2 PUSH2 0x6E1 JUMP JUMPDEST SWAP1 POP SWAP2 SWAP1 POP JUMP INVALID LOG2 PUSH5 0x6970667358 0x22 SLT KECCAK256 0xC CALLF 0xFD90 DUP10 0x29 0xE8 0xFC PUSH5 0xB16EE06DAE 0xCA SMOD CALL 0xEB PUSH18 0xC3B8F8AE61B37669C958FF4AA164736F6C63 NUMBER STOP ADDMOD 0x1E STOP CALLER "
				},
				"gasEstimates": {
					"creation": {
						"codeDepositCost": "375800",
						"executionCost": "infinite",
						"totalCost": "infinite"
					},
					"external": {
						"decimals()": "2474",
						"getPrice()": "infinite",
						"lastUpdate()": "2469",
						"owner()": "2514",
						"renounceOwnership()": "infinite",
						"transferOwnership(address)": "infinite",
						"updatePrice(uint256)": "infinite"
					}
				},
				"methodIdentifiers": {
					"decimals()": "313ce567",
					"getPrice()": "98d5fdca",
					"lastUpdate()": "c0463711",
					"owner()": "8da5cb5b",
					"renounceOwnership()": "715018a6",
					"transferOwnership(address)": "f2fde38b",
					"updatePrice(uint256)": "8d6cc56d"
				}
			},
			"storageLayout": {
				"storage": [
					{
						"astId": 8,
						"contract": "contract/ipriceoracle.sol:MockPriceOracle",
						"label": "_owner",
						"offset": 0,
						"slot": "0",
						"type": "t_address"
					},
					{
						"astId": 448,
						"contract": "contract/ipriceoracle.sol:MockPriceOracle",
						"label": "price",
						"offset": 0,
						"slot": "1",
						"type": "t_uint256"
					},
					{
						"astId": 450,
						"contract": "contract/ipriceoracle.sol:MockPriceOracle",
						"label": "_decimals",
						"offset": 0,
						"slot": "2",
						"type": "t_uint8"
					},
					{
						"astId": 452,
						"contract": "contract/ipriceoracle.sol:MockPriceOracle",
						"label": "lastUpdate",
						"offset": 0,
						"slot": "3",
						"type": "t_uint256"
					}
				],
				"types": {
					"t_address": {
						"encoding": "inplace",
						"label": "address",
						"numberOfBytes": "20"
					},
					"t_uint256": {
						"encoding": "inplace",
						"label": "uint256",
						"numberOfBytes": "32"
					},
					"t_uint8": {
						"encoding": "inplace",
						"label": "uint8",
						"numberOfBytes": "1"
					}
				}
			},
			"userdoc": {
				"kind": "user",
				"methods": {},
				"version": 1
			}
		}
	}
}