{
	"contract/vaultswapcore.sol": {
		"VaultSwapCore": {
			"abi": [
				{
					"inputs": [
						{
							"internalType": "address",
							"name": "_vaultBTC",
							"type": "address"
						},
						{
							"internalType": "address",
							"name": "_stablecoin",
							"type": "address"
						},
						{
							"internalType": "address",
							"name": "_priceOracle",
							"type": "address"
						}
					],
					"stateMutability": "nonpayable",
					"type": "constructor"
				},
				{
					"inputs": [
						{
							"internalType": "address",
							"name": "owner",
							"type": "address"
						}
					],
					"name": "OwnableInvalidOwner",
					"type": "error"
				},
				{
					"inputs": [
						{
							"internalType": "address",
							"name": "account",
							"type": "address"
						}
					],
					"name": "OwnableUnauthorizedAccount",
					"type": "error"
				},
				{
					"anonymous": false,
					"inputs": [
						{
							"indexed": true,
							"internalType": "uint256",
							"name": "loanId",
							"type": "uint256"
						},
						{
							"indexed": false,
							"internalType": "uint256",
							"name": "amount",
							"type": "uint256"
						}
					],
					"name": "CollateralAdded",
					"type": "event"
				},
				{
					"anonymous": false,
					"inputs": [
						{
							"indexed": false,
							"internalType": "uint256",
							"name": "newRate",
							"type": "uint256"
						}
					],
					"name": "InterestRateUpdated",
					"type": "event"
				},
				{
					"anonymous": false,
					"inputs": [
						{
							"indexed": true,
							"internalType": "uint256",
							"name": "loanId",
							"type": "uint256"
						},
						{
							"indexed": true,
							"internalType": "address",
							"name": "borrower",
							"type": "address"
						},
						{
							"indexed": false,
							"internalType": "uint256",
							"name": "collateralAmount",
							"type": "uint256"
						},
						{
							"indexed": false,
							"internalType": "uint256",
							"name": "borrowedAmount",
							"type": "uint256"
						}
					],
					"name": "LoanCreated",
					"type": "event"
				},
				{
					"anonymous": false,
					"inputs": [
						{
							"indexed": true,
							"internalType": "uint256",
							"name": "loanId",
							"type": "uint256"
						},
						{
							"indexed": true,
							"internalType": "address",
							"name": "liquidator",
							"type": "address"
						},
						{
							"indexed": false,
							"internalType": "uint256",
							"name": "collateralSeized",
							"type": "uint256"
						},
						{
							"indexed": false,
							"internalType": "uint256",
							"name": "penalty",
							"type": "uint256"
						}
					],
					"name": "LoanLiquidated",
					"type": "event"
				},
				{
					"anonymous": false,
					"inputs": [
						{
							"indexed": true,
							"internalType": "uint256",
							"name": "loanId",
							"type": "uint256"
						},
						{
							"indexed": true,
							"internalType": "address",
							"name": "borrower",
							"type": "address"
						},
						{
							"indexed": false,
							"internalType": "uint256",
							"name": "totalRepaid",
							"type": "uint256"
						},
						{
							"indexed": false,
							"internalType": "uint256",
							"name": "interestPaid",
							"type": "uint256"
						}
					],
					"name": "LoanRepaid",
					"type": "event"
				},
				{
					"anonymous": false,
					"inputs": [
						{
							"indexed": true,
							"internalType": "address",
							"name": "previousOwner",
							"type": "address"
						},
						{
							"indexed": true,
							"internalType": "address",
							"name": "newOwner",
							"type": "address"
						}
					],
					"name": "OwnershipTransferred",
					"type": "event"
				},
				{
					"anonymous": false,
					"inputs": [
						{
							"indexed": false,
							"internalType": "address",
							"name": "account",
							"type": "address"
						}
					],
					"name": "Paused",
					"type": "event"
				},
				{
					"anonymous": false,
					"inputs": [
						{
							"indexed": false,
							"internalType": "address",
							"name": "account",
							"type": "address"
						}
					],
					"name": "Unpaused",
					"type": "event"
				},
				{
					"inputs": [],
					"name": "BASIS_POINTS",
					"outputs": [
						{
							"internalType": "uint256",
							"name": "",
							"type": "uint256"
						}
					],
					"stateMutability": "view",
					"type": "function"
				},
				{
					"inputs": [],
					"name": "COLLATERAL_RATIO",
					"outputs": [
						{
							"internalType": "uint256",
							"name": "",
							"type": "uint256"
						}
					],
					"stateMutability": "view",
					"type": "function"
				},
				{
					"inputs": [],
					"name": "LIQUIDATION_PENALTY",
					"outputs": [
						{
							"internalType": "uint256",
							"name": "",
							"type": "uint256"
						}
					],
					"stateMutability": "view",
					"type": "function"
				},
				{
					"inputs": [],
					"name": "LIQUIDATION_THRESHOLD",
					"outputs": [
						{
							"internalType": "uint256",
							"name": "",
							"type": "uint256"
						}
					],
					"stateMutability": "view",
					"type": "function"
				},
				{
					"inputs": [
						{
							"internalType": "uint256",
							"name": "loanId",
							"type": "uint256"
						},
						{
							"internalType": "uint256",
							"name": "amount",
							"type": "uint256"
						}
					],
					"name": "addCollateral",
					"outputs": [],
					"stateMutability": "nonpayable",
					"type": "function"
				},
				{
					"inputs": [],
					"name": "baseInterestRate",
					"outputs": [
						{
							"internalType": "uint256",
							"name": "",
							"type": "uint256"
						}
					],
					"stateMutability": "view",
					"type": "function"
				},
				{
					"inputs": [
						{
							"internalType": "uint256",
							"name": "collateralAmount",
							"type": "uint256"
						},
						{
							"internalType": "uint256",
							"name": "borrowAmount",
							"type": "uint256"
						}
					],
					"name": "borrow",
					"outputs": [
						{
							"internalType": "uint256",
							"name": "",
							"type": "uint256"
						}
					],
					"stateMutability": "nonpayable",
					"type": "function"
				},
				{
					"inputs": [
						{
							"internalType": "uint256",
							"name": "loanId",
							"type": "uint256"
						}
					],
					"name": "calculateInterest",
					"outputs": [
						{
							"internalType": "uint256",
							"name": "",
							"type": "uint256"
						}
					],
					"stateMutability": "view",
					"type": "function"
				},
				{
					"inputs": [
						{
							"internalType": "address",
							"name": "token",
							"type": "address"
						},
						{
							"internalType": "uint256",
							"name": "amount",
							"type": "uint256"
						}
					],
					"name": "emergencyWithdraw",
					"outputs": [],
					"stateMutability": "nonpayable",
					"type": "function"
				},
				{
					"inputs": [
						{
							"internalType": "uint256",
							"name": "loanId",
							"type": "uint256"
						}
					],
					"name": "getHealthFactor",
					"outputs": [
						{
							"internalType": "uint256",
							"name": "",
							"type": "uint256"
						}
					],
					"stateMutability": "view",
					"type": "function"
				},
				{
					"inputs": [
						{
							"internalType": "uint256",
							"name": "loanId",
							"type": "uint256"
						}
					],
					"name": "getLoanDetails",
					"outputs": [
						{
							"internalType": "address",
							"name": "borrower",
							"type": "address"
						},
						{
							"internalType": "uint256",
							"name": "collateralAmount",
							"type": "uint256"
						},
						{
							"internalType": "uint256",
							"name": "borrowedAmount",
							"type": "uint256"
						},
						{
							"internalType": "uint256",
							"name": "interestRate",
							"type": "uint256"
						},
						{
							"internalType": "uint256",
							"name": "healthFactor",
							"type": "uint256"
						},
						{
							"internalType": "uint256",
							"name": "accruedInterest",
							"type": "uint256"
						},
						{
							"internalType": "bool",
							"name": "isActive",
							"type": "bool"
						}
					],
					"stateMutability": "view",
					"type": "function"
				},
				{
					"inputs": [
						{
							"internalType": "uint256",
							"name": "collateralAmount",
							"type": "uint256"
						}
					],
					"name": "getMaxBorrowAmount",
					"outputs": [
						{
							"internalType": "uint256",
							"name": "",
							"type": "uint256"
						}
					],
					"stateMutability": "view",
					"type": "function"
				},
				{
					"inputs": [
						{
							"internalType": "address",
							"name": "user",
							"type": "address"
						}
					],
					"name": "getUserLoans",
					"outputs": [
						{
							"internalType": "uint256[]",
							"name": "",
							"type": "uint256[]"
						}
					],
					"stateMutability": "view",
					"type": "function"
				},
				{
					"inputs": [
						{
							"internalType": "uint256",
							"name": "loanId",
							"type": "uint256"
						}
					],
					"name": "liquidate",
					"outputs": [],
					"stateMutability": "nonpayable",
					"type": "function"
				},
				{
					"inputs": [],
					"name": "loanIdCounter",
					"outputs": [
						{
							"internalType": "uint256",
							"name": "",
							"type": "uint256"
						}
					],
					"stateMutability": "view",
					"type": "function"
				},
				{
					"inputs": [
						{
							"internalType": "uint256",
							"name": "",
							"type": "uint256"
						}
					],
					"name": "loans",
					"outputs": [
						{
							"internalType": "uint256",
							"name": "loanId",
							"type": "uint256"
						},
						{
							"internalType": "address",
							"name": "borrower",
							"type": "address"
						},
						{
							"internalType": "uint256",
							"name": "collateralAmount",
							"type": "uint256"
						},
						{
							"internalType": "uint256",
							"name": "borrowedAmount",
							"type": "uint256"
						},
						{
							"internalType": "uint256",
							"name": "interestRate",
							"type": "uint256"
						},
						{
							"internalType": "uint256",
							"name": "timestamp",
							"type": "uint256"
						},
						{
							"internalType": "uint256",
							"name": "lastInterestUpdate",
							"type": "uint256"
						},
						{
							"internalType": "bool",
							"name": "isActive",
							"type": "bool"
						}
					],
					"stateMutability": "view",
					"type": "function"
				},
				{
					"inputs": [],
					"name": "owner",
					"outputs": [
						{
							"internalType": "address",
							"name": "",
							"type": "address"
						}
					],
					"stateMutability": "view",
					"type": "function"
				},
				{
					"inputs": [],
					"name": "pause",
					"outputs": [],
					"stateMutability": "nonpayable",
					"type": "function"
				},
				{
					"inputs": [],
					"name": "paused",
					"outputs": [
						{
							"internalType": "bool",
							"name": "",
							"type": "bool"
						}
					],
					"stateMutability": "view",
					"type": "function"
				},
				{
					"inputs": [],
					"name": "priceOracle",
					"outputs": [
						{
							"internalType": "contract IPriceOracle",
							"name": "",
							"type": "address"
						}
					],
					"stateMutability": "view",
					"type": "function"
				},
				{
					"inputs": [],
					"name": "renounceOwnership",
					"outputs": [],
					"stateMutability": "nonpayable",
					"type": "function"
				},
				{
					"inputs": [
						{
							"internalType": "uint256",
							"name": "loanId",
							"type": "uint256"
						}
					],
					"name": "repay",
					"outputs": [],
					"stateMutability": "nonpayable",
					"type": "function"
				},
				{
					"inputs": [
						{
							"internalType": "uint256",
							"name": "newRate",
							"type": "uint256"
						}
					],
					"name": "setInterestRate",
					"outputs": [],
					"stateMutability": "nonpayable",
					"type": "function"
				},
				{
					"inputs": [],
					"name": "stablecoin",
					"outputs": [
						{
							"internalType": "contract IERC20",
							"name": "",
							"type": "address"
						}
					],
					"stateMutability": "view",
					"type": "function"
				},
				{
					"inputs": [],
					"name": "totalBorrowed",
					"outputs": [
						{
							"internalType": "uint256",
							"name": "",
							"type": "uint256"
						}
					],
					"stateMutability": "view",
					"type": "function"
				},
				{
					"inputs": [],
					"name": "totalCollateral",
					"outputs": [
						{
							"internalType": "uint256",
							"name": "",
							"type": "uint256"
						}
					],
					"stateMutability": "view",
					"type": "function"
				},
				{
					"inputs": [
						{
							"internalType": "address",
							"name": "newOwner",
							"type": "address"
						}
					],
					"name": "transferOwnership",
					"outputs": [],
					"stateMutability": "nonpayable",
					"type": "function"
				},
				{
					"inputs": [],
					"name": "unpause",
					"outputs": [],
					"stateMutability": "nonpayable",
					"type": "function"
				},
				{
					"inputs": [
						{
							"internalType": "address",
							"name": "",
							"type": "address"
						},
						{
							"internalType": "uint256",
							"name": "",
							"type": "uint256"
						}
					],
					"name": "userLoans",
					"outputs": [
						{
							"internalType": "uint256",
							"name": "",
							"type": "uint256"
						}
					],
					"stateMutability": "view",
					"type": "function"
				},
				{
					"inputs": [],
					"name": "vaultBTC",
					"outputs": [
						{
							"internalType": "contract IERC20",
							"name": "",
							"type": "address"
						}
					],
					"stateMutability": "view",
					"type": "function"
				}
			],
			"devdoc": {
				"errors": {
					"OwnableInvalidOwner(address)": [
						{
							"details": "The owner is not a valid owner account. (eg. `address(0)`)"
						}
					],
					"OwnableUnauthorizedAccount(address)": [
						{
							"details": "The caller account is not authorized to perform an operation."
						}
					]
				},
				"events": {
					"Paused(address)": {
						"details": "Emitted when the pause is triggered by `account`."
					},
					"Unpaused(address)": {
						"details": "Emitted when the pause is lifted by `account`."
					}
				},
				"kind": "dev",
				"methods": {
					"owner()": {
						"details": "Returns the address of the current owner."
					},
					"paused()": {
						"details": "Returns true if the contract is paused, and false otherwise."
					},
					"renounceOwnership()": {
						"details": "Leaves the contract without owner. It will not be possible to call `onlyOwner` functions. Can only be called by the current owner. NOTE: Renouncing ownership will leave the contract without an owner, thereby disabling any functionality that is only available to the owner."
					},
					"transferOwnership(address)": {
						"details": "Transfers ownership of the contract to a new account (`newOwner`). Can only be called by the current owner."
					}
				},
				"version": 1
			},
			"evm": {
				"assembly": "    /* \"contract/vaultswapcore.sol\":324:10204  contract VaultSwapCore is ReentrancyGuard, Ownable, Pausable {... */\n  mstore(0x40, 0x80)\n    /* \"contract/vaultswapcore.sol\":1098:1101  550 */\n  0x0226\n    /* \"contract/vaultswapcore.sol\":1064:1101  uint256 public baseInterestRate = 550 */\n  0x05\n  sstore\n    /* \"contract/vaultswapcore.sol\":1966:2427  constructor(... */\n  callvalue\n  dup1\n  iszero\n  tag_1\n  jumpi\n  revert(0x00, 0x00)\ntag_1:\n  pop\n  mload(0x40)\n  sub(codesize, bytecodeSize)\n  dup1\n  bytecodeSize\n  dup4\n  codecopy\n  dup2\n  dup2\n  add\n  0x40\n  mstore\n  dup2\n  add\n  swap1\n  tag_2\n  swap2\n  swap1\n  tag_3\n  jump\t// in\ntag_2:\n    /* \"contract/vaultswapcore.sol\":2078:2088  msg.sender */\n  caller\n    /* \"@openzeppelin/contracts/security/ReentrancyGuard.sol\":1716:1717  1 */\n  0x01\n    /* \"@openzeppelin/contracts/security/ReentrancyGuard.sol\":1821:1828  _status */\n  0x00\n    /* \"@openzeppelin/contracts/security/ReentrancyGuard.sol\":1821:1843  _status = _NOT_ENTERED */\n  dup2\n  swap1\n  sstore\n  pop\n    /* \"@openzeppelin/contracts/access/Ownable.sol\":1297:1298  0 */\n  0x00\n    /* \"@openzeppelin/contracts/access/Ownable.sol\":1273:1299  initialOwner == address(0) */\n  0xffffffffffffffffffffffffffffffffffffffff\n  and\n    /* \"@openzeppelin/contracts/access/Ownable.sol\":1273:1285  initialOwner */\n  dup2\n    /* \"@openzeppelin/contracts/access/Ownable.sol\":1273:1299  initialOwner == address(0) */\n  0xffffffffffffffffffffffffffffffffffffffff\n  and\n  sub\n    /* \"@openzeppelin/contracts/access/Ownable.sol\":1269:1364  if (initialOwner == address(0)) {... */\n  tag_10\n  jumpi\n    /* \"@openzeppelin/contracts/access/Ownable.sol\":1350:1351  0 */\n  0x00\n    /* \"@openzeppelin/contracts/access/Ownable.sol\":1322:1353  OwnableInvalidOwner(address(0)) */\n  mload(0x40)\n  0x1e4fbdf700000000000000000000000000000000000000000000000000000000\n  dup2\n  mstore\n  0x04\n  add\n  tag_11\n  swap2\n  swap1\n  tag_12\n  jump\t// in\ntag_11:\n  mload(0x40)\n  dup1\n  swap2\n  sub\n  swap1\n  revert\n    /* \"@openzeppelin/contracts/access/Ownable.sol\":1269:1364  if (initialOwner == address(0)) {... */\ntag_10:\n    /* \"@openzeppelin/contracts/access/Ownable.sol\":1373:1405  _transferOwnership(initialOwner) */\n  tag_13\n    /* \"@openzeppelin/contracts/access/Ownable.sol\":1392:1404  initialOwner */\n  dup2\n    /* \"@openzeppelin/contracts/access/Ownable.sol\":1373:1391  _transferOwnership */\n  shl(0x20, tag_14)\n    /* \"@openzeppelin/contracts/access/Ownable.sol\":1373:1405  _transferOwnership(initialOwner) */\n  0x20\n  shr\n  jump\t// in\ntag_13:\n    /* \"@openzeppelin/contracts/access/Ownable.sol\":1225:1412  constructor(address initialOwner) {... */\n  pop\n    /* \"@openzeppelin/contracts/security/Pausable.sol\":1006:1011  false */\n  0x00\n    /* \"@openzeppelin/contracts/security/Pausable.sol\":996:1003  _paused */\n  0x01\n  0x14\n    /* \"@openzeppelin/contracts/security/Pausable.sol\":996:1011  _paused = false */\n  0x0100\n  exp\n  dup2\n  sload\n  dup2\n  0xff\n  mul\n  not\n  and\n  swap1\n  dup4\n  iszero\n  iszero\n  mul\n  or\n  swap1\n  sstore\n  pop\n    /* \"contract/vaultswapcore.sol\":2129:2130  0 */\n  0x00\n    /* \"contract/vaultswapcore.sol\":2108:2131  _vaultBTC != address(0) */\n  0xffffffffffffffffffffffffffffffffffffffff\n  and\n    /* \"contract/vaultswapcore.sol\":2108:2117  _vaultBTC */\n  dup4\n    /* \"contract/vaultswapcore.sol\":2108:2131  _vaultBTC != address(0) */\n  0xffffffffffffffffffffffffffffffffffffffff\n  and\n  sub\n    /* \"contract/vaultswapcore.sol\":2100:2152  require(_vaultBTC != address(0), \"Invalid vaultBTC\") */\n  tag_17\n  jumpi\n  mload(0x40)\n  0x08c379a000000000000000000000000000000000000000000000000000000000\n  dup2\n  mstore\n  0x04\n  add\n  tag_18\n  swap1\n  tag_19\n  jump\t// in\ntag_18:\n  mload(0x40)\n  dup1\n  swap2\n  sub\n  swap1\n  revert\ntag_17:\n    /* \"contract/vaultswapcore.sol\":2193:2194  0 */\n  0x00\n    /* \"contract/vaultswapcore.sol\":2170:2195  _stablecoin != address(0) */\n  0xffffffffffffffffffffffffffffffffffffffff\n  and\n    /* \"contract/vaultswapcore.sol\":2170:2181  _stablecoin */\n  dup3\n    /* \"contract/vaultswapcore.sol\":2170:2195  _stablecoin != address(0) */\n  0xffffffffffffffffffffffffffffffffffffffff\n  and\n  sub\n    /* \"contract/vaultswapcore.sol\":2162:2218  require(_stablecoin != address(0), \"Invalid stablecoin\") */\n  tag_20\n  jumpi\n  mload(0x40)\n  0x08c379a000000000000000000000000000000000000000000000000000000000\n  dup2\n  mstore\n  0x04\n  add\n  tag_21\n  swap1\n  tag_22\n  jump\t// in\ntag_21:\n  mload(0x40)\n  dup1\n  swap2\n  sub\n  swap1\n  revert\ntag_20:\n    /* \"contract/vaultswapcore.sol\":2260:2261  0 */\n  0x00\n    /* \"contract/vaultswapcore.sol\":2236:2262  _priceOracle != address(0) */\n  0xffffffffffffffffffffffffffffffffffffffff\n  and\n    /* \"contract/vaultswapcore.sol\":2236:2248  _priceOracle */\n  dup2\n    /* \"contract/vaultswapcore.sol\":2236:2262  _priceOracle != address(0) */\n  0xffffffffffffffffffffffffffffffffffffffff\n  and\n  sub\n    /* \"contract/vaultswapcore.sol\":2228:2281  require(_priceOracle != address(0), \"Invalid oracle\") */\n  tag_23\n  jumpi\n  mload(0x40)\n  0x08c379a000000000000000000000000000000000000000000000000000000000\n  dup2\n  mstore\n  0x04\n  add\n  tag_24\n  swap1\n  tag_25\n  jump\t// in\ntag_24:\n  mload(0x40)\n  dup1\n  swap2\n  sub\n  swap1\n  revert\ntag_23:\n    /* \"contract/vaultswapcore.sol\":2318:2327  _vaultBTC */\n  dup3\n    /* \"contract/vaultswapcore.sol\":2300:2308  vaultBTC */\n  0x02\n  0x00\n    /* \"contract/vaultswapcore.sol\":2300:2328  vaultBTC = IERC20(_vaultBTC) */\n  0x0100\n  exp\n  dup2\n  sload\n  dup2\n  0xffffffffffffffffffffffffffffffffffffffff\n  mul\n  not\n  and\n  swap1\n  dup4\n  0xffffffffffffffffffffffffffffffffffffffff\n  and\n  mul\n  or\n  swap1\n  sstore\n  pop\n    /* \"contract/vaultswapcore.sol\":2358:2369  _stablecoin */\n  dup2\n    /* \"contract/vaultswapcore.sol\":2338:2348  stablecoin */\n  0x03\n  0x00\n    /* \"contract/vaultswapcore.sol\":2338:2370  stablecoin = IERC20(_stablecoin) */\n  0x0100\n  exp\n  dup2\n  sload\n  dup2\n  0xffffffffffffffffffffffffffffffffffffffff\n  mul\n  not\n  and\n  swap1\n  dup4\n  0xffffffffffffffffffffffffffffffffffffffff\n  and\n  mul\n  or\n  swap1\n  sstore\n  pop\n    /* \"contract/vaultswapcore.sol\":2407:2419  _priceOracle */\n  dup1\n    /* \"contract/vaultswapcore.sol\":2380:2391  priceOracle */\n  0x04\n  0x00\n    /* \"contract/vaultswapcore.sol\":2380:2420  priceOracle = IPriceOracle(_priceOracle) */\n  0x0100\n  exp\n  dup2\n  sload\n  dup2\n  0xffffffffffffffffffffffffffffffffffffffff\n  mul\n  not\n  and\n  swap1\n  dup4\n  0xffffffffffffffffffffffffffffffffffffffff\n  and\n  mul\n  or\n  swap1\n  sstore\n  pop\n    /* \"contract/vaultswapcore.sol\":1966:2427  constructor(... */\n  pop\n  pop\n  pop\n    /* \"contract/vaultswapcore.sol\":324:10204  contract VaultSwapCore is ReentrancyGuard, Ownable, Pausable {... */\n  jump(tag_26)\n    /* \"@openzeppelin/contracts/access/Ownable.sol\":2912:3099  function _transferOwnership(address newOwner) internal virtual {... */\ntag_14:\n    /* \"@openzeppelin/contracts/access/Ownable.sol\":2985:3001  address oldOwner */\n  0x00\n    /* \"@openzeppelin/contracts/access/Ownable.sol\":3004:3010  _owner */\n  0x01\n  0x00\n  swap1\n  sload\n  swap1\n  0x0100\n  exp\n  swap1\n  div\n  0xffffffffffffffffffffffffffffffffffffffff\n  and\n    /* \"@openzeppelin/contracts/access/Ownable.sol\":2985:3010  address oldOwner = _owner */\n  swap1\n  pop\n    /* \"@openzeppelin/contracts/access/Ownable.sol\":3029:3037  newOwner */\n  dup2\n    /* \"@openzeppelin/contracts/access/Ownable.sol\":3020:3026  _owner */\n  0x01\n  0x00\n    /* \"@openzeppelin/contracts/access/Ownable.sol\":3020:3037  _owner = newOwner */\n  0x0100\n  exp\n  dup2\n  sload\n  dup2\n  0xffffffffffffffffffffffffffffffffffffffff\n  mul\n  not\n  and\n  swap1\n  dup4\n  0xffffffffffffffffffffffffffffffffffffffff\n  and\n  mul\n  or\n  swap1\n  sstore\n  pop\n    /* \"@openzeppelin/contracts/access/Ownable.sol\":3083:3091  newOwner */\n  dup2\n    /* \"@openzeppelin/contracts/access/Ownable.sol\":3052:3092  OwnershipTransferred(oldOwner, newOwner) */\n  0xffffffffffffffffffffffffffffffffffffffff\n  and\n    /* \"@openzeppelin/contracts/access/Ownable.sol\":3073:3081  oldOwner */\n  dup2\n    /* \"@openzeppelin/contracts/access/Ownable.sol\":3052:3092  OwnershipTransferred(oldOwner, newOwner) */\n  0xffffffffffffffffffffffffffffffffffffffff\n  and\n  0x8be0079c531659141344cd1fd0a4f28419497f9722a3daafe3b4186f6b6457e0\n  mload(0x40)\n  mload(0x40)\n  dup1\n  swap2\n  sub\n  swap1\n  log3\n    /* \"@openzeppelin/contracts/access/Ownable.sol\":2975:3099  {... */\n  pop\n    /* \"@openzeppelin/contracts/access/Ownable.sol\":2912:3099  function _transferOwnership(address newOwner) internal virtual {... */\n  pop\n  jump\t// out\n    /* \"#utility.yul\":88:205   */\ntag_29:\n    /* \"#utility.yul\":197:198   */\n  0x00\n    /* \"#utility.yul\":194:195   */\n  0x00\n    /* \"#utility.yul\":187:199   */\n  revert\n    /* \"#utility.yul\":334:460   */\ntag_31:\n    /* \"#utility.yul\":371:378   */\n  0x00\n    /* \"#utility.yul\":411:453   */\n  0xffffffffffffffffffffffffffffffffffffffff\n    /* \"#utility.yul\":404:409   */\n  dup3\n    /* \"#utility.yul\":400:454   */\n  and\n    /* \"#utility.yul\":389:454   */\n  swap1\n  pop\n    /* \"#utility.yul\":334:460   */\n  swap2\n  swap1\n  pop\n  jump\t// out\n    /* \"#utility.yul\":466:562   */\ntag_32:\n    /* \"#utility.yul\":503:510   */\n  0x00\n    /* \"#utility.yul\":532:556   */\n  tag_49\n    /* \"#utility.yul\":550:555   */\n  dup3\n    /* \"#utility.yul\":532:556   */\n  tag_31\n  jump\t// in\ntag_49:\n    /* \"#utility.yul\":521:556   */\n  swap1\n  pop\n    /* \"#utility.yul\":466:562   */\n  swap2\n  swap1\n  pop\n  jump\t// out\n    /* \"#utility.yul\":568:690   */\ntag_33:\n    /* \"#utility.yul\":641:665   */\n  tag_51\n    /* \"#utility.yul\":659:664   */\n  dup2\n    /* \"#utility.yul\":641:665   */\n  tag_32\n  jump\t// in\ntag_51:\n    /* \"#utility.yul\":634:639   */\n  dup2\n    /* \"#utility.yul\":631:666   */\n  eq\n    /* \"#utility.yul\":621:684   */\n  tag_52\n  jumpi\n    /* \"#utility.yul\":680:681   */\n  0x00\n    /* \"#utility.yul\":677:678   */\n  0x00\n    /* \"#utility.yul\":670:682   */\n  revert\n    /* \"#utility.yul\":621:684   */\ntag_52:\n    /* \"#utility.yul\":568:690   */\n  pop\n  jump\t// out\n    /* \"#utility.yul\":696:839   */\ntag_34:\n    /* \"#utility.yul\":753:758   */\n  0x00\n    /* \"#utility.yul\":784:790   */\n  dup2\n    /* \"#utility.yul\":778:791   */\n  mload\n    /* \"#utility.yul\":769:791   */\n  swap1\n  pop\n    /* \"#utility.yul\":800:833   */\n  tag_54\n    /* \"#utility.yul\":827:832   */\n  dup2\n    /* \"#utility.yul\":800:833   */\n  tag_33\n  jump\t// in\ntag_54:\n    /* \"#utility.yul\":696:839   */\n  swap3\n  swap2\n  pop\n  pop\n  jump\t// out\n    /* \"#utility.yul\":845:1508   */\ntag_3:\n    /* \"#utility.yul\":933:939   */\n  0x00\n    /* \"#utility.yul\":941:947   */\n  0x00\n    /* \"#utility.yul\":949:955   */\n  0x00\n    /* \"#utility.yul\":998:1000   */\n  0x60\n    /* \"#utility.yul\":986:995   */\n  dup5\n    /* \"#utility.yul\":977:984   */\n  dup7\n    /* \"#utility.yul\":973:996   */\n  sub\n    /* \"#utility.yul\":969:1001   */\n  slt\n    /* \"#utility.yul\":966:1085   */\n  iszero\n  tag_56\n  jumpi\n    /* \"#utility.yul\":1004:1083   */\n  tag_57\n  tag_29\n  jump\t// in\ntag_57:\n    /* \"#utility.yul\":966:1085   */\ntag_56:\n    /* \"#utility.yul\":1124:1125   */\n  0x00\n    /* \"#utility.yul\":1149:1213   */\n  tag_58\n    /* \"#utility.yul\":1205:1212   */\n  dup7\n    /* \"#utility.yul\":1196:1202   */\n  dup3\n    /* \"#utility.yul\":1185:1194   */\n  dup8\n    /* \"#utility.yul\":1181:1203   */\n  add\n    /* \"#utility.yul\":1149:1213   */\n  tag_34\n  jump\t// in\ntag_58:\n    /* \"#utility.yul\":1139:1213   */\n  swap4\n  pop\n    /* \"#utility.yul\":1095:1223   */\n  pop\n    /* \"#utility.yul\":1262:1264   */\n  0x20\n    /* \"#utility.yul\":1288:1352   */\n  tag_59\n    /* \"#utility.yul\":1344:1351   */\n  dup7\n    /* \"#utility.yul\":1335:1341   */\n  dup3\n    /* \"#utility.yul\":1324:1333   */\n  dup8\n    /* \"#utility.yul\":1320:1342   */\n  add\n    /* \"#utility.yul\":1288:1352   */\n  tag_34\n  jump\t// in\ntag_59:\n    /* \"#utility.yul\":1278:1352   */\n  swap3\n  pop\n    /* \"#utility.yul\":1233:1362   */\n  pop\n    /* \"#utility.yul\":1401:1403   */\n  0x40\n    /* \"#utility.yul\":1427:1491   */\n  tag_60\n    /* \"#utility.yul\":1483:1490   */\n  dup7\n    /* \"#utility.yul\":1474:1480   */\n  dup3\n    /* \"#utility.yul\":1463:1472   */\n  dup8\n    /* \"#utility.yul\":1459:1481   */\n  add\n    /* \"#utility.yul\":1427:1491   */\n  tag_34\n  jump\t// in\ntag_60:\n    /* \"#utility.yul\":1417:1491   */\n  swap2\n  pop\n    /* \"#utility.yul\":1372:1501   */\n  pop\n    /* \"#utility.yul\":845:1508   */\n  swap3\n  pop\n  swap3\n  pop\n  swap3\n  jump\t// out\n    /* \"#utility.yul\":1514:1632   */\ntag_35:\n    /* \"#utility.yul\":1601:1625   */\n  tag_62\n    /* \"#utility.yul\":1619:1624   */\n  dup2\n    /* \"#utility.yul\":1601:1625   */\n  tag_32\n  jump\t// in\ntag_62:\n    /* \"#utility.yul\":1596:1599   */\n  dup3\n    /* \"#utility.yul\":1589:1626   */\n  mstore\n    /* \"#utility.yul\":1514:1632   */\n  pop\n  pop\n  jump\t// out\n    /* \"#utility.yul\":1638:1860   */\ntag_12:\n    /* \"#utility.yul\":1731:1735   */\n  0x00\n    /* \"#utility.yul\":1769:1771   */\n  0x20\n    /* \"#utility.yul\":1758:1767   */\n  dup3\n    /* \"#utility.yul\":1754:1772   */\n  add\n    /* \"#utility.yul\":1746:1772   */\n  swap1\n  pop\n    /* \"#utility.yul\":1782:1853   */\n  tag_64\n    /* \"#utility.yul\":1850:1851   */\n  0x00\n    /* \"#utility.yul\":1839:1848   */\n  dup4\n    /* \"#utility.yul\":1835:1852   */\n  add\n    /* \"#utility.yul\":1826:1832   */\n  dup5\n    /* \"#utility.yul\":1782:1853   */\n  tag_35\n  jump\t// in\ntag_64:\n    /* \"#utility.yul\":1638:1860   */\n  swap3\n  swap2\n  pop\n  pop\n  jump\t// out\n    /* \"#utility.yul\":1866:2035   */\ntag_36:\n    /* \"#utility.yul\":1950:1961   */\n  0x00\n    /* \"#utility.yul\":1984:1990   */\n  dup3\n    /* \"#utility.yul\":1979:1982   */\n  dup3\n    /* \"#utility.yul\":1972:1991   */\n  mstore\n    /* \"#utility.yul\":2024:2028   */\n  0x20\n    /* \"#utility.yul\":2019:2022   */\n  dup3\n    /* \"#utility.yul\":2015:2029   */\n  add\n    /* \"#utility.yul\":2000:2029   */\n  swap1\n  pop\n    /* \"#utility.yul\":1866:2035   */\n  swap3\n  swap2\n  pop\n  pop\n  jump\t// out\n    /* \"#utility.yul\":2041:2207   */\ntag_37:\n    /* \"#utility.yul\":2181:2199   */\n  0x496e76616c6964207661756c7442544300000000000000000000000000000000\n    /* \"#utility.yul\":2177:2178   */\n  0x00\n    /* \"#utility.yul\":2169:2175   */\n  dup3\n    /* \"#utility.yul\":2165:2179   */\n  add\n    /* \"#utility.yul\":2158:2200   */\n  mstore\n    /* \"#utility.yul\":2041:2207   */\n  pop\n  jump\t// out\n    /* \"#utility.yul\":2213:2579   */\ntag_38:\n    /* \"#utility.yul\":2355:2358   */\n  0x00\n    /* \"#utility.yul\":2376:2443   */\n  tag_68\n    /* \"#utility.yul\":2440:2442   */\n  0x10\n    /* \"#utility.yul\":2435:2438   */\n  dup4\n    /* \"#utility.yul\":2376:2443   */\n  tag_36\n  jump\t// in\ntag_68:\n    /* \"#utility.yul\":2369:2443   */\n  swap2\n  pop\n    /* \"#utility.yul\":2452:2545   */\n  tag_69\n    /* \"#utility.yul\":2541:2544   */\n  dup3\n    /* \"#utility.yul\":2452:2545   */\n  tag_37\n  jump\t// in\ntag_69:\n    /* \"#utility.yul\":2570:2572   */\n  0x20\n    /* \"#utility.yul\":2565:2568   */\n  dup3\n    /* \"#utility.yul\":2561:2573   */\n  add\n    /* \"#utility.yul\":2554:2573   */\n  swap1\n  pop\n    /* \"#utility.yul\":2213:2579   */\n  swap2\n  swap1\n  pop\n  jump\t// out\n    /* \"#utility.yul\":2585:3004   */\ntag_19:\n    /* \"#utility.yul\":2751:2755   */\n  0x00\n    /* \"#utility.yul\":2789:2791   */\n  0x20\n    /* \"#utility.yul\":2778:2787   */\n  dup3\n    /* \"#utility.yul\":2774:2792   */\n  add\n    /* \"#utility.yul\":2766:2792   */\n  swap1\n  pop\n    /* \"#utility.yul\":2838:2847   */\n  dup2\n    /* \"#utility.yul\":2832:2836   */\n  dup2\n    /* \"#utility.yul\":2828:2848   */\n  sub\n    /* \"#utility.yul\":2824:2825   */\n  0x00\n    /* \"#utility.yul\":2813:2822   */\n  dup4\n    /* \"#utility.yul\":2809:2826   */\n  add\n    /* \"#utility.yul\":2802:2849   */\n  mstore\n    /* \"#utility.yul\":2866:2997   */\n  tag_71\n    /* \"#utility.yul\":2992:2996   */\n  dup2\n    /* \"#utility.yul\":2866:2997   */\n  tag_38\n  jump\t// in\ntag_71:\n    /* \"#utility.yul\":2858:2997   */\n  swap1\n  pop\n    /* \"#utility.yul\":2585:3004   */\n  swap2\n  swap1\n  pop\n  jump\t// out\n    /* \"#utility.yul\":3010:3178   */\ntag_39:\n    /* \"#utility.yul\":3150:3170   */\n  0x496e76616c696420737461626c65636f696e0000000000000000000000000000\n    /* \"#utility.yul\":3146:3147   */\n  0x00\n    /* \"#utility.yul\":3138:3144   */\n  dup3\n    /* \"#utility.yul\":3134:3148   */\n  add\n    /* \"#utility.yul\":3127:3171   */\n  mstore\n    /* \"#utility.yul\":3010:3178   */\n  pop\n  jump\t// out\n    /* \"#utility.yul\":3184:3550   */\ntag_40:\n    /* \"#utility.yul\":3326:3329   */\n  0x00\n    /* \"#utility.yul\":3347:3414   */\n  tag_74\n    /* \"#utility.yul\":3411:3413   */\n  0x12\n    /* \"#utility.yul\":3406:3409   */\n  dup4\n    /* \"#utility.yul\":3347:3414   */\n  tag_36\n  jump\t// in\ntag_74:\n    /* \"#utility.yul\":3340:3414   */\n  swap2\n  pop\n    /* \"#utility.yul\":3423:3516   */\n  tag_75\n    /* \"#utility.yul\":3512:3515   */\n  dup3\n    /* \"#utility.yul\":3423:3516   */\n  tag_39\n  jump\t// in\ntag_75:\n    /* \"#utility.yul\":3541:3543   */\n  0x20\n    /* \"#utility.yul\":3536:3539   */\n  dup3\n    /* \"#utility.yul\":3532:3544   */\n  add\n    /* \"#utility.yul\":3525:3544   */\n  swap1\n  pop\n    /* \"#utility.yul\":3184:3550   */\n  swap2\n  swap1\n  pop\n  jump\t// out\n    /* \"#utility.yul\":3556:3975   */\ntag_22:\n    /* \"#utility.yul\":3722:3726   */\n  0x00\n    /* \"#utility.yul\":3760:3762   */\n  0x20\n    /* \"#utility.yul\":3749:3758   */\n  dup3\n    /* \"#utility.yul\":3745:3763   */\n  add\n    /* \"#utility.yul\":3737:3763   */\n  swap1\n  pop\n    /* \"#utility.yul\":3809:3818   */\n  dup2\n    /* \"#utility.yul\":3803:3807   */\n  dup2\n    /* \"#utility.yul\":3799:3819   */\n  sub\n    /* \"#utility.yul\":3795:3796   */\n  0x00\n    /* \"#utility.yul\":3784:3793   */\n  dup4\n    /* \"#utility.yul\":3780:3797   */\n  add\n    /* \"#utility.yul\":3773:3820   */\n  mstore\n    /* \"#utility.yul\":3837:3968   */\n  tag_77\n    /* \"#utility.yul\":3963:3967   */\n  dup2\n    /* \"#utility.yul\":3837:3968   */\n  tag_40\n  jump\t// in\ntag_77:\n    /* \"#utility.yul\":3829:3968   */\n  swap1\n  pop\n    /* \"#utility.yul\":3556:3975   */\n  swap2\n  swap1\n  pop\n  jump\t// out\n    /* \"#utility.yul\":3981:4145   */\ntag_41:\n    /* \"#utility.yul\":4121:4137   */\n  0x496e76616c6964206f7261636c65000000000000000000000000000000000000\n    /* \"#utility.yul\":4117:4118   */\n  0x00\n    /* \"#utility.yul\":4109:4115   */\n  dup3\n    /* \"#utility.yul\":4105:4119   */\n  add\n    /* \"#utility.yul\":4098:4138   */\n  mstore\n    /* \"#utility.yul\":3981:4145   */\n  pop\n  jump\t// out\n    /* \"#utility.yul\":4151:4517   */\ntag_42:\n    /* \"#utility.yul\":4293:4296   */\n  0x00\n    /* \"#utility.yul\":4314:4381   */\n  tag_80\n    /* \"#utility.yul\":4378:4380   */\n  0x0e\n    /* \"#utility.yul\":4373:4376   */\n  dup4\n    /* \"#utility.yul\":4314:4381   */\n  tag_36\n  jump\t// in\ntag_80:\n    /* \"#utility.yul\":4307:4381   */\n  swap2\n  pop\n    /* \"#utility.yul\":4390:4483   */\n  tag_81\n    /* \"#utility.yul\":4479:4482   */\n  dup3\n    /* \"#utility.yul\":4390:4483   */\n  tag_41\n  jump\t// in\ntag_81:\n    /* \"#utility.yul\":4508:4510   */\n  0x20\n    /* \"#utility.yul\":4503:4506   */\n  dup3\n    /* \"#utility.yul\":4499:4511   */\n  add\n    /* \"#utility.yul\":4492:4511   */\n  swap1\n  pop\n    /* \"#utility.yul\":4151:4517   */\n  swap2\n  swap1\n  pop\n  jump\t// out\n    /* \"#utility.yul\":4523:4942   */\ntag_25:\n    /* \"#utility.yul\":4689:4693   */\n  0x00\n    /* \"#utility.yul\":4727:4729   */\n  0x20\n    /* \"#utility.yul\":4716:4725   */\n  dup3\n    /* \"#utility.yul\":4712:4730   */\n  add\n    /* \"#utility.yul\":4704:4730   */\n  swap1\n  pop\n    /* \"#utility.yul\":4776:4785   */\n  dup2\n    /* \"#utility.yul\":4770:4774   */\n  dup2\n    /* \"#utility.yul\":4766:4786   */\n  sub\n    /* \"#utility.yul\":4762:4763   */\n  0x00\n    /* \"#utility.yul\":4751:4760   */\n  dup4\n    /* \"#utility.yul\":4747:4764   */\n  add\n    /* \"#utility.yul\":4740:4787   */\n  mstore\n    /* \"#utility.yul\":4804:4935   */\n  tag_83\n    /* \"#utility.yul\":4930:4934   */\n  dup2\n    /* \"#utility.yul\":4804:4935   */\n  tag_42\n  jump\t// in\ntag_83:\n    /* \"#utility.yul\":4796:4935   */\n  swap1\n  pop\n    /* \"#utility.yul\":4523:4942   */\n  swap2\n  swap1\n  pop\n  jump\t// out\n    /* \"contract/vaultswapcore.sol\":324:10204  contract VaultSwapCore is ReentrancyGuard, Ownable, Pausable {... */\ntag_26:\n  dataSize(sub_0)\n  dup1\n  dataOffset(sub_0)\n  0x00\n  codecopy\n  0x00\n  return\nstop\n\nsub_0: assembly {\n        /* \"contract/vaultswapcore.sol\":324:10204  contract VaultSwapCore is ReentrancyGuard, Ownable, Pausable {... */\n      mstore(0x40, 0x80)\n      callvalue\n      dup1\n      iszero\n      tag_1\n      jumpi\n      revert(0x00, 0x00)\n    tag_1:\n      pop\n      jumpi(tag_2, lt(calldatasize, 0x04))\n      shr(0xe0, calldataload(0x00))\n      dup1\n      0x8da5cb5b\n      gt\n      tag_33\n      jumpi\n      dup1\n      0xa8f35adf\n      gt\n      tag_34\n      jumpi\n      dup1\n      0xe1ec3c68\n      gt\n      tag_35\n      jumpi\n      dup1\n      0xe1ec3c68\n      eq\n      tag_29\n      jumpi\n      dup1\n      0xe1f1c4a7\n      eq\n      tag_30\n      jumpi\n      dup1\n      0xe9cbd822\n      eq\n      tag_31\n      jumpi\n      dup1\n      0xf2fde38b\n      eq\n      tag_32\n      jumpi\n      jump(tag_2)\n    tag_35:\n      dup1\n      0xa8f35adf\n      eq\n      tag_25\n      jumpi\n      dup1\n      0xafd92762\n      eq\n      tag_26\n      jumpi\n      dup1\n      0xd8bad5bd\n      eq\n      tag_27\n      jumpi\n      dup1\n      0xd9e69a05\n      eq\n      tag_28\n      jumpi\n      jump(tag_2)\n    tag_34:\n      dup1\n      0x95ccea67\n      gt\n      tag_36\n      jumpi\n      dup1\n      0x95ccea67\n      eq\n      tag_21\n      jumpi\n      dup1\n      0x9b8621d5\n      eq\n      tag_22\n      jumpi\n      dup1\n      0x9d939d16\n      eq\n      tag_23\n      jumpi\n      dup1\n      0xa57475e0\n      eq\n      tag_24\n      jumpi\n      jump(tag_2)\n    tag_36:\n      dup1\n      0x8da5cb5b\n      eq\n      tag_18\n      jumpi\n      dup1\n      0x902781a9\n      eq\n      tag_19\n      jumpi\n      dup1\n      0x90a8ae9b\n      eq\n      tag_20\n      jumpi\n      jump(tag_2)\n    tag_33:\n      dup1\n      0x4ac8eb5f\n      gt\n      tag_37\n      jumpi\n      dup1\n      0x61a4d4ef\n      gt\n      tag_38\n      jumpi\n      dup1\n      0x61a4d4ef\n      eq\n      tag_14\n      jumpi\n      dup1\n      0x66877b8d\n      eq\n      tag_15\n      jumpi\n      dup1\n      0x715018a6\n      eq\n      tag_16\n      jumpi\n      dup1\n      0x8456cb59\n      eq\n      tag_17\n      jumpi\n      jump(tag_2)\n    tag_38:\n      dup1\n      0x4ac8eb5f\n      eq\n      tag_10\n      jumpi\n      dup1\n      0x4c19386c\n      eq\n      tag_11\n      jumpi\n      dup1\n      0x5c975abb\n      eq\n      tag_12\n      jumpi\n      dup1\n      0x5f84f302\n      eq\n      tag_13\n      jumpi\n      jump(tag_2)\n    tag_37:\n      dup1\n      0x2630c12f\n      gt\n      tag_39\n      jumpi\n      dup1\n      0x2630c12f\n      eq\n      tag_6\n      jumpi\n      dup1\n      0x371fd8e6\n      eq\n      tag_7\n      jumpi\n      dup1\n      0x3f4ba83a\n      eq\n      tag_8\n      jumpi\n      dup1\n      0x415f1240\n      eq\n      tag_9\n      jumpi\n      jump(tag_2)\n    tag_39:\n      dup1\n      0x02bf321f\n      eq\n      tag_3\n      jumpi\n      dup1\n      0x0ecbcdab\n      eq\n      tag_4\n      jumpi\n      dup1\n      0x17845c69\n      eq\n      tag_5\n      jumpi\n    tag_2:\n      revert(0x00, 0x00)\n        /* \"contract/vaultswapcore.sol\":8826:8942  function getUserLoans(address user) external view returns (uint256[] memory) {... */\n    tag_3:\n      tag_40\n      0x04\n      dup1\n      calldatasize\n      sub\n      dup2\n      add\n      swap1\n      tag_41\n      swap2\n      swap1\n      tag_42\n      jump\t// in\n    tag_41:\n      tag_43\n      jump\t// in\n    tag_40:\n      mload(0x40)\n      tag_44\n      swap2\n      swap1\n      tag_45\n      jump\t// in\n    tag_44:\n      mload(0x40)\n      dup1\n      swap2\n      sub\n      swap1\n      return\n        /* \"contract/vaultswapcore.sol\":2568:4477  function borrow(... */\n    tag_4:\n      tag_46\n      0x04\n      dup1\n      calldatasize\n      sub\n      dup2\n      add\n      swap1\n      tag_47\n      swap2\n      swap1\n      tag_48\n      jump\t// in\n    tag_47:\n      tag_49\n      jump\t// in\n    tag_46:\n      mload(0x40)\n      tag_50\n      swap2\n      swap1\n      tag_51\n      jump\t// in\n    tag_50:\n      mload(0x40)\n      dup1\n      swap2\n      sub\n      swap1\n      return\n        /* \"contract/vaultswapcore.sol\":7567:8085  function getHealthFactor(uint256 loanId) public view returns (uint256) {... */\n    tag_5:\n      tag_52\n      0x04\n      dup1\n      calldatasize\n      sub\n      dup2\n      add\n      swap1\n      tag_53\n      swap2\n      swap1\n      tag_54\n      jump\t// in\n    tag_53:\n      tag_55\n      jump\t// in\n    tag_52:\n      mload(0x40)\n      tag_56\n      swap2\n      swap1\n      tag_51\n      jump\t// in\n    tag_56:\n      mload(0x40)\n      dup1\n      swap2\n      sub\n      swap1\n      return\n        /* \"contract/vaultswapcore.sol\":767:798  IPriceOracle public priceOracle */\n    tag_6:\n      tag_57\n      tag_58\n      jump\t// in\n    tag_57:\n      mload(0x40)\n      tag_59\n      swap2\n      swap1\n      tag_60\n      jump\t// in\n    tag_59:\n      mload(0x40)\n      dup1\n      swap2\n      sub\n      swap1\n      return\n        /* \"contract/vaultswapcore.sol\":4487:5512  function repay(uint256 loanId) external nonReentrant {... */\n    tag_7:\n      tag_61\n      0x04\n      dup1\n      calldatasize\n      sub\n      dup2\n      add\n      swap1\n      tag_62\n      swap2\n      swap1\n      tag_54\n      jump\t// in\n    tag_62:\n      tag_63\n      jump\t// in\n    tag_61:\n      stop\n        /* \"contract/vaultswapcore.sol\":9966:10031  function unpause() external onlyOwner {... */\n    tag_8:\n      tag_64\n      tag_65\n      jump\t// in\n    tag_64:\n      stop\n        /* \"contract/vaultswapcore.sol\":5522:6793  function liquidate(uint256 loanId) external nonReentrant {... */\n    tag_9:\n      tag_66\n      0x04\n      dup1\n      calldatasize\n      sub\n      dup2\n      add\n      swap1\n      tag_67\n      swap2\n      swap1\n      tag_54\n      jump\t// in\n    tag_67:\n      tag_68\n      jump\t// in\n    tag_66:\n      stop\n        /* \"contract/vaultswapcore.sol\":1169:1199  uint256 public totalCollateral */\n    tag_10:\n      tag_69\n      tag_70\n      jump\t// in\n    tag_69:\n      mload(0x40)\n      tag_71\n      swap2\n      swap1\n      tag_51\n      jump\t// in\n    tag_71:\n      mload(0x40)\n      dup1\n      swap2\n      sub\n      swap1\n      return\n        /* \"contract/vaultswapcore.sol\":1135:1163  uint256 public totalBorrowed */\n    tag_11:\n      tag_72\n      tag_73\n      jump\t// in\n    tag_72:\n      mload(0x40)\n      tag_74\n      swap2\n      swap1\n      tag_51\n      jump\t// in\n    tag_74:\n      mload(0x40)\n      dup1\n      swap2\n      sub\n      swap1\n      return\n        /* \"@openzeppelin/contracts/security/Pausable.sol\":1615:1699  function paused() public view virtual returns (bool) {... */\n    tag_12:\n      tag_75\n      tag_76\n      jump\t// in\n    tag_75:\n      mload(0x40)\n      tag_77\n      swap2\n      swap1\n      tag_78\n      jump\t// in\n    tag_77:\n      mload(0x40)\n      dup1\n      swap2\n      sub\n      swap1\n      return\n        /* \"contract/vaultswapcore.sol\":9676:9885  function setInterestRate(uint256 newRate) external onlyOwner {... */\n    tag_13:\n      tag_79\n      0x04\n      dup1\n      calldatasize\n      sub\n      dup2\n      add\n      swap1\n      tag_80\n      swap2\n      swap1\n      tag_54\n      jump\t// in\n    tag_80:\n      tag_81\n      jump\t// in\n    tag_79:\n      stop\n        /* \"contract/vaultswapcore.sol\":8542:8816  function getMaxBorrowAmount(uint256 collateralAmount) public view returns (uint256) {... */\n    tag_14:\n      tag_82\n      0x04\n      dup1\n      calldatasize\n      sub\n      dup2\n      add\n      swap1\n      tag_83\n      swap2\n      swap1\n      tag_54\n      jump\t// in\n    tag_83:\n      tag_84\n      jump\t// in\n    tag_82:\n      mload(0x40)\n      tag_85\n      swap2\n      swap1\n      tag_51\n      jump\t// in\n    tag_85:\n      mload(0x40)\n      dup1\n      swap2\n      sub\n      swap1\n      return\n        /* \"contract/vaultswapcore.sol\":8952:9534  function getLoanDetails(uint256 loanId) external view returns (... */\n    tag_15:\n      tag_86\n      0x04\n      dup1\n      calldatasize\n      sub\n      dup2\n      add\n      swap1\n      tag_87\n      swap2\n      swap1\n      tag_54\n      jump\t// in\n    tag_87:\n      tag_88\n      jump\t// in\n    tag_86:\n      mload(0x40)\n      tag_89\n      swap8\n      swap7\n      swap6\n      swap5\n      swap4\n      swap3\n      swap2\n      swap1\n      tag_90\n      jump\t// in\n    tag_89:\n      mload(0x40)\n      dup1\n      swap2\n      sub\n      swap1\n      return\n        /* \"@openzeppelin/contracts/access/Ownable.sol\":2293:2394  function renounceOwnership() public virtual onlyOwner {... */\n    tag_16:\n      tag_91\n      tag_92\n      jump\t// in\n    tag_91:\n      stop\n        /* \"contract/vaultswapcore.sol\":9895:9956  function pause() external onlyOwner {... */\n    tag_17:\n      tag_93\n      tag_94\n      jump\t// in\n    tag_93:\n      stop\n        /* \"@openzeppelin/contracts/access/Ownable.sol\":1638:1723  function owner() public view virtual returns (address) {... */\n    tag_18:\n      tag_95\n      tag_96\n      jump\t// in\n    tag_95:\n      mload(0x40)\n      tag_97\n      swap2\n      swap1\n      tag_98\n      jump\t// in\n    tag_97:\n      mload(0x40)\n      dup1\n      swap2\n      sub\n      swap1\n      return\n        /* \"contract/vaultswapcore.sol\":709:731  IERC20 public vaultBTC */\n    tag_19:\n      tag_99\n      tag_100\n      jump\t// in\n    tag_99:\n      mload(0x40)\n      tag_101\n      swap2\n      swap1\n      tag_102\n      jump\t// in\n    tag_101:\n      mload(0x40)\n      dup1\n      swap2\n      sub\n      swap1\n      return\n        /* \"contract/vaultswapcore.sol\":876:927  uint256 public constant LIQUIDATION_THRESHOLD = 120 */\n    tag_20:\n      tag_103\n      tag_104\n      jump\t// in\n    tag_103:\n      mload(0x40)\n      tag_105\n      swap2\n      swap1\n      tag_51\n      jump\t// in\n    tag_105:\n      mload(0x40)\n      dup1\n      swap2\n      sub\n      swap1\n      return\n        /* \"contract/vaultswapcore.sol\":10041:10202  function emergencyWithdraw(address token, uint256 amount) external onlyOwner {... */\n    tag_21:\n      tag_106\n      0x04\n      dup1\n      calldatasize\n      sub\n      dup2\n      add\n      swap1\n      tag_107\n      swap2\n      swap1\n      tag_108\n      jump\t// in\n    tag_107:\n      tag_109\n      jump\t// in\n    tag_106:\n      stop\n        /* \"contract/vaultswapcore.sol\":948:996  uint256 public constant LIQUIDATION_PENALTY = 10 */\n    tag_22:\n      tag_110\n      tag_111\n      jump\t// in\n    tag_110:\n      mload(0x40)\n      tag_112\n      swap2\n      swap1\n      tag_51\n      jump\t// in\n    tag_112:\n      mload(0x40)\n      dup1\n      swap2\n      sub\n      swap1\n      return\n        /* \"contract/vaultswapcore.sol\":1205:1233  uint256 public loanIdCounter */\n    tag_23:\n      tag_113\n      tag_114\n      jump\t// in\n    tag_113:\n      mload(0x40)\n      tag_115\n      swap2\n      swap1\n      tag_51\n      jump\t// in\n    tag_115:\n      mload(0x40)\n      dup1\n      swap2\n      sub\n      swap1\n      return\n        /* \"contract/vaultswapcore.sol\":8095:8532  function calculateInterest(uint256 loanId) public view returns (uint256) {... */\n    tag_24:\n      tag_116\n      0x04\n      dup1\n      calldatasize\n      sub\n      dup2\n      add\n      swap1\n      tag_117\n      swap2\n      swap1\n      tag_54\n      jump\t// in\n    tag_117:\n      tag_118\n      jump\t// in\n    tag_116:\n      mload(0x40)\n      tag_119\n      swap2\n      swap1\n      tag_51\n      jump\t// in\n    tag_119:\n      mload(0x40)\n      dup1\n      swap2\n      sub\n      swap1\n      return\n        /* \"contract/vaultswapcore.sol\":6803:7426  function addCollateral(uint256 loanId, uint256 amount) external nonReentrant {... */\n    tag_25:\n      tag_120\n      0x04\n      dup1\n      calldatasize\n      sub\n      dup2\n      add\n      swap1\n      tag_121\n      swap2\n      swap1\n      tag_48\n      jump\t// in\n    tag_121:\n      tag_122\n      jump\t// in\n    tag_120:\n      stop\n        /* \"contract/vaultswapcore.sol\":1064:1101  uint256 public baseInterestRate = 550 */\n    tag_26:\n      tag_123\n      tag_124\n      jump\t// in\n    tag_123:\n      mload(0x40)\n      tag_125\n      swap2\n      swap1\n      tag_51\n      jump\t// in\n    tag_125:\n      mload(0x40)\n      dup1\n      swap2\n      sub\n      swap1\n      return\n        /* \"contract/vaultswapcore.sol\":1287:1333  mapping(address => uint256[]) public userLoans */\n    tag_27:\n      tag_126\n      0x04\n      dup1\n      calldatasize\n      sub\n      dup2\n      add\n      swap1\n      tag_127\n      swap2\n      swap1\n      tag_108\n      jump\t// in\n    tag_127:\n      tag_128\n      jump\t// in\n    tag_126:\n      mload(0x40)\n      tag_129\n      swap2\n      swap1\n      tag_51\n      jump\t// in\n    tag_129:\n      mload(0x40)\n      dup1\n      swap2\n      sub\n      swap1\n      return\n        /* \"contract/vaultswapcore.sol\":809:855  uint256 public constant COLLATERAL_RATIO = 150 */\n    tag_28:\n      tag_130\n      tag_131\n      jump\t// in\n    tag_130:\n      mload(0x40)\n      tag_132\n      swap2\n      swap1\n      tag_51\n      jump\t// in\n    tag_132:\n      mload(0x40)\n      dup1\n      swap2\n      sub\n      swap1\n      return\n        /* \"contract/vaultswapcore.sol\":1244:1281  mapping(uint256 => Loan) public loans */\n    tag_29:\n      tag_133\n      0x04\n      dup1\n      calldatasize\n      sub\n      dup2\n      add\n      swap1\n      tag_134\n      swap2\n      swap1\n      tag_54\n      jump\t// in\n    tag_134:\n      tag_135\n      jump\t// in\n    tag_133:\n      mload(0x40)\n      tag_136\n      swap9\n      swap8\n      swap7\n      swap6\n      swap5\n      swap4\n      swap3\n      swap2\n      swap1\n      tag_137\n      jump\t// in\n    tag_136:\n      mload(0x40)\n      dup1\n      swap2\n      sub\n      swap1\n      return\n        /* \"contract/vaultswapcore.sol\":1009:1053  uint256 public constant BASIS_POINTS = 10000 */\n    tag_30:\n      tag_138\n      tag_139\n      jump\t// in\n    tag_138:\n      mload(0x40)\n      tag_140\n      swap2\n      swap1\n      tag_51\n      jump\t// in\n    tag_140:\n      mload(0x40)\n      dup1\n      swap2\n      sub\n      swap1\n      return\n        /* \"contract/vaultswapcore.sol\":737:761  IERC20 public stablecoin */\n    tag_31:\n      tag_141\n      tag_142\n      jump\t// in\n    tag_141:\n      mload(0x40)\n      tag_143\n      swap2\n      swap1\n      tag_102\n      jump\t// in\n    tag_143:\n      mload(0x40)\n      dup1\n      swap2\n      sub\n      swap1\n      return\n        /* \"@openzeppelin/contracts/access/Ownable.sol\":2543:2758  function transferOwnership(address newOwner) public virtual onlyOwner {... */\n    tag_32:\n      tag_144\n      0x04\n      dup1\n      calldatasize\n      sub\n      dup2\n      add\n      swap1\n      tag_145\n      swap2\n      swap1\n      tag_42\n      jump\t// in\n    tag_145:\n      tag_146\n      jump\t// in\n    tag_144:\n      stop\n        /* \"contract/vaultswapcore.sol\":8826:8942  function getUserLoans(address user) external view returns (uint256[] memory) {... */\n    tag_43:\n        /* \"contract/vaultswapcore.sol\":8885:8901  uint256[] memory */\n      0x60\n        /* \"contract/vaultswapcore.sol\":8920:8929  userLoans */\n      0x0a\n        /* \"contract/vaultswapcore.sol\":8920:8935  userLoans[user] */\n      0x00\n        /* \"contract/vaultswapcore.sol\":8930:8934  user */\n      dup4\n        /* \"contract/vaultswapcore.sol\":8920:8935  userLoans[user] */\n      0xffffffffffffffffffffffffffffffffffffffff\n      and\n      0xffffffffffffffffffffffffffffffffffffffff\n      and\n      dup2\n      mstore\n      0x20\n      add\n      swap1\n      dup2\n      mstore\n      0x20\n      add\n      0x00\n      keccak256\n        /* \"contract/vaultswapcore.sol\":8913:8935  return userLoans[user] */\n      dup1\n      sload\n      dup1\n      0x20\n      mul\n      0x20\n      add\n      mload(0x40)\n      swap1\n      dup2\n      add\n      0x40\n      mstore\n      dup1\n      swap3\n      swap2\n      swap1\n      dup2\n      dup2\n      mstore\n      0x20\n      add\n      dup3\n      dup1\n      sload\n      dup1\n      iszero\n      tag_148\n      jumpi\n      0x20\n      mul\n      dup3\n      add\n      swap2\n      swap1\n      0x00\n      mstore\n      keccak256(0x00, 0x20)\n      swap1\n    tag_149:\n      dup2\n      sload\n      dup2\n      mstore\n      0x20\n      add\n      swap1\n      0x01\n      add\n      swap1\n      dup1\n      dup4\n      gt\n      tag_149\n      jumpi\n    tag_148:\n      pop\n      pop\n      pop\n      pop\n      pop\n      swap1\n      pop\n        /* \"contract/vaultswapcore.sol\":8826:8942  function getUserLoans(address user) external view returns (uint256[] memory) {... */\n      swap2\n      swap1\n      pop\n      jump\t// out\n        /* \"contract/vaultswapcore.sol\":2568:4477  function borrow(... */\n    tag_49:\n        /* \"contract/vaultswapcore.sol\":2699:2706  uint256 */\n      0x00\n        /* \"@openzeppelin/contracts/security/ReentrancyGuard.sol\":2261:2282  _nonReentrantBefore() */\n      tag_151\n        /* \"@openzeppelin/contracts/security/ReentrancyGuard.sol\":2261:2280  _nonReentrantBefore */\n      tag_152\n        /* \"@openzeppelin/contracts/security/ReentrancyGuard.sol\":2261:2282  _nonReentrantBefore() */\n      jump\t// in\n    tag_151:\n        /* \"@openzeppelin/contracts/security/Pausable.sol\":1239:1258  _requireNotPaused() */\n      tag_154\n        /* \"@openzeppelin/contracts/security/Pausable.sol\":1239:1256  _requireNotPaused */\n      tag_155\n        /* \"@openzeppelin/contracts/security/Pausable.sol\":1239:1258  _requireNotPaused() */\n      jump\t// in\n    tag_154:\n        /* \"contract/vaultswapcore.sol\":2745:2746  0 */\n      0x00\n        /* \"contract/vaultswapcore.sol\":2726:2742  collateralAmount */\n      dup4\n        /* \"contract/vaultswapcore.sol\":2726:2746  collateralAmount > 0 */\n      gt\n        /* \"contract/vaultswapcore.sol\":2718:2773  require(collateralAmount > 0, \"Collateral must be > 0\") */\n      tag_157\n      jumpi\n      mload(0x40)\n      0x08c379a000000000000000000000000000000000000000000000000000000000\n      dup2\n      mstore\n      0x04\n      add\n      tag_158\n      swap1\n      tag_159\n      jump\t// in\n    tag_158:\n      mload(0x40)\n      dup1\n      swap2\n      sub\n      swap1\n      revert\n    tag_157:\n        /* \"contract/vaultswapcore.sol\":2806:2807  0 */\n      0x00\n        /* \"contract/vaultswapcore.sol\":2791:2803  borrowAmount */\n      dup3\n        /* \"contract/vaultswapcore.sol\":2791:2807  borrowAmount > 0 */\n      gt\n        /* \"contract/vaultswapcore.sol\":2783:2837  require(borrowAmount > 0, \"Borrow amount must be > 0\") */\n      tag_160\n      jumpi\n      mload(0x40)\n      0x08c379a000000000000000000000000000000000000000000000000000000000\n      dup2\n      mstore\n      0x04\n      add\n      tag_161\n      swap1\n      tag_162\n      jump\t// in\n    tag_161:\n      mload(0x40)\n      dup1\n      swap2\n      sub\n      swap1\n      revert\n    tag_160:\n        /* \"contract/vaultswapcore.sol\":2956:2972  collateralAmount */\n      dup3\n        /* \"contract/vaultswapcore.sol\":2922:2930  vaultBTC */\n      0x02\n      0x00\n      swap1\n      sload\n      swap1\n      0x0100\n      exp\n      swap1\n      div\n      0xffffffffffffffffffffffffffffffffffffffff\n      and\n        /* \"contract/vaultswapcore.sol\":2922:2940  vaultBTC.balanceOf */\n      0xffffffffffffffffffffffffffffffffffffffff\n      and\n      0x70a08231\n        /* \"contract/vaultswapcore.sol\":2941:2951  msg.sender */\n      caller\n        /* \"contract/vaultswapcore.sol\":2922:2952  vaultBTC.balanceOf(msg.sender) */\n      mload(0x40)\n      dup3\n      0xffffffff\n      and\n      0xe0\n      shl\n      dup2\n      mstore\n      0x04\n      add\n      tag_163\n      swap2\n      swap1\n      tag_98\n      jump\t// in\n    tag_163:\n      0x20\n      mload(0x40)\n      dup1\n      dup4\n      sub\n      dup2\n      dup7\n      gas\n      staticcall\n      iszero\n      dup1\n      iszero\n      tag_165\n      jumpi\n      returndatacopy(0x00, 0x00, returndatasize)\n      revert(0x00, returndatasize)\n    tag_165:\n      pop\n      pop\n      pop\n      pop\n      mload(0x40)\n      returndatasize\n      not(0x1f)\n      0x1f\n      dup3\n      add\n      and\n      dup3\n      add\n      dup1\n      0x40\n      mstore\n      pop\n      dup2\n      add\n      swap1\n      tag_166\n      swap2\n      swap1\n      tag_167\n      jump\t// in\n    tag_166:\n        /* \"contract/vaultswapcore.sol\":2922:2972  vaultBTC.balanceOf(msg.sender) >= collateralAmount */\n      lt\n      iszero\n        /* \"contract/vaultswapcore.sol\":2901:3027  require(... */\n      tag_168\n      jumpi\n      mload(0x40)\n      0x08c379a000000000000000000000000000000000000000000000000000000000\n      dup2\n      mstore\n      0x04\n      add\n      tag_169\n      swap1\n      tag_170\n      jump\t// in\n    tag_169:\n      mload(0x40)\n      dup1\n      swap2\n      sub\n      swap1\n      revert\n    tag_168:\n        /* \"contract/vaultswapcore.sol\":3080:3097  uint256 maxBorrow */\n      0x00\n        /* \"contract/vaultswapcore.sol\":3100:3136  getMaxBorrowAmount(collateralAmount) */\n      tag_171\n        /* \"contract/vaultswapcore.sol\":3119:3135  collateralAmount */\n      dup5\n        /* \"contract/vaultswapcore.sol\":3100:3118  getMaxBorrowAmount */\n      tag_84\n        /* \"contract/vaultswapcore.sol\":3100:3136  getMaxBorrowAmount(collateralAmount) */\n      jump\t// in\n    tag_171:\n        /* \"contract/vaultswapcore.sol\":3080:3136  uint256 maxBorrow = getMaxBorrowAmount(collateralAmount) */\n      swap1\n      pop\n        /* \"contract/vaultswapcore.sol\":3170:3179  maxBorrow */\n      dup1\n        /* \"contract/vaultswapcore.sol\":3154:3166  borrowAmount */\n      dup4\n        /* \"contract/vaultswapcore.sol\":3154:3179  borrowAmount <= maxBorrow */\n      gt\n      iszero\n        /* \"contract/vaultswapcore.sol\":3146:3207  require(borrowAmount <= maxBorrow, \"Insufficient collateral\") */\n      tag_172\n      jumpi\n      mload(0x40)\n      0x08c379a000000000000000000000000000000000000000000000000000000000\n      dup2\n      mstore\n      0x04\n      add\n      tag_173\n      swap1\n      tag_174\n      jump\t// in\n    tag_173:\n      mload(0x40)\n      dup1\n      swap2\n      sub\n      swap1\n      revert\n    tag_172:\n        /* \"contract/vaultswapcore.sol\":3318:3330  borrowAmount */\n      dup3\n        /* \"contract/vaultswapcore.sol\":3279:3289  stablecoin */\n      0x03\n      0x00\n      swap1\n      sload\n      swap1\n      0x0100\n      exp\n      swap1\n      div\n      0xffffffffffffffffffffffffffffffffffffffff\n      and\n        /* \"contract/vaultswapcore.sol\":3279:3299  stablecoin.balanceOf */\n      0xffffffffffffffffffffffffffffffffffffffff\n      and\n      0x70a08231\n        /* \"contract/vaultswapcore.sol\":3308:3312  this */\n      address\n        /* \"contract/vaultswapcore.sol\":3279:3314  stablecoin.balanceOf(address(this)) */\n      mload(0x40)\n      dup3\n      0xffffffff\n      and\n      0xe0\n      shl\n      dup2\n      mstore\n      0x04\n      add\n      tag_175\n      swap2\n      swap1\n      tag_98\n      jump\t// in\n    tag_175:\n      0x20\n      mload(0x40)\n      dup1\n      dup4\n      sub\n      dup2\n      dup7\n      gas\n      staticcall\n      iszero\n      dup1\n      iszero\n      tag_177\n      jumpi\n      returndatacopy(0x00, 0x00, returndatasize)\n      revert(0x00, returndatasize)\n    tag_177:\n      pop\n      pop\n      pop\n      pop\n      mload(0x40)\n      returndatasize\n      not(0x1f)\n      0x1f\n      dup3\n      add\n      and\n      dup3\n      add\n      dup1\n      0x40\n      mstore\n      pop\n      dup2\n      add\n      swap1\n      tag_178\n      swap2\n      swap1\n      tag_167\n      jump\t// in\n    tag_178:\n        /* \"contract/vaultswapcore.sol\":3279:3330  stablecoin.balanceOf(address(this)) >= borrowAmount */\n      lt\n      iszero\n        /* \"contract/vaultswapcore.sol\":3258:3378  require(... */\n      tag_179\n      jumpi\n      mload(0x40)\n      0x08c379a000000000000000000000000000000000000000000000000000000000\n      dup2\n      mstore\n      0x04\n      add\n      tag_180\n      swap1\n      tag_181\n      jump\t// in\n    tag_180:\n      mload(0x40)\n      dup1\n      swap2\n      sub\n      swap1\n      revert\n    tag_179:\n        /* \"contract/vaultswapcore.sol\":3459:3467  vaultBTC */\n      0x02\n      0x00\n      swap1\n      sload\n      swap1\n      0x0100\n      exp\n      swap1\n      div\n      0xffffffffffffffffffffffffffffffffffffffff\n      and\n        /* \"contract/vaultswapcore.sol\":3459:3480  vaultBTC.transferFrom */\n      0xffffffffffffffffffffffffffffffffffffffff\n      and\n      0x23b872dd\n        /* \"contract/vaultswapcore.sol\":3481:3491  msg.sender */\n      caller\n        /* \"contract/vaultswapcore.sol\":3501:3505  this */\n      address\n        /* \"contract/vaultswapcore.sol\":3508:3524  collateralAmount */\n      dup8\n        /* \"contract/vaultswapcore.sol\":3459:3525  vaultBTC.transferFrom(msg.sender, address(this), collateralAmount) */\n      mload(0x40)\n      dup5\n      0xffffffff\n      and\n      0xe0\n      shl\n      dup2\n      mstore\n      0x04\n      add\n      tag_182\n      swap4\n      swap3\n      swap2\n      swap1\n      tag_183\n      jump\t// in\n    tag_182:\n      0x20\n      mload(0x40)\n      dup1\n      dup4\n      sub\n      dup2\n      0x00\n      dup8\n      gas\n      call\n      iszero\n      dup1\n      iszero\n      tag_185\n      jumpi\n      returndatacopy(0x00, 0x00, returndatasize)\n      revert(0x00, returndatasize)\n    tag_185:\n      pop\n      pop\n      pop\n      pop\n      mload(0x40)\n      returndatasize\n      not(0x1f)\n      0x1f\n      dup3\n      add\n      and\n      dup3\n      add\n      dup1\n      0x40\n      mstore\n      pop\n      dup2\n      add\n      swap1\n      tag_186\n      swap2\n      swap1\n      tag_187\n      jump\t// in\n    tag_186:\n        /* \"contract/vaultswapcore.sol\":3438:3577  require(... */\n      tag_188\n      jumpi\n      mload(0x40)\n      0x08c379a000000000000000000000000000000000000000000000000000000000\n      dup2\n      mstore\n      0x04\n      add\n      tag_189\n      swap1\n      tag_190\n      jump\t// in\n    tag_189:\n      mload(0x40)\n      dup1\n      swap2\n      sub\n      swap1\n      revert\n    tag_188:\n        /* \"contract/vaultswapcore.sol\":3619:3632  loanIdCounter */\n      0x08\n      0x00\n        /* \"contract/vaultswapcore.sol\":3619:3634  loanIdCounter++ */\n      dup2\n      sload\n      dup1\n      swap3\n      swap2\n      swap1\n      tag_191\n      swap1\n      tag_192\n      jump\t// in\n    tag_191:\n      swap2\n      swap1\n      pop\n      sstore\n      pop\n        /* \"contract/vaultswapcore.sol\":3644:3658  uint256 loanId */\n      0x00\n        /* \"contract/vaultswapcore.sol\":3661:3674  loanIdCounter */\n      sload(0x08)\n        /* \"contract/vaultswapcore.sol\":3644:3674  uint256 loanId = loanIdCounter */\n      swap1\n      pop\n        /* \"contract/vaultswapcore.sol\":3709:4038  Loan({... */\n      mload(0x40)\n      dup1\n      0x0100\n      add\n      0x40\n      mstore\n      dup1\n        /* \"contract/vaultswapcore.sol\":3736:3742  loanId */\n      dup3\n        /* \"contract/vaultswapcore.sol\":3709:4038  Loan({... */\n      dup2\n      mstore\n      0x20\n      add\n        /* \"contract/vaultswapcore.sol\":3766:3776  msg.sender */\n      caller\n        /* \"contract/vaultswapcore.sol\":3709:4038  Loan({... */\n      0xffffffffffffffffffffffffffffffffffffffff\n      and\n      dup2\n      mstore\n      0x20\n      add\n        /* \"contract/vaultswapcore.sol\":3808:3824  collateralAmount */\n      dup7\n        /* \"contract/vaultswapcore.sol\":3709:4038  Loan({... */\n      dup2\n      mstore\n      0x20\n      add\n        /* \"contract/vaultswapcore.sol\":3854:3866  borrowAmount */\n      dup6\n        /* \"contract/vaultswapcore.sol\":3709:4038  Loan({... */\n      dup2\n      mstore\n      0x20\n      add\n        /* \"contract/vaultswapcore.sol\":3894:3910  baseInterestRate */\n      sload(0x05)\n        /* \"contract/vaultswapcore.sol\":3709:4038  Loan({... */\n      dup2\n      mstore\n      0x20\n      add\n        /* \"contract/vaultswapcore.sol\":3935:3950  block.timestamp */\n      timestamp\n        /* \"contract/vaultswapcore.sol\":3709:4038  Loan({... */\n      dup2\n      mstore\n      0x20\n      add\n        /* \"contract/vaultswapcore.sol\":3984:3999  block.timestamp */\n      timestamp\n        /* \"contract/vaultswapcore.sol\":3709:4038  Loan({... */\n      dup2\n      mstore\n      0x20\n      add\n        /* \"contract/vaultswapcore.sol\":4023:4027  true */\n      0x01\n        /* \"contract/vaultswapcore.sol\":3709:4038  Loan({... */\n      iszero\n      iszero\n      dup2\n      mstore\n      pop\n        /* \"contract/vaultswapcore.sol\":3693:3698  loans */\n      0x09\n        /* \"contract/vaultswapcore.sol\":3693:3706  loans[loanId] */\n      0x00\n        /* \"contract/vaultswapcore.sol\":3699:3705  loanId */\n      dup4\n        /* \"contract/vaultswapcore.sol\":3693:3706  loans[loanId] */\n      dup2\n      mstore\n      0x20\n      add\n      swap1\n      dup2\n      mstore\n      0x20\n      add\n      0x00\n      keccak256\n        /* \"contract/vaultswapcore.sol\":3693:4038  loans[loanId] = Loan({... */\n      0x00\n      dup3\n      add\n      mload\n      dup2\n      0x00\n      add\n      sstore\n      0x20\n      dup3\n      add\n      mload\n      dup2\n      0x01\n      add\n      exp(0x0100, 0x00)\n      dup2\n      sload\n      dup2\n      0xffffffffffffffffffffffffffffffffffffffff\n      mul\n      not\n      and\n      swap1\n      dup4\n      0xffffffffffffffffffffffffffffffffffffffff\n      and\n      mul\n      or\n      swap1\n      sstore\n      pop\n      0x40\n      dup3\n      add\n      mload\n      dup2\n      0x02\n      add\n      sstore\n      0x60\n      dup3\n      add\n      mload\n      dup2\n      0x03\n      add\n      sstore\n      0x80\n      dup3\n      add\n      mload\n      dup2\n      0x04\n      add\n      sstore\n      0xa0\n      dup3\n      add\n      mload\n      dup2\n      0x05\n      add\n      sstore\n      0xc0\n      dup3\n      add\n      mload\n      dup2\n      0x06\n      add\n      sstore\n      0xe0\n      dup3\n      add\n      mload\n      dup2\n      0x07\n      add\n      exp(0x0100, 0x00)\n      dup2\n      sload\n      dup2\n      0xff\n      mul\n      not\n      and\n      swap1\n      dup4\n      iszero\n      iszero\n      mul\n      or\n      swap1\n      sstore\n      pop\n      swap1\n      pop\n      pop\n        /* \"contract/vaultswapcore.sol\":4057:4066  userLoans */\n      0x0a\n        /* \"contract/vaultswapcore.sol\":4057:4078  userLoans[msg.sender] */\n      0x00\n        /* \"contract/vaultswapcore.sol\":4067:4077  msg.sender */\n      caller\n        /* \"contract/vaultswapcore.sol\":4057:4078  userLoans[msg.sender] */\n      0xffffffffffffffffffffffffffffffffffffffff\n      and\n      0xffffffffffffffffffffffffffffffffffffffff\n      and\n      dup2\n      mstore\n      0x20\n      add\n      swap1\n      dup2\n      mstore\n      0x20\n      add\n      0x00\n      keccak256\n        /* \"contract/vaultswapcore.sol\":4084:4090  loanId */\n      dup2\n        /* \"contract/vaultswapcore.sol\":4057:4091  userLoans[msg.sender].push(loanId) */\n      swap1\n      dup1\n      0x01\n      dup2\n      sload\n      add\n      dup1\n      dup3\n      sstore\n      dup1\n      swap2\n      pop\n      pop\n      0x01\n      swap1\n      sub\n      swap1\n      0x00\n      mstore\n      keccak256(0x00, 0x20)\n      add\n      0x00\n      swap1\n      swap2\n      swap1\n      swap2\n      swap1\n      swap2\n      pop\n      sstore\n        /* \"contract/vaultswapcore.sol\":4118:4130  borrowAmount */\n      dup4\n        /* \"contract/vaultswapcore.sol\":4101:4114  totalBorrowed */\n      0x06\n      0x00\n        /* \"contract/vaultswapcore.sol\":4101:4130  totalBorrowed += borrowAmount */\n      dup3\n      dup3\n      sload\n      tag_194\n      swap2\n      swap1\n      tag_195\n      jump\t// in\n    tag_194:\n      swap3\n      pop\n      pop\n      dup2\n      swap1\n      sstore\n      pop\n        /* \"contract/vaultswapcore.sol\":4159:4175  collateralAmount */\n      dup5\n        /* \"contract/vaultswapcore.sol\":4140:4155  totalCollateral */\n      0x07\n      0x00\n        /* \"contract/vaultswapcore.sol\":4140:4175  totalCollateral += collateralAmount */\n      dup3\n      dup3\n      sload\n      tag_196\n      swap2\n      swap1\n      tag_195\n      jump\t// in\n    tag_196:\n      swap3\n      pop\n      pop\n      dup2\n      swap1\n      sstore\n      pop\n        /* \"contract/vaultswapcore.sol\":4258:4268  stablecoin */\n      0x03\n      0x00\n      swap1\n      sload\n      swap1\n      0x0100\n      exp\n      swap1\n      div\n      0xffffffffffffffffffffffffffffffffffffffff\n      and\n        /* \"contract/vaultswapcore.sol\":4258:4277  stablecoin.transfer */\n      0xffffffffffffffffffffffffffffffffffffffff\n      and\n      0xa9059cbb\n        /* \"contract/vaultswapcore.sol\":4278:4288  msg.sender */\n      caller\n        /* \"contract/vaultswapcore.sol\":4290:4302  borrowAmount */\n      dup7\n        /* \"contract/vaultswapcore.sol\":4258:4303  stablecoin.transfer(msg.sender, borrowAmount) */\n      mload(0x40)\n      dup4\n      0xffffffff\n      and\n      0xe0\n      shl\n      dup2\n      mstore\n      0x04\n      add\n      tag_197\n      swap3\n      swap2\n      swap1\n      tag_198\n      jump\t// in\n    tag_197:\n      0x20\n      mload(0x40)\n      dup1\n      dup4\n      sub\n      dup2\n      0x00\n      dup8\n      gas\n      call\n      iszero\n      dup1\n      iszero\n      tag_200\n      jumpi\n      returndatacopy(0x00, 0x00, returndatasize)\n      revert(0x00, returndatasize)\n    tag_200:\n      pop\n      pop\n      pop\n      pop\n      mload(0x40)\n      returndatasize\n      not(0x1f)\n      0x1f\n      dup3\n      add\n      and\n      dup3\n      add\n      dup1\n      0x40\n      mstore\n      pop\n      dup2\n      add\n      swap1\n      tag_201\n      swap2\n      swap1\n      tag_187\n      jump\t// in\n    tag_201:\n        /* \"contract/vaultswapcore.sol\":4237:4351  require(... */\n      tag_202\n      jumpi\n      mload(0x40)\n      0x08c379a000000000000000000000000000000000000000000000000000000000\n      dup2\n      mstore\n      0x04\n      add\n      tag_203\n      swap1\n      tag_204\n      jump\t// in\n    tag_203:\n      mload(0x40)\n      dup1\n      swap2\n      sub\n      swap1\n      revert\n    tag_202:\n        /* \"contract/vaultswapcore.sol\":4395:4405  msg.sender */\n      caller\n        /* \"contract/vaultswapcore.sol\":4375:4438  LoanCreated(loanId, msg.sender, collateralAmount, borrowAmount) */\n      0xffffffffffffffffffffffffffffffffffffffff\n      and\n        /* \"contract/vaultswapcore.sol\":4387:4393  loanId */\n      dup2\n        /* \"contract/vaultswapcore.sol\":4375:4438  LoanCreated(loanId, msg.sender, collateralAmount, borrowAmount) */\n      0x3373919ad665425d2cddb4072830e5935b6ee308440fa99b23383648da473bc0\n        /* \"contract/vaultswapcore.sol\":4407:4423  collateralAmount */\n      dup8\n        /* \"contract/vaultswapcore.sol\":4425:4437  borrowAmount */\n      dup8\n        /* \"contract/vaultswapcore.sol\":4375:4438  LoanCreated(loanId, msg.sender, collateralAmount, borrowAmount) */\n      mload(0x40)\n      tag_205\n      swap3\n      swap2\n      swap1\n      tag_206\n      jump\t// in\n    tag_205:\n      mload(0x40)\n      dup1\n      swap2\n      sub\n      swap1\n      log3\n        /* \"contract/vaultswapcore.sol\":4464:4470  loanId */\n      dup1\n        /* \"contract/vaultswapcore.sol\":4457:4470  return loanId */\n      swap3\n      pop\n      pop\n      pop\n        /* \"@openzeppelin/contracts/security/ReentrancyGuard.sol\":2303:2323  _nonReentrantAfter() */\n      tag_207\n        /* \"@openzeppelin/contracts/security/ReentrancyGuard.sol\":2303:2321  _nonReentrantAfter */\n      tag_208\n        /* \"@openzeppelin/contracts/security/ReentrancyGuard.sol\":2303:2323  _nonReentrantAfter() */\n      jump\t// in\n    tag_207:\n        /* \"contract/vaultswapcore.sol\":2568:4477  function borrow(... */\n      swap3\n      swap2\n      pop\n      pop\n      jump\t// out\n        /* \"contract/vaultswapcore.sol\":7567:8085  function getHealthFactor(uint256 loanId) public view returns (uint256) {... */\n    tag_55:\n        /* \"contract/vaultswapcore.sol\":7629:7636  uint256 */\n      0x00\n        /* \"contract/vaultswapcore.sol\":7648:7664  Loan memory loan */\n      0x00\n        /* \"contract/vaultswapcore.sol\":7667:7672  loans */\n      0x09\n        /* \"contract/vaultswapcore.sol\":7667:7680  loans[loanId] */\n      0x00\n        /* \"contract/vaultswapcore.sol\":7673:7679  loanId */\n      dup5\n        /* \"contract/vaultswapcore.sol\":7667:7680  loans[loanId] */\n      dup2\n      mstore\n      0x20\n      add\n      swap1\n      dup2\n      mstore\n      0x20\n      add\n      0x00\n      keccak256\n        /* \"contract/vaultswapcore.sol\":7648:7680  Loan memory loan = loans[loanId] */\n      mload(0x40)\n      dup1\n      0x0100\n      add\n      0x40\n      mstore\n      swap1\n      dup2\n      0x00\n      dup3\n      add\n      sload\n      dup2\n      mstore\n      0x20\n      add\n      0x01\n      dup3\n      add\n      0x00\n      swap1\n      sload\n      swap1\n      0x0100\n      exp\n      swap1\n      div\n      0xffffffffffffffffffffffffffffffffffffffff\n      and\n      0xffffffffffffffffffffffffffffffffffffffff\n      and\n      0xffffffffffffffffffffffffffffffffffffffff\n      and\n      dup2\n      mstore\n      0x20\n      add\n      0x02\n      dup3\n      add\n      sload\n      dup2\n      mstore\n      0x20\n      add\n      0x03\n      dup3\n      add\n      sload\n      dup2\n      mstore\n      0x20\n      add\n      0x04\n      dup3\n      add\n      sload\n      dup2\n      mstore\n      0x20\n      add\n      0x05\n      dup3\n      add\n      sload\n      dup2\n      mstore\n      0x20\n      add\n      0x06\n      dup3\n      add\n      sload\n      dup2\n      mstore\n      0x20\n      add\n      0x07\n      dup3\n      add\n      0x00\n      swap1\n      sload\n      swap1\n      0x0100\n      exp\n      swap1\n      div\n      0xff\n      and\n      iszero\n      iszero\n      iszero\n      iszero\n      dup2\n      mstore\n      pop\n      pop\n      swap1\n      pop\n        /* \"contract/vaultswapcore.sol\":7695:7699  loan */\n      dup1\n        /* \"contract/vaultswapcore.sol\":7695:7708  loan.isActive */\n      0xe0\n      add\n      mload\n        /* \"contract/vaultswapcore.sol\":7690:7718  if (!loan.isActive) return 0 */\n      tag_210\n      jumpi\n        /* \"contract/vaultswapcore.sol\":7717:7718  0 */\n      0x00\n        /* \"contract/vaultswapcore.sol\":7710:7718  return 0 */\n      swap2\n      pop\n      pop\n      jump(tag_209)\n        /* \"contract/vaultswapcore.sol\":7690:7718  if (!loan.isActive) return 0 */\n    tag_210:\n        /* \"contract/vaultswapcore.sol\":7737:7753  uint256 btcPrice */\n      0x00\n        /* \"contract/vaultswapcore.sol\":7756:7767  priceOracle */\n      0x04\n      0x00\n      swap1\n      sload\n      swap1\n      0x0100\n      exp\n      swap1\n      div\n      0xffffffffffffffffffffffffffffffffffffffff\n      and\n        /* \"contract/vaultswapcore.sol\":7756:7776  priceOracle.getPrice */\n      0xffffffffffffffffffffffffffffffffffffffff\n      and\n      0x98d5fdca\n        /* \"contract/vaultswapcore.sol\":7756:7778  priceOracle.getPrice() */\n      mload(0x40)\n      dup2\n      0xffffffff\n      and\n      0xe0\n      shl\n      dup2\n      mstore\n      0x04\n      add\n      0x20\n      mload(0x40)\n      dup1\n      dup4\n      sub\n      dup2\n      dup7\n      gas\n      staticcall\n      iszero\n      dup1\n      iszero\n      tag_212\n      jumpi\n      returndatacopy(0x00, 0x00, returndatasize)\n      revert(0x00, returndatasize)\n    tag_212:\n      pop\n      pop\n      pop\n      pop\n      mload(0x40)\n      returndatasize\n      not(0x1f)\n      0x1f\n      dup3\n      add\n      and\n      dup3\n      add\n      dup1\n      0x40\n      mstore\n      pop\n      dup2\n      add\n      swap1\n      tag_213\n      swap2\n      swap1\n      tag_167\n      jump\t// in\n    tag_213:\n        /* \"contract/vaultswapcore.sol\":7737:7778  uint256 btcPrice = priceOracle.getPrice() */\n      swap1\n      pop\n        /* \"contract/vaultswapcore.sol\":7788:7811  uint256 collateralValue */\n      0x00\n        /* \"contract/vaultswapcore.sol\":7851:7856  10**8 */\n      0x05f5e100\n        /* \"contract/vaultswapcore.sol\":7839:7847  btcPrice */\n      dup3\n        /* \"contract/vaultswapcore.sol\":7815:7819  loan */\n      dup5\n        /* \"contract/vaultswapcore.sol\":7815:7836  loan.collateralAmount */\n      0x40\n      add\n      mload\n        /* \"contract/vaultswapcore.sol\":7815:7847  loan.collateralAmount * btcPrice */\n      tag_214\n      swap2\n      swap1\n      tag_215\n      jump\t// in\n    tag_214:\n        /* \"contract/vaultswapcore.sol\":7814:7856  (loan.collateralAmount * btcPrice) / 10**8 */\n      tag_216\n      swap2\n      swap1\n      tag_217\n      jump\t// in\n    tag_216:\n        /* \"contract/vaultswapcore.sol\":7788:7856  uint256 collateralValue = (loan.collateralAmount * btcPrice) / 10**8 */\n      swap1\n      pop\n        /* \"contract/vaultswapcore.sol\":7866:7890  uint256 debtWithInterest */\n      0x00\n        /* \"contract/vaultswapcore.sol\":7915:7940  calculateInterest(loanId) */\n      tag_218\n        /* \"contract/vaultswapcore.sol\":7933:7939  loanId */\n      dup7\n        /* \"contract/vaultswapcore.sol\":7915:7932  calculateInterest */\n      tag_118\n        /* \"contract/vaultswapcore.sol\":7915:7940  calculateInterest(loanId) */\n      jump\t// in\n    tag_218:\n        /* \"contract/vaultswapcore.sol\":7893:7897  loan */\n      dup5\n        /* \"contract/vaultswapcore.sol\":7893:7912  loan.borrowedAmount */\n      0x60\n      add\n      mload\n        /* \"contract/vaultswapcore.sol\":7893:7940  loan.borrowedAmount + calculateInterest(loanId) */\n      tag_219\n      swap2\n      swap1\n      tag_195\n      jump\t// in\n    tag_219:\n        /* \"contract/vaultswapcore.sol\":7866:7940  uint256 debtWithInterest = loan.borrowedAmount + calculateInterest(loanId) */\n      swap1\n      pop\n        /* \"contract/vaultswapcore.sol\":7983:7984  0 */\n      0x00\n        /* \"contract/vaultswapcore.sol\":7963:7979  debtWithInterest */\n      dup2\n        /* \"contract/vaultswapcore.sol\":7963:7984  debtWithInterest == 0 */\n      sub\n        /* \"contract/vaultswapcore.sol\":7959:8010  if (debtWithInterest == 0) return type(uint256).max */\n      tag_220\n      jumpi\n        /* \"contract/vaultswapcore.sol\":7993:8010  type(uint256).max */\n      0xffffffffffffffffffffffffffffffffffffffffffffffffffffffffffffffff\n        /* \"contract/vaultswapcore.sol\":7986:8010  return type(uint256).max */\n      swap5\n      pop\n      pop\n      pop\n      pop\n      pop\n      jump(tag_209)\n        /* \"contract/vaultswapcore.sol\":7959:8010  if (debtWithInterest == 0) return type(uint256).max */\n    tag_220:\n        /* \"contract/vaultswapcore.sol\":8062:8078  debtWithInterest */\n      dup1\n        /* \"contract/vaultswapcore.sol\":8055:8058  100 */\n      0x64\n        /* \"contract/vaultswapcore.sol\":8037:8052  collateralValue */\n      dup4\n        /* \"contract/vaultswapcore.sol\":8037:8058  collateralValue * 100 */\n      tag_221\n      swap2\n      swap1\n      tag_215\n      jump\t// in\n    tag_221:\n        /* \"contract/vaultswapcore.sol\":8036:8078  (collateralValue * 100) / debtWithInterest */\n      tag_222\n      swap2\n      swap1\n      tag_217\n      jump\t// in\n    tag_222:\n        /* \"contract/vaultswapcore.sol\":8029:8078  return (collateralValue * 100) / debtWithInterest */\n      swap5\n      pop\n      pop\n      pop\n      pop\n      pop\n        /* \"contract/vaultswapcore.sol\":7567:8085  function getHealthFactor(uint256 loanId) public view returns (uint256) {... */\n    tag_209:\n      swap2\n      swap1\n      pop\n      jump\t// out\n        /* \"contract/vaultswapcore.sol\":767:798  IPriceOracle public priceOracle */\n    tag_58:\n      0x04\n      0x00\n      swap1\n      sload\n      swap1\n      0x0100\n      exp\n      swap1\n      div\n      0xffffffffffffffffffffffffffffffffffffffff\n      and\n      dup2\n      jump\t// out\n        /* \"contract/vaultswapcore.sol\":4487:5512  function repay(uint256 loanId) external nonReentrant {... */\n    tag_63:\n        /* \"@openzeppelin/contracts/security/ReentrancyGuard.sol\":2261:2282  _nonReentrantBefore() */\n      tag_224\n        /* \"@openzeppelin/contracts/security/ReentrancyGuard.sol\":2261:2280  _nonReentrantBefore */\n      tag_152\n        /* \"@openzeppelin/contracts/security/ReentrancyGuard.sol\":2261:2282  _nonReentrantBefore() */\n      jump\t// in\n    tag_224:\n        /* \"contract/vaultswapcore.sol\":4550:4567  Loan storage loan */\n      0x00\n        /* \"contract/vaultswapcore.sol\":4570:4575  loans */\n      0x09\n        /* \"contract/vaultswapcore.sol\":4570:4583  loans[loanId] */\n      0x00\n        /* \"contract/vaultswapcore.sol\":4576:4582  loanId */\n      dup4\n        /* \"contract/vaultswapcore.sol\":4570:4583  loans[loanId] */\n      dup2\n      mstore\n      0x20\n      add\n      swap1\n      dup2\n      mstore\n      0x20\n      add\n      0x00\n      keccak256\n        /* \"contract/vaultswapcore.sol\":4550:4583  Loan storage loan = loans[loanId] */\n      swap1\n      pop\n        /* \"contract/vaultswapcore.sol\":4601:4605  loan */\n      dup1\n        /* \"contract/vaultswapcore.sol\":4601:4614  loan.isActive */\n      0x07\n      add\n      0x00\n      swap1\n      sload\n      swap1\n      0x0100\n      exp\n      swap1\n      div\n      0xff\n      and\n        /* \"contract/vaultswapcore.sol\":4593:4634  require(loan.isActive, \"Loan not active\") */\n      tag_226\n      jumpi\n      mload(0x40)\n      0x08c379a000000000000000000000000000000000000000000000000000000000\n      dup2\n      mstore\n      0x04\n      add\n      tag_227\n      swap1\n      tag_228\n      jump\t// in\n    tag_227:\n      mload(0x40)\n      dup1\n      swap2\n      sub\n      swap1\n      revert\n    tag_226:\n        /* \"contract/vaultswapcore.sol\":4669:4679  msg.sender */\n      caller\n        /* \"contract/vaultswapcore.sol\":4652:4679  loan.borrower == msg.sender */\n      0xffffffffffffffffffffffffffffffffffffffff\n      and\n        /* \"contract/vaultswapcore.sol\":4652:4656  loan */\n      dup2\n        /* \"contract/vaultswapcore.sol\":4652:4665  loan.borrower */\n      0x01\n      add\n      0x00\n      swap1\n      sload\n      swap1\n      0x0100\n      exp\n      swap1\n      div\n      0xffffffffffffffffffffffffffffffffffffffff\n      and\n        /* \"contract/vaultswapcore.sol\":4652:4679  loan.borrower == msg.sender */\n      0xffffffffffffffffffffffffffffffffffffffff\n      and\n      eq\n        /* \"contract/vaultswapcore.sol\":4644:4698  require(loan.borrower == msg.sender, \"Not loan owner\") */\n      tag_229\n      jumpi\n      mload(0x40)\n      0x08c379a000000000000000000000000000000000000000000000000000000000\n      dup2\n      mstore\n      0x04\n      add\n      tag_230\n      swap1\n      tag_231\n      jump\t// in\n    tag_230:\n      mload(0x40)\n      dup1\n      swap2\n      sub\n      swap1\n      revert\n    tag_229:\n        /* \"contract/vaultswapcore.sol\":4783:4799  uint256 interest */\n      0x00\n        /* \"contract/vaultswapcore.sol\":4802:4827  calculateInterest(loanId) */\n      tag_232\n        /* \"contract/vaultswapcore.sol\":4820:4826  loanId */\n      dup4\n        /* \"contract/vaultswapcore.sol\":4802:4819  calculateInterest */\n      tag_118\n        /* \"contract/vaultswapcore.sol\":4802:4827  calculateInterest(loanId) */\n      jump\t// in\n    tag_232:\n        /* \"contract/vaultswapcore.sol\":4783:4827  uint256 interest = calculateInterest(loanId) */\n      swap1\n      pop\n        /* \"contract/vaultswapcore.sol\":4837:4855  uint256 totalRepay */\n      0x00\n        /* \"contract/vaultswapcore.sol\":4880:4888  interest */\n      dup2\n        /* \"contract/vaultswapcore.sol\":4858:4862  loan */\n      dup4\n        /* \"contract/vaultswapcore.sol\":4858:4877  loan.borrowedAmount */\n      0x03\n      add\n      sload\n        /* \"contract/vaultswapcore.sol\":4858:4888  loan.borrowedAmount + interest */\n      tag_233\n      swap2\n      swap1\n      tag_195\n      jump\t// in\n    tag_233:\n        /* \"contract/vaultswapcore.sol\":4837:4888  uint256 totalRepay = loan.borrowedAmount + interest */\n      swap1\n      pop\n        /* \"contract/vaultswapcore.sol\":4973:4983  stablecoin */\n      0x03\n      0x00\n      swap1\n      sload\n      swap1\n      0x0100\n      exp\n      swap1\n      div\n      0xffffffffffffffffffffffffffffffffffffffff\n      and\n        /* \"contract/vaultswapcore.sol\":4973:4996  stablecoin.transferFrom */\n      0xffffffffffffffffffffffffffffffffffffffff\n      and\n      0x23b872dd\n        /* \"contract/vaultswapcore.sol\":4997:5007  msg.sender */\n      caller\n        /* \"contract/vaultswapcore.sol\":5017:5021  this */\n      address\n        /* \"contract/vaultswapcore.sol\":5024:5034  totalRepay */\n      dup5\n        /* \"contract/vaultswapcore.sol\":4973:5035  stablecoin.transferFrom(msg.sender, address(this), totalRepay) */\n      mload(0x40)\n      dup5\n      0xffffffff\n      and\n      0xe0\n      shl\n      dup2\n      mstore\n      0x04\n      add\n      tag_234\n      swap4\n      swap3\n      swap2\n      swap1\n      tag_183\n      jump\t// in\n    tag_234:\n      0x20\n      mload(0x40)\n      dup1\n      dup4\n      sub\n      dup2\n      0x00\n      dup8\n      gas\n      call\n      iszero\n      dup1\n      iszero\n      tag_236\n      jumpi\n      returndatacopy(0x00, 0x00, returndatasize)\n      revert(0x00, returndatasize)\n    tag_236:\n      pop\n      pop\n      pop\n      pop\n      mload(0x40)\n      returndatasize\n      not(0x1f)\n      0x1f\n      dup3\n      add\n      and\n      dup3\n      add\n      dup1\n      0x40\n      mstore\n      pop\n      dup2\n      add\n      swap1\n      tag_237\n      swap2\n      swap1\n      tag_187\n      jump\t// in\n    tag_237:\n        /* \"contract/vaultswapcore.sol\":4952:5086  require(... */\n      tag_238\n      jumpi\n      mload(0x40)\n      0x08c379a000000000000000000000000000000000000000000000000000000000\n      dup2\n      mstore\n      0x04\n      add\n      tag_239\n      swap1\n      tag_240\n      jump\t// in\n    tag_239:\n      mload(0x40)\n      dup1\n      swap2\n      sub\n      swap1\n      revert\n    tag_238:\n        /* \"contract/vaultswapcore.sol\":5167:5175  vaultBTC */\n      0x02\n      0x00\n      swap1\n      sload\n      swap1\n      0x0100\n      exp\n      swap1\n      div\n      0xffffffffffffffffffffffffffffffffffffffff\n      and\n        /* \"contract/vaultswapcore.sol\":5167:5184  vaultBTC.transfer */\n      0xffffffffffffffffffffffffffffffffffffffff\n      and\n      0xa9059cbb\n        /* \"contract/vaultswapcore.sol\":5185:5195  msg.sender */\n      caller\n        /* \"contract/vaultswapcore.sol\":5197:5201  loan */\n      dup6\n        /* \"contract/vaultswapcore.sol\":5197:5218  loan.collateralAmount */\n      0x02\n      add\n      sload\n        /* \"contract/vaultswapcore.sol\":5167:5219  vaultBTC.transfer(msg.sender, loan.collateralAmount) */\n      mload(0x40)\n      dup4\n      0xffffffff\n      and\n      0xe0\n      shl\n      dup2\n      mstore\n      0x04\n      add\n      tag_241\n      swap3\n      swap2\n      swap1\n      tag_198\n      jump\t// in\n    tag_241:\n      0x20\n      mload(0x40)\n      dup1\n      dup4\n      sub\n      dup2\n      0x00\n      dup8\n      gas\n      call\n      iszero\n      dup1\n      iszero\n      tag_243\n      jumpi\n      returndatacopy(0x00, 0x00, returndatasize)\n      revert(0x00, returndatasize)\n    tag_243:\n      pop\n      pop\n      pop\n      pop\n      mload(0x40)\n      returndatasize\n      not(0x1f)\n      0x1f\n      dup3\n      add\n      and\n      dup3\n      add\n      dup1\n      0x40\n      mstore\n      pop\n      dup2\n      add\n      swap1\n      tag_244\n      swap2\n      swap1\n      tag_187\n      jump\t// in\n    tag_244:\n        /* \"contract/vaultswapcore.sol\":5146:5269  require(... */\n      tag_245\n      jumpi\n      mload(0x40)\n      0x08c379a000000000000000000000000000000000000000000000000000000000\n      dup2\n      mstore\n      0x04\n      add\n      tag_246\n      swap1\n      tag_247\n      jump\t// in\n    tag_246:\n      mload(0x40)\n      dup1\n      swap2\n      sub\n      swap1\n      revert\n    tag_245:\n        /* \"contract/vaultswapcore.sol\":5329:5333  loan */\n      dup3\n        /* \"contract/vaultswapcore.sol\":5329:5348  loan.borrowedAmount */\n      0x03\n      add\n      sload\n        /* \"contract/vaultswapcore.sol\":5312:5325  totalBorrowed */\n      0x06\n      0x00\n        /* \"contract/vaultswapcore.sol\":5312:5348  totalBorrowed -= loan.borrowedAmount */\n      dup3\n      dup3\n      sload\n      tag_248\n      swap2\n      swap1\n      tag_249\n      jump\t// in\n    tag_248:\n      swap3\n      pop\n      pop\n      dup2\n      swap1\n      sstore\n      pop\n        /* \"contract/vaultswapcore.sol\":5377:5381  loan */\n      dup3\n        /* \"contract/vaultswapcore.sol\":5377:5398  loan.collateralAmount */\n      0x02\n      add\n      sload\n        /* \"contract/vaultswapcore.sol\":5358:5373  totalCollateral */\n      0x07\n      0x00\n        /* \"contract/vaultswapcore.sol\":5358:5398  totalCollateral -= loan.collateralAmount */\n      dup3\n      dup3\n      sload\n      tag_250\n      swap2\n      swap1\n      tag_249\n      jump\t// in\n    tag_250:\n      swap3\n      pop\n      pop\n      dup2\n      swap1\n      sstore\n      pop\n        /* \"contract/vaultswapcore.sol\":5424:5429  false */\n      0x00\n        /* \"contract/vaultswapcore.sol\":5408:5412  loan */\n      dup4\n        /* \"contract/vaultswapcore.sol\":5408:5421  loan.isActive */\n      0x07\n      add\n      0x00\n        /* \"contract/vaultswapcore.sol\":5408:5429  loan.isActive = false */\n      0x0100\n      exp\n      dup2\n      sload\n      dup2\n      0xff\n      mul\n      not\n      and\n      swap1\n      dup4\n      iszero\n      iszero\n      mul\n      or\n      swap1\n      sstore\n      pop\n        /* \"contract/vaultswapcore.sol\":5472:5482  msg.sender */\n      caller\n        /* \"contract/vaultswapcore.sol\":5453:5505  LoanRepaid(loanId, msg.sender, totalRepay, interest) */\n      0xffffffffffffffffffffffffffffffffffffffff\n      and\n        /* \"contract/vaultswapcore.sol\":5464:5470  loanId */\n      dup5\n        /* \"contract/vaultswapcore.sol\":5453:5505  LoanRepaid(loanId, msg.sender, totalRepay, interest) */\n      0x553c9087bff5b534e499a66dac3fa9db2962cd252ea01165239755836ae5345e\n        /* \"contract/vaultswapcore.sol\":5484:5494  totalRepay */\n      dup4\n        /* \"contract/vaultswapcore.sol\":5496:5504  interest */\n      dup6\n        /* \"contract/vaultswapcore.sol\":5453:5505  LoanRepaid(loanId, msg.sender, totalRepay, interest) */\n      mload(0x40)\n      tag_251\n      swap3\n      swap2\n      swap1\n      tag_206\n      jump\t// in\n    tag_251:\n      mload(0x40)\n      dup1\n      swap2\n      sub\n      swap1\n      log3\n        /* \"contract/vaultswapcore.sol\":4540:5512  {... */\n      pop\n      pop\n      pop\n        /* \"@openzeppelin/contracts/security/ReentrancyGuard.sol\":2303:2323  _nonReentrantAfter() */\n      tag_252\n        /* \"@openzeppelin/contracts/security/ReentrancyGuard.sol\":2303:2321  _nonReentrantAfter */\n      tag_208\n        /* \"@openzeppelin/contracts/security/ReentrancyGuard.sol\":2303:2323  _nonReentrantAfter() */\n      jump\t// in\n    tag_252:\n        /* \"contract/vaultswapcore.sol\":4487:5512  function repay(uint256 loanId) external nonReentrant {... */\n      pop\n      jump\t// out\n        /* \"contract/vaultswapcore.sol\":9966:10031  function unpause() external onlyOwner {... */\n    tag_65:\n        /* \"@openzeppelin/contracts/access/Ownable.sol\":1531:1544  _checkOwner() */\n      tag_254\n        /* \"@openzeppelin/contracts/access/Ownable.sol\":1531:1542  _checkOwner */\n      tag_255\n        /* \"@openzeppelin/contracts/access/Ownable.sol\":1531:1544  _checkOwner() */\n      jump\t// in\n    tag_254:\n        /* \"contract/vaultswapcore.sol\":10014:10024  _unpause() */\n      tag_257\n        /* \"contract/vaultswapcore.sol\":10014:10022  _unpause */\n      tag_258\n        /* \"contract/vaultswapcore.sol\":10014:10024  _unpause() */\n      jump\t// in\n    tag_257:\n        /* \"contract/vaultswapcore.sol\":9966:10031  function unpause() external onlyOwner {... */\n      jump\t// out\n        /* \"contract/vaultswapcore.sol\":5522:6793  function liquidate(uint256 loanId) external nonReentrant {... */\n    tag_68:\n        /* \"@openzeppelin/contracts/security/ReentrancyGuard.sol\":2261:2282  _nonReentrantBefore() */\n      tag_260\n        /* \"@openzeppelin/contracts/security/ReentrancyGuard.sol\":2261:2280  _nonReentrantBefore */\n      tag_152\n        /* \"@openzeppelin/contracts/security/ReentrancyGuard.sol\":2261:2282  _nonReentrantBefore() */\n      jump\t// in\n    tag_260:\n        /* \"contract/vaultswapcore.sol\":5589:5606  Loan storage loan */\n      0x00\n        /* \"contract/vaultswapcore.sol\":5609:5614  loans */\n      0x09\n        /* \"contract/vaultswapcore.sol\":5609:5622  loans[loanId] */\n      0x00\n        /* \"contract/vaultswapcore.sol\":5615:5621  loanId */\n      dup4\n        /* \"contract/vaultswapcore.sol\":5609:5622  loans[loanId] */\n      dup2\n      mstore\n      0x20\n      add\n      swap1\n      dup2\n      mstore\n      0x20\n      add\n      0x00\n      keccak256\n        /* \"contract/vaultswapcore.sol\":5589:5622  Loan storage loan = loans[loanId] */\n      swap1\n      pop\n        /* \"contract/vaultswapcore.sol\":5640:5644  loan */\n      dup1\n        /* \"contract/vaultswapcore.sol\":5640:5653  loan.isActive */\n      0x07\n      add\n      0x00\n      swap1\n      sload\n      swap1\n      0x0100\n      exp\n      swap1\n      div\n      0xff\n      and\n        /* \"contract/vaultswapcore.sol\":5632:5673  require(loan.isActive, \"Loan not active\") */\n      tag_262\n      jumpi\n      mload(0x40)\n      0x08c379a000000000000000000000000000000000000000000000000000000000\n      dup2\n      mstore\n      0x04\n      add\n      tag_263\n      swap1\n      tag_228\n      jump\t// in\n    tag_263:\n      mload(0x40)\n      dup1\n      swap2\n      sub\n      swap1\n      revert\n    tag_262:\n        /* \"contract/vaultswapcore.sol\":5731:5751  uint256 healthFactor */\n      0x00\n        /* \"contract/vaultswapcore.sol\":5754:5777  getHealthFactor(loanId) */\n      tag_264\n        /* \"contract/vaultswapcore.sol\":5770:5776  loanId */\n      dup4\n        /* \"contract/vaultswapcore.sol\":5754:5769  getHealthFactor */\n      tag_55\n        /* \"contract/vaultswapcore.sol\":5754:5777  getHealthFactor(loanId) */\n      jump\t// in\n    tag_264:\n        /* \"contract/vaultswapcore.sol\":5731:5777  uint256 healthFactor = getHealthFactor(loanId) */\n      swap1\n      pop\n        /* \"contract/vaultswapcore.sol\":924:927  120 */\n      0x78\n        /* \"contract/vaultswapcore.sol\":5795:5807  healthFactor */\n      dup2\n        /* \"contract/vaultswapcore.sol\":5795:5831  healthFactor < LIQUIDATION_THRESHOLD */\n      lt\n        /* \"contract/vaultswapcore.sol\":5787:5857  require(healthFactor < LIQUIDATION_THRESHOLD, \"Loan not liquidatable\") */\n      tag_265\n      jumpi\n      mload(0x40)\n      0x08c379a000000000000000000000000000000000000000000000000000000000\n      dup2\n      mstore\n      0x04\n      add\n      tag_266\n      swap1\n      tag_267\n      jump\t// in\n    tag_266:\n      mload(0x40)\n      dup1\n      swap2\n      sub\n      swap1\n      revert\n    tag_265:\n        /* \"contract/vaultswapcore.sol\":5917:5941  uint256 debtWithInterest */\n      0x00\n        /* \"contract/vaultswapcore.sol\":5966:5991  calculateInterest(loanId) */\n      tag_268\n        /* \"contract/vaultswapcore.sol\":5984:5990  loanId */\n      dup5\n        /* \"contract/vaultswapcore.sol\":5966:5983  calculateInterest */\n      tag_118\n        /* \"contract/vaultswapcore.sol\":5966:5991  calculateInterest(loanId) */\n      jump\t// in\n    tag_268:\n        /* \"contract/vaultswapcore.sol\":5944:5948  loan */\n      dup4\n        /* \"contract/vaultswapcore.sol\":5944:5963  loan.borrowedAmount */\n      0x03\n      add\n      sload\n        /* \"contract/vaultswapcore.sol\":5944:5991  loan.borrowedAmount + calculateInterest(loanId) */\n      tag_269\n      swap2\n      swap1\n      tag_195\n      jump\t// in\n    tag_269:\n        /* \"contract/vaultswapcore.sol\":5917:5991  uint256 debtWithInterest = loan.borrowedAmount + calculateInterest(loanId) */\n      swap1\n      pop\n        /* \"contract/vaultswapcore.sol\":6001:6016  uint256 penalty */\n      0x00\n        /* \"contract/vaultswapcore.sol\":6067:6070  100 */\n      0x64\n        /* \"contract/vaultswapcore.sol\":994:996  10 */\n      0x0a\n        /* \"contract/vaultswapcore.sol\":6020:6024  loan */\n      dup6\n        /* \"contract/vaultswapcore.sol\":6020:6041  loan.collateralAmount */\n      0x02\n      add\n      sload\n        /* \"contract/vaultswapcore.sol\":6020:6063  loan.collateralAmount * LIQUIDATION_PENALTY */\n      tag_270\n      swap2\n      swap1\n      tag_215\n      jump\t// in\n    tag_270:\n        /* \"contract/vaultswapcore.sol\":6019:6070  (loan.collateralAmount * LIQUIDATION_PENALTY) / 100 */\n      tag_271\n      swap2\n      swap1\n      tag_217\n      jump\t// in\n    tag_271:\n        /* \"contract/vaultswapcore.sol\":6001:6070  uint256 penalty = (loan.collateralAmount * LIQUIDATION_PENALTY) / 100 */\n      swap1\n      pop\n        /* \"contract/vaultswapcore.sol\":6080:6110  uint256 collateralToLiquidator */\n      0x00\n        /* \"contract/vaultswapcore.sol\":6137:6144  penalty */\n      dup2\n        /* \"contract/vaultswapcore.sol\":6113:6117  loan */\n      dup6\n        /* \"contract/vaultswapcore.sol\":6113:6134  loan.collateralAmount */\n      0x02\n      add\n      sload\n        /* \"contract/vaultswapcore.sol\":6113:6144  loan.collateralAmount - penalty */\n      tag_272\n      swap2\n      swap1\n      tag_249\n      jump\t// in\n    tag_272:\n        /* \"contract/vaultswapcore.sol\":6080:6144  uint256 collateralToLiquidator = loan.collateralAmount - penalty */\n      swap1\n      pop\n        /* \"contract/vaultswapcore.sol\":6225:6235  stablecoin */\n      0x03\n      0x00\n      swap1\n      sload\n      swap1\n      0x0100\n      exp\n      swap1\n      div\n      0xffffffffffffffffffffffffffffffffffffffff\n      and\n        /* \"contract/vaultswapcore.sol\":6225:6248  stablecoin.transferFrom */\n      0xffffffffffffffffffffffffffffffffffffffff\n      and\n      0x23b872dd\n        /* \"contract/vaultswapcore.sol\":6249:6259  msg.sender */\n      caller\n        /* \"contract/vaultswapcore.sol\":6269:6273  this */\n      address\n        /* \"contract/vaultswapcore.sol\":6276:6292  debtWithInterest */\n      dup7\n        /* \"contract/vaultswapcore.sol\":6225:6293  stablecoin.transferFrom(msg.sender, address(this), debtWithInterest) */\n      mload(0x40)\n      dup5\n      0xffffffff\n      and\n      0xe0\n      shl\n      dup2\n      mstore\n      0x04\n      add\n      tag_273\n      swap4\n      swap3\n      swap2\n      swap1\n      tag_183\n      jump\t// in\n    tag_273:\n      0x20\n      mload(0x40)\n      dup1\n      dup4\n      sub\n      dup2\n      0x00\n      dup8\n      gas\n      call\n      iszero\n      dup1\n      iszero\n      tag_275\n      jumpi\n      returndatacopy(0x00, 0x00, returndatasize)\n      revert(0x00, returndatasize)\n    tag_275:\n      pop\n      pop\n      pop\n      pop\n      mload(0x40)\n      returndatasize\n      not(0x1f)\n      0x1f\n      dup3\n      add\n      and\n      dup3\n      add\n      dup1\n      0x40\n      mstore\n      pop\n      dup2\n      add\n      swap1\n      tag_276\n      swap2\n      swap1\n      tag_187\n      jump\t// in\n    tag_276:\n        /* \"contract/vaultswapcore.sol\":6204:6345  require(... */\n      tag_277\n      jumpi\n      mload(0x40)\n      0x08c379a000000000000000000000000000000000000000000000000000000000\n      dup2\n      mstore\n      0x04\n      add\n      tag_278\n      swap1\n      tag_279\n      jump\t// in\n    tag_278:\n      mload(0x40)\n      dup1\n      swap2\n      sub\n      swap1\n      revert\n    tag_277:\n        /* \"contract/vaultswapcore.sol\":6430:6438  vaultBTC */\n      0x02\n      0x00\n      swap1\n      sload\n      swap1\n      0x0100\n      exp\n      swap1\n      div\n      0xffffffffffffffffffffffffffffffffffffffff\n      and\n        /* \"contract/vaultswapcore.sol\":6430:6447  vaultBTC.transfer */\n      0xffffffffffffffffffffffffffffffffffffffff\n      and\n      0xa9059cbb\n        /* \"contract/vaultswapcore.sol\":6448:6458  msg.sender */\n      caller\n        /* \"contract/vaultswapcore.sol\":6460:6482  collateralToLiquidator */\n      dup4\n        /* \"contract/vaultswapcore.sol\":6430:6483  vaultBTC.transfer(msg.sender, collateralToLiquidator) */\n      mload(0x40)\n      dup4\n      0xffffffff\n      and\n      0xe0\n      shl\n      dup2\n      mstore\n      0x04\n      add\n      tag_280\n      swap3\n      swap2\n      swap1\n      tag_198\n      jump\t// in\n    tag_280:\n      0x20\n      mload(0x40)\n      dup1\n      dup4\n      sub\n      dup2\n      0x00\n      dup8\n      gas\n      call\n      iszero\n      dup1\n      iszero\n      tag_282\n      jumpi\n      returndatacopy(0x00, 0x00, returndatasize)\n      revert(0x00, returndatasize)\n    tag_282:\n      pop\n      pop\n      pop\n      pop\n      mload(0x40)\n      returndatasize\n      not(0x1f)\n      0x1f\n      dup3\n      add\n      and\n      dup3\n      add\n      dup1\n      0x40\n      mstore\n      pop\n      dup2\n      add\n      swap1\n      tag_283\n      swap2\n      swap1\n      tag_187\n      jump\t// in\n    tag_283:\n        /* \"contract/vaultswapcore.sol\":6409:6535  require(... */\n      tag_284\n      jumpi\n      mload(0x40)\n      0x08c379a000000000000000000000000000000000000000000000000000000000\n      dup2\n      mstore\n      0x04\n      add\n      tag_285\n      swap1\n      tag_190\n      jump\t// in\n    tag_285:\n      mload(0x40)\n      dup1\n      swap2\n      sub\n      swap1\n      revert\n    tag_284:\n        /* \"contract/vaultswapcore.sol\":6595:6599  loan */\n      dup5\n        /* \"contract/vaultswapcore.sol\":6595:6614  loan.borrowedAmount */\n      0x03\n      add\n      sload\n        /* \"contract/vaultswapcore.sol\":6578:6591  totalBorrowed */\n      0x06\n      0x00\n        /* \"contract/vaultswapcore.sol\":6578:6614  totalBorrowed -= loan.borrowedAmount */\n      dup3\n      dup3\n      sload\n      tag_286\n      swap2\n      swap1\n      tag_249\n      jump\t// in\n    tag_286:\n      swap3\n      pop\n      pop\n      dup2\n      swap1\n      sstore\n      pop\n        /* \"contract/vaultswapcore.sol\":6643:6647  loan */\n      dup5\n        /* \"contract/vaultswapcore.sol\":6643:6664  loan.collateralAmount */\n      0x02\n      add\n      sload\n        /* \"contract/vaultswapcore.sol\":6624:6639  totalCollateral */\n      0x07\n      0x00\n        /* \"contract/vaultswapcore.sol\":6624:6664  totalCollateral -= loan.collateralAmount */\n      dup3\n      dup3\n      sload\n      tag_287\n      swap2\n      swap1\n      tag_249\n      jump\t// in\n    tag_287:\n      swap3\n      pop\n      pop\n      dup2\n      swap1\n      sstore\n      pop\n        /* \"contract/vaultswapcore.sol\":6690:6695  false */\n      0x00\n        /* \"contract/vaultswapcore.sol\":6674:6678  loan */\n      dup6\n        /* \"contract/vaultswapcore.sol\":6674:6687  loan.isActive */\n      0x07\n      add\n      0x00\n        /* \"contract/vaultswapcore.sol\":6674:6695  loan.isActive = false */\n      0x0100\n      exp\n      dup2\n      sload\n      dup2\n      0xff\n      mul\n      not\n      and\n      swap1\n      dup4\n      iszero\n      iszero\n      mul\n      or\n      swap1\n      sstore\n      pop\n        /* \"contract/vaultswapcore.sol\":6742:6752  msg.sender */\n      caller\n        /* \"contract/vaultswapcore.sol\":6719:6786  LoanLiquidated(loanId, msg.sender, collateralToLiquidator, penalty) */\n      0xffffffffffffffffffffffffffffffffffffffff\n      and\n        /* \"contract/vaultswapcore.sol\":6734:6740  loanId */\n      dup7\n        /* \"contract/vaultswapcore.sol\":6719:6786  LoanLiquidated(loanId, msg.sender, collateralToLiquidator, penalty) */\n      0xd1b144c94c58ceab69737edeed9e57e7a7bf0e63c3232da2b7c1e65d7ab7f3d0\n        /* \"contract/vaultswapcore.sol\":6754:6776  collateralToLiquidator */\n      dup4\n        /* \"contract/vaultswapcore.sol\":6778:6785  penalty */\n      dup6\n        /* \"contract/vaultswapcore.sol\":6719:6786  LoanLiquidated(loanId, msg.sender, collateralToLiquidator, penalty) */\n      mload(0x40)\n      tag_288\n      swap3\n      swap2\n      swap1\n      tag_206\n      jump\t// in\n    tag_288:\n      mload(0x40)\n      dup1\n      swap2\n      sub\n      swap1\n      log3\n        /* \"contract/vaultswapcore.sol\":5579:6793  {... */\n      pop\n      pop\n      pop\n      pop\n      pop\n        /* \"@openzeppelin/contracts/security/ReentrancyGuard.sol\":2303:2323  _nonReentrantAfter() */\n      tag_289\n        /* \"@openzeppelin/contracts/security/ReentrancyGuard.sol\":2303:2321  _nonReentrantAfter */\n      tag_208\n        /* \"@openzeppelin/contracts/security/ReentrancyGuard.sol\":2303:2323  _nonReentrantAfter() */\n      jump\t// in\n    tag_289:\n        /* \"contract/vaultswapcore.sol\":5522:6793  function liquidate(uint256 loanId) external nonReentrant {... */\n      pop\n      jump\t// out\n        /* \"contract/vaultswapcore.sol\":1169:1199  uint256 public totalCollateral */\n    tag_70:\n      sload(0x07)\n      dup2\n      jump\t// out\n        /* \"contract/vaultswapcore.sol\":1135:1163  uint256 public totalBorrowed */\n    tag_73:\n      sload(0x06)\n      dup2\n      jump\t// out\n        /* \"@openzeppelin/contracts/security/Pausable.sol\":1615:1699  function paused() public view virtual returns (bool) {... */\n    tag_76:\n        /* \"@openzeppelin/contracts/security/Pausable.sol\":1662:1666  bool */\n      0x00\n        /* \"@openzeppelin/contracts/security/Pausable.sol\":1685:1692  _paused */\n      0x01\n      0x14\n      swap1\n      sload\n      swap1\n      0x0100\n      exp\n      swap1\n      div\n      0xff\n      and\n        /* \"@openzeppelin/contracts/security/Pausable.sol\":1678:1692  return _paused */\n      swap1\n      pop\n        /* \"@openzeppelin/contracts/security/Pausable.sol\":1615:1699  function paused() public view virtual returns (bool) {... */\n      swap1\n      jump\t// out\n        /* \"contract/vaultswapcore.sol\":9676:9885  function setInterestRate(uint256 newRate) external onlyOwner {... */\n    tag_81:\n        /* \"@openzeppelin/contracts/access/Ownable.sol\":1531:1544  _checkOwner() */\n      tag_292\n        /* \"@openzeppelin/contracts/access/Ownable.sol\":1531:1542  _checkOwner */\n      tag_255\n        /* \"@openzeppelin/contracts/access/Ownable.sol\":1531:1544  _checkOwner() */\n      jump\t// in\n    tag_292:\n        /* \"contract/vaultswapcore.sol\":9766:9770  2000 */\n      0x07d0\n        /* \"contract/vaultswapcore.sol\":9755:9762  newRate */\n      dup2\n        /* \"contract/vaultswapcore.sol\":9755:9770  newRate <= 2000 */\n      gt\n      iszero\n        /* \"contract/vaultswapcore.sol\":9747:9788  require(newRate <= 2000, \"Rate too high\") */\n      tag_294\n      jumpi\n      mload(0x40)\n      0x08c379a000000000000000000000000000000000000000000000000000000000\n      dup2\n      mstore\n      0x04\n      add\n      tag_295\n      swap1\n      tag_296\n      jump\t// in\n    tag_295:\n      mload(0x40)\n      dup1\n      swap2\n      sub\n      swap1\n      revert\n    tag_294:\n        /* \"contract/vaultswapcore.sol\":9828:9835  newRate */\n      dup1\n        /* \"contract/vaultswapcore.sol\":9809:9825  baseInterestRate */\n      0x05\n        /* \"contract/vaultswapcore.sol\":9809:9835  baseInterestRate = newRate */\n      dup2\n      swap1\n      sstore\n      pop\n        /* \"contract/vaultswapcore.sol\":9850:9878  InterestRateUpdated(newRate) */\n      0xa90e14be5aa57b910aa6dc16c31ff1b5cda380ae25a793b0d3f74df6131a7d74\n        /* \"contract/vaultswapcore.sol\":9870:9877  newRate */\n      dup2\n        /* \"contract/vaultswapcore.sol\":9850:9878  InterestRateUpdated(newRate) */\n      mload(0x40)\n      tag_297\n      swap2\n      swap1\n      tag_51\n      jump\t// in\n    tag_297:\n      mload(0x40)\n      dup1\n      swap2\n      sub\n      swap1\n      log1\n        /* \"contract/vaultswapcore.sol\":9676:9885  function setInterestRate(uint256 newRate) external onlyOwner {... */\n      pop\n      jump\t// out\n        /* \"contract/vaultswapcore.sol\":8542:8816  function getMaxBorrowAmount(uint256 collateralAmount) public view returns (uint256) {... */\n    tag_84:\n        /* \"contract/vaultswapcore.sol\":8617:8624  uint256 */\n      0x00\n        /* \"contract/vaultswapcore.sol\":8636:8652  uint256 btcPrice */\n      0x00\n        /* \"contract/vaultswapcore.sol\":8655:8666  priceOracle */\n      0x04\n      0x00\n      swap1\n      sload\n      swap1\n      0x0100\n      exp\n      swap1\n      div\n      0xffffffffffffffffffffffffffffffffffffffff\n      and\n        /* \"contract/vaultswapcore.sol\":8655:8675  priceOracle.getPrice */\n      0xffffffffffffffffffffffffffffffffffffffff\n      and\n      0x98d5fdca\n        /* \"contract/vaultswapcore.sol\":8655:8677  priceOracle.getPrice() */\n      mload(0x40)\n      dup2\n      0xffffffff\n      and\n      0xe0\n      shl\n      dup2\n      mstore\n      0x04\n      add\n      0x20\n      mload(0x40)\n      dup1\n      dup4\n      sub\n      dup2\n      dup7\n      gas\n      staticcall\n      iszero\n      dup1\n      iszero\n      tag_300\n      jumpi\n      returndatacopy(0x00, 0x00, returndatasize)\n      revert(0x00, returndatasize)\n    tag_300:\n      pop\n      pop\n      pop\n      pop\n      mload(0x40)\n      returndatasize\n      not(0x1f)\n      0x1f\n      dup3\n      add\n      and\n      dup3\n      add\n      dup1\n      0x40\n      mstore\n      pop\n      dup2\n      add\n      swap1\n      tag_301\n      swap2\n      swap1\n      tag_167\n      jump\t// in\n    tag_301:\n        /* \"contract/vaultswapcore.sol\":8636:8677  uint256 btcPrice = priceOracle.getPrice() */\n      swap1\n      pop\n        /* \"contract/vaultswapcore.sol\":8687:8710  uint256 collateralValue */\n      0x00\n        /* \"contract/vaultswapcore.sol\":8745:8750  10**8 */\n      0x05f5e100\n        /* \"contract/vaultswapcore.sol\":8733:8741  btcPrice */\n      dup3\n        /* \"contract/vaultswapcore.sol\":8714:8730  collateralAmount */\n      dup6\n        /* \"contract/vaultswapcore.sol\":8714:8741  collateralAmount * btcPrice */\n      tag_302\n      swap2\n      swap1\n      tag_215\n      jump\t// in\n    tag_302:\n        /* \"contract/vaultswapcore.sol\":8713:8750  (collateralAmount * btcPrice) / 10**8 */\n      tag_303\n      swap2\n      swap1\n      tag_217\n      jump\t// in\n    tag_303:\n        /* \"contract/vaultswapcore.sol\":8687:8750  uint256 collateralValue = (collateralAmount * btcPrice) / 10**8 */\n      swap1\n      pop\n        /* \"contract/vaultswapcore.sol\":852:855  150 */\n      0x96\n        /* \"contract/vaultswapcore.sol\":8786:8789  100 */\n      0x64\n        /* \"contract/vaultswapcore.sol\":8768:8783  collateralValue */\n      dup3\n        /* \"contract/vaultswapcore.sol\":8768:8789  collateralValue * 100 */\n      tag_304\n      swap2\n      swap1\n      tag_215\n      jump\t// in\n    tag_304:\n        /* \"contract/vaultswapcore.sol\":8767:8809  (collateralValue * 100) / COLLATERAL_RATIO */\n      tag_305\n      swap2\n      swap1\n      tag_217\n      jump\t// in\n    tag_305:\n        /* \"contract/vaultswapcore.sol\":8760:8809  return (collateralValue * 100) / COLLATERAL_RATIO */\n      swap3\n      pop\n      pop\n      pop\n        /* \"contract/vaultswapcore.sol\":8542:8816  function getMaxBorrowAmount(uint256 collateralAmount) public view returns (uint256) {... */\n      swap2\n      swap1\n      pop\n      jump\t// out\n        /* \"contract/vaultswapcore.sol\":8952:9534  function getLoanDetails(uint256 loanId) external view returns (... */\n    tag_88:\n        /* \"contract/vaultswapcore.sol\":9024:9040  address borrower */\n      0x00\n        /* \"contract/vaultswapcore.sol\":9050:9074  uint256 collateralAmount */\n      0x00\n        /* \"contract/vaultswapcore.sol\":9084:9106  uint256 borrowedAmount */\n      0x00\n        /* \"contract/vaultswapcore.sol\":9116:9136  uint256 interestRate */\n      0x00\n        /* \"contract/vaultswapcore.sol\":9146:9166  uint256 healthFactor */\n      0x00\n        /* \"contract/vaultswapcore.sol\":9176:9199  uint256 accruedInterest */\n      0x00\n        /* \"contract/vaultswapcore.sol\":9209:9222  bool isActive */\n      0x00\n        /* \"contract/vaultswapcore.sol\":9239:9255  Loan memory loan */\n      0x00\n        /* \"contract/vaultswapcore.sol\":9258:9263  loans */\n      0x09\n        /* \"contract/vaultswapcore.sol\":9258:9271  loans[loanId] */\n      0x00\n        /* \"contract/vaultswapcore.sol\":9264:9270  loanId */\n      dup11\n        /* \"contract/vaultswapcore.sol\":9258:9271  loans[loanId] */\n      dup2\n      mstore\n      0x20\n      add\n      swap1\n      dup2\n      mstore\n      0x20\n      add\n      0x00\n      keccak256\n        /* \"contract/vaultswapcore.sol\":9239:9271  Loan memory loan = loans[loanId] */\n      mload(0x40)\n      dup1\n      0x0100\n      add\n      0x40\n      mstore\n      swap1\n      dup2\n      0x00\n      dup3\n      add\n      sload\n      dup2\n      mstore\n      0x20\n      add\n      0x01\n      dup3\n      add\n      0x00\n      swap1\n      sload\n      swap1\n      0x0100\n      exp\n      swap1\n      div\n      0xffffffffffffffffffffffffffffffffffffffff\n      and\n      0xffffffffffffffffffffffffffffffffffffffff\n      and\n      0xffffffffffffffffffffffffffffffffffffffff\n      and\n      dup2\n      mstore\n      0x20\n      add\n      0x02\n      dup3\n      add\n      sload\n      dup2\n      mstore\n      0x20\n      add\n      0x03\n      dup3\n      add\n      sload\n      dup2\n      mstore\n      0x20\n      add\n      0x04\n      dup3\n      add\n      sload\n      dup2\n      mstore\n      0x20\n      add\n      0x05\n      dup3\n      add\n      sload\n      dup2\n      mstore\n      0x20\n      add\n      0x06\n      dup3\n      add\n      sload\n      dup2\n      mstore\n      0x20\n      add\n      0x07\n      dup3\n      add\n      0x00\n      swap1\n      sload\n      swap1\n      0x0100\n      exp\n      swap1\n      div\n      0xff\n      and\n      iszero\n      iszero\n      iszero\n      iszero\n      dup2\n      mstore\n      pop\n      pop\n      swap1\n      pop\n        /* \"contract/vaultswapcore.sol\":9302:9306  loan */\n      dup1\n        /* \"contract/vaultswapcore.sol\":9302:9315  loan.borrower */\n      0x20\n      add\n      mload\n        /* \"contract/vaultswapcore.sol\":9329:9333  loan */\n      dup2\n        /* \"contract/vaultswapcore.sol\":9329:9350  loan.collateralAmount */\n      0x40\n      add\n      mload\n        /* \"contract/vaultswapcore.sol\":9364:9368  loan */\n      dup3\n        /* \"contract/vaultswapcore.sol\":9364:9383  loan.borrowedAmount */\n      0x60\n      add\n      mload\n        /* \"contract/vaultswapcore.sol\":9397:9401  loan */\n      dup4\n        /* \"contract/vaultswapcore.sol\":9397:9414  loan.interestRate */\n      0x80\n      add\n      mload\n        /* \"contract/vaultswapcore.sol\":9428:9451  getHealthFactor(loanId) */\n      tag_307\n        /* \"contract/vaultswapcore.sol\":9444:9450  loanId */\n      dup14\n        /* \"contract/vaultswapcore.sol\":9428:9443  getHealthFactor */\n      tag_55\n        /* \"contract/vaultswapcore.sol\":9428:9451  getHealthFactor(loanId) */\n      jump\t// in\n    tag_307:\n        /* \"contract/vaultswapcore.sol\":9465:9490  calculateInterest(loanId) */\n      tag_308\n        /* \"contract/vaultswapcore.sol\":9483:9489  loanId */\n      dup15\n        /* \"contract/vaultswapcore.sol\":9465:9482  calculateInterest */\n      tag_118\n        /* \"contract/vaultswapcore.sol\":9465:9490  calculateInterest(loanId) */\n      jump\t// in\n    tag_308:\n        /* \"contract/vaultswapcore.sol\":9504:9508  loan */\n      dup7\n        /* \"contract/vaultswapcore.sol\":9504:9517  loan.isActive */\n      0xe0\n      add\n      mload\n        /* \"contract/vaultswapcore.sol\":9281:9527  return (... */\n      swap8\n      pop\n      swap8\n      pop\n      swap8\n      pop\n      swap8\n      pop\n      swap8\n      pop\n      swap8\n      pop\n      swap8\n      pop\n      pop\n        /* \"contract/vaultswapcore.sol\":8952:9534  function getLoanDetails(uint256 loanId) external view returns (... */\n      swap2\n      swap4\n      swap6\n      swap8\n      swap1\n      swap3\n      swap5\n      swap7\n      pop\n      jump\t// out\n        /* \"@openzeppelin/contracts/access/Ownable.sol\":2293:2394  function renounceOwnership() public virtual onlyOwner {... */\n    tag_92:\n        /* \"@openzeppelin/contracts/access/Ownable.sol\":1531:1544  _checkOwner() */\n      tag_310\n        /* \"@openzeppelin/contracts/access/Ownable.sol\":1531:1542  _checkOwner */\n      tag_255\n        /* \"@openzeppelin/contracts/access/Ownable.sol\":1531:1544  _checkOwner() */\n      jump\t// in\n    tag_310:\n        /* \"@openzeppelin/contracts/access/Ownable.sol\":2357:2387  _transferOwnership(address(0)) */\n      tag_312\n        /* \"@openzeppelin/contracts/access/Ownable.sol\":2384:2385  0 */\n      0x00\n        /* \"@openzeppelin/contracts/access/Ownable.sol\":2357:2375  _transferOwnership */\n      tag_313\n        /* \"@openzeppelin/contracts/access/Ownable.sol\":2357:2387  _transferOwnership(address(0)) */\n      jump\t// in\n    tag_312:\n        /* \"@openzeppelin/contracts/access/Ownable.sol\":2293:2394  function renounceOwnership() public virtual onlyOwner {... */\n      jump\t// out\n        /* \"contract/vaultswapcore.sol\":9895:9956  function pause() external onlyOwner {... */\n    tag_94:\n        /* \"@openzeppelin/contracts/access/Ownable.sol\":1531:1544  _checkOwner() */\n      tag_315\n        /* \"@openzeppelin/contracts/access/Ownable.sol\":1531:1542  _checkOwner */\n      tag_255\n        /* \"@openzeppelin/contracts/access/Ownable.sol\":1531:1544  _checkOwner() */\n      jump\t// in\n    tag_315:\n        /* \"contract/vaultswapcore.sol\":9941:9949  _pause() */\n      tag_317\n        /* \"contract/vaultswapcore.sol\":9941:9947  _pause */\n      tag_318\n        /* \"contract/vaultswapcore.sol\":9941:9949  _pause() */\n      jump\t// in\n    tag_317:\n        /* \"contract/vaultswapcore.sol\":9895:9956  function pause() external onlyOwner {... */\n      jump\t// out\n        /* \"@openzeppelin/contracts/access/Ownable.sol\":1638:1723  function owner() public view virtual returns (address) {... */\n    tag_96:\n        /* \"@openzeppelin/contracts/access/Ownable.sol\":1684:1691  address */\n      0x00\n        /* \"@openzeppelin/contracts/access/Ownable.sol\":1710:1716  _owner */\n      0x01\n      0x00\n      swap1\n      sload\n      swap1\n      0x0100\n      exp\n      swap1\n      div\n      0xffffffffffffffffffffffffffffffffffffffff\n      and\n        /* \"@openzeppelin/contracts/access/Ownable.sol\":1703:1716  return _owner */\n      swap1\n      pop\n        /* \"@openzeppelin/contracts/access/Ownable.sol\":1638:1723  function owner() public view virtual returns (address) {... */\n      swap1\n      jump\t// out\n        /* \"contract/vaultswapcore.sol\":709:731  IERC20 public vaultBTC */\n    tag_100:\n      0x02\n      0x00\n      swap1\n      sload\n      swap1\n      0x0100\n      exp\n      swap1\n      div\n      0xffffffffffffffffffffffffffffffffffffffff\n      and\n      dup2\n      jump\t// out\n        /* \"contract/vaultswapcore.sol\":876:927  uint256 public constant LIQUIDATION_THRESHOLD = 120 */\n    tag_104:\n        /* \"contract/vaultswapcore.sol\":924:927  120 */\n      0x78\n        /* \"contract/vaultswapcore.sol\":876:927  uint256 public constant LIQUIDATION_THRESHOLD = 120 */\n      dup2\n      jump\t// out\n        /* \"contract/vaultswapcore.sol\":10041:10202  function emergencyWithdraw(address token, uint256 amount) external onlyOwner {... */\n    tag_109:\n        /* \"@openzeppelin/contracts/access/Ownable.sol\":1531:1544  _checkOwner() */\n      tag_321\n        /* \"@openzeppelin/contracts/access/Ownable.sol\":1531:1542  _checkOwner */\n      tag_255\n        /* \"@openzeppelin/contracts/access/Ownable.sol\":1531:1544  _checkOwner() */\n      jump\t// in\n    tag_321:\n        /* \"contract/vaultswapcore.sol\":10143:10148  token */\n      dup2\n        /* \"contract/vaultswapcore.sol\":10136:10158  IERC20(token).transfer */\n      0xffffffffffffffffffffffffffffffffffffffff\n      and\n      0xa9059cbb\n        /* \"contract/vaultswapcore.sol\":10159:10166  owner() */\n      tag_323\n        /* \"contract/vaultswapcore.sol\":10159:10164  owner */\n      tag_96\n        /* \"contract/vaultswapcore.sol\":10159:10166  owner() */\n      jump\t// in\n    tag_323:\n        /* \"contract/vaultswapcore.sol\":10168:10174  amount */\n      dup4\n        /* \"contract/vaultswapcore.sol\":10136:10175  IERC20(token).transfer(owner(), amount) */\n      mload(0x40)\n      dup4\n      0xffffffff\n      and\n      0xe0\n      shl\n      dup2\n      mstore\n      0x04\n      add\n      tag_324\n      swap3\n      swap2\n      swap1\n      tag_198\n      jump\t// in\n    tag_324:\n      0x20\n      mload(0x40)\n      dup1\n      dup4\n      sub\n      dup2\n      0x00\n      dup8\n      gas\n      call\n      iszero\n      dup1\n      iszero\n      tag_326\n      jumpi\n      returndatacopy(0x00, 0x00, returndatasize)\n      revert(0x00, returndatasize)\n    tag_326:\n      pop\n      pop\n      pop\n      pop\n      mload(0x40)\n      returndatasize\n      not(0x1f)\n      0x1f\n      dup3\n      add\n      and\n      dup3\n      add\n      dup1\n      0x40\n      mstore\n      pop\n      dup2\n      add\n      swap1\n      tag_327\n      swap2\n      swap1\n      tag_187\n      jump\t// in\n    tag_327:\n        /* \"contract/vaultswapcore.sol\":10128:10195  require(IERC20(token).transfer(owner(), amount), \"Withdraw failed\") */\n      tag_328\n      jumpi\n      mload(0x40)\n      0x08c379a000000000000000000000000000000000000000000000000000000000\n      dup2\n      mstore\n      0x04\n      add\n      tag_329\n      swap1\n      tag_330\n      jump\t// in\n    tag_329:\n      mload(0x40)\n      dup1\n      swap2\n      sub\n      swap1\n      revert\n    tag_328:\n        /* \"contract/vaultswapcore.sol\":10041:10202  function emergencyWithdraw(address token, uint256 amount) external onlyOwner {... */\n      pop\n      pop\n      jump\t// out\n        /* \"contract/vaultswapcore.sol\":948:996  uint256 public constant LIQUIDATION_PENALTY = 10 */\n    tag_111:\n        /* \"contract/vaultswapcore.sol\":994:996  10 */\n      0x0a\n        /* \"contract/vaultswapcore.sol\":948:996  uint256 public constant LIQUIDATION_PENALTY = 10 */\n      dup2\n      jump\t// out\n        /* \"contract/vaultswapcore.sol\":1205:1233  uint256 public loanIdCounter */\n    tag_114:\n      sload(0x08)\n      dup2\n      jump\t// out\n        /* \"contract/vaultswapcore.sol\":8095:8532  function calculateInterest(uint256 loanId) public view returns (uint256) {... */\n    tag_118:\n        /* \"contract/vaultswapcore.sol\":8159:8166  uint256 */\n      0x00\n        /* \"contract/vaultswapcore.sol\":8178:8194  Loan memory loan */\n      0x00\n        /* \"contract/vaultswapcore.sol\":8197:8202  loans */\n      0x09\n        /* \"contract/vaultswapcore.sol\":8197:8210  loans[loanId] */\n      0x00\n        /* \"contract/vaultswapcore.sol\":8203:8209  loanId */\n      dup5\n        /* \"contract/vaultswapcore.sol\":8197:8210  loans[loanId] */\n      dup2\n      mstore\n      0x20\n      add\n      swap1\n      dup2\n      mstore\n      0x20\n      add\n      0x00\n      keccak256\n        /* \"contract/vaultswapcore.sol\":8178:8210  Loan memory loan = loans[loanId] */\n      mload(0x40)\n      dup1\n      0x0100\n      add\n      0x40\n      mstore\n      swap1\n      dup2\n      0x00\n      dup3\n      add\n      sload\n      dup2\n      mstore\n      0x20\n      add\n      0x01\n      dup3\n      add\n      0x00\n      swap1\n      sload\n      swap1\n      0x0100\n      exp\n      swap1\n      div\n      0xffffffffffffffffffffffffffffffffffffffff\n      and\n      0xffffffffffffffffffffffffffffffffffffffff\n      and\n      0xffffffffffffffffffffffffffffffffffffffff\n      and\n      dup2\n      mstore\n      0x20\n      add\n      0x02\n      dup3\n      add\n      sload\n      dup2\n      mstore\n      0x20\n      add\n      0x03\n      dup3\n      add\n      sload\n      dup2\n      mstore\n      0x20\n      add\n      0x04\n      dup3\n      add\n      sload\n      dup2\n      mstore\n      0x20\n      add\n      0x05\n      dup3\n      add\n      sload\n      dup2\n      mstore\n      0x20\n      add\n      0x06\n      dup3\n      add\n      sload\n      dup2\n      mstore\n      0x20\n      add\n      0x07\n      dup3\n      add\n      0x00\n      swap1\n      sload\n      swap1\n      0x0100\n      exp\n      swap1\n      div\n      0xff\n      and\n      iszero\n      iszero\n      iszero\n      iszero\n      dup2\n      mstore\n      pop\n      pop\n      swap1\n      pop\n        /* \"contract/vaultswapcore.sol\":8225:8229  loan */\n      dup1\n        /* \"contract/vaultswapcore.sol\":8225:8238  loan.isActive */\n      0xe0\n      add\n      mload\n        /* \"contract/vaultswapcore.sol\":8220:8248  if (!loan.isActive) return 0 */\n      tag_332\n      jumpi\n        /* \"contract/vaultswapcore.sol\":8247:8248  0 */\n      0x00\n        /* \"contract/vaultswapcore.sol\":8240:8248  return 0 */\n      swap2\n      pop\n      pop\n      jump(tag_331)\n        /* \"contract/vaultswapcore.sol\":8220:8248  if (!loan.isActive) return 0 */\n    tag_332:\n        /* \"contract/vaultswapcore.sol\":8267:8286  uint256 timeElapsed */\n      0x00\n        /* \"contract/vaultswapcore.sol\":8307:8311  loan */\n      dup2\n        /* \"contract/vaultswapcore.sol\":8307:8330  loan.lastInterestUpdate */\n      0xc0\n      add\n      mload\n        /* \"contract/vaultswapcore.sol\":8289:8304  block.timestamp */\n      timestamp\n        /* \"contract/vaultswapcore.sol\":8289:8330  block.timestamp - loan.lastInterestUpdate */\n      tag_333\n      swap2\n      swap1\n      tag_249\n      jump\t// in\n    tag_333:\n        /* \"contract/vaultswapcore.sol\":8267:8330  uint256 timeElapsed = block.timestamp - loan.lastInterestUpdate */\n      swap1\n      pop\n        /* \"contract/vaultswapcore.sol\":8340:8362  uint256 yearlyInterest */\n      0x00\n        /* \"contract/vaultswapcore.sol\":1048:1053  10000 */\n      0x2710\n        /* \"contract/vaultswapcore.sol\":8388:8392  loan */\n      dup4\n        /* \"contract/vaultswapcore.sol\":8388:8405  loan.interestRate */\n      0x80\n      add\n      mload\n        /* \"contract/vaultswapcore.sol\":8366:8370  loan */\n      dup5\n        /* \"contract/vaultswapcore.sol\":8366:8385  loan.borrowedAmount */\n      0x60\n      add\n      mload\n        /* \"contract/vaultswapcore.sol\":8366:8405  loan.borrowedAmount * loan.interestRate */\n      tag_334\n      swap2\n      swap1\n      tag_215\n      jump\t// in\n    tag_334:\n        /* \"contract/vaultswapcore.sol\":8365:8421  (loan.borrowedAmount * loan.interestRate) / BASIS_POINTS */\n      tag_335\n      swap2\n      swap1\n      tag_217\n      jump\t// in\n    tag_335:\n        /* \"contract/vaultswapcore.sol\":8340:8421  uint256 yearlyInterest = (loan.borrowedAmount * loan.interestRate) / BASIS_POINTS */\n      swap1\n      pop\n        /* \"contract/vaultswapcore.sol\":8431:8447  uint256 interest */\n      0x00\n        /* \"contract/vaultswapcore.sol\":8483:8491  365 days */\n      0x01e13380\n        /* \"contract/vaultswapcore.sol\":8468:8479  timeElapsed */\n      dup4\n        /* \"contract/vaultswapcore.sol\":8451:8465  yearlyInterest */\n      dup4\n        /* \"contract/vaultswapcore.sol\":8451:8479  yearlyInterest * timeElapsed */\n      tag_336\n      swap2\n      swap1\n      tag_215\n      jump\t// in\n    tag_336:\n        /* \"contract/vaultswapcore.sol\":8450:8491  (yearlyInterest * timeElapsed) / 365 days */\n      tag_337\n      swap2\n      swap1\n      tag_217\n      jump\t// in\n    tag_337:\n        /* \"contract/vaultswapcore.sol\":8431:8491  uint256 interest = (yearlyInterest * timeElapsed) / 365 days */\n      swap1\n      pop\n        /* \"contract/vaultswapcore.sol\":8517:8525  interest */\n      dup1\n        /* \"contract/vaultswapcore.sol\":8510:8525  return interest */\n      swap5\n      pop\n      pop\n      pop\n      pop\n      pop\n        /* \"contract/vaultswapcore.sol\":8095:8532  function calculateInterest(uint256 loanId) public view returns (uint256) {... */\n    tag_331:\n      swap2\n      swap1\n      pop\n      jump\t// out\n        /* \"contract/vaultswapcore.sol\":6803:7426  function addCollateral(uint256 loanId, uint256 amount) external nonReentrant {... */\n    tag_122:\n        /* \"@openzeppelin/contracts/security/ReentrancyGuard.sol\":2261:2282  _nonReentrantBefore() */\n      tag_339\n        /* \"@openzeppelin/contracts/security/ReentrancyGuard.sol\":2261:2280  _nonReentrantBefore */\n      tag_152\n        /* \"@openzeppelin/contracts/security/ReentrancyGuard.sol\":2261:2282  _nonReentrantBefore() */\n      jump\t// in\n    tag_339:\n        /* \"contract/vaultswapcore.sol\":6890:6907  Loan storage loan */\n      0x00\n        /* \"contract/vaultswapcore.sol\":6910:6915  loans */\n      0x09\n        /* \"contract/vaultswapcore.sol\":6910:6923  loans[loanId] */\n      0x00\n        /* \"contract/vaultswapcore.sol\":6916:6922  loanId */\n      dup5\n        /* \"contract/vaultswapcore.sol\":6910:6923  loans[loanId] */\n      dup2\n      mstore\n      0x20\n      add\n      swap1\n      dup2\n      mstore\n      0x20\n      add\n      0x00\n      keccak256\n        /* \"contract/vaultswapcore.sol\":6890:6923  Loan storage loan = loans[loanId] */\n      swap1\n      pop\n        /* \"contract/vaultswapcore.sol\":6941:6945  loan */\n      dup1\n        /* \"contract/vaultswapcore.sol\":6941:6954  loan.isActive */\n      0x07\n      add\n      0x00\n      swap1\n      sload\n      swap1\n      0x0100\n      exp\n      swap1\n      div\n      0xff\n      and\n        /* \"contract/vaultswapcore.sol\":6933:6974  require(loan.isActive, \"Loan not active\") */\n      tag_341\n      jumpi\n      mload(0x40)\n      0x08c379a000000000000000000000000000000000000000000000000000000000\n      dup2\n      mstore\n      0x04\n      add\n      tag_342\n      swap1\n      tag_228\n      jump\t// in\n    tag_342:\n      mload(0x40)\n      dup1\n      swap2\n      sub\n      swap1\n      revert\n    tag_341:\n        /* \"contract/vaultswapcore.sol\":7009:7019  msg.sender */\n      caller\n        /* \"contract/vaultswapcore.sol\":6992:7019  loan.borrower == msg.sender */\n      0xffffffffffffffffffffffffffffffffffffffff\n      and\n        /* \"contract/vaultswapcore.sol\":6992:6996  loan */\n      dup2\n        /* \"contract/vaultswapcore.sol\":6992:7005  loan.borrower */\n      0x01\n      add\n      0x00\n      swap1\n      sload\n      swap1\n      0x0100\n      exp\n      swap1\n      div\n      0xffffffffffffffffffffffffffffffffffffffff\n      and\n        /* \"contract/vaultswapcore.sol\":6992:7019  loan.borrower == msg.sender */\n      0xffffffffffffffffffffffffffffffffffffffff\n      and\n      eq\n        /* \"contract/vaultswapcore.sol\":6984:7038  require(loan.borrower == msg.sender, \"Not loan owner\") */\n      tag_343\n      jumpi\n      mload(0x40)\n      0x08c379a000000000000000000000000000000000000000000000000000000000\n      dup2\n      mstore\n      0x04\n      add\n      tag_344\n      swap1\n      tag_231\n      jump\t// in\n    tag_344:\n      mload(0x40)\n      dup1\n      swap2\n      sub\n      swap1\n      revert\n    tag_343:\n        /* \"contract/vaultswapcore.sol\":7065:7066  0 */\n      0x00\n        /* \"contract/vaultswapcore.sol\":7056:7062  amount */\n      dup3\n        /* \"contract/vaultswapcore.sol\":7056:7066  amount > 0 */\n      gt\n        /* \"contract/vaultswapcore.sol\":7048:7089  require(amount > 0, \"Amount must be > 0\") */\n      tag_345\n      jumpi\n      mload(0x40)\n      0x08c379a000000000000000000000000000000000000000000000000000000000\n      dup2\n      mstore\n      0x04\n      add\n      tag_346\n      swap1\n      tag_347\n      jump\t// in\n    tag_346:\n      mload(0x40)\n      dup1\n      swap2\n      sub\n      swap1\n      revert\n    tag_345:\n        /* \"contract/vaultswapcore.sol\":7171:7179  vaultBTC */\n      0x02\n      0x00\n      swap1\n      sload\n      swap1\n      0x0100\n      exp\n      swap1\n      div\n      0xffffffffffffffffffffffffffffffffffffffff\n      and\n        /* \"contract/vaultswapcore.sol\":7171:7192  vaultBTC.transferFrom */\n      0xffffffffffffffffffffffffffffffffffffffff\n      and\n      0x23b872dd\n        /* \"contract/vaultswapcore.sol\":7193:7203  msg.sender */\n      caller\n        /* \"contract/vaultswapcore.sol\":7213:7217  this */\n      address\n        /* \"contract/vaultswapcore.sol\":7220:7226  amount */\n      dup6\n        /* \"contract/vaultswapcore.sol\":7171:7227  vaultBTC.transferFrom(msg.sender, address(this), amount) */\n      mload(0x40)\n      dup5\n      0xffffffff\n      and\n      0xe0\n      shl\n      dup2\n      mstore\n      0x04\n      add\n      tag_348\n      swap4\n      swap3\n      swap2\n      swap1\n      tag_183\n      jump\t// in\n    tag_348:\n      0x20\n      mload(0x40)\n      dup1\n      dup4\n      sub\n      dup2\n      0x00\n      dup8\n      gas\n      call\n      iszero\n      dup1\n      iszero\n      tag_350\n      jumpi\n      returndatacopy(0x00, 0x00, returndatasize)\n      revert(0x00, returndatasize)\n    tag_350:\n      pop\n      pop\n      pop\n      pop\n      mload(0x40)\n      returndatasize\n      not(0x1f)\n      0x1f\n      dup3\n      add\n      and\n      dup3\n      add\n      dup1\n      0x40\n      mstore\n      pop\n      dup2\n      add\n      swap1\n      tag_351\n      swap2\n      swap1\n      tag_187\n      jump\t// in\n    tag_351:\n        /* \"contract/vaultswapcore.sol\":7150:7279  require(... */\n      tag_352\n      jumpi\n      mload(0x40)\n      0x08c379a000000000000000000000000000000000000000000000000000000000\n      dup2\n      mstore\n      0x04\n      add\n      tag_353\n      swap1\n      tag_190\n      jump\t// in\n    tag_353:\n      mload(0x40)\n      dup1\n      swap2\n      sub\n      swap1\n      revert\n    tag_352:\n        /* \"contract/vaultswapcore.sol\":7323:7329  amount */\n      dup2\n        /* \"contract/vaultswapcore.sol\":7298:7302  loan */\n      dup2\n        /* \"contract/vaultswapcore.sol\":7298:7319  loan.collateralAmount */\n      0x02\n      add\n      0x00\n        /* \"contract/vaultswapcore.sol\":7298:7329  loan.collateralAmount += amount */\n      dup3\n      dup3\n      sload\n      tag_354\n      swap2\n      swap1\n      tag_195\n      jump\t// in\n    tag_354:\n      swap3\n      pop\n      pop\n      dup2\n      swap1\n      sstore\n      pop\n        /* \"contract/vaultswapcore.sol\":7358:7364  amount */\n      dup2\n        /* \"contract/vaultswapcore.sol\":7339:7354  totalCollateral */\n      0x07\n      0x00\n        /* \"contract/vaultswapcore.sol\":7339:7364  totalCollateral += amount */\n      dup3\n      dup3\n      sload\n      tag_355\n      swap2\n      swap1\n      tag_195\n      jump\t// in\n    tag_355:\n      swap3\n      pop\n      pop\n      dup2\n      swap1\n      sstore\n      pop\n        /* \"contract/vaultswapcore.sol\":7404:7410  loanId */\n      dup3\n        /* \"contract/vaultswapcore.sol\":7388:7419  CollateralAdded(loanId, amount) */\n      0x244160b15e69cc411f041d94ae7fab6f6bba85dade8403216c05ff4b920d5449\n        /* \"contract/vaultswapcore.sol\":7412:7418  amount */\n      dup4\n        /* \"contract/vaultswapcore.sol\":7388:7419  CollateralAdded(loanId, amount) */\n      mload(0x40)\n      tag_356\n      swap2\n      swap1\n      tag_51\n      jump\t// in\n    tag_356:\n      mload(0x40)\n      dup1\n      swap2\n      sub\n      swap1\n      log2\n        /* \"contract/vaultswapcore.sol\":6880:7426  {... */\n      pop\n        /* \"@openzeppelin/contracts/security/ReentrancyGuard.sol\":2303:2323  _nonReentrantAfter() */\n      tag_357\n        /* \"@openzeppelin/contracts/security/ReentrancyGuard.sol\":2303:2321  _nonReentrantAfter */\n      tag_208\n        /* \"@openzeppelin/contracts/security/ReentrancyGuard.sol\":2303:2323  _nonReentrantAfter() */\n      jump\t// in\n    tag_357:\n        /* \"contract/vaultswapcore.sol\":6803:7426  function addCollateral(uint256 loanId, uint256 amount) external nonReentrant {... */\n      pop\n      pop\n      jump\t// out\n        /* \"contract/vaultswapcore.sol\":1064:1101  uint256 public baseInterestRate = 550 */\n    tag_124:\n      sload(0x05)\n      dup2\n      jump\t// out\n        /* \"contract/vaultswapcore.sol\":1287:1333  mapping(address => uint256[]) public userLoans */\n    tag_128:\n      mstore(0x20, 0x0a)\n      dup2\n      0x00\n      mstore\n      keccak256(0x00, 0x40)\n      dup2\n      dup2\n      sload\n      dup2\n      lt\n      tag_358\n      jumpi\n      0x00\n      dup1\n      revert\n    tag_358:\n      swap1\n      0x00\n      mstore\n      keccak256(0x00, 0x20)\n      add\n      0x00\n      swap2\n      pop\n      swap2\n      pop\n      pop\n      sload\n      dup2\n      jump\t// out\n        /* \"contract/vaultswapcore.sol\":809:855  uint256 public constant COLLATERAL_RATIO = 150 */\n    tag_131:\n        /* \"contract/vaultswapcore.sol\":852:855  150 */\n      0x96\n        /* \"contract/vaultswapcore.sol\":809:855  uint256 public constant COLLATERAL_RATIO = 150 */\n      dup2\n      jump\t// out\n        /* \"contract/vaultswapcore.sol\":1244:1281  mapping(uint256 => Loan) public loans */\n    tag_135:\n      mstore(0x20, 0x09)\n      dup1\n      0x00\n      mstore\n      keccak256(0x00, 0x40)\n      0x00\n      swap2\n      pop\n      swap1\n      pop\n      dup1\n      0x00\n      add\n      sload\n      swap1\n      dup1\n      0x01\n      add\n      0x00\n      swap1\n      sload\n      swap1\n      0x0100\n      exp\n      swap1\n      div\n      0xffffffffffffffffffffffffffffffffffffffff\n      and\n      swap1\n      dup1\n      0x02\n      add\n      sload\n      swap1\n      dup1\n      0x03\n      add\n      sload\n      swap1\n      dup1\n      0x04\n      add\n      sload\n      swap1\n      dup1\n      0x05\n      add\n      sload\n      swap1\n      dup1\n      0x06\n      add\n      sload\n      swap1\n      dup1\n      0x07\n      add\n      0x00\n      swap1\n      sload\n      swap1\n      0x0100\n      exp\n      swap1\n      div\n      0xff\n      and\n      swap1\n      pop\n      dup9\n      jump\t// out\n        /* \"contract/vaultswapcore.sol\":1009:1053  uint256 public constant BASIS_POINTS = 10000 */\n    tag_139:\n        /* \"contract/vaultswapcore.sol\":1048:1053  10000 */\n      0x2710\n        /* \"contract/vaultswapcore.sol\":1009:1053  uint256 public constant BASIS_POINTS = 10000 */\n      dup2\n      jump\t// out\n        /* \"contract/vaultswapcore.sol\":737:761  IERC20 public stablecoin */\n    tag_142:\n      0x03\n      0x00\n      swap1\n      sload\n      swap1\n      0x0100\n      exp\n      swap1\n      div\n      0xffffffffffffffffffffffffffffffffffffffff\n      and\n      dup2\n      jump\t// out\n        /* \"@openzeppelin/contracts/access/Ownable.sol\":2543:2758  function transferOwnership(address newOwner) public virtual onlyOwner {... */\n    tag_146:\n        /* \"@openzeppelin/contracts/access/Ownable.sol\":1531:1544  _checkOwner() */\n      tag_361\n        /* \"@openzeppelin/contracts/access/Ownable.sol\":1531:1542  _checkOwner */\n      tag_255\n        /* \"@openzeppelin/contracts/access/Ownable.sol\":1531:1544  _checkOwner() */\n      jump\t// in\n    tag_361:\n        /* \"@openzeppelin/contracts/access/Ownable.sol\":2647:2648  0 */\n      0x00\n        /* \"@openzeppelin/contracts/access/Ownable.sol\":2627:2649  newOwner == address(0) */\n      0xffffffffffffffffffffffffffffffffffffffff\n      and\n        /* \"@openzeppelin/contracts/access/Ownable.sol\":2627:2635  newOwner */\n      dup2\n        /* \"@openzeppelin/contracts/access/Ownable.sol\":2627:2649  newOwner == address(0) */\n      0xffffffffffffffffffffffffffffffffffffffff\n      and\n      sub\n        /* \"@openzeppelin/contracts/access/Ownable.sol\":2623:2714  if (newOwner == address(0)) {... */\n      tag_363\n      jumpi\n        /* \"@openzeppelin/contracts/access/Ownable.sol\":2700:2701  0 */\n      0x00\n        /* \"@openzeppelin/contracts/access/Ownable.sol\":2672:2703  OwnableInvalidOwner(address(0)) */\n      mload(0x40)\n      0x1e4fbdf700000000000000000000000000000000000000000000000000000000\n      dup2\n      mstore\n      0x04\n      add\n      tag_364\n      swap2\n      swap1\n      tag_98\n      jump\t// in\n    tag_364:\n      mload(0x40)\n      dup1\n      swap2\n      sub\n      swap1\n      revert\n        /* \"@openzeppelin/contracts/access/Ownable.sol\":2623:2714  if (newOwner == address(0)) {... */\n    tag_363:\n        /* \"@openzeppelin/contracts/access/Ownable.sol\":2723:2751  _transferOwnership(newOwner) */\n      tag_365\n        /* \"@openzeppelin/contracts/access/Ownable.sol\":2742:2750  newOwner */\n      dup2\n        /* \"@openzeppelin/contracts/access/Ownable.sol\":2723:2741  _transferOwnership */\n      tag_313\n        /* \"@openzeppelin/contracts/access/Ownable.sol\":2723:2751  _transferOwnership(newOwner) */\n      jump\t// in\n    tag_365:\n        /* \"@openzeppelin/contracts/access/Ownable.sol\":2543:2758  function transferOwnership(address newOwner) public virtual onlyOwner {... */\n      pop\n      jump\t// out\n        /* \"@openzeppelin/contracts/security/ReentrancyGuard.sol\":2336:2623  function _nonReentrantBefore() private {... */\n    tag_152:\n        /* \"@openzeppelin/contracts/security/ReentrancyGuard.sol\":1759:1760  2 */\n      0x02\n        /* \"@openzeppelin/contracts/security/ReentrancyGuard.sol\":2468:2475  _status */\n      sload(0x00)\n        /* \"@openzeppelin/contracts/security/ReentrancyGuard.sol\":2468:2487  _status != _ENTERED */\n      sub\n        /* \"@openzeppelin/contracts/security/ReentrancyGuard.sol\":2460:2523  require(_status != _ENTERED, \"ReentrancyGuard: reentrant call\") */\n      tag_367\n      jumpi\n      mload(0x40)\n      0x08c379a000000000000000000000000000000000000000000000000000000000\n      dup2\n      mstore\n      0x04\n      add\n      tag_368\n      swap1\n      tag_369\n      jump\t// in\n    tag_368:\n      mload(0x40)\n      dup1\n      swap2\n      sub\n      swap1\n      revert\n    tag_367:\n        /* \"@openzeppelin/contracts/security/ReentrancyGuard.sol\":1759:1760  2 */\n      0x02\n        /* \"@openzeppelin/contracts/security/ReentrancyGuard.sol\":2598:2605  _status */\n      0x00\n        /* \"@openzeppelin/contracts/security/ReentrancyGuard.sol\":2598:2616  _status = _ENTERED */\n      dup2\n      swap1\n      sstore\n      pop\n        /* \"@openzeppelin/contracts/security/ReentrancyGuard.sol\":2336:2623  function _nonReentrantBefore() private {... */\n      jump\t// out\n        /* \"@openzeppelin/contracts/security/Pausable.sol\":1767:1873  function _requireNotPaused() internal view virtual {... */\n    tag_155:\n        /* \"@openzeppelin/contracts/security/Pausable.sol\":1837:1845  paused() */\n      tag_371\n        /* \"@openzeppelin/contracts/security/Pausable.sol\":1837:1843  paused */\n      tag_76\n        /* \"@openzeppelin/contracts/security/Pausable.sol\":1837:1845  paused() */\n      jump\t// in\n    tag_371:\n        /* \"@openzeppelin/contracts/security/Pausable.sol\":1836:1845  !paused() */\n      iszero\n        /* \"@openzeppelin/contracts/security/Pausable.sol\":1828:1866  require(!paused(), \"Pausable: paused\") */\n      tag_372\n      jumpi\n      mload(0x40)\n      0x08c379a000000000000000000000000000000000000000000000000000000000\n      dup2\n      mstore\n      0x04\n      add\n      tag_373\n      swap1\n      tag_374\n      jump\t// in\n    tag_373:\n      mload(0x40)\n      dup1\n      swap2\n      sub\n      swap1\n      revert\n    tag_372:\n        /* \"@openzeppelin/contracts/security/Pausable.sol\":1767:1873  function _requireNotPaused() internal view virtual {... */\n      jump\t// out\n        /* \"@openzeppelin/contracts/security/ReentrancyGuard.sol\":2629:2838  function _nonReentrantAfter() private {... */\n    tag_208:\n        /* \"@openzeppelin/contracts/security/ReentrancyGuard.sol\":1716:1717  1 */\n      0x01\n        /* \"@openzeppelin/contracts/security/ReentrancyGuard.sol\":2809:2816  _status */\n      0x00\n        /* \"@openzeppelin/contracts/security/ReentrancyGuard.sol\":2809:2831  _status = _NOT_ENTERED */\n      dup2\n      swap1\n      sstore\n      pop\n        /* \"@openzeppelin/contracts/security/ReentrancyGuard.sol\":2629:2838  function _nonReentrantAfter() private {... */\n      jump\t// out\n        /* \"@openzeppelin/contracts/access/Ownable.sol\":1796:1958  function _checkOwner() internal view virtual {... */\n    tag_255:\n        /* \"@openzeppelin/contracts/access/Ownable.sol\":1866:1878  _msgSender() */\n      tag_377\n        /* \"@openzeppelin/contracts/access/Ownable.sol\":1866:1876  _msgSender */\n      tag_378\n        /* \"@openzeppelin/contracts/access/Ownable.sol\":1866:1878  _msgSender() */\n      jump\t// in\n    tag_377:\n        /* \"@openzeppelin/contracts/access/Ownable.sol\":1855:1878  owner() != _msgSender() */\n      0xffffffffffffffffffffffffffffffffffffffff\n      and\n        /* \"@openzeppelin/contracts/access/Ownable.sol\":1855:1862  owner() */\n      tag_379\n        /* \"@openzeppelin/contracts/access/Ownable.sol\":1855:1860  owner */\n      tag_96\n        /* \"@openzeppelin/contracts/access/Ownable.sol\":1855:1862  owner() */\n      jump\t// in\n    tag_379:\n        /* \"@openzeppelin/contracts/access/Ownable.sol\":1855:1878  owner() != _msgSender() */\n      0xffffffffffffffffffffffffffffffffffffffff\n      and\n      eq\n        /* \"@openzeppelin/contracts/access/Ownable.sol\":1851:1952  if (owner() != _msgSender()) {... */\n      tag_380\n      jumpi\n        /* \"@openzeppelin/contracts/access/Ownable.sol\":1928:1940  _msgSender() */\n      tag_381\n        /* \"@openzeppelin/contracts/access/Ownable.sol\":1928:1938  _msgSender */\n      tag_378\n        /* \"@openzeppelin/contracts/access/Ownable.sol\":1928:1940  _msgSender() */\n      jump\t// in\n    tag_381:\n        /* \"@openzeppelin/contracts/access/Ownable.sol\":1901:1941  OwnableUnauthorizedAccount(_msgSender()) */\n      mload(0x40)\n      0x118cdaa700000000000000000000000000000000000000000000000000000000\n      dup2\n      mstore\n      0x04\n      add\n      tag_382\n      swap2\n      swap1\n      tag_98\n      jump\t// in\n    tag_382:\n      mload(0x40)\n      dup1\n      swap2\n      sub\n      swap1\n      revert\n        /* \"@openzeppelin/contracts/access/Ownable.sol\":1851:1952  if (owner() != _msgSender()) {... */\n    tag_380:\n        /* \"@openzeppelin/contracts/access/Ownable.sol\":1796:1958  function _checkOwner() internal view virtual {... */\n      jump\t// out\n        /* \"@openzeppelin/contracts/security/Pausable.sol\":2433:2550  function _unpause() internal virtual whenPaused {... */\n    tag_258:\n        /* \"@openzeppelin/contracts/security/Pausable.sol\":1486:1502  _requirePaused() */\n      tag_384\n        /* \"@openzeppelin/contracts/security/Pausable.sol\":1486:1500  _requirePaused */\n      tag_385\n        /* \"@openzeppelin/contracts/security/Pausable.sol\":1486:1502  _requirePaused() */\n      jump\t// in\n    tag_384:\n        /* \"@openzeppelin/contracts/security/Pausable.sol\":2501:2506  false */\n      0x00\n        /* \"@openzeppelin/contracts/security/Pausable.sol\":2491:2498  _paused */\n      0x01\n      0x14\n        /* \"@openzeppelin/contracts/security/Pausable.sol\":2491:2506  _paused = false */\n      0x0100\n      exp\n      dup2\n      sload\n      dup2\n      0xff\n      mul\n      not\n      and\n      swap1\n      dup4\n      iszero\n      iszero\n      mul\n      or\n      swap1\n      sstore\n      pop\n        /* \"@openzeppelin/contracts/security/Pausable.sol\":2521:2543  Unpaused(_msgSender()) */\n      0x5db9ee0a495bf2e6ff9c91a7834c1ba4fdd244a5e8aa4e537bd38aeae4b073aa\n        /* \"@openzeppelin/contracts/security/Pausable.sol\":2530:2542  _msgSender() */\n      tag_387\n        /* \"@openzeppelin/contracts/security/Pausable.sol\":2530:2540  _msgSender */\n      tag_378\n        /* \"@openzeppelin/contracts/security/Pausable.sol\":2530:2542  _msgSender() */\n      jump\t// in\n    tag_387:\n        /* \"@openzeppelin/contracts/security/Pausable.sol\":2521:2543  Unpaused(_msgSender()) */\n      mload(0x40)\n      tag_388\n      swap2\n      swap1\n      tag_98\n      jump\t// in\n    tag_388:\n      mload(0x40)\n      dup1\n      swap2\n      sub\n      swap1\n      log1\n        /* \"@openzeppelin/contracts/security/Pausable.sol\":2433:2550  function _unpause() internal virtual whenPaused {... */\n      jump\t// out\n        /* \"@openzeppelin/contracts/access/Ownable.sol\":2912:3099  function _transferOwnership(address newOwner) internal virtual {... */\n    tag_313:\n        /* \"@openzeppelin/contracts/access/Ownable.sol\":2985:3001  address oldOwner */\n      0x00\n        /* \"@openzeppelin/contracts/access/Ownable.sol\":3004:3010  _owner */\n      0x01\n      0x00\n      swap1\n      sload\n      swap1\n      0x0100\n      exp\n      swap1\n      div\n      0xffffffffffffffffffffffffffffffffffffffff\n      and\n        /* \"@openzeppelin/contracts/access/Ownable.sol\":2985:3010  address oldOwner = _owner */\n      swap1\n      pop\n        /* \"@openzeppelin/contracts/access/Ownable.sol\":3029:3037  newOwner */\n      dup2\n        /* \"@openzeppelin/contracts/access/Ownable.sol\":3020:3026  _owner */\n      0x01\n      0x00\n        /* \"@openzeppelin/contracts/access/Ownable.sol\":3020:3037  _owner = newOwner */\n      0x0100\n      exp\n      dup2\n      sload\n      dup2\n      0xffffffffffffffffffffffffffffffffffffffff\n      mul\n      not\n      and\n      swap1\n      dup4\n      0xffffffffffffffffffffffffffffffffffffffff\n      and\n      mul\n      or\n      swap1\n      sstore\n      pop\n        /* \"@openzeppelin/contracts/access/Ownable.sol\":3083:3091  newOwner */\n      dup2\n        /* \"@openzeppelin/contracts/access/Ownable.sol\":3052:3092  OwnershipTransferred(oldOwner, newOwner) */\n      0xffffffffffffffffffffffffffffffffffffffff\n      and\n        /* \"@openzeppelin/contracts/access/Ownable.sol\":3073:3081  oldOwner */\n      dup2\n        /* \"@openzeppelin/contracts/access/Ownable.sol\":3052:3092  OwnershipTransferred(oldOwner, newOwner) */\n      0xffffffffffffffffffffffffffffffffffffffff\n      and\n      0x8be0079c531659141344cd1fd0a4f28419497f9722a3daafe3b4186f6b6457e0\n      mload(0x40)\n      mload(0x40)\n      dup1\n      swap2\n      sub\n      swap1\n      log3\n        /* \"@openzeppelin/contracts/access/Ownable.sol\":2975:3099  {... */\n      pop\n        /* \"@openzeppelin/contracts/access/Ownable.sol\":2912:3099  function _transferOwnership(address newOwner) internal virtual {... */\n      pop\n      jump\t// out\n        /* \"@openzeppelin/contracts/security/Pausable.sol\":2186:2301  function _pause() internal virtual whenNotPaused {... */\n    tag_318:\n        /* \"@openzeppelin/contracts/security/Pausable.sol\":1239:1258  _requireNotPaused() */\n      tag_391\n        /* \"@openzeppelin/contracts/security/Pausable.sol\":1239:1256  _requireNotPaused */\n      tag_155\n        /* \"@openzeppelin/contracts/security/Pausable.sol\":1239:1258  _requireNotPaused() */\n      jump\t// in\n    tag_391:\n        /* \"@openzeppelin/contracts/security/Pausable.sol\":2255:2259  true */\n      0x01\n        /* \"@openzeppelin/contracts/security/Pausable.sol\":2245:2252  _paused */\n      dup1\n      0x14\n        /* \"@openzeppelin/contracts/security/Pausable.sol\":2245:2259  _paused = true */\n      0x0100\n      exp\n      dup2\n      sload\n      dup2\n      0xff\n      mul\n      not\n      and\n      swap1\n      dup4\n      iszero\n      iszero\n      mul\n      or\n      swap1\n      sstore\n      pop\n        /* \"@openzeppelin/contracts/security/Pausable.sol\":2274:2294  Paused(_msgSender()) */\n      0x62e78cea01bee320cd4e420270b5ea74000d11b0c9f74754ebdbfc544b05a258\n        /* \"@openzeppelin/contracts/security/Pausable.sol\":2281:2293  _msgSender() */\n      tag_393\n        /* \"@openzeppelin/contracts/security/Pausable.sol\":2281:2291  _msgSender */\n      tag_378\n        /* \"@openzeppelin/contracts/security/Pausable.sol\":2281:2293  _msgSender() */\n      jump\t// in\n    tag_393:\n        /* \"@openzeppelin/contracts/security/Pausable.sol\":2274:2294  Paused(_msgSender()) */\n      mload(0x40)\n      tag_394\n      swap2\n      swap1\n      tag_98\n      jump\t// in\n    tag_394:\n      mload(0x40)\n      dup1\n      swap2\n      sub\n      swap1\n      log1\n        /* \"@openzeppelin/contracts/security/Pausable.sol\":2186:2301  function _pause() internal virtual whenNotPaused {... */\n      jump\t// out\n        /* \"@openzeppelin/contracts/utils/Context.sol\":656:752  function _msgSender() internal view virtual returns (address) {... */\n    tag_378:\n        /* \"@openzeppelin/contracts/utils/Context.sol\":709:716  address */\n      0x00\n        /* \"@openzeppelin/contracts/utils/Context.sol\":735:745  msg.sender */\n      caller\n        /* \"@openzeppelin/contracts/utils/Context.sol\":728:745  return msg.sender */\n      swap1\n      pop\n        /* \"@openzeppelin/contracts/utils/Context.sol\":656:752  function _msgSender() internal view virtual returns (address) {... */\n      swap1\n      jump\t// out\n        /* \"@openzeppelin/contracts/security/Pausable.sol\":1945:2051  function _requirePaused() internal view virtual {... */\n    tag_385:\n        /* \"@openzeppelin/contracts/security/Pausable.sol\":2011:2019  paused() */\n      tag_397\n        /* \"@openzeppelin/contracts/security/Pausable.sol\":2011:2017  paused */\n      tag_76\n        /* \"@openzeppelin/contracts/security/Pausable.sol\":2011:2019  paused() */\n      jump\t// in\n    tag_397:\n        /* \"@openzeppelin/contracts/security/Pausable.sol\":2003:2044  require(paused(), \"Pausable: not paused\") */\n      tag_398\n      jumpi\n      mload(0x40)\n      0x08c379a000000000000000000000000000000000000000000000000000000000\n      dup2\n      mstore\n      0x04\n      add\n      tag_399\n      swap1\n      tag_400\n      jump\t// in\n    tag_399:\n      mload(0x40)\n      dup1\n      swap2\n      sub\n      swap1\n      revert\n    tag_398:\n        /* \"@openzeppelin/contracts/security/Pausable.sol\":1945:2051  function _requirePaused() internal view virtual {... */\n      jump\t// out\n        /* \"#utility.yul\":88:205   */\n    tag_402:\n        /* \"#utility.yul\":197:198   */\n      0x00\n        /* \"#utility.yul\":194:195   */\n      0x00\n        /* \"#utility.yul\":187:199   */\n      revert\n        /* \"#utility.yul\":334:460   */\n    tag_404:\n        /* \"#utility.yul\":371:378   */\n      0x00\n        /* \"#utility.yul\":411:453   */\n      0xffffffffffffffffffffffffffffffffffffffff\n        /* \"#utility.yul\":404:409   */\n      dup3\n        /* \"#utility.yul\":400:454   */\n      and\n        /* \"#utility.yul\":389:454   */\n      swap1\n      pop\n        /* \"#utility.yul\":334:460   */\n      swap2\n      swap1\n      pop\n      jump\t// out\n        /* \"#utility.yul\":466:562   */\n    tag_405:\n        /* \"#utility.yul\":503:510   */\n      0x00\n        /* \"#utility.yul\":532:556   */\n      tag_479\n        /* \"#utility.yul\":550:555   */\n      dup3\n        /* \"#utility.yul\":532:556   */\n      tag_404\n      jump\t// in\n    tag_479:\n        /* \"#utility.yul\":521:556   */\n      swap1\n      pop\n        /* \"#utility.yul\":466:562   */\n      swap2\n      swap1\n      pop\n      jump\t// out\n        /* \"#utility.yul\":568:690   */\n    tag_406:\n        /* \"#utility.yul\":641:665   */\n      tag_481\n        /* \"#utility.yul\":659:664   */\n      dup2\n        /* \"#utility.yul\":641:665   */\n      tag_405\n      jump\t// in\n    tag_481:\n        /* \"#utility.yul\":634:639   */\n      dup2\n        /* \"#utility.yul\":631:666   */\n      eq\n        /* \"#utility.yul\":621:684   */\n      tag_482\n      jumpi\n        /* \"#utility.yul\":680:681   */\n      0x00\n        /* \"#utility.yul\":677:678   */\n      0x00\n        /* \"#utility.yul\":670:682   */\n      revert\n        /* \"#utility.yul\":621:684   */\n    tag_482:\n        /* \"#utility.yul\":568:690   */\n      pop\n      jump\t// out\n        /* \"#utility.yul\":696:835   */\n    tag_407:\n        /* \"#utility.yul\":742:747   */\n      0x00\n        /* \"#utility.yul\":780:786   */\n      dup2\n        /* \"#utility.yul\":767:787   */\n      calldataload\n        /* \"#utility.yul\":758:787   */\n      swap1\n      pop\n        /* \"#utility.yul\":796:829   */\n      tag_484\n        /* \"#utility.yul\":823:828   */\n      dup2\n        /* \"#utility.yul\":796:829   */\n      tag_406\n      jump\t// in\n    tag_484:\n        /* \"#utility.yul\":696:835   */\n      swap3\n      swap2\n      pop\n      pop\n      jump\t// out\n        /* \"#utility.yul\":841:1170   */\n    tag_42:\n        /* \"#utility.yul\":900:906   */\n      0x00\n        /* \"#utility.yul\":949:951   */\n      0x20\n        /* \"#utility.yul\":937:946   */\n      dup3\n        /* \"#utility.yul\":928:935   */\n      dup5\n        /* \"#utility.yul\":924:947   */\n      sub\n        /* \"#utility.yul\":920:952   */\n      slt\n        /* \"#utility.yul\":917:1036   */\n      iszero\n      tag_486\n      jumpi\n        /* \"#utility.yul\":955:1034   */\n      tag_487\n      tag_402\n      jump\t// in\n    tag_487:\n        /* \"#utility.yul\":917:1036   */\n    tag_486:\n        /* \"#utility.yul\":1075:1076   */\n      0x00\n        /* \"#utility.yul\":1100:1153   */\n      tag_488\n        /* \"#utility.yul\":1145:1152   */\n      dup5\n        /* \"#utility.yul\":1136:1142   */\n      dup3\n        /* \"#utility.yul\":1125:1134   */\n      dup6\n        /* \"#utility.yul\":1121:1143   */\n      add\n        /* \"#utility.yul\":1100:1153   */\n      tag_407\n      jump\t// in\n    tag_488:\n        /* \"#utility.yul\":1090:1153   */\n      swap2\n      pop\n        /* \"#utility.yul\":1046:1163   */\n      pop\n        /* \"#utility.yul\":841:1170   */\n      swap3\n      swap2\n      pop\n      pop\n      jump\t// out\n        /* \"#utility.yul\":1176:1290   */\n    tag_408:\n        /* \"#utility.yul\":1243:1249   */\n      0x00\n        /* \"#utility.yul\":1277:1282   */\n      dup2\n        /* \"#utility.yul\":1271:1283   */\n      mload\n        /* \"#utility.yul\":1261:1283   */\n      swap1\n      pop\n        /* \"#utility.yul\":1176:1290   */\n      swap2\n      swap1\n      pop\n      jump\t// out\n        /* \"#utility.yul\":1296:1480   */\n    tag_409:\n        /* \"#utility.yul\":1395:1406   */\n      0x00\n        /* \"#utility.yul\":1429:1435   */\n      dup3\n        /* \"#utility.yul\":1424:1427   */\n      dup3\n        /* \"#utility.yul\":1417:1436   */\n      mstore\n        /* \"#utility.yul\":1469:1473   */\n      0x20\n        /* \"#utility.yul\":1464:1467   */\n      dup3\n        /* \"#utility.yul\":1460:1474   */\n      add\n        /* \"#utility.yul\":1445:1474   */\n      swap1\n      pop\n        /* \"#utility.yul\":1296:1480   */\n      swap3\n      swap2\n      pop\n      pop\n      jump\t// out\n        /* \"#utility.yul\":1486:1618   */\n    tag_410:\n        /* \"#utility.yul\":1553:1557   */\n      0x00\n        /* \"#utility.yul\":1576:1579   */\n      dup2\n        /* \"#utility.yul\":1568:1579   */\n      swap1\n      pop\n        /* \"#utility.yul\":1606:1610   */\n      0x20\n        /* \"#utility.yul\":1601:1604   */\n      dup3\n        /* \"#utility.yul\":1597:1611   */\n      add\n        /* \"#utility.yul\":1589:1611   */\n      swap1\n      pop\n        /* \"#utility.yul\":1486:1618   */\n      swap2\n      swap1\n      pop\n      jump\t// out\n        /* \"#utility.yul\":1624:1701   */\n    tag_411:\n        /* \"#utility.yul\":1661:1668   */\n      0x00\n        /* \"#utility.yul\":1690:1695   */\n      dup2\n        /* \"#utility.yul\":1679:1695   */\n      swap1\n      pop\n        /* \"#utility.yul\":1624:1701   */\n      swap2\n      swap1\n      pop\n      jump\t// out\n        /* \"#utility.yul\":1707:1815   */\n    tag_412:\n        /* \"#utility.yul\":1784:1808   */\n      tag_494\n        /* \"#utility.yul\":1802:1807   */\n      dup2\n        /* \"#utility.yul\":1784:1808   */\n      tag_411\n      jump\t// in\n    tag_494:\n        /* \"#utility.yul\":1779:1782   */\n      dup3\n        /* \"#utility.yul\":1772:1809   */\n      mstore\n        /* \"#utility.yul\":1707:1815   */\n      pop\n      pop\n      jump\t// out\n        /* \"#utility.yul\":1821:2000   */\n    tag_413:\n        /* \"#utility.yul\":1890:1900   */\n      0x00\n        /* \"#utility.yul\":1911:1957   */\n      tag_496\n        /* \"#utility.yul\":1953:1956   */\n      dup4\n        /* \"#utility.yul\":1945:1951   */\n      dup4\n        /* \"#utility.yul\":1911:1957   */\n      tag_412\n      jump\t// in\n    tag_496:\n        /* \"#utility.yul\":1989:1993   */\n      0x20\n        /* \"#utility.yul\":1984:1987   */\n      dup4\n        /* \"#utility.yul\":1980:1994   */\n      add\n        /* \"#utility.yul\":1966:1994   */\n      swap1\n      pop\n        /* \"#utility.yul\":1821:2000   */\n      swap3\n      swap2\n      pop\n      pop\n      jump\t// out\n        /* \"#utility.yul\":2006:2119   */\n    tag_414:\n        /* \"#utility.yul\":2076:2080   */\n      0x00\n        /* \"#utility.yul\":2108:2112   */\n      0x20\n        /* \"#utility.yul\":2103:2106   */\n      dup3\n        /* \"#utility.yul\":2099:2113   */\n      add\n        /* \"#utility.yul\":2091:2113   */\n      swap1\n      pop\n        /* \"#utility.yul\":2006:2119   */\n      swap2\n      swap1\n      pop\n      jump\t// out\n        /* \"#utility.yul\":2155:2887   */\n    tag_415:\n        /* \"#utility.yul\":2274:2277   */\n      0x00\n        /* \"#utility.yul\":2303:2357   */\n      tag_499\n        /* \"#utility.yul\":2351:2356   */\n      dup3\n        /* \"#utility.yul\":2303:2357   */\n      tag_408\n      jump\t// in\n    tag_499:\n        /* \"#utility.yul\":2373:2459   */\n      tag_500\n        /* \"#utility.yul\":2452:2458   */\n      dup2\n        /* \"#utility.yul\":2447:2450   */\n      dup6\n        /* \"#utility.yul\":2373:2459   */\n      tag_409\n      jump\t// in\n    tag_500:\n        /* \"#utility.yul\":2366:2459   */\n      swap4\n      pop\n        /* \"#utility.yul\":2483:2539   */\n      tag_501\n        /* \"#utility.yul\":2533:2538   */\n      dup4\n        /* \"#utility.yul\":2483:2539   */\n      tag_410\n      jump\t// in\n    tag_501:\n        /* \"#utility.yul\":2562:2569   */\n      dup1\n        /* \"#utility.yul\":2593:2594   */\n      0x00\n        /* \"#utility.yul\":2578:2862   */\n    tag_502:\n        /* \"#utility.yul\":2603:2609   */\n      dup4\n        /* \"#utility.yul\":2600:2601   */\n      dup2\n        /* \"#utility.yul\":2597:2610   */\n      lt\n        /* \"#utility.yul\":2578:2862   */\n      iszero\n      tag_504\n      jumpi\n        /* \"#utility.yul\":2679:2685   */\n      dup2\n        /* \"#utility.yul\":2673:2686   */\n      mload\n        /* \"#utility.yul\":2706:2769   */\n      tag_505\n        /* \"#utility.yul\":2765:2768   */\n      dup9\n        /* \"#utility.yul\":2750:2763   */\n      dup3\n        /* \"#utility.yul\":2706:2769   */\n      tag_413\n      jump\t// in\n    tag_505:\n        /* \"#utility.yul\":2699:2769   */\n      swap8\n      pop\n        /* \"#utility.yul\":2792:2852   */\n      tag_506\n        /* \"#utility.yul\":2845:2851   */\n      dup4\n        /* \"#utility.yul\":2792:2852   */\n      tag_414\n      jump\t// in\n    tag_506:\n        /* \"#utility.yul\":2782:2852   */\n      swap3\n      pop\n        /* \"#utility.yul\":2638:2862   */\n      pop\n        /* \"#utility.yul\":2625:2626   */\n      0x01\n        /* \"#utility.yul\":2622:2623   */\n      dup2\n        /* \"#utility.yul\":2618:2627   */\n      add\n        /* \"#utility.yul\":2613:2627   */\n      swap1\n      pop\n        /* \"#utility.yul\":2578:2862   */\n      jump(tag_502)\n    tag_504:\n        /* \"#utility.yul\":2582:2596   */\n      pop\n        /* \"#utility.yul\":2878:2881   */\n      dup6\n        /* \"#utility.yul\":2871:2881   */\n      swap4\n      pop\n        /* \"#utility.yul\":2279:2887   */\n      pop\n      pop\n      pop\n        /* \"#utility.yul\":2155:2887   */\n      swap3\n      swap2\n      pop\n      pop\n      jump\t// out\n        /* \"#utility.yul\":2893:3266   */\n    tag_45:\n        /* \"#utility.yul\":3036:3040   */\n      0x00\n        /* \"#utility.yul\":3074:3076   */\n      0x20\n        /* \"#utility.yul\":3063:3072   */\n      dup3\n        /* \"#utility.yul\":3059:3077   */\n      add\n        /* \"#utility.yul\":3051:3077   */\n      swap1\n      pop\n        /* \"#utility.yul\":3123:3132   */\n      dup2\n        /* \"#utility.yul\":3117:3121   */\n      dup2\n        /* \"#utility.yul\":3113:3133   */\n      sub\n        /* \"#utility.yul\":3109:3110   */\n      0x00\n        /* \"#utility.yul\":3098:3107   */\n      dup4\n        /* \"#utility.yul\":3094:3111   */\n      add\n        /* \"#utility.yul\":3087:3134   */\n      mstore\n        /* \"#utility.yul\":3151:3259   */\n      tag_508\n        /* \"#utility.yul\":3254:3258   */\n      dup2\n        /* \"#utility.yul\":3245:3251   */\n      dup5\n        /* \"#utility.yul\":3151:3259   */\n      tag_415\n      jump\t// in\n    tag_508:\n        /* \"#utility.yul\":3143:3259   */\n      swap1\n      pop\n        /* \"#utility.yul\":2893:3266   */\n      swap3\n      swap2\n      pop\n      pop\n      jump\t// out\n        /* \"#utility.yul\":3272:3394   */\n    tag_416:\n        /* \"#utility.yul\":3345:3369   */\n      tag_510\n        /* \"#utility.yul\":3363:3368   */\n      dup2\n        /* \"#utility.yul\":3345:3369   */\n      tag_411\n      jump\t// in\n    tag_510:\n        /* \"#utility.yul\":3338:3343   */\n      dup2\n        /* \"#utility.yul\":3335:3370   */\n      eq\n        /* \"#utility.yul\":3325:3388   */\n      tag_511\n      jumpi\n        /* \"#utility.yul\":3384:3385   */\n      0x00\n        /* \"#utility.yul\":3381:3382   */\n      0x00\n        /* \"#utility.yul\":3374:3386   */\n      revert\n        /* \"#utility.yul\":3325:3388   */\n    tag_511:\n        /* \"#utility.yul\":3272:3394   */\n      pop\n      jump\t// out\n        /* \"#utility.yul\":3400:3539   */\n    tag_417:\n        /* \"#utility.yul\":3446:3451   */\n      0x00\n        /* \"#utility.yul\":3484:3490   */\n      dup2\n        /* \"#utility.yul\":3471:3491   */\n      calldataload\n        /* \"#utility.yul\":3462:3491   */\n      swap1\n      pop\n        /* \"#utility.yul\":3500:3533   */\n      tag_513\n        /* \"#utility.yul\":3527:3532   */\n      dup2\n        /* \"#utility.yul\":3500:3533   */\n      tag_416\n      jump\t// in\n    tag_513:\n        /* \"#utility.yul\":3400:3539   */\n      swap3\n      swap2\n      pop\n      pop\n      jump\t// out\n        /* \"#utility.yul\":3545:4019   */\n    tag_48:\n        /* \"#utility.yul\":3613:3619   */\n      0x00\n        /* \"#utility.yul\":3621:3627   */\n      0x00\n        /* \"#utility.yul\":3670:3672   */\n      0x40\n        /* \"#utility.yul\":3658:3667   */\n      dup4\n        /* \"#utility.yul\":3649:3656   */\n      dup6\n        /* \"#utility.yul\":3645:3668   */\n      sub\n        /* \"#utility.yul\":3641:3673   */\n      slt\n        /* \"#utility.yul\":3638:3757   */\n      iszero\n      tag_515\n      jumpi\n        /* \"#utility.yul\":3676:3755   */\n      tag_516\n      tag_402\n      jump\t// in\n    tag_516:\n        /* \"#utility.yul\":3638:3757   */\n    tag_515:\n        /* \"#utility.yul\":3796:3797   */\n      0x00\n        /* \"#utility.yul\":3821:3874   */\n      tag_517\n        /* \"#utility.yul\":3866:3873   */\n      dup6\n        /* \"#utility.yul\":3857:3863   */\n      dup3\n        /* \"#utility.yul\":3846:3855   */\n      dup7\n        /* \"#utility.yul\":3842:3864   */\n      add\n        /* \"#utility.yul\":3821:3874   */\n      tag_417\n      jump\t// in\n    tag_517:\n        /* \"#utility.yul\":3811:3874   */\n      swap3\n      pop\n        /* \"#utility.yul\":3767:3884   */\n      pop\n        /* \"#utility.yul\":3923:3925   */\n      0x20\n        /* \"#utility.yul\":3949:4002   */\n      tag_518\n        /* \"#utility.yul\":3994:4001   */\n      dup6\n        /* \"#utility.yul\":3985:3991   */\n      dup3\n        /* \"#utility.yul\":3974:3983   */\n      dup7\n        /* \"#utility.yul\":3970:3992   */\n      add\n        /* \"#utility.yul\":3949:4002   */\n      tag_417\n      jump\t// in\n    tag_518:\n        /* \"#utility.yul\":3939:4002   */\n      swap2\n      pop\n        /* \"#utility.yul\":3894:4012   */\n      pop\n        /* \"#utility.yul\":3545:4019   */\n      swap3\n      pop\n      swap3\n      swap1\n      pop\n      jump\t// out\n        /* \"#utility.yul\":4025:4143   */\n    tag_418:\n        /* \"#utility.yul\":4112:4136   */\n      tag_520\n        /* \"#utility.yul\":4130:4135   */\n      dup2\n        /* \"#utility.yul\":4112:4136   */\n      tag_411\n      jump\t// in\n    tag_520:\n        /* \"#utility.yul\":4107:4110   */\n      dup3\n        /* \"#utility.yul\":4100:4137   */\n      mstore\n        /* \"#utility.yul\":4025:4143   */\n      pop\n      pop\n      jump\t// out\n        /* \"#utility.yul\":4149:4371   */\n    tag_51:\n        /* \"#utility.yul\":4242:4246   */\n      0x00\n        /* \"#utility.yul\":4280:4282   */\n      0x20\n        /* \"#utility.yul\":4269:4278   */\n      dup3\n        /* \"#utility.yul\":4265:4283   */\n      add\n        /* \"#utility.yul\":4257:4283   */\n      swap1\n      pop\n        /* \"#utility.yul\":4293:4364   */\n      tag_522\n        /* \"#utility.yul\":4361:4362   */\n      0x00\n        /* \"#utility.yul\":4350:4359   */\n      dup4\n        /* \"#utility.yul\":4346:4363   */\n      add\n        /* \"#utility.yul\":4337:4343   */\n      dup5\n        /* \"#utility.yul\":4293:4364   */\n      tag_418\n      jump\t// in\n    tag_522:\n        /* \"#utility.yul\":4149:4371   */\n      swap3\n      swap2\n      pop\n      pop\n      jump\t// out\n        /* \"#utility.yul\":4377:4706   */\n    tag_54:\n        /* \"#utility.yul\":4436:4442   */\n      0x00\n        /* \"#utility.yul\":4485:4487   */\n      0x20\n        /* \"#utility.yul\":4473:4482   */\n      dup3\n        /* \"#utility.yul\":4464:4471   */\n      dup5\n        /* \"#utility.yul\":4460:4483   */\n      sub\n        /* \"#utility.yul\":4456:4488   */\n      slt\n        /* \"#utility.yul\":4453:4572   */\n      iszero\n      tag_524\n      jumpi\n        /* \"#utility.yul\":4491:4570   */\n      tag_525\n      tag_402\n      jump\t// in\n    tag_525:\n        /* \"#utility.yul\":4453:4572   */\n    tag_524:\n        /* \"#utility.yul\":4611:4612   */\n      0x00\n        /* \"#utility.yul\":4636:4689   */\n      tag_526\n        /* \"#utility.yul\":4681:4688   */\n      dup5\n        /* \"#utility.yul\":4672:4678   */\n      dup3\n        /* \"#utility.yul\":4661:4670   */\n      dup6\n        /* \"#utility.yul\":4657:4679   */\n      add\n        /* \"#utility.yul\":4636:4689   */\n      tag_417\n      jump\t// in\n    tag_526:\n        /* \"#utility.yul\":4626:4689   */\n      swap2\n      pop\n        /* \"#utility.yul\":4582:4699   */\n      pop\n        /* \"#utility.yul\":4377:4706   */\n      swap3\n      swap2\n      pop\n      pop\n      jump\t// out\n        /* \"#utility.yul\":4712:4772   */\n    tag_419:\n        /* \"#utility.yul\":4740:4743   */\n      0x00\n        /* \"#utility.yul\":4761:4766   */\n      dup2\n        /* \"#utility.yul\":4754:4766   */\n      swap1\n      pop\n        /* \"#utility.yul\":4712:4772   */\n      swap2\n      swap1\n      pop\n      jump\t// out\n        /* \"#utility.yul\":4778:4920   */\n    tag_420:\n        /* \"#utility.yul\":4828:4837   */\n      0x00\n        /* \"#utility.yul\":4861:4914   */\n      tag_529\n        /* \"#utility.yul\":4879:4913   */\n      tag_530\n        /* \"#utility.yul\":4888:4912   */\n      tag_531\n        /* \"#utility.yul\":4906:4911   */\n      dup5\n        /* \"#utility.yul\":4888:4912   */\n      tag_404\n      jump\t// in\n    tag_531:\n        /* \"#utility.yul\":4879:4913   */\n      tag_419\n      jump\t// in\n    tag_530:\n        /* \"#utility.yul\":4861:4914   */\n      tag_404\n      jump\t// in\n    tag_529:\n        /* \"#utility.yul\":4848:4914   */\n      swap1\n      pop\n        /* \"#utility.yul\":4778:4920   */\n      swap2\n      swap1\n      pop\n      jump\t// out\n        /* \"#utility.yul\":4926:5052   */\n    tag_421:\n        /* \"#utility.yul\":4976:4985   */\n      0x00\n        /* \"#utility.yul\":5009:5046   */\n      tag_533\n        /* \"#utility.yul\":5040:5045   */\n      dup3\n        /* \"#utility.yul\":5009:5046   */\n      tag_420\n      jump\t// in\n    tag_533:\n        /* \"#utility.yul\":4996:5046   */\n      swap1\n      pop\n        /* \"#utility.yul\":4926:5052   */\n      swap2\n      swap1\n      pop\n      jump\t// out\n        /* \"#utility.yul\":5058:5204   */\n    tag_422:\n        /* \"#utility.yul\":5128:5137   */\n      0x00\n        /* \"#utility.yul\":5161:5198   */\n      tag_535\n        /* \"#utility.yul\":5192:5197   */\n      dup3\n        /* \"#utility.yul\":5161:5198   */\n      tag_421\n      jump\t// in\n    tag_535:\n        /* \"#utility.yul\":5148:5198   */\n      swap1\n      pop\n        /* \"#utility.yul\":5058:5204   */\n      swap2\n      swap1\n      pop\n      jump\t// out\n        /* \"#utility.yul\":5210:5381   */\n    tag_423:\n        /* \"#utility.yul\":5317:5374   */\n      tag_537\n        /* \"#utility.yul\":5368:5373   */\n      dup2\n        /* \"#utility.yul\":5317:5374   */\n      tag_422\n      jump\t// in\n    tag_537:\n        /* \"#utility.yul\":5312:5315   */\n      dup3\n        /* \"#utility.yul\":5305:5375   */\n      mstore\n        /* \"#utility.yul\":5210:5381   */\n      pop\n      pop\n      jump\t// out\n        /* \"#utility.yul\":5387:5649   */\n    tag_60:\n        /* \"#utility.yul\":5500:5504   */\n      0x00\n        /* \"#utility.yul\":5538:5540   */\n      0x20\n        /* \"#utility.yul\":5527:5536   */\n      dup3\n        /* \"#utility.yul\":5523:5541   */\n      add\n        /* \"#utility.yul\":5515:5541   */\n      swap1\n      pop\n        /* \"#utility.yul\":5551:5642   */\n      tag_539\n        /* \"#utility.yul\":5639:5640   */\n      0x00\n        /* \"#utility.yul\":5628:5637   */\n      dup4\n        /* \"#utility.yul\":5624:5641   */\n      add\n        /* \"#utility.yul\":5615:5621   */\n      dup5\n        /* \"#utility.yul\":5551:5642   */\n      tag_423\n      jump\t// in\n    tag_539:\n        /* \"#utility.yul\":5387:5649   */\n      swap3\n      swap2\n      pop\n      pop\n      jump\t// out\n        /* \"#utility.yul\":5655:5745   */\n    tag_424:\n        /* \"#utility.yul\":5689:5696   */\n      0x00\n        /* \"#utility.yul\":5732:5737   */\n      dup2\n        /* \"#utility.yul\":5725:5738   */\n      iszero\n        /* \"#utility.yul\":5718:5739   */\n      iszero\n        /* \"#utility.yul\":5707:5739   */\n      swap1\n      pop\n        /* \"#utility.yul\":5655:5745   */\n      swap2\n      swap1\n      pop\n      jump\t// out\n        /* \"#utility.yul\":5751:5860   */\n    tag_425:\n        /* \"#utility.yul\":5832:5853   */\n      tag_542\n        /* \"#utility.yul\":5847:5852   */\n      dup2\n        /* \"#utility.yul\":5832:5853   */\n      tag_424\n      jump\t// in\n    tag_542:\n        /* \"#utility.yul\":5827:5830   */\n      dup3\n        /* \"#utility.yul\":5820:5854   */\n      mstore\n        /* \"#utility.yul\":5751:5860   */\n      pop\n      pop\n      jump\t// out\n        /* \"#utility.yul\":5866:6076   */\n    tag_78:\n        /* \"#utility.yul\":5953:5957   */\n      0x00\n        /* \"#utility.yul\":5991:5993   */\n      0x20\n        /* \"#utility.yul\":5980:5989   */\n      dup3\n        /* \"#utility.yul\":5976:5994   */\n      add\n        /* \"#utility.yul\":5968:5994   */\n      swap1\n      pop\n        /* \"#utility.yul\":6004:6069   */\n      tag_544\n        /* \"#utility.yul\":6066:6067   */\n      0x00\n        /* \"#utility.yul\":6055:6064   */\n      dup4\n        /* \"#utility.yul\":6051:6068   */\n      add\n        /* \"#utility.yul\":6042:6048   */\n      dup5\n        /* \"#utility.yul\":6004:6069   */\n      tag_425\n      jump\t// in\n    tag_544:\n        /* \"#utility.yul\":5866:6076   */\n      swap3\n      swap2\n      pop\n      pop\n      jump\t// out\n        /* \"#utility.yul\":6082:6200   */\n    tag_426:\n        /* \"#utility.yul\":6169:6193   */\n      tag_546\n        /* \"#utility.yul\":6187:6192   */\n      dup2\n        /* \"#utility.yul\":6169:6193   */\n      tag_405\n      jump\t// in\n    tag_546:\n        /* \"#utility.yul\":6164:6167   */\n      dup3\n        /* \"#utility.yul\":6157:6194   */\n      mstore\n        /* \"#utility.yul\":6082:6200   */\n      pop\n      pop\n      jump\t// out\n        /* \"#utility.yul\":6206:7080   */\n    tag_90:\n        /* \"#utility.yul\":6461:6465   */\n      0x00\n        /* \"#utility.yul\":6499:6502   */\n      0xe0\n        /* \"#utility.yul\":6488:6497   */\n      dup3\n        /* \"#utility.yul\":6484:6503   */\n      add\n        /* \"#utility.yul\":6476:6503   */\n      swap1\n      pop\n        /* \"#utility.yul\":6513:6584   */\n      tag_548\n        /* \"#utility.yul\":6581:6582   */\n      0x00\n        /* \"#utility.yul\":6570:6579   */\n      dup4\n        /* \"#utility.yul\":6566:6583   */\n      add\n        /* \"#utility.yul\":6557:6563   */\n      dup11\n        /* \"#utility.yul\":6513:6584   */\n      tag_426\n      jump\t// in\n    tag_548:\n        /* \"#utility.yul\":6594:6666   */\n      tag_549\n        /* \"#utility.yul\":6662:6664   */\n      0x20\n        /* \"#utility.yul\":6651:6660   */\n      dup4\n        /* \"#utility.yul\":6647:6665   */\n      add\n        /* \"#utility.yul\":6638:6644   */\n      dup10\n        /* \"#utility.yul\":6594:6666   */\n      tag_418\n      jump\t// in\n    tag_549:\n        /* \"#utility.yul\":6676:6748   */\n      tag_550\n        /* \"#utility.yul\":6744:6746   */\n      0x40\n        /* \"#utility.yul\":6733:6742   */\n      dup4\n        /* \"#utility.yul\":6729:6747   */\n      add\n        /* \"#utility.yul\":6720:6726   */\n      dup9\n        /* \"#utility.yul\":6676:6748   */\n      tag_418\n      jump\t// in\n    tag_550:\n        /* \"#utility.yul\":6758:6830   */\n      tag_551\n        /* \"#utility.yul\":6826:6828   */\n      0x60\n        /* \"#utility.yul\":6815:6824   */\n      dup4\n        /* \"#utility.yul\":6811:6829   */\n      add\n        /* \"#utility.yul\":6802:6808   */\n      dup8\n        /* \"#utility.yul\":6758:6830   */\n      tag_418\n      jump\t// in\n    tag_551:\n        /* \"#utility.yul\":6840:6913   */\n      tag_552\n        /* \"#utility.yul\":6908:6911   */\n      0x80\n        /* \"#utility.yul\":6897:6906   */\n      dup4\n        /* \"#utility.yul\":6893:6912   */\n      add\n        /* \"#utility.yul\":6884:6890   */\n      dup7\n        /* \"#utility.yul\":6840:6913   */\n      tag_418\n      jump\t// in\n    tag_552:\n        /* \"#utility.yul\":6923:6996   */\n      tag_553\n        /* \"#utility.yul\":6991:6994   */\n      0xa0\n        /* \"#utility.yul\":6980:6989   */\n      dup4\n        /* \"#utility.yul\":6976:6995   */\n      add\n        /* \"#utility.yul\":6967:6973   */\n      dup6\n        /* \"#utility.yul\":6923:6996   */\n      tag_418\n      jump\t// in\n    tag_553:\n        /* \"#utility.yul\":7006:7073   */\n      tag_554\n        /* \"#utility.yul\":7068:7071   */\n      0xc0\n        /* \"#utility.yul\":7057:7066   */\n      dup4\n        /* \"#utility.yul\":7053:7072   */\n      add\n        /* \"#utility.yul\":7044:7050   */\n      dup5\n        /* \"#utility.yul\":7006:7073   */\n      tag_425\n      jump\t// in\n    tag_554:\n        /* \"#utility.yul\":6206:7080   */\n      swap9\n      swap8\n      pop\n      pop\n      pop\n      pop\n      pop\n      pop\n      pop\n      pop\n      jump\t// out\n        /* \"#utility.yul\":7086:7308   */\n    tag_98:\n        /* \"#utility.yul\":7179:7183   */\n      0x00\n        /* \"#utility.yul\":7217:7219   */\n      0x20\n        /* \"#utility.yul\":7206:7215   */\n      dup3\n        /* \"#utility.yul\":7202:7220   */\n      add\n        /* \"#utility.yul\":7194:7220   */\n      swap1\n      pop\n        /* \"#utility.yul\":7230:7301   */\n      tag_556\n        /* \"#utility.yul\":7298:7299   */\n      0x00\n        /* \"#utility.yul\":7287:7296   */\n      dup4\n        /* \"#utility.yul\":7283:7300   */\n      add\n        /* \"#utility.yul\":7274:7280   */\n      dup5\n        /* \"#utility.yul\":7230:7301   */\n      tag_426\n      jump\t// in\n    tag_556:\n        /* \"#utility.yul\":7086:7308   */\n      swap3\n      swap2\n      pop\n      pop\n      jump\t// out\n        /* \"#utility.yul\":7314:7454   */\n    tag_427:\n        /* \"#utility.yul\":7378:7387   */\n      0x00\n        /* \"#utility.yul\":7411:7448   */\n      tag_558\n        /* \"#utility.yul\":7442:7447   */\n      dup3\n        /* \"#utility.yul\":7411:7448   */\n      tag_421\n      jump\t// in\n    tag_558:\n        /* \"#utility.yul\":7398:7448   */\n      swap1\n      pop\n        /* \"#utility.yul\":7314:7454   */\n      swap2\n      swap1\n      pop\n      jump\t// out\n        /* \"#utility.yul\":7460:7619   */\n    tag_428:\n        /* \"#utility.yul\":7561:7612   */\n      tag_560\n        /* \"#utility.yul\":7606:7611   */\n      dup2\n        /* \"#utility.yul\":7561:7612   */\n      tag_427\n      jump\t// in\n    tag_560:\n        /* \"#utility.yul\":7556:7559   */\n      dup3\n        /* \"#utility.yul\":7549:7613   */\n      mstore\n        /* \"#utility.yul\":7460:7619   */\n      pop\n      pop\n      jump\t// out\n        /* \"#utility.yul\":7625:7875   */\n    tag_102:\n        /* \"#utility.yul\":7732:7736   */\n      0x00\n        /* \"#utility.yul\":7770:7772   */\n      0x20\n        /* \"#utility.yul\":7759:7768   */\n      dup3\n        /* \"#utility.yul\":7755:7773   */\n      add\n        /* \"#utility.yul\":7747:7773   */\n      swap1\n      pop\n        /* \"#utility.yul\":7783:7868   */\n      tag_562\n        /* \"#utility.yul\":7865:7866   */\n      0x00\n        /* \"#utility.yul\":7854:7863   */\n      dup4\n        /* \"#utility.yul\":7850:7867   */\n      add\n        /* \"#utility.yul\":7841:7847   */\n      dup5\n        /* \"#utility.yul\":7783:7868   */\n      tag_428\n      jump\t// in\n    tag_562:\n        /* \"#utility.yul\":7625:7875   */\n      swap3\n      swap2\n      pop\n      pop\n      jump\t// out\n        /* \"#utility.yul\":7881:8355   */\n    tag_108:\n        /* \"#utility.yul\":7949:7955   */\n      0x00\n        /* \"#utility.yul\":7957:7963   */\n      0x00\n        /* \"#utility.yul\":8006:8008   */\n      0x40\n        /* \"#utility.yul\":7994:8003   */\n      dup4\n        /* \"#utility.yul\":7985:7992   */\n      dup6\n        /* \"#utility.yul\":7981:8004   */\n      sub\n        /* \"#utility.yul\":7977:8009   */\n      slt\n        /* \"#utility.yul\":7974:8093   */\n      iszero\n      tag_564\n      jumpi\n        /* \"#utility.yul\":8012:8091   */\n      tag_565\n      tag_402\n      jump\t// in\n    tag_565:\n        /* \"#utility.yul\":7974:8093   */\n    tag_564:\n        /* \"#utility.yul\":8132:8133   */\n      0x00\n        /* \"#utility.yul\":8157:8210   */\n      tag_566\n        /* \"#utility.yul\":8202:8209   */\n      dup6\n        /* \"#utility.yul\":8193:8199   */\n      dup3\n        /* \"#utility.yul\":8182:8191   */\n      dup7\n        /* \"#utility.yul\":8178:8200   */\n      add\n        /* \"#utility.yul\":8157:8210   */\n      tag_407\n      jump\t// in\n    tag_566:\n        /* \"#utility.yul\":8147:8210   */\n      swap3\n      pop\n        /* \"#utility.yul\":8103:8220   */\n      pop\n        /* \"#utility.yul\":8259:8261   */\n      0x20\n        /* \"#utility.yul\":8285:8338   */\n      tag_567\n        /* \"#utility.yul\":8330:8337   */\n      dup6\n        /* \"#utility.yul\":8321:8327   */\n      dup3\n        /* \"#utility.yul\":8310:8319   */\n      dup7\n        /* \"#utility.yul\":8306:8328   */\n      add\n        /* \"#utility.yul\":8285:8338   */\n      tag_417\n      jump\t// in\n    tag_567:\n        /* \"#utility.yul\":8275:8338   */\n      swap2\n      pop\n        /* \"#utility.yul\":8230:8348   */\n      pop\n        /* \"#utility.yul\":7881:8355   */\n      swap3\n      pop\n      swap3\n      swap1\n      pop\n      jump\t// out\n        /* \"#utility.yul\":8361:9346   */\n    tag_137:\n        /* \"#utility.yul\":8644:8648   */\n      0x00\n        /* \"#utility.yul\":8682:8685   */\n      0x0100\n        /* \"#utility.yul\":8671:8680   */\n      dup3\n        /* \"#utility.yul\":8667:8686   */\n      add\n        /* \"#utility.yul\":8659:8686   */\n      swap1\n      pop\n        /* \"#utility.yul\":8696:8767   */\n      tag_569\n        /* \"#utility.yul\":8764:8765   */\n      0x00\n        /* \"#utility.yul\":8753:8762   */\n      dup4\n        /* \"#utility.yul\":8749:8766   */\n      add\n        /* \"#utility.yul\":8740:8746   */\n      dup12\n        /* \"#utility.yul\":8696:8767   */\n      tag_418\n      jump\t// in\n    tag_569:\n        /* \"#utility.yul\":8777:8849   */\n      tag_570\n        /* \"#utility.yul\":8845:8847   */\n      0x20\n        /* \"#utility.yul\":8834:8843   */\n      dup4\n        /* \"#utility.yul\":8830:8848   */\n      add\n        /* \"#utility.yul\":8821:8827   */\n      dup11\n        /* \"#utility.yul\":8777:8849   */\n      tag_426\n      jump\t// in\n    tag_570:\n        /* \"#utility.yul\":8859:8931   */\n      tag_571\n        /* \"#utility.yul\":8927:8929   */\n      0x40\n        /* \"#utility.yul\":8916:8925   */\n      dup4\n        /* \"#utility.yul\":8912:8930   */\n      add\n        /* \"#utility.yul\":8903:8909   */\n      dup10\n        /* \"#utility.yul\":8859:8931   */\n      tag_418\n      jump\t// in\n    tag_571:\n        /* \"#utility.yul\":8941:9013   */\n      tag_572\n        /* \"#utility.yul\":9009:9011   */\n      0x60\n        /* \"#utility.yul\":8998:9007   */\n      dup4\n        /* \"#utility.yul\":8994:9012   */\n      add\n        /* \"#utility.yul\":8985:8991   */\n      dup9\n        /* \"#utility.yul\":8941:9013   */\n      tag_418\n      jump\t// in\n    tag_572:\n        /* \"#utility.yul\":9023:9096   */\n      tag_573\n        /* \"#utility.yul\":9091:9094   */\n      0x80\n        /* \"#utility.yul\":9080:9089   */\n      dup4\n        /* \"#utility.yul\":9076:9095   */\n      add\n        /* \"#utility.yul\":9067:9073   */\n      dup8\n        /* \"#utility.yul\":9023:9096   */\n      tag_418\n      jump\t// in\n    tag_573:\n        /* \"#utility.yul\":9106:9179   */\n      tag_574\n        /* \"#utility.yul\":9174:9177   */\n      0xa0\n        /* \"#utility.yul\":9163:9172   */\n      dup4\n        /* \"#utility.yul\":9159:9178   */\n      add\n        /* \"#utility.yul\":9150:9156   */\n      dup7\n        /* \"#utility.yul\":9106:9179   */\n      tag_418\n      jump\t// in\n    tag_574:\n        /* \"#utility.yul\":9189:9262   */\n      tag_575\n        /* \"#utility.yul\":9257:9260   */\n      0xc0\n        /* \"#utility.yul\":9246:9255   */\n      dup4\n        /* \"#utility.yul\":9242:9261   */\n      add\n        /* \"#utility.yul\":9233:9239   */\n      dup6\n        /* \"#utility.yul\":9189:9262   */\n      tag_418\n      jump\t// in\n    tag_575:\n        /* \"#utility.yul\":9272:9339   */\n      tag_576\n        /* \"#utility.yul\":9334:9337   */\n      0xe0\n        /* \"#utility.yul\":9323:9332   */\n      dup4\n        /* \"#utility.yul\":9319:9338   */\n      add\n        /* \"#utility.yul\":9310:9316   */\n      dup5\n        /* \"#utility.yul\":9272:9339   */\n      tag_425\n      jump\t// in\n    tag_576:\n        /* \"#utility.yul\":8361:9346   */\n      swap10\n      swap9\n      pop\n      pop\n      pop\n      pop\n      pop\n      pop\n      pop\n      pop\n      pop\n      jump\t// out\n        /* \"#utility.yul\":9352:9521   */\n    tag_429:\n        /* \"#utility.yul\":9436:9447   */\n      0x00\n        /* \"#utility.yul\":9470:9476   */\n      dup3\n        /* \"#utility.yul\":9465:9468   */\n      dup3\n        /* \"#utility.yul\":9458:9477   */\n      mstore\n        /* \"#utility.yul\":9510:9514   */\n      0x20\n        /* \"#utility.yul\":9505:9508   */\n      dup3\n        /* \"#utility.yul\":9501:9515   */\n      add\n        /* \"#utility.yul\":9486:9515   */\n      swap1\n      pop\n        /* \"#utility.yul\":9352:9521   */\n      swap3\n      swap2\n      pop\n      pop\n      jump\t// out\n        /* \"#utility.yul\":9527:9699   */\n    tag_430:\n        /* \"#utility.yul\":9667:9691   */\n      0x436f6c6c61746572616c206d757374206265203e203000000000000000000000\n        /* \"#utility.yul\":9663:9664   */\n      0x00\n        /* \"#utility.yul\":9655:9661   */\n      dup3\n        /* \"#utility.yul\":9651:9665   */\n      add\n        /* \"#utility.yul\":9644:9692   */\n      mstore\n        /* \"#utility.yul\":9527:9699   */\n      pop\n      jump\t// out\n        /* \"#utility.yul\":9705:10071   */\n    tag_431:\n        /* \"#utility.yul\":9847:9850   */\n      0x00\n        /* \"#utility.yul\":9868:9935   */\n      tag_580\n        /* \"#utility.yul\":9932:9934   */\n      0x16\n        /* \"#utility.yul\":9927:9930   */\n      dup4\n        /* \"#utility.yul\":9868:9935   */\n      tag_429\n      jump\t// in\n    tag_580:\n        /* \"#utility.yul\":9861:9935   */\n      swap2\n      pop\n        /* \"#utility.yul\":9944:10037   */\n      tag_581\n        /* \"#utility.yul\":10033:10036   */\n      dup3\n        /* \"#utility.yul\":9944:10037   */\n      tag_430\n      jump\t// in\n    tag_581:\n        /* \"#utility.yul\":10062:10064   */\n      0x20\n        /* \"#utility.yul\":10057:10060   */\n      dup3\n        /* \"#utility.yul\":10053:10065   */\n      add\n        /* \"#utility.yul\":10046:10065   */\n      swap1\n      pop\n        /* \"#utility.yul\":9705:10071   */\n      swap2\n      swap1\n      pop\n      jump\t// out\n        /* \"#utility.yul\":10077:10496   */\n    tag_159:\n        /* \"#utility.yul\":10243:10247   */\n      0x00\n        /* \"#utility.yul\":10281:10283   */\n      0x20\n        /* \"#utility.yul\":10270:10279   */\n      dup3\n        /* \"#utility.yul\":10266:10284   */\n      add\n        /* \"#utility.yul\":10258:10284   */\n      swap1\n      pop\n        /* \"#utility.yul\":10330:10339   */\n      dup2\n        /* \"#utility.yul\":10324:10328   */\n      dup2\n        /* \"#utility.yul\":10320:10340   */\n      sub\n        /* \"#utility.yul\":10316:10317   */\n      0x00\n        /* \"#utility.yul\":10305:10314   */\n      dup4\n        /* \"#utility.yul\":10301:10318   */\n      add\n        /* \"#utility.yul\":10294:10341   */\n      mstore\n        /* \"#utility.yul\":10358:10489   */\n      tag_583\n        /* \"#utility.yul\":10484:10488   */\n      dup2\n        /* \"#utility.yul\":10358:10489   */\n      tag_431\n      jump\t// in\n    tag_583:\n        /* \"#utility.yul\":10350:10489   */\n      swap1\n      pop\n        /* \"#utility.yul\":10077:10496   */\n      swap2\n      swap1\n      pop\n      jump\t// out\n        /* \"#utility.yul\":10502:10677   */\n    tag_432:\n        /* \"#utility.yul\":10642:10669   */\n      0x426f72726f7720616d6f756e74206d757374206265203e203000000000000000\n        /* \"#utility.yul\":10638:10639   */\n      0x00\n        /* \"#utility.yul\":10630:10636   */\n      dup3\n        /* \"#utility.yul\":10626:10640   */\n      add\n        /* \"#utility.yul\":10619:10670   */\n      mstore\n        /* \"#utility.yul\":10502:10677   */\n      pop\n      jump\t// out\n        /* \"#utility.yul\":10683:11049   */\n    tag_433:\n        /* \"#utility.yul\":10825:10828   */\n      0x00\n        /* \"#utility.yul\":10846:10913   */\n      tag_586\n        /* \"#utility.yul\":10910:10912   */\n      0x19\n        /* \"#utility.yul\":10905:10908   */\n      dup4\n        /* \"#utility.yul\":10846:10913   */\n      tag_429\n      jump\t// in\n    tag_586:\n        /* \"#utility.yul\":10839:10913   */\n      swap2\n      pop\n        /* \"#utility.yul\":10922:11015   */\n      tag_587\n        /* \"#utility.yul\":11011:11014   */\n      dup3\n        /* \"#utility.yul\":10922:11015   */\n      tag_432\n      jump\t// in\n    tag_587:\n        /* \"#utility.yul\":11040:11042   */\n      0x20\n        /* \"#utility.yul\":11035:11038   */\n      dup3\n        /* \"#utility.yul\":11031:11043   */\n      add\n        /* \"#utility.yul\":11024:11043   */\n      swap1\n      pop\n        /* \"#utility.yul\":10683:11049   */\n      swap2\n      swap1\n      pop\n      jump\t// out\n        /* \"#utility.yul\":11055:11474   */\n    tag_162:\n        /* \"#utility.yul\":11221:11225   */\n      0x00\n        /* \"#utility.yul\":11259:11261   */\n      0x20\n        /* \"#utility.yul\":11248:11257   */\n      dup3\n        /* \"#utility.yul\":11244:11262   */\n      add\n        /* \"#utility.yul\":11236:11262   */\n      swap1\n      pop\n        /* \"#utility.yul\":11308:11317   */\n      dup2\n        /* \"#utility.yul\":11302:11306   */\n      dup2\n        /* \"#utility.yul\":11298:11318   */\n      sub\n        /* \"#utility.yul\":11294:11295   */\n      0x00\n        /* \"#utility.yul\":11283:11292   */\n      dup4\n        /* \"#utility.yul\":11279:11296   */\n      add\n        /* \"#utility.yul\":11272:11319   */\n      mstore\n        /* \"#utility.yul\":11336:11467   */\n      tag_589\n        /* \"#utility.yul\":11462:11466   */\n      dup2\n        /* \"#utility.yul\":11336:11467   */\n      tag_433\n      jump\t// in\n    tag_589:\n        /* \"#utility.yul\":11328:11467   */\n      swap1\n      pop\n        /* \"#utility.yul\":11055:11474   */\n      swap2\n      swap1\n      pop\n      jump\t// out\n        /* \"#utility.yul\":11480:11623   */\n    tag_434:\n        /* \"#utility.yul\":11537:11542   */\n      0x00\n        /* \"#utility.yul\":11568:11574   */\n      dup2\n        /* \"#utility.yul\":11562:11575   */\n      mload\n        /* \"#utility.yul\":11553:11575   */\n      swap1\n      pop\n        /* \"#utility.yul\":11584:11617   */\n      tag_591\n        /* \"#utility.yul\":11611:11616   */\n      dup2\n        /* \"#utility.yul\":11584:11617   */\n      tag_416\n      jump\t// in\n    tag_591:\n        /* \"#utility.yul\":11480:11623   */\n      swap3\n      swap2\n      pop\n      pop\n      jump\t// out\n        /* \"#utility.yul\":11629:11980   */\n    tag_167:\n        /* \"#utility.yul\":11699:11705   */\n      0x00\n        /* \"#utility.yul\":11748:11750   */\n      0x20\n        /* \"#utility.yul\":11736:11745   */\n      dup3\n        /* \"#utility.yul\":11727:11734   */\n      dup5\n        /* \"#utility.yul\":11723:11746   */\n      sub\n        /* \"#utility.yul\":11719:11751   */\n      slt\n        /* \"#utility.yul\":11716:11835   */\n      iszero\n      tag_593\n      jumpi\n        /* \"#utility.yul\":11754:11833   */\n      tag_594\n      tag_402\n      jump\t// in\n    tag_594:\n        /* \"#utility.yul\":11716:11835   */\n    tag_593:\n        /* \"#utility.yul\":11874:11875   */\n      0x00\n        /* \"#utility.yul\":11899:11963   */\n      tag_595\n        /* \"#utility.yul\":11955:11962   */\n      dup5\n        /* \"#utility.yul\":11946:11952   */\n      dup3\n        /* \"#utility.yul\":11935:11944   */\n      dup6\n        /* \"#utility.yul\":11931:11953   */\n      add\n        /* \"#utility.yul\":11899:11963   */\n      tag_434\n      jump\t// in\n    tag_595:\n        /* \"#utility.yul\":11889:11963   */\n      swap2\n      pop\n        /* \"#utility.yul\":11845:11973   */\n      pop\n        /* \"#utility.yul\":11629:11980   */\n      swap3\n      swap2\n      pop\n      pop\n      jump\t// out\n        /* \"#utility.yul\":11986:12165   */\n    tag_435:\n        /* \"#utility.yul\":12126:12157   */\n      0x496e73756666696369656e74207661756c744254432062616c616e6365000000\n        /* \"#utility.yul\":12122:12123   */\n      0x00\n        /* \"#utility.yul\":12114:12120   */\n      dup3\n        /* \"#utility.yul\":12110:12124   */\n      add\n        /* \"#utility.yul\":12103:12158   */\n      mstore\n        /* \"#utility.yul\":11986:12165   */\n      pop\n      jump\t// out\n        /* \"#utility.yul\":12171:12537   */\n    tag_436:\n        /* \"#utility.yul\":12313:12316   */\n      0x00\n        /* \"#utility.yul\":12334:12401   */\n      tag_598\n        /* \"#utility.yul\":12398:12400   */\n      0x1d\n        /* \"#utility.yul\":12393:12396   */\n      dup4\n        /* \"#utility.yul\":12334:12401   */\n      tag_429\n      jump\t// in\n    tag_598:\n        /* \"#utility.yul\":12327:12401   */\n      swap2\n      pop\n        /* \"#utility.yul\":12410:12503   */\n      tag_599\n        /* \"#utility.yul\":12499:12502   */\n      dup3\n        /* \"#utility.yul\":12410:12503   */\n      tag_435\n      jump\t// in\n    tag_599:\n        /* \"#utility.yul\":12528:12530   */\n      0x20\n        /* \"#utility.yul\":12523:12526   */\n      dup3\n        /* \"#utility.yul\":12519:12531   */\n      add\n        /* \"#utility.yul\":12512:12531   */\n      swap1\n      pop\n        /* \"#utility.yul\":12171:12537   */\n      swap2\n      swap1\n      pop\n      jump\t// out\n        /* \"#utility.yul\":12543:12962   */\n    tag_170:\n        /* \"#utility.yul\":12709:12713   */\n      0x00\n        /* \"#utility.yul\":12747:12749   */\n      0x20\n        /* \"#utility.yul\":12736:12745   */\n      dup3\n        /* \"#utility.yul\":12732:12750   */\n      add\n        /* \"#utility.yul\":12724:12750   */\n      swap1\n      pop\n        /* \"#utility.yul\":12796:12805   */\n      dup2\n        /* \"#utility.yul\":12790:12794   */\n      dup2\n        /* \"#utility.yul\":12786:12806   */\n      sub\n        /* \"#utility.yul\":12782:12783   */\n      0x00\n        /* \"#utility.yul\":12771:12780   */\n      dup4\n        /* \"#utility.yul\":12767:12784   */\n      add\n        /* \"#utility.yul\":12760:12807   */\n      mstore\n        /* \"#utility.yul\":12824:12955   */\n      tag_601\n        /* \"#utility.yul\":12950:12954   */\n      dup2\n        /* \"#utility.yul\":12824:12955   */\n      tag_436\n      jump\t// in\n    tag_601:\n        /* \"#utility.yul\":12816:12955   */\n      swap1\n      pop\n        /* \"#utility.yul\":12543:12962   */\n      swap2\n      swap1\n      pop\n      jump\t// out\n        /* \"#utility.yul\":12968:13141   */\n    tag_437:\n        /* \"#utility.yul\":13108:13133   */\n      0x496e73756666696369656e7420636f6c6c61746572616c000000000000000000\n        /* \"#utility.yul\":13104:13105   */\n      0x00\n        /* \"#utility.yul\":13096:13102   */\n      dup3\n        /* \"#utility.yul\":13092:13106   */\n      add\n        /* \"#utility.yul\":13085:13134   */\n      mstore\n        /* \"#utility.yul\":12968:13141   */\n      pop\n      jump\t// out\n        /* \"#utility.yul\":13147:13513   */\n    tag_438:\n        /* \"#utility.yul\":13289:13292   */\n      0x00\n        /* \"#utility.yul\":13310:13377   */\n      tag_604\n        /* \"#utility.yul\":13374:13376   */\n      0x17\n        /* \"#utility.yul\":13369:13372   */\n      dup4\n        /* \"#utility.yul\":13310:13377   */\n      tag_429\n      jump\t// in\n    tag_604:\n        /* \"#utility.yul\":13303:13377   */\n      swap2\n      pop\n        /* \"#utility.yul\":13386:13479   */\n      tag_605\n        /* \"#utility.yul\":13475:13478   */\n      dup3\n        /* \"#utility.yul\":13386:13479   */\n      tag_437\n      jump\t// in\n    tag_605:\n        /* \"#utility.yul\":13504:13506   */\n      0x20\n        /* \"#utility.yul\":13499:13502   */\n      dup3\n        /* \"#utility.yul\":13495:13507   */\n      add\n        /* \"#utility.yul\":13488:13507   */\n      swap1\n      pop\n        /* \"#utility.yul\":13147:13513   */\n      swap2\n      swap1\n      pop\n      jump\t// out\n        /* \"#utility.yul\":13519:13938   */\n    tag_174:\n        /* \"#utility.yul\":13685:13689   */\n      0x00\n        /* \"#utility.yul\":13723:13725   */\n      0x20\n        /* \"#utility.yul\":13712:13721   */\n      dup3\n        /* \"#utility.yul\":13708:13726   */\n      add\n        /* \"#utility.yul\":13700:13726   */\n      swap1\n      pop\n        /* \"#utility.yul\":13772:13781   */\n      dup2\n        /* \"#utility.yul\":13766:13770   */\n      dup2\n        /* \"#utility.yul\":13762:13782   */\n      sub\n        /* \"#utility.yul\":13758:13759   */\n      0x00\n        /* \"#utility.yul\":13747:13756   */\n      dup4\n        /* \"#utility.yul\":13743:13760   */\n      add\n        /* \"#utility.yul\":13736:13783   */\n      mstore\n        /* \"#utility.yul\":13800:13931   */\n      tag_607\n        /* \"#utility.yul\":13926:13930   */\n      dup2\n        /* \"#utility.yul\":13800:13931   */\n      tag_438\n      jump\t// in\n    tag_607:\n        /* \"#utility.yul\":13792:13931   */\n      swap1\n      pop\n        /* \"#utility.yul\":13519:13938   */\n      swap2\n      swap1\n      pop\n      jump\t// out\n        /* \"#utility.yul\":13944:14116   */\n    tag_439:\n        /* \"#utility.yul\":14084:14108   */\n      0x496e73756666696369656e74206c697175696469747900000000000000000000\n        /* \"#utility.yul\":14080:14081   */\n      0x00\n        /* \"#utility.yul\":14072:14078   */\n      dup3\n        /* \"#utility.yul\":14068:14082   */\n      add\n        /* \"#utility.yul\":14061:14109   */\n      mstore\n        /* \"#utility.yul\":13944:14116   */\n      pop\n      jump\t// out\n        /* \"#utility.yul\":14122:14488   */\n    tag_440:\n        /* \"#utility.yul\":14264:14267   */\n      0x00\n        /* \"#utility.yul\":14285:14352   */\n      tag_610\n        /* \"#utility.yul\":14349:14351   */\n      0x16\n        /* \"#utility.yul\":14344:14347   */\n      dup4\n        /* \"#utility.yul\":14285:14352   */\n      tag_429\n      jump\t// in\n    tag_610:\n        /* \"#utility.yul\":14278:14352   */\n      swap2\n      pop\n        /* \"#utility.yul\":14361:14454   */\n      tag_611\n        /* \"#utility.yul\":14450:14453   */\n      dup3\n        /* \"#utility.yul\":14361:14454   */\n      tag_439\n      jump\t// in\n    tag_611:\n        /* \"#utility.yul\":14479:14481   */\n      0x20\n        /* \"#utility.yul\":14474:14477   */\n      dup3\n        /* \"#utility.yul\":14470:14482   */\n      add\n        /* \"#utility.yul\":14463:14482   */\n      swap1\n      pop\n        /* \"#utility.yul\":14122:14488   */\n      swap2\n      swap1\n      pop\n      jump\t// out\n        /* \"#utility.yul\":14494:14913   */\n    tag_181:\n        /* \"#utility.yul\":14660:14664   */\n      0x00\n        /* \"#utility.yul\":14698:14700   */\n      0x20\n        /* \"#utility.yul\":14687:14696   */\n      dup3\n        /* \"#utility.yul\":14683:14701   */\n      add\n        /* \"#utility.yul\":14675:14701   */\n      swap1\n      pop\n        /* \"#utility.yul\":14747:14756   */\n      dup2\n        /* \"#utility.yul\":14741:14745   */\n      dup2\n        /* \"#utility.yul\":14737:14757   */\n      sub\n        /* \"#utility.yul\":14733:14734   */\n      0x00\n        /* \"#utility.yul\":14722:14731   */\n      dup4\n        /* \"#utility.yul\":14718:14735   */\n      add\n        /* \"#utility.yul\":14711:14758   */\n      mstore\n        /* \"#utility.yul\":14775:14906   */\n      tag_613\n        /* \"#utility.yul\":14901:14905   */\n      dup2\n        /* \"#utility.yul\":14775:14906   */\n      tag_440\n      jump\t// in\n    tag_613:\n        /* \"#utility.yul\":14767:14906   */\n      swap1\n      pop\n        /* \"#utility.yul\":14494:14913   */\n      swap2\n      swap1\n      pop\n      jump\t// out\n        /* \"#utility.yul\":14919:15361   */\n    tag_183:\n        /* \"#utility.yul\":15068:15072   */\n      0x00\n        /* \"#utility.yul\":15106:15108   */\n      0x60\n        /* \"#utility.yul\":15095:15104   */\n      dup3\n        /* \"#utility.yul\":15091:15109   */\n      add\n        /* \"#utility.yul\":15083:15109   */\n      swap1\n      pop\n        /* \"#utility.yul\":15119:15190   */\n      tag_615\n        /* \"#utility.yul\":15187:15188   */\n      0x00\n        /* \"#utility.yul\":15176:15185   */\n      dup4\n        /* \"#utility.yul\":15172:15189   */\n      add\n        /* \"#utility.yul\":15163:15169   */\n      dup7\n        /* \"#utility.yul\":15119:15190   */\n      tag_426\n      jump\t// in\n    tag_615:\n        /* \"#utility.yul\":15200:15272   */\n      tag_616\n        /* \"#utility.yul\":15268:15270   */\n      0x20\n        /* \"#utility.yul\":15257:15266   */\n      dup4\n        /* \"#utility.yul\":15253:15271   */\n      add\n        /* \"#utility.yul\":15244:15250   */\n      dup6\n        /* \"#utility.yul\":15200:15272   */\n      tag_426\n      jump\t// in\n    tag_616:\n        /* \"#utility.yul\":15282:15354   */\n      tag_617\n        /* \"#utility.yul\":15350:15352   */\n      0x40\n        /* \"#utility.yul\":15339:15348   */\n      dup4\n        /* \"#utility.yul\":15335:15353   */\n      add\n        /* \"#utility.yul\":15326:15332   */\n      dup5\n        /* \"#utility.yul\":15282:15354   */\n      tag_418\n      jump\t// in\n    tag_617:\n        /* \"#utility.yul\":14919:15361   */\n      swap5\n      swap4\n      pop\n      pop\n      pop\n      pop\n      jump\t// out\n        /* \"#utility.yul\":15367:15483   */\n    tag_441:\n        /* \"#utility.yul\":15437:15458   */\n      tag_619\n        /* \"#utility.yul\":15452:15457   */\n      dup2\n        /* \"#utility.yul\":15437:15458   */\n      tag_424\n      jump\t// in\n    tag_619:\n        /* \"#utility.yul\":15430:15435   */\n      dup2\n        /* \"#utility.yul\":15427:15459   */\n      eq\n        /* \"#utility.yul\":15417:15477   */\n      tag_620\n      jumpi\n        /* \"#utility.yul\":15473:15474   */\n      0x00\n        /* \"#utility.yul\":15470:15471   */\n      0x00\n        /* \"#utility.yul\":15463:15475   */\n      revert\n        /* \"#utility.yul\":15417:15477   */\n    tag_620:\n        /* \"#utility.yul\":15367:15483   */\n      pop\n      jump\t// out\n        /* \"#utility.yul\":15489:15626   */\n    tag_442:\n        /* \"#utility.yul\":15543:15548   */\n      0x00\n        /* \"#utility.yul\":15574:15580   */\n      dup2\n        /* \"#utility.yul\":15568:15581   */\n      mload\n        /* \"#utility.yul\":15559:15581   */\n      swap1\n      pop\n        /* \"#utility.yul\":15590:15620   */\n      tag_622\n        /* \"#utility.yul\":15614:15619   */\n      dup2\n        /* \"#utility.yul\":15590:15620   */\n      tag_441\n      jump\t// in\n    tag_622:\n        /* \"#utility.yul\":15489:15626   */\n      swap3\n      swap2\n      pop\n      pop\n      jump\t// out\n        /* \"#utility.yul\":15632:15977   */\n    tag_187:\n        /* \"#utility.yul\":15699:15705   */\n      0x00\n        /* \"#utility.yul\":15748:15750   */\n      0x20\n        /* \"#utility.yul\":15736:15745   */\n      dup3\n        /* \"#utility.yul\":15727:15734   */\n      dup5\n        /* \"#utility.yul\":15723:15746   */\n      sub\n        /* \"#utility.yul\":15719:15751   */\n      slt\n        /* \"#utility.yul\":15716:15835   */\n      iszero\n      tag_624\n      jumpi\n        /* \"#utility.yul\":15754:15833   */\n      tag_625\n      tag_402\n      jump\t// in\n    tag_625:\n        /* \"#utility.yul\":15716:15835   */\n    tag_624:\n        /* \"#utility.yul\":15874:15875   */\n      0x00\n        /* \"#utility.yul\":15899:15960   */\n      tag_626\n        /* \"#utility.yul\":15952:15959   */\n      dup5\n        /* \"#utility.yul\":15943:15949   */\n      dup3\n        /* \"#utility.yul\":15932:15941   */\n      dup6\n        /* \"#utility.yul\":15928:15950   */\n      add\n        /* \"#utility.yul\":15899:15960   */\n      tag_442\n      jump\t// in\n    tag_626:\n        /* \"#utility.yul\":15889:15960   */\n      swap2\n      pop\n        /* \"#utility.yul\":15845:15970   */\n      pop\n        /* \"#utility.yul\":15632:15977   */\n      swap3\n      swap2\n      pop\n      pop\n      jump\t// out\n        /* \"#utility.yul\":15983:16159   */\n    tag_443:\n        /* \"#utility.yul\":16123:16151   */\n      0x436f6c6c61746572616c207472616e73666572206661696c6564000000000000\n        /* \"#utility.yul\":16119:16120   */\n      0x00\n        /* \"#utility.yul\":16111:16117   */\n      dup3\n        /* \"#utility.yul\":16107:16121   */\n      add\n        /* \"#utility.yul\":16100:16152   */\n      mstore\n        /* \"#utility.yul\":15983:16159   */\n      pop\n      jump\t// out\n        /* \"#utility.yul\":16165:16531   */\n    tag_444:\n        /* \"#utility.yul\":16307:16310   */\n      0x00\n        /* \"#utility.yul\":16328:16395   */\n      tag_629\n        /* \"#utility.yul\":16392:16394   */\n      0x1a\n        /* \"#utility.yul\":16387:16390   */\n      dup4\n        /* \"#utility.yul\":16328:16395   */\n      tag_429\n      jump\t// in\n    tag_629:\n        /* \"#utility.yul\":16321:16395   */\n      swap2\n      pop\n        /* \"#utility.yul\":16404:16497   */\n      tag_630\n        /* \"#utility.yul\":16493:16496   */\n      dup3\n        /* \"#utility.yul\":16404:16497   */\n      tag_443\n      jump\t// in\n    tag_630:\n        /* \"#utility.yul\":16522:16524   */\n      0x20\n        /* \"#utility.yul\":16517:16520   */\n      dup3\n        /* \"#utility.yul\":16513:16525   */\n      add\n        /* \"#utility.yul\":16506:16525   */\n      swap1\n      pop\n        /* \"#utility.yul\":16165:16531   */\n      swap2\n      swap1\n      pop\n      jump\t// out\n        /* \"#utility.yul\":16537:16956   */\n    tag_190:\n        /* \"#utility.yul\":16703:16707   */\n      0x00\n        /* \"#utility.yul\":16741:16743   */\n      0x20\n        /* \"#utility.yul\":16730:16739   */\n      dup3\n        /* \"#utility.yul\":16726:16744   */\n      add\n        /* \"#utility.yul\":16718:16744   */\n      swap1\n      pop\n        /* \"#utility.yul\":16790:16799   */\n      dup2\n        /* \"#utility.yul\":16784:16788   */\n      dup2\n        /* \"#utility.yul\":16780:16800   */\n      sub\n        /* \"#utility.yul\":16776:16777   */\n      0x00\n        /* \"#utility.yul\":16765:16774   */\n      dup4\n        /* \"#utility.yul\":16761:16778   */\n      add\n        /* \"#utility.yul\":16754:16801   */\n      mstore\n        /* \"#utility.yul\":16818:16949   */\n      tag_632\n        /* \"#utility.yul\":16944:16948   */\n      dup2\n        /* \"#utility.yul\":16818:16949   */\n      tag_444\n      jump\t// in\n    tag_632:\n        /* \"#utility.yul\":16810:16949   */\n      swap1\n      pop\n        /* \"#utility.yul\":16537:16956   */\n      swap2\n      swap1\n      pop\n      jump\t// out\n        /* \"#utility.yul\":16962:17142   */\n    tag_445:\n        /* \"#utility.yul\":17010:17087   */\n      0x4e487b7100000000000000000000000000000000000000000000000000000000\n        /* \"#utility.yul\":17007:17008   */\n      0x00\n        /* \"#utility.yul\":17000:17088   */\n      mstore\n        /* \"#utility.yul\":17107:17111   */\n      0x11\n        /* \"#utility.yul\":17104:17105   */\n      0x04\n        /* \"#utility.yul\":17097:17112   */\n      mstore\n        /* \"#utility.yul\":17131:17135   */\n      0x24\n        /* \"#utility.yul\":17128:17129   */\n      0x00\n        /* \"#utility.yul\":17121:17136   */\n      revert\n        /* \"#utility.yul\":17148:17381   */\n    tag_192:\n        /* \"#utility.yul\":17187:17190   */\n      0x00\n        /* \"#utility.yul\":17210:17234   */\n      tag_635\n        /* \"#utility.yul\":17228:17233   */\n      dup3\n        /* \"#utility.yul\":17210:17234   */\n      tag_411\n      jump\t// in\n    tag_635:\n        /* \"#utility.yul\":17201:17234   */\n      swap2\n      pop\n        /* \"#utility.yul\":17256:17322   */\n      0xffffffffffffffffffffffffffffffffffffffffffffffffffffffffffffffff\n        /* \"#utility.yul\":17249:17254   */\n      dup3\n        /* \"#utility.yul\":17246:17323   */\n      sub\n        /* \"#utility.yul\":17243:17346   */\n      tag_636\n      jumpi\n        /* \"#utility.yul\":17326:17344   */\n      tag_637\n      tag_445\n      jump\t// in\n    tag_637:\n        /* \"#utility.yul\":17243:17346   */\n    tag_636:\n        /* \"#utility.yul\":17373:17374   */\n      0x01\n        /* \"#utility.yul\":17366:17371   */\n      dup3\n        /* \"#utility.yul\":17362:17375   */\n      add\n        /* \"#utility.yul\":17355:17375   */\n      swap1\n      pop\n        /* \"#utility.yul\":17148:17381   */\n      swap2\n      swap1\n      pop\n      jump\t// out\n        /* \"#utility.yul\":17387:17578   */\n    tag_195:\n        /* \"#utility.yul\":17427:17430   */\n      0x00\n        /* \"#utility.yul\":17446:17466   */\n      tag_639\n        /* \"#utility.yul\":17464:17465   */\n      dup3\n        /* \"#utility.yul\":17446:17466   */\n      tag_411\n      jump\t// in\n    tag_639:\n        /* \"#utility.yul\":17441:17466   */\n      swap2\n      pop\n        /* \"#utility.yul\":17480:17500   */\n      tag_640\n        /* \"#utility.yul\":17498:17499   */\n      dup4\n        /* \"#utility.yul\":17480:17500   */\n      tag_411\n      jump\t// in\n    tag_640:\n        /* \"#utility.yul\":17475:17500   */\n      swap3\n      pop\n        /* \"#utility.yul\":17523:17524   */\n      dup3\n        /* \"#utility.yul\":17520:17521   */\n      dup3\n        /* \"#utility.yul\":17516:17525   */\n      add\n        /* \"#utility.yul\":17509:17525   */\n      swap1\n      pop\n        /* \"#utility.yul\":17544:17547   */\n      dup1\n        /* \"#utility.yul\":17541:17542   */\n      dup3\n        /* \"#utility.yul\":17538:17548   */\n      gt\n        /* \"#utility.yul\":17535:17571   */\n      iszero\n      tag_641\n      jumpi\n        /* \"#utility.yul\":17551:17569   */\n      tag_642\n      tag_445\n      jump\t// in\n    tag_642:\n        /* \"#utility.yul\":17535:17571   */\n    tag_641:\n        /* \"#utility.yul\":17387:17578   */\n      swap3\n      swap2\n      pop\n      pop\n      jump\t// out\n        /* \"#utility.yul\":17584:17916   */\n    tag_198:\n        /* \"#utility.yul\":17705:17709   */\n      0x00\n        /* \"#utility.yul\":17743:17745   */\n      0x40\n        /* \"#utility.yul\":17732:17741   */\n      dup3\n        /* \"#utility.yul\":17728:17746   */\n      add\n        /* \"#utility.yul\":17720:17746   */\n      swap1\n      pop\n        /* \"#utility.yul\":17756:17827   */\n      tag_644\n        /* \"#utility.yul\":17824:17825   */\n      0x00\n        /* \"#utility.yul\":17813:17822   */\n      dup4\n        /* \"#utility.yul\":17809:17826   */\n      add\n        /* \"#utility.yul\":17800:17806   */\n      dup6\n        /* \"#utility.yul\":17756:17827   */\n      tag_426\n      jump\t// in\n    tag_644:\n        /* \"#utility.yul\":17837:17909   */\n      tag_645\n        /* \"#utility.yul\":17905:17907   */\n      0x20\n        /* \"#utility.yul\":17894:17903   */\n      dup4\n        /* \"#utility.yul\":17890:17908   */\n      add\n        /* \"#utility.yul\":17881:17887   */\n      dup5\n        /* \"#utility.yul\":17837:17909   */\n      tag_418\n      jump\t// in\n    tag_645:\n        /* \"#utility.yul\":17584:17916   */\n      swap4\n      swap3\n      pop\n      pop\n      pop\n      jump\t// out\n        /* \"#utility.yul\":17922:18094   */\n    tag_446:\n        /* \"#utility.yul\":18062:18086   */\n      0x426f72726f77207472616e73666572206661696c656400000000000000000000\n        /* \"#utility.yul\":18058:18059   */\n      0x00\n        /* \"#utility.yul\":18050:18056   */\n      dup3\n        /* \"#utility.yul\":18046:18060   */\n      add\n        /* \"#utility.yul\":18039:18087   */\n      mstore\n        /* \"#utility.yul\":17922:18094   */\n      pop\n      jump\t// out\n        /* \"#utility.yul\":18100:18466   */\n    tag_447:\n        /* \"#utility.yul\":18242:18245   */\n      0x00\n        /* \"#utility.yul\":18263:18330   */\n      tag_648\n        /* \"#utility.yul\":18327:18329   */\n      0x16\n        /* \"#utility.yul\":18322:18325   */\n      dup4\n        /* \"#utility.yul\":18263:18330   */\n      tag_429\n      jump\t// in\n    tag_648:\n        /* \"#utility.yul\":18256:18330   */\n      swap2\n      pop\n        /* \"#utility.yul\":18339:18432   */\n      tag_649\n        /* \"#utility.yul\":18428:18431   */\n      dup3\n        /* \"#utility.yul\":18339:18432   */\n      tag_446\n      jump\t// in\n    tag_649:\n        /* \"#utility.yul\":18457:18459   */\n      0x20\n        /* \"#utility.yul\":18452:18455   */\n      dup3\n        /* \"#utility.yul\":18448:18460   */\n      add\n        /* \"#utility.yul\":18441:18460   */\n      swap1\n      pop\n        /* \"#utility.yul\":18100:18466   */\n      swap2\n      swap1\n      pop\n      jump\t// out\n        /* \"#utility.yul\":18472:18891   */\n    tag_204:\n        /* \"#utility.yul\":18638:18642   */\n      0x00\n        /* \"#utility.yul\":18676:18678   */\n      0x20\n        /* \"#utility.yul\":18665:18674   */\n      dup3\n        /* \"#utility.yul\":18661:18679   */\n      add\n        /* \"#utility.yul\":18653:18679   */\n      swap1\n      pop\n        /* \"#utility.yul\":18725:18734   */\n      dup2\n        /* \"#utility.yul\":18719:18723   */\n      dup2\n        /* \"#utility.yul\":18715:18735   */\n      sub\n        /* \"#utility.yul\":18711:18712   */\n      0x00\n        /* \"#utility.yul\":18700:18709   */\n      dup4\n        /* \"#utility.yul\":18696:18713   */\n      add\n        /* \"#utility.yul\":18689:18736   */\n      mstore\n        /* \"#utility.yul\":18753:18884   */\n      tag_651\n        /* \"#utility.yul\":18879:18883   */\n      dup2\n        /* \"#utility.yul\":18753:18884   */\n      tag_447\n      jump\t// in\n    tag_651:\n        /* \"#utility.yul\":18745:18884   */\n      swap1\n      pop\n        /* \"#utility.yul\":18472:18891   */\n      swap2\n      swap1\n      pop\n      jump\t// out\n        /* \"#utility.yul\":18897:19229   */\n    tag_206:\n        /* \"#utility.yul\":19018:19022   */\n      0x00\n        /* \"#utility.yul\":19056:19058   */\n      0x40\n        /* \"#utility.yul\":19045:19054   */\n      dup3\n        /* \"#utility.yul\":19041:19059   */\n      add\n        /* \"#utility.yul\":19033:19059   */\n      swap1\n      pop\n        /* \"#utility.yul\":19069:19140   */\n      tag_653\n        /* \"#utility.yul\":19137:19138   */\n      0x00\n        /* \"#utility.yul\":19126:19135   */\n      dup4\n        /* \"#utility.yul\":19122:19139   */\n      add\n        /* \"#utility.yul\":19113:19119   */\n      dup6\n        /* \"#utility.yul\":19069:19140   */\n      tag_418\n      jump\t// in\n    tag_653:\n        /* \"#utility.yul\":19150:19222   */\n      tag_654\n        /* \"#utility.yul\":19218:19220   */\n      0x20\n        /* \"#utility.yul\":19207:19216   */\n      dup4\n        /* \"#utility.yul\":19203:19221   */\n      add\n        /* \"#utility.yul\":19194:19200   */\n      dup5\n        /* \"#utility.yul\":19150:19222   */\n      tag_418\n      jump\t// in\n    tag_654:\n        /* \"#utility.yul\":18897:19229   */\n      swap4\n      swap3\n      pop\n      pop\n      pop\n      jump\t// out\n        /* \"#utility.yul\":19235:19645   */\n    tag_215:\n        /* \"#utility.yul\":19275:19282   */\n      0x00\n        /* \"#utility.yul\":19298:19318   */\n      tag_656\n        /* \"#utility.yul\":19316:19317   */\n      dup3\n        /* \"#utility.yul\":19298:19318   */\n      tag_411\n      jump\t// in\n    tag_656:\n        /* \"#utility.yul\":19293:19318   */\n      swap2\n      pop\n        /* \"#utility.yul\":19332:19352   */\n      tag_657\n        /* \"#utility.yul\":19350:19351   */\n      dup4\n        /* \"#utility.yul\":19332:19352   */\n      tag_411\n      jump\t// in\n    tag_657:\n        /* \"#utility.yul\":19327:19352   */\n      swap3\n      pop\n        /* \"#utility.yul\":19387:19388   */\n      dup3\n        /* \"#utility.yul\":19384:19385   */\n      dup3\n        /* \"#utility.yul\":19380:19389   */\n      mul\n        /* \"#utility.yul\":19409:19439   */\n      tag_658\n        /* \"#utility.yul\":19427:19438   */\n      dup2\n        /* \"#utility.yul\":19409:19439   */\n      tag_411\n      jump\t// in\n    tag_658:\n        /* \"#utility.yul\":19398:19439   */\n      swap2\n      pop\n        /* \"#utility.yul\":19588:19589   */\n      dup3\n        /* \"#utility.yul\":19579:19586   */\n      dup3\n        /* \"#utility.yul\":19575:19590   */\n      div\n        /* \"#utility.yul\":19572:19573   */\n      dup5\n        /* \"#utility.yul\":19569:19591   */\n      eq\n        /* \"#utility.yul\":19549:19550   */\n      dup4\n        /* \"#utility.yul\":19542:19551   */\n      iszero\n        /* \"#utility.yul\":19522:19605   */\n      or\n        /* \"#utility.yul\":19499:19638   */\n      tag_659\n      jumpi\n        /* \"#utility.yul\":19618:19636   */\n      tag_660\n      tag_445\n      jump\t// in\n    tag_660:\n        /* \"#utility.yul\":19499:19638   */\n    tag_659:\n        /* \"#utility.yul\":19283:19645   */\n      pop\n        /* \"#utility.yul\":19235:19645   */\n      swap3\n      swap2\n      pop\n      pop\n      jump\t// out\n        /* \"#utility.yul\":19651:19831   */\n    tag_448:\n        /* \"#utility.yul\":19699:19776   */\n      0x4e487b7100000000000000000000000000000000000000000000000000000000\n        /* \"#utility.yul\":19696:19697   */\n      0x00\n        /* \"#utility.yul\":19689:19777   */\n      mstore\n        /* \"#utility.yul\":19796:19800   */\n      0x12\n        /* \"#utility.yul\":19793:19794   */\n      0x04\n        /* \"#utility.yul\":19786:19801   */\n      mstore\n        /* \"#utility.yul\":19820:19824   */\n      0x24\n        /* \"#utility.yul\":19817:19818   */\n      0x00\n        /* \"#utility.yul\":19810:19825   */\n      revert\n        /* \"#utility.yul\":19837:20022   */\n    tag_217:\n        /* \"#utility.yul\":19877:19878   */\n      0x00\n        /* \"#utility.yul\":19894:19914   */\n      tag_663\n        /* \"#utility.yul\":19912:19913   */\n      dup3\n        /* \"#utility.yul\":19894:19914   */\n      tag_411\n      jump\t// in\n    tag_663:\n        /* \"#utility.yul\":19889:19914   */\n      swap2\n      pop\n        /* \"#utility.yul\":19928:19948   */\n      tag_664\n        /* \"#utility.yul\":19946:19947   */\n      dup4\n        /* \"#utility.yul\":19928:19948   */\n      tag_411\n      jump\t// in\n    tag_664:\n        /* \"#utility.yul\":19923:19948   */\n      swap3\n      pop\n        /* \"#utility.yul\":19967:19968   */\n      dup3\n        /* \"#utility.yul\":19957:19992   */\n      tag_665\n      jumpi\n        /* \"#utility.yul\":19972:19990   */\n      tag_666\n      tag_448\n      jump\t// in\n    tag_666:\n        /* \"#utility.yul\":19957:19992   */\n    tag_665:\n        /* \"#utility.yul\":20014:20015   */\n      dup3\n        /* \"#utility.yul\":20011:20012   */\n      dup3\n        /* \"#utility.yul\":20007:20016   */\n      div\n        /* \"#utility.yul\":20002:20016   */\n      swap1\n      pop\n        /* \"#utility.yul\":19837:20022   */\n      swap3\n      swap2\n      pop\n      pop\n      jump\t// out\n        /* \"#utility.yul\":20028:20193   */\n    tag_449:\n        /* \"#utility.yul\":20168:20185   */\n      0x4c6f616e206e6f74206163746976650000000000000000000000000000000000\n        /* \"#utility.yul\":20164:20165   */\n      0x00\n        /* \"#utility.yul\":20156:20162   */\n      dup3\n        /* \"#utility.yul\":20152:20166   */\n      add\n        /* \"#utility.yul\":20145:20186   */\n      mstore\n        /* \"#utility.yul\":20028:20193   */\n      pop\n      jump\t// out\n        /* \"#utility.yul\":20199:20565   */\n    tag_450:\n        /* \"#utility.yul\":20341:20344   */\n      0x00\n        /* \"#utility.yul\":20362:20429   */\n      tag_669\n        /* \"#utility.yul\":20426:20428   */\n      0x0f\n        /* \"#utility.yul\":20421:20424   */\n      dup4\n        /* \"#utility.yul\":20362:20429   */\n      tag_429\n      jump\t// in\n    tag_669:\n        /* \"#utility.yul\":20355:20429   */\n      swap2\n      pop\n        /* \"#utility.yul\":20438:20531   */\n      tag_670\n        /* \"#utility.yul\":20527:20530   */\n      dup3\n        /* \"#utility.yul\":20438:20531   */\n      tag_449\n      jump\t// in\n    tag_670:\n        /* \"#utility.yul\":20556:20558   */\n      0x20\n        /* \"#utility.yul\":20551:20554   */\n      dup3\n        /* \"#utility.yul\":20547:20559   */\n      add\n        /* \"#utility.yul\":20540:20559   */\n      swap1\n      pop\n        /* \"#utility.yul\":20199:20565   */\n      swap2\n      swap1\n      pop\n      jump\t// out\n        /* \"#utility.yul\":20571:20990   */\n    tag_228:\n        /* \"#utility.yul\":20737:20741   */\n      0x00\n        /* \"#utility.yul\":20775:20777   */\n      0x20\n        /* \"#utility.yul\":20764:20773   */\n      dup3\n        /* \"#utility.yul\":20760:20778   */\n      add\n        /* \"#utility.yul\":20752:20778   */\n      swap1\n      pop\n        /* \"#utility.yul\":20824:20833   */\n      dup2\n        /* \"#utility.yul\":20818:20822   */\n      dup2\n        /* \"#utility.yul\":20814:20834   */\n      sub\n        /* \"#utility.yul\":20810:20811   */\n      0x00\n        /* \"#utility.yul\":20799:20808   */\n      dup4\n        /* \"#utility.yul\":20795:20812   */\n      add\n        /* \"#utility.yul\":20788:20835   */\n      mstore\n        /* \"#utility.yul\":20852:20983   */\n      tag_672\n        /* \"#utility.yul\":20978:20982   */\n      dup2\n        /* \"#utility.yul\":20852:20983   */\n      tag_450\n      jump\t// in\n    tag_672:\n        /* \"#utility.yul\":20844:20983   */\n      swap1\n      pop\n        /* \"#utility.yul\":20571:20990   */\n      swap2\n      swap1\n      pop\n      jump\t// out\n        /* \"#utility.yul\":20996:21160   */\n    tag_451:\n        /* \"#utility.yul\":21136:21152   */\n      0x4e6f74206c6f616e206f776e6572000000000000000000000000000000000000\n        /* \"#utility.yul\":21132:21133   */\n      0x00\n        /* \"#utility.yul\":21124:21130   */\n      dup3\n        /* \"#utility.yul\":21120:21134   */\n      add\n        /* \"#utility.yul\":21113:21153   */\n      mstore\n        /* \"#utility.yul\":20996:21160   */\n      pop\n      jump\t// out\n        /* \"#utility.yul\":21166:21532   */\n    tag_452:\n        /* \"#utility.yul\":21308:21311   */\n      0x00\n        /* \"#utility.yul\":21329:21396   */\n      tag_675\n        /* \"#utility.yul\":21393:21395   */\n      0x0e\n        /* \"#utility.yul\":21388:21391   */\n      dup4\n        /* \"#utility.yul\":21329:21396   */\n      tag_429\n      jump\t// in\n    tag_675:\n        /* \"#utility.yul\":21322:21396   */\n      swap2\n      pop\n        /* \"#utility.yul\":21405:21498   */\n      tag_676\n        /* \"#utility.yul\":21494:21497   */\n      dup3\n        /* \"#utility.yul\":21405:21498   */\n      tag_451\n      jump\t// in\n    tag_676:\n        /* \"#utility.yul\":21523:21525   */\n      0x20\n        /* \"#utility.yul\":21518:21521   */\n      dup3\n        /* \"#utility.yul\":21514:21526   */\n      add\n        /* \"#utility.yul\":21507:21526   */\n      swap1\n      pop\n        /* \"#utility.yul\":21166:21532   */\n      swap2\n      swap1\n      pop\n      jump\t// out\n        /* \"#utility.yul\":21538:21957   */\n    tag_231:\n        /* \"#utility.yul\":21704:21708   */\n      0x00\n        /* \"#utility.yul\":21742:21744   */\n      0x20\n        /* \"#utility.yul\":21731:21740   */\n      dup3\n        /* \"#utility.yul\":21727:21745   */\n      add\n        /* \"#utility.yul\":21719:21745   */\n      swap1\n      pop\n        /* \"#utility.yul\":21791:21800   */\n      dup2\n        /* \"#utility.yul\":21785:21789   */\n      dup2\n        /* \"#utility.yul\":21781:21801   */\n      sub\n        /* \"#utility.yul\":21777:21778   */\n      0x00\n        /* \"#utility.yul\":21766:21775   */\n      dup4\n        /* \"#utility.yul\":21762:21779   */\n      add\n        /* \"#utility.yul\":21755:21802   */\n      mstore\n        /* \"#utility.yul\":21819:21950   */\n      tag_678\n        /* \"#utility.yul\":21945:21949   */\n      dup2\n        /* \"#utility.yul\":21819:21950   */\n      tag_452\n      jump\t// in\n    tag_678:\n        /* \"#utility.yul\":21811:21950   */\n      swap1\n      pop\n        /* \"#utility.yul\":21538:21957   */\n      swap2\n      swap1\n      pop\n      jump\t// out\n        /* \"#utility.yul\":21963:22138   */\n    tag_453:\n        /* \"#utility.yul\":22103:22130   */\n      0x52657061796d656e74207472616e73666572206661696c656400000000000000\n        /* \"#utility.yul\":22099:22100   */\n      0x00\n        /* \"#utility.yul\":22091:22097   */\n      dup3\n        /* \"#utility.yul\":22087:22101   */\n      add\n        /* \"#utility.yul\":22080:22131   */\n      mstore\n        /* \"#utility.yul\":21963:22138   */\n      pop\n      jump\t// out\n        /* \"#utility.yul\":22144:22510   */\n    tag_454:\n        /* \"#utility.yul\":22286:22289   */\n      0x00\n        /* \"#utility.yul\":22307:22374   */\n      tag_681\n        /* \"#utility.yul\":22371:22373   */\n      0x19\n        /* \"#utility.yul\":22366:22369   */\n      dup4\n        /* \"#utility.yul\":22307:22374   */\n      tag_429\n      jump\t// in\n    tag_681:\n        /* \"#utility.yul\":22300:22374   */\n      swap2\n      pop\n        /* \"#utility.yul\":22383:22476   */\n      tag_682\n        /* \"#utility.yul\":22472:22475   */\n      dup3\n        /* \"#utility.yul\":22383:22476   */\n      tag_453\n      jump\t// in\n    tag_682:\n        /* \"#utility.yul\":22501:22503   */\n      0x20\n        /* \"#utility.yul\":22496:22499   */\n      dup3\n        /* \"#utility.yul\":22492:22504   */\n      add\n        /* \"#utility.yul\":22485:22504   */\n      swap1\n      pop\n        /* \"#utility.yul\":22144:22510   */\n      swap2\n      swap1\n      pop\n      jump\t// out\n        /* \"#utility.yul\":22516:22935   */\n    tag_240:\n        /* \"#utility.yul\":22682:22686   */\n      0x00\n        /* \"#utility.yul\":22720:22722   */\n      0x20\n        /* \"#utility.yul\":22709:22718   */\n      dup3\n        /* \"#utility.yul\":22705:22723   */\n      add\n        /* \"#utility.yul\":22697:22723   */\n      swap1\n      pop\n        /* \"#utility.yul\":22769:22778   */\n      dup2\n        /* \"#utility.yul\":22763:22767   */\n      dup2\n        /* \"#utility.yul\":22759:22779   */\n      sub\n        /* \"#utility.yul\":22755:22756   */\n      0x00\n        /* \"#utility.yul\":22744:22753   */\n      dup4\n        /* \"#utility.yul\":22740:22757   */\n      add\n        /* \"#utility.yul\":22733:22780   */\n      mstore\n        /* \"#utility.yul\":22797:22928   */\n      tag_684\n        /* \"#utility.yul\":22923:22927   */\n      dup2\n        /* \"#utility.yul\":22797:22928   */\n      tag_454\n      jump\t// in\n    tag_684:\n        /* \"#utility.yul\":22789:22928   */\n      swap1\n      pop\n        /* \"#utility.yul\":22516:22935   */\n      swap2\n      swap1\n      pop\n      jump\t// out\n        /* \"#utility.yul\":22941:23115   */\n    tag_455:\n        /* \"#utility.yul\":23081:23107   */\n      0x436f6c6c61746572616c2072657475726e206661696c65640000000000000000\n        /* \"#utility.yul\":23077:23078   */\n      0x00\n        /* \"#utility.yul\":23069:23075   */\n      dup3\n        /* \"#utility.yul\":23065:23079   */\n      add\n        /* \"#utility.yul\":23058:23108   */\n      mstore\n        /* \"#utility.yul\":22941:23115   */\n      pop\n      jump\t// out\n        /* \"#utility.yul\":23121:23487   */\n    tag_456:\n        /* \"#utility.yul\":23263:23266   */\n      0x00\n        /* \"#utility.yul\":23284:23351   */\n      tag_687\n        /* \"#utility.yul\":23348:23350   */\n      0x18\n        /* \"#utility.yul\":23343:23346   */\n      dup4\n        /* \"#utility.yul\":23284:23351   */\n      tag_429\n      jump\t// in\n    tag_687:\n        /* \"#utility.yul\":23277:23351   */\n      swap2\n      pop\n        /* \"#utility.yul\":23360:23453   */\n      tag_688\n        /* \"#utility.yul\":23449:23452   */\n      dup3\n        /* \"#utility.yul\":23360:23453   */\n      tag_455\n      jump\t// in\n    tag_688:\n        /* \"#utility.yul\":23478:23480   */\n      0x20\n        /* \"#utility.yul\":23473:23476   */\n      dup3\n        /* \"#utility.yul\":23469:23481   */\n      add\n        /* \"#utility.yul\":23462:23481   */\n      swap1\n      pop\n        /* \"#utility.yul\":23121:23487   */\n      swap2\n      swap1\n      pop\n      jump\t// out\n        /* \"#utility.yul\":23493:23912   */\n    tag_247:\n        /* \"#utility.yul\":23659:23663   */\n      0x00\n        /* \"#utility.yul\":23697:23699   */\n      0x20\n        /* \"#utility.yul\":23686:23695   */\n      dup3\n        /* \"#utility.yul\":23682:23700   */\n      add\n        /* \"#utility.yul\":23674:23700   */\n      swap1\n      pop\n        /* \"#utility.yul\":23746:23755   */\n      dup2\n        /* \"#utility.yul\":23740:23744   */\n      dup2\n        /* \"#utility.yul\":23736:23756   */\n      sub\n        /* \"#utility.yul\":23732:23733   */\n      0x00\n        /* \"#utility.yul\":23721:23730   */\n      dup4\n        /* \"#utility.yul\":23717:23734   */\n      add\n        /* \"#utility.yul\":23710:23757   */\n      mstore\n        /* \"#utility.yul\":23774:23905   */\n      tag_690\n        /* \"#utility.yul\":23900:23904   */\n      dup2\n        /* \"#utility.yul\":23774:23905   */\n      tag_456\n      jump\t// in\n    tag_690:\n        /* \"#utility.yul\":23766:23905   */\n      swap1\n      pop\n        /* \"#utility.yul\":23493:23912   */\n      swap2\n      swap1\n      pop\n      jump\t// out\n        /* \"#utility.yul\":23918:24112   */\n    tag_249:\n        /* \"#utility.yul\":23958:23962   */\n      0x00\n        /* \"#utility.yul\":23978:23998   */\n      tag_692\n        /* \"#utility.yul\":23996:23997   */\n      dup3\n        /* \"#utility.yul\":23978:23998   */\n      tag_411\n      jump\t// in\n    tag_692:\n        /* \"#utility.yul\":23973:23998   */\n      swap2\n      pop\n        /* \"#utility.yul\":24012:24032   */\n      tag_693\n        /* \"#utility.yul\":24030:24031   */\n      dup4\n        /* \"#utility.yul\":24012:24032   */\n      tag_411\n      jump\t// in\n    tag_693:\n        /* \"#utility.yul\":24007:24032   */\n      swap3\n      pop\n        /* \"#utility.yul\":24056:24057   */\n      dup3\n        /* \"#utility.yul\":24053:24054   */\n      dup3\n        /* \"#utility.yul\":24049:24058   */\n      sub\n        /* \"#utility.yul\":24041:24058   */\n      swap1\n      pop\n        /* \"#utility.yul\":24080:24081   */\n      dup2\n        /* \"#utility.yul\":24074:24078   */\n      dup2\n        /* \"#utility.yul\":24071:24082   */\n      gt\n        /* \"#utility.yul\":24068:24105   */\n      iszero\n      tag_694\n      jumpi\n        /* \"#utility.yul\":24085:24103   */\n      tag_695\n      tag_445\n      jump\t// in\n    tag_695:\n        /* \"#utility.yul\":24068:24105   */\n    tag_694:\n        /* \"#utility.yul\":23918:24112   */\n      swap3\n      swap2\n      pop\n      pop\n      jump\t// out\n        /* \"#utility.yul\":24118:24289   */\n    tag_457:\n        /* \"#utility.yul\":24258:24281   */\n      0x4c6f616e206e6f74206c6971756964617461626c650000000000000000000000\n        /* \"#utility.yul\":24254:24255   */\n      0x00\n        /* \"#utility.yul\":24246:24252   */\n      dup3\n        /* \"#utility.yul\":24242:24256   */\n      add\n        /* \"#utility.yul\":24235:24282   */\n      mstore\n        /* \"#utility.yul\":24118:24289   */\n      pop\n      jump\t// out\n        /* \"#utility.yul\":24295:24661   */\n    tag_458:\n        /* \"#utility.yul\":24437:24440   */\n      0x00\n        /* \"#utility.yul\":24458:24525   */\n      tag_698\n        /* \"#utility.yul\":24522:24524   */\n      0x15\n        /* \"#utility.yul\":24517:24520   */\n      dup4\n        /* \"#utility.yul\":24458:24525   */\n      tag_429\n      jump\t// in\n    tag_698:\n        /* \"#utility.yul\":24451:24525   */\n      swap2\n      pop\n        /* \"#utility.yul\":24534:24627   */\n      tag_699\n        /* \"#utility.yul\":24623:24626   */\n      dup3\n        /* \"#utility.yul\":24534:24627   */\n      tag_457\n      jump\t// in\n    tag_699:\n        /* \"#utility.yul\":24652:24654   */\n      0x20\n        /* \"#utility.yul\":24647:24650   */\n      dup3\n        /* \"#utility.yul\":24643:24655   */\n      add\n        /* \"#utility.yul\":24636:24655   */\n      swap1\n      pop\n        /* \"#utility.yul\":24295:24661   */\n      swap2\n      swap1\n      pop\n      jump\t// out\n        /* \"#utility.yul\":24667:25086   */\n    tag_267:\n        /* \"#utility.yul\":24833:24837   */\n      0x00\n        /* \"#utility.yul\":24871:24873   */\n      0x20\n        /* \"#utility.yul\":24860:24869   */\n      dup3\n        /* \"#utility.yul\":24856:24874   */\n      add\n        /* \"#utility.yul\":24848:24874   */\n      swap1\n      pop\n        /* \"#utility.yul\":24920:24929   */\n      dup2\n        /* \"#utility.yul\":24914:24918   */\n      dup2\n        /* \"#utility.yul\":24910:24930   */\n      sub\n        /* \"#utility.yul\":24906:24907   */\n      0x00\n        /* \"#utility.yul\":24895:24904   */\n      dup4\n        /* \"#utility.yul\":24891:24908   */\n      add\n        /* \"#utility.yul\":24884:24931   */\n      mstore\n        /* \"#utility.yul\":24948:25079   */\n      tag_701\n        /* \"#utility.yul\":25074:25078   */\n      dup2\n        /* \"#utility.yul\":24948:25079   */\n      tag_458\n      jump\t// in\n    tag_701:\n        /* \"#utility.yul\":24940:25079   */\n      swap1\n      pop\n        /* \"#utility.yul\":24667:25086   */\n      swap2\n      swap1\n      pop\n      jump\t// out\n        /* \"#utility.yul\":25092:25268   */\n    tag_459:\n        /* \"#utility.yul\":25232:25260   */\n      0x4c69717569646174696f6e207061796d656e74206661696c6564000000000000\n        /* \"#utility.yul\":25228:25229   */\n      0x00\n        /* \"#utility.yul\":25220:25226   */\n      dup3\n        /* \"#utility.yul\":25216:25230   */\n      add\n        /* \"#utility.yul\":25209:25261   */\n      mstore\n        /* \"#utility.yul\":25092:25268   */\n      pop\n      jump\t// out\n        /* \"#utility.yul\":25274:25640   */\n    tag_460:\n        /* \"#utility.yul\":25416:25419   */\n      0x00\n        /* \"#utility.yul\":25437:25504   */\n      tag_704\n        /* \"#utility.yul\":25501:25503   */\n      0x1a\n        /* \"#utility.yul\":25496:25499   */\n      dup4\n        /* \"#utility.yul\":25437:25504   */\n      tag_429\n      jump\t// in\n    tag_704:\n        /* \"#utility.yul\":25430:25504   */\n      swap2\n      pop\n        /* \"#utility.yul\":25513:25606   */\n      tag_705\n        /* \"#utility.yul\":25602:25605   */\n      dup3\n        /* \"#utility.yul\":25513:25606   */\n      tag_459\n      jump\t// in\n    tag_705:\n        /* \"#utility.yul\":25631:25633   */\n      0x20\n        /* \"#utility.yul\":25626:25629   */\n      dup3\n        /* \"#utility.yul\":25622:25634   */\n      add\n        /* \"#utility.yul\":25615:25634   */\n      swap1\n      pop\n        /* \"#utility.yul\":25274:25640   */\n      swap2\n      swap1\n      pop\n      jump\t// out\n        /* \"#utility.yul\":25646:26065   */\n    tag_279:\n        /* \"#utility.yul\":25812:25816   */\n      0x00\n        /* \"#utility.yul\":25850:25852   */\n      0x20\n        /* \"#utility.yul\":25839:25848   */\n      dup3\n        /* \"#utility.yul\":25835:25853   */\n      add\n        /* \"#utility.yul\":25827:25853   */\n      swap1\n      pop\n        /* \"#utility.yul\":25899:25908   */\n      dup2\n        /* \"#utility.yul\":25893:25897   */\n      dup2\n        /* \"#utility.yul\":25889:25909   */\n      sub\n        /* \"#utility.yul\":25885:25886   */\n      0x00\n        /* \"#utility.yul\":25874:25883   */\n      dup4\n        /* \"#utility.yul\":25870:25887   */\n      add\n        /* \"#utility.yul\":25863:25910   */\n      mstore\n        /* \"#utility.yul\":25927:26058   */\n      tag_707\n        /* \"#utility.yul\":26053:26057   */\n      dup2\n        /* \"#utility.yul\":25927:26058   */\n      tag_460\n      jump\t// in\n    tag_707:\n        /* \"#utility.yul\":25919:26058   */\n      swap1\n      pop\n        /* \"#utility.yul\":25646:26065   */\n      swap2\n      swap1\n      pop\n      jump\t// out\n        /* \"#utility.yul\":26071:26234   */\n    tag_461:\n        /* \"#utility.yul\":26211:26226   */\n      0x5261746520746f6f206869676800000000000000000000000000000000000000\n        /* \"#utility.yul\":26207:26208   */\n      0x00\n        /* \"#utility.yul\":26199:26205   */\n      dup3\n        /* \"#utility.yul\":26195:26209   */\n      add\n        /* \"#utility.yul\":26188:26227   */\n      mstore\n        /* \"#utility.yul\":26071:26234   */\n      pop\n      jump\t// out\n        /* \"#utility.yul\":26240:26606   */\n    tag_462:\n        /* \"#utility.yul\":26382:26385   */\n      0x00\n        /* \"#utility.yul\":26403:26470   */\n      tag_710\n        /* \"#utility.yul\":26467:26469   */\n      0x0d\n        /* \"#utility.yul\":26462:26465   */\n      dup4\n        /* \"#utility.yul\":26403:26470   */\n      tag_429\n      jump\t// in\n    tag_710:\n        /* \"#utility.yul\":26396:26470   */\n      swap2\n      pop\n        /* \"#utility.yul\":26479:26572   */\n      tag_711\n        /* \"#utility.yul\":26568:26571   */\n      dup3\n        /* \"#utility.yul\":26479:26572   */\n      tag_461\n      jump\t// in\n    tag_711:\n        /* \"#utility.yul\":26597:26599   */\n      0x20\n        /* \"#utility.yul\":26592:26595   */\n      dup3\n        /* \"#utility.yul\":26588:26600   */\n      add\n        /* \"#utility.yul\":26581:26600   */\n      swap1\n      pop\n        /* \"#utility.yul\":26240:26606   */\n      swap2\n      swap1\n      pop\n      jump\t// out\n        /* \"#utility.yul\":26612:27031   */\n    tag_296:\n        /* \"#utility.yul\":26778:26782   */\n      0x00\n        /* \"#utility.yul\":26816:26818   */\n      0x20\n        /* \"#utility.yul\":26805:26814   */\n      dup3\n        /* \"#utility.yul\":26801:26819   */\n      add\n        /* \"#utility.yul\":26793:26819   */\n      swap1\n      pop\n        /* \"#utility.yul\":26865:26874   */\n      dup2\n        /* \"#utility.yul\":26859:26863   */\n      dup2\n        /* \"#utility.yul\":26855:26875   */\n      sub\n        /* \"#utility.yul\":26851:26852   */\n      0x00\n        /* \"#utility.yul\":26840:26849   */\n      dup4\n        /* \"#utility.yul\":26836:26853   */\n      add\n        /* \"#utility.yul\":26829:26876   */\n      mstore\n        /* \"#utility.yul\":26893:27024   */\n      tag_713\n        /* \"#utility.yul\":27019:27023   */\n      dup2\n        /* \"#utility.yul\":26893:27024   */\n      tag_462\n      jump\t// in\n    tag_713:\n        /* \"#utility.yul\":26885:27024   */\n      swap1\n      pop\n        /* \"#utility.yul\":26612:27031   */\n      swap2\n      swap1\n      pop\n      jump\t// out\n        /* \"#utility.yul\":27037:27202   */\n    tag_463:\n        /* \"#utility.yul\":27177:27194   */\n      0x5769746864726177206661696c65640000000000000000000000000000000000\n        /* \"#utility.yul\":27173:27174   */\n      0x00\n        /* \"#utility.yul\":27165:27171   */\n      dup3\n        /* \"#utility.yul\":27161:27175   */\n      add\n        /* \"#utility.yul\":27154:27195   */\n      mstore\n        /* \"#utility.yul\":27037:27202   */\n      pop\n      jump\t// out\n        /* \"#utility.yul\":27208:27574   */\n    tag_464:\n        /* \"#utility.yul\":27350:27353   */\n      0x00\n        /* \"#utility.yul\":27371:27438   */\n      tag_716\n        /* \"#utility.yul\":27435:27437   */\n      0x0f\n        /* \"#utility.yul\":27430:27433   */\n      dup4\n        /* \"#utility.yul\":27371:27438   */\n      tag_429\n      jump\t// in\n    tag_716:\n        /* \"#utility.yul\":27364:27438   */\n      swap2\n      pop\n        /* \"#utility.yul\":27447:27540   */\n      tag_717\n        /* \"#utility.yul\":27536:27539   */\n      dup3\n        /* \"#utility.yul\":27447:27540   */\n      tag_463\n      jump\t// in\n    tag_717:\n        /* \"#utility.yul\":27565:27567   */\n      0x20\n        /* \"#utility.yul\":27560:27563   */\n      dup3\n        /* \"#utility.yul\":27556:27568   */\n      add\n        /* \"#utility.yul\":27549:27568   */\n      swap1\n      pop\n        /* \"#utility.yul\":27208:27574   */\n      swap2\n      swap1\n      pop\n      jump\t// out\n        /* \"#utility.yul\":27580:27999   */\n    tag_330:\n        /* \"#utility.yul\":27746:27750   */\n      0x00\n        /* \"#utility.yul\":27784:27786   */\n      0x20\n        /* \"#utility.yul\":27773:27782   */\n      dup3\n        /* \"#utility.yul\":27769:27787   */\n      add\n        /* \"#utility.yul\":27761:27787   */\n      swap1\n      pop\n        /* \"#utility.yul\":27833:27842   */\n      dup2\n        /* \"#utility.yul\":27827:27831   */\n      dup2\n        /* \"#utility.yul\":27823:27843   */\n      sub\n        /* \"#utility.yul\":27819:27820   */\n      0x00\n        /* \"#utility.yul\":27808:27817   */\n      dup4\n        /* \"#utility.yul\":27804:27821   */\n      add\n        /* \"#utility.yul\":27797:27844   */\n      mstore\n        /* \"#utility.yul\":27861:27992   */\n      tag_719\n        /* \"#utility.yul\":27987:27991   */\n      dup2\n        /* \"#utility.yul\":27861:27992   */\n      tag_464\n      jump\t// in\n    tag_719:\n        /* \"#utility.yul\":27853:27992   */\n      swap1\n      pop\n        /* \"#utility.yul\":27580:27999   */\n      swap2\n      swap1\n      pop\n      jump\t// out\n        /* \"#utility.yul\":28005:28173   */\n    tag_465:\n        /* \"#utility.yul\":28145:28165   */\n      0x416d6f756e74206d757374206265203e20300000000000000000000000000000\n        /* \"#utility.yul\":28141:28142   */\n      0x00\n        /* \"#utility.yul\":28133:28139   */\n      dup3\n        /* \"#utility.yul\":28129:28143   */\n      add\n        /* \"#utility.yul\":28122:28166   */\n      mstore\n        /* \"#utility.yul\":28005:28173   */\n      pop\n      jump\t// out\n        /* \"#utility.yul\":28179:28545   */\n    tag_466:\n        /* \"#utility.yul\":28321:28324   */\n      0x00\n        /* \"#utility.yul\":28342:28409   */\n      tag_722\n        /* \"#utility.yul\":28406:28408   */\n      0x12\n        /* \"#utility.yul\":28401:28404   */\n      dup4\n        /* \"#utility.yul\":28342:28409   */\n      tag_429\n      jump\t// in\n    tag_722:\n        /* \"#utility.yul\":28335:28409   */\n      swap2\n      pop\n        /* \"#utility.yul\":28418:28511   */\n      tag_723\n        /* \"#utility.yul\":28507:28510   */\n      dup3\n        /* \"#utility.yul\":28418:28511   */\n      tag_465\n      jump\t// in\n    tag_723:\n        /* \"#utility.yul\":28536:28538   */\n      0x20\n        /* \"#utility.yul\":28531:28534   */\n      dup3\n        /* \"#utility.yul\":28527:28539   */\n      add\n        /* \"#utility.yul\":28520:28539   */\n      swap1\n      pop\n        /* \"#utility.yul\":28179:28545   */\n      swap2\n      swap1\n      pop\n      jump\t// out\n        /* \"#utility.yul\":28551:28970   */\n    tag_347:\n        /* \"#utility.yul\":28717:28721   */\n      0x00\n        /* \"#utility.yul\":28755:28757   */\n      0x20\n        /* \"#utility.yul\":28744:28753   */\n      dup3\n        /* \"#utility.yul\":28740:28758   */\n      add\n        /* \"#utility.yul\":28732:28758   */\n      swap1\n      pop\n        /* \"#utility.yul\":28804:28813   */\n      dup2\n        /* \"#utility.yul\":28798:28802   */\n      dup2\n        /* \"#utility.yul\":28794:28814   */\n      sub\n        /* \"#utility.yul\":28790:28791   */\n      0x00\n        /* \"#utility.yul\":28779:28788   */\n      dup4\n        /* \"#utility.yul\":28775:28792   */\n      add\n        /* \"#utility.yul\":28768:28815   */\n      mstore\n        /* \"#utility.yul\":28832:28963   */\n      tag_725\n        /* \"#utility.yul\":28958:28962   */\n      dup2\n        /* \"#utility.yul\":28832:28963   */\n      tag_466\n      jump\t// in\n    tag_725:\n        /* \"#utility.yul\":28824:28963   */\n      swap1\n      pop\n        /* \"#utility.yul\":28551:28970   */\n      swap2\n      swap1\n      pop\n      jump\t// out\n        /* \"#utility.yul\":28976:29157   */\n    tag_467:\n        /* \"#utility.yul\":29116:29149   */\n      0x5265656e7472616e637947756172643a207265656e7472616e742063616c6c00\n        /* \"#utility.yul\":29112:29113   */\n      0x00\n        /* \"#utility.yul\":29104:29110   */\n      dup3\n        /* \"#utility.yul\":29100:29114   */\n      add\n        /* \"#utility.yul\":29093:29150   */\n      mstore\n        /* \"#utility.yul\":28976:29157   */\n      pop\n      jump\t// out\n        /* \"#utility.yul\":29163:29529   */\n    tag_468:\n        /* \"#utility.yul\":29305:29308   */\n      0x00\n        /* \"#utility.yul\":29326:29393   */\n      tag_728\n        /* \"#utility.yul\":29390:29392   */\n      0x1f\n        /* \"#utility.yul\":29385:29388   */\n      dup4\n        /* \"#utility.yul\":29326:29393   */\n      tag_429\n      jump\t// in\n    tag_728:\n        /* \"#utility.yul\":29319:29393   */\n      swap2\n      pop\n        /* \"#utility.yul\":29402:29495   */\n      tag_729\n        /* \"#utility.yul\":29491:29494   */\n      dup3\n        /* \"#utility.yul\":29402:29495   */\n      tag_467\n      jump\t// in\n    tag_729:\n        /* \"#utility.yul\":29520:29522   */\n      0x20\n        /* \"#utility.yul\":29515:29518   */\n      dup3\n        /* \"#utility.yul\":29511:29523   */\n      add\n        /* \"#utility.yul\":29504:29523   */\n      swap1\n      pop\n        /* \"#utility.yul\":29163:29529   */\n      swap2\n      swap1\n      pop\n      jump\t// out\n        /* \"#utility.yul\":29535:29954   */\n    tag_369:\n        /* \"#utility.yul\":29701:29705   */\n      0x00\n        /* \"#utility.yul\":29739:29741   */\n      0x20\n        /* \"#utility.yul\":29728:29737   */\n      dup3\n        /* \"#utility.yul\":29724:29742   */\n      add\n        /* \"#utility.yul\":29716:29742   */\n      swap1\n      pop\n        /* \"#utility.yul\":29788:29797   */\n      dup2\n        /* \"#utility.yul\":29782:29786   */\n      dup2\n        /* \"#utility.yul\":29778:29798   */\n      sub\n        /* \"#utility.yul\":29774:29775   */\n      0x00\n        /* \"#utility.yul\":29763:29772   */\n      dup4\n        /* \"#utility.yul\":29759:29776   */\n      add\n        /* \"#utility.yul\":29752:29799   */\n      mstore\n        /* \"#utility.yul\":29816:29947   */\n      tag_731\n        /* \"#utility.yul\":29942:29946   */\n      dup2\n        /* \"#utility.yul\":29816:29947   */\n      tag_468\n      jump\t// in\n    tag_731:\n        /* \"#utility.yul\":29808:29947   */\n      swap1\n      pop\n        /* \"#utility.yul\":29535:29954   */\n      swap2\n      swap1\n      pop\n      jump\t// out\n        /* \"#utility.yul\":29960:30126   */\n    tag_469:\n        /* \"#utility.yul\":30100:30118   */\n      0x5061757361626c653a2070617573656400000000000000000000000000000000\n        /* \"#utility.yul\":30096:30097   */\n      0x00\n        /* \"#utility.yul\":30088:30094   */\n      dup3\n        /* \"#utility.yul\":30084:30098   */\n      add\n        /* \"#utility.yul\":30077:30119   */\n      mstore\n        /* \"#utility.yul\":29960:30126   */\n      pop\n      jump\t// out\n        /* \"#utility.yul\":30132:30498   */\n    tag_470:\n        /* \"#utility.yul\":30274:30277   */\n      0x00\n        /* \"#utility.yul\":30295:30362   */\n      tag_734\n        /* \"#utility.yul\":30359:30361   */\n      0x10\n        /* \"#utility.yul\":30354:30357   */\n      dup4\n        /* \"#utility.yul\":30295:30362   */\n      tag_429\n      jump\t// in\n    tag_734:\n        /* \"#utility.yul\":30288:30362   */\n      swap2\n      pop\n        /* \"#utility.yul\":30371:30464   */\n      tag_735\n        /* \"#utility.yul\":30460:30463   */\n      dup3\n        /* \"#utility.yul\":30371:30464   */\n      tag_469\n      jump\t// in\n    tag_735:\n        /* \"#utility.yul\":30489:30491   */\n      0x20\n        /* \"#utility.yul\":30484:30487   */\n      dup3\n        /* \"#utility.yul\":30480:30492   */\n      add\n        /* \"#utility.yul\":30473:30492   */\n      swap1\n      pop\n        /* \"#utility.yul\":30132:30498   */\n      swap2\n      swap1\n      pop\n      jump\t// out\n        /* \"#utility.yul\":30504:30923   */\n    tag_374:\n        /* \"#utility.yul\":30670:30674   */\n      0x00\n        /* \"#utility.yul\":30708:30710   */\n      0x20\n        /* \"#utility.yul\":30697:30706   */\n      dup3\n        /* \"#utility.yul\":30693:30711   */\n      add\n        /* \"#utility.yul\":30685:30711   */\n      swap1\n      pop\n        /* \"#utility.yul\":30757:30766   */\n      dup2\n        /* \"#utility.yul\":30751:30755   */\n      dup2\n        /* \"#utility.yul\":30747:30767   */\n      sub\n        /* \"#utility.yul\":30743:30744   */\n      0x00\n        /* \"#utility.yul\":30732:30741   */\n      dup4\n        /* \"#utility.yul\":30728:30745   */\n      add\n        /* \"#utility.yul\":30721:30768   */\n      mstore\n        /* \"#utility.yul\":30785:30916   */\n      tag_737\n        /* \"#utility.yul\":30911:30915   */\n      dup2\n        /* \"#utility.yul\":30785:30916   */\n      tag_470\n      jump\t// in\n    tag_737:\n        /* \"#utility.yul\":30777:30916   */\n      swap1\n      pop\n        /* \"#utility.yul\":30504:30923   */\n      swap2\n      swap1\n      pop\n      jump\t// out\n        /* \"#utility.yul\":30929:31099   */\n    tag_471:\n        /* \"#utility.yul\":31069:31091   */\n      0x5061757361626c653a206e6f7420706175736564000000000000000000000000\n        /* \"#utility.yul\":31065:31066   */\n      0x00\n        /* \"#utility.yul\":31057:31063   */\n      dup3\n        /* \"#utility.yul\":31053:31067   */\n      add\n        /* \"#utility.yul\":31046:31092   */\n      mstore\n        /* \"#utility.yul\":30929:31099   */\n      pop\n      jump\t// out\n        /* \"#utility.yul\":31105:31471   */\n    tag_472:\n        /* \"#utility.yul\":31247:31250   */\n      0x00\n        /* \"#utility.yul\":31268:31335   */\n      tag_740\n        /* \"#utility.yul\":31332:31334   */\n      0x14\n        /* \"#utility.yul\":31327:31330   */\n      dup4\n        /* \"#utility.yul\":31268:31335   */\n      tag_429\n      jump\t// in\n    tag_740:\n        /* \"#utility.yul\":31261:31335   */\n      swap2\n      pop\n        /* \"#utility.yul\":31344:31437   */\n      tag_741\n        /* \"#utility.yul\":31433:31436   */\n      dup3\n        /* \"#utility.yul\":31344:31437   */\n      tag_471\n      jump\t// in\n    tag_741:\n        /* \"#utility.yul\":31462:31464   */\n      0x20\n        /* \"#utility.yul\":31457:31460   */\n      dup3\n        /* \"#utility.yul\":31453:31465   */\n      add\n        /* \"#utility.yul\":31446:31465   */\n      swap1\n      pop\n        /* \"#utility.yul\":31105:31471   */\n      swap2\n      swap1\n      pop\n      jump\t// out\n        /* \"#utility.yul\":31477:31896   */\n    tag_400:\n        /* \"#utility.yul\":31643:31647   */\n      0x00\n        /* \"#utility.yul\":31681:31683   */\n      0x20\n        /* \"#utility.yul\":31670:31679   */\n      dup3\n        /* \"#utility.yul\":31666:31684   */\n      add\n        /* \"#utility.yul\":31658:31684   */\n      swap1\n      pop\n        /* \"#utility.yul\":31730:31739   */\n      dup2\n        /* \"#utility.yul\":31724:31728   */\n      dup2\n        /* \"#utility.yul\":31720:31740   */\n      sub\n        /* \"#utility.yul\":31716:31717   */\n      0x00\n        /* \"#utility.yul\":31705:31714   */\n      dup4\n        /* \"#utility.yul\":31701:31718   */\n      add\n        /* \"#utility.yul\":31694:31741   */\n      mstore\n        /* \"#utility.yul\":31758:31889   */\n      tag_743\n        /* \"#utility.yul\":31884:31888   */\n      dup2\n        /* \"#utility.yul\":31758:31889   */\n      tag_472\n      jump\t// in\n    tag_743:\n        /* \"#utility.yul\":31750:31889   */\n      swap1\n      pop\n        /* \"#utility.yul\":31477:31896   */\n      swap2\n      swap1\n      pop\n      jump\t// out\n\n    auxdata: 0xa26469706673582212202fc7b26255a2e6587bea20730cb4098ca52a9922a415a55612e5141295a1e18964736f6c634300081e0033\n}\n",
				"bytecode": {
					"linkReferences": {},
					"object": "6080604052610226600555348015610015575f5ffd5b506040516136b03803806136b08339818101604052810190610037919061040c565b3360015f819055505f73ffffffffffffffffffffffffffffffffffffffff168173ffffffffffffffffffffffffffffffffffffffff16036100af575f6040517f1e4fbdf70000000000000000000000000000000000000000000000000000000081526004016100a6919061046b565b60405180910390fd5b6100be816102eb60201b60201c565b505f600160146101000a81548160ff0219169083151502179055505f73ffffffffffffffffffffffffffffffffffffffff168373ffffffffffffffffffffffffffffffffffffffff1603610147576040517f08c379a000000000000000000000000000000000000000000000000000000000815260040161013e906104de565b60405180910390fd5b5f73ffffffffffffffffffffffffffffffffffffffff168273ffffffffffffffffffffffffffffffffffffffff16036101b5576040517f08c379a00000000000000000000000000000000000000000000000000000000081526004016101ac90610546565b60405180910390fd5b5f73ffffffffffffffffffffffffffffffffffffffff168173ffffffffffffffffffffffffffffffffffffffff1603610223576040517f08c379a000000000000000000000000000000000000000000000000000000000815260040161021a906105ae565b60405180910390fd5b8260025f6101000a81548173ffffffffffffffffffffffffffffffffffffffff021916908373ffffffffffffffffffffffffffffffffffffffff1602179055508160035f6101000a81548173ffffffffffffffffffffffffffffffffffffffff021916908373ffffffffffffffffffffffffffffffffffffffff1602179055508060045f6101000a81548173ffffffffffffffffffffffffffffffffffffffff021916908373ffffffffffffffffffffffffffffffffffffffff1602179055505050506105cc565b5f60015f9054906101000a900473ffffffffffffffffffffffffffffffffffffffff1690508160015f6101000a81548173ffffffffffffffffffffffffffffffffffffffff021916908373ffffffffffffffffffffffffffffffffffffffff1602179055508173ffffffffffffffffffffffffffffffffffffffff168173ffffffffffffffffffffffffffffffffffffffff167f8be0079c531659141344cd1fd0a4f28419497f9722a3daafe3b4186f6b6457e060405160405180910390a35050565b5f5ffd5b5f73ffffffffffffffffffffffffffffffffffffffff82169050919050565b5f6103db826103b2565b9050919050565b6103eb816103d1565b81146103f5575f5ffd5b50565b5f81519050610406816103e2565b92915050565b5f5f5f60608486031215610423576104226103ae565b5b5f610430868287016103f8565b9350506020610441868287016103f8565b9250506040610452868287016103f8565b9150509250925092565b610465816103d1565b82525050565b5f60208201905061047e5f83018461045c565b92915050565b5f82825260208201905092915050565b7f496e76616c6964207661756c74425443000000000000000000000000000000005f82015250565b5f6104c8601083610484565b91506104d382610494565b602082019050919050565b5f6020820190508181035f8301526104f5816104bc565b9050919050565b7f496e76616c696420737461626c65636f696e00000000000000000000000000005f82015250565b5f610530601283610484565b915061053b826104fc565b602082019050919050565b5f6020820190508181035f83015261055d81610524565b9050919050565b7f496e76616c6964206f7261636c650000000000000000000000000000000000005f82015250565b5f610598600e83610484565b91506105a382610564565b602082019050919050565b5f6020820190508181035f8301526105c58161058c565b9050919050565b6130d7806105d95f395ff3fe608060405234801561000f575f5ffd5b50600436106101d8575f3560e01c80638da5cb5b11610102578063a8f35adf116100a0578063e1ec3c681161006f578063e1ec3c6814610526578063e1f1c4a71461055d578063e9cbd8221461057b578063f2fde38b14610599576101d8565b8063a8f35adf1461049e578063afd92762146104ba578063d8bad5bd146104d8578063d9e69a0514610508576101d8565b806395ccea67116100dc57806395ccea67146104165780639b8621d5146104325780639d939d1614610450578063a57475e01461046e576101d8565b80638da5cb5b146103bc578063902781a9146103da57806390a8ae9b146103f8576101d8565b80634ac8eb5f1161017a57806361a4d4ef1161014957806361a4d4ef1461034257806366877b8d14610372578063715018a6146103a85780638456cb59146103b2576101d8565b80634ac8eb5f146102cc5780634c19386c146102ea5780635c975abb146103085780635f84f30214610326576101d8565b80632630c12f116101b65780632630c12f1461026c578063371fd8e61461028a5780633f4ba83a146102a6578063415f1240146102b0576101d8565b806302bf321f146101dc5780630ecbcdab1461020c57806317845c691461023c575b5f5ffd5b6101f660048036038101906101f19190612255565b6105b5565b6040516102039190612340565b60405180910390f35b6102266004803603810190610221919061238a565b610648565b60405161023391906123d7565b60405180910390f35b610256600480360381019061025191906123f0565b610cb4565b60405161026391906123d7565b60405180910390f35b610274610eb6565b6040516102819190612476565b60405180910390f35b6102a4600480360381019061029f91906123f0565b610edb565b005b6102ae611265565b005b6102ca60048036038101906102c591906123f0565b611277565b005b6102d46115ec565b6040516102e191906123d7565b60405180910390f35b6102f26115f2565b6040516102ff91906123d7565b60405180910390f35b6103106115f8565b60405161031d91906124a9565b60405180910390f35b610340600480360381019061033b91906123f0565b61160e565b005b61035c600480360381019061035791906123f0565b61169c565b60405161036991906123d7565b60405180910390f35b61038c600480360381019061038791906123f0565b61176e565b60405161039f97969594939291906124d1565b60405180910390f35b6103b0611884565b005b6103ba611897565b005b6103c46118a9565b6040516103d1919061253e565b60405180910390f35b6103e26118d1565b6040516103ef9190612577565b60405180910390f35b6104006118f6565b60405161040d91906123d7565b60405180910390f35b610430600480360381019061042b9190612590565b6118fb565b005b61043a6119c8565b60405161044791906123d7565b60405180910390f35b6104586119cd565b60405161046591906123d7565b60405180910390f35b610488600480360381019061048391906123f0565b6119d3565b60405161049591906123d7565b60405180910390f35b6104b860048036038101906104b3919061238a565b611b12565b005b6104c2611da5565b6040516104cf91906123d7565b60405180910390f35b6104f260048036038101906104ed9190612590565b611dab565b6040516104ff91906123d7565b60405180910390f35b610510611dd6565b60405161051d91906123d7565b60405180910390f35b610540600480360381019061053b91906123f0565b611ddb565b6040516105549897969594939291906125ce565b60405180910390f35b610565611e4a565b60405161057291906123d7565b60405180910390f35b610583611e50565b6040516105909190612577565b60405180910390f35b6105b360048036038101906105ae9190612255565b611e75565b005b6060600a5f8373ffffffffffffffffffffffffffffffffffffffff1673ffffffffffffffffffffffffffffffffffffffff1681526020019081526020015f2080548060200260200160405190810160405280929190818152602001828054801561063c57602002820191905f5260205f20905b815481526020019060010190808311610628575b50505050509050919050565b5f610651611ef9565b610659611f46565b5f831161069b576040517f08c379a0000000000000000000000000000000000000000000000000000000008152600401610692906126a4565b60405180910390fd5b5f82116106dd576040517f08c379a00000000000000000000000000000000000000000000000000000000081526004016106d49061270c565b60405180910390fd5b8260025f9054906101000a900473ffffffffffffffffffffffffffffffffffffffff1673ffffffffffffffffffffffffffffffffffffffff166370a08231336040518263ffffffff1660e01b8152600401610738919061253e565b602060405180830381865afa158015610753573d5f5f3e3d5ffd5b505050506040513d601f19601f82011682018060405250810190610777919061273e565b10156107b8576040517f08c379a00000000000000000000000000000000000000000000000000000000081526004016107af906127b3565b60405180910390fd5b5f6107c28461169c565b905080831115610807576040517f08c379a00000000000000000000000000000000000000000000000000000000081526004016107fe9061281b565b60405180910390fd5b8260035f9054906101000a900473ffffffffffffffffffffffffffffffffffffffff1673ffffffffffffffffffffffffffffffffffffffff166370a08231306040518263ffffffff1660e01b8152600401610862919061253e565b602060405180830381865afa15801561087d573d5f5f3e3d5ffd5b505050506040513d601f19601f820116820180604052508101906108a1919061273e565b10156108e2576040517f08c379a00000000000000000000000000000000000000000000000000000000081526004016108d990612883565b60405180910390fd5b60025f9054906101000a900473ffffffffffffffffffffffffffffffffffffffff1673ffffffffffffffffffffffffffffffffffffffff166323b872dd3330876040518463ffffffff1660e01b8152600401610940939291906128a1565b6020604051808303815f875af115801561095c573d5f5f3e3d5ffd5b505050506040513d601f19601f820116820180604052508101906109809190612900565b6109bf576040517f08c379a00000000000000000000000000000000000000000000000000000000081526004016109b690612975565b60405180910390fd5b60085f8154809291906109d1906129c0565b91905055505f60085490506040518061010001604052808281526020013373ffffffffffffffffffffffffffffffffffffffff16815260200186815260200185815260200160055481526020014281526020014281526020016001151581525060095f8381526020019081526020015f205f820151815f01556020820151816001015f6101000a81548173ffffffffffffffffffffffffffffffffffffffff021916908373ffffffffffffffffffffffffffffffffffffffff16021790555060408201518160020155606082015181600301556080820151816004015560a0820151816005015560c0820151816006015560e0820151816007015f6101000a81548160ff021916908315150217905550905050600a5f3373ffffffffffffffffffffffffffffffffffffffff1673ffffffffffffffffffffffffffffffffffffffff1681526020019081526020015f2081908060018154018082558091505060019003905f5260205f20015f90919091909150558360065f828254610b569190612a07565b925050819055508460075f828254610b6e9190612a07565b9250508190555060035f9054906101000a900473ffffffffffffffffffffffffffffffffffffffff1673ffffffffffffffffffffffffffffffffffffffff1663a9059cbb33866040518363ffffffff1660e01b8152600401610bd1929190612a3a565b6020604051808303815f875af1158015610bed573d5f5f3e3d5ffd5b505050506040513d601f19601f82011682018060405250810190610c119190612900565b610c50576040517f08c379a0000000000000000000000000000000000000000000000000000000008152600401610c4790612aab565b60405180910390fd5b3373ffffffffffffffffffffffffffffffffffffffff16817f3373919ad665425d2cddb4072830e5935b6ee308440fa99b23383648da473bc08787604051610c99929190612ac9565b60405180910390a38092505050610cae611f90565b92915050565b5f5f60095f8481526020019081526020015f20604051806101000160405290815f8201548152602001600182015f9054906101000a900473ffffffffffffffffffffffffffffffffffffffff1673ffffffffffffffffffffffffffffffffffffffff1673ffffffffffffffffffffffffffffffffffffffff1681526020016002820154815260200160038201548152602001600482015481526020016005820154815260200160068201548152602001600782015f9054906101000a900460ff16151515158152505090508060e00151610d91575f915050610eb1565b5f60045f9054906101000a900473ffffffffffffffffffffffffffffffffffffffff1673ffffffffffffffffffffffffffffffffffffffff166398d5fdca6040518163ffffffff1660e01b8152600401602060405180830381865afa158015610dfc573d5f5f3e3d5ffd5b505050506040513d601f19601f82011682018060405250810190610e20919061273e565b90505f6305f5e100828460400151610e389190612af0565b610e429190612b5e565b90505f610e4e866119d3565b8460600151610e5d9190612a07565b90505f8103610e92577fffffffffffffffffffffffffffffffffffffffffffffffffffffffffffffffff945050505050610eb1565b80606483610ea09190612af0565b610eaa9190612b5e565b9450505050505b919050565b60045f9054906101000a900473ffffffffffffffffffffffffffffffffffffffff1681565b610ee3611ef9565b5f60095f8381526020019081526020015f209050806007015f9054906101000a900460ff16610f47576040517f08c379a0000000000000000000000000000000000000000000000000000000008152600401610f3e90612bd8565b60405180910390fd5b3373ffffffffffffffffffffffffffffffffffffffff16816001015f9054906101000a900473ffffffffffffffffffffffffffffffffffffffff1673ffffffffffffffffffffffffffffffffffffffff1614610fd8576040517f08c379a0000000000000000000000000000000000000000000000000000000008152600401610fcf90612c40565b60405180910390fd5b5f610fe2836119d3565b90505f818360030154610ff59190612a07565b905060035f9054906101000a900473ffffffffffffffffffffffffffffffffffffffff1673ffffffffffffffffffffffffffffffffffffffff166323b872dd3330846040518463ffffffff1660e01b8152600401611055939291906128a1565b6020604051808303815f875af1158015611071573d5f5f3e3d5ffd5b505050506040513d601f19601f820116820180604052508101906110959190612900565b6110d4576040517f08c379a00000000000000000000000000000000000000000000000000000000081526004016110cb90612ca8565b60405180910390fd5b60025f9054906101000a900473ffffffffffffffffffffffffffffffffffffffff1673ffffffffffffffffffffffffffffffffffffffff1663a9059cbb3385600201546040518363ffffffff1660e01b8152600401611134929190612a3a565b6020604051808303815f875af1158015611150573d5f5f3e3d5ffd5b505050506040513d601f19601f820116820180604052508101906111749190612900565b6111b3576040517f08c379a00000000000000000000000000000000000000000000000000000000081526004016111aa90612d10565b60405180910390fd5b826003015460065f8282546111c89190612d2e565b92505081905550826002015460075f8282546111e49190612d2e565b925050819055505f836007015f6101000a81548160ff0219169083151502179055503373ffffffffffffffffffffffffffffffffffffffff16847f553c9087bff5b534e499a66dac3fa9db2962cd252ea01165239755836ae5345e838560405161124f929190612ac9565b60405180910390a3505050611262611f90565b50565b61126d611f99565b611275612020565b565b61127f611ef9565b5f60095f8381526020019081526020015f209050806007015f9054906101000a900460ff166112e3576040517f08c379a00000000000000000000000000000000000000000000000000000000081526004016112da90612bd8565b60405180910390fd5b5f6112ed83610cb4565b905060788110611332576040517f08c379a000000000000000000000000000000000000000000000000000000000815260040161132990612dab565b60405180910390fd5b5f61133c846119d3565b836003015461134b9190612a07565b90505f6064600a85600201546113619190612af0565b61136b9190612b5e565b90505f81856002015461137e9190612d2e565b905060035f9054906101000a900473ffffffffffffffffffffffffffffffffffffffff1673ffffffffffffffffffffffffffffffffffffffff166323b872dd3330866040518463ffffffff1660e01b81526004016113de939291906128a1565b6020604051808303815f875af11580156113fa573d5f5f3e3d5ffd5b505050506040513d601f19601f8201168201806040525081019061141e9190612900565b61145d576040517f08c379a000000000000000000000000000000000000000000000000000000000815260040161145490612e13565b60405180910390fd5b60025f9054906101000a900473ffffffffffffffffffffffffffffffffffffffff1673ffffffffffffffffffffffffffffffffffffffff1663a9059cbb33836040518363ffffffff1660e01b81526004016114b9929190612a3a565b6020604051808303815f875af11580156114d5573d5f5f3e3d5ffd5b505050506040513d601f19601f820116820180604052508101906114f99190612900565b611538576040517f08c379a000000000000000000000000000000000000000000000000000000000815260040161152f90612975565b60405180910390fd5b846003015460065f82825461154d9190612d2e565b92505081905550846002015460075f8282546115699190612d2e565b925050819055505f856007015f6101000a81548160ff0219169083151502179055503373ffffffffffffffffffffffffffffffffffffffff16867fd1b144c94c58ceab69737edeed9e57e7a7bf0e63c3232da2b7c1e65d7ab7f3d083856040516115d4929190612ac9565b60405180910390a350505050506115e9611f90565b50565b60075481565b60065481565b5f600160149054906101000a900460ff16905090565b611616611f99565b6107d081111561165b576040517f08c379a000000000000000000000000000000000000000000000000000000000815260040161165290612e7b565b60405180910390fd5b806005819055507fa90e14be5aa57b910aa6dc16c31ff1b5cda380ae25a793b0d3f74df6131a7d748160405161169191906123d7565b60405180910390a150565b5f5f60045f9054906101000a900473ffffffffffffffffffffffffffffffffffffffff1673ffffffffffffffffffffffffffffffffffffffff166398d5fdca6040518163ffffffff1660e01b8152600401602060405180830381865afa158015611708573d5f5f3e3d5ffd5b505050506040513d601f19601f8201168201806040525081019061172c919061273e565b90505f6305f5e10082856117409190612af0565b61174a9190612b5e565b9050609660648261175b9190612af0565b6117659190612b5e565b92505050919050565b5f5f5f5f5f5f5f5f60095f8a81526020019081526020015f20604051806101000160405290815f8201548152602001600182015f9054906101000a900473ffffffffffffffffffffffffffffffffffffffff1673ffffffffffffffffffffffffffffffffffffffff1673ffffffffffffffffffffffffffffffffffffffff1681526020016002820154815260200160038201548152602001600482015481526020016005820154815260200160068201548152602001600782015f9054906101000a900460ff1615151515815250509050806020015181604001518260600151836080015161185c8d610cb4565b6118658e6119d3565b8660e00151975097509750975097509750975050919395979092949650565b61188c611f99565b6118955f612082565b565b61189f611f99565b6118a7612145565b565b5f60015f9054906101000a900473ffffffffffffffffffffffffffffffffffffffff16905090565b60025f9054906101000a900473ffffffffffffffffffffffffffffffffffffffff1681565b607881565b611903611f99565b8173ffffffffffffffffffffffffffffffffffffffff1663a9059cbb6119276118a9565b836040518363ffffffff1660e01b8152600401611945929190612a3a565b6020604051808303815f875af1158015611961573d5f5f3e3d5ffd5b505050506040513d601f19601f820116820180604052508101906119859190612900565b6119c4576040517f08c379a00000000000000000000000000000000000000000000000000000000081526004016119bb90612ee3565b60405180910390fd5b5050565b600a81565b60085481565b5f5f60095f8481526020019081526020015f20604051806101000160405290815f8201548152602001600182015f9054906101000a900473ffffffffffffffffffffffffffffffffffffffff1673ffffffffffffffffffffffffffffffffffffffff1673ffffffffffffffffffffffffffffffffffffffff1681526020016002820154815260200160038201548152602001600482015481526020016005820154815260200160068201548152602001600782015f9054906101000a900460ff16151515158152505090508060e00151611ab0575f915050611b0d565b5f8160c0015142611ac19190612d2e565b90505f61271083608001518460600151611adb9190612af0565b611ae59190612b5e565b90505f6301e133808383611af99190612af0565b611b039190612b5e565b9050809450505050505b919050565b611b1a611ef9565b5f60095f8481526020019081526020015f209050806007015f9054906101000a900460ff16611b7e576040517f08c379a0000000000000000000000000000000000000000000000000000000008152600401611b7590612bd8565b60405180910390fd5b3373ffffffffffffffffffffffffffffffffffffffff16816001015f9054906101000a900473ffffffffffffffffffffffffffffffffffffffff1673ffffffffffffffffffffffffffffffffffffffff1614611c0f576040517f08c379a0000000000000000000000000000000000000000000000000000000008152600401611c0690612c40565b60405180910390fd5b5f8211611c51576040517f08c379a0000000000000000000000000000000000000000000000000000000008152600401611c4890612f4b565b60405180910390fd5b60025f9054906101000a900473ffffffffffffffffffffffffffffffffffffffff1673ffffffffffffffffffffffffffffffffffffffff166323b872dd3330856040518463ffffffff1660e01b8152600401611caf939291906128a1565b6020604051808303815f875af1158015611ccb573d5f5f3e3d5ffd5b505050506040513d601f19601f82011682018060405250810190611cef9190612900565b611d2e576040517f08c379a0000000000000000000000000000000000000000000000000000000008152600401611d2590612975565b60405180910390fd5b81816002015f828254611d419190612a07565b925050819055508160075f828254611d599190612a07565b92505081905550827f244160b15e69cc411f041d94ae7fab6f6bba85dade8403216c05ff4b920d544983604051611d9091906123d7565b60405180910390a250611da1611f90565b5050565b60055481565b600a602052815f5260405f208181548110611dc4575f80fd5b905f5260205f20015f91509150505481565b609681565b6009602052805f5260405f205f91509050805f015490806001015f9054906101000a900473ffffffffffffffffffffffffffffffffffffffff1690806002015490806003015490806004015490806005015490806006015490806007015f9054906101000a900460ff16905088565b61271081565b60035f9054906101000a900473ffffffffffffffffffffffffffffffffffffffff1681565b611e7d611f99565b5f73ffffffffffffffffffffffffffffffffffffffff168173ffffffffffffffffffffffffffffffffffffffff1603611eed575f6040517f1e4fbdf7000000000000000000000000000000000000000000000000000000008152600401611ee4919061253e565b60405180910390fd5b611ef681612082565b50565b60025f5403611f3d576040517f08c379a0000000000000000000000000000000000000000000000000000000008152600401611f3490612fb3565b60405180910390fd5b60025f81905550565b611f4e6115f8565b15611f8e576040517f08c379a0000000000000000000000000000000000000000000000000000000008152600401611f859061301b565b60405180910390fd5b565b60015f81905550565b611fa16121a7565b73ffffffffffffffffffffffffffffffffffffffff16611fbf6118a9565b73ffffffffffffffffffffffffffffffffffffffff161461201e57611fe26121a7565b6040517f118cdaa7000000000000000000000000000000000000000000000000000000008152600401612015919061253e565b60405180910390fd5b565b6120286121ae565b5f600160146101000a81548160ff0219169083151502179055507f5db9ee0a495bf2e6ff9c91a7834c1ba4fdd244a5e8aa4e537bd38aeae4b073aa61206b6121a7565b604051612078919061253e565b60405180910390a1565b5f60015f9054906101000a900473ffffffffffffffffffffffffffffffffffffffff1690508160015f6101000a81548173ffffffffffffffffffffffffffffffffffffffff021916908373ffffffffffffffffffffffffffffffffffffffff1602179055508173ffffffffffffffffffffffffffffffffffffffff168173ffffffffffffffffffffffffffffffffffffffff167f8be0079c531659141344cd1fd0a4f28419497f9722a3daafe3b4186f6b6457e060405160405180910390a35050565b61214d611f46565b60018060146101000a81548160ff0219169083151502179055507f62e78cea01bee320cd4e420270b5ea74000d11b0c9f74754ebdbfc544b05a2586121906121a7565b60405161219d919061253e565b60405180910390a1565b5f33905090565b6121b66115f8565b6121f5576040517f08c379a00000000000000000000000000000000000000000000000000000000081526004016121ec90613083565b60405180910390fd5b565b5f5ffd5b5f73ffffffffffffffffffffffffffffffffffffffff82169050919050565b5f612224826121fb565b9050919050565b6122348161221a565b811461223e575f5ffd5b50565b5f8135905061224f8161222b565b92915050565b5f6020828403121561226a576122696121f7565b5b5f61227784828501612241565b91505092915050565b5f81519050919050565b5f82825260208201905092915050565b5f819050602082019050919050565b5f819050919050565b6122bb816122a9565b82525050565b5f6122cc83836122b2565b60208301905092915050565b5f602082019050919050565b5f6122ee82612280565b6122f8818561228a565b93506123038361229a565b805f5b8381101561233357815161231a88826122c1565b9750612325836122d8565b925050600181019050612306565b5085935050505092915050565b5f6020820190508181035f83015261235881846122e4565b905092915050565b612369816122a9565b8114612373575f5ffd5b50565b5f8135905061238481612360565b92915050565b5f5f604083850312156123a05761239f6121f7565b5b5f6123ad85828601612376565b92505060206123be85828601612376565b9150509250929050565b6123d1816122a9565b82525050565b5f6020820190506123ea5f8301846123c8565b92915050565b5f60208284031215612405576124046121f7565b5b5f61241284828501612376565b91505092915050565b5f819050919050565b5f61243e612439612434846121fb565b61241b565b6121fb565b9050919050565b5f61244f82612424565b9050919050565b5f61246082612445565b9050919050565b61247081612456565b82525050565b5f6020820190506124895f830184612467565b92915050565b5f8115159050919050565b6124a38161248f565b82525050565b5f6020820190506124bc5f83018461249a565b92915050565b6124cb8161221a565b82525050565b5f60e0820190506124e45f83018a6124c2565b6124f160208301896123c8565b6124fe60408301886123c8565b61250b60608301876123c8565b61251860808301866123c8565b61252560a08301856123c8565b61253260c083018461249a565b98975050505050505050565b5f6020820190506125515f8301846124c2565b92915050565b5f61256182612445565b9050919050565b61257181612557565b82525050565b5f60208201905061258a5f830184612568565b92915050565b5f5f604083850312156125a6576125a56121f7565b5b5f6125b385828601612241565b92505060206125c485828601612376565b9150509250929050565b5f610100820190506125e25f83018b6123c8565b6125ef602083018a6124c2565b6125fc60408301896123c8565b61260960608301886123c8565b61261660808301876123c8565b61262360a08301866123c8565b61263060c08301856123c8565b61263d60e083018461249a565b9998505050505050505050565b5f82825260208201905092915050565b7f436f6c6c61746572616c206d757374206265203e2030000000000000000000005f82015250565b5f61268e60168361264a565b91506126998261265a565b602082019050919050565b5f6020820190508181035f8301526126bb81612682565b9050919050565b7f426f72726f7720616d6f756e74206d757374206265203e2030000000000000005f82015250565b5f6126f660198361264a565b9150612701826126c2565b602082019050919050565b5f6020820190508181035f830152612723816126ea565b9050919050565b5f8151905061273881612360565b92915050565b5f60208284031215612753576127526121f7565b5b5f6127608482850161272a565b91505092915050565b7f496e73756666696369656e74207661756c744254432062616c616e63650000005f82015250565b5f61279d601d8361264a565b91506127a882612769565b602082019050919050565b5f6020820190508181035f8301526127ca81612791565b9050919050565b7f496e73756666696369656e7420636f6c6c61746572616c0000000000000000005f82015250565b5f61280560178361264a565b9150612810826127d1565b602082019050919050565b5f6020820190508181035f830152612832816127f9565b9050919050565b7f496e73756666696369656e74206c6971756964697479000000000000000000005f82015250565b5f61286d60168361264a565b915061287882612839565b602082019050919050565b5f6020820190508181035f83015261289a81612861565b9050919050565b5f6060820190506128b45f8301866124c2565b6128c160208301856124c2565b6128ce60408301846123c8565b949350505050565b6128df8161248f565b81146128e9575f5ffd5b50565b5f815190506128fa816128d6565b92915050565b5f60208284031215612915576129146121f7565b5b5f612922848285016128ec565b91505092915050565b7f436f6c6c61746572616c207472616e73666572206661696c65640000000000005f82015250565b5f61295f601a8361264a565b915061296a8261292b565b602082019050919050565b5f6020820190508181035f83015261298c81612953565b9050919050565b7f4e487b71000000000000000000000000000000000000000000000000000000005f52601160045260245ffd5b5f6129ca826122a9565b91507fffffffffffffffffffffffffffffffffffffffffffffffffffffffffffffffff82036129fc576129fb612993565b5b600182019050919050565b5f612a11826122a9565b9150612a1c836122a9565b9250828201905080821115612a3457612a33612993565b5b92915050565b5f604082019050612a4d5f8301856124c2565b612a5a60208301846123c8565b9392505050565b7f426f72726f77207472616e73666572206661696c6564000000000000000000005f82015250565b5f612a9560168361264a565b9150612aa082612a61565b602082019050919050565b5f6020820190508181035f830152612ac281612a89565b9050919050565b5f604082019050612adc5f8301856123c8565b612ae960208301846123c8565b9392505050565b5f612afa826122a9565b9150612b05836122a9565b9250828202612b13816122a9565b91508282048414831517612b2a57612b29612993565b5b5092915050565b7f4e487b71000000000000000000000000000000000000000000000000000000005f52601260045260245ffd5b5f612b68826122a9565b9150612b73836122a9565b925082612b8357612b82612b31565b5b828204905092915050565b7f4c6f616e206e6f742061637469766500000000000000000000000000000000005f82015250565b5f612bc2600f8361264a565b9150612bcd82612b8e565b602082019050919050565b5f6020820190508181035f830152612bef81612bb6565b9050919050565b7f4e6f74206c6f616e206f776e65720000000000000000000000000000000000005f82015250565b5f612c2a600e8361264a565b9150612c3582612bf6565b602082019050919050565b5f6020820190508181035f830152612c5781612c1e565b9050919050565b7f52657061796d656e74207472616e73666572206661696c6564000000000000005f82015250565b5f612c9260198361264a565b9150612c9d82612c5e565b602082019050919050565b5f6020820190508181035f830152612cbf81612c86565b9050919050565b7f436f6c6c61746572616c2072657475726e206661696c656400000000000000005f82015250565b5f612cfa60188361264a565b9150612d0582612cc6565b602082019050919050565b5f6020820190508181035f830152612d2781612cee565b9050919050565b5f612d38826122a9565b9150612d43836122a9565b9250828203905081811115612d5b57612d5a612993565b5b92915050565b7f4c6f616e206e6f74206c6971756964617461626c6500000000000000000000005f82015250565b5f612d9560158361264a565b9150612da082612d61565b602082019050919050565b5f6020820190508181035f830152612dc281612d89565b9050919050565b7f4c69717569646174696f6e207061796d656e74206661696c65640000000000005f82015250565b5f612dfd601a8361264a565b9150612e0882612dc9565b602082019050919050565b5f6020820190508181035f830152612e2a81612df1565b9050919050565b7f5261746520746f6f2068696768000000000000000000000000000000000000005f82015250565b5f612e65600d8361264a565b9150612e7082612e31565b602082019050919050565b5f6020820190508181035f830152612e9281612e59565b9050919050565b7f5769746864726177206661696c656400000000000000000000000000000000005f82015250565b5f612ecd600f8361264a565b9150612ed882612e99565b602082019050919050565b5f6020820190508181035f830152612efa81612ec1565b9050919050565b7f416d6f756e74206d757374206265203e203000000000000000000000000000005f82015250565b5f612f3560128361264a565b9150612f4082612f01565b602082019050919050565b5f6020820190508181035f830152612f6281612f29565b9050919050565b7f5265656e7472616e637947756172643a207265656e7472616e742063616c6c005f82015250565b5f612f9d601f8361264a565b9150612fa882612f69565b602082019050919050565b5f6020820190508181035f830152612fca81612f91565b9050919050565b7f5061757361626c653a20706175736564000000000000000000000000000000005f82015250565b5f61300560108361264a565b915061301082612fd1565b602082019050919050565b5f6020820190508181035f83015261303281612ff9565b9050919050565b7f5061757361626c653a206e6f74207061757365640000000000000000000000005f82015250565b5f61306d60148361264a565b915061307882613039565b602082019050919050565b5f6020820190508181035f83015261309a81613061565b905091905056fea26469706673582212202fc7b26255a2e6587bea20730cb4098ca52a9922a415a55612e5141295a1e18964736f6c634300081e0033",
					"opcodes": "PUSH1 0x80 PUSH1 0x40 MSTORE PUSH2 0x226 PUSH1 0x5 SSTORE CALLVALUE DUP1 ISZERO PUSH2 0x15 JUMPI PUSH0 PUSH0 REVERT JUMPDEST POP PUSH1 0x40 MLOAD PUSH2 0x36B0 CODESIZE SUB DUP1 PUSH2 0x36B0 DUP4 CODECOPY DUP2 DUP2 ADD PUSH1 0x40 MSTORE DUP2 ADD SWAP1 PUSH2 0x37 SWAP2 SWAP1 PUSH2 0x40C JUMP JUMPDEST CALLER PUSH1 0x1 PUSH0 DUP2 SWAP1 SSTORE POP PUSH0 PUSH20 0xFFFFFFFFFFFFFFFFFFFFFFFFFFFFFFFFFFFFFFFF AND DUP2 PUSH20 0xFFFFFFFFFFFFFFFFFFFFFFFFFFFFFFFFFFFFFFFF AND SUB PUSH2 0xAF JUMPI PUSH0 PUSH1 0x40 MLOAD PUSH32 0x1E4FBDF700000000000000000000000000000000000000000000000000000000 DUP2 MSTORE PUSH1 0x4 ADD PUSH2 0xA6 SWAP2 SWAP1 PUSH2 0x46B JUMP JUMPDEST PUSH1 0x40 MLOAD DUP1 SWAP2 SUB SWAP1 REVERT JUMPDEST PUSH2 0xBE DUP2 PUSH2 0x2EB PUSH1 0x20 SHL PUSH1 0x20 SHR JUMP JUMPDEST POP PUSH0 PUSH1 0x1 PUSH1 0x14 PUSH2 0x100 EXP DUP2 SLOAD DUP2 PUSH1 0xFF MUL NOT AND SWAP1 DUP4 ISZERO ISZERO MUL OR SWAP1 SSTORE POP PUSH0 PUSH20 0xFFFFFFFFFFFFFFFFFFFFFFFFFFFFFFFFFFFFFFFF AND DUP4 PUSH20 0xFFFFFFFFFFFFFFFFFFFFFFFFFFFFFFFFFFFFFFFF AND SUB PUSH2 0x147 JUMPI PUSH1 0x40 MLOAD PUSH32 0x8C379A000000000000000000000000000000000000000000000000000000000 DUP2 MSTORE PUSH1 0x4 ADD PUSH2 0x13E SWAP1 PUSH2 0x4DE JUMP JUMPDEST PUSH1 0x40 MLOAD DUP1 SWAP2 SUB SWAP1 REVERT JUMPDEST PUSH0 PUSH20 0xFFFFFFFFFFFFFFFFFFFFFFFFFFFFFFFFFFFFFFFF AND DUP3 PUSH20 0xFFFFFFFFFFFFFFFFFFFFFFFFFFFFFFFFFFFFFFFF AND SUB PUSH2 0x1B5 JUMPI PUSH1 0x40 MLOAD PUSH32 0x8C379A000000000000000000000000000000000000000000000000000000000 DUP2 MSTORE PUSH1 0x4 ADD PUSH2 0x1AC SWAP1 PUSH2 0x546 JUMP JUMPDEST PUSH1 0x40 MLOAD DUP1 SWAP2 SUB SWAP1 REVERT JUMPDEST PUSH0 PUSH20 0xFFFFFFFFFFFFFFFFFFFFFFFFFFFFFFFFFFFFFFFF AND DUP2 PUSH20 0xFFFFFFFFFFFFFFFFFFFFFFFFFFFFFFFFFFFFFFFF AND SUB PUSH2 0x223 JUMPI PUSH1 0x40 MLOAD PUSH32 0x8C379A000000000000000000000000000000000000000000000000000000000 DUP2 MSTORE PUSH1 0x4 ADD PUSH2 0x21A SWAP1 PUSH2 0x5AE JUMP JUMPDEST PUSH1 0x40 MLOAD DUP1 SWAP2 SUB SWAP1 REVERT JUMPDEST DUP3 PUSH1 0x2 PUSH0 PUSH2 0x100 EXP DUP2 SLOAD DUP2 PUSH20 0xFFFFFFFFFFFFFFFFFFFFFFFFFFFFFFFFFFFFFFFF MUL NOT AND SWAP1 DUP4 PUSH20 0xFFFFFFFFFFFFFFFFFFFFFFFFFFFFFFFFFFFFFFFF AND MUL OR SWAP1 SSTORE POP DUP2 PUSH1 0x3 PUSH0 PUSH2 0x100 EXP DUP2 SLOAD DUP2 PUSH20 0xFFFFFFFFFFFFFFFFFFFFFFFFFFFFFFFFFFFFFFFF MUL NOT AND SWAP1 DUP4 PUSH20 0xFFFFFFFFFFFFFFFFFFFFFFFFFFFFFFFFFFFFFFFF AND MUL OR SWAP1 SSTORE POP DUP1 PUSH1 0x4 PUSH0 PUSH2 0x100 EXP DUP2 SLOAD DUP2 PUSH20 0xFFFFFFFFFFFFFFFFFFFFFFFFFFFFFFFFFFFFFFFF MUL NOT AND SWAP1 DUP4 PUSH20 0xFFFFFFFFFFFFFFFFFFFFFFFFFFFFFFFFFFFFFFFF AND MUL OR SWAP1 SSTORE POP POP POP POP PUSH2 0x5CC JUMP JUMPDEST PUSH0 PUSH1 0x1 PUSH0 SWAP1 SLOAD SWAP1 PUSH2 0x100 EXP SWAP1 DIV PUSH20 0xFFFFFFFFFFFFFFFFFFFFFFFFFFFFFFFFFFFFFFFF AND SWAP1 POP DUP2 PUSH1 0x1 PUSH0 PUSH2 0x100 EXP DUP2 SLOAD DUP2 PUSH20 0xFFFFFFFFFFFFFFFFFFFFFFFFFFFFFFFFFFFFFFFF MUL NOT AND SWAP1 DUP4 PUSH20 0xFFFFFFFFFFFFFFFFFFFFFFFFFFFFFFFFFFFFFFFF AND MUL OR SWAP1 SSTORE POP DUP2 PUSH20 0xFFFFFFFFFFFFFFFFFFFFFFFFFFFFFFFFFFFFFFFF AND DUP2 PUSH20 0xFFFFFFFFFFFFFFFFFFFFFFFFFFFFFFFFFFFFFFFF AND PUSH32 0x8BE0079C531659141344CD1FD0A4F28419497F9722A3DAAFE3B4186F6B6457E0 PUSH1 0x40 MLOAD PUSH1 0x40 MLOAD DUP1 SWAP2 SUB SWAP1 LOG3 POP POP JUMP JUMPDEST PUSH0 PUSH0 REVERT JUMPDEST PUSH0 PUSH20 0xFFFFFFFFFFFFFFFFFFFFFFFFFFFFFFFFFFFFFFFF DUP3 AND SWAP1 POP SWAP2 SWAP1 POP JUMP JUMPDEST PUSH0 PUSH2 0x3DB DUP3 PUSH2 0x3B2 JUMP JUMPDEST SWAP1 POP SWAP2 SWAP1 POP JUMP JUMPDEST PUSH2 0x3EB DUP2 PUSH2 0x3D1 JUMP JUMPDEST DUP2 EQ PUSH2 0x3F5 JUMPI PUSH0 PUSH0 REVERT JUMPDEST POP JUMP JUMPDEST PUSH0 DUP2 MLOAD SWAP1 POP PUSH2 0x406 DUP2 PUSH2 0x3E2 JUMP JUMPDEST SWAP3 SWAP2 POP POP JUMP JUMPDEST PUSH0 PUSH0 PUSH0 PUSH1 0x60 DUP5 DUP7 SUB SLT ISZERO PUSH2 0x423 JUMPI PUSH2 0x422 PUSH2 0x3AE JUMP JUMPDEST JUMPDEST PUSH0 PUSH2 0x430 DUP7 DUP3 DUP8 ADD PUSH2 0x3F8 JUMP JUMPDEST SWAP4 POP POP PUSH1 0x20 PUSH2 0x441 DUP7 DUP3 DUP8 ADD PUSH2 0x3F8 JUMP JUMPDEST SWAP3 POP POP PUSH1 0x40 PUSH2 0x452 DUP7 DUP3 DUP8 ADD PUSH2 0x3F8 JUMP JUMPDEST SWAP2 POP POP SWAP3 POP SWAP3 POP SWAP3 JUMP JUMPDEST PUSH2 0x465 DUP2 PUSH2 0x3D1 JUMP JUMPDEST DUP3 MSTORE POP POP JUMP JUMPDEST PUSH0 PUSH1 0x20 DUP3 ADD SWAP1 POP PUSH2 0x47E PUSH0 DUP4 ADD DUP5 PUSH2 0x45C JUMP JUMPDEST SWAP3 SWAP2 POP POP JUMP JUMPDEST PUSH0 DUP3 DUP3 MSTORE PUSH1 0x20 DUP3 ADD SWAP1 POP SWAP3 SWAP2 POP POP JUMP JUMPDEST PUSH32 0x496E76616C6964207661756C7442544300000000000000000000000000000000 PUSH0 DUP3 ADD MSTORE POP JUMP JUMPDEST PUSH0 PUSH2 0x4C8 PUSH1 0x10 DUP4 PUSH2 0x484 JUMP JUMPDEST SWAP2 POP PUSH2 0x4D3 DUP3 PUSH2 0x494 JUMP JUMPDEST PUSH1 0x20 DUP3 ADD SWAP1 POP SWAP2 SWAP1 POP JUMP JUMPDEST PUSH0 PUSH1 0x20 DUP3 ADD SWAP1 POP DUP2 DUP2 SUB PUSH0 DUP4 ADD MSTORE PUSH2 0x4F5 DUP2 PUSH2 0x4BC JUMP JUMPDEST SWAP1 POP SWAP2 SWAP1 POP JUMP JUMPDEST PUSH32 0x496E76616C696420737461626C65636F696E0000000000000000000000000000 PUSH0 DUP3 ADD MSTORE POP JUMP JUMPDEST PUSH0 PUSH2 0x530 PUSH1 0x12 DUP4 PUSH2 0x484 JUMP JUMPDEST SWAP2 POP PUSH2 0x53B DUP3 PUSH2 0x4FC JUMP JUMPDEST PUSH1 0x20 DUP3 ADD SWAP1 POP SWAP2 SWAP1 POP JUMP JUMPDEST PUSH0 PUSH1 0x20 DUP3 ADD SWAP1 POP DUP2 DUP2 SUB PUSH0 DUP4 ADD MSTORE PUSH2 0x55D DUP2 PUSH2 0x524 JUMP JUMPDEST SWAP1 POP SWAP2 SWAP1 POP JUMP JUMPDEST PUSH32 0x496E76616C6964206F7261636C65000000000000000000000000000000000000 PUSH0 DUP3 ADD MSTORE POP JUMP JUMPDEST PUSH0 PUSH2 0x598 PUSH1 0xE DUP4 PUSH2 0x484 JUMP JUMPDEST SWAP2 POP PUSH2 0x5A3 DUP3 PUSH2 0x564 JUMP JUMPDEST PUSH1 0x20 DUP3 ADD SWAP1 POP SWAP2 SWAP1 POP JUMP JUMPDEST PUSH0 PUSH1 0x20 DUP3 ADD SWAP1 POP DUP2 DUP2 SUB PUSH0 DUP4 ADD MSTORE PUSH2 0x5C5 DUP2 PUSH2 0x58C JUMP JUMPDEST SWAP1 POP SWAP2 SWAP1 POP JUMP JUMPDEST PUSH2 0x30D7 DUP1 PUSH2 0x5D9 PUSH0 CODECOPY PUSH0 RETURN INVALID PUSH1 0x80 PUSH1 0x40 MSTORE CALLVALUE DUP1 ISZERO PUSH2 0xF JUMPI PUSH0 PUSH0 REVERT JUMPDEST POP PUSH1 0x4 CALLDATASIZE LT PUSH2 0x1D8 JUMPI PUSH0 CALLDATALOAD PUSH1 0xE0 SHR DUP1 PUSH4 0x8DA5CB5B GT PUSH2 0x102 JUMPI DUP1 PUSH4 0xA8F35ADF GT PUSH2 0xA0 JUMPI DUP1 PUSH4 0xE1EC3C68 GT PUSH2 0x6F JUMPI DUP1 PUSH4 0xE1EC3C68 EQ PUSH2 0x526 JUMPI DUP1 PUSH4 0xE1F1C4A7 EQ PUSH2 0x55D JUMPI DUP1 PUSH4 0xE9CBD822 EQ PUSH2 0x57B JUMPI DUP1 PUSH4 0xF2FDE38B EQ PUSH2 0x599 JUMPI PUSH2 0x1D8 JUMP JUMPDEST DUP1 PUSH4 0xA8F35ADF EQ PUSH2 0x49E JUMPI DUP1 PUSH4 0xAFD92762 EQ PUSH2 0x4BA JUMPI DUP1 PUSH4 0xD8BAD5BD EQ PUSH2 0x4D8 JUMPI DUP1 PUSH4 0xD9E69A05 EQ PUSH2 0x508 JUMPI PUSH2 0x1D8 JUMP JUMPDEST DUP1 PUSH4 0x95CCEA67 GT PUSH2 0xDC JUMPI DUP1 PUSH4 0x95CCEA67 EQ PUSH2 0x416 JUMPI DUP1 PUSH4 0x9B8621D5 EQ PUSH2 0x432 JUMPI DUP1 PUSH4 0x9D939D16 EQ PUSH2 0x450 JUMPI DUP1 PUSH4 0xA57475E0 EQ PUSH2 0x46E JUMPI PUSH2 0x1D8 JUMP JUMPDEST DUP1 PUSH4 0x8DA5CB5B EQ PUSH2 0x3BC JUMPI DUP1 PUSH4 0x902781A9 EQ PUSH2 0x3DA JUMPI DUP1 PUSH4 0x90A8AE9B EQ PUSH2 0x3F8 JUMPI PUSH2 0x1D8 JUMP JUMPDEST DUP1 PUSH4 0x4AC8EB5F GT PUSH2 0x17A JUMPI DUP1 PUSH4 0x61A4D4EF GT PUSH2 0x149 JUMPI DUP1 PUSH4 0x61A4D4EF EQ PUSH2 0x342 JUMPI DUP1 PUSH4 0x66877B8D EQ PUSH2 0x372 JUMPI DUP1 PUSH4 0x715018A6 EQ PUSH2 0x3A8 JUMPI DUP1 PUSH4 0x8456CB59 EQ PUSH2 0x3B2 JUMPI PUSH2 0x1D8 JUMP JUMPDEST DUP1 PUSH4 0x4AC8EB5F EQ PUSH2 0x2CC JUMPI DUP1 PUSH4 0x4C19386C EQ PUSH2 0x2EA JUMPI DUP1 PUSH4 0x5C975ABB EQ PUSH2 0x308 JUMPI DUP1 PUSH4 0x5F84F302 EQ PUSH2 0x326 JUMPI PUSH2 0x1D8 JUMP JUMPDEST DUP1 PUSH4 0x2630C12F GT PUSH2 0x1B6 JUMPI DUP1 PUSH4 0x2630C12F EQ PUSH2 0x26C JUMPI DUP1 PUSH4 0x371FD8E6 EQ PUSH2 0x28A JUMPI DUP1 PUSH4 0x3F4BA83A EQ PUSH2 0x2A6 JUMPI DUP1 PUSH4 0x415F1240 EQ PUSH2 0x2B0 JUMPI PUSH2 0x1D8 JUMP JUMPDEST DUP1 PUSH4 0x2BF321F EQ PUSH2 0x1DC JUMPI DUP1 PUSH4 0xECBCDAB EQ PUSH2 0x20C JUMPI DUP1 PUSH4 0x17845C69 EQ PUSH2 0x23C JUMPI JUMPDEST PUSH0 PUSH0 REVERT JUMPDEST PUSH2 0x1F6 PUSH1 0x4 DUP1 CALLDATASIZE SUB DUP2 ADD SWAP1 PUSH2 0x1F1 SWAP2 SWAP1 PUSH2 0x2255 JUMP JUMPDEST PUSH2 0x5B5 JUMP JUMPDEST PUSH1 0x40 MLOAD PUSH2 0x203 SWAP2 SWAP1 PUSH2 0x2340 JUMP JUMPDEST PUSH1 0x40 MLOAD DUP1 SWAP2 SUB SWAP1 RETURN JUMPDEST PUSH2 0x226 PUSH1 0x4 DUP1 CALLDATASIZE SUB DUP2 ADD SWAP1 PUSH2 0x221 SWAP2 SWAP1 PUSH2 0x238A JUMP JUMPDEST PUSH2 0x648 JUMP JUMPDEST PUSH1 0x40 MLOAD PUSH2 0x233 SWAP2 SWAP1 PUSH2 0x23D7 JUMP JUMPDEST PUSH1 0x40 MLOAD DUP1 SWAP2 SUB SWAP1 RETURN JUMPDEST PUSH2 0x256 PUSH1 0x4 DUP1 CALLDATASIZE SUB DUP2 ADD SWAP1 PUSH2 0x251 SWAP2 SWAP1 PUSH2 0x23F0 JUMP JUMPDEST PUSH2 0xCB4 JUMP JUMPDEST PUSH1 0x40 MLOAD PUSH2 0x263 SWAP2 SWAP1 PUSH2 0x23D7 JUMP JUMPDEST PUSH1 0x40 MLOAD DUP1 SWAP2 SUB SWAP1 RETURN JUMPDEST PUSH2 0x274 PUSH2 0xEB6 JUMP JUMPDEST PUSH1 0x40 MLOAD PUSH2 0x281 SWAP2 SWAP1 PUSH2 0x2476 JUMP JUMPDEST PUSH1 0x40 MLOAD DUP1 SWAP2 SUB SWAP1 RETURN JUMPDEST PUSH2 0x2A4 PUSH1 0x4 DUP1 CALLDATASIZE SUB DUP2 ADD SWAP1 PUSH2 0x29F SWAP2 SWAP1 PUSH2 0x23F0 JUMP JUMPDEST PUSH2 0xEDB JUMP JUMPDEST STOP JUMPDEST PUSH2 0x2AE PUSH2 0x1265 JUMP JUMPDEST STOP JUMPDEST PUSH2 0x2CA PUSH1 0x4 DUP1 CALLDATASIZE SUB DUP2 ADD SWAP1 PUSH2 0x2C5 SWAP2 SWAP1 PUSH2 0x23F0 JUMP JUMPDEST PUSH2 0x1277 JUMP JUMPDEST STOP JUMPDEST PUSH2 0x2D4 PUSH2 0x15EC JUMP JUMPDEST PUSH1 0x40 MLOAD PUSH2 0x2E1 SWAP2 SWAP1 PUSH2 0x23D7 JUMP JUMPDEST PUSH1 0x40 MLOAD DUP1 SWAP2 SUB SWAP1 RETURN JUMPDEST PUSH2 0x2F2 PUSH2 0x15F2 JUMP JUMPDEST PUSH1 0x40 MLOAD PUSH2 0x2FF SWAP2 SWAP1 PUSH2 0x23D7 JUMP JUMPDEST PUSH1 0x40 MLOAD DUP1 SWAP2 SUB SWAP1 RETURN JUMPDEST PUSH2 0x310 PUSH2 0x15F8 JUMP JUMPDEST PUSH1 0x40 MLOAD PUSH2 0x31D SWAP2 SWAP1 PUSH2 0x24A9 JUMP JUMPDEST PUSH1 0x40 MLOAD DUP1 SWAP2 SUB SWAP1 RETURN JUMPDEST PUSH2 0x340 PUSH1 0x4 DUP1 CALLDATASIZE SUB DUP2 ADD SWAP1 PUSH2 0x33B SWAP2 SWAP1 PUSH2 0x23F0 JUMP JUMPDEST PUSH2 0x160E JUMP JUMPDEST STOP JUMPDEST PUSH2 0x35C PUSH1 0x4 DUP1 CALLDATASIZE SUB DUP2 ADD SWAP1 PUSH2 0x357 SWAP2 SWAP1 PUSH2 0x23F0 JUMP JUMPDEST PUSH2 0x169C JUMP JUMPDEST PUSH1 0x40 MLOAD PUSH2 0x369 SWAP2 SWAP1 PUSH2 0x23D7 JUMP JUMPDEST PUSH1 0x40 MLOAD DUP1 SWAP2 SUB SWAP1 RETURN JUMPDEST PUSH2 0x38C PUSH1 0x4 DUP1 CALLDATASIZE SUB DUP2 ADD SWAP1 PUSH2 0x387 SWAP2 SWAP1 PUSH2 0x23F0 JUMP JUMPDEST PUSH2 0x176E JUMP JUMPDEST PUSH1 0x40 MLOAD PUSH2 0x39F SWAP8 SWAP7 SWAP6 SWAP5 SWAP4 SWAP3 SWAP2 SWAP1 PUSH2 0x24D1 JUMP JUMPDEST PUSH1 0x40 MLOAD DUP1 SWAP2 SUB SWAP1 RETURN JUMPDEST PUSH2 0x3B0 PUSH2 0x1884 JUMP JUMPDEST STOP JUMPDEST PUSH2 0x3BA PUSH2 0x1897 JUMP JUMPDEST STOP JUMPDEST PUSH2 0x3C4 PUSH2 0x18A9 JUMP JUMPDEST PUSH1 0x40 MLOAD PUSH2 0x3D1 SWAP2 SWAP1 PUSH2 0x253E JUMP JUMPDEST PUSH1 0x40 MLOAD DUP1 SWAP2 SUB SWAP1 RETURN JUMPDEST PUSH2 0x3E2 PUSH2 0x18D1 JUMP JUMPDEST PUSH1 0x40 MLOAD PUSH2 0x3EF SWAP2 SWAP1 PUSH2 0x2577 JUMP JUMPDEST PUSH1 0x40 MLOAD DUP1 SWAP2 SUB SWAP1 RETURN JUMPDEST PUSH2 0x400 PUSH2 0x18F6 JUMP JUMPDEST PUSH1 0x40 MLOAD PUSH2 0x40D SWAP2 SWAP1 PUSH2 0x23D7 JUMP JUMPDEST PUSH1 0x40 MLOAD DUP1 SWAP2 SUB SWAP1 RETURN JUMPDEST PUSH2 0x430 PUSH1 0x4 DUP1 CALLDATASIZE SUB DUP2 ADD SWAP1 PUSH2 0x42B SWAP2 SWAP1 PUSH2 0x2590 JUMP JUMPDEST PUSH2 0x18FB JUMP JUMPDEST STOP JUMPDEST PUSH2 0x43A PUSH2 0x19C8 JUMP JUMPDEST PUSH1 0x40 MLOAD PUSH2 0x447 SWAP2 SWAP1 PUSH2 0x23D7 JUMP JUMPDEST PUSH1 0x40 MLOAD DUP1 SWAP2 SUB SWAP1 RETURN JUMPDEST PUSH2 0x458 PUSH2 0x19CD JUMP JUMPDEST PUSH1 0x40 MLOAD PUSH2 0x465 SWAP2 SWAP1 PUSH2 0x23D7 JUMP JUMPDEST PUSH1 0x40 MLOAD DUP1 SWAP2 SUB SWAP1 RETURN JUMPDEST PUSH2 0x488 PUSH1 0x4 DUP1 CALLDATASIZE SUB DUP2 ADD SWAP1 PUSH2 0x483 SWAP2 SWAP1 PUSH2 0x23F0 JUMP JUMPDEST PUSH2 0x19D3 JUMP JUMPDEST PUSH1 0x40 MLOAD PUSH2 0x495 SWAP2 SWAP1 PUSH2 0x23D7 JUMP JUMPDEST PUSH1 0x40 MLOAD DUP1 SWAP2 SUB SWAP1 RETURN JUMPDEST PUSH2 0x4B8 PUSH1 0x4 DUP1 CALLDATASIZE SUB DUP2 ADD SWAP1 PUSH2 0x4B3 SWAP2 SWAP1 PUSH2 0x238A JUMP JUMPDEST PUSH2 0x1B12 JUMP JUMPDEST STOP JUMPDEST PUSH2 0x4C2 PUSH2 0x1DA5 JUMP JUMPDEST PUSH1 0x40 MLOAD PUSH2 0x4CF SWAP2 SWAP1 PUSH2 0x23D7 JUMP JUMPDEST PUSH1 0x40 MLOAD DUP1 SWAP2 SUB SWAP1 RETURN JUMPDEST PUSH2 0x4F2 PUSH1 0x4 DUP1 CALLDATASIZE SUB DUP2 ADD SWAP1 PUSH2 0x4ED SWAP2 SWAP1 PUSH2 0x2590 JUMP JUMPDEST PUSH2 0x1DAB JUMP JUMPDEST PUSH1 0x40 MLOAD PUSH2 0x4FF SWAP2 SWAP1 PUSH2 0x23D7 JUMP JUMPDEST PUSH1 0x40 MLOAD DUP1 SWAP2 SUB SWAP1 RETURN JUMPDEST PUSH2 0x510 PUSH2 0x1DD6 JUMP JUMPDEST PUSH1 0x40 MLOAD PUSH2 0x51D SWAP2 SWAP1 PUSH2 0x23D7 JUMP JUMPDEST PUSH1 0x40 MLOAD DUP1 SWAP2 SUB SWAP1 RETURN JUMPDEST PUSH2 0x540 PUSH1 0x4 DUP1 CALLDATASIZE SUB DUP2 ADD SWAP1 PUSH2 0x53B SWAP2 SWAP1 PUSH2 0x23F0 JUMP JUMPDEST PUSH2 0x1DDB JUMP JUMPDEST PUSH1 0x40 MLOAD PUSH2 0x554 SWAP9 SWAP8 SWAP7 SWAP6 SWAP5 SWAP4 SWAP3 SWAP2 SWAP1 PUSH2 0x25CE JUMP JUMPDEST PUSH1 0x40 MLOAD DUP1 SWAP2 SUB SWAP1 RETURN JUMPDEST PUSH2 0x565 PUSH2 0x1E4A JUMP JUMPDEST PUSH1 0x40 MLOAD PUSH2 0x572 SWAP2 SWAP1 PUSH2 0x23D7 JUMP JUMPDEST PUSH1 0x40 MLOAD DUP1 SWAP2 SUB SWAP1 RETURN JUMPDEST PUSH2 0x583 PUSH2 0x1E50 JUMP JUMPDEST PUSH1 0x40 MLOAD PUSH2 0x590 SWAP2 SWAP1 PUSH2 0x2577 JUMP JUMPDEST PUSH1 0x40 MLOAD DUP1 SWAP2 SUB SWAP1 RETURN JUMPDEST PUSH2 0x5B3 PUSH1 0x4 DUP1 CALLDATASIZE SUB DUP2 ADD SWAP1 PUSH2 0x5AE SWAP2 SWAP1 PUSH2 0x2255 JUMP JUMPDEST PUSH2 0x1E75 JUMP JUMPDEST STOP JUMPDEST PUSH1 0x60 PUSH1 0xA PUSH0 DUP4 PUSH20 0xFFFFFFFFFFFFFFFFFFFFFFFFFFFFFFFFFFFFFFFF AND PUSH20 0xFFFFFFFFFFFFFFFFFFFFFFFFFFFFFFFFFFFFFFFF AND DUP2 MSTORE PUSH1 0x20 ADD SWAP1 DUP2 MSTORE PUSH1 0x20 ADD PUSH0 KECCAK256 DUP1 SLOAD DUP1 PUSH1 0x20 MUL PUSH1 0x20 ADD PUSH1 0x40 MLOAD SWAP1 DUP2 ADD PUSH1 0x40 MSTORE DUP1 SWAP3 SWAP2 SWAP1 DUP2 DUP2 MSTORE PUSH1 0x20 ADD DUP3 DUP1 SLOAD DUP1 ISZERO PUSH2 0x63C JUMPI PUSH1 0x20 MUL DUP3 ADD SWAP2 SWAP1 PUSH0 MSTORE PUSH1 0x20 PUSH0 KECCAK256 SWAP1 JUMPDEST DUP2 SLOAD DUP2 MSTORE PUSH1 0x20 ADD SWAP1 PUSH1 0x1 ADD SWAP1 DUP1 DUP4 GT PUSH2 0x628 JUMPI JUMPDEST POP POP POP POP POP SWAP1 POP SWAP2 SWAP1 POP JUMP JUMPDEST PUSH0 PUSH2 0x651 PUSH2 0x1EF9 JUMP JUMPDEST PUSH2 0x659 PUSH2 0x1F46 JUMP JUMPDEST PUSH0 DUP4 GT PUSH2 0x69B JUMPI PUSH1 0x40 MLOAD PUSH32 0x8C379A000000000000000000000000000000000000000000000000000000000 DUP2 MSTORE PUSH1 0x4 ADD PUSH2 0x692 SWAP1 PUSH2 0x26A4 JUMP JUMPDEST PUSH1 0x40 MLOAD DUP1 SWAP2 SUB SWAP1 REVERT JUMPDEST PUSH0 DUP3 GT PUSH2 0x6DD JUMPI PUSH1 0x40 MLOAD PUSH32 0x8C379A000000000000000000000000000000000000000000000000000000000 DUP2 MSTORE PUSH1 0x4 ADD PUSH2 0x6D4 SWAP1 PUSH2 0x270C JUMP JUMPDEST PUSH1 0x40 MLOAD DUP1 SWAP2 SUB SWAP1 REVERT JUMPDEST DUP3 PUSH1 0x2 PUSH0 SWAP1 SLOAD SWAP1 PUSH2 0x100 EXP SWAP1 DIV PUSH20 0xFFFFFFFFFFFFFFFFFFFFFFFFFFFFFFFFFFFFFFFF AND PUSH20 0xFFFFFFFFFFFFFFFFFFFFFFFFFFFFFFFFFFFFFFFF AND PUSH4 0x70A08231 CALLER PUSH1 0x40 MLOAD DUP3 PUSH4 0xFFFFFFFF AND PUSH1 0xE0 SHL DUP2 MSTORE PUSH1 0x4 ADD PUSH2 0x738 SWAP2 SWAP1 PUSH2 0x253E JUMP JUMPDEST PUSH1 0x20 PUSH1 0x40 MLOAD DUP1 DUP4 SUB DUP2 DUP7 GAS STATICCALL ISZERO DUP1 ISZERO PUSH2 0x753 JUMPI RETURNDATASIZE PUSH0 PUSH0 RETURNDATACOPY RETURNDATASIZE PUSH0 REVERT JUMPDEST POP POP POP POP PUSH1 0x40 MLOAD RETURNDATASIZE PUSH1 0x1F NOT PUSH1 0x1F DUP3 ADD AND DUP3 ADD DUP1 PUSH1 0x40 MSTORE POP DUP2 ADD SWAP1 PUSH2 0x777 SWAP2 SWAP1 PUSH2 0x273E JUMP JUMPDEST LT ISZERO PUSH2 0x7B8 JUMPI PUSH1 0x40 MLOAD PUSH32 0x8C379A000000000000000000000000000000000000000000000000000000000 DUP2 MSTORE PUSH1 0x4 ADD PUSH2 0x7AF SWAP1 PUSH2 0x27B3 JUMP JUMPDEST PUSH1 0x40 MLOAD DUP1 SWAP2 SUB SWAP1 REVERT JUMPDEST PUSH0 PUSH2 0x7C2 DUP5 PUSH2 0x169C JUMP JUMPDEST SWAP1 POP DUP1 DUP4 GT ISZERO PUSH2 0x807 JUMPI PUSH1 0x40 MLOAD PUSH32 0x8C379A000000000000000000000000000000000000000000000000000000000 DUP2 MSTORE PUSH1 0x4 ADD PUSH2 0x7FE SWAP1 PUSH2 0x281B JUMP JUMPDEST PUSH1 0x40 MLOAD DUP1 SWAP2 SUB SWAP1 REVERT JUMPDEST DUP3 PUSH1 0x3 PUSH0 SWAP1 SLOAD SWAP1 PUSH2 0x100 EXP SWAP1 DIV PUSH20 0xFFFFFFFFFFFFFFFFFFFFFFFFFFFFFFFFFFFFFFFF AND PUSH20 0xFFFFFFFFFFFFFFFFFFFFFFFFFFFFFFFFFFFFFFFF AND PUSH4 0x70A08231 ADDRESS PUSH1 0x40 MLOAD DUP3 PUSH4 0xFFFFFFFF AND PUSH1 0xE0 SHL DUP2 MSTORE PUSH1 0x4 ADD PUSH2 0x862 SWAP2 SWAP1 PUSH2 0x253E JUMP JUMPDEST PUSH1 0x20 PUSH1 0x40 MLOAD DUP1 DUP4 SUB DUP2 DUP7 GAS STATICCALL ISZERO DUP1 ISZERO PUSH2 0x87D JUMPI RETURNDATASIZE PUSH0 PUSH0 RETURNDATACOPY RETURNDATASIZE PUSH0 REVERT JUMPDEST POP POP POP POP PUSH1 0x40 MLOAD RETURNDATASIZE PUSH1 0x1F NOT PUSH1 0x1F DUP3 ADD AND DUP3 ADD DUP1 PUSH1 0x40 MSTORE POP DUP2 ADD SWAP1 PUSH2 0x8A1 SWAP2 SWAP1 PUSH2 0x273E JUMP JUMPDEST LT ISZERO PUSH2 0x8E2 JUMPI PUSH1 0x40 MLOAD PUSH32 0x8C379A000000000000000000000000000000000000000000000000000000000 DUP2 MSTORE PUSH1 0x4 ADD PUSH2 0x8D9 SWAP1 PUSH2 0x2883 JUMP JUMPDEST PUSH1 0x40 MLOAD DUP1 SWAP2 SUB SWAP1 REVERT JUMPDEST PUSH1 0x2 PUSH0 SWAP1 SLOAD SWAP1 PUSH2 0x100 EXP SWAP1 DIV PUSH20 0xFFFFFFFFFFFFFFFFFFFFFFFFFFFFFFFFFFFFFFFF AND PUSH20 0xFFFFFFFFFFFFFFFFFFFFFFFFFFFFFFFFFFFFFFFF AND PUSH4 0x23B872DD CALLER ADDRESS DUP8 PUSH1 0x40 MLOAD DUP5 PUSH4 0xFFFFFFFF AND PUSH1 0xE0 SHL DUP2 MSTORE PUSH1 0x4 ADD PUSH2 0x940 SWAP4 SWAP3 SWAP2 SWAP1 PUSH2 0x28A1 JUMP JUMPDEST PUSH1 0x20 PUSH1 0x40 MLOAD DUP1 DUP4 SUB DUP2 PUSH0 DUP8 GAS CALL ISZERO DUP1 ISZERO PUSH2 0x95C JUMPI RETURNDATASIZE PUSH0 PUSH0 RETURNDATACOPY RETURNDATASIZE PUSH0 REVERT JUMPDEST POP POP POP POP PUSH1 0x40 MLOAD RETURNDATASIZE PUSH1 0x1F NOT PUSH1 0x1F DUP3 ADD AND DUP3 ADD DUP1 PUSH1 0x40 MSTORE POP DUP2 ADD SWAP1 PUSH2 0x980 SWAP2 SWAP1 PUSH2 0x2900 JUMP JUMPDEST PUSH2 0x9BF JUMPI PUSH1 0x40 MLOAD PUSH32 0x8C379A000000000000000000000000000000000000000000000000000000000 DUP2 MSTORE PUSH1 0x4 ADD PUSH2 0x9B6 SWAP1 PUSH2 0x2975 JUMP JUMPDEST PUSH1 0x40 MLOAD DUP1 SWAP2 SUB SWAP1 REVERT JUMPDEST PUSH1 0x8 PUSH0 DUP2 SLOAD DUP1 SWAP3 SWAP2 SWAP1 PUSH2 0x9D1 SWAP1 PUSH2 0x29C0 JUMP JUMPDEST SWAP2 SWAP1 POP SSTORE POP PUSH0 PUSH1 0x8 SLOAD SWAP1 POP PUSH1 0x40 MLOAD DUP1 PUSH2 0x100 ADD PUSH1 0x40 MSTORE DUP1 DUP3 DUP2 MSTORE PUSH1 0x20 ADD CALLER PUSH20 0xFFFFFFFFFFFFFFFFFFFFFFFFFFFFFFFFFFFFFFFF AND DUP2 MSTORE PUSH1 0x20 ADD DUP7 DUP2 MSTORE PUSH1 0x20 ADD DUP6 DUP2 MSTORE PUSH1 0x20 ADD PUSH1 0x5 SLOAD DUP2 MSTORE PUSH1 0x20 ADD TIMESTAMP DUP2 MSTORE PUSH1 0x20 ADD TIMESTAMP DUP2 MSTORE PUSH1 0x20 ADD PUSH1 0x1 ISZERO ISZERO DUP2 MSTORE POP PUSH1 0x9 PUSH0 DUP4 DUP2 MSTORE PUSH1 0x20 ADD SWAP1 DUP2 MSTORE PUSH1 0x20 ADD PUSH0 KECCAK256 PUSH0 DUP3 ADD MLOAD DUP2 PUSH0 ADD SSTORE PUSH1 0x20 DUP3 ADD MLOAD DUP2 PUSH1 0x1 ADD PUSH0 PUSH2 0x100 EXP DUP2 SLOAD DUP2 PUSH20 0xFFFFFFFFFFFFFFFFFFFFFFFFFFFFFFFFFFFFFFFF MUL NOT AND SWAP1 DUP4 PUSH20 0xFFFFFFFFFFFFFFFFFFFFFFFFFFFFFFFFFFFFFFFF AND MUL OR SWAP1 SSTORE POP PUSH1 0x40 DUP3 ADD MLOAD DUP2 PUSH1 0x2 ADD SSTORE PUSH1 0x60 DUP3 ADD MLOAD DUP2 PUSH1 0x3 ADD SSTORE PUSH1 0x80 DUP3 ADD MLOAD DUP2 PUSH1 0x4 ADD SSTORE PUSH1 0xA0 DUP3 ADD MLOAD DUP2 PUSH1 0x5 ADD SSTORE PUSH1 0xC0 DUP3 ADD MLOAD DUP2 PUSH1 0x6 ADD SSTORE PUSH1 0xE0 DUP3 ADD MLOAD DUP2 PUSH1 0x7 ADD PUSH0 PUSH2 0x100 EXP DUP2 SLOAD DUP2 PUSH1 0xFF MUL NOT AND SWAP1 DUP4 ISZERO ISZERO MUL OR SWAP1 SSTORE POP SWAP1 POP POP PUSH1 0xA PUSH0 CALLER PUSH20 0xFFFFFFFFFFFFFFFFFFFFFFFFFFFFFFFFFFFFFFFF AND PUSH20 0xFFFFFFFFFFFFFFFFFFFFFFFFFFFFFFFFFFFFFFFF AND DUP2 MSTORE PUSH1 0x20 ADD SWAP1 DUP2 MSTORE PUSH1 0x20 ADD PUSH0 KECCAK256 DUP2 SWAP1 DUP1 PUSH1 0x1 DUP2 SLOAD ADD DUP1 DUP3 SSTORE DUP1 SWAP2 POP POP PUSH1 0x1 SWAP1 SUB SWAP1 PUSH0 MSTORE PUSH1 0x20 PUSH0 KECCAK256 ADD PUSH0 SWAP1 SWAP2 SWAP1 SWAP2 SWAP1 SWAP2 POP SSTORE DUP4 PUSH1 0x6 PUSH0 DUP3 DUP3 SLOAD PUSH2 0xB56 SWAP2 SWAP1 PUSH2 0x2A07 JUMP JUMPDEST SWAP3 POP POP DUP2 SWAP1 SSTORE POP DUP5 PUSH1 0x7 PUSH0 DUP3 DUP3 SLOAD PUSH2 0xB6E SWAP2 SWAP1 PUSH2 0x2A07 JUMP JUMPDEST SWAP3 POP POP DUP2 SWAP1 SSTORE POP PUSH1 0x3 PUSH0 SWAP1 SLOAD SWAP1 PUSH2 0x100 EXP SWAP1 DIV PUSH20 0xFFFFFFFFFFFFFFFFFFFFFFFFFFFFFFFFFFFFFFFF AND PUSH20 0xFFFFFFFFFFFFFFFFFFFFFFFFFFFFFFFFFFFFFFFF AND PUSH4 0xA9059CBB CALLER DUP7 PUSH1 0x40 MLOAD DUP4 PUSH4 0xFFFFFFFF AND PUSH1 0xE0 SHL DUP2 MSTORE PUSH1 0x4 ADD PUSH2 0xBD1 SWAP3 SWAP2 SWAP1 PUSH2 0x2A3A JUMP JUMPDEST PUSH1 0x20 PUSH1 0x40 MLOAD DUP1 DUP4 SUB DUP2 PUSH0 DUP8 GAS CALL ISZERO DUP1 ISZERO PUSH2 0xBED JUMPI RETURNDATASIZE PUSH0 PUSH0 RETURNDATACOPY RETURNDATASIZE PUSH0 REVERT JUMPDEST POP POP POP POP PUSH1 0x40 MLOAD RETURNDATASIZE PUSH1 0x1F NOT PUSH1 0x1F DUP3 ADD AND DUP3 ADD DUP1 PUSH1 0x40 MSTORE POP DUP2 ADD SWAP1 PUSH2 0xC11 SWAP2 SWAP1 PUSH2 0x2900 JUMP JUMPDEST PUSH2 0xC50 JUMPI PUSH1 0x40 MLOAD PUSH32 0x8C379A000000000000000000000000000000000000000000000000000000000 DUP2 MSTORE PUSH1 0x4 ADD PUSH2 0xC47 SWAP1 PUSH2 0x2AAB JUMP JUMPDEST PUSH1 0x40 MLOAD DUP1 SWAP2 SUB SWAP1 REVERT JUMPDEST CALLER PUSH20 0xFFFFFFFFFFFFFFFFFFFFFFFFFFFFFFFFFFFFFFFF AND DUP2 PUSH32 0x3373919AD665425D2CDDB4072830E5935B6EE308440FA99B23383648DA473BC0 DUP8 DUP8 PUSH1 0x40 MLOAD PUSH2 0xC99 SWAP3 SWAP2 SWAP1 PUSH2 0x2AC9 JUMP JUMPDEST PUSH1 0x40 MLOAD DUP1 SWAP2 SUB SWAP1 LOG3 DUP1 SWAP3 POP POP POP PUSH2 0xCAE PUSH2 0x1F90 JUMP JUMPDEST SWAP3 SWAP2 POP POP JUMP JUMPDEST PUSH0 PUSH0 PUSH1 0x9 PUSH0 DUP5 DUP2 MSTORE PUSH1 0x20 ADD SWAP1 DUP2 MSTORE PUSH1 0x20 ADD PUSH0 KECCAK256 PUSH1 0x40 MLOAD DUP1 PUSH2 0x100 ADD PUSH1 0x40 MSTORE SWAP1 DUP2 PUSH0 DUP3 ADD SLOAD DUP2 MSTORE PUSH1 0x20 ADD PUSH1 0x1 DUP3 ADD PUSH0 SWAP1 SLOAD SWAP1 PUSH2 0x100 EXP SWAP1 DIV PUSH20 0xFFFFFFFFFFFFFFFFFFFFFFFFFFFFFFFFFFFFFFFF AND PUSH20 0xFFFFFFFFFFFFFFFFFFFFFFFFFFFFFFFFFFFFFFFF AND PUSH20 0xFFFFFFFFFFFFFFFFFFFFFFFFFFFFFFFFFFFFFFFF AND DUP2 MSTORE PUSH1 0x20 ADD PUSH1 0x2 DUP3 ADD SLOAD DUP2 MSTORE PUSH1 0x20 ADD PUSH1 0x3 DUP3 ADD SLOAD DUP2 MSTORE PUSH1 0x20 ADD PUSH1 0x4 DUP3 ADD SLOAD DUP2 MSTORE PUSH1 0x20 ADD PUSH1 0x5 DUP3 ADD SLOAD DUP2 MSTORE PUSH1 0x20 ADD PUSH1 0x6 DUP3 ADD SLOAD DUP2 MSTORE PUSH1 0x20 ADD PUSH1 0x7 DUP3 ADD PUSH0 SWAP1 SLOAD SWAP1 PUSH2 0x100 EXP SWAP1 DIV PUSH1 0xFF AND ISZERO ISZERO ISZERO ISZERO DUP2 MSTORE POP POP SWAP1 POP DUP1 PUSH1 0xE0 ADD MLOAD PUSH2 0xD91 JUMPI PUSH0 SWAP2 POP POP PUSH2 0xEB1 JUMP JUMPDEST PUSH0 PUSH1 0x4 PUSH0 SWAP1 SLOAD SWAP1 PUSH2 0x100 EXP SWAP1 DIV PUSH20 0xFFFFFFFFFFFFFFFFFFFFFFFFFFFFFFFFFFFFFFFF AND PUSH20 0xFFFFFFFFFFFFFFFFFFFFFFFFFFFFFFFFFFFFFFFF AND PUSH4 0x98D5FDCA PUSH1 0x40 MLOAD DUP2 PUSH4 0xFFFFFFFF AND PUSH1 0xE0 SHL DUP2 MSTORE PUSH1 0x4 ADD PUSH1 0x20 PUSH1 0x40 MLOAD DUP1 DUP4 SUB DUP2 DUP7 GAS STATICCALL ISZERO DUP1 ISZERO PUSH2 0xDFC JUMPI RETURNDATASIZE PUSH0 PUSH0 RETURNDATACOPY RETURNDATASIZE PUSH0 REVERT JUMPDEST POP POP POP POP PUSH1 0x40 MLOAD RETURNDATASIZE PUSH1 0x1F NOT PUSH1 0x1F DUP3 ADD AND DUP3 ADD DUP1 PUSH1 0x40 MSTORE POP DUP2 ADD SWAP1 PUSH2 0xE20 SWAP2 SWAP1 PUSH2 0x273E JUMP JUMPDEST SWAP1 POP PUSH0 PUSH4 0x5F5E100 DUP3 DUP5 PUSH1 0x40 ADD MLOAD PUSH2 0xE38 SWAP2 SWAP1 PUSH2 0x2AF0 JUMP JUMPDEST PUSH2 0xE42 SWAP2 SWAP1 PUSH2 0x2B5E JUMP JUMPDEST SWAP1 POP PUSH0 PUSH2 0xE4E DUP7 PUSH2 0x19D3 JUMP JUMPDEST DUP5 PUSH1 0x60 ADD MLOAD PUSH2 0xE5D SWAP2 SWAP1 PUSH2 0x2A07 JUMP JUMPDEST SWAP1 POP PUSH0 DUP2 SUB PUSH2 0xE92 JUMPI PUSH32 0xFFFFFFFFFFFFFFFFFFFFFFFFFFFFFFFFFFFFFFFFFFFFFFFFFFFFFFFFFFFFFFFF SWAP5 POP POP POP POP POP PUSH2 0xEB1 JUMP JUMPDEST DUP1 PUSH1 0x64 DUP4 PUSH2 0xEA0 SWAP2 SWAP1 PUSH2 0x2AF0 JUMP JUMPDEST PUSH2 0xEAA SWAP2 SWAP1 PUSH2 0x2B5E JUMP JUMPDEST SWAP5 POP POP POP POP POP JUMPDEST SWAP2 SWAP1 POP JUMP JUMPDEST PUSH1 0x4 PUSH0 SWAP1 SLOAD SWAP1 PUSH2 0x100 EXP SWAP1 DIV PUSH20 0xFFFFFFFFFFFFFFFFFFFFFFFFFFFFFFFFFFFFFFFF AND DUP2 JUMP JUMPDEST PUSH2 0xEE3 PUSH2 0x1EF9 JUMP JUMPDEST PUSH0 PUSH1 0x9 PUSH0 DUP4 DUP2 MSTORE PUSH1 0x20 ADD SWAP1 DUP2 MSTORE PUSH1 0x20 ADD PUSH0 KECCAK256 SWAP1 POP DUP1 PUSH1 0x7 ADD PUSH0 SWAP1 SLOAD SWAP1 PUSH2 0x100 EXP SWAP1 DIV PUSH1 0xFF AND PUSH2 0xF47 JUMPI PUSH1 0x40 MLOAD PUSH32 0x8C379A000000000000000000000000000000000000000000000000000000000 DUP2 MSTORE PUSH1 0x4 ADD PUSH2 0xF3E SWAP1 PUSH2 0x2BD8 JUMP JUMPDEST PUSH1 0x40 MLOAD DUP1 SWAP2 SUB SWAP1 REVERT JUMPDEST CALLER PUSH20 0xFFFFFFFFFFFFFFFFFFFFFFFFFFFFFFFFFFFFFFFF AND DUP2 PUSH1 0x1 ADD PUSH0 SWAP1 SLOAD SWAP1 PUSH2 0x100 EXP SWAP1 DIV PUSH20 0xFFFFFFFFFFFFFFFFFFFFFFFFFFFFFFFFFFFFFFFF AND PUSH20 0xFFFFFFFFFFFFFFFFFFFFFFFFFFFFFFFFFFFFFFFF AND EQ PUSH2 0xFD8 JUMPI PUSH1 0x40 MLOAD PUSH32 0x8C379A000000000000000000000000000000000000000000000000000000000 DUP2 MSTORE PUSH1 0x4 ADD PUSH2 0xFCF SWAP1 PUSH2 0x2C40 JUMP JUMPDEST PUSH1 0x40 MLOAD DUP1 SWAP2 SUB SWAP1 REVERT JUMPDEST PUSH0 PUSH2 0xFE2 DUP4 PUSH2 0x19D3 JUMP JUMPDEST SWAP1 POP PUSH0 DUP2 DUP4 PUSH1 0x3 ADD SLOAD PUSH2 0xFF5 SWAP2 SWAP1 PUSH2 0x2A07 JUMP JUMPDEST SWAP1 POP PUSH1 0x3 PUSH0 SWAP1 SLOAD SWAP1 PUSH2 0x100 EXP SWAP1 DIV PUSH20 0xFFFFFFFFFFFFFFFFFFFFFFFFFFFFFFFFFFFFFFFF AND PUSH20 0xFFFFFFFFFFFFFFFFFFFFFFFFFFFFFFFFFFFFFFFF AND PUSH4 0x23B872DD CALLER ADDRESS DUP5 PUSH1 0x40 MLOAD DUP5 PUSH4 0xFFFFFFFF AND PUSH1 0xE0 SHL DUP2 MSTORE PUSH1 0x4 ADD PUSH2 0x1055 SWAP4 SWAP3 SWAP2 SWAP1 PUSH2 0x28A1 JUMP JUMPDEST PUSH1 0x20 PUSH1 0x40 MLOAD DUP1 DUP4 SUB DUP2 PUSH0 DUP8 GAS CALL ISZERO DUP1 ISZERO PUSH2 0x1071 JUMPI RETURNDATASIZE PUSH0 PUSH0 RETURNDATACOPY RETURNDATASIZE PUSH0 REVERT JUMPDEST POP POP POP POP PUSH1 0x40 MLOAD RETURNDATASIZE PUSH1 0x1F NOT PUSH1 0x1F DUP3 ADD AND DUP3 ADD DUP1 PUSH1 0x40 MSTORE POP DUP2 ADD SWAP1 PUSH2 0x1095 SWAP2 SWAP1 PUSH2 0x2900 JUMP JUMPDEST PUSH2 0x10D4 JUMPI PUSH1 0x40 MLOAD PUSH32 0x8C379A000000000000000000000000000000000000000000000000000000000 DUP2 MSTORE PUSH1 0x4 ADD PUSH2 0x10CB SWAP1 PUSH2 0x2CA8 JUMP JUMPDEST PUSH1 0x40 MLOAD DUP1 SWAP2 SUB SWAP1 REVERT JUMPDEST PUSH1 0x2 PUSH0 SWAP1 SLOAD SWAP1 PUSH2 0x100 EXP SWAP1 DIV PUSH20 0xFFFFFFFFFFFFFFFFFFFFFFFFFFFFFFFFFFFFFFFF AND PUSH20 0xFFFFFFFFFFFFFFFFFFFFFFFFFFFFFFFFFFFFFFFF AND PUSH4 0xA9059CBB CALLER DUP6 PUSH1 0x2 ADD SLOAD PUSH1 0x40 MLOAD DUP4 PUSH4 0xFFFFFFFF AND PUSH1 0xE0 SHL DUP2 MSTORE PUSH1 0x4 ADD PUSH2 0x1134 SWAP3 SWAP2 SWAP1 PUSH2 0x2A3A JUMP JUMPDEST PUSH1 0x20 PUSH1 0x40 MLOAD DUP1 DUP4 SUB DUP2 PUSH0 DUP8 GAS CALL ISZERO DUP1 ISZERO PUSH2 0x1150 JUMPI RETURNDATASIZE PUSH0 PUSH0 RETURNDATACOPY RETURNDATASIZE PUSH0 REVERT JUMPDEST POP POP POP POP PUSH1 0x40 MLOAD RETURNDATASIZE PUSH1 0x1F NOT PUSH1 0x1F DUP3 ADD AND DUP3 ADD DUP1 PUSH1 0x40 MSTORE POP DUP2 ADD SWAP1 PUSH2 0x1174 SWAP2 SWAP1 PUSH2 0x2900 JUMP JUMPDEST PUSH2 0x11B3 JUMPI PUSH1 0x40 MLOAD PUSH32 0x8C379A000000000000000000000000000000000000000000000000000000000 DUP2 MSTORE PUSH1 0x4 ADD PUSH2 0x11AA SWAP1 PUSH2 0x2D10 JUMP JUMPDEST PUSH1 0x40 MLOAD DUP1 SWAP2 SUB SWAP1 REVERT JUMPDEST DUP3 PUSH1 0x3 ADD SLOAD PUSH1 0x6 PUSH0 DUP3 DUP3 SLOAD PUSH2 0x11C8 SWAP2 SWAP1 PUSH2 0x2D2E JUMP JUMPDEST SWAP3 POP POP DUP2 SWAP1 SSTORE POP DUP3 PUSH1 0x2 ADD SLOAD PUSH1 0x7 PUSH0 DUP3 DUP3 SLOAD PUSH2 0x11E4 SWAP2 SWAP1 PUSH2 0x2D2E JUMP JUMPDEST SWAP3 POP POP DUP2 SWAP1 SSTORE POP PUSH0 DUP4 PUSH1 0x7 ADD PUSH0 PUSH2 0x100 EXP DUP2 SLOAD DUP2 PUSH1 0xFF MUL NOT AND SWAP1 DUP4 ISZERO ISZERO MUL OR SWAP1 SSTORE POP CALLER PUSH20 0xFFFFFFFFFFFFFFFFFFFFFFFFFFFFFFFFFFFFFFFF AND DUP5 PUSH32 0x553C9087BFF5B534E499A66DAC3FA9DB2962CD252EA01165239755836AE5345E DUP4 DUP6 PUSH1 0x40 MLOAD PUSH2 0x124F SWAP3 SWAP2 SWAP1 PUSH2 0x2AC9 JUMP JUMPDEST PUSH1 0x40 MLOAD DUP1 SWAP2 SUB SWAP1 LOG3 POP POP POP PUSH2 0x1262 PUSH2 0x1F90 JUMP JUMPDEST POP JUMP JUMPDEST PUSH2 0x126D PUSH2 0x1F99 JUMP JUMPDEST PUSH2 0x1275 PUSH2 0x2020 JUMP JUMPDEST JUMP JUMPDEST PUSH2 0x127F PUSH2 0x1EF9 JUMP JUMPDEST PUSH0 PUSH1 0x9 PUSH0 DUP4 DUP2 MSTORE PUSH1 0x20 ADD SWAP1 DUP2 MSTORE PUSH1 0x20 ADD PUSH0 KECCAK256 SWAP1 POP DUP1 PUSH1 0x7 ADD PUSH0 SWAP1 SLOAD SWAP1 PUSH2 0x100 EXP SWAP1 DIV PUSH1 0xFF AND PUSH2 0x12E3 JUMPI PUSH1 0x40 MLOAD PUSH32 0x8C379A000000000000000000000000000000000000000000000000000000000 DUP2 MSTORE PUSH1 0x4 ADD PUSH2 0x12DA SWAP1 PUSH2 0x2BD8 JUMP JUMPDEST PUSH1 0x40 MLOAD DUP1 SWAP2 SUB SWAP1 REVERT JUMPDEST PUSH0 PUSH2 0x12ED DUP4 PUSH2 0xCB4 JUMP JUMPDEST SWAP1 POP PUSH1 0x78 DUP2 LT PUSH2 0x1332 JUMPI PUSH1 0x40 MLOAD PUSH32 0x8C379A000000000000000000000000000000000000000000000000000000000 DUP2 MSTORE PUSH1 0x4 ADD PUSH2 0x1329 SWAP1 PUSH2 0x2DAB JUMP JUMPDEST PUSH1 0x40 MLOAD DUP1 SWAP2 SUB SWAP1 REVERT JUMPDEST PUSH0 PUSH2 0x133C DUP5 PUSH2 0x19D3 JUMP JUMPDEST DUP4 PUSH1 0x3 ADD SLOAD PUSH2 0x134B SWAP2 SWAP1 PUSH2 0x2A07 JUMP JUMPDEST SWAP1 POP PUSH0 PUSH1 0x64 PUSH1 0xA DUP6 PUSH1 0x2 ADD SLOAD PUSH2 0x1361 SWAP2 SWAP1 PUSH2 0x2AF0 JUMP JUMPDEST PUSH2 0x136B SWAP2 SWAP1 PUSH2 0x2B5E JUMP JUMPDEST SWAP1 POP PUSH0 DUP2 DUP6 PUSH1 0x2 ADD SLOAD PUSH2 0x137E SWAP2 SWAP1 PUSH2 0x2D2E JUMP JUMPDEST SWAP1 POP PUSH1 0x3 PUSH0 SWAP1 SLOAD SWAP1 PUSH2 0x100 EXP SWAP1 DIV PUSH20 0xFFFFFFFFFFFFFFFFFFFFFFFFFFFFFFFFFFFFFFFF AND PUSH20 0xFFFFFFFFFFFFFFFFFFFFFFFFFFFFFFFFFFFFFFFF AND PUSH4 0x23B872DD CALLER ADDRESS DUP7 PUSH1 0x40 MLOAD DUP5 PUSH4 0xFFFFFFFF AND PUSH1 0xE0 SHL DUP2 MSTORE PUSH1 0x4 ADD PUSH2 0x13DE SWAP4 SWAP3 SWAP2 SWAP1 PUSH2 0x28A1 JUMP JUMPDEST PUSH1 0x20 PUSH1 0x40 MLOAD DUP1 DUP4 SUB DUP2 PUSH0 DUP8 GAS CALL ISZERO DUP1 ISZERO PUSH2 0x13FA JUMPI RETURNDATASIZE PUSH0 PUSH0 RETURNDATACOPY RETURNDATASIZE PUSH0 REVERT JUMPDEST POP POP POP POP PUSH1 0x40 MLOAD RETURNDATASIZE PUSH1 0x1F NOT PUSH1 0x1F DUP3 ADD AND DUP3 ADD DUP1 PUSH1 0x40 MSTORE POP DUP2 ADD SWAP1 PUSH2 0x141E SWAP2 SWAP1 PUSH2 0x2900 JUMP JUMPDEST PUSH2 0x145D JUMPI PUSH1 0x40 MLOAD PUSH32 0x8C379A000000000000000000000000000000000000000000000000000000000 DUP2 MSTORE PUSH1 0x4 ADD PUSH2 0x1454 SWAP1 PUSH2 0x2E13 JUMP JUMPDEST PUSH1 0x40 MLOAD DUP1 SWAP2 SUB SWAP1 REVERT JUMPDEST PUSH1 0x2 PUSH0 SWAP1 SLOAD SWAP1 PUSH2 0x100 EXP SWAP1 DIV PUSH20 0xFFFFFFFFFFFFFFFFFFFFFFFFFFFFFFFFFFFFFFFF AND PUSH20 0xFFFFFFFFFFFFFFFFFFFFFFFFFFFFFFFFFFFFFFFF AND PUSH4 0xA9059CBB CALLER DUP4 PUSH1 0x40 MLOAD DUP4 PUSH4 0xFFFFFFFF AND PUSH1 0xE0 SHL DUP2 MSTORE PUSH1 0x4 ADD PUSH2 0x14B9 SWAP3 SWAP2 SWAP1 PUSH2 0x2A3A JUMP JUMPDEST PUSH1 0x20 PUSH1 0x40 MLOAD DUP1 DUP4 SUB DUP2 PUSH0 DUP8 GAS CALL ISZERO DUP1 ISZERO PUSH2 0x14D5 JUMPI RETURNDATASIZE PUSH0 PUSH0 RETURNDATACOPY RETURNDATASIZE PUSH0 REVERT JUMPDEST POP POP POP POP PUSH1 0x40 MLOAD RETURNDATASIZE PUSH1 0x1F NOT PUSH1 0x1F DUP3 ADD AND DUP3 ADD DUP1 PUSH1 0x40 MSTORE POP DUP2 ADD SWAP1 PUSH2 0x14F9 SWAP2 SWAP1 PUSH2 0x2900 JUMP JUMPDEST PUSH2 0x1538 JUMPI PUSH1 0x40 MLOAD PUSH32 0x8C379A000000000000000000000000000000000000000000000000000000000 DUP2 MSTORE PUSH1 0x4 ADD PUSH2 0x152F SWAP1 PUSH2 0x2975 JUMP JUMPDEST PUSH1 0x40 MLOAD DUP1 SWAP2 SUB SWAP1 REVERT JUMPDEST DUP5 PUSH1 0x3 ADD SLOAD PUSH1 0x6 PUSH0 DUP3 DUP3 SLOAD PUSH2 0x154D SWAP2 SWAP1 PUSH2 0x2D2E JUMP JUMPDEST SWAP3 POP POP DUP2 SWAP1 SSTORE POP DUP5 PUSH1 0x2 ADD SLOAD PUSH1 0x7 PUSH0 DUP3 DUP3 SLOAD PUSH2 0x1569 SWAP2 SWAP1 PUSH2 0x2D2E JUMP JUMPDEST SWAP3 POP POP DUP2 SWAP1 SSTORE POP PUSH0 DUP6 PUSH1 0x7 ADD PUSH0 PUSH2 0x100 EXP DUP2 SLOAD DUP2 PUSH1 0xFF MUL NOT AND SWAP1 DUP4 ISZERO ISZERO MUL OR SWAP1 SSTORE POP CALLER PUSH20 0xFFFFFFFFFFFFFFFFFFFFFFFFFFFFFFFFFFFFFFFF AND DUP7 PUSH32 0xD1B144C94C58CEAB69737EDEED9E57E7A7BF0E63C3232DA2B7C1E65D7AB7F3D0 DUP4 DUP6 PUSH1 0x40 MLOAD PUSH2 0x15D4 SWAP3 SWAP2 SWAP1 PUSH2 0x2AC9 JUMP JUMPDEST PUSH1 0x40 MLOAD DUP1 SWAP2 SUB SWAP1 LOG3 POP POP POP POP POP PUSH2 0x15E9 PUSH2 0x1F90 JUMP JUMPDEST POP JUMP JUMPDEST PUSH1 0x7 SLOAD DUP2 JUMP JUMPDEST PUSH1 0x6 SLOAD DUP2 JUMP JUMPDEST PUSH0 PUSH1 0x1 PUSH1 0x14 SWAP1 SLOAD SWAP1 PUSH2 0x100 EXP SWAP1 DIV PUSH1 0xFF AND SWAP1 POP SWAP1 JUMP JUMPDEST PUSH2 0x1616 PUSH2 0x1F99 JUMP JUMPDEST PUSH2 0x7D0 DUP2 GT ISZERO PUSH2 0x165B JUMPI PUSH1 0x40 MLOAD PUSH32 0x8C379A000000000000000000000000000000000000000000000000000000000 DUP2 MSTORE PUSH1 0x4 ADD PUSH2 0x1652 SWAP1 PUSH2 0x2E7B JUMP JUMPDEST PUSH1 0x40 MLOAD DUP1 SWAP2 SUB SWAP1 REVERT JUMPDEST DUP1 PUSH1 0x5 DUP2 SWAP1 SSTORE POP PUSH32 0xA90E14BE5AA57B910AA6DC16C31FF1B5CDA380AE25A793B0D3F74DF6131A7D74 DUP2 PUSH1 0x40 MLOAD PUSH2 0x1691 SWAP2 SWAP1 PUSH2 0x23D7 JUMP JUMPDEST PUSH1 0x40 MLOAD DUP1 SWAP2 SUB SWAP1 LOG1 POP JUMP JUMPDEST PUSH0 PUSH0 PUSH1 0x4 PUSH0 SWAP1 SLOAD SWAP1 PUSH2 0x100 EXP SWAP1 DIV PUSH20 0xFFFFFFFFFFFFFFFFFFFFFFFFFFFFFFFFFFFFFFFF AND PUSH20 0xFFFFFFFFFFFFFFFFFFFFFFFFFFFFFFFFFFFFFFFF AND PUSH4 0x98D5FDCA PUSH1 0x40 MLOAD DUP2 PUSH4 0xFFFFFFFF AND PUSH1 0xE0 SHL DUP2 MSTORE PUSH1 0x4 ADD PUSH1 0x20 PUSH1 0x40 MLOAD DUP1 DUP4 SUB DUP2 DUP7 GAS STATICCALL ISZERO DUP1 ISZERO PUSH2 0x1708 JUMPI RETURNDATASIZE PUSH0 PUSH0 RETURNDATACOPY RETURNDATASIZE PUSH0 REVERT JUMPDEST POP POP POP POP PUSH1 0x40 MLOAD RETURNDATASIZE PUSH1 0x1F NOT PUSH1 0x1F DUP3 ADD AND DUP3 ADD DUP1 PUSH1 0x40 MSTORE POP DUP2 ADD SWAP1 PUSH2 0x172C SWAP2 SWAP1 PUSH2 0x273E JUMP JUMPDEST SWAP1 POP PUSH0 PUSH4 0x5F5E100 DUP3 DUP6 PUSH2 0x1740 SWAP2 SWAP1 PUSH2 0x2AF0 JUMP JUMPDEST PUSH2 0x174A SWAP2 SWAP1 PUSH2 0x2B5E JUMP JUMPDEST SWAP1 POP PUSH1 0x96 PUSH1 0x64 DUP3 PUSH2 0x175B SWAP2 SWAP1 PUSH2 0x2AF0 JUMP JUMPDEST PUSH2 0x1765 SWAP2 SWAP1 PUSH2 0x2B5E JUMP JUMPDEST SWAP3 POP POP POP SWAP2 SWAP1 POP JUMP JUMPDEST PUSH0 PUSH0 PUSH0 PUSH0 PUSH0 PUSH0 PUSH0 PUSH0 PUSH1 0x9 PUSH0 DUP11 DUP2 MSTORE PUSH1 0x20 ADD SWAP1 DUP2 MSTORE PUSH1 0x20 ADD PUSH0 KECCAK256 PUSH1 0x40 MLOAD DUP1 PUSH2 0x100 ADD PUSH1 0x40 MSTORE SWAP1 DUP2 PUSH0 DUP3 ADD SLOAD DUP2 MSTORE PUSH1 0x20 ADD PUSH1 0x1 DUP3 ADD PUSH0 SWAP1 SLOAD SWAP1 PUSH2 0x100 EXP SWAP1 DIV PUSH20 0xFFFFFFFFFFFFFFFFFFFFFFFFFFFFFFFFFFFFFFFF AND PUSH20 0xFFFFFFFFFFFFFFFFFFFFFFFFFFFFFFFFFFFFFFFF AND PUSH20 0xFFFFFFFFFFFFFFFFFFFFFFFFFFFFFFFFFFFFFFFF AND DUP2 MSTORE PUSH1 0x20 ADD PUSH1 0x2 DUP3 ADD SLOAD DUP2 MSTORE PUSH1 0x20 ADD PUSH1 0x3 DUP3 ADD SLOAD DUP2 MSTORE PUSH1 0x20 ADD PUSH1 0x4 DUP3 ADD SLOAD DUP2 MSTORE PUSH1 0x20 ADD PUSH1 0x5 DUP3 ADD SLOAD DUP2 MSTORE PUSH1 0x20 ADD PUSH1 0x6 DUP3 ADD SLOAD DUP2 MSTORE PUSH1 0x20 ADD PUSH1 0x7 DUP3 ADD PUSH0 SWAP1 SLOAD SWAP1 PUSH2 0x100 EXP SWAP1 DIV PUSH1 0xFF AND ISZERO ISZERO ISZERO ISZERO DUP2 MSTORE POP POP SWAP1 POP DUP1 PUSH1 0x20 ADD MLOAD DUP2 PUSH1 0x40 ADD MLOAD DUP3 PUSH1 0x60 ADD MLOAD DUP4 PUSH1 0x80 ADD MLOAD PUSH2 0x185C DUP14 PUSH2 0xCB4 JUMP JUMPDEST PUSH2 0x1865 DUP15 PUSH2 0x19D3 JUMP JUMPDEST DUP7 PUSH1 0xE0 ADD MLOAD SWAP8 POP SWAP8 POP SWAP8 POP SWAP8 POP SWAP8 POP SWAP8 POP SWAP8 POP POP SWAP2 SWAP4 SWAP6 SWAP8 SWAP1 SWAP3 SWAP5 SWAP7 POP JUMP JUMPDEST PUSH2 0x188C PUSH2 0x1F99 JUMP JUMPDEST PUSH2 0x1895 PUSH0 PUSH2 0x2082 JUMP JUMPDEST JUMP JUMPDEST PUSH2 0x189F PUSH2 0x1F99 JUMP JUMPDEST PUSH2 0x18A7 PUSH2 0x2145 JUMP JUMPDEST JUMP JUMPDEST PUSH0 PUSH1 0x1 PUSH0 SWAP1 SLOAD SWAP1 PUSH2 0x100 EXP SWAP1 DIV PUSH20 0xFFFFFFFFFFFFFFFFFFFFFFFFFFFFFFFFFFFFFFFF AND SWAP1 POP SWAP1 JUMP JUMPDEST PUSH1 0x2 PUSH0 SWAP1 SLOAD SWAP1 PUSH2 0x100 EXP SWAP1 DIV PUSH20 0xFFFFFFFFFFFFFFFFFFFFFFFFFFFFFFFFFFFFFFFF AND DUP2 JUMP JUMPDEST PUSH1 0x78 DUP2 JUMP JUMPDEST PUSH2 0x1903 PUSH2 0x1F99 JUMP JUMPDEST DUP2 PUSH20 0xFFFFFFFFFFFFFFFFFFFFFFFFFFFFFFFFFFFFFFFF AND PUSH4 0xA9059CBB PUSH2 0x1927 PUSH2 0x18A9 JUMP JUMPDEST DUP4 PUSH1 0x40 MLOAD DUP4 PUSH4 0xFFFFFFFF AND PUSH1 0xE0 SHL DUP2 MSTORE PUSH1 0x4 ADD PUSH2 0x1945 SWAP3 SWAP2 SWAP1 PUSH2 0x2A3A JUMP JUMPDEST PUSH1 0x20 PUSH1 0x40 MLOAD DUP1 DUP4 SUB DUP2 PUSH0 DUP8 GAS CALL ISZERO DUP1 ISZERO PUSH2 0x1961 JUMPI RETURNDATASIZE PUSH0 PUSH0 RETURNDATACOPY RETURNDATASIZE PUSH0 REVERT JUMPDEST POP POP POP POP PUSH1 0x40 MLOAD RETURNDATASIZE PUSH1 0x1F NOT PUSH1 0x1F DUP3 ADD AND DUP3 ADD DUP1 PUSH1 0x40 MSTORE POP DUP2 ADD SWAP1 PUSH2 0x1985 SWAP2 SWAP1 PUSH2 0x2900 JUMP JUMPDEST PUSH2 0x19C4 JUMPI PUSH1 0x40 MLOAD PUSH32 0x8C379A000000000000000000000000000000000000000000000000000000000 DUP2 MSTORE PUSH1 0x4 ADD PUSH2 0x19BB SWAP1 PUSH2 0x2EE3 JUMP JUMPDEST PUSH1 0x40 MLOAD DUP1 SWAP2 SUB SWAP1 REVERT JUMPDEST POP POP JUMP JUMPDEST PUSH1 0xA DUP2 JUMP JUMPDEST PUSH1 0x8 SLOAD DUP2 JUMP JUMPDEST PUSH0 PUSH0 PUSH1 0x9 PUSH0 DUP5 DUP2 MSTORE PUSH1 0x20 ADD SWAP1 DUP2 MSTORE PUSH1 0x20 ADD PUSH0 KECCAK256 PUSH1 0x40 MLOAD DUP1 PUSH2 0x100 ADD PUSH1 0x40 MSTORE SWAP1 DUP2 PUSH0 DUP3 ADD SLOAD DUP2 MSTORE PUSH1 0x20 ADD PUSH1 0x1 DUP3 ADD PUSH0 SWAP1 SLOAD SWAP1 PUSH2 0x100 EXP SWAP1 DIV PUSH20 0xFFFFFFFFFFFFFFFFFFFFFFFFFFFFFFFFFFFFFFFF AND PUSH20 0xFFFFFFFFFFFFFFFFFFFFFFFFFFFFFFFFFFFFFFFF AND PUSH20 0xFFFFFFFFFFFFFFFFFFFFFFFFFFFFFFFFFFFFFFFF AND DUP2 MSTORE PUSH1 0x20 ADD PUSH1 0x2 DUP3 ADD SLOAD DUP2 MSTORE PUSH1 0x20 ADD PUSH1 0x3 DUP3 ADD SLOAD DUP2 MSTORE PUSH1 0x20 ADD PUSH1 0x4 DUP3 ADD SLOAD DUP2 MSTORE PUSH1 0x20 ADD PUSH1 0x5 DUP3 ADD SLOAD DUP2 MSTORE PUSH1 0x20 ADD PUSH1 0x6 DUP3 ADD SLOAD DUP2 MSTORE PUSH1 0x20 ADD PUSH1 0x7 DUP3 ADD PUSH0 SWAP1 SLOAD SWAP1 PUSH2 0x100 EXP SWAP1 DIV PUSH1 0xFF AND ISZERO ISZERO ISZERO ISZERO DUP2 MSTORE POP POP SWAP1 POP DUP1 PUSH1 0xE0 ADD MLOAD PUSH2 0x1AB0 JUMPI PUSH0 SWAP2 POP POP PUSH2 0x1B0D JUMP JUMPDEST PUSH0 DUP2 PUSH1 0xC0 ADD MLOAD TIMESTAMP PUSH2 0x1AC1 SWAP2 SWAP1 PUSH2 0x2D2E JUMP JUMPDEST SWAP1 POP PUSH0 PUSH2 0x2710 DUP4 PUSH1 0x80 ADD MLOAD DUP5 PUSH1 0x60 ADD MLOAD PUSH2 0x1ADB SWAP2 SWAP1 PUSH2 0x2AF0 JUMP JUMPDEST PUSH2 0x1AE5 SWAP2 SWAP1 PUSH2 0x2B5E JUMP JUMPDEST SWAP1 POP PUSH0 PUSH4 0x1E13380 DUP4 DUP4 PUSH2 0x1AF9 SWAP2 SWAP1 PUSH2 0x2AF0 JUMP JUMPDEST PUSH2 0x1B03 SWAP2 SWAP1 PUSH2 0x2B5E JUMP JUMPDEST SWAP1 POP DUP1 SWAP5 POP POP POP POP POP JUMPDEST SWAP2 SWAP1 POP JUMP JUMPDEST PUSH2 0x1B1A PUSH2 0x1EF9 JUMP JUMPDEST PUSH0 PUSH1 0x9 PUSH0 DUP5 DUP2 MSTORE PUSH1 0x20 ADD SWAP1 DUP2 MSTORE PUSH1 0x20 ADD PUSH0 KECCAK256 SWAP1 POP DUP1 PUSH1 0x7 ADD PUSH0 SWAP1 SLOAD SWAP1 PUSH2 0x100 EXP SWAP1 DIV PUSH1 0xFF AND PUSH2 0x1B7E JUMPI PUSH1 0x40 MLOAD PUSH32 0x8C379A000000000000000000000000000000000000000000000000000000000 DUP2 MSTORE PUSH1 0x4 ADD PUSH2 0x1B75 SWAP1 PUSH2 0x2BD8 JUMP JUMPDEST PUSH1 0x40 MLOAD DUP1 SWAP2 SUB SWAP1 REVERT JUMPDEST CALLER PUSH20 0xFFFFFFFFFFFFFFFFFFFFFFFFFFFFFFFFFFFFFFFF AND DUP2 PUSH1 0x1 ADD PUSH0 SWAP1 SLOAD SWAP1 PUSH2 0x100 EXP SWAP1 DIV PUSH20 0xFFFFFFFFFFFFFFFFFFFFFFFFFFFFFFFFFFFFFFFF AND PUSH20 0xFFFFFFFFFFFFFFFFFFFFFFFFFFFFFFFFFFFFFFFF AND EQ PUSH2 0x1C0F JUMPI PUSH1 0x40 MLOAD PUSH32 0x8C379A000000000000000000000000000000000000000000000000000000000 DUP2 MSTORE PUSH1 0x4 ADD PUSH2 0x1C06 SWAP1 PUSH2 0x2C40 JUMP JUMPDEST PUSH1 0x40 MLOAD DUP1 SWAP2 SUB SWAP1 REVERT JUMPDEST PUSH0 DUP3 GT PUSH2 0x1C51 JUMPI PUSH1 0x40 MLOAD PUSH32 0x8C379A000000000000000000000000000000000000000000000000000000000 DUP2 MSTORE PUSH1 0x4 ADD PUSH2 0x1C48 SWAP1 PUSH2 0x2F4B JUMP JUMPDEST PUSH1 0x40 MLOAD DUP1 SWAP2 SUB SWAP1 REVERT JUMPDEST PUSH1 0x2 PUSH0 SWAP1 SLOAD SWAP1 PUSH2 0x100 EXP SWAP1 DIV PUSH20 0xFFFFFFFFFFFFFFFFFFFFFFFFFFFFFFFFFFFFFFFF AND PUSH20 0xFFFFFFFFFFFFFFFFFFFFFFFFFFFFFFFFFFFFFFFF AND PUSH4 0x23B872DD CALLER ADDRESS DUP6 PUSH1 0x40 MLOAD DUP5 PUSH4 0xFFFFFFFF AND PUSH1 0xE0 SHL DUP2 MSTORE PUSH1 0x4 ADD PUSH2 0x1CAF SWAP4 SWAP3 SWAP2 SWAP1 PUSH2 0x28A1 JUMP JUMPDEST PUSH1 0x20 PUSH1 0x40 MLOAD DUP1 DUP4 SUB DUP2 PUSH0 DUP8 GAS CALL ISZERO DUP1 ISZERO PUSH2 0x1CCB JUMPI RETURNDATASIZE PUSH0 PUSH0 RETURNDATACOPY RETURNDATASIZE PUSH0 REVERT JUMPDEST POP POP POP POP PUSH1 0x40 MLOAD RETURNDATASIZE PUSH1 0x1F NOT PUSH1 0x1F DUP3 ADD AND DUP3 ADD DUP1 PUSH1 0x40 MSTORE POP DUP2 ADD SWAP1 PUSH2 0x1CEF SWAP2 SWAP1 PUSH2 0x2900 JUMP JUMPDEST PUSH2 0x1D2E JUMPI PUSH1 0x40 MLOAD PUSH32 0x8C379A000000000000000000000000000000000000000000000000000000000 DUP2 MSTORE PUSH1 0x4 ADD PUSH2 0x1D25 SWAP1 PUSH2 0x2975 JUMP JUMPDEST PUSH1 0x40 MLOAD DUP1 SWAP2 SUB SWAP1 REVERT JUMPDEST DUP2 DUP2 PUSH1 0x2 ADD PUSH0 DUP3 DUP3 SLOAD PUSH2 0x1D41 SWAP2 SWAP1 PUSH2 0x2A07 JUMP JUMPDEST SWAP3 POP POP DUP2 SWAP1 SSTORE POP DUP2 PUSH1 0x7 PUSH0 DUP3 DUP3 SLOAD PUSH2 0x1D59 SWAP2 SWAP1 PUSH2 0x2A07 JUMP JUMPDEST SWAP3 POP POP DUP2 SWAP1 SSTORE POP DUP3 PUSH32 0x244160B15E69CC411F041D94AE7FAB6F6BBA85DADE8403216C05FF4B920D5449 DUP4 PUSH1 0x40 MLOAD PUSH2 0x1D90 SWAP2 SWAP1 PUSH2 0x23D7 JUMP JUMPDEST PUSH1 0x40 MLOAD DUP1 SWAP2 SUB SWAP1 LOG2 POP PUSH2 0x1DA1 PUSH2 0x1F90 JUMP JUMPDEST POP POP JUMP JUMPDEST PUSH1 0x5 SLOAD DUP2 JUMP JUMPDEST PUSH1 0xA PUSH1 0x20 MSTORE DUP2 PUSH0 MSTORE PUSH1 0x40 PUSH0 KECCAK256 DUP2 DUP2 SLOAD DUP2 LT PUSH2 0x1DC4 JUMPI PUSH0 DUP1 REVERT JUMPDEST SWAP1 PUSH0 MSTORE PUSH1 0x20 PUSH0 KECCAK256 ADD PUSH0 SWAP2 POP SWAP2 POP POP SLOAD DUP2 JUMP JUMPDEST PUSH1 0x96 DUP2 JUMP JUMPDEST PUSH1 0x9 PUSH1 0x20 MSTORE DUP1 PUSH0 MSTORE PUSH1 0x40 PUSH0 KECCAK256 PUSH0 SWAP2 POP SWAP1 POP DUP1 PUSH0 ADD SLOAD SWAP1 DUP1 PUSH1 0x1 ADD PUSH0 SWAP1 SLOAD SWAP1 PUSH2 0x100 EXP SWAP1 DIV PUSH20 0xFFFFFFFFFFFFFFFFFFFFFFFFFFFFFFFFFFFFFFFF AND SWAP1 DUP1 PUSH1 0x2 ADD SLOAD SWAP1 DUP1 PUSH1 0x3 ADD SLOAD SWAP1 DUP1 PUSH1 0x4 ADD SLOAD SWAP1 DUP1 PUSH1 0x5 ADD SLOAD SWAP1 DUP1 PUSH1 0x6 ADD SLOAD SWAP1 DUP1 PUSH1 0x7 ADD PUSH0 SWAP1 SLOAD SWAP1 PUSH2 0x100 EXP SWAP1 DIV PUSH1 0xFF AND SWAP1 POP DUP9 JUMP JUMPDEST PUSH2 0x2710 DUP2 JUMP JUMPDEST PUSH1 0x3 PUSH0 SWAP1 SLOAD SWAP1 PUSH2 0x100 EXP SWAP1 DIV PUSH20 0xFFFFFFFFFFFFFFFFFFFFFFFFFFFFFFFFFFFFFFFF AND DUP2 JUMP JUMPDEST PUSH2 0x1E7D PUSH2 0x1F99 JUMP JUMPDEST PUSH0 PUSH20 0xFFFFFFFFFFFFFFFFFFFFFFFFFFFFFFFFFFFFFFFF AND DUP2 PUSH20 0xFFFFFFFFFFFFFFFFFFFFFFFFFFFFFFFFFFFFFFFF AND SUB PUSH2 0x1EED JUMPI PUSH0 PUSH1 0x40 MLOAD PUSH32 0x1E4FBDF700000000000000000000000000000000000000000000000000000000 DUP2 MSTORE PUSH1 0x4 ADD PUSH2 0x1EE4 SWAP2 SWAP1 PUSH2 0x253E JUMP JUMPDEST PUSH1 0x40 MLOAD DUP1 SWAP2 SUB SWAP1 REVERT JUMPDEST PUSH2 0x1EF6 DUP2 PUSH2 0x2082 JUMP JUMPDEST POP JUMP JUMPDEST PUSH1 0x2 PUSH0 SLOAD SUB PUSH2 0x1F3D JUMPI PUSH1 0x40 MLOAD PUSH32 0x8C379A000000000000000000000000000000000000000000000000000000000 DUP2 MSTORE PUSH1 0x4 ADD PUSH2 0x1F34 SWAP1 PUSH2 0x2FB3 JUMP JUMPDEST PUSH1 0x40 MLOAD DUP1 SWAP2 SUB SWAP1 REVERT JUMPDEST PUSH1 0x2 PUSH0 DUP2 SWAP1 SSTORE POP JUMP JUMPDEST PUSH2 0x1F4E PUSH2 0x15F8 JUMP JUMPDEST ISZERO PUSH2 0x1F8E JUMPI PUSH1 0x40 MLOAD PUSH32 0x8C379A000000000000000000000000000000000000000000000000000000000 DUP2 MSTORE PUSH1 0x4 ADD PUSH2 0x1F85 SWAP1 PUSH2 0x301B JUMP JUMPDEST PUSH1 0x40 MLOAD DUP1 SWAP2 SUB SWAP1 REVERT JUMPDEST JUMP JUMPDEST PUSH1 0x1 PUSH0 DUP2 SWAP1 SSTORE POP JUMP JUMPDEST PUSH2 0x1FA1 PUSH2 0x21A7 JUMP JUMPDEST PUSH20 0xFFFFFFFFFFFFFFFFFFFFFFFFFFFFFFFFFFFFFFFF AND PUSH2 0x1FBF PUSH2 0x18A9 JUMP JUMPDEST PUSH20 0xFFFFFFFFFFFFFFFFFFFFFFFFFFFFFFFFFFFFFFFF AND EQ PUSH2 0x201E JUMPI PUSH2 0x1FE2 PUSH2 0x21A7 JUMP JUMPDEST PUSH1 0x40 MLOAD PUSH32 0x118CDAA700000000000000000000000000000000000000000000000000000000 DUP2 MSTORE PUSH1 0x4 ADD PUSH2 0x2015 SWAP2 SWAP1 PUSH2 0x253E JUMP JUMPDEST PUSH1 0x40 MLOAD DUP1 SWAP2 SUB SWAP1 REVERT JUMPDEST JUMP JUMPDEST PUSH2 0x2028 PUSH2 0x21AE JUMP JUMPDEST PUSH0 PUSH1 0x1 PUSH1 0x14 PUSH2 0x100 EXP DUP2 SLOAD DUP2 PUSH1 0xFF MUL NOT AND SWAP1 DUP4 ISZERO ISZERO MUL OR SWAP1 SSTORE POP PUSH32 0x5DB9EE0A495BF2E6FF9C91A7834C1BA4FDD244A5E8AA4E537BD38AEAE4B073AA PUSH2 0x206B PUSH2 0x21A7 JUMP JUMPDEST PUSH1 0x40 MLOAD PUSH2 0x2078 SWAP2 SWAP1 PUSH2 0x253E JUMP JUMPDEST PUSH1 0x40 MLOAD DUP1 SWAP2 SUB SWAP1 LOG1 JUMP JUMPDEST PUSH0 PUSH1 0x1 PUSH0 SWAP1 SLOAD SWAP1 PUSH2 0x100 EXP SWAP1 DIV PUSH20 0xFFFFFFFFFFFFFFFFFFFFFFFFFFFFFFFFFFFFFFFF AND SWAP1 POP DUP2 PUSH1 0x1 PUSH0 PUSH2 0x100 EXP DUP2 SLOAD DUP2 PUSH20 0xFFFFFFFFFFFFFFFFFFFFFFFFFFFFFFFFFFFFFFFF MUL NOT AND SWAP1 DUP4 PUSH20 0xFFFFFFFFFFFFFFFFFFFFFFFFFFFFFFFFFFFFFFFF AND MUL OR SWAP1 SSTORE POP DUP2 PUSH20 0xFFFFFFFFFFFFFFFFFFFFFFFFFFFFFFFFFFFFFFFF AND DUP2 PUSH20 0xFFFFFFFFFFFFFFFFFFFFFFFFFFFFFFFFFFFFFFFF AND PUSH32 0x8BE0079C531659141344CD1FD0A4F28419497F9722A3DAAFE3B4186F6B6457E0 PUSH1 0x40 MLOAD PUSH1 0x40 MLOAD DUP1 SWAP2 SUB SWAP1 LOG3 POP POP JUMP JUMPDEST PUSH2 0x214D PUSH2 0x1F46 JUMP JUMPDEST PUSH1 0x1 DUP1 PUSH1 0x14 PUSH2 0x100 EXP DUP2 SLOAD DUP2 PUSH1 0xFF MUL NOT AND SWAP1 DUP4 ISZERO ISZERO MUL OR SWAP1 SSTORE POP PUSH32 0x62E78CEA01BEE320CD4E420270B5EA74000D11B0C9F74754EBDBFC544B05A258 PUSH2 0x2190 PUSH2 0x21A7 JUMP JUMPDEST PUSH1 0x40 MLOAD PUSH2 0x219D SWAP2 SWAP1 PUSH2 0x253E JUMP JUMPDEST PUSH1 0x40 MLOAD DUP1 SWAP2 SUB SWAP1 LOG1 JUMP JUMPDEST PUSH0 CALLER SWAP1 POP SWAP1 JUMP JUMPDEST PUSH2 0x21B6 PUSH2 0x15F8 JUMP JUMPDEST PUSH2 0x21F5 JUMPI PUSH1 0x40 MLOAD PUSH32 0x8C379A000000000000000000000000000000000000000000000000000000000 DUP2 MSTORE PUSH1 0x4 ADD PUSH2 0x21EC SWAP1 PUSH2 0x3083 JUMP JUMPDEST PUSH1 0x40 MLOAD DUP1 SWAP2 SUB SWAP1 REVERT JUMPDEST JUMP JUMPDEST PUSH0 PUSH0 REVERT JUMPDEST PUSH0 PUSH20 0xFFFFFFFFFFFFFFFFFFFFFFFFFFFFFFFFFFFFFFFF DUP3 AND SWAP1 POP SWAP2 SWAP1 POP JUMP JUMPDEST PUSH0 PUSH2 0x2224 DUP3 PUSH2 0x21FB JUMP JUMPDEST SWAP1 POP SWAP2 SWAP1 POP JUMP JUMPDEST PUSH2 0x2234 DUP2 PUSH2 0x221A JUMP JUMPDEST DUP2 EQ PUSH2 0x223E JUMPI PUSH0 PUSH0 REVERT JUMPDEST POP JUMP JUMPDEST PUSH0 DUP2 CALLDATALOAD SWAP1 POP PUSH2 0x224F DUP2 PUSH2 0x222B JUMP JUMPDEST SWAP3 SWAP2 POP POP JUMP JUMPDEST PUSH0 PUSH1 0x20 DUP3 DUP5 SUB SLT ISZERO PUSH2 0x226A JUMPI PUSH2 0x2269 PUSH2 0x21F7 JUMP JUMPDEST JUMPDEST PUSH0 PUSH2 0x2277 DUP5 DUP3 DUP6 ADD PUSH2 0x2241 JUMP JUMPDEST SWAP2 POP POP SWAP3 SWAP2 POP POP JUMP JUMPDEST PUSH0 DUP2 MLOAD SWAP1 POP SWAP2 SWAP1 POP JUMP JUMPDEST PUSH0 DUP3 DUP3 MSTORE PUSH1 0x20 DUP3 ADD SWAP1 POP SWAP3 SWAP2 POP POP JUMP JUMPDEST PUSH0 DUP2 SWAP1 POP PUSH1 0x20 DUP3 ADD SWAP1 POP SWAP2 SWAP1 POP JUMP JUMPDEST PUSH0 DUP2 SWAP1 POP SWAP2 SWAP1 POP JUMP JUMPDEST PUSH2 0x22BB DUP2 PUSH2 0x22A9 JUMP JUMPDEST DUP3 MSTORE POP POP JUMP JUMPDEST PUSH0 PUSH2 0x22CC DUP4 DUP4 PUSH2 0x22B2 JUMP JUMPDEST PUSH1 0x20 DUP4 ADD SWAP1 POP SWAP3 SWAP2 POP POP JUMP JUMPDEST PUSH0 PUSH1 0x20 DUP3 ADD SWAP1 POP SWAP2 SWAP1 POP JUMP JUMPDEST PUSH0 PUSH2 0x22EE DUP3 PUSH2 0x2280 JUMP JUMPDEST PUSH2 0x22F8 DUP2 DUP6 PUSH2 0x228A JUMP JUMPDEST SWAP4 POP PUSH2 0x2303 DUP4 PUSH2 0x229A JUMP JUMPDEST DUP1 PUSH0 JUMPDEST DUP4 DUP2 LT ISZERO PUSH2 0x2333 JUMPI DUP2 MLOAD PUSH2 0x231A DUP9 DUP3 PUSH2 0x22C1 JUMP JUMPDEST SWAP8 POP PUSH2 0x2325 DUP4 PUSH2 0x22D8 JUMP JUMPDEST SWAP3 POP POP PUSH1 0x1 DUP2 ADD SWAP1 POP PUSH2 0x2306 JUMP JUMPDEST POP DUP6 SWAP4 POP POP POP POP SWAP3 SWAP2 POP POP JUMP JUMPDEST PUSH0 PUSH1 0x20 DUP3 ADD SWAP1 POP DUP2 DUP2 SUB PUSH0 DUP4 ADD MSTORE PUSH2 0x2358 DUP2 DUP5 PUSH2 0x22E4 JUMP JUMPDEST SWAP1 POP SWAP3 SWAP2 POP POP JUMP JUMPDEST PUSH2 0x2369 DUP2 PUSH2 0x22A9 JUMP JUMPDEST DUP2 EQ PUSH2 0x2373 JUMPI PUSH0 PUSH0 REVERT JUMPDEST POP JUMP JUMPDEST PUSH0 DUP2 CALLDATALOAD SWAP1 POP PUSH2 0x2384 DUP2 PUSH2 0x2360 JUMP JUMPDEST SWAP3 SWAP2 POP POP JUMP JUMPDEST PUSH0 PUSH0 PUSH1 0x40 DUP4 DUP6 SUB SLT ISZERO PUSH2 0x23A0 JUMPI PUSH2 0x239F PUSH2 0x21F7 JUMP JUMPDEST JUMPDEST PUSH0 PUSH2 0x23AD DUP6 DUP3 DUP7 ADD PUSH2 0x2376 JUMP JUMPDEST SWAP3 POP POP PUSH1 0x20 PUSH2 0x23BE DUP6 DUP3 DUP7 ADD PUSH2 0x2376 JUMP JUMPDEST SWAP2 POP POP SWAP3 POP SWAP3 SWAP1 POP JUMP JUMPDEST PUSH2 0x23D1 DUP2 PUSH2 0x22A9 JUMP JUMPDEST DUP3 MSTORE POP POP JUMP JUMPDEST PUSH0 PUSH1 0x20 DUP3 ADD SWAP1 POP PUSH2 0x23EA PUSH0 DUP4 ADD DUP5 PUSH2 0x23C8 JUMP JUMPDEST SWAP3 SWAP2 POP POP JUMP JUMPDEST PUSH0 PUSH1 0x20 DUP3 DUP5 SUB SLT ISZERO PUSH2 0x2405 JUMPI PUSH2 0x2404 PUSH2 0x21F7 JUMP JUMPDEST JUMPDEST PUSH0 PUSH2 0x2412 DUP5 DUP3 DUP6 ADD PUSH2 0x2376 JUMP JUMPDEST SWAP2 POP POP SWAP3 SWAP2 POP POP JUMP JUMPDEST PUSH0 DUP2 SWAP1 POP SWAP2 SWAP1 POP JUMP JUMPDEST PUSH0 PUSH2 0x243E PUSH2 0x2439 PUSH2 0x2434 DUP5 PUSH2 0x21FB JUMP JUMPDEST PUSH2 0x241B JUMP JUMPDEST PUSH2 0x21FB JUMP JUMPDEST SWAP1 POP SWAP2 SWAP1 POP JUMP JUMPDEST PUSH0 PUSH2 0x244F DUP3 PUSH2 0x2424 JUMP JUMPDEST SWAP1 POP SWAP2 SWAP1 POP JUMP JUMPDEST PUSH0 PUSH2 0x2460 DUP3 PUSH2 0x2445 JUMP JUMPDEST SWAP1 POP SWAP2 SWAP1 POP JUMP JUMPDEST PUSH2 0x2470 DUP2 PUSH2 0x2456 JUMP JUMPDEST DUP3 MSTORE POP POP JUMP JUMPDEST PUSH0 PUSH1 0x20 DUP3 ADD SWAP1 POP PUSH2 0x2489 PUSH0 DUP4 ADD DUP5 PUSH2 0x2467 JUMP JUMPDEST SWAP3 SWAP2 POP POP JUMP JUMPDEST PUSH0 DUP2 ISZERO ISZERO SWAP1 POP SWAP2 SWAP1 POP JUMP JUMPDEST PUSH2 0x24A3 DUP2 PUSH2 0x248F JUMP JUMPDEST DUP3 MSTORE POP POP JUMP JUMPDEST PUSH0 PUSH1 0x20 DUP3 ADD SWAP1 POP PUSH2 0x24BC PUSH0 DUP4 ADD DUP5 PUSH2 0x249A JUMP JUMPDEST SWAP3 SWAP2 POP POP JUMP JUMPDEST PUSH2 0x24CB DUP2 PUSH2 0x221A JUMP JUMPDEST DUP3 MSTORE POP POP JUMP JUMPDEST PUSH0 PUSH1 0xE0 DUP3 ADD SWAP1 POP PUSH2 0x24E4 PUSH0 DUP4 ADD DUP11 PUSH2 0x24C2 JUMP JUMPDEST PUSH2 0x24F1 PUSH1 0x20 DUP4 ADD DUP10 PUSH2 0x23C8 JUMP JUMPDEST PUSH2 0x24FE PUSH1 0x40 DUP4 ADD DUP9 PUSH2 0x23C8 JUMP JUMPDEST PUSH2 0x250B PUSH1 0x60 DUP4 ADD DUP8 PUSH2 0x23C8 JUMP JUMPDEST PUSH2 0x2518 PUSH1 0x80 DUP4 ADD DUP7 PUSH2 0x23C8 JUMP JUMPDEST PUSH2 0x2525 PUSH1 0xA0 DUP4 ADD DUP6 PUSH2 0x23C8 JUMP JUMPDEST PUSH2 0x2532 PUSH1 0xC0 DUP4 ADD DUP5 PUSH2 0x249A JUMP JUMPDEST SWAP9 SWAP8 POP POP POP POP POP POP POP POP JUMP JUMPDEST PUSH0 PUSH1 0x20 DUP3 ADD SWAP1 POP PUSH2 0x2551 PUSH0 DUP4 ADD DUP5 PUSH2 0x24C2 JUMP JUMPDEST SWAP3 SWAP2 POP POP JUMP JUMPDEST PUSH0 PUSH2 0x2561 DUP3 PUSH2 0x2445 JUMP JUMPDEST SWAP1 POP SWAP2 SWAP1 POP JUMP JUMPDEST PUSH2 0x2571 DUP2 PUSH2 0x2557 JUMP JUMPDEST DUP3 MSTORE POP POP JUMP JUMPDEST PUSH0 PUSH1 0x20 DUP3 ADD SWAP1 POP PUSH2 0x258A PUSH0 DUP4 ADD DUP5 PUSH2 0x2568 JUMP JUMPDEST SWAP3 SWAP2 POP POP JUMP JUMPDEST PUSH0 PUSH0 PUSH1 0x40 DUP4 DUP6 SUB SLT ISZERO PUSH2 0x25A6 JUMPI PUSH2 0x25A5 PUSH2 0x21F7 JUMP JUMPDEST JUMPDEST PUSH0 PUSH2 0x25B3 DUP6 DUP3 DUP7 ADD PUSH2 0x2241 JUMP JUMPDEST SWAP3 POP POP PUSH1 0x20 PUSH2 0x25C4 DUP6 DUP3 DUP7 ADD PUSH2 0x2376 JUMP JUMPDEST SWAP2 POP POP SWAP3 POP SWAP3 SWAP1 POP JUMP JUMPDEST PUSH0 PUSH2 0x100 DUP3 ADD SWAP1 POP PUSH2 0x25E2 PUSH0 DUP4 ADD DUP12 PUSH2 0x23C8 JUMP JUMPDEST PUSH2 0x25EF PUSH1 0x20 DUP4 ADD DUP11 PUSH2 0x24C2 JUMP JUMPDEST PUSH2 0x25FC PUSH1 0x40 DUP4 ADD DUP10 PUSH2 0x23C8 JUMP JUMPDEST PUSH2 0x2609 PUSH1 0x60 DUP4 ADD DUP9 PUSH2 0x23C8 JUMP JUMPDEST PUSH2 0x2616 PUSH1 0x80 DUP4 ADD DUP8 PUSH2 0x23C8 JUMP JUMPDEST PUSH2 0x2623 PUSH1 0xA0 DUP4 ADD DUP7 PUSH2 0x23C8 JUMP JUMPDEST PUSH2 0x2630 PUSH1 0xC0 DUP4 ADD DUP6 PUSH2 0x23C8 JUMP JUMPDEST PUSH2 0x263D PUSH1 0xE0 DUP4 ADD DUP5 PUSH2 0x249A JUMP JUMPDEST SWAP10 SWAP9 POP POP POP POP POP POP POP POP POP JUMP JUMPDEST PUSH0 DUP3 DUP3 MSTORE PUSH1 0x20 DUP3 ADD SWAP1 POP SWAP3 SWAP2 POP POP JUMP JUMPDEST PUSH32 0x436F6C6C61746572616C206D757374206265203E203000000000000000000000 PUSH0 DUP3 ADD MSTORE POP JUMP JUMPDEST PUSH0 PUSH2 0x268E PUSH1 0x16 DUP4 PUSH2 0x264A JUMP JUMPDEST SWAP2 POP PUSH2 0x2699 DUP3 PUSH2 0x265A JUMP JUMPDEST PUSH1 0x20 DUP3 ADD SWAP1 POP SWAP2 SWAP1 POP JUMP JUMPDEST PUSH0 PUSH1 0x20 DUP3 ADD SWAP1 POP DUP2 DUP2 SUB PUSH0 DUP4 ADD MSTORE PUSH2 0x26BB DUP2 PUSH2 0x2682 JUMP JUMPDEST SWAP1 POP SWAP2 SWAP1 POP JUMP JUMPDEST PUSH32 0x426F72726F7720616D6F756E74206D757374206265203E203000000000000000 PUSH0 DUP3 ADD MSTORE POP JUMP JUMPDEST PUSH0 PUSH2 0x26F6 PUSH1 0x19 DUP4 PUSH2 0x264A JUMP JUMPDEST SWAP2 POP PUSH2 0x2701 DUP3 PUSH2 0x26C2 JUMP JUMPDEST PUSH1 0x20 DUP3 ADD SWAP1 POP SWAP2 SWAP1 POP JUMP JUMPDEST PUSH0 PUSH1 0x20 DUP3 ADD SWAP1 POP DUP2 DUP2 SUB PUSH0 DUP4 ADD MSTORE PUSH2 0x2723 DUP2 PUSH2 0x26EA JUMP JUMPDEST SWAP1 POP SWAP2 SWAP1 POP JUMP JUMPDEST PUSH0 DUP2 MLOAD SWAP1 POP PUSH2 0x2738 DUP2 PUSH2 0x2360 JUMP JUMPDEST SWAP3 SWAP2 POP POP JUMP JUMPDEST PUSH0 PUSH1 0x20 DUP3 DUP5 SUB SLT ISZERO PUSH2 0x2753 JUMPI PUSH2 0x2752 PUSH2 0x21F7 JUMP JUMPDEST JUMPDEST PUSH0 PUSH2 0x2760 DUP5 DUP3 DUP6 ADD PUSH2 0x272A JUMP JUMPDEST SWAP2 POP POP SWAP3 SWAP2 POP POP JUMP JUMPDEST PUSH32 0x496E73756666696369656E74207661756C744254432062616C616E6365000000 PUSH0 DUP3 ADD MSTORE POP JUMP JUMPDEST PUSH0 PUSH2 0x279D PUSH1 0x1D DUP4 PUSH2 0x264A JUMP JUMPDEST SWAP2 POP PUSH2 0x27A8 DUP3 PUSH2 0x2769 JUMP JUMPDEST PUSH1 0x20 DUP3 ADD SWAP1 POP SWAP2 SWAP1 POP JUMP JUMPDEST PUSH0 PUSH1 0x20 DUP3 ADD SWAP1 POP DUP2 DUP2 SUB PUSH0 DUP4 ADD MSTORE PUSH2 0x27CA DUP2 PUSH2 0x2791 JUMP JUMPDEST SWAP1 POP SWAP2 SWAP1 POP JUMP JUMPDEST PUSH32 0x496E73756666696369656E7420636F6C6C61746572616C000000000000000000 PUSH0 DUP3 ADD MSTORE POP JUMP JUMPDEST PUSH0 PUSH2 0x2805 PUSH1 0x17 DUP4 PUSH2 0x264A JUMP JUMPDEST SWAP2 POP PUSH2 0x2810 DUP3 PUSH2 0x27D1 JUMP JUMPDEST PUSH1 0x20 DUP3 ADD SWAP1 POP SWAP2 SWAP1 POP JUMP JUMPDEST PUSH0 PUSH1 0x20 DUP3 ADD SWAP1 POP DUP2 DUP2 SUB PUSH0 DUP4 ADD MSTORE PUSH2 0x2832 DUP2 PUSH2 0x27F9 JUMP JUMPDEST SWAP1 POP SWAP2 SWAP1 POP JUMP JUMPDEST PUSH32 0x496E73756666696369656E74206C697175696469747900000000000000000000 PUSH0 DUP3 ADD MSTORE POP JUMP JUMPDEST PUSH0 PUSH2 0x286D PUSH1 0x16 DUP4 PUSH2 0x264A JUMP JUMPDEST SWAP2 POP PUSH2 0x2878 DUP3 PUSH2 0x2839 JUMP JUMPDEST PUSH1 0x20 DUP3 ADD SWAP1 POP SWAP2 SWAP1 POP JUMP JUMPDEST PUSH0 PUSH1 0x20 DUP3 ADD SWAP1 POP DUP2 DUP2 SUB PUSH0 DUP4 ADD MSTORE PUSH2 0x289A DUP2 PUSH2 0x2861 JUMP JUMPDEST SWAP1 POP SWAP2 SWAP1 POP JUMP JUMPDEST PUSH0 PUSH1 0x60 DUP3 ADD SWAP1 POP PUSH2 0x28B4 PUSH0 DUP4 ADD DUP7 PUSH2 0x24C2 JUMP JUMPDEST PUSH2 0x28C1 PUSH1 0x20 DUP4 ADD DUP6 PUSH2 0x24C2 JUMP JUMPDEST PUSH2 0x28CE PUSH1 0x40 DUP4 ADD DUP5 PUSH2 0x23C8 JUMP JUMPDEST SWAP5 SWAP4 POP POP POP POP JUMP JUMPDEST PUSH2 0x28DF DUP2 PUSH2 0x248F JUMP JUMPDEST DUP2 EQ PUSH2 0x28E9 JUMPI PUSH0 PUSH0 REVERT JUMPDEST POP JUMP JUMPDEST PUSH0 DUP2 MLOAD SWAP1 POP PUSH2 0x28FA DUP2 PUSH2 0x28D6 JUMP JUMPDEST SWAP3 SWAP2 POP POP JUMP JUMPDEST PUSH0 PUSH1 0x20 DUP3 DUP5 SUB SLT ISZERO PUSH2 0x2915 JUMPI PUSH2 0x2914 PUSH2 0x21F7 JUMP JUMPDEST JUMPDEST PUSH0 PUSH2 0x2922 DUP5 DUP3 DUP6 ADD PUSH2 0x28EC JUMP JUMPDEST SWAP2 POP POP SWAP3 SWAP2 POP POP JUMP JUMPDEST PUSH32 0x436F6C6C61746572616C207472616E73666572206661696C6564000000000000 PUSH0 DUP3 ADD MSTORE POP JUMP JUMPDEST PUSH0 PUSH2 0x295F PUSH1 0x1A DUP4 PUSH2 0x264A JUMP JUMPDEST SWAP2 POP PUSH2 0x296A DUP3 PUSH2 0x292B JUMP JUMPDEST PUSH1 0x20 DUP3 ADD SWAP1 POP SWAP2 SWAP1 POP JUMP JUMPDEST PUSH0 PUSH1 0x20 DUP3 ADD SWAP1 POP DUP2 DUP2 SUB PUSH0 DUP4 ADD MSTORE PUSH2 0x298C DUP2 PUSH2 0x2953 JUMP JUMPDEST SWAP1 POP SWAP2 SWAP1 POP JUMP JUMPDEST PUSH32 0x4E487B7100000000000000000000000000000000000000000000000000000000 PUSH0 MSTORE PUSH1 0x11 PUSH1 0x4 MSTORE PUSH1 0x24 PUSH0 REVERT JUMPDEST PUSH0 PUSH2 0x29CA DUP3 PUSH2 0x22A9 JUMP JUMPDEST SWAP2 POP PUSH32 0xFFFFFFFFFFFFFFFFFFFFFFFFFFFFFFFFFFFFFFFFFFFFFFFFFFFFFFFFFFFFFFFF DUP3 SUB PUSH2 0x29FC JUMPI PUSH2 0x29FB PUSH2 0x2993 JUMP JUMPDEST JUMPDEST PUSH1 0x1 DUP3 ADD SWAP1 POP SWAP2 SWAP1 POP JUMP JUMPDEST PUSH0 PUSH2 0x2A11 DUP3 PUSH2 0x22A9 JUMP JUMPDEST SWAP2 POP PUSH2 0x2A1C DUP4 PUSH2 0x22A9 JUMP JUMPDEST SWAP3 POP DUP3 DUP3 ADD SWAP1 POP DUP1 DUP3 GT ISZERO PUSH2 0x2A34 JUMPI PUSH2 0x2A33 PUSH2 0x2993 JUMP JUMPDEST JUMPDEST SWAP3 SWAP2 POP POP JUMP JUMPDEST PUSH0 PUSH1 0x40 DUP3 ADD SWAP1 POP PUSH2 0x2A4D PUSH0 DUP4 ADD DUP6 PUSH2 0x24C2 JUMP JUMPDEST PUSH2 0x2A5A PUSH1 0x20 DUP4 ADD DUP5 PUSH2 0x23C8 JUMP JUMPDEST SWAP4 SWAP3 POP POP POP JUMP JUMPDEST PUSH32 0x426F72726F77207472616E73666572206661696C656400000000000000000000 PUSH0 DUP3 ADD MSTORE POP JUMP JUMPDEST PUSH0 PUSH2 0x2A95 PUSH1 0x16 DUP4 PUSH2 0x264A JUMP JUMPDEST SWAP2 POP PUSH2 0x2AA0 DUP3 PUSH2 0x2A61 JUMP JUMPDEST PUSH1 0x20 DUP3 ADD SWAP1 POP SWAP2 SWAP1 POP JUMP JUMPDEST PUSH0 PUSH1 0x20 DUP3 ADD SWAP1 POP DUP2 DUP2 SUB PUSH0 DUP4 ADD MSTORE PUSH2 0x2AC2 DUP2 PUSH2 0x2A89 JUMP JUMPDEST SWAP1 POP SWAP2 SWAP1 POP JUMP JUMPDEST PUSH0 PUSH1 0x40 DUP3 ADD SWAP1 POP PUSH2 0x2ADC PUSH0 DUP4 ADD DUP6 PUSH2 0x23C8 JUMP JUMPDEST PUSH2 0x2AE9 PUSH1 0x20 DUP4 ADD DUP5 PUSH2 0x23C8 JUMP JUMPDEST SWAP4 SWAP3 POP POP POP JUMP JUMPDEST PUSH0 PUSH2 0x2AFA DUP3 PUSH2 0x22A9 JUMP JUMPDEST SWAP2 POP PUSH2 0x2B05 DUP4 PUSH2 0x22A9 JUMP JUMPDEST SWAP3 POP DUP3 DUP3 MUL PUSH2 0x2B13 DUP2 PUSH2 0x22A9 JUMP JUMPDEST SWAP2 POP DUP3 DUP3 DIV DUP5 EQ DUP4 ISZERO OR PUSH2 0x2B2A JUMPI PUSH2 0x2B29 PUSH2 0x2993 JUMP JUMPDEST JUMPDEST POP SWAP3 SWAP2 POP POP JUMP JUMPDEST PUSH32 0x4E487B7100000000000000000000000000000000000000000000000000000000 PUSH0 MSTORE PUSH1 0x12 PUSH1 0x4 MSTORE PUSH1 0x24 PUSH0 REVERT JUMPDEST PUSH0 PUSH2 0x2B68 DUP3 PUSH2 0x22A9 JUMP JUMPDEST SWAP2 POP PUSH2 0x2B73 DUP4 PUSH2 0x22A9 JUMP JUMPDEST SWAP3 POP DUP3 PUSH2 0x2B83 JUMPI PUSH2 0x2B82 PUSH2 0x2B31 JUMP JUMPDEST JUMPDEST DUP3 DUP3 DIV SWAP1 POP SWAP3 SWAP2 POP POP JUMP JUMPDEST PUSH32 0x4C6F616E206E6F74206163746976650000000000000000000000000000000000 PUSH0 DUP3 ADD MSTORE POP JUMP JUMPDEST PUSH0 PUSH2 0x2BC2 PUSH1 0xF DUP4 PUSH2 0x264A JUMP JUMPDEST SWAP2 POP PUSH2 0x2BCD DUP3 PUSH2 0x2B8E JUMP JUMPDEST PUSH1 0x20 DUP3 ADD SWAP1 POP SWAP2 SWAP1 POP JUMP JUMPDEST PUSH0 PUSH1 0x20 DUP3 ADD SWAP1 POP DUP2 DUP2 SUB PUSH0 DUP4 ADD MSTORE PUSH2 0x2BEF DUP2 PUSH2 0x2BB6 JUMP JUMPDEST SWAP1 POP SWAP2 SWAP1 POP JUMP JUMPDEST PUSH32 0x4E6F74206C6F616E206F776E6572000000000000000000000000000000000000 PUSH0 DUP3 ADD MSTORE POP JUMP JUMPDEST PUSH0 PUSH2 0x2C2A PUSH1 0xE DUP4 PUSH2 0x264A JUMP JUMPDEST SWAP2 POP PUSH2 0x2C35 DUP3 PUSH2 0x2BF6 JUMP JUMPDEST PUSH1 0x20 DUP3 ADD SWAP1 POP SWAP2 SWAP1 POP JUMP JUMPDEST PUSH0 PUSH1 0x20 DUP3 ADD SWAP1 POP DUP2 DUP2 SUB PUSH0 DUP4 ADD MSTORE PUSH2 0x2C57 DUP2 PUSH2 0x2C1E JUMP JUMPDEST SWAP1 POP SWAP2 SWAP1 POP JUMP JUMPDEST PUSH32 0x52657061796D656E74207472616E73666572206661696C656400000000000000 PUSH0 DUP3 ADD MSTORE POP JUMP JUMPDEST PUSH0 PUSH2 0x2C92 PUSH1 0x19 DUP4 PUSH2 0x264A JUMP JUMPDEST SWAP2 POP PUSH2 0x2C9D DUP3 PUSH2 0x2C5E JUMP JUMPDEST PUSH1 0x20 DUP3 ADD SWAP1 POP SWAP2 SWAP1 POP JUMP JUMPDEST PUSH0 PUSH1 0x20 DUP3 ADD SWAP1 POP DUP2 DUP2 SUB PUSH0 DUP4 ADD MSTORE PUSH2 0x2CBF DUP2 PUSH2 0x2C86 JUMP JUMPDEST SWAP1 POP SWAP2 SWAP1 POP JUMP JUMPDEST PUSH32 0x436F6C6C61746572616C2072657475726E206661696C65640000000000000000 PUSH0 DUP3 ADD MSTORE POP JUMP JUMPDEST PUSH0 PUSH2 0x2CFA PUSH1 0x18 DUP4 PUSH2 0x264A JUMP JUMPDEST SWAP2 POP PUSH2 0x2D05 DUP3 PUSH2 0x2CC6 JUMP JUMPDEST PUSH1 0x20 DUP3 ADD SWAP1 POP SWAP2 SWAP1 POP JUMP JUMPDEST PUSH0 PUSH1 0x20 DUP3 ADD SWAP1 POP DUP2 DUP2 SUB PUSH0 DUP4 ADD MSTORE PUSH2 0x2D27 DUP2 PUSH2 0x2CEE JUMP JUMPDEST SWAP1 POP SWAP2 SWAP1 POP JUMP JUMPDEST PUSH0 PUSH2 0x2D38 DUP3 PUSH2 0x22A9 JUMP JUMPDEST SWAP2 POP PUSH2 0x2D43 DUP4 PUSH2 0x22A9 JUMP JUMPDEST SWAP3 POP DUP3 DUP3 SUB SWAP1 POP DUP2 DUP2 GT ISZERO PUSH2 0x2D5B JUMPI PUSH2 0x2D5A PUSH2 0x2993 JUMP JUMPDEST JUMPDEST SWAP3 SWAP2 POP POP JUMP JUMPDEST PUSH32 0x4C6F616E206E6F74206C6971756964617461626C650000000000000000000000 PUSH0 DUP3 ADD MSTORE POP JUMP JUMPDEST PUSH0 PUSH2 0x2D95 PUSH1 0x15 DUP4 PUSH2 0x264A JUMP JUMPDEST SWAP2 POP PUSH2 0x2DA0 DUP3 PUSH2 0x2D61 JUMP JUMPDEST PUSH1 0x20 DUP3 ADD SWAP1 POP SWAP2 SWAP1 POP JUMP JUMPDEST PUSH0 PUSH1 0x20 DUP3 ADD SWAP1 POP DUP2 DUP2 SUB PUSH0 DUP4 ADD MSTORE PUSH2 0x2DC2 DUP2 PUSH2 0x2D89 JUMP JUMPDEST SWAP1 POP SWAP2 SWAP1 POP JUMP JUMPDEST PUSH32 0x4C69717569646174696F6E207061796D656E74206661696C6564000000000000 PUSH0 DUP3 ADD MSTORE POP JUMP JUMPDEST PUSH0 PUSH2 0x2DFD PUSH1 0x1A DUP4 PUSH2 0x264A JUMP JUMPDEST SWAP2 POP PUSH2 0x2E08 DUP3 PUSH2 0x2DC9 JUMP JUMPDEST PUSH1 0x20 DUP3 ADD SWAP1 POP SWAP2 SWAP1 POP JUMP JUMPDEST PUSH0 PUSH1 0x20 DUP3 ADD SWAP1 POP DUP2 DUP2 SUB PUSH0 DUP4 ADD MSTORE PUSH2 0x2E2A DUP2 PUSH2 0x2DF1 JUMP JUMPDEST SWAP1 POP SWAP2 SWAP1 POP JUMP JUMPDEST PUSH32 0x5261746520746F6F206869676800000000000000000000000000000000000000 PUSH0 DUP3 ADD MSTORE POP JUMP JUMPDEST PUSH0 PUSH2 0x2E65 PUSH1 0xD DUP4 PUSH2 0x264A JUMP JUMPDEST SWAP2 POP PUSH2 0x2E70 DUP3 PUSH2 0x2E31 JUMP JUMPDEST PUSH1 0x20 DUP3 ADD SWAP1 POP SWAP2 SWAP1 POP JUMP JUMPDEST PUSH0 PUSH1 0x20 DUP3 ADD SWAP1 POP DUP2 DUP2 SUB PUSH0 DUP4 ADD MSTORE PUSH2 0x2E92 DUP2 PUSH2 0x2E59 JUMP JUMPDEST SWAP1 POP SWAP2 SWAP1 POP JUMP JUMPDEST PUSH32 0x5769746864726177206661696C65640000000000000000000000000000000000 PUSH0 DUP3 ADD MSTORE POP JUMP JUMPDEST PUSH0 PUSH2 0x2ECD PUSH1 0xF DUP4 PUSH2 0x264A JUMP JUMPDEST SWAP2 POP PUSH2 0x2ED8 DUP3 PUSH2 0x2E99 JUMP JUMPDEST PUSH1 0x20 DUP3 ADD SWAP1 POP SWAP2 SWAP1 POP JUMP JUMPDEST PUSH0 PUSH1 0x20 DUP3 ADD SWAP1 POP DUP2 DUP2 SUB PUSH0 DUP4 ADD MSTORE PUSH2 0x2EFA DUP2 PUSH2 0x2EC1 JUMP JUMPDEST SWAP1 POP SWAP2 SWAP1 POP JUMP JUMPDEST PUSH32 0x416D6F756E74206D757374206265203E20300000000000000000000000000000 PUSH0 DUP3 ADD MSTORE POP JUMP JUMPDEST PUSH0 PUSH2 0x2F35 PUSH1 0x12 DUP4 PUSH2 0x264A JUMP JUMPDEST SWAP2 POP PUSH2 0x2F40 DUP3 PUSH2 0x2F01 JUMP JUMPDEST PUSH1 0x20 DUP3 ADD SWAP1 POP SWAP2 SWAP1 POP JUMP JUMPDEST PUSH0 PUSH1 0x20 DUP3 ADD SWAP1 POP DUP2 DUP2 SUB PUSH0 DUP4 ADD MSTORE PUSH2 0x2F62 DUP2 PUSH2 0x2F29 JUMP JUMPDEST SWAP1 POP SWAP2 SWAP1 POP JUMP JUMPDEST PUSH32 0x5265656E7472616E637947756172643A207265656E7472616E742063616C6C00 PUSH0 DUP3 ADD MSTORE POP JUMP JUMPDEST PUSH0 PUSH2 0x2F9D PUSH1 0x1F DUP4 PUSH2 0x264A JUMP JUMPDEST SWAP2 POP PUSH2 0x2FA8 DUP3 PUSH2 0x2F69 JUMP JUMPDEST PUSH1 0x20 DUP3 ADD SWAP1 POP SWAP2 SWAP1 POP JUMP JUMPDEST PUSH0 PUSH1 0x20 DUP3 ADD SWAP1 POP DUP2 DUP2 SUB PUSH0 DUP4 ADD MSTORE PUSH2 0x2FCA DUP2 PUSH2 0x2F91 JUMP JUMPDEST SWAP1 POP SWAP2 SWAP1 POP JUMP JUMPDEST PUSH32 0x5061757361626C653A2070617573656400000000000000000000000000000000 PUSH0 DUP3 ADD MSTORE POP JUMP JUMPDEST PUSH0 PUSH2 0x3005 PUSH1 0x10 DUP4 PUSH2 0x264A JUMP JUMPDEST SWAP2 POP PUSH2 0x3010 DUP3 PUSH2 0x2FD1 JUMP JUMPDEST PUSH1 0x20 DUP3 ADD SWAP1 POP SWAP2 SWAP1 POP JUMP JUMPDEST PUSH0 PUSH1 0x20 DUP3 ADD SWAP1 POP DUP2 DUP2 SUB PUSH0 DUP4 ADD MSTORE PUSH2 0x3032 DUP2 PUSH2 0x2FF9 JUMP JUMPDEST SWAP1 POP SWAP2 SWAP1 POP JUMP JUMPDEST PUSH32 0x5061757361626C653A206E6F7420706175736564000000000000000000000000 PUSH0 DUP3 ADD MSTORE POP JUMP JUMPDEST PUSH0 PUSH2 0x306D PUSH1 0x14 DUP4 PUSH2 0x264A JUMP JUMPDEST SWAP2 POP PUSH2 0x3078 DUP3 PUSH2 0x3039 JUMP JUMPDEST PUSH1 0x20 DUP3 ADD SWAP1 POP SWAP2 SWAP1 POP JUMP JUMPDEST PUSH0 PUSH1 0x20 DUP3 ADD SWAP1 POP DUP2 DUP2 SUB PUSH0 DUP4 ADD MSTORE PUSH2 0x309A DUP2 PUSH2 0x3061 JUMP JUMPDEST SWAP1 POP SWAP2 SWAP1 POP JUMP INVALID LOG2 PUSH5 0x6970667358 0x22 SLT KECCAK256 0x2F 0xC7 0xB2 PUSH3 0x55A2E6 PC PUSH28 0xEA20730CB4098CA52A9922A415A55612E5141295A1E18964736F6C63 NUMBER STOP ADDMOD 0x1E STOP CALLER "
				},
				"gasEstimates": {
					"creation": {
						"codeDepositCost": "2500600",
						"executionCost": "infinite",
						"totalCost": "infinite"
					},
					"external": {
						"BASIS_POINTS()": "391",
						"COLLATERAL_RATIO()": "436",
						"LIQUIDATION_PENALTY()": "392",
						"LIQUIDATION_THRESHOLD()": "415",
						"addCollateral(uint256,uint256)": "infinite",
						"baseInterestRate()": "2492",
						"borrow(uint256,uint256)": "infinite",
						"calculateInterest(uint256)": "infinite",
						"emergencyWithdraw(address,uint256)": "infinite",
						"getHealthFactor(uint256)": "infinite",
						"getLoanDetails(uint256)": "infinite",
						"getMaxBorrowAmount(uint256)": "infinite",
						"getUserLoans(address)": "infinite",
						"liquidate(uint256)": "infinite",
						"loanIdCounter()": "2514",
						"loans(uint256)": "infinite",
						"owner()": "2561",
						"pause()": "infinite",
						"paused()": "2614",
						"priceOracle()": "infinite",
						"renounceOwnership()": "infinite",
						"repay(uint256)": "infinite",
						"setInterestRate(uint256)": "infinite",
						"stablecoin()": "infinite",
						"totalBorrowed()": "2493",
						"totalCollateral()": "2471",
						"transferOwnership(address)": "infinite",
						"unpause()": "infinite",
						"userLoans(address,uint256)": "infinite",
						"vaultBTC()": "infinite"
					}
				},
				"methodIdentifiers": {
					"BASIS_POINTS()": "e1f1c4a7",
					"COLLATERAL_RATIO()": "d9e69a05",
					"LIQUIDATION_PENALTY()": "9b8621d5",
					"LIQUIDATION_THRESHOLD()": "90a8ae9b",
					"addCollateral(uint256,uint256)": "a8f35adf",
					"baseInterestRate()": "afd92762",
					"borrow(uint256,uint256)": "0ecbcdab",
					"calculateInterest(uint256)": "a57475e0",
					"emergencyWithdraw(address,uint256)": "95ccea67",
					"getHealthFactor(uint256)": "17845c69",
					"getLoanDetails(uint256)": "66877b8d",
					"getMaxBorrowAmount(uint256)": "61a4d4ef",
					"getUserLoans(address)": "02bf321f",
					"liquidate(uint256)": "415f1240",
					"loanIdCounter()": "9d939d16",
					"loans(uint256)": "e1ec3c68",
					"owner()": "8da5cb5b",
					"pause()": "8456cb59",
					"paused()": "5c975abb",
					"priceOracle()": "2630c12f",
					"renounceOwnership()": "715018a6",
					"repay(uint256)": "371fd8e6",
					"setInterestRate(uint256)": "5f84f302",
					"stablecoin()": "e9cbd822",
					"totalBorrowed()": "4c19386c",
					"totalCollateral()": "4ac8eb5f",
					"transferOwnership(address)": "f2fde38b",
					"unpause()": "3f4ba83a",
					"userLoans(address,uint256)": "d8bad5bd",
					"vaultBTC()": "902781a9"
				}
			},
			"storageLayout": {
				"storage": [
					{
						"astId": 266,
						"contract": "contract/vaultswapcore.sol:VaultSwapCore",
						"label": "_status",
						"offset": 0,
						"slot": "0",
						"type": "t_uint256"
					},
					{
						"astId": 8,
						"contract": "contract/vaultswapcore.sol:VaultSwapCore",
						"label": "_owner",
						"offset": 0,
						"slot": "1",
						"type": "t_address"
					},
					{
						"astId": 165,
						"contract": "contract/vaultswapcore.sol:VaultSwapCore",
						"label": "_paused",
						"offset": 20,
						"slot": "1",
						"type": "t_bool"
					},
					{
						"astId": 573,
						"contract": "contract/vaultswapcore.sol:VaultSwapCore",
						"label": "vaultBTC",
						"offset": 0,
						"slot": "2",
						"type": "t_contract(IERC20)398"
					},
					{
						"astId": 576,
						"contract": "contract/vaultswapcore.sol:VaultSwapCore",
						"label": "stablecoin",
						"offset": 0,
						"slot": "3",
						"type": "t_contract(IERC20)398"
					},
					{
						"astId": 579,
						"contract": "contract/vaultswapcore.sol:VaultSwapCore",
						"label": "priceOracle",
						"offset": 0,
						"slot": "4",
						"type": "t_contract(IPriceOracle)442"
					},
					{
						"astId": 594,
						"contract": "contract/vaultswapcore.sol:VaultSwapCore",
						"label": "baseInterestRate",
						"offset": 0,
						"slot": "5",
						"type": "t_uint256"
					},
					{
						"astId": 596,
						"contract": "contract/vaultswapcore.sol:VaultSwapCore",
						"label": "totalBorrowed",
						"offset": 0,
						"slot": "6",
						"type": "t_uint256"
					},
					{
						"astId": 598,
						"contract": "contract/vaultswapcore.sol:VaultSwapCore",
						"label": "totalCollateral",
						"offset": 0,
						"slot": "7",
						"type": "t_uint256"
					},
					{
						"astId": 600,
						"contract": "contract/vaultswapcore.sol:VaultSwapCore",
						"label": "loanIdCounter",
						"offset": 0,
						"slot": "8",
						"type": "t_uint256"
					},
					{
						"astId": 605,
						"contract": "contract/vaultswapcore.sol:VaultSwapCore",
						"label": "loans",
						"offset": 0,
						"slot": "9",
						"type": "t_mapping(t_uint256,t_struct(Loan)570_storage)"
					},
					{
						"astId": 610,
						"contract": "contract/vaultswapcore.sol:VaultSwapCore",
						"label": "userLoans",
						"offset": 0,
						"slot": "10",
						"type": "t_mapping(t_address,t_array(t_uint256)dyn_storage)"
					}
				],
				"types": {
					"t_address": {
						"encoding": "inplace",
						"label": "address",
						"numberOfBytes": "20"
					},
					"t_array(t_uint256)dyn_storage": {
						"base": "t_uint256",
						"encoding": "dynamic_array",
						"label": "uint256[]",
						"numberOfBytes": "32"
					},
					"t_bool": {
						"encoding": "inplace",
						"label": "bool",
						"numberOfBytes": "1"
					},
					"t_contract(IERC20)398": {
						"encoding": "inplace",
						"label": "contract IERC20",
						"numberOfBytes": "20"
					},
					"t_contract(IPriceOracle)442": {
						"encoding": "inplace",
						"label": "contract IPriceOracle",
						"numberOfBytes": "20"
					},
					"t_mapping(t_address,t_array(t_uint256)dyn_storage)": {
						"encoding": "mapping",
						"key": "t_address",
						"label": "mapping(address => uint256[])",
						"numberOfBytes": "32",
						"value": "t_array(t_uint256)dyn_storage"
					},
					"t_mapping(t_uint256,t_struct(Loan)570_storage)": {
						"encoding": "mapping",
						"key": "t_uint256",
						"label": "mapping(uint256 => struct VaultSwapCore.Loan)",
						"numberOfBytes": "32",
						"value": "t_struct(Loan)570_storage"
					},
					"t_struct(Loan)570_storage": {
						"encoding": "inplace",
						"label": "struct VaultSwapCore.Loan",
						"members": [
							{
								"astId": 555,
								"contract": "contract/vaultswapcore.sol:VaultSwapCore",
								"label": "loanId",
								"offset": 0,
								"slot": "0",
								"type": "t_uint256"
							},
							{
								"astId": 557,
								"contract": "contract/vaultswapcore.sol:VaultSwapCore",
								"label": "borrower",
								"offset": 0,
								"slot": "1",
								"type": "t_address"
							},
							{
								"astId": 559,
								"contract": "contract/vaultswapcore.sol:VaultSwapCore",
								"label": "collateralAmount",
								"offset": 0,
								"slot": "2",
								"type": "t_uint256"
							},
							{
								"astId": 561,
								"contract": "contract/vaultswapcore.sol:VaultSwapCore",
								"label": "borrowedAmount",
								"offset": 0,
								"slot": "3",
								"type": "t_uint256"
							},
							{
								"astId": 563,
								"contract": "contract/vaultswapcore.sol:VaultSwapCore",
								"label": "interestRate",
								"offset": 0,
								"slot": "4",
								"type": "t_uint256"
							},
							{
								"astId": 565,
								"contract": "contract/vaultswapcore.sol:VaultSwapCore",
								"label": "timestamp",
								"offset": 0,
								"slot": "5",
								"type": "t_uint256"
							},
							{
								"astId": 567,
								"contract": "contract/vaultswapcore.sol:VaultSwapCore",
								"label": "lastInterestUpdate",
								"offset": 0,
								"slot": "6",
								"type": "t_uint256"
							},
							{
								"astId": 569,
								"contract": "contract/vaultswapcore.sol:VaultSwapCore",
								"label": "isActive",
								"offset": 0,
								"slot": "7",
								"type": "t_bool"
							}
						],
						"numberOfBytes": "256"
					},
					"t_uint256": {
						"encoding": "inplace",
						"label": "uint256",
						"numberOfBytes": "32"
					}
				}
			},
			"userdoc": {
				"kind": "user",
				"methods": {},
				"version": 1
			}
		}
	}
}