{
	"contract/vaultswapcore.sol": {
		"VaultSwapCore": {
			"abi": [
				{
					"inputs": [
						{
							"internalType": "address",
							"name": "_vaultBTC",
							"type": "address"
						},
						{
							"internalType": "address",
							"name": "_stablecoin",
							"type": "address"
						},
						{
							"internalType": "address",
							"name": "_chainlinkPriceFeed",
							"type": "address"
						}
					],
					"stateMutability": "nonpayable",
					"type": "constructor"
				},
				{
					"inputs": [
						{
							"internalType": "address",
							"name": "owner",
							"type": "address"
						}
					],
					"name": "OwnableInvalidOwner",
					"type": "error"
				},
				{
					"inputs": [
						{
							"internalType": "address",
							"name": "account",
							"type": "address"
						}
					],
					"name": "OwnableUnauthorizedAccount",
					"type": "error"
				},
				{
					"anonymous": false,
					"inputs": [
						{
							"indexed": true,
							"internalType": "uint256",
							"name": "loanId",
							"type": "uint256"
						},
						{
							"indexed": false,
							"internalType": "uint256",
							"name": "amount",
							"type": "uint256"
						}
					],
					"name": "CollateralAdded",
					"type": "event"
				},
				{
					"anonymous": false,
					"inputs": [
						{
							"indexed": false,
							"internalType": "uint256",
							"name": "newRate",
							"type": "uint256"
						}
					],
					"name": "InterestRateUpdated",
					"type": "event"
				},
				{
					"anonymous": false,
					"inputs": [
						{
							"indexed": true,
							"internalType": "uint256",
							"name": "loanId",
							"type": "uint256"
						},
						{
							"indexed": true,
							"internalType": "address",
							"name": "borrower",
							"type": "address"
						},
						{
							"indexed": false,
							"internalType": "uint256",
							"name": "collateralAmount",
							"type": "uint256"
						},
						{
							"indexed": false,
							"internalType": "uint256",
							"name": "borrowedAmount",
							"type": "uint256"
						}
					],
					"name": "LoanCreated",
					"type": "event"
				},
				{
					"anonymous": false,
					"inputs": [
						{
							"indexed": true,
							"internalType": "uint256",
							"name": "loanId",
							"type": "uint256"
						},
						{
							"indexed": true,
							"internalType": "address",
							"name": "liquidator",
							"type": "address"
						},
						{
							"indexed": false,
							"internalType": "uint256",
							"name": "collateralSeized",
							"type": "uint256"
						},
						{
							"indexed": false,
							"internalType": "uint256",
							"name": "penalty",
							"type": "uint256"
						}
					],
					"name": "LoanLiquidated",
					"type": "event"
				},
				{
					"anonymous": false,
					"inputs": [
						{
							"indexed": true,
							"internalType": "uint256",
							"name": "loanId",
							"type": "uint256"
						},
						{
							"indexed": true,
							"internalType": "address",
							"name": "borrower",
							"type": "address"
						},
						{
							"indexed": false,
							"internalType": "uint256",
							"name": "totalRepaid",
							"type": "uint256"
						},
						{
							"indexed": false,
							"internalType": "uint256",
							"name": "interestPaid",
							"type": "uint256"
						}
					],
					"name": "LoanRepaid",
					"type": "event"
				},
				{
					"anonymous": false,
					"inputs": [
						{
							"indexed": true,
							"internalType": "address",
							"name": "previousOwner",
							"type": "address"
						},
						{
							"indexed": true,
							"internalType": "address",
							"name": "newOwner",
							"type": "address"
						}
					],
					"name": "OwnershipTransferred",
					"type": "event"
				},
				{
					"anonymous": false,
					"inputs": [
						{
							"indexed": false,
							"internalType": "address",
							"name": "account",
							"type": "address"
						}
					],
					"name": "Paused",
					"type": "event"
				},
				{
					"anonymous": false,
					"inputs": [
						{
							"indexed": false,
							"internalType": "address",
							"name": "account",
							"type": "address"
						}
					],
					"name": "Unpaused",
					"type": "event"
				},
				{
					"inputs": [],
					"name": "BASIS_POINTS",
					"outputs": [
						{
							"internalType": "uint256",
							"name": "",
							"type": "uint256"
						}
					],
					"stateMutability": "view",
					"type": "function"
				},
				{
					"inputs": [],
					"name": "COLLATERAL_RATIO",
					"outputs": [
						{
							"internalType": "uint256",
							"name": "",
							"type": "uint256"
						}
					],
					"stateMutability": "view",
					"type": "function"
				},
				{
					"inputs": [],
					"name": "LIQUIDATION_PENALTY",
					"outputs": [
						{
							"internalType": "uint256",
							"name": "",
							"type": "uint256"
						}
					],
					"stateMutability": "view",
					"type": "function"
				},
				{
					"inputs": [],
					"name": "LIQUIDATION_THRESHOLD",
					"outputs": [
						{
							"internalType": "uint256",
							"name": "",
							"type": "uint256"
						}
					],
					"stateMutability": "view",
					"type": "function"
				},
				{
					"inputs": [
						{
							"internalType": "uint256",
							"name": "loanId",
							"type": "uint256"
						},
						{
							"internalType": "uint256",
							"name": "amount",
							"type": "uint256"
						}
					],
					"name": "addCollateral",
					"outputs": [],
					"stateMutability": "nonpayable",
					"type": "function"
				},
				{
					"inputs": [],
					"name": "baseInterestRate",
					"outputs": [
						{
							"internalType": "uint256",
							"name": "",
							"type": "uint256"
						}
					],
					"stateMutability": "view",
					"type": "function"
				},
				{
					"inputs": [
						{
							"internalType": "uint256",
							"name": "collateralAmount",
							"type": "uint256"
						},
						{
							"internalType": "uint256",
							"name": "borrowAmount",
							"type": "uint256"
						}
					],
					"name": "borrow",
					"outputs": [
						{
							"internalType": "uint256",
							"name": "",
							"type": "uint256"
						}
					],
					"stateMutability": "nonpayable",
					"type": "function"
				},
				{
					"inputs": [
						{
							"internalType": "uint256",
							"name": "loanId",
							"type": "uint256"
						}
					],
					"name": "calculateInterest",
					"outputs": [
						{
							"internalType": "uint256",
							"name": "",
							"type": "uint256"
						}
					],
					"stateMutability": "view",
					"type": "function"
				},
				{
					"inputs": [
						{
							"internalType": "address",
							"name": "token",
							"type": "address"
						},
						{
							"internalType": "uint256",
							"name": "amount",
							"type": "uint256"
						}
					],
					"name": "emergencyWithdraw",
					"outputs": [],
					"stateMutability": "nonpayable",
					"type": "function"
				},
				{
					"inputs": [
						{
							"internalType": "uint256",
							"name": "loanId",
							"type": "uint256"
						}
					],
					"name": "getHealthFactor",
					"outputs": [
						{
							"internalType": "uint256",
							"name": "",
							"type": "uint256"
						}
					],
					"stateMutability": "view",
					"type": "function"
				},
				{
					"inputs": [],
					"name": "getLatestPrice",
					"outputs": [
						{
							"internalType": "uint256",
							"name": "",
							"type": "uint256"
						}
					],
					"stateMutability": "view",
					"type": "function"
				},
				{
					"inputs": [
						{
							"internalType": "uint256",
							"name": "loanId",
							"type": "uint256"
						}
					],
					"name": "getLoanDetails",
					"outputs": [
						{
							"internalType": "address",
							"name": "borrower",
							"type": "address"
						},
						{
							"internalType": "uint256",
							"name": "collateralAmount",
							"type": "uint256"
						},
						{
							"internalType": "uint256",
							"name": "borrowedAmount",
							"type": "uint256"
						},
						{
							"internalType": "uint256",
							"name": "interestRate",
							"type": "uint256"
						},
						{
							"internalType": "uint256",
							"name": "healthFactor",
							"type": "uint256"
						},
						{
							"internalType": "uint256",
							"name": "accruedInterest",
							"type": "uint256"
						},
						{
							"internalType": "bool",
							"name": "isActive",
							"type": "bool"
						}
					],
					"stateMutability": "view",
					"type": "function"
				},
				{
					"inputs": [
						{
							"internalType": "uint256",
							"name": "collateralAmount",
							"type": "uint256"
						}
					],
					"name": "getMaxBorrowAmount",
					"outputs": [
						{
							"internalType": "uint256",
							"name": "",
							"type": "uint256"
						}
					],
					"stateMutability": "view",
					"type": "function"
				},
				{
					"inputs": [
						{
							"internalType": "address",
							"name": "user",
							"type": "address"
						}
					],
					"name": "getUserLoans",
					"outputs": [
						{
							"internalType": "uint256[]",
							"name": "",
							"type": "uint256[]"
						}
					],
					"stateMutability": "view",
					"type": "function"
				},
				{
					"inputs": [
						{
							"internalType": "uint256",
							"name": "loanId",
							"type": "uint256"
						}
					],
					"name": "liquidate",
					"outputs": [],
					"stateMutability": "nonpayable",
					"type": "function"
				},
				{
					"inputs": [],
					"name": "loanIdCounter",
					"outputs": [
						{
							"internalType": "uint256",
							"name": "",
							"type": "uint256"
						}
					],
					"stateMutability": "view",
					"type": "function"
				},
				{
					"inputs": [
						{
							"internalType": "uint256",
							"name": "",
							"type": "uint256"
						}
					],
					"name": "loans",
					"outputs": [
						{
							"internalType": "uint256",
							"name": "loanId",
							"type": "uint256"
						},
						{
							"internalType": "address",
							"name": "borrower",
							"type": "address"
						},
						{
							"internalType": "uint256",
							"name": "collateralAmount",
							"type": "uint256"
						},
						{
							"internalType": "uint256",
							"name": "borrowedAmount",
							"type": "uint256"
						},
						{
							"internalType": "uint256",
							"name": "interestRate",
							"type": "uint256"
						},
						{
							"internalType": "uint256",
							"name": "timestamp",
							"type": "uint256"
						},
						{
							"internalType": "uint256",
							"name": "lastInterestUpdate",
							"type": "uint256"
						},
						{
							"internalType": "bool",
							"name": "isActive",
							"type": "bool"
						}
					],
					"stateMutability": "view",
					"type": "function"
				},
				{
					"inputs": [],
					"name": "owner",
					"outputs": [
						{
							"internalType": "address",
							"name": "",
							"type": "address"
						}
					],
					"stateMutability": "view",
					"type": "function"
				},
				{
					"inputs": [],
					"name": "pause",
					"outputs": [],
					"stateMutability": "nonpayable",
					"type": "function"
				},
				{
					"inputs": [],
					"name": "paused",
					"outputs": [
						{
							"internalType": "bool",
							"name": "",
							"type": "bool"
						}
					],
					"stateMutability": "view",
					"type": "function"
				},
				{
					"inputs": [],
					"name": "priceFeed",
					"outputs": [
						{
							"internalType": "contract AggregatorV3Interface",
							"name": "",
							"type": "address"
						}
					],
					"stateMutability": "view",
					"type": "function"
				},
				{
					"inputs": [],
					"name": "renounceOwnership",
					"outputs": [],
					"stateMutability": "nonpayable",
					"type": "function"
				},
				{
					"inputs": [
						{
							"internalType": "uint256",
							"name": "loanId",
							"type": "uint256"
						}
					],
					"name": "repay",
					"outputs": [],
					"stateMutability": "nonpayable",
					"type": "function"
				},
				{
					"inputs": [
						{
							"internalType": "uint256",
							"name": "newRate",
							"type": "uint256"
						}
					],
					"name": "setInterestRate",
					"outputs": [],
					"stateMutability": "nonpayable",
					"type": "function"
				},
				{
					"inputs": [],
					"name": "stablecoin",
					"outputs": [
						{
							"internalType": "contract IERC20",
							"name": "",
							"type": "address"
						}
					],
					"stateMutability": "view",
					"type": "function"
				},
				{
					"inputs": [],
					"name": "totalBorrowed",
					"outputs": [
						{
							"internalType": "uint256",
							"name": "",
							"type": "uint256"
						}
					],
					"stateMutability": "view",
					"type": "function"
				},
				{
					"inputs": [],
					"name": "totalCollateral",
					"outputs": [
						{
							"internalType": "uint256",
							"name": "",
							"type": "uint256"
						}
					],
					"stateMutability": "view",
					"type": "function"
				},
				{
					"inputs": [
						{
							"internalType": "address",
							"name": "newOwner",
							"type": "address"
						}
					],
					"name": "transferOwnership",
					"outputs": [],
					"stateMutability": "nonpayable",
					"type": "function"
				},
				{
					"inputs": [],
					"name": "unpause",
					"outputs": [],
					"stateMutability": "nonpayable",
					"type": "function"
				},
				{
					"inputs": [
						{
							"internalType": "address",
							"name": "",
							"type": "address"
						},
						{
							"internalType": "uint256",
							"name": "",
							"type": "uint256"
						}
					],
					"name": "userLoans",
					"outputs": [
						{
							"internalType": "uint256",
							"name": "",
							"type": "uint256"
						}
					],
					"stateMutability": "view",
					"type": "function"
				},
				{
					"inputs": [],
					"name": "vaultBTC",
					"outputs": [
						{
							"internalType": "contract IERC20",
							"name": "",
							"type": "address"
						}
					],
					"stateMutability": "view",
					"type": "function"
				}
			],
			"devdoc": {
				"errors": {
					"OwnableInvalidOwner(address)": [
						{
							"details": "The owner is not a valid owner account. (eg. `address(0)`)"
						}
					],
					"OwnableUnauthorizedAccount(address)": [
						{
							"details": "The caller account is not authorized to perform an operation."
						}
					]
				},
				"events": {
					"Paused(address)": {
						"details": "Emitted when the pause is triggered by `account`."
					},
					"Unpaused(address)": {
						"details": "Emitted when the pause is lifted by `account`."
					}
				},
				"kind": "dev",
				"methods": {
					"owner()": {
						"details": "Returns the address of the current owner."
					},
					"paused()": {
						"details": "Returns true if the contract is paused, and false otherwise."
					},
					"renounceOwnership()": {
						"details": "Leaves the contract without owner. It will not be possible to call `onlyOwner` functions. Can only be called by the current owner. NOTE: Renouncing ownership will leave the contract without an owner, thereby disabling any functionality that is only available to the owner."
					},
					"transferOwnership(address)": {
						"details": "Transfers ownership of the contract to a new account (`newOwner`). Can only be called by the current owner."
					}
				},
				"version": 1
			},
			"evm": {
				"assembly": "    /* \"contract/vaultswapcore.sol\":366:10497  contract VaultSwapCore is ReentrancyGuard, Ownable, Pausable {... */\n  mstore(0x40, 0x80)\n    /* \"contract/vaultswapcore.sol\":1147:1150  550 */\n  0x0226\n    /* \"contract/vaultswapcore.sol\":1113:1150  uint256 public baseInterestRate = 550 */\n  0x05\n  sstore\n    /* \"contract/vaultswapcore.sol\":2015:2505  constructor(... */\n  callvalue\n  dup1\n  iszero\n  tag_1\n  jumpi\n  revert(0x00, 0x00)\ntag_1:\n  pop\n  mload(0x40)\n  sub(codesize, bytecodeSize)\n  dup1\n  bytecodeSize\n  dup4\n  codecopy\n  dup2\n  dup2\n  add\n  0x40\n  mstore\n  dup2\n  add\n  swap1\n  tag_2\n  swap2\n  swap1\n  tag_3\n  jump\t// in\ntag_2:\n    /* \"contract/vaultswapcore.sol\":2134:2144  msg.sender */\n  caller\n    /* \"@openzeppelin/contracts/security/ReentrancyGuard.sol\":1716:1717  1 */\n  0x01\n    /* \"@openzeppelin/contracts/security/ReentrancyGuard.sol\":1821:1828  _status */\n  0x00\n    /* \"@openzeppelin/contracts/security/ReentrancyGuard.sol\":1821:1843  _status = _NOT_ENTERED */\n  dup2\n  swap1\n  sstore\n  pop\n    /* \"@openzeppelin/contracts/access/Ownable.sol\":1297:1298  0 */\n  0x00\n    /* \"@openzeppelin/contracts/access/Ownable.sol\":1273:1299  initialOwner == address(0) */\n  0xffffffffffffffffffffffffffffffffffffffff\n  and\n    /* \"@openzeppelin/contracts/access/Ownable.sol\":1273:1285  initialOwner */\n  dup2\n    /* \"@openzeppelin/contracts/access/Ownable.sol\":1273:1299  initialOwner == address(0) */\n  0xffffffffffffffffffffffffffffffffffffffff\n  and\n  sub\n    /* \"@openzeppelin/contracts/access/Ownable.sol\":1269:1364  if (initialOwner == address(0)) {... */\n  tag_10\n  jumpi\n    /* \"@openzeppelin/contracts/access/Ownable.sol\":1350:1351  0 */\n  0x00\n    /* \"@openzeppelin/contracts/access/Ownable.sol\":1322:1353  OwnableInvalidOwner(address(0)) */\n  mload(0x40)\n  0x1e4fbdf700000000000000000000000000000000000000000000000000000000\n  dup2\n  mstore\n  0x04\n  add\n  tag_11\n  swap2\n  swap1\n  tag_12\n  jump\t// in\ntag_11:\n  mload(0x40)\n  dup1\n  swap2\n  sub\n  swap1\n  revert\n    /* \"@openzeppelin/contracts/access/Ownable.sol\":1269:1364  if (initialOwner == address(0)) {... */\ntag_10:\n    /* \"@openzeppelin/contracts/access/Ownable.sol\":1373:1405  _transferOwnership(initialOwner) */\n  tag_13\n    /* \"@openzeppelin/contracts/access/Ownable.sol\":1392:1404  initialOwner */\n  dup2\n    /* \"@openzeppelin/contracts/access/Ownable.sol\":1373:1391  _transferOwnership */\n  shl(0x20, tag_14)\n    /* \"@openzeppelin/contracts/access/Ownable.sol\":1373:1405  _transferOwnership(initialOwner) */\n  0x20\n  shr\n  jump\t// in\ntag_13:\n    /* \"@openzeppelin/contracts/access/Ownable.sol\":1225:1412  constructor(address initialOwner) {... */\n  pop\n    /* \"@openzeppelin/contracts/security/Pausable.sol\":1006:1011  false */\n  0x00\n    /* \"@openzeppelin/contracts/security/Pausable.sol\":996:1003  _paused */\n  0x01\n  0x14\n    /* \"@openzeppelin/contracts/security/Pausable.sol\":996:1011  _paused = false */\n  0x0100\n  exp\n  dup2\n  sload\n  dup2\n  0xff\n  mul\n  not\n  and\n  swap1\n  dup4\n  iszero\n  iszero\n  mul\n  or\n  swap1\n  sstore\n  pop\n    /* \"contract/vaultswapcore.sol\":2185:2186  0 */\n  0x00\n    /* \"contract/vaultswapcore.sol\":2164:2187  _vaultBTC != address(0) */\n  0xffffffffffffffffffffffffffffffffffffffff\n  and\n    /* \"contract/vaultswapcore.sol\":2164:2173  _vaultBTC */\n  dup4\n    /* \"contract/vaultswapcore.sol\":2164:2187  _vaultBTC != address(0) */\n  0xffffffffffffffffffffffffffffffffffffffff\n  and\n  sub\n    /* \"contract/vaultswapcore.sol\":2156:2208  require(_vaultBTC != address(0), \"Invalid vaultBTC\") */\n  tag_17\n  jumpi\n  mload(0x40)\n  0x08c379a000000000000000000000000000000000000000000000000000000000\n  dup2\n  mstore\n  0x04\n  add\n  tag_18\n  swap1\n  tag_19\n  jump\t// in\ntag_18:\n  mload(0x40)\n  dup1\n  swap2\n  sub\n  swap1\n  revert\ntag_17:\n    /* \"contract/vaultswapcore.sol\":2249:2250  0 */\n  0x00\n    /* \"contract/vaultswapcore.sol\":2226:2251  _stablecoin != address(0) */\n  0xffffffffffffffffffffffffffffffffffffffff\n  and\n    /* \"contract/vaultswapcore.sol\":2226:2237  _stablecoin */\n  dup3\n    /* \"contract/vaultswapcore.sol\":2226:2251  _stablecoin != address(0) */\n  0xffffffffffffffffffffffffffffffffffffffff\n  and\n  sub\n    /* \"contract/vaultswapcore.sol\":2218:2274  require(_stablecoin != address(0), \"Invalid stablecoin\") */\n  tag_20\n  jumpi\n  mload(0x40)\n  0x08c379a000000000000000000000000000000000000000000000000000000000\n  dup2\n  mstore\n  0x04\n  add\n  tag_21\n  swap1\n  tag_22\n  jump\t// in\ntag_21:\n  mload(0x40)\n  dup1\n  swap2\n  sub\n  swap1\n  revert\ntag_20:\n    /* \"contract/vaultswapcore.sol\":2323:2324  0 */\n  0x00\n    /* \"contract/vaultswapcore.sol\":2292:2325  _chainlinkPriceFeed != address(0) */\n  0xffffffffffffffffffffffffffffffffffffffff\n  and\n    /* \"contract/vaultswapcore.sol\":2292:2311  _chainlinkPriceFeed */\n  dup2\n    /* \"contract/vaultswapcore.sol\":2292:2325  _chainlinkPriceFeed != address(0) */\n  0xffffffffffffffffffffffffffffffffffffffff\n  and\n  sub\n    /* \"contract/vaultswapcore.sol\":2284:2344  require(_chainlinkPriceFeed != address(0), \"Invalid oracle\") */\n  tag_23\n  jumpi\n  mload(0x40)\n  0x08c379a000000000000000000000000000000000000000000000000000000000\n  dup2\n  mstore\n  0x04\n  add\n  tag_24\n  swap1\n  tag_25\n  jump\t// in\ntag_24:\n  mload(0x40)\n  dup1\n  swap2\n  sub\n  swap1\n  revert\ntag_23:\n    /* \"contract/vaultswapcore.sol\":2381:2390  _vaultBTC */\n  dup3\n    /* \"contract/vaultswapcore.sol\":2363:2371  vaultBTC */\n  0x02\n  0x00\n    /* \"contract/vaultswapcore.sol\":2363:2391  vaultBTC = IERC20(_vaultBTC) */\n  0x0100\n  exp\n  dup2\n  sload\n  dup2\n  0xffffffffffffffffffffffffffffffffffffffff\n  mul\n  not\n  and\n  swap1\n  dup4\n  0xffffffffffffffffffffffffffffffffffffffff\n  and\n  mul\n  or\n  swap1\n  sstore\n  pop\n    /* \"contract/vaultswapcore.sol\":2421:2432  _stablecoin */\n  dup2\n    /* \"contract/vaultswapcore.sol\":2401:2411  stablecoin */\n  0x03\n  0x00\n    /* \"contract/vaultswapcore.sol\":2401:2433  stablecoin = IERC20(_stablecoin) */\n  0x0100\n  exp\n  dup2\n  sload\n  dup2\n  0xffffffffffffffffffffffffffffffffffffffff\n  mul\n  not\n  and\n  swap1\n  dup4\n  0xffffffffffffffffffffffffffffffffffffffff\n  and\n  mul\n  or\n  swap1\n  sstore\n  pop\n    /* \"contract/vaultswapcore.sol\":2477:2496  _chainlinkPriceFeed */\n  dup1\n    /* \"contract/vaultswapcore.sol\":2443:2452  priceFeed */\n  0x04\n  0x00\n    /* \"contract/vaultswapcore.sol\":2443:2497  priceFeed = AggregatorV3Interface(_chainlinkPriceFeed) */\n  0x0100\n  exp\n  dup2\n  sload\n  dup2\n  0xffffffffffffffffffffffffffffffffffffffff\n  mul\n  not\n  and\n  swap1\n  dup4\n  0xffffffffffffffffffffffffffffffffffffffff\n  and\n  mul\n  or\n  swap1\n  sstore\n  pop\n    /* \"contract/vaultswapcore.sol\":2015:2505  constructor(... */\n  pop\n  pop\n  pop\n    /* \"contract/vaultswapcore.sol\":366:10497  contract VaultSwapCore is ReentrancyGuard, Ownable, Pausable {... */\n  jump(tag_26)\n    /* \"@openzeppelin/contracts/access/Ownable.sol\":2912:3099  function _transferOwnership(address newOwner) internal virtual {... */\ntag_14:\n    /* \"@openzeppelin/contracts/access/Ownable.sol\":2985:3001  address oldOwner */\n  0x00\n    /* \"@openzeppelin/contracts/access/Ownable.sol\":3004:3010  _owner */\n  0x01\n  0x00\n  swap1\n  sload\n  swap1\n  0x0100\n  exp\n  swap1\n  div\n  0xffffffffffffffffffffffffffffffffffffffff\n  and\n    /* \"@openzeppelin/contracts/access/Ownable.sol\":2985:3010  address oldOwner = _owner */\n  swap1\n  pop\n    /* \"@openzeppelin/contracts/access/Ownable.sol\":3029:3037  newOwner */\n  dup2\n    /* \"@openzeppelin/contracts/access/Ownable.sol\":3020:3026  _owner */\n  0x01\n  0x00\n    /* \"@openzeppelin/contracts/access/Ownable.sol\":3020:3037  _owner = newOwner */\n  0x0100\n  exp\n  dup2\n  sload\n  dup2\n  0xffffffffffffffffffffffffffffffffffffffff\n  mul\n  not\n  and\n  swap1\n  dup4\n  0xffffffffffffffffffffffffffffffffffffffff\n  and\n  mul\n  or\n  swap1\n  sstore\n  pop\n    /* \"@openzeppelin/contracts/access/Ownable.sol\":3083:3091  newOwner */\n  dup2\n    /* \"@openzeppelin/contracts/access/Ownable.sol\":3052:3092  OwnershipTransferred(oldOwner, newOwner) */\n  0xffffffffffffffffffffffffffffffffffffffff\n  and\n    /* \"@openzeppelin/contracts/access/Ownable.sol\":3073:3081  oldOwner */\n  dup2\n    /* \"@openzeppelin/contracts/access/Ownable.sol\":3052:3092  OwnershipTransferred(oldOwner, newOwner) */\n  0xffffffffffffffffffffffffffffffffffffffff\n  and\n  0x8be0079c531659141344cd1fd0a4f28419497f9722a3daafe3b4186f6b6457e0\n  mload(0x40)\n  mload(0x40)\n  dup1\n  swap2\n  sub\n  swap1\n  log3\n    /* \"@openzeppelin/contracts/access/Ownable.sol\":2975:3099  {... */\n  pop\n    /* \"@openzeppelin/contracts/access/Ownable.sol\":2912:3099  function _transferOwnership(address newOwner) internal virtual {... */\n  pop\n  jump\t// out\n    /* \"#utility.yul\":88:205   */\ntag_29:\n    /* \"#utility.yul\":197:198   */\n  0x00\n    /* \"#utility.yul\":194:195   */\n  0x00\n    /* \"#utility.yul\":187:199   */\n  revert\n    /* \"#utility.yul\":334:460   */\ntag_31:\n    /* \"#utility.yul\":371:378   */\n  0x00\n    /* \"#utility.yul\":411:453   */\n  0xffffffffffffffffffffffffffffffffffffffff\n    /* \"#utility.yul\":404:409   */\n  dup3\n    /* \"#utility.yul\":400:454   */\n  and\n    /* \"#utility.yul\":389:454   */\n  swap1\n  pop\n    /* \"#utility.yul\":334:460   */\n  swap2\n  swap1\n  pop\n  jump\t// out\n    /* \"#utility.yul\":466:562   */\ntag_32:\n    /* \"#utility.yul\":503:510   */\n  0x00\n    /* \"#utility.yul\":532:556   */\n  tag_49\n    /* \"#utility.yul\":550:555   */\n  dup3\n    /* \"#utility.yul\":532:556   */\n  tag_31\n  jump\t// in\ntag_49:\n    /* \"#utility.yul\":521:556   */\n  swap1\n  pop\n    /* \"#utility.yul\":466:562   */\n  swap2\n  swap1\n  pop\n  jump\t// out\n    /* \"#utility.yul\":568:690   */\ntag_33:\n    /* \"#utility.yul\":641:665   */\n  tag_51\n    /* \"#utility.yul\":659:664   */\n  dup2\n    /* \"#utility.yul\":641:665   */\n  tag_32\n  jump\t// in\ntag_51:\n    /* \"#utility.yul\":634:639   */\n  dup2\n    /* \"#utility.yul\":631:666   */\n  eq\n    /* \"#utility.yul\":621:684   */\n  tag_52\n  jumpi\n    /* \"#utility.yul\":680:681   */\n  0x00\n    /* \"#utility.yul\":677:678   */\n  0x00\n    /* \"#utility.yul\":670:682   */\n  revert\n    /* \"#utility.yul\":621:684   */\ntag_52:\n    /* \"#utility.yul\":568:690   */\n  pop\n  jump\t// out\n    /* \"#utility.yul\":696:839   */\ntag_34:\n    /* \"#utility.yul\":753:758   */\n  0x00\n    /* \"#utility.yul\":784:790   */\n  dup2\n    /* \"#utility.yul\":778:791   */\n  mload\n    /* \"#utility.yul\":769:791   */\n  swap1\n  pop\n    /* \"#utility.yul\":800:833   */\n  tag_54\n    /* \"#utility.yul\":827:832   */\n  dup2\n    /* \"#utility.yul\":800:833   */\n  tag_33\n  jump\t// in\ntag_54:\n    /* \"#utility.yul\":696:839   */\n  swap3\n  swap2\n  pop\n  pop\n  jump\t// out\n    /* \"#utility.yul\":845:1508   */\ntag_3:\n    /* \"#utility.yul\":933:939   */\n  0x00\n    /* \"#utility.yul\":941:947   */\n  0x00\n    /* \"#utility.yul\":949:955   */\n  0x00\n    /* \"#utility.yul\":998:1000   */\n  0x60\n    /* \"#utility.yul\":986:995   */\n  dup5\n    /* \"#utility.yul\":977:984   */\n  dup7\n    /* \"#utility.yul\":973:996   */\n  sub\n    /* \"#utility.yul\":969:1001   */\n  slt\n    /* \"#utility.yul\":966:1085   */\n  iszero\n  tag_56\n  jumpi\n    /* \"#utility.yul\":1004:1083   */\n  tag_57\n  tag_29\n  jump\t// in\ntag_57:\n    /* \"#utility.yul\":966:1085   */\ntag_56:\n    /* \"#utility.yul\":1124:1125   */\n  0x00\n    /* \"#utility.yul\":1149:1213   */\n  tag_58\n    /* \"#utility.yul\":1205:1212   */\n  dup7\n    /* \"#utility.yul\":1196:1202   */\n  dup3\n    /* \"#utility.yul\":1185:1194   */\n  dup8\n    /* \"#utility.yul\":1181:1203   */\n  add\n    /* \"#utility.yul\":1149:1213   */\n  tag_34\n  jump\t// in\ntag_58:\n    /* \"#utility.yul\":1139:1213   */\n  swap4\n  pop\n    /* \"#utility.yul\":1095:1223   */\n  pop\n    /* \"#utility.yul\":1262:1264   */\n  0x20\n    /* \"#utility.yul\":1288:1352   */\n  tag_59\n    /* \"#utility.yul\":1344:1351   */\n  dup7\n    /* \"#utility.yul\":1335:1341   */\n  dup3\n    /* \"#utility.yul\":1324:1333   */\n  dup8\n    /* \"#utility.yul\":1320:1342   */\n  add\n    /* \"#utility.yul\":1288:1352   */\n  tag_34\n  jump\t// in\ntag_59:\n    /* \"#utility.yul\":1278:1352   */\n  swap3\n  pop\n    /* \"#utility.yul\":1233:1362   */\n  pop\n    /* \"#utility.yul\":1401:1403   */\n  0x40\n    /* \"#utility.yul\":1427:1491   */\n  tag_60\n    /* \"#utility.yul\":1483:1490   */\n  dup7\n    /* \"#utility.yul\":1474:1480   */\n  dup3\n    /* \"#utility.yul\":1463:1472   */\n  dup8\n    /* \"#utility.yul\":1459:1481   */\n  add\n    /* \"#utility.yul\":1427:1491   */\n  tag_34\n  jump\t// in\ntag_60:\n    /* \"#utility.yul\":1417:1491   */\n  swap2\n  pop\n    /* \"#utility.yul\":1372:1501   */\n  pop\n    /* \"#utility.yul\":845:1508   */\n  swap3\n  pop\n  swap3\n  pop\n  swap3\n  jump\t// out\n    /* \"#utility.yul\":1514:1632   */\ntag_35:\n    /* \"#utility.yul\":1601:1625   */\n  tag_62\n    /* \"#utility.yul\":1619:1624   */\n  dup2\n    /* \"#utility.yul\":1601:1625   */\n  tag_32\n  jump\t// in\ntag_62:\n    /* \"#utility.yul\":1596:1599   */\n  dup3\n    /* \"#utility.yul\":1589:1626   */\n  mstore\n    /* \"#utility.yul\":1514:1632   */\n  pop\n  pop\n  jump\t// out\n    /* \"#utility.yul\":1638:1860   */\ntag_12:\n    /* \"#utility.yul\":1731:1735   */\n  0x00\n    /* \"#utility.yul\":1769:1771   */\n  0x20\n    /* \"#utility.yul\":1758:1767   */\n  dup3\n    /* \"#utility.yul\":1754:1772   */\n  add\n    /* \"#utility.yul\":1746:1772   */\n  swap1\n  pop\n    /* \"#utility.yul\":1782:1853   */\n  tag_64\n    /* \"#utility.yul\":1850:1851   */\n  0x00\n    /* \"#utility.yul\":1839:1848   */\n  dup4\n    /* \"#utility.yul\":1835:1852   */\n  add\n    /* \"#utility.yul\":1826:1832   */\n  dup5\n    /* \"#utility.yul\":1782:1853   */\n  tag_35\n  jump\t// in\ntag_64:\n    /* \"#utility.yul\":1638:1860   */\n  swap3\n  swap2\n  pop\n  pop\n  jump\t// out\n    /* \"#utility.yul\":1866:2035   */\ntag_36:\n    /* \"#utility.yul\":1950:1961   */\n  0x00\n    /* \"#utility.yul\":1984:1990   */\n  dup3\n    /* \"#utility.yul\":1979:1982   */\n  dup3\n    /* \"#utility.yul\":1972:1991   */\n  mstore\n    /* \"#utility.yul\":2024:2028   */\n  0x20\n    /* \"#utility.yul\":2019:2022   */\n  dup3\n    /* \"#utility.yul\":2015:2029   */\n  add\n    /* \"#utility.yul\":2000:2029   */\n  swap1\n  pop\n    /* \"#utility.yul\":1866:2035   */\n  swap3\n  swap2\n  pop\n  pop\n  jump\t// out\n    /* \"#utility.yul\":2041:2207   */\ntag_37:\n    /* \"#utility.yul\":2181:2199   */\n  0x496e76616c6964207661756c7442544300000000000000000000000000000000\n    /* \"#utility.yul\":2177:2178   */\n  0x00\n    /* \"#utility.yul\":2169:2175   */\n  dup3\n    /* \"#utility.yul\":2165:2179   */\n  add\n    /* \"#utility.yul\":2158:2200   */\n  mstore\n    /* \"#utility.yul\":2041:2207   */\n  pop\n  jump\t// out\n    /* \"#utility.yul\":2213:2579   */\ntag_38:\n    /* \"#utility.yul\":2355:2358   */\n  0x00\n    /* \"#utility.yul\":2376:2443   */\n  tag_68\n    /* \"#utility.yul\":2440:2442   */\n  0x10\n    /* \"#utility.yul\":2435:2438   */\n  dup4\n    /* \"#utility.yul\":2376:2443   */\n  tag_36\n  jump\t// in\ntag_68:\n    /* \"#utility.yul\":2369:2443   */\n  swap2\n  pop\n    /* \"#utility.yul\":2452:2545   */\n  tag_69\n    /* \"#utility.yul\":2541:2544   */\n  dup3\n    /* \"#utility.yul\":2452:2545   */\n  tag_37\n  jump\t// in\ntag_69:\n    /* \"#utility.yul\":2570:2572   */\n  0x20\n    /* \"#utility.yul\":2565:2568   */\n  dup3\n    /* \"#utility.yul\":2561:2573   */\n  add\n    /* \"#utility.yul\":2554:2573   */\n  swap1\n  pop\n    /* \"#utility.yul\":2213:2579   */\n  swap2\n  swap1\n  pop\n  jump\t// out\n    /* \"#utility.yul\":2585:3004   */\ntag_19:\n    /* \"#utility.yul\":2751:2755   */\n  0x00\n    /* \"#utility.yul\":2789:2791   */\n  0x20\n    /* \"#utility.yul\":2778:2787   */\n  dup3\n    /* \"#utility.yul\":2774:2792   */\n  add\n    /* \"#utility.yul\":2766:2792   */\n  swap1\n  pop\n    /* \"#utility.yul\":2838:2847   */\n  dup2\n    /* \"#utility.yul\":2832:2836   */\n  dup2\n    /* \"#utility.yul\":2828:2848   */\n  sub\n    /* \"#utility.yul\":2824:2825   */\n  0x00\n    /* \"#utility.yul\":2813:2822   */\n  dup4\n    /* \"#utility.yul\":2809:2826   */\n  add\n    /* \"#utility.yul\":2802:2849   */\n  mstore\n    /* \"#utility.yul\":2866:2997   */\n  tag_71\n    /* \"#utility.yul\":2992:2996   */\n  dup2\n    /* \"#utility.yul\":2866:2997   */\n  tag_38\n  jump\t// in\ntag_71:\n    /* \"#utility.yul\":2858:2997   */\n  swap1\n  pop\n    /* \"#utility.yul\":2585:3004   */\n  swap2\n  swap1\n  pop\n  jump\t// out\n    /* \"#utility.yul\":3010:3178   */\ntag_39:\n    /* \"#utility.yul\":3150:3170   */\n  0x496e76616c696420737461626c65636f696e0000000000000000000000000000\n    /* \"#utility.yul\":3146:3147   */\n  0x00\n    /* \"#utility.yul\":3138:3144   */\n  dup3\n    /* \"#utility.yul\":3134:3148   */\n  add\n    /* \"#utility.yul\":3127:3171   */\n  mstore\n    /* \"#utility.yul\":3010:3178   */\n  pop\n  jump\t// out\n    /* \"#utility.yul\":3184:3550   */\ntag_40:\n    /* \"#utility.yul\":3326:3329   */\n  0x00\n    /* \"#utility.yul\":3347:3414   */\n  tag_74\n    /* \"#utility.yul\":3411:3413   */\n  0x12\n    /* \"#utility.yul\":3406:3409   */\n  dup4\n    /* \"#utility.yul\":3347:3414   */\n  tag_36\n  jump\t// in\ntag_74:\n    /* \"#utility.yul\":3340:3414   */\n  swap2\n  pop\n    /* \"#utility.yul\":3423:3516   */\n  tag_75\n    /* \"#utility.yul\":3512:3515   */\n  dup3\n    /* \"#utility.yul\":3423:3516   */\n  tag_39\n  jump\t// in\ntag_75:\n    /* \"#utility.yul\":3541:3543   */\n  0x20\n    /* \"#utility.yul\":3536:3539   */\n  dup3\n    /* \"#utility.yul\":3532:3544   */\n  add\n    /* \"#utility.yul\":3525:3544   */\n  swap1\n  pop\n    /* \"#utility.yul\":3184:3550   */\n  swap2\n  swap1\n  pop\n  jump\t// out\n    /* \"#utility.yul\":3556:3975   */\ntag_22:\n    /* \"#utility.yul\":3722:3726   */\n  0x00\n    /* \"#utility.yul\":3760:3762   */\n  0x20\n    /* \"#utility.yul\":3749:3758   */\n  dup3\n    /* \"#utility.yul\":3745:3763   */\n  add\n    /* \"#utility.yul\":3737:3763   */\n  swap1\n  pop\n    /* \"#utility.yul\":3809:3818   */\n  dup2\n    /* \"#utility.yul\":3803:3807   */\n  dup2\n    /* \"#utility.yul\":3799:3819   */\n  sub\n    /* \"#utility.yul\":3795:3796   */\n  0x00\n    /* \"#utility.yul\":3784:3793   */\n  dup4\n    /* \"#utility.yul\":3780:3797   */\n  add\n    /* \"#utility.yul\":3773:3820   */\n  mstore\n    /* \"#utility.yul\":3837:3968   */\n  tag_77\n    /* \"#utility.yul\":3963:3967   */\n  dup2\n    /* \"#utility.yul\":3837:3968   */\n  tag_40\n  jump\t// in\ntag_77:\n    /* \"#utility.yul\":3829:3968   */\n  swap1\n  pop\n    /* \"#utility.yul\":3556:3975   */\n  swap2\n  swap1\n  pop\n  jump\t// out\n    /* \"#utility.yul\":3981:4145   */\ntag_41:\n    /* \"#utility.yul\":4121:4137   */\n  0x496e76616c6964206f7261636c65000000000000000000000000000000000000\n    /* \"#utility.yul\":4117:4118   */\n  0x00\n    /* \"#utility.yul\":4109:4115   */\n  dup3\n    /* \"#utility.yul\":4105:4119   */\n  add\n    /* \"#utility.yul\":4098:4138   */\n  mstore\n    /* \"#utility.yul\":3981:4145   */\n  pop\n  jump\t// out\n    /* \"#utility.yul\":4151:4517   */\ntag_42:\n    /* \"#utility.yul\":4293:4296   */\n  0x00\n    /* \"#utility.yul\":4314:4381   */\n  tag_80\n    /* \"#utility.yul\":4378:4380   */\n  0x0e\n    /* \"#utility.yul\":4373:4376   */\n  dup4\n    /* \"#utility.yul\":4314:4381   */\n  tag_36\n  jump\t// in\ntag_80:\n    /* \"#utility.yul\":4307:4381   */\n  swap2\n  pop\n    /* \"#utility.yul\":4390:4483   */\n  tag_81\n    /* \"#utility.yul\":4479:4482   */\n  dup3\n    /* \"#utility.yul\":4390:4483   */\n  tag_41\n  jump\t// in\ntag_81:\n    /* \"#utility.yul\":4508:4510   */\n  0x20\n    /* \"#utility.yul\":4503:4506   */\n  dup3\n    /* \"#utility.yul\":4499:4511   */\n  add\n    /* \"#utility.yul\":4492:4511   */\n  swap1\n  pop\n    /* \"#utility.yul\":4151:4517   */\n  swap2\n  swap1\n  pop\n  jump\t// out\n    /* \"#utility.yul\":4523:4942   */\ntag_25:\n    /* \"#utility.yul\":4689:4693   */\n  0x00\n    /* \"#utility.yul\":4727:4729   */\n  0x20\n    /* \"#utility.yul\":4716:4725   */\n  dup3\n    /* \"#utility.yul\":4712:4730   */\n  add\n    /* \"#utility.yul\":4704:4730   */\n  swap1\n  pop\n    /* \"#utility.yul\":4776:4785   */\n  dup2\n    /* \"#utility.yul\":4770:4774   */\n  dup2\n    /* \"#utility.yul\":4766:4786   */\n  sub\n    /* \"#utility.yul\":4762:4763   */\n  0x00\n    /* \"#utility.yul\":4751:4760   */\n  dup4\n    /* \"#utility.yul\":4747:4764   */\n  add\n    /* \"#utility.yul\":4740:4787   */\n  mstore\n    /* \"#utility.yul\":4804:4935   */\n  tag_83\n    /* \"#utility.yul\":4930:4934   */\n  dup2\n    /* \"#utility.yul\":4804:4935   */\n  tag_42\n  jump\t// in\ntag_83:\n    /* \"#utility.yul\":4796:4935   */\n  swap1\n  pop\n    /* \"#utility.yul\":4523:4942   */\n  swap2\n  swap1\n  pop\n  jump\t// out\n    /* \"contract/vaultswapcore.sol\":366:10497  contract VaultSwapCore is ReentrancyGuard, Ownable, Pausable {... */\ntag_26:\n  dataSize(sub_0)\n  dup1\n  dataOffset(sub_0)\n  0x00\n  codecopy\n  0x00\n  return\nstop\n\nsub_0: assembly {\n        /* \"contract/vaultswapcore.sol\":366:10497  contract VaultSwapCore is ReentrancyGuard, Ownable, Pausable {... */\n      mstore(0x40, 0x80)\n      callvalue\n      dup1\n      iszero\n      tag_1\n      jumpi\n      revert(0x00, 0x00)\n    tag_1:\n      pop\n      jumpi(tag_2, lt(calldatasize, 0x04))\n      shr(0xe0, calldataload(0x00))\n      dup1\n      0x8da5cb5b\n      gt\n      tag_34\n      jumpi\n      dup1\n      0xa8f35adf\n      gt\n      tag_35\n      jumpi\n      dup1\n      0xe1ec3c68\n      gt\n      tag_36\n      jumpi\n      dup1\n      0xe1ec3c68\n      eq\n      tag_30\n      jumpi\n      dup1\n      0xe1f1c4a7\n      eq\n      tag_31\n      jumpi\n      dup1\n      0xe9cbd822\n      eq\n      tag_32\n      jumpi\n      dup1\n      0xf2fde38b\n      eq\n      tag_33\n      jumpi\n      jump(tag_2)\n    tag_36:\n      dup1\n      0xa8f35adf\n      eq\n      tag_26\n      jumpi\n      dup1\n      0xafd92762\n      eq\n      tag_27\n      jumpi\n      dup1\n      0xd8bad5bd\n      eq\n      tag_28\n      jumpi\n      dup1\n      0xd9e69a05\n      eq\n      tag_29\n      jumpi\n      jump(tag_2)\n    tag_35:\n      dup1\n      0x95ccea67\n      gt\n      tag_37\n      jumpi\n      dup1\n      0x95ccea67\n      eq\n      tag_22\n      jumpi\n      dup1\n      0x9b8621d5\n      eq\n      tag_23\n      jumpi\n      dup1\n      0x9d939d16\n      eq\n      tag_24\n      jumpi\n      dup1\n      0xa57475e0\n      eq\n      tag_25\n      jumpi\n      jump(tag_2)\n    tag_37:\n      dup1\n      0x8da5cb5b\n      eq\n      tag_18\n      jumpi\n      dup1\n      0x8e15f473\n      eq\n      tag_19\n      jumpi\n      dup1\n      0x902781a9\n      eq\n      tag_20\n      jumpi\n      dup1\n      0x90a8ae9b\n      eq\n      tag_21\n      jumpi\n      jump(tag_2)\n    tag_34:\n      dup1\n      0x4c19386c\n      gt\n      tag_38\n      jumpi\n      dup1\n      0x66877b8d\n      gt\n      tag_39\n      jumpi\n      dup1\n      0x66877b8d\n      eq\n      tag_14\n      jumpi\n      dup1\n      0x715018a6\n      eq\n      tag_15\n      jumpi\n      dup1\n      0x741bef1a\n      eq\n      tag_16\n      jumpi\n      dup1\n      0x8456cb59\n      eq\n      tag_17\n      jumpi\n      jump(tag_2)\n    tag_39:\n      dup1\n      0x4c19386c\n      eq\n      tag_10\n      jumpi\n      dup1\n      0x5c975abb\n      eq\n      tag_11\n      jumpi\n      dup1\n      0x5f84f302\n      eq\n      tag_12\n      jumpi\n      dup1\n      0x61a4d4ef\n      eq\n      tag_13\n      jumpi\n      jump(tag_2)\n    tag_38:\n      dup1\n      0x371fd8e6\n      gt\n      tag_40\n      jumpi\n      dup1\n      0x371fd8e6\n      eq\n      tag_6\n      jumpi\n      dup1\n      0x3f4ba83a\n      eq\n      tag_7\n      jumpi\n      dup1\n      0x415f1240\n      eq\n      tag_8\n      jumpi\n      dup1\n      0x4ac8eb5f\n      eq\n      tag_9\n      jumpi\n      jump(tag_2)\n    tag_40:\n      dup1\n      0x02bf321f\n      eq\n      tag_3\n      jumpi\n      dup1\n      0x0ecbcdab\n      eq\n      tag_4\n      jumpi\n      dup1\n      0x17845c69\n      eq\n      tag_5\n      jumpi\n    tag_2:\n      revert(0x00, 0x00)\n        /* \"contract/vaultswapcore.sol\":9119:9235  function getUserLoans(address user) external view returns (uint256[] memory) {... */\n    tag_3:\n      tag_41\n      0x04\n      dup1\n      calldatasize\n      sub\n      dup2\n      add\n      swap1\n      tag_42\n      swap2\n      swap1\n      tag_43\n      jump\t// in\n    tag_42:\n      tag_44\n      jump\t// in\n    tag_41:\n      mload(0x40)\n      tag_45\n      swap2\n      swap1\n      tag_46\n      jump\t// in\n    tag_45:\n      mload(0x40)\n      dup1\n      swap2\n      sub\n      swap1\n      return\n        /* \"contract/vaultswapcore.sol\":2877:4720  function borrow(... */\n    tag_4:\n      tag_47\n      0x04\n      dup1\n      calldatasize\n      sub\n      dup2\n      add\n      swap1\n      tag_48\n      swap2\n      swap1\n      tag_49\n      jump\t// in\n    tag_48:\n      tag_50\n      jump\t// in\n    tag_47:\n      mload(0x40)\n      tag_51\n      swap2\n      swap1\n      tag_52\n      jump\t// in\n    tag_51:\n      mload(0x40)\n      dup1\n      swap2\n      sub\n      swap1\n      return\n        /* \"contract/vaultswapcore.sol\":7810:8354  function getHealthFactor(uint256 loanId) public view returns (uint256) {... */\n    tag_5:\n      tag_53\n      0x04\n      dup1\n      calldatasize\n      sub\n      dup2\n      add\n      swap1\n      tag_54\n      swap2\n      swap1\n      tag_55\n      jump\t// in\n    tag_54:\n      tag_56\n      jump\t// in\n    tag_53:\n      mload(0x40)\n      tag_57\n      swap2\n      swap1\n      tag_52\n      jump\t// in\n    tag_57:\n      mload(0x40)\n      dup1\n      swap2\n      sub\n      swap1\n      return\n        /* \"contract/vaultswapcore.sol\":4730:5755  function repay(uint256 loanId) external nonReentrant {... */\n    tag_6:\n      tag_58\n      0x04\n      dup1\n      calldatasize\n      sub\n      dup2\n      add\n      swap1\n      tag_59\n      swap2\n      swap1\n      tag_55\n      jump\t// in\n    tag_59:\n      tag_60\n      jump\t// in\n    tag_58:\n      stop\n        /* \"contract/vaultswapcore.sol\":10259:10324  function unpause() external onlyOwner {... */\n    tag_7:\n      tag_61\n      tag_62\n      jump\t// in\n    tag_61:\n      stop\n        /* \"contract/vaultswapcore.sol\":5765:7036  function liquidate(uint256 loanId) external nonReentrant {... */\n    tag_8:\n      tag_63\n      0x04\n      dup1\n      calldatasize\n      sub\n      dup2\n      add\n      swap1\n      tag_64\n      swap2\n      swap1\n      tag_55\n      jump\t// in\n    tag_64:\n      tag_65\n      jump\t// in\n    tag_63:\n      stop\n        /* \"contract/vaultswapcore.sol\":1218:1248  uint256 public totalCollateral */\n    tag_9:\n      tag_66\n      tag_67\n      jump\t// in\n    tag_66:\n      mload(0x40)\n      tag_68\n      swap2\n      swap1\n      tag_52\n      jump\t// in\n    tag_68:\n      mload(0x40)\n      dup1\n      swap2\n      sub\n      swap1\n      return\n        /* \"contract/vaultswapcore.sol\":1184:1212  uint256 public totalBorrowed */\n    tag_10:\n      tag_69\n      tag_70\n      jump\t// in\n    tag_69:\n      mload(0x40)\n      tag_71\n      swap2\n      swap1\n      tag_52\n      jump\t// in\n    tag_71:\n      mload(0x40)\n      dup1\n      swap2\n      sub\n      swap1\n      return\n        /* \"@openzeppelin/contracts/security/Pausable.sol\":1615:1699  function paused() public view virtual returns (bool) {... */\n    tag_11:\n      tag_72\n      tag_73\n      jump\t// in\n    tag_72:\n      mload(0x40)\n      tag_74\n      swap2\n      swap1\n      tag_75\n      jump\t// in\n    tag_74:\n      mload(0x40)\n      dup1\n      swap2\n      sub\n      swap1\n      return\n        /* \"contract/vaultswapcore.sol\":9969:10178  function setInterestRate(uint256 newRate) external onlyOwner {... */\n    tag_12:\n      tag_76\n      0x04\n      dup1\n      calldatasize\n      sub\n      dup2\n      add\n      swap1\n      tag_77\n      swap2\n      swap1\n      tag_55\n      jump\t// in\n    tag_77:\n      tag_78\n      jump\t// in\n    tag_76:\n      stop\n        /* \"contract/vaultswapcore.sol\":8811:9109  function getMaxBorrowAmount(uint256 collateralAmount) public view returns (uint256) {... */\n    tag_13:\n      tag_79\n      0x04\n      dup1\n      calldatasize\n      sub\n      dup2\n      add\n      swap1\n      tag_80\n      swap2\n      swap1\n      tag_55\n      jump\t// in\n    tag_80:\n      tag_81\n      jump\t// in\n    tag_79:\n      mload(0x40)\n      tag_82\n      swap2\n      swap1\n      tag_52\n      jump\t// in\n    tag_82:\n      mload(0x40)\n      dup1\n      swap2\n      sub\n      swap1\n      return\n        /* \"contract/vaultswapcore.sol\":9245:9827  function getLoanDetails(uint256 loanId) external view returns (... */\n    tag_14:\n      tag_83\n      0x04\n      dup1\n      calldatasize\n      sub\n      dup2\n      add\n      swap1\n      tag_84\n      swap2\n      swap1\n      tag_55\n      jump\t// in\n    tag_84:\n      tag_85\n      jump\t// in\n    tag_83:\n      mload(0x40)\n      tag_86\n      swap8\n      swap7\n      swap6\n      swap5\n      swap4\n      swap3\n      swap2\n      swap1\n      tag_87\n      jump\t// in\n    tag_86:\n      mload(0x40)\n      dup1\n      swap2\n      sub\n      swap1\n      return\n        /* \"@openzeppelin/contracts/access/Ownable.sol\":2293:2394  function renounceOwnership() public virtual onlyOwner {... */\n    tag_15:\n      tag_88\n      tag_89\n      jump\t// in\n    tag_88:\n      stop\n        /* \"contract/vaultswapcore.sol\":809:847  AggregatorV3Interface public priceFeed */\n    tag_16:\n      tag_90\n      tag_91\n      jump\t// in\n    tag_90:\n      mload(0x40)\n      tag_92\n      swap2\n      swap1\n      tag_93\n      jump\t// in\n    tag_92:\n      mload(0x40)\n      dup1\n      swap2\n      sub\n      swap1\n      return\n        /* \"contract/vaultswapcore.sol\":10188:10249  function pause() external onlyOwner {... */\n    tag_17:\n      tag_94\n      tag_95\n      jump\t// in\n    tag_94:\n      stop\n        /* \"@openzeppelin/contracts/access/Ownable.sol\":1638:1723  function owner() public view virtual returns (address) {... */\n    tag_18:\n      tag_96\n      tag_97\n      jump\t// in\n    tag_96:\n      mload(0x40)\n      tag_98\n      swap2\n      swap1\n      tag_99\n      jump\t// in\n    tag_98:\n      mload(0x40)\n      dup1\n      swap2\n      sub\n      swap1\n      return\n        /* \"contract/vaultswapcore.sol\":2511:2736  function getLatestPrice() public view returns (uint256) {... */\n    tag_19:\n      tag_100\n      tag_101\n      jump\t// in\n    tag_100:\n      mload(0x40)\n      tag_102\n      swap2\n      swap1\n      tag_52\n      jump\t// in\n    tag_102:\n      mload(0x40)\n      dup1\n      swap2\n      sub\n      swap1\n      return\n        /* \"contract/vaultswapcore.sol\":751:773  IERC20 public vaultBTC */\n    tag_20:\n      tag_103\n      tag_104\n      jump\t// in\n    tag_103:\n      mload(0x40)\n      tag_105\n      swap2\n      swap1\n      tag_106\n      jump\t// in\n    tag_105:\n      mload(0x40)\n      dup1\n      swap2\n      sub\n      swap1\n      return\n        /* \"contract/vaultswapcore.sol\":925:976  uint256 public constant LIQUIDATION_THRESHOLD = 120 */\n    tag_21:\n      tag_107\n      tag_108\n      jump\t// in\n    tag_107:\n      mload(0x40)\n      tag_109\n      swap2\n      swap1\n      tag_52\n      jump\t// in\n    tag_109:\n      mload(0x40)\n      dup1\n      swap2\n      sub\n      swap1\n      return\n        /* \"contract/vaultswapcore.sol\":10334:10495  function emergencyWithdraw(address token, uint256 amount) external onlyOwner {... */\n    tag_22:\n      tag_110\n      0x04\n      dup1\n      calldatasize\n      sub\n      dup2\n      add\n      swap1\n      tag_111\n      swap2\n      swap1\n      tag_112\n      jump\t// in\n    tag_111:\n      tag_113\n      jump\t// in\n    tag_110:\n      stop\n        /* \"contract/vaultswapcore.sol\":997:1045  uint256 public constant LIQUIDATION_PENALTY = 10 */\n    tag_23:\n      tag_114\n      tag_115\n      jump\t// in\n    tag_114:\n      mload(0x40)\n      tag_116\n      swap2\n      swap1\n      tag_52\n      jump\t// in\n    tag_116:\n      mload(0x40)\n      dup1\n      swap2\n      sub\n      swap1\n      return\n        /* \"contract/vaultswapcore.sol\":1254:1282  uint256 public loanIdCounter */\n    tag_24:\n      tag_117\n      tag_118\n      jump\t// in\n    tag_117:\n      mload(0x40)\n      tag_119\n      swap2\n      swap1\n      tag_52\n      jump\t// in\n    tag_119:\n      mload(0x40)\n      dup1\n      swap2\n      sub\n      swap1\n      return\n        /* \"contract/vaultswapcore.sol\":8364:8801  function calculateInterest(uint256 loanId) public view returns (uint256) {... */\n    tag_25:\n      tag_120\n      0x04\n      dup1\n      calldatasize\n      sub\n      dup2\n      add\n      swap1\n      tag_121\n      swap2\n      swap1\n      tag_55\n      jump\t// in\n    tag_121:\n      tag_122\n      jump\t// in\n    tag_120:\n      mload(0x40)\n      tag_123\n      swap2\n      swap1\n      tag_52\n      jump\t// in\n    tag_123:\n      mload(0x40)\n      dup1\n      swap2\n      sub\n      swap1\n      return\n        /* \"contract/vaultswapcore.sol\":7046:7669  function addCollateral(uint256 loanId, uint256 amount) external nonReentrant {... */\n    tag_26:\n      tag_124\n      0x04\n      dup1\n      calldatasize\n      sub\n      dup2\n      add\n      swap1\n      tag_125\n      swap2\n      swap1\n      tag_49\n      jump\t// in\n    tag_125:\n      tag_126\n      jump\t// in\n    tag_124:\n      stop\n        /* \"contract/vaultswapcore.sol\":1113:1150  uint256 public baseInterestRate = 550 */\n    tag_27:\n      tag_127\n      tag_128\n      jump\t// in\n    tag_127:\n      mload(0x40)\n      tag_129\n      swap2\n      swap1\n      tag_52\n      jump\t// in\n    tag_129:\n      mload(0x40)\n      dup1\n      swap2\n      sub\n      swap1\n      return\n        /* \"contract/vaultswapcore.sol\":1336:1382  mapping(address => uint256[]) public userLoans */\n    tag_28:\n      tag_130\n      0x04\n      dup1\n      calldatasize\n      sub\n      dup2\n      add\n      swap1\n      tag_131\n      swap2\n      swap1\n      tag_112\n      jump\t// in\n    tag_131:\n      tag_132\n      jump\t// in\n    tag_130:\n      mload(0x40)\n      tag_133\n      swap2\n      swap1\n      tag_52\n      jump\t// in\n    tag_133:\n      mload(0x40)\n      dup1\n      swap2\n      sub\n      swap1\n      return\n        /* \"contract/vaultswapcore.sol\":858:904  uint256 public constant COLLATERAL_RATIO = 150 */\n    tag_29:\n      tag_134\n      tag_135\n      jump\t// in\n    tag_134:\n      mload(0x40)\n      tag_136\n      swap2\n      swap1\n      tag_52\n      jump\t// in\n    tag_136:\n      mload(0x40)\n      dup1\n      swap2\n      sub\n      swap1\n      return\n        /* \"contract/vaultswapcore.sol\":1293:1330  mapping(uint256 => Loan) public loans */\n    tag_30:\n      tag_137\n      0x04\n      dup1\n      calldatasize\n      sub\n      dup2\n      add\n      swap1\n      tag_138\n      swap2\n      swap1\n      tag_55\n      jump\t// in\n    tag_138:\n      tag_139\n      jump\t// in\n    tag_137:\n      mload(0x40)\n      tag_140\n      swap9\n      swap8\n      swap7\n      swap6\n      swap5\n      swap4\n      swap3\n      swap2\n      swap1\n      tag_141\n      jump\t// in\n    tag_140:\n      mload(0x40)\n      dup1\n      swap2\n      sub\n      swap1\n      return\n        /* \"contract/vaultswapcore.sol\":1058:1102  uint256 public constant BASIS_POINTS = 10000 */\n    tag_31:\n      tag_142\n      tag_143\n      jump\t// in\n    tag_142:\n      mload(0x40)\n      tag_144\n      swap2\n      swap1\n      tag_52\n      jump\t// in\n    tag_144:\n      mload(0x40)\n      dup1\n      swap2\n      sub\n      swap1\n      return\n        /* \"contract/vaultswapcore.sol\":779:803  IERC20 public stablecoin */\n    tag_32:\n      tag_145\n      tag_146\n      jump\t// in\n    tag_145:\n      mload(0x40)\n      tag_147\n      swap2\n      swap1\n      tag_106\n      jump\t// in\n    tag_147:\n      mload(0x40)\n      dup1\n      swap2\n      sub\n      swap1\n      return\n        /* \"@openzeppelin/contracts/access/Ownable.sol\":2543:2758  function transferOwnership(address newOwner) public virtual onlyOwner {... */\n    tag_33:\n      tag_148\n      0x04\n      dup1\n      calldatasize\n      sub\n      dup2\n      add\n      swap1\n      tag_149\n      swap2\n      swap1\n      tag_43\n      jump\t// in\n    tag_149:\n      tag_150\n      jump\t// in\n    tag_148:\n      stop\n        /* \"contract/vaultswapcore.sol\":9119:9235  function getUserLoans(address user) external view returns (uint256[] memory) {... */\n    tag_44:\n        /* \"contract/vaultswapcore.sol\":9178:9194  uint256[] memory */\n      0x60\n        /* \"contract/vaultswapcore.sol\":9213:9222  userLoans */\n      0x0a\n        /* \"contract/vaultswapcore.sol\":9213:9228  userLoans[user] */\n      0x00\n        /* \"contract/vaultswapcore.sol\":9223:9227  user */\n      dup4\n        /* \"contract/vaultswapcore.sol\":9213:9228  userLoans[user] */\n      0xffffffffffffffffffffffffffffffffffffffff\n      and\n      0xffffffffffffffffffffffffffffffffffffffff\n      and\n      dup2\n      mstore\n      0x20\n      add\n      swap1\n      dup2\n      mstore\n      0x20\n      add\n      0x00\n      keccak256\n        /* \"contract/vaultswapcore.sol\":9206:9228  return userLoans[user] */\n      dup1\n      sload\n      dup1\n      0x20\n      mul\n      0x20\n      add\n      mload(0x40)\n      swap1\n      dup2\n      add\n      0x40\n      mstore\n      dup1\n      swap3\n      swap2\n      swap1\n      dup2\n      dup2\n      mstore\n      0x20\n      add\n      dup3\n      dup1\n      sload\n      dup1\n      iszero\n      tag_152\n      jumpi\n      0x20\n      mul\n      dup3\n      add\n      swap2\n      swap1\n      0x00\n      mstore\n      keccak256(0x00, 0x20)\n      swap1\n    tag_153:\n      dup2\n      sload\n      dup2\n      mstore\n      0x20\n      add\n      swap1\n      0x01\n      add\n      swap1\n      dup1\n      dup4\n      gt\n      tag_153\n      jumpi\n    tag_152:\n      pop\n      pop\n      pop\n      pop\n      pop\n      swap1\n      pop\n        /* \"contract/vaultswapcore.sol\":9119:9235  function getUserLoans(address user) external view returns (uint256[] memory) {... */\n      swap2\n      swap1\n      pop\n      jump\t// out\n        /* \"contract/vaultswapcore.sol\":2877:4720  function borrow(... */\n    tag_50:\n        /* \"contract/vaultswapcore.sol\":3008:3015  uint256 */\n      0x00\n        /* \"@openzeppelin/contracts/security/ReentrancyGuard.sol\":2261:2282  _nonReentrantBefore() */\n      tag_155\n        /* \"@openzeppelin/contracts/security/ReentrancyGuard.sol\":2261:2280  _nonReentrantBefore */\n      tag_156\n        /* \"@openzeppelin/contracts/security/ReentrancyGuard.sol\":2261:2282  _nonReentrantBefore() */\n      jump\t// in\n    tag_155:\n        /* \"@openzeppelin/contracts/security/Pausable.sol\":1239:1258  _requireNotPaused() */\n      tag_158\n        /* \"@openzeppelin/contracts/security/Pausable.sol\":1239:1256  _requireNotPaused */\n      tag_159\n        /* \"@openzeppelin/contracts/security/Pausable.sol\":1239:1258  _requireNotPaused() */\n      jump\t// in\n    tag_158:\n        /* \"contract/vaultswapcore.sol\":3054:3055  0 */\n      0x00\n        /* \"contract/vaultswapcore.sol\":3035:3051  collateralAmount */\n      dup4\n        /* \"contract/vaultswapcore.sol\":3035:3055  collateralAmount > 0 */\n      gt\n        /* \"contract/vaultswapcore.sol\":3027:3082  require(collateralAmount > 0, \"Collateral must be > 0\") */\n      tag_161\n      jumpi\n      mload(0x40)\n      0x08c379a000000000000000000000000000000000000000000000000000000000\n      dup2\n      mstore\n      0x04\n      add\n      tag_162\n      swap1\n      tag_163\n      jump\t// in\n    tag_162:\n      mload(0x40)\n      dup1\n      swap2\n      sub\n      swap1\n      revert\n    tag_161:\n        /* \"contract/vaultswapcore.sol\":3115:3116  0 */\n      0x00\n        /* \"contract/vaultswapcore.sol\":3100:3112  borrowAmount */\n      dup3\n        /* \"contract/vaultswapcore.sol\":3100:3116  borrowAmount > 0 */\n      gt\n        /* \"contract/vaultswapcore.sol\":3092:3146  require(borrowAmount > 0, \"Borrow amount must be > 0\") */\n      tag_164\n      jumpi\n      mload(0x40)\n      0x08c379a000000000000000000000000000000000000000000000000000000000\n      dup2\n      mstore\n      0x04\n      add\n      tag_165\n      swap1\n      tag_166\n      jump\t// in\n    tag_165:\n      mload(0x40)\n      dup1\n      swap2\n      sub\n      swap1\n      revert\n    tag_164:\n        /* \"contract/vaultswapcore.sol\":3265:3281  collateralAmount */\n      dup3\n        /* \"contract/vaultswapcore.sol\":3231:3239  vaultBTC */\n      0x02\n      0x00\n      swap1\n      sload\n      swap1\n      0x0100\n      exp\n      swap1\n      div\n      0xffffffffffffffffffffffffffffffffffffffff\n      and\n        /* \"contract/vaultswapcore.sol\":3231:3249  vaultBTC.balanceOf */\n      0xffffffffffffffffffffffffffffffffffffffff\n      and\n      0x70a08231\n        /* \"contract/vaultswapcore.sol\":3250:3260  msg.sender */\n      caller\n        /* \"contract/vaultswapcore.sol\":3231:3261  vaultBTC.balanceOf(msg.sender) */\n      mload(0x40)\n      dup3\n      0xffffffff\n      and\n      0xe0\n      shl\n      dup2\n      mstore\n      0x04\n      add\n      tag_167\n      swap2\n      swap1\n      tag_99\n      jump\t// in\n    tag_167:\n      0x20\n      mload(0x40)\n      dup1\n      dup4\n      sub\n      dup2\n      dup7\n      gas\n      staticcall\n      iszero\n      dup1\n      iszero\n      tag_169\n      jumpi\n      returndatacopy(0x00, 0x00, returndatasize)\n      revert(0x00, returndatasize)\n    tag_169:\n      pop\n      pop\n      pop\n      pop\n      mload(0x40)\n      returndatasize\n      not(0x1f)\n      0x1f\n      dup3\n      add\n      and\n      dup3\n      add\n      dup1\n      0x40\n      mstore\n      pop\n      dup2\n      add\n      swap1\n      tag_170\n      swap2\n      swap1\n      tag_171\n      jump\t// in\n    tag_170:\n        /* \"contract/vaultswapcore.sol\":3231:3281  vaultBTC.balanceOf(msg.sender) >= collateralAmount */\n      lt\n      iszero\n        /* \"contract/vaultswapcore.sol\":3210:3336  require(... */\n      tag_172\n      jumpi\n      mload(0x40)\n      0x08c379a000000000000000000000000000000000000000000000000000000000\n      dup2\n      mstore\n      0x04\n      add\n      tag_173\n      swap1\n      tag_174\n      jump\t// in\n    tag_173:\n      mload(0x40)\n      dup1\n      swap2\n      sub\n      swap1\n      revert\n    tag_172:\n        /* \"contract/vaultswapcore.sol\":3355:3372  uint256 maxBorrow */\n      0x00\n        /* \"contract/vaultswapcore.sol\":3375:3411  getMaxBorrowAmount(collateralAmount) */\n      tag_175\n        /* \"contract/vaultswapcore.sol\":3394:3410  collateralAmount */\n      dup5\n        /* \"contract/vaultswapcore.sol\":3375:3393  getMaxBorrowAmount */\n      tag_81\n        /* \"contract/vaultswapcore.sol\":3375:3411  getMaxBorrowAmount(collateralAmount) */\n      jump\t// in\n    tag_175:\n        /* \"contract/vaultswapcore.sol\":3355:3411  uint256 maxBorrow = getMaxBorrowAmount(collateralAmount) */\n      swap1\n      pop\n        /* \"contract/vaultswapcore.sol\":3445:3454  maxBorrow */\n      dup1\n        /* \"contract/vaultswapcore.sol\":3429:3441  borrowAmount */\n      dup4\n        /* \"contract/vaultswapcore.sol\":3429:3454  borrowAmount <= maxBorrow */\n      gt\n      iszero\n        /* \"contract/vaultswapcore.sol\":3421:3482  require(borrowAmount <= maxBorrow, \"Insufficient collateral\") */\n      tag_176\n      jumpi\n      mload(0x40)\n      0x08c379a000000000000000000000000000000000000000000000000000000000\n      dup2\n      mstore\n      0x04\n      add\n      tag_177\n      swap1\n      tag_178\n      jump\t// in\n    tag_177:\n      mload(0x40)\n      dup1\n      swap2\n      sub\n      swap1\n      revert\n    tag_176:\n        /* \"contract/vaultswapcore.sol\":3561:3573  borrowAmount */\n      dup3\n        /* \"contract/vaultswapcore.sol\":3522:3532  stablecoin */\n      0x03\n      0x00\n      swap1\n      sload\n      swap1\n      0x0100\n      exp\n      swap1\n      div\n      0xffffffffffffffffffffffffffffffffffffffff\n      and\n        /* \"contract/vaultswapcore.sol\":3522:3542  stablecoin.balanceOf */\n      0xffffffffffffffffffffffffffffffffffffffff\n      and\n      0x70a08231\n        /* \"contract/vaultswapcore.sol\":3551:3555  this */\n      address\n        /* \"contract/vaultswapcore.sol\":3522:3557  stablecoin.balanceOf(address(this)) */\n      mload(0x40)\n      dup3\n      0xffffffff\n      and\n      0xe0\n      shl\n      dup2\n      mstore\n      0x04\n      add\n      tag_179\n      swap2\n      swap1\n      tag_99\n      jump\t// in\n    tag_179:\n      0x20\n      mload(0x40)\n      dup1\n      dup4\n      sub\n      dup2\n      dup7\n      gas\n      staticcall\n      iszero\n      dup1\n      iszero\n      tag_181\n      jumpi\n      returndatacopy(0x00, 0x00, returndatasize)\n      revert(0x00, returndatasize)\n    tag_181:\n      pop\n      pop\n      pop\n      pop\n      mload(0x40)\n      returndatasize\n      not(0x1f)\n      0x1f\n      dup3\n      add\n      and\n      dup3\n      add\n      dup1\n      0x40\n      mstore\n      pop\n      dup2\n      add\n      swap1\n      tag_182\n      swap2\n      swap1\n      tag_171\n      jump\t// in\n    tag_182:\n        /* \"contract/vaultswapcore.sol\":3522:3573  stablecoin.balanceOf(address(this)) >= borrowAmount */\n      lt\n      iszero\n        /* \"contract/vaultswapcore.sol\":3501:3621  require(... */\n      tag_183\n      jumpi\n      mload(0x40)\n      0x08c379a000000000000000000000000000000000000000000000000000000000\n      dup2\n      mstore\n      0x04\n      add\n      tag_184\n      swap1\n      tag_185\n      jump\t// in\n    tag_184:\n      mload(0x40)\n      dup1\n      swap2\n      sub\n      swap1\n      revert\n    tag_183:\n        /* \"contract/vaultswapcore.sol\":3702:3710  vaultBTC */\n      0x02\n      0x00\n      swap1\n      sload\n      swap1\n      0x0100\n      exp\n      swap1\n      div\n      0xffffffffffffffffffffffffffffffffffffffff\n      and\n        /* \"contract/vaultswapcore.sol\":3702:3723  vaultBTC.transferFrom */\n      0xffffffffffffffffffffffffffffffffffffffff\n      and\n      0x23b872dd\n        /* \"contract/vaultswapcore.sol\":3724:3734  msg.sender */\n      caller\n        /* \"contract/vaultswapcore.sol\":3744:3748  this */\n      address\n        /* \"contract/vaultswapcore.sol\":3751:3767  collateralAmount */\n      dup8\n        /* \"contract/vaultswapcore.sol\":3702:3768  vaultBTC.transferFrom(msg.sender, address(this), collateralAmount) */\n      mload(0x40)\n      dup5\n      0xffffffff\n      and\n      0xe0\n      shl\n      dup2\n      mstore\n      0x04\n      add\n      tag_186\n      swap4\n      swap3\n      swap2\n      swap1\n      tag_187\n      jump\t// in\n    tag_186:\n      0x20\n      mload(0x40)\n      dup1\n      dup4\n      sub\n      dup2\n      0x00\n      dup8\n      gas\n      call\n      iszero\n      dup1\n      iszero\n      tag_189\n      jumpi\n      returndatacopy(0x00, 0x00, returndatasize)\n      revert(0x00, returndatasize)\n    tag_189:\n      pop\n      pop\n      pop\n      pop\n      mload(0x40)\n      returndatasize\n      not(0x1f)\n      0x1f\n      dup3\n      add\n      and\n      dup3\n      add\n      dup1\n      0x40\n      mstore\n      pop\n      dup2\n      add\n      swap1\n      tag_190\n      swap2\n      swap1\n      tag_191\n      jump\t// in\n    tag_190:\n        /* \"contract/vaultswapcore.sol\":3681:3820  require(... */\n      tag_192\n      jumpi\n      mload(0x40)\n      0x08c379a000000000000000000000000000000000000000000000000000000000\n      dup2\n      mstore\n      0x04\n      add\n      tag_193\n      swap1\n      tag_194\n      jump\t// in\n    tag_193:\n      mload(0x40)\n      dup1\n      swap2\n      sub\n      swap1\n      revert\n    tag_192:\n        /* \"contract/vaultswapcore.sol\":3862:3875  loanIdCounter */\n      0x08\n      0x00\n        /* \"contract/vaultswapcore.sol\":3862:3877  loanIdCounter++ */\n      dup2\n      sload\n      dup1\n      swap3\n      swap2\n      swap1\n      tag_195\n      swap1\n      tag_196\n      jump\t// in\n    tag_195:\n      swap2\n      swap1\n      pop\n      sstore\n      pop\n        /* \"contract/vaultswapcore.sol\":3887:3901  uint256 loanId */\n      0x00\n        /* \"contract/vaultswapcore.sol\":3904:3917  loanIdCounter */\n      sload(0x08)\n        /* \"contract/vaultswapcore.sol\":3887:3917  uint256 loanId = loanIdCounter */\n      swap1\n      pop\n        /* \"contract/vaultswapcore.sol\":3952:4281  Loan({... */\n      mload(0x40)\n      dup1\n      0x0100\n      add\n      0x40\n      mstore\n      dup1\n        /* \"contract/vaultswapcore.sol\":3979:3985  loanId */\n      dup3\n        /* \"contract/vaultswapcore.sol\":3952:4281  Loan({... */\n      dup2\n      mstore\n      0x20\n      add\n        /* \"contract/vaultswapcore.sol\":4009:4019  msg.sender */\n      caller\n        /* \"contract/vaultswapcore.sol\":3952:4281  Loan({... */\n      0xffffffffffffffffffffffffffffffffffffffff\n      and\n      dup2\n      mstore\n      0x20\n      add\n        /* \"contract/vaultswapcore.sol\":4051:4067  collateralAmount */\n      dup7\n        /* \"contract/vaultswapcore.sol\":3952:4281  Loan({... */\n      dup2\n      mstore\n      0x20\n      add\n        /* \"contract/vaultswapcore.sol\":4097:4109  borrowAmount */\n      dup6\n        /* \"contract/vaultswapcore.sol\":3952:4281  Loan({... */\n      dup2\n      mstore\n      0x20\n      add\n        /* \"contract/vaultswapcore.sol\":4137:4153  baseInterestRate */\n      sload(0x05)\n        /* \"contract/vaultswapcore.sol\":3952:4281  Loan({... */\n      dup2\n      mstore\n      0x20\n      add\n        /* \"contract/vaultswapcore.sol\":4178:4193  block.timestamp */\n      timestamp\n        /* \"contract/vaultswapcore.sol\":3952:4281  Loan({... */\n      dup2\n      mstore\n      0x20\n      add\n        /* \"contract/vaultswapcore.sol\":4227:4242  block.timestamp */\n      timestamp\n        /* \"contract/vaultswapcore.sol\":3952:4281  Loan({... */\n      dup2\n      mstore\n      0x20\n      add\n        /* \"contract/vaultswapcore.sol\":4266:4270  true */\n      0x01\n        /* \"contract/vaultswapcore.sol\":3952:4281  Loan({... */\n      iszero\n      iszero\n      dup2\n      mstore\n      pop\n        /* \"contract/vaultswapcore.sol\":3936:3941  loans */\n      0x09\n        /* \"contract/vaultswapcore.sol\":3936:3949  loans[loanId] */\n      0x00\n        /* \"contract/vaultswapcore.sol\":3942:3948  loanId */\n      dup4\n        /* \"contract/vaultswapcore.sol\":3936:3949  loans[loanId] */\n      dup2\n      mstore\n      0x20\n      add\n      swap1\n      dup2\n      mstore\n      0x20\n      add\n      0x00\n      keccak256\n        /* \"contract/vaultswapcore.sol\":3936:4281  loans[loanId] = Loan({... */\n      0x00\n      dup3\n      add\n      mload\n      dup2\n      0x00\n      add\n      sstore\n      0x20\n      dup3\n      add\n      mload\n      dup2\n      0x01\n      add\n      exp(0x0100, 0x00)\n      dup2\n      sload\n      dup2\n      0xffffffffffffffffffffffffffffffffffffffff\n      mul\n      not\n      and\n      swap1\n      dup4\n      0xffffffffffffffffffffffffffffffffffffffff\n      and\n      mul\n      or\n      swap1\n      sstore\n      pop\n      0x40\n      dup3\n      add\n      mload\n      dup2\n      0x02\n      add\n      sstore\n      0x60\n      dup3\n      add\n      mload\n      dup2\n      0x03\n      add\n      sstore\n      0x80\n      dup3\n      add\n      mload\n      dup2\n      0x04\n      add\n      sstore\n      0xa0\n      dup3\n      add\n      mload\n      dup2\n      0x05\n      add\n      sstore\n      0xc0\n      dup3\n      add\n      mload\n      dup2\n      0x06\n      add\n      sstore\n      0xe0\n      dup3\n      add\n      mload\n      dup2\n      0x07\n      add\n      exp(0x0100, 0x00)\n      dup2\n      sload\n      dup2\n      0xff\n      mul\n      not\n      and\n      swap1\n      dup4\n      iszero\n      iszero\n      mul\n      or\n      swap1\n      sstore\n      pop\n      swap1\n      pop\n      pop\n        /* \"contract/vaultswapcore.sol\":4300:4309  userLoans */\n      0x0a\n        /* \"contract/vaultswapcore.sol\":4300:4321  userLoans[msg.sender] */\n      0x00\n        /* \"contract/vaultswapcore.sol\":4310:4320  msg.sender */\n      caller\n        /* \"contract/vaultswapcore.sol\":4300:4321  userLoans[msg.sender] */\n      0xffffffffffffffffffffffffffffffffffffffff\n      and\n      0xffffffffffffffffffffffffffffffffffffffff\n      and\n      dup2\n      mstore\n      0x20\n      add\n      swap1\n      dup2\n      mstore\n      0x20\n      add\n      0x00\n      keccak256\n        /* \"contract/vaultswapcore.sol\":4327:4333  loanId */\n      dup2\n        /* \"contract/vaultswapcore.sol\":4300:4334  userLoans[msg.sender].push(loanId) */\n      swap1\n      dup1\n      0x01\n      dup2\n      sload\n      add\n      dup1\n      dup3\n      sstore\n      dup1\n      swap2\n      pop\n      pop\n      0x01\n      swap1\n      sub\n      swap1\n      0x00\n      mstore\n      keccak256(0x00, 0x20)\n      add\n      0x00\n      swap1\n      swap2\n      swap1\n      swap2\n      swap1\n      swap2\n      pop\n      sstore\n        /* \"contract/vaultswapcore.sol\":4361:4373  borrowAmount */\n      dup4\n        /* \"contract/vaultswapcore.sol\":4344:4357  totalBorrowed */\n      0x06\n      0x00\n        /* \"contract/vaultswapcore.sol\":4344:4373  totalBorrowed += borrowAmount */\n      dup3\n      dup3\n      sload\n      tag_198\n      swap2\n      swap1\n      tag_199\n      jump\t// in\n    tag_198:\n      swap3\n      pop\n      pop\n      dup2\n      swap1\n      sstore\n      pop\n        /* \"contract/vaultswapcore.sol\":4402:4418  collateralAmount */\n      dup5\n        /* \"contract/vaultswapcore.sol\":4383:4398  totalCollateral */\n      0x07\n      0x00\n        /* \"contract/vaultswapcore.sol\":4383:4418  totalCollateral += collateralAmount */\n      dup3\n      dup3\n      sload\n      tag_200\n      swap2\n      swap1\n      tag_199\n      jump\t// in\n    tag_200:\n      swap3\n      pop\n      pop\n      dup2\n      swap1\n      sstore\n      pop\n        /* \"contract/vaultswapcore.sol\":4501:4511  stablecoin */\n      0x03\n      0x00\n      swap1\n      sload\n      swap1\n      0x0100\n      exp\n      swap1\n      div\n      0xffffffffffffffffffffffffffffffffffffffff\n      and\n        /* \"contract/vaultswapcore.sol\":4501:4520  stablecoin.transfer */\n      0xffffffffffffffffffffffffffffffffffffffff\n      and\n      0xa9059cbb\n        /* \"contract/vaultswapcore.sol\":4521:4531  msg.sender */\n      caller\n        /* \"contract/vaultswapcore.sol\":4533:4545  borrowAmount */\n      dup7\n        /* \"contract/vaultswapcore.sol\":4501:4546  stablecoin.transfer(msg.sender, borrowAmount) */\n      mload(0x40)\n      dup4\n      0xffffffff\n      and\n      0xe0\n      shl\n      dup2\n      mstore\n      0x04\n      add\n      tag_201\n      swap3\n      swap2\n      swap1\n      tag_202\n      jump\t// in\n    tag_201:\n      0x20\n      mload(0x40)\n      dup1\n      dup4\n      sub\n      dup2\n      0x00\n      dup8\n      gas\n      call\n      iszero\n      dup1\n      iszero\n      tag_204\n      jumpi\n      returndatacopy(0x00, 0x00, returndatasize)\n      revert(0x00, returndatasize)\n    tag_204:\n      pop\n      pop\n      pop\n      pop\n      mload(0x40)\n      returndatasize\n      not(0x1f)\n      0x1f\n      dup3\n      add\n      and\n      dup3\n      add\n      dup1\n      0x40\n      mstore\n      pop\n      dup2\n      add\n      swap1\n      tag_205\n      swap2\n      swap1\n      tag_191\n      jump\t// in\n    tag_205:\n        /* \"contract/vaultswapcore.sol\":4480:4594  require(... */\n      tag_206\n      jumpi\n      mload(0x40)\n      0x08c379a000000000000000000000000000000000000000000000000000000000\n      dup2\n      mstore\n      0x04\n      add\n      tag_207\n      swap1\n      tag_208\n      jump\t// in\n    tag_207:\n      mload(0x40)\n      dup1\n      swap2\n      sub\n      swap1\n      revert\n    tag_206:\n        /* \"contract/vaultswapcore.sol\":4638:4648  msg.sender */\n      caller\n        /* \"contract/vaultswapcore.sol\":4618:4681  LoanCreated(loanId, msg.sender, collateralAmount, borrowAmount) */\n      0xffffffffffffffffffffffffffffffffffffffff\n      and\n        /* \"contract/vaultswapcore.sol\":4630:4636  loanId */\n      dup2\n        /* \"contract/vaultswapcore.sol\":4618:4681  LoanCreated(loanId, msg.sender, collateralAmount, borrowAmount) */\n      0x3373919ad665425d2cddb4072830e5935b6ee308440fa99b23383648da473bc0\n        /* \"contract/vaultswapcore.sol\":4650:4666  collateralAmount */\n      dup8\n        /* \"contract/vaultswapcore.sol\":4668:4680  borrowAmount */\n      dup8\n        /* \"contract/vaultswapcore.sol\":4618:4681  LoanCreated(loanId, msg.sender, collateralAmount, borrowAmount) */\n      mload(0x40)\n      tag_209\n      swap3\n      swap2\n      swap1\n      tag_210\n      jump\t// in\n    tag_209:\n      mload(0x40)\n      dup1\n      swap2\n      sub\n      swap1\n      log3\n        /* \"contract/vaultswapcore.sol\":4707:4713  loanId */\n      dup1\n        /* \"contract/vaultswapcore.sol\":4700:4713  return loanId */\n      swap3\n      pop\n      pop\n      pop\n        /* \"@openzeppelin/contracts/security/ReentrancyGuard.sol\":2303:2323  _nonReentrantAfter() */\n      tag_211\n        /* \"@openzeppelin/contracts/security/ReentrancyGuard.sol\":2303:2321  _nonReentrantAfter */\n      tag_212\n        /* \"@openzeppelin/contracts/security/ReentrancyGuard.sol\":2303:2323  _nonReentrantAfter() */\n      jump\t// in\n    tag_211:\n        /* \"contract/vaultswapcore.sol\":2877:4720  function borrow(... */\n      swap3\n      swap2\n      pop\n      pop\n      jump\t// out\n        /* \"contract/vaultswapcore.sol\":7810:8354  function getHealthFactor(uint256 loanId) public view returns (uint256) {... */\n    tag_56:\n        /* \"contract/vaultswapcore.sol\":7872:7879  uint256 */\n      0x00\n        /* \"contract/vaultswapcore.sol\":7891:7907  Loan memory loan */\n      0x00\n        /* \"contract/vaultswapcore.sol\":7910:7915  loans */\n      0x09\n        /* \"contract/vaultswapcore.sol\":7910:7923  loans[loanId] */\n      0x00\n        /* \"contract/vaultswapcore.sol\":7916:7922  loanId */\n      dup5\n        /* \"contract/vaultswapcore.sol\":7910:7923  loans[loanId] */\n      dup2\n      mstore\n      0x20\n      add\n      swap1\n      dup2\n      mstore\n      0x20\n      add\n      0x00\n      keccak256\n        /* \"contract/vaultswapcore.sol\":7891:7923  Loan memory loan = loans[loanId] */\n      mload(0x40)\n      dup1\n      0x0100\n      add\n      0x40\n      mstore\n      swap1\n      dup2\n      0x00\n      dup3\n      add\n      sload\n      dup2\n      mstore\n      0x20\n      add\n      0x01\n      dup3\n      add\n      0x00\n      swap1\n      sload\n      swap1\n      0x0100\n      exp\n      swap1\n      div\n      0xffffffffffffffffffffffffffffffffffffffff\n      and\n      0xffffffffffffffffffffffffffffffffffffffff\n      and\n      0xffffffffffffffffffffffffffffffffffffffff\n      and\n      dup2\n      mstore\n      0x20\n      add\n      0x02\n      dup3\n      add\n      sload\n      dup2\n      mstore\n      0x20\n      add\n      0x03\n      dup3\n      add\n      sload\n      dup2\n      mstore\n      0x20\n      add\n      0x04\n      dup3\n      add\n      sload\n      dup2\n      mstore\n      0x20\n      add\n      0x05\n      dup3\n      add\n      sload\n      dup2\n      mstore\n      0x20\n      add\n      0x06\n      dup3\n      add\n      sload\n      dup2\n      mstore\n      0x20\n      add\n      0x07\n      dup3\n      add\n      0x00\n      swap1\n      sload\n      swap1\n      0x0100\n      exp\n      swap1\n      div\n      0xff\n      and\n      iszero\n      iszero\n      iszero\n      iszero\n      dup2\n      mstore\n      pop\n      pop\n      swap1\n      pop\n        /* \"contract/vaultswapcore.sol\":7938:7942  loan */\n      dup1\n        /* \"contract/vaultswapcore.sol\":7938:7951  loan.isActive */\n      0xe0\n      add\n      mload\n        /* \"contract/vaultswapcore.sol\":7933:7961  if (!loan.isActive) return 0 */\n      tag_214\n      jumpi\n        /* \"contract/vaultswapcore.sol\":7960:7961  0 */\n      0x00\n        /* \"contract/vaultswapcore.sol\":7953:7961  return 0 */\n      swap2\n      pop\n      pop\n      jump(tag_213)\n        /* \"contract/vaultswapcore.sol\":7933:7961  if (!loan.isActive) return 0 */\n    tag_214:\n        /* \"contract/vaultswapcore.sol\":7980:7996  uint256 btcPrice */\n      0x00\n        /* \"contract/vaultswapcore.sol\":7999:8015  getLatestPrice() */\n      tag_215\n        /* \"contract/vaultswapcore.sol\":7999:8013  getLatestPrice */\n      tag_101\n        /* \"contract/vaultswapcore.sol\":7999:8015  getLatestPrice() */\n      jump\t// in\n    tag_215:\n        /* \"contract/vaultswapcore.sol\":7980:8015  uint256 btcPrice = getLatestPrice() */\n      swap1\n      pop\n        /* \"contract/vaultswapcore.sol\":8026:8049  uint256 collateralValue */\n      0x00\n        /* \"contract/vaultswapcore.sol\":8102:8111  priceFeed */\n      0x04\n      0x00\n      swap1\n      sload\n      swap1\n      0x0100\n      exp\n      swap1\n      div\n      0xffffffffffffffffffffffffffffffffffffffff\n      and\n        /* \"contract/vaultswapcore.sol\":8102:8120  priceFeed.decimals */\n      0xffffffffffffffffffffffffffffffffffffffff\n      and\n      0x313ce567\n        /* \"contract/vaultswapcore.sol\":8102:8122  priceFeed.decimals() */\n      mload(0x40)\n      dup2\n      0xffffffff\n      and\n      0xe0\n      shl\n      dup2\n      mstore\n      0x04\n      add\n      0x20\n      mload(0x40)\n      dup1\n      dup4\n      sub\n      dup2\n      dup7\n      gas\n      staticcall\n      iszero\n      dup1\n      iszero\n      tag_217\n      jumpi\n      returndatacopy(0x00, 0x00, returndatasize)\n      revert(0x00, returndatasize)\n    tag_217:\n      pop\n      pop\n      pop\n      pop\n      mload(0x40)\n      returndatasize\n      not(0x1f)\n      0x1f\n      dup3\n      add\n      and\n      dup3\n      add\n      dup1\n      0x40\n      mstore\n      pop\n      dup2\n      add\n      swap1\n      tag_218\n      swap2\n      swap1\n      tag_219\n      jump\t// in\n    tag_218:\n        /* \"contract/vaultswapcore.sol\":8094:8123  uint256(priceFeed.decimals()) */\n      0xff\n      and\n        /* \"contract/vaultswapcore.sol\":8090:8092  10 */\n      0x0a\n        /* \"contract/vaultswapcore.sol\":8090:8123  10**uint256(priceFeed.decimals()) */\n      tag_220\n      swap2\n      swap1\n      tag_221\n      jump\t// in\n    tag_220:\n        /* \"contract/vaultswapcore.sol\":8077:8085  btcPrice */\n      dup3\n        /* \"contract/vaultswapcore.sol\":8053:8057  loan */\n      dup5\n        /* \"contract/vaultswapcore.sol\":8053:8074  loan.collateralAmount */\n      0x40\n      add\n      mload\n        /* \"contract/vaultswapcore.sol\":8053:8085  loan.collateralAmount * btcPrice */\n      tag_222\n      swap2\n      swap1\n      tag_223\n      jump\t// in\n    tag_222:\n        /* \"contract/vaultswapcore.sol\":8052:8124  (loan.collateralAmount * btcPrice) / (10**uint256(priceFeed.decimals())) */\n      tag_224\n      swap2\n      swap1\n      tag_225\n      jump\t// in\n    tag_224:\n        /* \"contract/vaultswapcore.sol\":8026:8124  uint256 collateralValue = (loan.collateralAmount * btcPrice) / (10**uint256(priceFeed.decimals())) */\n      swap1\n      pop\n        /* \"contract/vaultswapcore.sol\":8135:8159  uint256 debtWithInterest */\n      0x00\n        /* \"contract/vaultswapcore.sol\":8184:8209  calculateInterest(loanId) */\n      tag_226\n        /* \"contract/vaultswapcore.sol\":8202:8208  loanId */\n      dup7\n        /* \"contract/vaultswapcore.sol\":8184:8201  calculateInterest */\n      tag_122\n        /* \"contract/vaultswapcore.sol\":8184:8209  calculateInterest(loanId) */\n      jump\t// in\n    tag_226:\n        /* \"contract/vaultswapcore.sol\":8162:8166  loan */\n      dup5\n        /* \"contract/vaultswapcore.sol\":8162:8181  loan.borrowedAmount */\n      0x60\n      add\n      mload\n        /* \"contract/vaultswapcore.sol\":8162:8209  loan.borrowedAmount + calculateInterest(loanId) */\n      tag_227\n      swap2\n      swap1\n      tag_199\n      jump\t// in\n    tag_227:\n        /* \"contract/vaultswapcore.sol\":8135:8209  uint256 debtWithInterest = loan.borrowedAmount + calculateInterest(loanId) */\n      swap1\n      pop\n        /* \"contract/vaultswapcore.sol\":8252:8253  0 */\n      0x00\n        /* \"contract/vaultswapcore.sol\":8232:8248  debtWithInterest */\n      dup2\n        /* \"contract/vaultswapcore.sol\":8232:8253  debtWithInterest == 0 */\n      sub\n        /* \"contract/vaultswapcore.sol\":8228:8279  if (debtWithInterest == 0) return type(uint256).max */\n      tag_228\n      jumpi\n        /* \"contract/vaultswapcore.sol\":8262:8279  type(uint256).max */\n      0xffffffffffffffffffffffffffffffffffffffffffffffffffffffffffffffff\n        /* \"contract/vaultswapcore.sol\":8255:8279  return type(uint256).max */\n      swap5\n      pop\n      pop\n      pop\n      pop\n      pop\n      jump(tag_213)\n        /* \"contract/vaultswapcore.sol\":8228:8279  if (debtWithInterest == 0) return type(uint256).max */\n    tag_228:\n        /* \"contract/vaultswapcore.sol\":8331:8347  debtWithInterest */\n      dup1\n        /* \"contract/vaultswapcore.sol\":8324:8327  100 */\n      0x64\n        /* \"contract/vaultswapcore.sol\":8306:8321  collateralValue */\n      dup4\n        /* \"contract/vaultswapcore.sol\":8306:8327  collateralValue * 100 */\n      tag_229\n      swap2\n      swap1\n      tag_223\n      jump\t// in\n    tag_229:\n        /* \"contract/vaultswapcore.sol\":8305:8347  (collateralValue * 100) / debtWithInterest */\n      tag_230\n      swap2\n      swap1\n      tag_225\n      jump\t// in\n    tag_230:\n        /* \"contract/vaultswapcore.sol\":8298:8347  return (collateralValue * 100) / debtWithInterest */\n      swap5\n      pop\n      pop\n      pop\n      pop\n      pop\n        /* \"contract/vaultswapcore.sol\":7810:8354  function getHealthFactor(uint256 loanId) public view returns (uint256) {... */\n    tag_213:\n      swap2\n      swap1\n      pop\n      jump\t// out\n        /* \"contract/vaultswapcore.sol\":4730:5755  function repay(uint256 loanId) external nonReentrant {... */\n    tag_60:\n        /* \"@openzeppelin/contracts/security/ReentrancyGuard.sol\":2261:2282  _nonReentrantBefore() */\n      tag_232\n        /* \"@openzeppelin/contracts/security/ReentrancyGuard.sol\":2261:2280  _nonReentrantBefore */\n      tag_156\n        /* \"@openzeppelin/contracts/security/ReentrancyGuard.sol\":2261:2282  _nonReentrantBefore() */\n      jump\t// in\n    tag_232:\n        /* \"contract/vaultswapcore.sol\":4793:4810  Loan storage loan */\n      0x00\n        /* \"contract/vaultswapcore.sol\":4813:4818  loans */\n      0x09\n        /* \"contract/vaultswapcore.sol\":4813:4826  loans[loanId] */\n      0x00\n        /* \"contract/vaultswapcore.sol\":4819:4825  loanId */\n      dup4\n        /* \"contract/vaultswapcore.sol\":4813:4826  loans[loanId] */\n      dup2\n      mstore\n      0x20\n      add\n      swap1\n      dup2\n      mstore\n      0x20\n      add\n      0x00\n      keccak256\n        /* \"contract/vaultswapcore.sol\":4793:4826  Loan storage loan = loans[loanId] */\n      swap1\n      pop\n        /* \"contract/vaultswapcore.sol\":4844:4848  loan */\n      dup1\n        /* \"contract/vaultswapcore.sol\":4844:4857  loan.isActive */\n      0x07\n      add\n      0x00\n      swap1\n      sload\n      swap1\n      0x0100\n      exp\n      swap1\n      div\n      0xff\n      and\n        /* \"contract/vaultswapcore.sol\":4836:4877  require(loan.isActive, \"Loan not active\") */\n      tag_234\n      jumpi\n      mload(0x40)\n      0x08c379a000000000000000000000000000000000000000000000000000000000\n      dup2\n      mstore\n      0x04\n      add\n      tag_235\n      swap1\n      tag_236\n      jump\t// in\n    tag_235:\n      mload(0x40)\n      dup1\n      swap2\n      sub\n      swap1\n      revert\n    tag_234:\n        /* \"contract/vaultswapcore.sol\":4912:4922  msg.sender */\n      caller\n        /* \"contract/vaultswapcore.sol\":4895:4922  loan.borrower == msg.sender */\n      0xffffffffffffffffffffffffffffffffffffffff\n      and\n        /* \"contract/vaultswapcore.sol\":4895:4899  loan */\n      dup2\n        /* \"contract/vaultswapcore.sol\":4895:4908  loan.borrower */\n      0x01\n      add\n      0x00\n      swap1\n      sload\n      swap1\n      0x0100\n      exp\n      swap1\n      div\n      0xffffffffffffffffffffffffffffffffffffffff\n      and\n        /* \"contract/vaultswapcore.sol\":4895:4922  loan.borrower == msg.sender */\n      0xffffffffffffffffffffffffffffffffffffffff\n      and\n      eq\n        /* \"contract/vaultswapcore.sol\":4887:4941  require(loan.borrower == msg.sender, \"Not loan owner\") */\n      tag_237\n      jumpi\n      mload(0x40)\n      0x08c379a000000000000000000000000000000000000000000000000000000000\n      dup2\n      mstore\n      0x04\n      add\n      tag_238\n      swap1\n      tag_239\n      jump\t// in\n    tag_238:\n      mload(0x40)\n      dup1\n      swap2\n      sub\n      swap1\n      revert\n    tag_237:\n        /* \"contract/vaultswapcore.sol\":5026:5042  uint256 interest */\n      0x00\n        /* \"contract/vaultswapcore.sol\":5045:5070  calculateInterest(loanId) */\n      tag_240\n        /* \"contract/vaultswapcore.sol\":5063:5069  loanId */\n      dup4\n        /* \"contract/vaultswapcore.sol\":5045:5062  calculateInterest */\n      tag_122\n        /* \"contract/vaultswapcore.sol\":5045:5070  calculateInterest(loanId) */\n      jump\t// in\n    tag_240:\n        /* \"contract/vaultswapcore.sol\":5026:5070  uint256 interest = calculateInterest(loanId) */\n      swap1\n      pop\n        /* \"contract/vaultswapcore.sol\":5080:5098  uint256 totalRepay */\n      0x00\n        /* \"contract/vaultswapcore.sol\":5123:5131  interest */\n      dup2\n        /* \"contract/vaultswapcore.sol\":5101:5105  loan */\n      dup4\n        /* \"contract/vaultswapcore.sol\":5101:5120  loan.borrowedAmount */\n      0x03\n      add\n      sload\n        /* \"contract/vaultswapcore.sol\":5101:5131  loan.borrowedAmount + interest */\n      tag_241\n      swap2\n      swap1\n      tag_199\n      jump\t// in\n    tag_241:\n        /* \"contract/vaultswapcore.sol\":5080:5131  uint256 totalRepay = loan.borrowedAmount + interest */\n      swap1\n      pop\n        /* \"contract/vaultswapcore.sol\":5216:5226  stablecoin */\n      0x03\n      0x00\n      swap1\n      sload\n      swap1\n      0x0100\n      exp\n      swap1\n      div\n      0xffffffffffffffffffffffffffffffffffffffff\n      and\n        /* \"contract/vaultswapcore.sol\":5216:5239  stablecoin.transferFrom */\n      0xffffffffffffffffffffffffffffffffffffffff\n      and\n      0x23b872dd\n        /* \"contract/vaultswapcore.sol\":5240:5250  msg.sender */\n      caller\n        /* \"contract/vaultswapcore.sol\":5260:5264  this */\n      address\n        /* \"contract/vaultswapcore.sol\":5267:5277  totalRepay */\n      dup5\n        /* \"contract/vaultswapcore.sol\":5216:5278  stablecoin.transferFrom(msg.sender, address(this), totalRepay) */\n      mload(0x40)\n      dup5\n      0xffffffff\n      and\n      0xe0\n      shl\n      dup2\n      mstore\n      0x04\n      add\n      tag_242\n      swap4\n      swap3\n      swap2\n      swap1\n      tag_187\n      jump\t// in\n    tag_242:\n      0x20\n      mload(0x40)\n      dup1\n      dup4\n      sub\n      dup2\n      0x00\n      dup8\n      gas\n      call\n      iszero\n      dup1\n      iszero\n      tag_244\n      jumpi\n      returndatacopy(0x00, 0x00, returndatasize)\n      revert(0x00, returndatasize)\n    tag_244:\n      pop\n      pop\n      pop\n      pop\n      mload(0x40)\n      returndatasize\n      not(0x1f)\n      0x1f\n      dup3\n      add\n      and\n      dup3\n      add\n      dup1\n      0x40\n      mstore\n      pop\n      dup2\n      add\n      swap1\n      tag_245\n      swap2\n      swap1\n      tag_191\n      jump\t// in\n    tag_245:\n        /* \"contract/vaultswapcore.sol\":5195:5329  require(... */\n      tag_246\n      jumpi\n      mload(0x40)\n      0x08c379a000000000000000000000000000000000000000000000000000000000\n      dup2\n      mstore\n      0x04\n      add\n      tag_247\n      swap1\n      tag_248\n      jump\t// in\n    tag_247:\n      mload(0x40)\n      dup1\n      swap2\n      sub\n      swap1\n      revert\n    tag_246:\n        /* \"contract/vaultswapcore.sol\":5410:5418  vaultBTC */\n      0x02\n      0x00\n      swap1\n      sload\n      swap1\n      0x0100\n      exp\n      swap1\n      div\n      0xffffffffffffffffffffffffffffffffffffffff\n      and\n        /* \"contract/vaultswapcore.sol\":5410:5427  vaultBTC.transfer */\n      0xffffffffffffffffffffffffffffffffffffffff\n      and\n      0xa9059cbb\n        /* \"contract/vaultswapcore.sol\":5428:5438  msg.sender */\n      caller\n        /* \"contract/vaultswapcore.sol\":5440:5444  loan */\n      dup6\n        /* \"contract/vaultswapcore.sol\":5440:5461  loan.collateralAmount */\n      0x02\n      add\n      sload\n        /* \"contract/vaultswapcore.sol\":5410:5462  vaultBTC.transfer(msg.sender, loan.collateralAmount) */\n      mload(0x40)\n      dup4\n      0xffffffff\n      and\n      0xe0\n      shl\n      dup2\n      mstore\n      0x04\n      add\n      tag_249\n      swap3\n      swap2\n      swap1\n      tag_202\n      jump\t// in\n    tag_249:\n      0x20\n      mload(0x40)\n      dup1\n      dup4\n      sub\n      dup2\n      0x00\n      dup8\n      gas\n      call\n      iszero\n      dup1\n      iszero\n      tag_251\n      jumpi\n      returndatacopy(0x00, 0x00, returndatasize)\n      revert(0x00, returndatasize)\n    tag_251:\n      pop\n      pop\n      pop\n      pop\n      mload(0x40)\n      returndatasize\n      not(0x1f)\n      0x1f\n      dup3\n      add\n      and\n      dup3\n      add\n      dup1\n      0x40\n      mstore\n      pop\n      dup2\n      add\n      swap1\n      tag_252\n      swap2\n      swap1\n      tag_191\n      jump\t// in\n    tag_252:\n        /* \"contract/vaultswapcore.sol\":5389:5512  require(... */\n      tag_253\n      jumpi\n      mload(0x40)\n      0x08c379a000000000000000000000000000000000000000000000000000000000\n      dup2\n      mstore\n      0x04\n      add\n      tag_254\n      swap1\n      tag_255\n      jump\t// in\n    tag_254:\n      mload(0x40)\n      dup1\n      swap2\n      sub\n      swap1\n      revert\n    tag_253:\n        /* \"contract/vaultswapcore.sol\":5572:5576  loan */\n      dup3\n        /* \"contract/vaultswapcore.sol\":5572:5591  loan.borrowedAmount */\n      0x03\n      add\n      sload\n        /* \"contract/vaultswapcore.sol\":5555:5568  totalBorrowed */\n      0x06\n      0x00\n        /* \"contract/vaultswapcore.sol\":5555:5591  totalBorrowed -= loan.borrowedAmount */\n      dup3\n      dup3\n      sload\n      tag_256\n      swap2\n      swap1\n      tag_257\n      jump\t// in\n    tag_256:\n      swap3\n      pop\n      pop\n      dup2\n      swap1\n      sstore\n      pop\n        /* \"contract/vaultswapcore.sol\":5620:5624  loan */\n      dup3\n        /* \"contract/vaultswapcore.sol\":5620:5641  loan.collateralAmount */\n      0x02\n      add\n      sload\n        /* \"contract/vaultswapcore.sol\":5601:5616  totalCollateral */\n      0x07\n      0x00\n        /* \"contract/vaultswapcore.sol\":5601:5641  totalCollateral -= loan.collateralAmount */\n      dup3\n      dup3\n      sload\n      tag_258\n      swap2\n      swap1\n      tag_257\n      jump\t// in\n    tag_258:\n      swap3\n      pop\n      pop\n      dup2\n      swap1\n      sstore\n      pop\n        /* \"contract/vaultswapcore.sol\":5667:5672  false */\n      0x00\n        /* \"contract/vaultswapcore.sol\":5651:5655  loan */\n      dup4\n        /* \"contract/vaultswapcore.sol\":5651:5664  loan.isActive */\n      0x07\n      add\n      0x00\n        /* \"contract/vaultswapcore.sol\":5651:5672  loan.isActive = false */\n      0x0100\n      exp\n      dup2\n      sload\n      dup2\n      0xff\n      mul\n      not\n      and\n      swap1\n      dup4\n      iszero\n      iszero\n      mul\n      or\n      swap1\n      sstore\n      pop\n        /* \"contract/vaultswapcore.sol\":5715:5725  msg.sender */\n      caller\n        /* \"contract/vaultswapcore.sol\":5696:5748  LoanRepaid(loanId, msg.sender, totalRepay, interest) */\n      0xffffffffffffffffffffffffffffffffffffffff\n      and\n        /* \"contract/vaultswapcore.sol\":5707:5713  loanId */\n      dup5\n        /* \"contract/vaultswapcore.sol\":5696:5748  LoanRepaid(loanId, msg.sender, totalRepay, interest) */\n      0x553c9087bff5b534e499a66dac3fa9db2962cd252ea01165239755836ae5345e\n        /* \"contract/vaultswapcore.sol\":5727:5737  totalRepay */\n      dup4\n        /* \"contract/vaultswapcore.sol\":5739:5747  interest */\n      dup6\n        /* \"contract/vaultswapcore.sol\":5696:5748  LoanRepaid(loanId, msg.sender, totalRepay, interest) */\n      mload(0x40)\n      tag_259\n      swap3\n      swap2\n      swap1\n      tag_210\n      jump\t// in\n    tag_259:\n      mload(0x40)\n      dup1\n      swap2\n      sub\n      swap1\n      log3\n        /* \"contract/vaultswapcore.sol\":4783:5755  {... */\n      pop\n      pop\n      pop\n        /* \"@openzeppelin/contracts/security/ReentrancyGuard.sol\":2303:2323  _nonReentrantAfter() */\n      tag_260\n        /* \"@openzeppelin/contracts/security/ReentrancyGuard.sol\":2303:2321  _nonReentrantAfter */\n      tag_212\n        /* \"@openzeppelin/contracts/security/ReentrancyGuard.sol\":2303:2323  _nonReentrantAfter() */\n      jump\t// in\n    tag_260:\n        /* \"contract/vaultswapcore.sol\":4730:5755  function repay(uint256 loanId) external nonReentrant {... */\n      pop\n      jump\t// out\n        /* \"contract/vaultswapcore.sol\":10259:10324  function unpause() external onlyOwner {... */\n    tag_62:\n        /* \"@openzeppelin/contracts/access/Ownable.sol\":1531:1544  _checkOwner() */\n      tag_262\n        /* \"@openzeppelin/contracts/access/Ownable.sol\":1531:1542  _checkOwner */\n      tag_263\n        /* \"@openzeppelin/contracts/access/Ownable.sol\":1531:1544  _checkOwner() */\n      jump\t// in\n    tag_262:\n        /* \"contract/vaultswapcore.sol\":10307:10317  _unpause() */\n      tag_265\n        /* \"contract/vaultswapcore.sol\":10307:10315  _unpause */\n      tag_266\n        /* \"contract/vaultswapcore.sol\":10307:10317  _unpause() */\n      jump\t// in\n    tag_265:\n        /* \"contract/vaultswapcore.sol\":10259:10324  function unpause() external onlyOwner {... */\n      jump\t// out\n        /* \"contract/vaultswapcore.sol\":5765:7036  function liquidate(uint256 loanId) external nonReentrant {... */\n    tag_65:\n        /* \"@openzeppelin/contracts/security/ReentrancyGuard.sol\":2261:2282  _nonReentrantBefore() */\n      tag_268\n        /* \"@openzeppelin/contracts/security/ReentrancyGuard.sol\":2261:2280  _nonReentrantBefore */\n      tag_156\n        /* \"@openzeppelin/contracts/security/ReentrancyGuard.sol\":2261:2282  _nonReentrantBefore() */\n      jump\t// in\n    tag_268:\n        /* \"contract/vaultswapcore.sol\":5832:5849  Loan storage loan */\n      0x00\n        /* \"contract/vaultswapcore.sol\":5852:5857  loans */\n      0x09\n        /* \"contract/vaultswapcore.sol\":5852:5865  loans[loanId] */\n      0x00\n        /* \"contract/vaultswapcore.sol\":5858:5864  loanId */\n      dup4\n        /* \"contract/vaultswapcore.sol\":5852:5865  loans[loanId] */\n      dup2\n      mstore\n      0x20\n      add\n      swap1\n      dup2\n      mstore\n      0x20\n      add\n      0x00\n      keccak256\n        /* \"contract/vaultswapcore.sol\":5832:5865  Loan storage loan = loans[loanId] */\n      swap1\n      pop\n        /* \"contract/vaultswapcore.sol\":5883:5887  loan */\n      dup1\n        /* \"contract/vaultswapcore.sol\":5883:5896  loan.isActive */\n      0x07\n      add\n      0x00\n      swap1\n      sload\n      swap1\n      0x0100\n      exp\n      swap1\n      div\n      0xff\n      and\n        /* \"contract/vaultswapcore.sol\":5875:5916  require(loan.isActive, \"Loan not active\") */\n      tag_270\n      jumpi\n      mload(0x40)\n      0x08c379a000000000000000000000000000000000000000000000000000000000\n      dup2\n      mstore\n      0x04\n      add\n      tag_271\n      swap1\n      tag_236\n      jump\t// in\n    tag_271:\n      mload(0x40)\n      dup1\n      swap2\n      sub\n      swap1\n      revert\n    tag_270:\n        /* \"contract/vaultswapcore.sol\":5974:5994  uint256 healthFactor */\n      0x00\n        /* \"contract/vaultswapcore.sol\":5997:6020  getHealthFactor(loanId) */\n      tag_272\n        /* \"contract/vaultswapcore.sol\":6013:6019  loanId */\n      dup4\n        /* \"contract/vaultswapcore.sol\":5997:6012  getHealthFactor */\n      tag_56\n        /* \"contract/vaultswapcore.sol\":5997:6020  getHealthFactor(loanId) */\n      jump\t// in\n    tag_272:\n        /* \"contract/vaultswapcore.sol\":5974:6020  uint256 healthFactor = getHealthFactor(loanId) */\n      swap1\n      pop\n        /* \"contract/vaultswapcore.sol\":973:976  120 */\n      0x78\n        /* \"contract/vaultswapcore.sol\":6038:6050  healthFactor */\n      dup2\n        /* \"contract/vaultswapcore.sol\":6038:6074  healthFactor < LIQUIDATION_THRESHOLD */\n      lt\n        /* \"contract/vaultswapcore.sol\":6030:6100  require(healthFactor < LIQUIDATION_THRESHOLD, \"Loan not liquidatable\") */\n      tag_273\n      jumpi\n      mload(0x40)\n      0x08c379a000000000000000000000000000000000000000000000000000000000\n      dup2\n      mstore\n      0x04\n      add\n      tag_274\n      swap1\n      tag_275\n      jump\t// in\n    tag_274:\n      mload(0x40)\n      dup1\n      swap2\n      sub\n      swap1\n      revert\n    tag_273:\n        /* \"contract/vaultswapcore.sol\":6160:6184  uint256 debtWithInterest */\n      0x00\n        /* \"contract/vaultswapcore.sol\":6209:6234  calculateInterest(loanId) */\n      tag_276\n        /* \"contract/vaultswapcore.sol\":6227:6233  loanId */\n      dup5\n        /* \"contract/vaultswapcore.sol\":6209:6226  calculateInterest */\n      tag_122\n        /* \"contract/vaultswapcore.sol\":6209:6234  calculateInterest(loanId) */\n      jump\t// in\n    tag_276:\n        /* \"contract/vaultswapcore.sol\":6187:6191  loan */\n      dup4\n        /* \"contract/vaultswapcore.sol\":6187:6206  loan.borrowedAmount */\n      0x03\n      add\n      sload\n        /* \"contract/vaultswapcore.sol\":6187:6234  loan.borrowedAmount + calculateInterest(loanId) */\n      tag_277\n      swap2\n      swap1\n      tag_199\n      jump\t// in\n    tag_277:\n        /* \"contract/vaultswapcore.sol\":6160:6234  uint256 debtWithInterest = loan.borrowedAmount + calculateInterest(loanId) */\n      swap1\n      pop\n        /* \"contract/vaultswapcore.sol\":6244:6259  uint256 penalty */\n      0x00\n        /* \"contract/vaultswapcore.sol\":6310:6313  100 */\n      0x64\n        /* \"contract/vaultswapcore.sol\":1043:1045  10 */\n      0x0a\n        /* \"contract/vaultswapcore.sol\":6263:6267  loan */\n      dup6\n        /* \"contract/vaultswapcore.sol\":6263:6284  loan.collateralAmount */\n      0x02\n      add\n      sload\n        /* \"contract/vaultswapcore.sol\":6263:6306  loan.collateralAmount * LIQUIDATION_PENALTY */\n      tag_278\n      swap2\n      swap1\n      tag_223\n      jump\t// in\n    tag_278:\n        /* \"contract/vaultswapcore.sol\":6262:6313  (loan.collateralAmount * LIQUIDATION_PENALTY) / 100 */\n      tag_279\n      swap2\n      swap1\n      tag_225\n      jump\t// in\n    tag_279:\n        /* \"contract/vaultswapcore.sol\":6244:6313  uint256 penalty = (loan.collateralAmount * LIQUIDATION_PENALTY) / 100 */\n      swap1\n      pop\n        /* \"contract/vaultswapcore.sol\":6323:6353  uint256 collateralToLiquidator */\n      0x00\n        /* \"contract/vaultswapcore.sol\":6380:6387  penalty */\n      dup2\n        /* \"contract/vaultswapcore.sol\":6356:6360  loan */\n      dup6\n        /* \"contract/vaultswapcore.sol\":6356:6377  loan.collateralAmount */\n      0x02\n      add\n      sload\n        /* \"contract/vaultswapcore.sol\":6356:6387  loan.collateralAmount - penalty */\n      tag_280\n      swap2\n      swap1\n      tag_257\n      jump\t// in\n    tag_280:\n        /* \"contract/vaultswapcore.sol\":6323:6387  uint256 collateralToLiquidator = loan.collateralAmount - penalty */\n      swap1\n      pop\n        /* \"contract/vaultswapcore.sol\":6468:6478  stablecoin */\n      0x03\n      0x00\n      swap1\n      sload\n      swap1\n      0x0100\n      exp\n      swap1\n      div\n      0xffffffffffffffffffffffffffffffffffffffff\n      and\n        /* \"contract/vaultswapcore.sol\":6468:6491  stablecoin.transferFrom */\n      0xffffffffffffffffffffffffffffffffffffffff\n      and\n      0x23b872dd\n        /* \"contract/vaultswapcore.sol\":6492:6502  msg.sender */\n      caller\n        /* \"contract/vaultswapcore.sol\":6512:6516  this */\n      address\n        /* \"contract/vaultswapcore.sol\":6519:6535  debtWithInterest */\n      dup7\n        /* \"contract/vaultswapcore.sol\":6468:6536  stablecoin.transferFrom(msg.sender, address(this), debtWithInterest) */\n      mload(0x40)\n      dup5\n      0xffffffff\n      and\n      0xe0\n      shl\n      dup2\n      mstore\n      0x04\n      add\n      tag_281\n      swap4\n      swap3\n      swap2\n      swap1\n      tag_187\n      jump\t// in\n    tag_281:\n      0x20\n      mload(0x40)\n      dup1\n      dup4\n      sub\n      dup2\n      0x00\n      dup8\n      gas\n      call\n      iszero\n      dup1\n      iszero\n      tag_283\n      jumpi\n      returndatacopy(0x00, 0x00, returndatasize)\n      revert(0x00, returndatasize)\n    tag_283:\n      pop\n      pop\n      pop\n      pop\n      mload(0x40)\n      returndatasize\n      not(0x1f)\n      0x1f\n      dup3\n      add\n      and\n      dup3\n      add\n      dup1\n      0x40\n      mstore\n      pop\n      dup2\n      add\n      swap1\n      tag_284\n      swap2\n      swap1\n      tag_191\n      jump\t// in\n    tag_284:\n        /* \"contract/vaultswapcore.sol\":6447:6588  require(... */\n      tag_285\n      jumpi\n      mload(0x40)\n      0x08c379a000000000000000000000000000000000000000000000000000000000\n      dup2\n      mstore\n      0x04\n      add\n      tag_286\n      swap1\n      tag_287\n      jump\t// in\n    tag_286:\n      mload(0x40)\n      dup1\n      swap2\n      sub\n      swap1\n      revert\n    tag_285:\n        /* \"contract/vaultswapcore.sol\":6673:6681  vaultBTC */\n      0x02\n      0x00\n      swap1\n      sload\n      swap1\n      0x0100\n      exp\n      swap1\n      div\n      0xffffffffffffffffffffffffffffffffffffffff\n      and\n        /* \"contract/vaultswapcore.sol\":6673:6690  vaultBTC.transfer */\n      0xffffffffffffffffffffffffffffffffffffffff\n      and\n      0xa9059cbb\n        /* \"contract/vaultswapcore.sol\":6691:6701  msg.sender */\n      caller\n        /* \"contract/vaultswapcore.sol\":6703:6725  collateralToLiquidator */\n      dup4\n        /* \"contract/vaultswapcore.sol\":6673:6726  vaultBTC.transfer(msg.sender, collateralToLiquidator) */\n      mload(0x40)\n      dup4\n      0xffffffff\n      and\n      0xe0\n      shl\n      dup2\n      mstore\n      0x04\n      add\n      tag_288\n      swap3\n      swap2\n      swap1\n      tag_202\n      jump\t// in\n    tag_288:\n      0x20\n      mload(0x40)\n      dup1\n      dup4\n      sub\n      dup2\n      0x00\n      dup8\n      gas\n      call\n      iszero\n      dup1\n      iszero\n      tag_290\n      jumpi\n      returndatacopy(0x00, 0x00, returndatasize)\n      revert(0x00, returndatasize)\n    tag_290:\n      pop\n      pop\n      pop\n      pop\n      mload(0x40)\n      returndatasize\n      not(0x1f)\n      0x1f\n      dup3\n      add\n      and\n      dup3\n      add\n      dup1\n      0x40\n      mstore\n      pop\n      dup2\n      add\n      swap1\n      tag_291\n      swap2\n      swap1\n      tag_191\n      jump\t// in\n    tag_291:\n        /* \"contract/vaultswapcore.sol\":6652:6778  require(... */\n      tag_292\n      jumpi\n      mload(0x40)\n      0x08c379a000000000000000000000000000000000000000000000000000000000\n      dup2\n      mstore\n      0x04\n      add\n      tag_293\n      swap1\n      tag_194\n      jump\t// in\n    tag_293:\n      mload(0x40)\n      dup1\n      swap2\n      sub\n      swap1\n      revert\n    tag_292:\n        /* \"contract/vaultswapcore.sol\":6838:6842  loan */\n      dup5\n        /* \"contract/vaultswapcore.sol\":6838:6857  loan.borrowedAmount */\n      0x03\n      add\n      sload\n        /* \"contract/vaultswapcore.sol\":6821:6834  totalBorrowed */\n      0x06\n      0x00\n        /* \"contract/vaultswapcore.sol\":6821:6857  totalBorrowed -= loan.borrowedAmount */\n      dup3\n      dup3\n      sload\n      tag_294\n      swap2\n      swap1\n      tag_257\n      jump\t// in\n    tag_294:\n      swap3\n      pop\n      pop\n      dup2\n      swap1\n      sstore\n      pop\n        /* \"contract/vaultswapcore.sol\":6886:6890  loan */\n      dup5\n        /* \"contract/vaultswapcore.sol\":6886:6907  loan.collateralAmount */\n      0x02\n      add\n      sload\n        /* \"contract/vaultswapcore.sol\":6867:6882  totalCollateral */\n      0x07\n      0x00\n        /* \"contract/vaultswapcore.sol\":6867:6907  totalCollateral -= loan.collateralAmount */\n      dup3\n      dup3\n      sload\n      tag_295\n      swap2\n      swap1\n      tag_257\n      jump\t// in\n    tag_295:\n      swap3\n      pop\n      pop\n      dup2\n      swap1\n      sstore\n      pop\n        /* \"contract/vaultswapcore.sol\":6933:6938  false */\n      0x00\n        /* \"contract/vaultswapcore.sol\":6917:6921  loan */\n      dup6\n        /* \"contract/vaultswapcore.sol\":6917:6930  loan.isActive */\n      0x07\n      add\n      0x00\n        /* \"contract/vaultswapcore.sol\":6917:6938  loan.isActive = false */\n      0x0100\n      exp\n      dup2\n      sload\n      dup2\n      0xff\n      mul\n      not\n      and\n      swap1\n      dup4\n      iszero\n      iszero\n      mul\n      or\n      swap1\n      sstore\n      pop\n        /* \"contract/vaultswapcore.sol\":6985:6995  msg.sender */\n      caller\n        /* \"contract/vaultswapcore.sol\":6962:7029  LoanLiquidated(loanId, msg.sender, collateralToLiquidator, penalty) */\n      0xffffffffffffffffffffffffffffffffffffffff\n      and\n        /* \"contract/vaultswapcore.sol\":6977:6983  loanId */\n      dup7\n        /* \"contract/vaultswapcore.sol\":6962:7029  LoanLiquidated(loanId, msg.sender, collateralToLiquidator, penalty) */\n      0xd1b144c94c58ceab69737edeed9e57e7a7bf0e63c3232da2b7c1e65d7ab7f3d0\n        /* \"contract/vaultswapcore.sol\":6997:7019  collateralToLiquidator */\n      dup4\n        /* \"contract/vaultswapcore.sol\":7021:7028  penalty */\n      dup6\n        /* \"contract/vaultswapcore.sol\":6962:7029  LoanLiquidated(loanId, msg.sender, collateralToLiquidator, penalty) */\n      mload(0x40)\n      tag_296\n      swap3\n      swap2\n      swap1\n      tag_210\n      jump\t// in\n    tag_296:\n      mload(0x40)\n      dup1\n      swap2\n      sub\n      swap1\n      log3\n        /* \"contract/vaultswapcore.sol\":5822:7036  {... */\n      pop\n      pop\n      pop\n      pop\n      pop\n        /* \"@openzeppelin/contracts/security/ReentrancyGuard.sol\":2303:2323  _nonReentrantAfter() */\n      tag_297\n        /* \"@openzeppelin/contracts/security/ReentrancyGuard.sol\":2303:2321  _nonReentrantAfter */\n      tag_212\n        /* \"@openzeppelin/contracts/security/ReentrancyGuard.sol\":2303:2323  _nonReentrantAfter() */\n      jump\t// in\n    tag_297:\n        /* \"contract/vaultswapcore.sol\":5765:7036  function liquidate(uint256 loanId) external nonReentrant {... */\n      pop\n      jump\t// out\n        /* \"contract/vaultswapcore.sol\":1218:1248  uint256 public totalCollateral */\n    tag_67:\n      sload(0x07)\n      dup2\n      jump\t// out\n        /* \"contract/vaultswapcore.sol\":1184:1212  uint256 public totalBorrowed */\n    tag_70:\n      sload(0x06)\n      dup2\n      jump\t// out\n        /* \"@openzeppelin/contracts/security/Pausable.sol\":1615:1699  function paused() public view virtual returns (bool) {... */\n    tag_73:\n        /* \"@openzeppelin/contracts/security/Pausable.sol\":1662:1666  bool */\n      0x00\n        /* \"@openzeppelin/contracts/security/Pausable.sol\":1685:1692  _paused */\n      0x01\n      0x14\n      swap1\n      sload\n      swap1\n      0x0100\n      exp\n      swap1\n      div\n      0xff\n      and\n        /* \"@openzeppelin/contracts/security/Pausable.sol\":1678:1692  return _paused */\n      swap1\n      pop\n        /* \"@openzeppelin/contracts/security/Pausable.sol\":1615:1699  function paused() public view virtual returns (bool) {... */\n      swap1\n      jump\t// out\n        /* \"contract/vaultswapcore.sol\":9969:10178  function setInterestRate(uint256 newRate) external onlyOwner {... */\n    tag_78:\n        /* \"@openzeppelin/contracts/access/Ownable.sol\":1531:1544  _checkOwner() */\n      tag_300\n        /* \"@openzeppelin/contracts/access/Ownable.sol\":1531:1542  _checkOwner */\n      tag_263\n        /* \"@openzeppelin/contracts/access/Ownable.sol\":1531:1544  _checkOwner() */\n      jump\t// in\n    tag_300:\n        /* \"contract/vaultswapcore.sol\":10059:10063  2000 */\n      0x07d0\n        /* \"contract/vaultswapcore.sol\":10048:10055  newRate */\n      dup2\n        /* \"contract/vaultswapcore.sol\":10048:10063  newRate <= 2000 */\n      gt\n      iszero\n        /* \"contract/vaultswapcore.sol\":10040:10081  require(newRate <= 2000, \"Rate too high\") */\n      tag_302\n      jumpi\n      mload(0x40)\n      0x08c379a000000000000000000000000000000000000000000000000000000000\n      dup2\n      mstore\n      0x04\n      add\n      tag_303\n      swap1\n      tag_304\n      jump\t// in\n    tag_303:\n      mload(0x40)\n      dup1\n      swap2\n      sub\n      swap1\n      revert\n    tag_302:\n        /* \"contract/vaultswapcore.sol\":10121:10128  newRate */\n      dup1\n        /* \"contract/vaultswapcore.sol\":10102:10118  baseInterestRate */\n      0x05\n        /* \"contract/vaultswapcore.sol\":10102:10128  baseInterestRate = newRate */\n      dup2\n      swap1\n      sstore\n      pop\n        /* \"contract/vaultswapcore.sol\":10143:10171  InterestRateUpdated(newRate) */\n      0xa90e14be5aa57b910aa6dc16c31ff1b5cda380ae25a793b0d3f74df6131a7d74\n        /* \"contract/vaultswapcore.sol\":10163:10170  newRate */\n      dup2\n        /* \"contract/vaultswapcore.sol\":10143:10171  InterestRateUpdated(newRate) */\n      mload(0x40)\n      tag_305\n      swap2\n      swap1\n      tag_52\n      jump\t// in\n    tag_305:\n      mload(0x40)\n      dup1\n      swap2\n      sub\n      swap1\n      log1\n        /* \"contract/vaultswapcore.sol\":9969:10178  function setInterestRate(uint256 newRate) external onlyOwner {... */\n      pop\n      jump\t// out\n        /* \"contract/vaultswapcore.sol\":8811:9109  function getMaxBorrowAmount(uint256 collateralAmount) public view returns (uint256) {... */\n    tag_81:\n        /* \"contract/vaultswapcore.sol\":8886:8893  uint256 */\n      0x00\n        /* \"contract/vaultswapcore.sol\":8905:8921  uint256 btcPrice */\n      0x00\n        /* \"contract/vaultswapcore.sol\":8924:8940  getLatestPrice() */\n      tag_307\n        /* \"contract/vaultswapcore.sol\":8924:8938  getLatestPrice */\n      tag_101\n        /* \"contract/vaultswapcore.sol\":8924:8940  getLatestPrice() */\n      jump\t// in\n    tag_307:\n        /* \"contract/vaultswapcore.sol\":8905:8940  uint256 btcPrice = getLatestPrice() */\n      swap1\n      pop\n        /* \"contract/vaultswapcore.sol\":8950:8973  uint256 collateralValue */\n      0x00\n        /* \"contract/vaultswapcore.sol\":9021:9030  priceFeed */\n      0x04\n      0x00\n      swap1\n      sload\n      swap1\n      0x0100\n      exp\n      swap1\n      div\n      0xffffffffffffffffffffffffffffffffffffffff\n      and\n        /* \"contract/vaultswapcore.sol\":9021:9039  priceFeed.decimals */\n      0xffffffffffffffffffffffffffffffffffffffff\n      and\n      0x313ce567\n        /* \"contract/vaultswapcore.sol\":9021:9041  priceFeed.decimals() */\n      mload(0x40)\n      dup2\n      0xffffffff\n      and\n      0xe0\n      shl\n      dup2\n      mstore\n      0x04\n      add\n      0x20\n      mload(0x40)\n      dup1\n      dup4\n      sub\n      dup2\n      dup7\n      gas\n      staticcall\n      iszero\n      dup1\n      iszero\n      tag_309\n      jumpi\n      returndatacopy(0x00, 0x00, returndatasize)\n      revert(0x00, returndatasize)\n    tag_309:\n      pop\n      pop\n      pop\n      pop\n      mload(0x40)\n      returndatasize\n      not(0x1f)\n      0x1f\n      dup3\n      add\n      and\n      dup3\n      add\n      dup1\n      0x40\n      mstore\n      pop\n      dup2\n      add\n      swap1\n      tag_310\n      swap2\n      swap1\n      tag_219\n      jump\t// in\n    tag_310:\n        /* \"contract/vaultswapcore.sol\":9013:9042  uint256(priceFeed.decimals()) */\n      0xff\n      and\n        /* \"contract/vaultswapcore.sol\":9009:9011  10 */\n      0x0a\n        /* \"contract/vaultswapcore.sol\":9009:9042  10**uint256(priceFeed.decimals()) */\n      tag_311\n      swap2\n      swap1\n      tag_221\n      jump\t// in\n    tag_311:\n        /* \"contract/vaultswapcore.sol\":8996:9004  btcPrice */\n      dup3\n        /* \"contract/vaultswapcore.sol\":8977:8993  collateralAmount */\n      dup6\n        /* \"contract/vaultswapcore.sol\":8977:9004  collateralAmount * btcPrice */\n      tag_312\n      swap2\n      swap1\n      tag_223\n      jump\t// in\n    tag_312:\n        /* \"contract/vaultswapcore.sol\":8976:9043  (collateralAmount * btcPrice) / (10**uint256(priceFeed.decimals())) */\n      tag_313\n      swap2\n      swap1\n      tag_225\n      jump\t// in\n    tag_313:\n        /* \"contract/vaultswapcore.sol\":8950:9043  uint256 collateralValue = (collateralAmount * btcPrice) / (10**uint256(priceFeed.decimals())) */\n      swap1\n      pop\n        /* \"contract/vaultswapcore.sol\":901:904  150 */\n      0x96\n        /* \"contract/vaultswapcore.sol\":9079:9082  100 */\n      0x64\n        /* \"contract/vaultswapcore.sol\":9061:9076  collateralValue */\n      dup3\n        /* \"contract/vaultswapcore.sol\":9061:9082  collateralValue * 100 */\n      tag_314\n      swap2\n      swap1\n      tag_223\n      jump\t// in\n    tag_314:\n        /* \"contract/vaultswapcore.sol\":9060:9102  (collateralValue * 100) / COLLATERAL_RATIO */\n      tag_315\n      swap2\n      swap1\n      tag_225\n      jump\t// in\n    tag_315:\n        /* \"contract/vaultswapcore.sol\":9053:9102  return (collateralValue * 100) / COLLATERAL_RATIO */\n      swap3\n      pop\n      pop\n      pop\n        /* \"contract/vaultswapcore.sol\":8811:9109  function getMaxBorrowAmount(uint256 collateralAmount) public view returns (uint256) {... */\n      swap2\n      swap1\n      pop\n      jump\t// out\n        /* \"contract/vaultswapcore.sol\":9245:9827  function getLoanDetails(uint256 loanId) external view returns (... */\n    tag_85:\n        /* \"contract/vaultswapcore.sol\":9317:9333  address borrower */\n      0x00\n        /* \"contract/vaultswapcore.sol\":9343:9367  uint256 collateralAmount */\n      0x00\n        /* \"contract/vaultswapcore.sol\":9377:9399  uint256 borrowedAmount */\n      0x00\n        /* \"contract/vaultswapcore.sol\":9409:9429  uint256 interestRate */\n      0x00\n        /* \"contract/vaultswapcore.sol\":9439:9459  uint256 healthFactor */\n      0x00\n        /* \"contract/vaultswapcore.sol\":9469:9492  uint256 accruedInterest */\n      0x00\n        /* \"contract/vaultswapcore.sol\":9502:9515  bool isActive */\n      0x00\n        /* \"contract/vaultswapcore.sol\":9532:9548  Loan memory loan */\n      0x00\n        /* \"contract/vaultswapcore.sol\":9551:9556  loans */\n      0x09\n        /* \"contract/vaultswapcore.sol\":9551:9564  loans[loanId] */\n      0x00\n        /* \"contract/vaultswapcore.sol\":9557:9563  loanId */\n      dup11\n        /* \"contract/vaultswapcore.sol\":9551:9564  loans[loanId] */\n      dup2\n      mstore\n      0x20\n      add\n      swap1\n      dup2\n      mstore\n      0x20\n      add\n      0x00\n      keccak256\n        /* \"contract/vaultswapcore.sol\":9532:9564  Loan memory loan = loans[loanId] */\n      mload(0x40)\n      dup1\n      0x0100\n      add\n      0x40\n      mstore\n      swap1\n      dup2\n      0x00\n      dup3\n      add\n      sload\n      dup2\n      mstore\n      0x20\n      add\n      0x01\n      dup3\n      add\n      0x00\n      swap1\n      sload\n      swap1\n      0x0100\n      exp\n      swap1\n      div\n      0xffffffffffffffffffffffffffffffffffffffff\n      and\n      0xffffffffffffffffffffffffffffffffffffffff\n      and\n      0xffffffffffffffffffffffffffffffffffffffff\n      and\n      dup2\n      mstore\n      0x20\n      add\n      0x02\n      dup3\n      add\n      sload\n      dup2\n      mstore\n      0x20\n      add\n      0x03\n      dup3\n      add\n      sload\n      dup2\n      mstore\n      0x20\n      add\n      0x04\n      dup3\n      add\n      sload\n      dup2\n      mstore\n      0x20\n      add\n      0x05\n      dup3\n      add\n      sload\n      dup2\n      mstore\n      0x20\n      add\n      0x06\n      dup3\n      add\n      sload\n      dup2\n      mstore\n      0x20\n      add\n      0x07\n      dup3\n      add\n      0x00\n      swap1\n      sload\n      swap1\n      0x0100\n      exp\n      swap1\n      div\n      0xff\n      and\n      iszero\n      iszero\n      iszero\n      iszero\n      dup2\n      mstore\n      pop\n      pop\n      swap1\n      pop\n        /* \"contract/vaultswapcore.sol\":9595:9599  loan */\n      dup1\n        /* \"contract/vaultswapcore.sol\":9595:9608  loan.borrower */\n      0x20\n      add\n      mload\n        /* \"contract/vaultswapcore.sol\":9622:9626  loan */\n      dup2\n        /* \"contract/vaultswapcore.sol\":9622:9643  loan.collateralAmount */\n      0x40\n      add\n      mload\n        /* \"contract/vaultswapcore.sol\":9657:9661  loan */\n      dup3\n        /* \"contract/vaultswapcore.sol\":9657:9676  loan.borrowedAmount */\n      0x60\n      add\n      mload\n        /* \"contract/vaultswapcore.sol\":9690:9694  loan */\n      dup4\n        /* \"contract/vaultswapcore.sol\":9690:9707  loan.interestRate */\n      0x80\n      add\n      mload\n        /* \"contract/vaultswapcore.sol\":9721:9744  getHealthFactor(loanId) */\n      tag_317\n        /* \"contract/vaultswapcore.sol\":9737:9743  loanId */\n      dup14\n        /* \"contract/vaultswapcore.sol\":9721:9736  getHealthFactor */\n      tag_56\n        /* \"contract/vaultswapcore.sol\":9721:9744  getHealthFactor(loanId) */\n      jump\t// in\n    tag_317:\n        /* \"contract/vaultswapcore.sol\":9758:9783  calculateInterest(loanId) */\n      tag_318\n        /* \"contract/vaultswapcore.sol\":9776:9782  loanId */\n      dup15\n        /* \"contract/vaultswapcore.sol\":9758:9775  calculateInterest */\n      tag_122\n        /* \"contract/vaultswapcore.sol\":9758:9783  calculateInterest(loanId) */\n      jump\t// in\n    tag_318:\n        /* \"contract/vaultswapcore.sol\":9797:9801  loan */\n      dup7\n        /* \"contract/vaultswapcore.sol\":9797:9810  loan.isActive */\n      0xe0\n      add\n      mload\n        /* \"contract/vaultswapcore.sol\":9574:9820  return (... */\n      swap8\n      pop\n      swap8\n      pop\n      swap8\n      pop\n      swap8\n      pop\n      swap8\n      pop\n      swap8\n      pop\n      swap8\n      pop\n      pop\n        /* \"contract/vaultswapcore.sol\":9245:9827  function getLoanDetails(uint256 loanId) external view returns (... */\n      swap2\n      swap4\n      swap6\n      swap8\n      swap1\n      swap3\n      swap5\n      swap7\n      pop\n      jump\t// out\n        /* \"@openzeppelin/contracts/access/Ownable.sol\":2293:2394  function renounceOwnership() public virtual onlyOwner {... */\n    tag_89:\n        /* \"@openzeppelin/contracts/access/Ownable.sol\":1531:1544  _checkOwner() */\n      tag_320\n        /* \"@openzeppelin/contracts/access/Ownable.sol\":1531:1542  _checkOwner */\n      tag_263\n        /* \"@openzeppelin/contracts/access/Ownable.sol\":1531:1544  _checkOwner() */\n      jump\t// in\n    tag_320:\n        /* \"@openzeppelin/contracts/access/Ownable.sol\":2357:2387  _transferOwnership(address(0)) */\n      tag_322\n        /* \"@openzeppelin/contracts/access/Ownable.sol\":2384:2385  0 */\n      0x00\n        /* \"@openzeppelin/contracts/access/Ownable.sol\":2357:2375  _transferOwnership */\n      tag_323\n        /* \"@openzeppelin/contracts/access/Ownable.sol\":2357:2387  _transferOwnership(address(0)) */\n      jump\t// in\n    tag_322:\n        /* \"@openzeppelin/contracts/access/Ownable.sol\":2293:2394  function renounceOwnership() public virtual onlyOwner {... */\n      jump\t// out\n        /* \"contract/vaultswapcore.sol\":809:847  AggregatorV3Interface public priceFeed */\n    tag_91:\n      0x04\n      0x00\n      swap1\n      sload\n      swap1\n      0x0100\n      exp\n      swap1\n      div\n      0xffffffffffffffffffffffffffffffffffffffff\n      and\n      dup2\n      jump\t// out\n        /* \"contract/vaultswapcore.sol\":10188:10249  function pause() external onlyOwner {... */\n    tag_95:\n        /* \"@openzeppelin/contracts/access/Ownable.sol\":1531:1544  _checkOwner() */\n      tag_325\n        /* \"@openzeppelin/contracts/access/Ownable.sol\":1531:1542  _checkOwner */\n      tag_263\n        /* \"@openzeppelin/contracts/access/Ownable.sol\":1531:1544  _checkOwner() */\n      jump\t// in\n    tag_325:\n        /* \"contract/vaultswapcore.sol\":10234:10242  _pause() */\n      tag_327\n        /* \"contract/vaultswapcore.sol\":10234:10240  _pause */\n      tag_328\n        /* \"contract/vaultswapcore.sol\":10234:10242  _pause() */\n      jump\t// in\n    tag_327:\n        /* \"contract/vaultswapcore.sol\":10188:10249  function pause() external onlyOwner {... */\n      jump\t// out\n        /* \"@openzeppelin/contracts/access/Ownable.sol\":1638:1723  function owner() public view virtual returns (address) {... */\n    tag_97:\n        /* \"@openzeppelin/contracts/access/Ownable.sol\":1684:1691  address */\n      0x00\n        /* \"@openzeppelin/contracts/access/Ownable.sol\":1710:1716  _owner */\n      0x01\n      0x00\n      swap1\n      sload\n      swap1\n      0x0100\n      exp\n      swap1\n      div\n      0xffffffffffffffffffffffffffffffffffffffff\n      and\n        /* \"@openzeppelin/contracts/access/Ownable.sol\":1703:1716  return _owner */\n      swap1\n      pop\n        /* \"@openzeppelin/contracts/access/Ownable.sol\":1638:1723  function owner() public view virtual returns (address) {... */\n      swap1\n      jump\t// out\n        /* \"contract/vaultswapcore.sol\":2511:2736  function getLatestPrice() public view returns (uint256) {... */\n    tag_101:\n        /* \"contract/vaultswapcore.sol\":2558:2565  uint256 */\n      0x00\n        /* \"contract/vaultswapcore.sol\":2580:2592  int256 price */\n      0x00\n        /* \"contract/vaultswapcore.sol\":2601:2610  priceFeed */\n      0x04\n      0x00\n      swap1\n      sload\n      swap1\n      0x0100\n      exp\n      swap1\n      div\n      0xffffffffffffffffffffffffffffffffffffffff\n      and\n        /* \"contract/vaultswapcore.sol\":2601:2626  priceFeed.latestRoundData */\n      0xffffffffffffffffffffffffffffffffffffffff\n      and\n      0xfeaf968c\n        /* \"contract/vaultswapcore.sol\":2601:2628  priceFeed.latestRoundData() */\n      mload(0x40)\n      dup2\n      0xffffffff\n      and\n      0xe0\n      shl\n      dup2\n      mstore\n      0x04\n      add\n      0xa0\n      mload(0x40)\n      dup1\n      dup4\n      sub\n      dup2\n      dup7\n      gas\n      staticcall\n      iszero\n      dup1\n      iszero\n      tag_332\n      jumpi\n      returndatacopy(0x00, 0x00, returndatasize)\n      revert(0x00, returndatasize)\n    tag_332:\n      pop\n      pop\n      pop\n      pop\n      mload(0x40)\n      returndatasize\n      not(0x1f)\n      0x1f\n      dup3\n      add\n      and\n      dup3\n      add\n      dup1\n      0x40\n      mstore\n      pop\n      dup2\n      add\n      swap1\n      tag_333\n      swap2\n      swap1\n      tag_334\n      jump\t// in\n    tag_333:\n        /* \"contract/vaultswapcore.sol\":2577:2628  (, int256 price, , ,) = priceFeed.latestRoundData() */\n      pop\n      pop\n      pop\n      swap2\n      pop\n      pop\n        /* \"contract/vaultswapcore.sol\":2654:2655  0 */\n      0x00\n        /* \"contract/vaultswapcore.sol\":2646:2651  price */\n      dup2\n        /* \"contract/vaultswapcore.sol\":2646:2655  price > 0 */\n      sgt\n        /* \"contract/vaultswapcore.sol\":2638:2698  require(price > 0, \"Price feed returned non-positive value\") */\n      tag_335\n      jumpi\n      mload(0x40)\n      0x08c379a000000000000000000000000000000000000000000000000000000000\n      dup2\n      mstore\n      0x04\n      add\n      tag_336\n      swap1\n      tag_337\n      jump\t// in\n    tag_336:\n      mload(0x40)\n      dup1\n      swap2\n      sub\n      swap1\n      revert\n    tag_335:\n        /* \"contract/vaultswapcore.sol\":2723:2728  price */\n      dup1\n        /* \"contract/vaultswapcore.sol\":2708:2729  return uint256(price) */\n      swap2\n      pop\n      pop\n        /* \"contract/vaultswapcore.sol\":2511:2736  function getLatestPrice() public view returns (uint256) {... */\n      swap1\n      jump\t// out\n        /* \"contract/vaultswapcore.sol\":751:773  IERC20 public vaultBTC */\n    tag_104:\n      0x02\n      0x00\n      swap1\n      sload\n      swap1\n      0x0100\n      exp\n      swap1\n      div\n      0xffffffffffffffffffffffffffffffffffffffff\n      and\n      dup2\n      jump\t// out\n        /* \"contract/vaultswapcore.sol\":925:976  uint256 public constant LIQUIDATION_THRESHOLD = 120 */\n    tag_108:\n        /* \"contract/vaultswapcore.sol\":973:976  120 */\n      0x78\n        /* \"contract/vaultswapcore.sol\":925:976  uint256 public constant LIQUIDATION_THRESHOLD = 120 */\n      dup2\n      jump\t// out\n        /* \"contract/vaultswapcore.sol\":10334:10495  function emergencyWithdraw(address token, uint256 amount) external onlyOwner {... */\n    tag_113:\n        /* \"@openzeppelin/contracts/access/Ownable.sol\":1531:1544  _checkOwner() */\n      tag_339\n        /* \"@openzeppelin/contracts/access/Ownable.sol\":1531:1542  _checkOwner */\n      tag_263\n        /* \"@openzeppelin/contracts/access/Ownable.sol\":1531:1544  _checkOwner() */\n      jump\t// in\n    tag_339:\n        /* \"contract/vaultswapcore.sol\":10436:10441  token */\n      dup2\n        /* \"contract/vaultswapcore.sol\":10429:10451  IERC20(token).transfer */\n      0xffffffffffffffffffffffffffffffffffffffff\n      and\n      0xa9059cbb\n        /* \"contract/vaultswapcore.sol\":10452:10459  owner() */\n      tag_341\n        /* \"contract/vaultswapcore.sol\":10452:10457  owner */\n      tag_97\n        /* \"contract/vaultswapcore.sol\":10452:10459  owner() */\n      jump\t// in\n    tag_341:\n        /* \"contract/vaultswapcore.sol\":10461:10467  amount */\n      dup4\n        /* \"contract/vaultswapcore.sol\":10429:10468  IERC20(token).transfer(owner(), amount) */\n      mload(0x40)\n      dup4\n      0xffffffff\n      and\n      0xe0\n      shl\n      dup2\n      mstore\n      0x04\n      add\n      tag_342\n      swap3\n      swap2\n      swap1\n      tag_202\n      jump\t// in\n    tag_342:\n      0x20\n      mload(0x40)\n      dup1\n      dup4\n      sub\n      dup2\n      0x00\n      dup8\n      gas\n      call\n      iszero\n      dup1\n      iszero\n      tag_344\n      jumpi\n      returndatacopy(0x00, 0x00, returndatasize)\n      revert(0x00, returndatasize)\n    tag_344:\n      pop\n      pop\n      pop\n      pop\n      mload(0x40)\n      returndatasize\n      not(0x1f)\n      0x1f\n      dup3\n      add\n      and\n      dup3\n      add\n      dup1\n      0x40\n      mstore\n      pop\n      dup2\n      add\n      swap1\n      tag_345\n      swap2\n      swap1\n      tag_191\n      jump\t// in\n    tag_345:\n        /* \"contract/vaultswapcore.sol\":10421:10488  require(IERC20(token).transfer(owner(), amount), \"Withdraw failed\") */\n      tag_346\n      jumpi\n      mload(0x40)\n      0x08c379a000000000000000000000000000000000000000000000000000000000\n      dup2\n      mstore\n      0x04\n      add\n      tag_347\n      swap1\n      tag_348\n      jump\t// in\n    tag_347:\n      mload(0x40)\n      dup1\n      swap2\n      sub\n      swap1\n      revert\n    tag_346:\n        /* \"contract/vaultswapcore.sol\":10334:10495  function emergencyWithdraw(address token, uint256 amount) external onlyOwner {... */\n      pop\n      pop\n      jump\t// out\n        /* \"contract/vaultswapcore.sol\":997:1045  uint256 public constant LIQUIDATION_PENALTY = 10 */\n    tag_115:\n        /* \"contract/vaultswapcore.sol\":1043:1045  10 */\n      0x0a\n        /* \"contract/vaultswapcore.sol\":997:1045  uint256 public constant LIQUIDATION_PENALTY = 10 */\n      dup2\n      jump\t// out\n        /* \"contract/vaultswapcore.sol\":1254:1282  uint256 public loanIdCounter */\n    tag_118:\n      sload(0x08)\n      dup2\n      jump\t// out\n        /* \"contract/vaultswapcore.sol\":8364:8801  function calculateInterest(uint256 loanId) public view returns (uint256) {... */\n    tag_122:\n        /* \"contract/vaultswapcore.sol\":8428:8435  uint256 */\n      0x00\n        /* \"contract/vaultswapcore.sol\":8447:8463  Loan memory loan */\n      0x00\n        /* \"contract/vaultswapcore.sol\":8466:8471  loans */\n      0x09\n        /* \"contract/vaultswapcore.sol\":8466:8479  loans[loanId] */\n      0x00\n        /* \"contract/vaultswapcore.sol\":8472:8478  loanId */\n      dup5\n        /* \"contract/vaultswapcore.sol\":8466:8479  loans[loanId] */\n      dup2\n      mstore\n      0x20\n      add\n      swap1\n      dup2\n      mstore\n      0x20\n      add\n      0x00\n      keccak256\n        /* \"contract/vaultswapcore.sol\":8447:8479  Loan memory loan = loans[loanId] */\n      mload(0x40)\n      dup1\n      0x0100\n      add\n      0x40\n      mstore\n      swap1\n      dup2\n      0x00\n      dup3\n      add\n      sload\n      dup2\n      mstore\n      0x20\n      add\n      0x01\n      dup3\n      add\n      0x00\n      swap1\n      sload\n      swap1\n      0x0100\n      exp\n      swap1\n      div\n      0xffffffffffffffffffffffffffffffffffffffff\n      and\n      0xffffffffffffffffffffffffffffffffffffffff\n      and\n      0xffffffffffffffffffffffffffffffffffffffff\n      and\n      dup2\n      mstore\n      0x20\n      add\n      0x02\n      dup3\n      add\n      sload\n      dup2\n      mstore\n      0x20\n      add\n      0x03\n      dup3\n      add\n      sload\n      dup2\n      mstore\n      0x20\n      add\n      0x04\n      dup3\n      add\n      sload\n      dup2\n      mstore\n      0x20\n      add\n      0x05\n      dup3\n      add\n      sload\n      dup2\n      mstore\n      0x20\n      add\n      0x06\n      dup3\n      add\n      sload\n      dup2\n      mstore\n      0x20\n      add\n      0x07\n      dup3\n      add\n      0x00\n      swap1\n      sload\n      swap1\n      0x0100\n      exp\n      swap1\n      div\n      0xff\n      and\n      iszero\n      iszero\n      iszero\n      iszero\n      dup2\n      mstore\n      pop\n      pop\n      swap1\n      pop\n        /* \"contract/vaultswapcore.sol\":8494:8498  loan */\n      dup1\n        /* \"contract/vaultswapcore.sol\":8494:8507  loan.isActive */\n      0xe0\n      add\n      mload\n        /* \"contract/vaultswapcore.sol\":8489:8517  if (!loan.isActive) return 0 */\n      tag_350\n      jumpi\n        /* \"contract/vaultswapcore.sol\":8516:8517  0 */\n      0x00\n        /* \"contract/vaultswapcore.sol\":8509:8517  return 0 */\n      swap2\n      pop\n      pop\n      jump(tag_349)\n        /* \"contract/vaultswapcore.sol\":8489:8517  if (!loan.isActive) return 0 */\n    tag_350:\n        /* \"contract/vaultswapcore.sol\":8536:8555  uint256 timeElapsed */\n      0x00\n        /* \"contract/vaultswapcore.sol\":8576:8580  loan */\n      dup2\n        /* \"contract/vaultswapcore.sol\":8576:8599  loan.lastInterestUpdate */\n      0xc0\n      add\n      mload\n        /* \"contract/vaultswapcore.sol\":8558:8573  block.timestamp */\n      timestamp\n        /* \"contract/vaultswapcore.sol\":8558:8599  block.timestamp - loan.lastInterestUpdate */\n      tag_351\n      swap2\n      swap1\n      tag_257\n      jump\t// in\n    tag_351:\n        /* \"contract/vaultswapcore.sol\":8536:8599  uint256 timeElapsed = block.timestamp - loan.lastInterestUpdate */\n      swap1\n      pop\n        /* \"contract/vaultswapcore.sol\":8609:8631  uint256 yearlyInterest */\n      0x00\n        /* \"contract/vaultswapcore.sol\":1097:1102  10000 */\n      0x2710\n        /* \"contract/vaultswapcore.sol\":8657:8661  loan */\n      dup4\n        /* \"contract/vaultswapcore.sol\":8657:8674  loan.interestRate */\n      0x80\n      add\n      mload\n        /* \"contract/vaultswapcore.sol\":8635:8639  loan */\n      dup5\n        /* \"contract/vaultswapcore.sol\":8635:8654  loan.borrowedAmount */\n      0x60\n      add\n      mload\n        /* \"contract/vaultswapcore.sol\":8635:8674  loan.borrowedAmount * loan.interestRate */\n      tag_352\n      swap2\n      swap1\n      tag_223\n      jump\t// in\n    tag_352:\n        /* \"contract/vaultswapcore.sol\":8634:8690  (loan.borrowedAmount * loan.interestRate) / BASIS_POINTS */\n      tag_353\n      swap2\n      swap1\n      tag_225\n      jump\t// in\n    tag_353:\n        /* \"contract/vaultswapcore.sol\":8609:8690  uint256 yearlyInterest = (loan.borrowedAmount * loan.interestRate) / BASIS_POINTS */\n      swap1\n      pop\n        /* \"contract/vaultswapcore.sol\":8700:8716  uint256 interest */\n      0x00\n        /* \"contract/vaultswapcore.sol\":8752:8760  365 days */\n      0x01e13380\n        /* \"contract/vaultswapcore.sol\":8737:8748  timeElapsed */\n      dup4\n        /* \"contract/vaultswapcore.sol\":8720:8734  yearlyInterest */\n      dup4\n        /* \"contract/vaultswapcore.sol\":8720:8748  yearlyInterest * timeElapsed */\n      tag_354\n      swap2\n      swap1\n      tag_223\n      jump\t// in\n    tag_354:\n        /* \"contract/vaultswapcore.sol\":8719:8760  (yearlyInterest * timeElapsed) / 365 days */\n      tag_355\n      swap2\n      swap1\n      tag_225\n      jump\t// in\n    tag_355:\n        /* \"contract/vaultswapcore.sol\":8700:8760  uint256 interest = (yearlyInterest * timeElapsed) / 365 days */\n      swap1\n      pop\n        /* \"contract/vaultswapcore.sol\":8786:8794  interest */\n      dup1\n        /* \"contract/vaultswapcore.sol\":8779:8794  return interest */\n      swap5\n      pop\n      pop\n      pop\n      pop\n      pop\n        /* \"contract/vaultswapcore.sol\":8364:8801  function calculateInterest(uint256 loanId) public view returns (uint256) {... */\n    tag_349:\n      swap2\n      swap1\n      pop\n      jump\t// out\n        /* \"contract/vaultswapcore.sol\":7046:7669  function addCollateral(uint256 loanId, uint256 amount) external nonReentrant {... */\n    tag_126:\n        /* \"@openzeppelin/contracts/security/ReentrancyGuard.sol\":2261:2282  _nonReentrantBefore() */\n      tag_357\n        /* \"@openzeppelin/contracts/security/ReentrancyGuard.sol\":2261:2280  _nonReentrantBefore */\n      tag_156\n        /* \"@openzeppelin/contracts/security/ReentrancyGuard.sol\":2261:2282  _nonReentrantBefore() */\n      jump\t// in\n    tag_357:\n        /* \"contract/vaultswapcore.sol\":7133:7150  Loan storage loan */\n      0x00\n        /* \"contract/vaultswapcore.sol\":7153:7158  loans */\n      0x09\n        /* \"contract/vaultswapcore.sol\":7153:7166  loans[loanId] */\n      0x00\n        /* \"contract/vaultswapcore.sol\":7159:7165  loanId */\n      dup5\n        /* \"contract/vaultswapcore.sol\":7153:7166  loans[loanId] */\n      dup2\n      mstore\n      0x20\n      add\n      swap1\n      dup2\n      mstore\n      0x20\n      add\n      0x00\n      keccak256\n        /* \"contract/vaultswapcore.sol\":7133:7166  Loan storage loan = loans[loanId] */\n      swap1\n      pop\n        /* \"contract/vaultswapcore.sol\":7184:7188  loan */\n      dup1\n        /* \"contract/vaultswapcore.sol\":7184:7197  loan.isActive */\n      0x07\n      add\n      0x00\n      swap1\n      sload\n      swap1\n      0x0100\n      exp\n      swap1\n      div\n      0xff\n      and\n        /* \"contract/vaultswapcore.sol\":7176:7217  require(loan.isActive, \"Loan not active\") */\n      tag_359\n      jumpi\n      mload(0x40)\n      0x08c379a000000000000000000000000000000000000000000000000000000000\n      dup2\n      mstore\n      0x04\n      add\n      tag_360\n      swap1\n      tag_236\n      jump\t// in\n    tag_360:\n      mload(0x40)\n      dup1\n      swap2\n      sub\n      swap1\n      revert\n    tag_359:\n        /* \"contract/vaultswapcore.sol\":7252:7262  msg.sender */\n      caller\n        /* \"contract/vaultswapcore.sol\":7235:7262  loan.borrower == msg.sender */\n      0xffffffffffffffffffffffffffffffffffffffff\n      and\n        /* \"contract/vaultswapcore.sol\":7235:7239  loan */\n      dup2\n        /* \"contract/vaultswapcore.sol\":7235:7248  loan.borrower */\n      0x01\n      add\n      0x00\n      swap1\n      sload\n      swap1\n      0x0100\n      exp\n      swap1\n      div\n      0xffffffffffffffffffffffffffffffffffffffff\n      and\n        /* \"contract/vaultswapcore.sol\":7235:7262  loan.borrower == msg.sender */\n      0xffffffffffffffffffffffffffffffffffffffff\n      and\n      eq\n        /* \"contract/vaultswapcore.sol\":7227:7281  require(loan.borrower == msg.sender, \"Not loan owner\") */\n      tag_361\n      jumpi\n      mload(0x40)\n      0x08c379a000000000000000000000000000000000000000000000000000000000\n      dup2\n      mstore\n      0x04\n      add\n      tag_362\n      swap1\n      tag_239\n      jump\t// in\n    tag_362:\n      mload(0x40)\n      dup1\n      swap2\n      sub\n      swap1\n      revert\n    tag_361:\n        /* \"contract/vaultswapcore.sol\":7308:7309  0 */\n      0x00\n        /* \"contract/vaultswapcore.sol\":7299:7305  amount */\n      dup3\n        /* \"contract/vaultswapcore.sol\":7299:7309  amount > 0 */\n      gt\n        /* \"contract/vaultswapcore.sol\":7291:7332  require(amount > 0, \"Amount must be > 0\") */\n      tag_363\n      jumpi\n      mload(0x40)\n      0x08c379a000000000000000000000000000000000000000000000000000000000\n      dup2\n      mstore\n      0x04\n      add\n      tag_364\n      swap1\n      tag_365\n      jump\t// in\n    tag_364:\n      mload(0x40)\n      dup1\n      swap2\n      sub\n      swap1\n      revert\n    tag_363:\n        /* \"contract/vaultswapcore.sol\":7414:7422  vaultBTC */\n      0x02\n      0x00\n      swap1\n      sload\n      swap1\n      0x0100\n      exp\n      swap1\n      div\n      0xffffffffffffffffffffffffffffffffffffffff\n      and\n        /* \"contract/vaultswapcore.sol\":7414:7435  vaultBTC.transferFrom */\n      0xffffffffffffffffffffffffffffffffffffffff\n      and\n      0x23b872dd\n        /* \"contract/vaultswapcore.sol\":7436:7446  msg.sender */\n      caller\n        /* \"contract/vaultswapcore.sol\":7456:7460  this */\n      address\n        /* \"contract/vaultswapcore.sol\":7463:7469  amount */\n      dup6\n        /* \"contract/vaultswapcore.sol\":7414:7470  vaultBTC.transferFrom(msg.sender, address(this), amount) */\n      mload(0x40)\n      dup5\n      0xffffffff\n      and\n      0xe0\n      shl\n      dup2\n      mstore\n      0x04\n      add\n      tag_366\n      swap4\n      swap3\n      swap2\n      swap1\n      tag_187\n      jump\t// in\n    tag_366:\n      0x20\n      mload(0x40)\n      dup1\n      dup4\n      sub\n      dup2\n      0x00\n      dup8\n      gas\n      call\n      iszero\n      dup1\n      iszero\n      tag_368\n      jumpi\n      returndatacopy(0x00, 0x00, returndatasize)\n      revert(0x00, returndatasize)\n    tag_368:\n      pop\n      pop\n      pop\n      pop\n      mload(0x40)\n      returndatasize\n      not(0x1f)\n      0x1f\n      dup3\n      add\n      and\n      dup3\n      add\n      dup1\n      0x40\n      mstore\n      pop\n      dup2\n      add\n      swap1\n      tag_369\n      swap2\n      swap1\n      tag_191\n      jump\t// in\n    tag_369:\n        /* \"contract/vaultswapcore.sol\":7393:7522  require(... */\n      tag_370\n      jumpi\n      mload(0x40)\n      0x08c379a000000000000000000000000000000000000000000000000000000000\n      dup2\n      mstore\n      0x04\n      add\n      tag_371\n      swap1\n      tag_194\n      jump\t// in\n    tag_371:\n      mload(0x40)\n      dup1\n      swap2\n      sub\n      swap1\n      revert\n    tag_370:\n        /* \"contract/vaultswapcore.sol\":7566:7572  amount */\n      dup2\n        /* \"contract/vaultswapcore.sol\":7541:7545  loan */\n      dup2\n        /* \"contract/vaultswapcore.sol\":7541:7562  loan.collateralAmount */\n      0x02\n      add\n      0x00\n        /* \"contract/vaultswapcore.sol\":7541:7572  loan.collateralAmount += amount */\n      dup3\n      dup3\n      sload\n      tag_372\n      swap2\n      swap1\n      tag_199\n      jump\t// in\n    tag_372:\n      swap3\n      pop\n      pop\n      dup2\n      swap1\n      sstore\n      pop\n        /* \"contract/vaultswapcore.sol\":7601:7607  amount */\n      dup2\n        /* \"contract/vaultswapcore.sol\":7582:7597  totalCollateral */\n      0x07\n      0x00\n        /* \"contract/vaultswapcore.sol\":7582:7607  totalCollateral += amount */\n      dup3\n      dup3\n      sload\n      tag_373\n      swap2\n      swap1\n      tag_199\n      jump\t// in\n    tag_373:\n      swap3\n      pop\n      pop\n      dup2\n      swap1\n      sstore\n      pop\n        /* \"contract/vaultswapcore.sol\":7647:7653  loanId */\n      dup3\n        /* \"contract/vaultswapcore.sol\":7631:7662  CollateralAdded(loanId, amount) */\n      0x244160b15e69cc411f041d94ae7fab6f6bba85dade8403216c05ff4b920d5449\n        /* \"contract/vaultswapcore.sol\":7655:7661  amount */\n      dup4\n        /* \"contract/vaultswapcore.sol\":7631:7662  CollateralAdded(loanId, amount) */\n      mload(0x40)\n      tag_374\n      swap2\n      swap1\n      tag_52\n      jump\t// in\n    tag_374:\n      mload(0x40)\n      dup1\n      swap2\n      sub\n      swap1\n      log2\n        /* \"contract/vaultswapcore.sol\":7123:7669  {... */\n      pop\n        /* \"@openzeppelin/contracts/security/ReentrancyGuard.sol\":2303:2323  _nonReentrantAfter() */\n      tag_375\n        /* \"@openzeppelin/contracts/security/ReentrancyGuard.sol\":2303:2321  _nonReentrantAfter */\n      tag_212\n        /* \"@openzeppelin/contracts/security/ReentrancyGuard.sol\":2303:2323  _nonReentrantAfter() */\n      jump\t// in\n    tag_375:\n        /* \"contract/vaultswapcore.sol\":7046:7669  function addCollateral(uint256 loanId, uint256 amount) external nonReentrant {... */\n      pop\n      pop\n      jump\t// out\n        /* \"contract/vaultswapcore.sol\":1113:1150  uint256 public baseInterestRate = 550 */\n    tag_128:\n      sload(0x05)\n      dup2\n      jump\t// out\n        /* \"contract/vaultswapcore.sol\":1336:1382  mapping(address => uint256[]) public userLoans */\n    tag_132:\n      mstore(0x20, 0x0a)\n      dup2\n      0x00\n      mstore\n      keccak256(0x00, 0x40)\n      dup2\n      dup2\n      sload\n      dup2\n      lt\n      tag_376\n      jumpi\n      0x00\n      dup1\n      revert\n    tag_376:\n      swap1\n      0x00\n      mstore\n      keccak256(0x00, 0x20)\n      add\n      0x00\n      swap2\n      pop\n      swap2\n      pop\n      pop\n      sload\n      dup2\n      jump\t// out\n        /* \"contract/vaultswapcore.sol\":858:904  uint256 public constant COLLATERAL_RATIO = 150 */\n    tag_135:\n        /* \"contract/vaultswapcore.sol\":901:904  150 */\n      0x96\n        /* \"contract/vaultswapcore.sol\":858:904  uint256 public constant COLLATERAL_RATIO = 150 */\n      dup2\n      jump\t// out\n        /* \"contract/vaultswapcore.sol\":1293:1330  mapping(uint256 => Loan) public loans */\n    tag_139:\n      mstore(0x20, 0x09)\n      dup1\n      0x00\n      mstore\n      keccak256(0x00, 0x40)\n      0x00\n      swap2\n      pop\n      swap1\n      pop\n      dup1\n      0x00\n      add\n      sload\n      swap1\n      dup1\n      0x01\n      add\n      0x00\n      swap1\n      sload\n      swap1\n      0x0100\n      exp\n      swap1\n      div\n      0xffffffffffffffffffffffffffffffffffffffff\n      and\n      swap1\n      dup1\n      0x02\n      add\n      sload\n      swap1\n      dup1\n      0x03\n      add\n      sload\n      swap1\n      dup1\n      0x04\n      add\n      sload\n      swap1\n      dup1\n      0x05\n      add\n      sload\n      swap1\n      dup1\n      0x06\n      add\n      sload\n      swap1\n      dup1\n      0x07\n      add\n      0x00\n      swap1\n      sload\n      swap1\n      0x0100\n      exp\n      swap1\n      div\n      0xff\n      and\n      swap1\n      pop\n      dup9\n      jump\t// out\n        /* \"contract/vaultswapcore.sol\":1058:1102  uint256 public constant BASIS_POINTS = 10000 */\n    tag_143:\n        /* \"contract/vaultswapcore.sol\":1097:1102  10000 */\n      0x2710\n        /* \"contract/vaultswapcore.sol\":1058:1102  uint256 public constant BASIS_POINTS = 10000 */\n      dup2\n      jump\t// out\n        /* \"contract/vaultswapcore.sol\":779:803  IERC20 public stablecoin */\n    tag_146:\n      0x03\n      0x00\n      swap1\n      sload\n      swap1\n      0x0100\n      exp\n      swap1\n      div\n      0xffffffffffffffffffffffffffffffffffffffff\n      and\n      dup2\n      jump\t// out\n        /* \"@openzeppelin/contracts/access/Ownable.sol\":2543:2758  function transferOwnership(address newOwner) public virtual onlyOwner {... */\n    tag_150:\n        /* \"@openzeppelin/contracts/access/Ownable.sol\":1531:1544  _checkOwner() */\n      tag_379\n        /* \"@openzeppelin/contracts/access/Ownable.sol\":1531:1542  _checkOwner */\n      tag_263\n        /* \"@openzeppelin/contracts/access/Ownable.sol\":1531:1544  _checkOwner() */\n      jump\t// in\n    tag_379:\n        /* \"@openzeppelin/contracts/access/Ownable.sol\":2647:2648  0 */\n      0x00\n        /* \"@openzeppelin/contracts/access/Ownable.sol\":2627:2649  newOwner == address(0) */\n      0xffffffffffffffffffffffffffffffffffffffff\n      and\n        /* \"@openzeppelin/contracts/access/Ownable.sol\":2627:2635  newOwner */\n      dup2\n        /* \"@openzeppelin/contracts/access/Ownable.sol\":2627:2649  newOwner == address(0) */\n      0xffffffffffffffffffffffffffffffffffffffff\n      and\n      sub\n        /* \"@openzeppelin/contracts/access/Ownable.sol\":2623:2714  if (newOwner == address(0)) {... */\n      tag_381\n      jumpi\n        /* \"@openzeppelin/contracts/access/Ownable.sol\":2700:2701  0 */\n      0x00\n        /* \"@openzeppelin/contracts/access/Ownable.sol\":2672:2703  OwnableInvalidOwner(address(0)) */\n      mload(0x40)\n      0x1e4fbdf700000000000000000000000000000000000000000000000000000000\n      dup2\n      mstore\n      0x04\n      add\n      tag_382\n      swap2\n      swap1\n      tag_99\n      jump\t// in\n    tag_382:\n      mload(0x40)\n      dup1\n      swap2\n      sub\n      swap1\n      revert\n        /* \"@openzeppelin/contracts/access/Ownable.sol\":2623:2714  if (newOwner == address(0)) {... */\n    tag_381:\n        /* \"@openzeppelin/contracts/access/Ownable.sol\":2723:2751  _transferOwnership(newOwner) */\n      tag_383\n        /* \"@openzeppelin/contracts/access/Ownable.sol\":2742:2750  newOwner */\n      dup2\n        /* \"@openzeppelin/contracts/access/Ownable.sol\":2723:2741  _transferOwnership */\n      tag_323\n        /* \"@openzeppelin/contracts/access/Ownable.sol\":2723:2751  _transferOwnership(newOwner) */\n      jump\t// in\n    tag_383:\n        /* \"@openzeppelin/contracts/access/Ownable.sol\":2543:2758  function transferOwnership(address newOwner) public virtual onlyOwner {... */\n      pop\n      jump\t// out\n        /* \"@openzeppelin/contracts/security/ReentrancyGuard.sol\":2336:2623  function _nonReentrantBefore() private {... */\n    tag_156:\n        /* \"@openzeppelin/contracts/security/ReentrancyGuard.sol\":1759:1760  2 */\n      0x02\n        /* \"@openzeppelin/contracts/security/ReentrancyGuard.sol\":2468:2475  _status */\n      sload(0x00)\n        /* \"@openzeppelin/contracts/security/ReentrancyGuard.sol\":2468:2487  _status != _ENTERED */\n      sub\n        /* \"@openzeppelin/contracts/security/ReentrancyGuard.sol\":2460:2523  require(_status != _ENTERED, \"ReentrancyGuard: reentrant call\") */\n      tag_385\n      jumpi\n      mload(0x40)\n      0x08c379a000000000000000000000000000000000000000000000000000000000\n      dup2\n      mstore\n      0x04\n      add\n      tag_386\n      swap1\n      tag_387\n      jump\t// in\n    tag_386:\n      mload(0x40)\n      dup1\n      swap2\n      sub\n      swap1\n      revert\n    tag_385:\n        /* \"@openzeppelin/contracts/security/ReentrancyGuard.sol\":1759:1760  2 */\n      0x02\n        /* \"@openzeppelin/contracts/security/ReentrancyGuard.sol\":2598:2605  _status */\n      0x00\n        /* \"@openzeppelin/contracts/security/ReentrancyGuard.sol\":2598:2616  _status = _ENTERED */\n      dup2\n      swap1\n      sstore\n      pop\n        /* \"@openzeppelin/contracts/security/ReentrancyGuard.sol\":2336:2623  function _nonReentrantBefore() private {... */\n      jump\t// out\n        /* \"@openzeppelin/contracts/security/Pausable.sol\":1767:1873  function _requireNotPaused() internal view virtual {... */\n    tag_159:\n        /* \"@openzeppelin/contracts/security/Pausable.sol\":1837:1845  paused() */\n      tag_389\n        /* \"@openzeppelin/contracts/security/Pausable.sol\":1837:1843  paused */\n      tag_73\n        /* \"@openzeppelin/contracts/security/Pausable.sol\":1837:1845  paused() */\n      jump\t// in\n    tag_389:\n        /* \"@openzeppelin/contracts/security/Pausable.sol\":1836:1845  !paused() */\n      iszero\n        /* \"@openzeppelin/contracts/security/Pausable.sol\":1828:1866  require(!paused(), \"Pausable: paused\") */\n      tag_390\n      jumpi\n      mload(0x40)\n      0x08c379a000000000000000000000000000000000000000000000000000000000\n      dup2\n      mstore\n      0x04\n      add\n      tag_391\n      swap1\n      tag_392\n      jump\t// in\n    tag_391:\n      mload(0x40)\n      dup1\n      swap2\n      sub\n      swap1\n      revert\n    tag_390:\n        /* \"@openzeppelin/contracts/security/Pausable.sol\":1767:1873  function _requireNotPaused() internal view virtual {... */\n      jump\t// out\n        /* \"@openzeppelin/contracts/security/ReentrancyGuard.sol\":2629:2838  function _nonReentrantAfter() private {... */\n    tag_212:\n        /* \"@openzeppelin/contracts/security/ReentrancyGuard.sol\":1716:1717  1 */\n      0x01\n        /* \"@openzeppelin/contracts/security/ReentrancyGuard.sol\":2809:2816  _status */\n      0x00\n        /* \"@openzeppelin/contracts/security/ReentrancyGuard.sol\":2809:2831  _status = _NOT_ENTERED */\n      dup2\n      swap1\n      sstore\n      pop\n        /* \"@openzeppelin/contracts/security/ReentrancyGuard.sol\":2629:2838  function _nonReentrantAfter() private {... */\n      jump\t// out\n        /* \"@openzeppelin/contracts/access/Ownable.sol\":1796:1958  function _checkOwner() internal view virtual {... */\n    tag_263:\n        /* \"@openzeppelin/contracts/access/Ownable.sol\":1866:1878  _msgSender() */\n      tag_395\n        /* \"@openzeppelin/contracts/access/Ownable.sol\":1866:1876  _msgSender */\n      tag_396\n        /* \"@openzeppelin/contracts/access/Ownable.sol\":1866:1878  _msgSender() */\n      jump\t// in\n    tag_395:\n        /* \"@openzeppelin/contracts/access/Ownable.sol\":1855:1878  owner() != _msgSender() */\n      0xffffffffffffffffffffffffffffffffffffffff\n      and\n        /* \"@openzeppelin/contracts/access/Ownable.sol\":1855:1862  owner() */\n      tag_397\n        /* \"@openzeppelin/contracts/access/Ownable.sol\":1855:1860  owner */\n      tag_97\n        /* \"@openzeppelin/contracts/access/Ownable.sol\":1855:1862  owner() */\n      jump\t// in\n    tag_397:\n        /* \"@openzeppelin/contracts/access/Ownable.sol\":1855:1878  owner() != _msgSender() */\n      0xffffffffffffffffffffffffffffffffffffffff\n      and\n      eq\n        /* \"@openzeppelin/contracts/access/Ownable.sol\":1851:1952  if (owner() != _msgSender()) {... */\n      tag_398\n      jumpi\n        /* \"@openzeppelin/contracts/access/Ownable.sol\":1928:1940  _msgSender() */\n      tag_399\n        /* \"@openzeppelin/contracts/access/Ownable.sol\":1928:1938  _msgSender */\n      tag_396\n        /* \"@openzeppelin/contracts/access/Ownable.sol\":1928:1940  _msgSender() */\n      jump\t// in\n    tag_399:\n        /* \"@openzeppelin/contracts/access/Ownable.sol\":1901:1941  OwnableUnauthorizedAccount(_msgSender()) */\n      mload(0x40)\n      0x118cdaa700000000000000000000000000000000000000000000000000000000\n      dup2\n      mstore\n      0x04\n      add\n      tag_400\n      swap2\n      swap1\n      tag_99\n      jump\t// in\n    tag_400:\n      mload(0x40)\n      dup1\n      swap2\n      sub\n      swap1\n      revert\n        /* \"@openzeppelin/contracts/access/Ownable.sol\":1851:1952  if (owner() != _msgSender()) {... */\n    tag_398:\n        /* \"@openzeppelin/contracts/access/Ownable.sol\":1796:1958  function _checkOwner() internal view virtual {... */\n      jump\t// out\n        /* \"@openzeppelin/contracts/security/Pausable.sol\":2433:2550  function _unpause() internal virtual whenPaused {... */\n    tag_266:\n        /* \"@openzeppelin/contracts/security/Pausable.sol\":1486:1502  _requirePaused() */\n      tag_402\n        /* \"@openzeppelin/contracts/security/Pausable.sol\":1486:1500  _requirePaused */\n      tag_403\n        /* \"@openzeppelin/contracts/security/Pausable.sol\":1486:1502  _requirePaused() */\n      jump\t// in\n    tag_402:\n        /* \"@openzeppelin/contracts/security/Pausable.sol\":2501:2506  false */\n      0x00\n        /* \"@openzeppelin/contracts/security/Pausable.sol\":2491:2498  _paused */\n      0x01\n      0x14\n        /* \"@openzeppelin/contracts/security/Pausable.sol\":2491:2506  _paused = false */\n      0x0100\n      exp\n      dup2\n      sload\n      dup2\n      0xff\n      mul\n      not\n      and\n      swap1\n      dup4\n      iszero\n      iszero\n      mul\n      or\n      swap1\n      sstore\n      pop\n        /* \"@openzeppelin/contracts/security/Pausable.sol\":2521:2543  Unpaused(_msgSender()) */\n      0x5db9ee0a495bf2e6ff9c91a7834c1ba4fdd244a5e8aa4e537bd38aeae4b073aa\n        /* \"@openzeppelin/contracts/security/Pausable.sol\":2530:2542  _msgSender() */\n      tag_405\n        /* \"@openzeppelin/contracts/security/Pausable.sol\":2530:2540  _msgSender */\n      tag_396\n        /* \"@openzeppelin/contracts/security/Pausable.sol\":2530:2542  _msgSender() */\n      jump\t// in\n    tag_405:\n        /* \"@openzeppelin/contracts/security/Pausable.sol\":2521:2543  Unpaused(_msgSender()) */\n      mload(0x40)\n      tag_406\n      swap2\n      swap1\n      tag_99\n      jump\t// in\n    tag_406:\n      mload(0x40)\n      dup1\n      swap2\n      sub\n      swap1\n      log1\n        /* \"@openzeppelin/contracts/security/Pausable.sol\":2433:2550  function _unpause() internal virtual whenPaused {... */\n      jump\t// out\n        /* \"@openzeppelin/contracts/access/Ownable.sol\":2912:3099  function _transferOwnership(address newOwner) internal virtual {... */\n    tag_323:\n        /* \"@openzeppelin/contracts/access/Ownable.sol\":2985:3001  address oldOwner */\n      0x00\n        /* \"@openzeppelin/contracts/access/Ownable.sol\":3004:3010  _owner */\n      0x01\n      0x00\n      swap1\n      sload\n      swap1\n      0x0100\n      exp\n      swap1\n      div\n      0xffffffffffffffffffffffffffffffffffffffff\n      and\n        /* \"@openzeppelin/contracts/access/Ownable.sol\":2985:3010  address oldOwner = _owner */\n      swap1\n      pop\n        /* \"@openzeppelin/contracts/access/Ownable.sol\":3029:3037  newOwner */\n      dup2\n        /* \"@openzeppelin/contracts/access/Ownable.sol\":3020:3026  _owner */\n      0x01\n      0x00\n        /* \"@openzeppelin/contracts/access/Ownable.sol\":3020:3037  _owner = newOwner */\n      0x0100\n      exp\n      dup2\n      sload\n      dup2\n      0xffffffffffffffffffffffffffffffffffffffff\n      mul\n      not\n      and\n      swap1\n      dup4\n      0xffffffffffffffffffffffffffffffffffffffff\n      and\n      mul\n      or\n      swap1\n      sstore\n      pop\n        /* \"@openzeppelin/contracts/access/Ownable.sol\":3083:3091  newOwner */\n      dup2\n        /* \"@openzeppelin/contracts/access/Ownable.sol\":3052:3092  OwnershipTransferred(oldOwner, newOwner) */\n      0xffffffffffffffffffffffffffffffffffffffff\n      and\n        /* \"@openzeppelin/contracts/access/Ownable.sol\":3073:3081  oldOwner */\n      dup2\n        /* \"@openzeppelin/contracts/access/Ownable.sol\":3052:3092  OwnershipTransferred(oldOwner, newOwner) */\n      0xffffffffffffffffffffffffffffffffffffffff\n      and\n      0x8be0079c531659141344cd1fd0a4f28419497f9722a3daafe3b4186f6b6457e0\n      mload(0x40)\n      mload(0x40)\n      dup1\n      swap2\n      sub\n      swap1\n      log3\n        /* \"@openzeppelin/contracts/access/Ownable.sol\":2975:3099  {... */\n      pop\n        /* \"@openzeppelin/contracts/access/Ownable.sol\":2912:3099  function _transferOwnership(address newOwner) internal virtual {... */\n      pop\n      jump\t// out\n        /* \"@openzeppelin/contracts/security/Pausable.sol\":2186:2301  function _pause() internal virtual whenNotPaused {... */\n    tag_328:\n        /* \"@openzeppelin/contracts/security/Pausable.sol\":1239:1258  _requireNotPaused() */\n      tag_409\n        /* \"@openzeppelin/contracts/security/Pausable.sol\":1239:1256  _requireNotPaused */\n      tag_159\n        /* \"@openzeppelin/contracts/security/Pausable.sol\":1239:1258  _requireNotPaused() */\n      jump\t// in\n    tag_409:\n        /* \"@openzeppelin/contracts/security/Pausable.sol\":2255:2259  true */\n      0x01\n        /* \"@openzeppelin/contracts/security/Pausable.sol\":2245:2252  _paused */\n      dup1\n      0x14\n        /* \"@openzeppelin/contracts/security/Pausable.sol\":2245:2259  _paused = true */\n      0x0100\n      exp\n      dup2\n      sload\n      dup2\n      0xff\n      mul\n      not\n      and\n      swap1\n      dup4\n      iszero\n      iszero\n      mul\n      or\n      swap1\n      sstore\n      pop\n        /* \"@openzeppelin/contracts/security/Pausable.sol\":2274:2294  Paused(_msgSender()) */\n      0x62e78cea01bee320cd4e420270b5ea74000d11b0c9f74754ebdbfc544b05a258\n        /* \"@openzeppelin/contracts/security/Pausable.sol\":2281:2293  _msgSender() */\n      tag_411\n        /* \"@openzeppelin/contracts/security/Pausable.sol\":2281:2291  _msgSender */\n      tag_396\n        /* \"@openzeppelin/contracts/security/Pausable.sol\":2281:2293  _msgSender() */\n      jump\t// in\n    tag_411:\n        /* \"@openzeppelin/contracts/security/Pausable.sol\":2274:2294  Paused(_msgSender()) */\n      mload(0x40)\n      tag_412\n      swap2\n      swap1\n      tag_99\n      jump\t// in\n    tag_412:\n      mload(0x40)\n      dup1\n      swap2\n      sub\n      swap1\n      log1\n        /* \"@openzeppelin/contracts/security/Pausable.sol\":2186:2301  function _pause() internal virtual whenNotPaused {... */\n      jump\t// out\n        /* \"@openzeppelin/contracts/utils/Context.sol\":656:752  function _msgSender() internal view virtual returns (address) {... */\n    tag_396:\n        /* \"@openzeppelin/contracts/utils/Context.sol\":709:716  address */\n      0x00\n        /* \"@openzeppelin/contracts/utils/Context.sol\":735:745  msg.sender */\n      caller\n        /* \"@openzeppelin/contracts/utils/Context.sol\":728:745  return msg.sender */\n      swap1\n      pop\n        /* \"@openzeppelin/contracts/utils/Context.sol\":656:752  function _msgSender() internal view virtual returns (address) {... */\n      swap1\n      jump\t// out\n        /* \"@openzeppelin/contracts/security/Pausable.sol\":1945:2051  function _requirePaused() internal view virtual {... */\n    tag_403:\n        /* \"@openzeppelin/contracts/security/Pausable.sol\":2011:2019  paused() */\n      tag_415\n        /* \"@openzeppelin/contracts/security/Pausable.sol\":2011:2017  paused */\n      tag_73\n        /* \"@openzeppelin/contracts/security/Pausable.sol\":2011:2019  paused() */\n      jump\t// in\n    tag_415:\n        /* \"@openzeppelin/contracts/security/Pausable.sol\":2003:2044  require(paused(), \"Pausable: not paused\") */\n      tag_416\n      jumpi\n      mload(0x40)\n      0x08c379a000000000000000000000000000000000000000000000000000000000\n      dup2\n      mstore\n      0x04\n      add\n      tag_417\n      swap1\n      tag_418\n      jump\t// in\n    tag_417:\n      mload(0x40)\n      dup1\n      swap2\n      sub\n      swap1\n      revert\n    tag_416:\n        /* \"@openzeppelin/contracts/security/Pausable.sol\":1945:2051  function _requirePaused() internal view virtual {... */\n      jump\t// out\n        /* \"#utility.yul\":88:205   */\n    tag_420:\n        /* \"#utility.yul\":197:198   */\n      0x00\n        /* \"#utility.yul\":194:195   */\n      0x00\n        /* \"#utility.yul\":187:199   */\n      revert\n        /* \"#utility.yul\":334:460   */\n    tag_422:\n        /* \"#utility.yul\":371:378   */\n      0x00\n        /* \"#utility.yul\":411:453   */\n      0xffffffffffffffffffffffffffffffffffffffff\n        /* \"#utility.yul\":404:409   */\n      dup3\n        /* \"#utility.yul\":400:454   */\n      and\n        /* \"#utility.yul\":389:454   */\n      swap1\n      pop\n        /* \"#utility.yul\":334:460   */\n      swap2\n      swap1\n      pop\n      jump\t// out\n        /* \"#utility.yul\":466:562   */\n    tag_423:\n        /* \"#utility.yul\":503:510   */\n      0x00\n        /* \"#utility.yul\":532:556   */\n      tag_511\n        /* \"#utility.yul\":550:555   */\n      dup3\n        /* \"#utility.yul\":532:556   */\n      tag_422\n      jump\t// in\n    tag_511:\n        /* \"#utility.yul\":521:556   */\n      swap1\n      pop\n        /* \"#utility.yul\":466:562   */\n      swap2\n      swap1\n      pop\n      jump\t// out\n        /* \"#utility.yul\":568:690   */\n    tag_424:\n        /* \"#utility.yul\":641:665   */\n      tag_513\n        /* \"#utility.yul\":659:664   */\n      dup2\n        /* \"#utility.yul\":641:665   */\n      tag_423\n      jump\t// in\n    tag_513:\n        /* \"#utility.yul\":634:639   */\n      dup2\n        /* \"#utility.yul\":631:666   */\n      eq\n        /* \"#utility.yul\":621:684   */\n      tag_514\n      jumpi\n        /* \"#utility.yul\":680:681   */\n      0x00\n        /* \"#utility.yul\":677:678   */\n      0x00\n        /* \"#utility.yul\":670:682   */\n      revert\n        /* \"#utility.yul\":621:684   */\n    tag_514:\n        /* \"#utility.yul\":568:690   */\n      pop\n      jump\t// out\n        /* \"#utility.yul\":696:835   */\n    tag_425:\n        /* \"#utility.yul\":742:747   */\n      0x00\n        /* \"#utility.yul\":780:786   */\n      dup2\n        /* \"#utility.yul\":767:787   */\n      calldataload\n        /* \"#utility.yul\":758:787   */\n      swap1\n      pop\n        /* \"#utility.yul\":796:829   */\n      tag_516\n        /* \"#utility.yul\":823:828   */\n      dup2\n        /* \"#utility.yul\":796:829   */\n      tag_424\n      jump\t// in\n    tag_516:\n        /* \"#utility.yul\":696:835   */\n      swap3\n      swap2\n      pop\n      pop\n      jump\t// out\n        /* \"#utility.yul\":841:1170   */\n    tag_43:\n        /* \"#utility.yul\":900:906   */\n      0x00\n        /* \"#utility.yul\":949:951   */\n      0x20\n        /* \"#utility.yul\":937:946   */\n      dup3\n        /* \"#utility.yul\":928:935   */\n      dup5\n        /* \"#utility.yul\":924:947   */\n      sub\n        /* \"#utility.yul\":920:952   */\n      slt\n        /* \"#utility.yul\":917:1036   */\n      iszero\n      tag_518\n      jumpi\n        /* \"#utility.yul\":955:1034   */\n      tag_519\n      tag_420\n      jump\t// in\n    tag_519:\n        /* \"#utility.yul\":917:1036   */\n    tag_518:\n        /* \"#utility.yul\":1075:1076   */\n      0x00\n        /* \"#utility.yul\":1100:1153   */\n      tag_520\n        /* \"#utility.yul\":1145:1152   */\n      dup5\n        /* \"#utility.yul\":1136:1142   */\n      dup3\n        /* \"#utility.yul\":1125:1134   */\n      dup6\n        /* \"#utility.yul\":1121:1143   */\n      add\n        /* \"#utility.yul\":1100:1153   */\n      tag_425\n      jump\t// in\n    tag_520:\n        /* \"#utility.yul\":1090:1153   */\n      swap2\n      pop\n        /* \"#utility.yul\":1046:1163   */\n      pop\n        /* \"#utility.yul\":841:1170   */\n      swap3\n      swap2\n      pop\n      pop\n      jump\t// out\n        /* \"#utility.yul\":1176:1290   */\n    tag_426:\n        /* \"#utility.yul\":1243:1249   */\n      0x00\n        /* \"#utility.yul\":1277:1282   */\n      dup2\n        /* \"#utility.yul\":1271:1283   */\n      mload\n        /* \"#utility.yul\":1261:1283   */\n      swap1\n      pop\n        /* \"#utility.yul\":1176:1290   */\n      swap2\n      swap1\n      pop\n      jump\t// out\n        /* \"#utility.yul\":1296:1480   */\n    tag_427:\n        /* \"#utility.yul\":1395:1406   */\n      0x00\n        /* \"#utility.yul\":1429:1435   */\n      dup3\n        /* \"#utility.yul\":1424:1427   */\n      dup3\n        /* \"#utility.yul\":1417:1436   */\n      mstore\n        /* \"#utility.yul\":1469:1473   */\n      0x20\n        /* \"#utility.yul\":1464:1467   */\n      dup3\n        /* \"#utility.yul\":1460:1474   */\n      add\n        /* \"#utility.yul\":1445:1474   */\n      swap1\n      pop\n        /* \"#utility.yul\":1296:1480   */\n      swap3\n      swap2\n      pop\n      pop\n      jump\t// out\n        /* \"#utility.yul\":1486:1618   */\n    tag_428:\n        /* \"#utility.yul\":1553:1557   */\n      0x00\n        /* \"#utility.yul\":1576:1579   */\n      dup2\n        /* \"#utility.yul\":1568:1579   */\n      swap1\n      pop\n        /* \"#utility.yul\":1606:1610   */\n      0x20\n        /* \"#utility.yul\":1601:1604   */\n      dup3\n        /* \"#utility.yul\":1597:1611   */\n      add\n        /* \"#utility.yul\":1589:1611   */\n      swap1\n      pop\n        /* \"#utility.yul\":1486:1618   */\n      swap2\n      swap1\n      pop\n      jump\t// out\n        /* \"#utility.yul\":1624:1701   */\n    tag_429:\n        /* \"#utility.yul\":1661:1668   */\n      0x00\n        /* \"#utility.yul\":1690:1695   */\n      dup2\n        /* \"#utility.yul\":1679:1695   */\n      swap1\n      pop\n        /* \"#utility.yul\":1624:1701   */\n      swap2\n      swap1\n      pop\n      jump\t// out\n        /* \"#utility.yul\":1707:1815   */\n    tag_430:\n        /* \"#utility.yul\":1784:1808   */\n      tag_526\n        /* \"#utility.yul\":1802:1807   */\n      dup2\n        /* \"#utility.yul\":1784:1808   */\n      tag_429\n      jump\t// in\n    tag_526:\n        /* \"#utility.yul\":1779:1782   */\n      dup3\n        /* \"#utility.yul\":1772:1809   */\n      mstore\n        /* \"#utility.yul\":1707:1815   */\n      pop\n      pop\n      jump\t// out\n        /* \"#utility.yul\":1821:2000   */\n    tag_431:\n        /* \"#utility.yul\":1890:1900   */\n      0x00\n        /* \"#utility.yul\":1911:1957   */\n      tag_528\n        /* \"#utility.yul\":1953:1956   */\n      dup4\n        /* \"#utility.yul\":1945:1951   */\n      dup4\n        /* \"#utility.yul\":1911:1957   */\n      tag_430\n      jump\t// in\n    tag_528:\n        /* \"#utility.yul\":1989:1993   */\n      0x20\n        /* \"#utility.yul\":1984:1987   */\n      dup4\n        /* \"#utility.yul\":1980:1994   */\n      add\n        /* \"#utility.yul\":1966:1994   */\n      swap1\n      pop\n        /* \"#utility.yul\":1821:2000   */\n      swap3\n      swap2\n      pop\n      pop\n      jump\t// out\n        /* \"#utility.yul\":2006:2119   */\n    tag_432:\n        /* \"#utility.yul\":2076:2080   */\n      0x00\n        /* \"#utility.yul\":2108:2112   */\n      0x20\n        /* \"#utility.yul\":2103:2106   */\n      dup3\n        /* \"#utility.yul\":2099:2113   */\n      add\n        /* \"#utility.yul\":2091:2113   */\n      swap1\n      pop\n        /* \"#utility.yul\":2006:2119   */\n      swap2\n      swap1\n      pop\n      jump\t// out\n        /* \"#utility.yul\":2155:2887   */\n    tag_433:\n        /* \"#utility.yul\":2274:2277   */\n      0x00\n        /* \"#utility.yul\":2303:2357   */\n      tag_531\n        /* \"#utility.yul\":2351:2356   */\n      dup3\n        /* \"#utility.yul\":2303:2357   */\n      tag_426\n      jump\t// in\n    tag_531:\n        /* \"#utility.yul\":2373:2459   */\n      tag_532\n        /* \"#utility.yul\":2452:2458   */\n      dup2\n        /* \"#utility.yul\":2447:2450   */\n      dup6\n        /* \"#utility.yul\":2373:2459   */\n      tag_427\n      jump\t// in\n    tag_532:\n        /* \"#utility.yul\":2366:2459   */\n      swap4\n      pop\n        /* \"#utility.yul\":2483:2539   */\n      tag_533\n        /* \"#utility.yul\":2533:2538   */\n      dup4\n        /* \"#utility.yul\":2483:2539   */\n      tag_428\n      jump\t// in\n    tag_533:\n        /* \"#utility.yul\":2562:2569   */\n      dup1\n        /* \"#utility.yul\":2593:2594   */\n      0x00\n        /* \"#utility.yul\":2578:2862   */\n    tag_534:\n        /* \"#utility.yul\":2603:2609   */\n      dup4\n        /* \"#utility.yul\":2600:2601   */\n      dup2\n        /* \"#utility.yul\":2597:2610   */\n      lt\n        /* \"#utility.yul\":2578:2862   */\n      iszero\n      tag_536\n      jumpi\n        /* \"#utility.yul\":2679:2685   */\n      dup2\n        /* \"#utility.yul\":2673:2686   */\n      mload\n        /* \"#utility.yul\":2706:2769   */\n      tag_537\n        /* \"#utility.yul\":2765:2768   */\n      dup9\n        /* \"#utility.yul\":2750:2763   */\n      dup3\n        /* \"#utility.yul\":2706:2769   */\n      tag_431\n      jump\t// in\n    tag_537:\n        /* \"#utility.yul\":2699:2769   */\n      swap8\n      pop\n        /* \"#utility.yul\":2792:2852   */\n      tag_538\n        /* \"#utility.yul\":2845:2851   */\n      dup4\n        /* \"#utility.yul\":2792:2852   */\n      tag_432\n      jump\t// in\n    tag_538:\n        /* \"#utility.yul\":2782:2852   */\n      swap3\n      pop\n        /* \"#utility.yul\":2638:2862   */\n      pop\n        /* \"#utility.yul\":2625:2626   */\n      0x01\n        /* \"#utility.yul\":2622:2623   */\n      dup2\n        /* \"#utility.yul\":2618:2627   */\n      add\n        /* \"#utility.yul\":2613:2627   */\n      swap1\n      pop\n        /* \"#utility.yul\":2578:2862   */\n      jump(tag_534)\n    tag_536:\n        /* \"#utility.yul\":2582:2596   */\n      pop\n        /* \"#utility.yul\":2878:2881   */\n      dup6\n        /* \"#utility.yul\":2871:2881   */\n      swap4\n      pop\n        /* \"#utility.yul\":2279:2887   */\n      pop\n      pop\n      pop\n        /* \"#utility.yul\":2155:2887   */\n      swap3\n      swap2\n      pop\n      pop\n      jump\t// out\n        /* \"#utility.yul\":2893:3266   */\n    tag_46:\n        /* \"#utility.yul\":3036:3040   */\n      0x00\n        /* \"#utility.yul\":3074:3076   */\n      0x20\n        /* \"#utility.yul\":3063:3072   */\n      dup3\n        /* \"#utility.yul\":3059:3077   */\n      add\n        /* \"#utility.yul\":3051:3077   */\n      swap1\n      pop\n        /* \"#utility.yul\":3123:3132   */\n      dup2\n        /* \"#utility.yul\":3117:3121   */\n      dup2\n        /* \"#utility.yul\":3113:3133   */\n      sub\n        /* \"#utility.yul\":3109:3110   */\n      0x00\n        /* \"#utility.yul\":3098:3107   */\n      dup4\n        /* \"#utility.yul\":3094:3111   */\n      add\n        /* \"#utility.yul\":3087:3134   */\n      mstore\n        /* \"#utility.yul\":3151:3259   */\n      tag_540\n        /* \"#utility.yul\":3254:3258   */\n      dup2\n        /* \"#utility.yul\":3245:3251   */\n      dup5\n        /* \"#utility.yul\":3151:3259   */\n      tag_433\n      jump\t// in\n    tag_540:\n        /* \"#utility.yul\":3143:3259   */\n      swap1\n      pop\n        /* \"#utility.yul\":2893:3266   */\n      swap3\n      swap2\n      pop\n      pop\n      jump\t// out\n        /* \"#utility.yul\":3272:3394   */\n    tag_434:\n        /* \"#utility.yul\":3345:3369   */\n      tag_542\n        /* \"#utility.yul\":3363:3368   */\n      dup2\n        /* \"#utility.yul\":3345:3369   */\n      tag_429\n      jump\t// in\n    tag_542:\n        /* \"#utility.yul\":3338:3343   */\n      dup2\n        /* \"#utility.yul\":3335:3370   */\n      eq\n        /* \"#utility.yul\":3325:3388   */\n      tag_543\n      jumpi\n        /* \"#utility.yul\":3384:3385   */\n      0x00\n        /* \"#utility.yul\":3381:3382   */\n      0x00\n        /* \"#utility.yul\":3374:3386   */\n      revert\n        /* \"#utility.yul\":3325:3388   */\n    tag_543:\n        /* \"#utility.yul\":3272:3394   */\n      pop\n      jump\t// out\n        /* \"#utility.yul\":3400:3539   */\n    tag_435:\n        /* \"#utility.yul\":3446:3451   */\n      0x00\n        /* \"#utility.yul\":3484:3490   */\n      dup2\n        /* \"#utility.yul\":3471:3491   */\n      calldataload\n        /* \"#utility.yul\":3462:3491   */\n      swap1\n      pop\n        /* \"#utility.yul\":3500:3533   */\n      tag_545\n        /* \"#utility.yul\":3527:3532   */\n      dup2\n        /* \"#utility.yul\":3500:3533   */\n      tag_434\n      jump\t// in\n    tag_545:\n        /* \"#utility.yul\":3400:3539   */\n      swap3\n      swap2\n      pop\n      pop\n      jump\t// out\n        /* \"#utility.yul\":3545:4019   */\n    tag_49:\n        /* \"#utility.yul\":3613:3619   */\n      0x00\n        /* \"#utility.yul\":3621:3627   */\n      0x00\n        /* \"#utility.yul\":3670:3672   */\n      0x40\n        /* \"#utility.yul\":3658:3667   */\n      dup4\n        /* \"#utility.yul\":3649:3656   */\n      dup6\n        /* \"#utility.yul\":3645:3668   */\n      sub\n        /* \"#utility.yul\":3641:3673   */\n      slt\n        /* \"#utility.yul\":3638:3757   */\n      iszero\n      tag_547\n      jumpi\n        /* \"#utility.yul\":3676:3755   */\n      tag_548\n      tag_420\n      jump\t// in\n    tag_548:\n        /* \"#utility.yul\":3638:3757   */\n    tag_547:\n        /* \"#utility.yul\":3796:3797   */\n      0x00\n        /* \"#utility.yul\":3821:3874   */\n      tag_549\n        /* \"#utility.yul\":3866:3873   */\n      dup6\n        /* \"#utility.yul\":3857:3863   */\n      dup3\n        /* \"#utility.yul\":3846:3855   */\n      dup7\n        /* \"#utility.yul\":3842:3864   */\n      add\n        /* \"#utility.yul\":3821:3874   */\n      tag_435\n      jump\t// in\n    tag_549:\n        /* \"#utility.yul\":3811:3874   */\n      swap3\n      pop\n        /* \"#utility.yul\":3767:3884   */\n      pop\n        /* \"#utility.yul\":3923:3925   */\n      0x20\n        /* \"#utility.yul\":3949:4002   */\n      tag_550\n        /* \"#utility.yul\":3994:4001   */\n      dup6\n        /* \"#utility.yul\":3985:3991   */\n      dup3\n        /* \"#utility.yul\":3974:3983   */\n      dup7\n        /* \"#utility.yul\":3970:3992   */\n      add\n        /* \"#utility.yul\":3949:4002   */\n      tag_435\n      jump\t// in\n    tag_550:\n        /* \"#utility.yul\":3939:4002   */\n      swap2\n      pop\n        /* \"#utility.yul\":3894:4012   */\n      pop\n        /* \"#utility.yul\":3545:4019   */\n      swap3\n      pop\n      swap3\n      swap1\n      pop\n      jump\t// out\n        /* \"#utility.yul\":4025:4143   */\n    tag_436:\n        /* \"#utility.yul\":4112:4136   */\n      tag_552\n        /* \"#utility.yul\":4130:4135   */\n      dup2\n        /* \"#utility.yul\":4112:4136   */\n      tag_429\n      jump\t// in\n    tag_552:\n        /* \"#utility.yul\":4107:4110   */\n      dup3\n        /* \"#utility.yul\":4100:4137   */\n      mstore\n        /* \"#utility.yul\":4025:4143   */\n      pop\n      pop\n      jump\t// out\n        /* \"#utility.yul\":4149:4371   */\n    tag_52:\n        /* \"#utility.yul\":4242:4246   */\n      0x00\n        /* \"#utility.yul\":4280:4282   */\n      0x20\n        /* \"#utility.yul\":4269:4278   */\n      dup3\n        /* \"#utility.yul\":4265:4283   */\n      add\n        /* \"#utility.yul\":4257:4283   */\n      swap1\n      pop\n        /* \"#utility.yul\":4293:4364   */\n      tag_554\n        /* \"#utility.yul\":4361:4362   */\n      0x00\n        /* \"#utility.yul\":4350:4359   */\n      dup4\n        /* \"#utility.yul\":4346:4363   */\n      add\n        /* \"#utility.yul\":4337:4343   */\n      dup5\n        /* \"#utility.yul\":4293:4364   */\n      tag_436\n      jump\t// in\n    tag_554:\n        /* \"#utility.yul\":4149:4371   */\n      swap3\n      swap2\n      pop\n      pop\n      jump\t// out\n        /* \"#utility.yul\":4377:4706   */\n    tag_55:\n        /* \"#utility.yul\":4436:4442   */\n      0x00\n        /* \"#utility.yul\":4485:4487   */\n      0x20\n        /* \"#utility.yul\":4473:4482   */\n      dup3\n        /* \"#utility.yul\":4464:4471   */\n      dup5\n        /* \"#utility.yul\":4460:4483   */\n      sub\n        /* \"#utility.yul\":4456:4488   */\n      slt\n        /* \"#utility.yul\":4453:4572   */\n      iszero\n      tag_556\n      jumpi\n        /* \"#utility.yul\":4491:4570   */\n      tag_557\n      tag_420\n      jump\t// in\n    tag_557:\n        /* \"#utility.yul\":4453:4572   */\n    tag_556:\n        /* \"#utility.yul\":4611:4612   */\n      0x00\n        /* \"#utility.yul\":4636:4689   */\n      tag_558\n        /* \"#utility.yul\":4681:4688   */\n      dup5\n        /* \"#utility.yul\":4672:4678   */\n      dup3\n        /* \"#utility.yul\":4661:4670   */\n      dup6\n        /* \"#utility.yul\":4657:4679   */\n      add\n        /* \"#utility.yul\":4636:4689   */\n      tag_435\n      jump\t// in\n    tag_558:\n        /* \"#utility.yul\":4626:4689   */\n      swap2\n      pop\n        /* \"#utility.yul\":4582:4699   */\n      pop\n        /* \"#utility.yul\":4377:4706   */\n      swap3\n      swap2\n      pop\n      pop\n      jump\t// out\n        /* \"#utility.yul\":4712:4802   */\n    tag_437:\n        /* \"#utility.yul\":4746:4753   */\n      0x00\n        /* \"#utility.yul\":4789:4794   */\n      dup2\n        /* \"#utility.yul\":4782:4795   */\n      iszero\n        /* \"#utility.yul\":4775:4796   */\n      iszero\n        /* \"#utility.yul\":4764:4796   */\n      swap1\n      pop\n        /* \"#utility.yul\":4712:4802   */\n      swap2\n      swap1\n      pop\n      jump\t// out\n        /* \"#utility.yul\":4808:4917   */\n    tag_438:\n        /* \"#utility.yul\":4889:4910   */\n      tag_561\n        /* \"#utility.yul\":4904:4909   */\n      dup2\n        /* \"#utility.yul\":4889:4910   */\n      tag_437\n      jump\t// in\n    tag_561:\n        /* \"#utility.yul\":4884:4887   */\n      dup3\n        /* \"#utility.yul\":4877:4911   */\n      mstore\n        /* \"#utility.yul\":4808:4917   */\n      pop\n      pop\n      jump\t// out\n        /* \"#utility.yul\":4923:5133   */\n    tag_75:\n        /* \"#utility.yul\":5010:5014   */\n      0x00\n        /* \"#utility.yul\":5048:5050   */\n      0x20\n        /* \"#utility.yul\":5037:5046   */\n      dup3\n        /* \"#utility.yul\":5033:5051   */\n      add\n        /* \"#utility.yul\":5025:5051   */\n      swap1\n      pop\n        /* \"#utility.yul\":5061:5126   */\n      tag_563\n        /* \"#utility.yul\":5123:5124   */\n      0x00\n        /* \"#utility.yul\":5112:5121   */\n      dup4\n        /* \"#utility.yul\":5108:5125   */\n      add\n        /* \"#utility.yul\":5099:5105   */\n      dup5\n        /* \"#utility.yul\":5061:5126   */\n      tag_438\n      jump\t// in\n    tag_563:\n        /* \"#utility.yul\":4923:5133   */\n      swap3\n      swap2\n      pop\n      pop\n      jump\t// out\n        /* \"#utility.yul\":5139:5257   */\n    tag_439:\n        /* \"#utility.yul\":5226:5250   */\n      tag_565\n        /* \"#utility.yul\":5244:5249   */\n      dup2\n        /* \"#utility.yul\":5226:5250   */\n      tag_423\n      jump\t// in\n    tag_565:\n        /* \"#utility.yul\":5221:5224   */\n      dup3\n        /* \"#utility.yul\":5214:5251   */\n      mstore\n        /* \"#utility.yul\":5139:5257   */\n      pop\n      pop\n      jump\t// out\n        /* \"#utility.yul\":5263:6137   */\n    tag_87:\n        /* \"#utility.yul\":5518:5522   */\n      0x00\n        /* \"#utility.yul\":5556:5559   */\n      0xe0\n        /* \"#utility.yul\":5545:5554   */\n      dup3\n        /* \"#utility.yul\":5541:5560   */\n      add\n        /* \"#utility.yul\":5533:5560   */\n      swap1\n      pop\n        /* \"#utility.yul\":5570:5641   */\n      tag_567\n        /* \"#utility.yul\":5638:5639   */\n      0x00\n        /* \"#utility.yul\":5627:5636   */\n      dup4\n        /* \"#utility.yul\":5623:5640   */\n      add\n        /* \"#utility.yul\":5614:5620   */\n      dup11\n        /* \"#utility.yul\":5570:5641   */\n      tag_439\n      jump\t// in\n    tag_567:\n        /* \"#utility.yul\":5651:5723   */\n      tag_568\n        /* \"#utility.yul\":5719:5721   */\n      0x20\n        /* \"#utility.yul\":5708:5717   */\n      dup4\n        /* \"#utility.yul\":5704:5722   */\n      add\n        /* \"#utility.yul\":5695:5701   */\n      dup10\n        /* \"#utility.yul\":5651:5723   */\n      tag_436\n      jump\t// in\n    tag_568:\n        /* \"#utility.yul\":5733:5805   */\n      tag_569\n        /* \"#utility.yul\":5801:5803   */\n      0x40\n        /* \"#utility.yul\":5790:5799   */\n      dup4\n        /* \"#utility.yul\":5786:5804   */\n      add\n        /* \"#utility.yul\":5777:5783   */\n      dup9\n        /* \"#utility.yul\":5733:5805   */\n      tag_436\n      jump\t// in\n    tag_569:\n        /* \"#utility.yul\":5815:5887   */\n      tag_570\n        /* \"#utility.yul\":5883:5885   */\n      0x60\n        /* \"#utility.yul\":5872:5881   */\n      dup4\n        /* \"#utility.yul\":5868:5886   */\n      add\n        /* \"#utility.yul\":5859:5865   */\n      dup8\n        /* \"#utility.yul\":5815:5887   */\n      tag_436\n      jump\t// in\n    tag_570:\n        /* \"#utility.yul\":5897:5970   */\n      tag_571\n        /* \"#utility.yul\":5965:5968   */\n      0x80\n        /* \"#utility.yul\":5954:5963   */\n      dup4\n        /* \"#utility.yul\":5950:5969   */\n      add\n        /* \"#utility.yul\":5941:5947   */\n      dup7\n        /* \"#utility.yul\":5897:5970   */\n      tag_436\n      jump\t// in\n    tag_571:\n        /* \"#utility.yul\":5980:6053   */\n      tag_572\n        /* \"#utility.yul\":6048:6051   */\n      0xa0\n        /* \"#utility.yul\":6037:6046   */\n      dup4\n        /* \"#utility.yul\":6033:6052   */\n      add\n        /* \"#utility.yul\":6024:6030   */\n      dup6\n        /* \"#utility.yul\":5980:6053   */\n      tag_436\n      jump\t// in\n    tag_572:\n        /* \"#utility.yul\":6063:6130   */\n      tag_573\n        /* \"#utility.yul\":6125:6128   */\n      0xc0\n        /* \"#utility.yul\":6114:6123   */\n      dup4\n        /* \"#utility.yul\":6110:6129   */\n      add\n        /* \"#utility.yul\":6101:6107   */\n      dup5\n        /* \"#utility.yul\":6063:6130   */\n      tag_438\n      jump\t// in\n    tag_573:\n        /* \"#utility.yul\":5263:6137   */\n      swap9\n      swap8\n      pop\n      pop\n      pop\n      pop\n      pop\n      pop\n      pop\n      pop\n      jump\t// out\n        /* \"#utility.yul\":6143:6203   */\n    tag_440:\n        /* \"#utility.yul\":6171:6174   */\n      0x00\n        /* \"#utility.yul\":6192:6197   */\n      dup2\n        /* \"#utility.yul\":6185:6197   */\n      swap1\n      pop\n        /* \"#utility.yul\":6143:6203   */\n      swap2\n      swap1\n      pop\n      jump\t// out\n        /* \"#utility.yul\":6209:6351   */\n    tag_441:\n        /* \"#utility.yul\":6259:6268   */\n      0x00\n        /* \"#utility.yul\":6292:6345   */\n      tag_576\n        /* \"#utility.yul\":6310:6344   */\n      tag_577\n        /* \"#utility.yul\":6319:6343   */\n      tag_578\n        /* \"#utility.yul\":6337:6342   */\n      dup5\n        /* \"#utility.yul\":6319:6343   */\n      tag_422\n      jump\t// in\n    tag_578:\n        /* \"#utility.yul\":6310:6344   */\n      tag_440\n      jump\t// in\n    tag_577:\n        /* \"#utility.yul\":6292:6345   */\n      tag_422\n      jump\t// in\n    tag_576:\n        /* \"#utility.yul\":6279:6345   */\n      swap1\n      pop\n        /* \"#utility.yul\":6209:6351   */\n      swap2\n      swap1\n      pop\n      jump\t// out\n        /* \"#utility.yul\":6357:6483   */\n    tag_442:\n        /* \"#utility.yul\":6407:6416   */\n      0x00\n        /* \"#utility.yul\":6440:6477   */\n      tag_580\n        /* \"#utility.yul\":6471:6476   */\n      dup3\n        /* \"#utility.yul\":6440:6477   */\n      tag_441\n      jump\t// in\n    tag_580:\n        /* \"#utility.yul\":6427:6477   */\n      swap1\n      pop\n        /* \"#utility.yul\":6357:6483   */\n      swap2\n      swap1\n      pop\n      jump\t// out\n        /* \"#utility.yul\":6489:6643   */\n    tag_443:\n        /* \"#utility.yul\":6567:6576   */\n      0x00\n        /* \"#utility.yul\":6600:6637   */\n      tag_582\n        /* \"#utility.yul\":6631:6636   */\n      dup3\n        /* \"#utility.yul\":6600:6637   */\n      tag_442\n      jump\t// in\n    tag_582:\n        /* \"#utility.yul\":6587:6637   */\n      swap1\n      pop\n        /* \"#utility.yul\":6489:6643   */\n      swap2\n      swap1\n      pop\n      jump\t// out\n        /* \"#utility.yul\":6649:6836   */\n    tag_444:\n        /* \"#utility.yul\":6764:6829   */\n      tag_584\n        /* \"#utility.yul\":6823:6828   */\n      dup2\n        /* \"#utility.yul\":6764:6829   */\n      tag_443\n      jump\t// in\n    tag_584:\n        /* \"#utility.yul\":6759:6762   */\n      dup3\n        /* \"#utility.yul\":6752:6830   */\n      mstore\n        /* \"#utility.yul\":6649:6836   */\n      pop\n      pop\n      jump\t// out\n        /* \"#utility.yul\":6842:7120   */\n    tag_93:\n        /* \"#utility.yul\":6963:6967   */\n      0x00\n        /* \"#utility.yul\":7001:7003   */\n      0x20\n        /* \"#utility.yul\":6990:6999   */\n      dup3\n        /* \"#utility.yul\":6986:7004   */\n      add\n        /* \"#utility.yul\":6978:7004   */\n      swap1\n      pop\n        /* \"#utility.yul\":7014:7113   */\n      tag_586\n        /* \"#utility.yul\":7110:7111   */\n      0x00\n        /* \"#utility.yul\":7099:7108   */\n      dup4\n        /* \"#utility.yul\":7095:7112   */\n      add\n        /* \"#utility.yul\":7086:7092   */\n      dup5\n        /* \"#utility.yul\":7014:7113   */\n      tag_444\n      jump\t// in\n    tag_586:\n        /* \"#utility.yul\":6842:7120   */\n      swap3\n      swap2\n      pop\n      pop\n      jump\t// out\n        /* \"#utility.yul\":7126:7348   */\n    tag_99:\n        /* \"#utility.yul\":7219:7223   */\n      0x00\n        /* \"#utility.yul\":7257:7259   */\n      0x20\n        /* \"#utility.yul\":7246:7255   */\n      dup3\n        /* \"#utility.yul\":7242:7260   */\n      add\n        /* \"#utility.yul\":7234:7260   */\n      swap1\n      pop\n        /* \"#utility.yul\":7270:7341   */\n      tag_588\n        /* \"#utility.yul\":7338:7339   */\n      0x00\n        /* \"#utility.yul\":7327:7336   */\n      dup4\n        /* \"#utility.yul\":7323:7340   */\n      add\n        /* \"#utility.yul\":7314:7320   */\n      dup5\n        /* \"#utility.yul\":7270:7341   */\n      tag_439\n      jump\t// in\n    tag_588:\n        /* \"#utility.yul\":7126:7348   */\n      swap3\n      swap2\n      pop\n      pop\n      jump\t// out\n        /* \"#utility.yul\":7354:7494   */\n    tag_445:\n        /* \"#utility.yul\":7418:7427   */\n      0x00\n        /* \"#utility.yul\":7451:7488   */\n      tag_590\n        /* \"#utility.yul\":7482:7487   */\n      dup3\n        /* \"#utility.yul\":7451:7488   */\n      tag_442\n      jump\t// in\n    tag_590:\n        /* \"#utility.yul\":7438:7488   */\n      swap1\n      pop\n        /* \"#utility.yul\":7354:7494   */\n      swap2\n      swap1\n      pop\n      jump\t// out\n        /* \"#utility.yul\":7500:7659   */\n    tag_446:\n        /* \"#utility.yul\":7601:7652   */\n      tag_592\n        /* \"#utility.yul\":7646:7651   */\n      dup2\n        /* \"#utility.yul\":7601:7652   */\n      tag_445\n      jump\t// in\n    tag_592:\n        /* \"#utility.yul\":7596:7599   */\n      dup3\n        /* \"#utility.yul\":7589:7653   */\n      mstore\n        /* \"#utility.yul\":7500:7659   */\n      pop\n      pop\n      jump\t// out\n        /* \"#utility.yul\":7665:7915   */\n    tag_106:\n        /* \"#utility.yul\":7772:7776   */\n      0x00\n        /* \"#utility.yul\":7810:7812   */\n      0x20\n        /* \"#utility.yul\":7799:7808   */\n      dup3\n        /* \"#utility.yul\":7795:7813   */\n      add\n        /* \"#utility.yul\":7787:7813   */\n      swap1\n      pop\n        /* \"#utility.yul\":7823:7908   */\n      tag_594\n        /* \"#utility.yul\":7905:7906   */\n      0x00\n        /* \"#utility.yul\":7894:7903   */\n      dup4\n        /* \"#utility.yul\":7890:7907   */\n      add\n        /* \"#utility.yul\":7881:7887   */\n      dup5\n        /* \"#utility.yul\":7823:7908   */\n      tag_446\n      jump\t// in\n    tag_594:\n        /* \"#utility.yul\":7665:7915   */\n      swap3\n      swap2\n      pop\n      pop\n      jump\t// out\n        /* \"#utility.yul\":7921:8395   */\n    tag_112:\n        /* \"#utility.yul\":7989:7995   */\n      0x00\n        /* \"#utility.yul\":7997:8003   */\n      0x00\n        /* \"#utility.yul\":8046:8048   */\n      0x40\n        /* \"#utility.yul\":8034:8043   */\n      dup4\n        /* \"#utility.yul\":8025:8032   */\n      dup6\n        /* \"#utility.yul\":8021:8044   */\n      sub\n        /* \"#utility.yul\":8017:8049   */\n      slt\n        /* \"#utility.yul\":8014:8133   */\n      iszero\n      tag_596\n      jumpi\n        /* \"#utility.yul\":8052:8131   */\n      tag_597\n      tag_420\n      jump\t// in\n    tag_597:\n        /* \"#utility.yul\":8014:8133   */\n    tag_596:\n        /* \"#utility.yul\":8172:8173   */\n      0x00\n        /* \"#utility.yul\":8197:8250   */\n      tag_598\n        /* \"#utility.yul\":8242:8249   */\n      dup6\n        /* \"#utility.yul\":8233:8239   */\n      dup3\n        /* \"#utility.yul\":8222:8231   */\n      dup7\n        /* \"#utility.yul\":8218:8240   */\n      add\n        /* \"#utility.yul\":8197:8250   */\n      tag_425\n      jump\t// in\n    tag_598:\n        /* \"#utility.yul\":8187:8250   */\n      swap3\n      pop\n        /* \"#utility.yul\":8143:8260   */\n      pop\n        /* \"#utility.yul\":8299:8301   */\n      0x20\n        /* \"#utility.yul\":8325:8378   */\n      tag_599\n        /* \"#utility.yul\":8370:8377   */\n      dup6\n        /* \"#utility.yul\":8361:8367   */\n      dup3\n        /* \"#utility.yul\":8350:8359   */\n      dup7\n        /* \"#utility.yul\":8346:8368   */\n      add\n        /* \"#utility.yul\":8325:8378   */\n      tag_435\n      jump\t// in\n    tag_599:\n        /* \"#utility.yul\":8315:8378   */\n      swap2\n      pop\n        /* \"#utility.yul\":8270:8388   */\n      pop\n        /* \"#utility.yul\":7921:8395   */\n      swap3\n      pop\n      swap3\n      swap1\n      pop\n      jump\t// out\n        /* \"#utility.yul\":8401:9386   */\n    tag_141:\n        /* \"#utility.yul\":8684:8688   */\n      0x00\n        /* \"#utility.yul\":8722:8725   */\n      0x0100\n        /* \"#utility.yul\":8711:8720   */\n      dup3\n        /* \"#utility.yul\":8707:8726   */\n      add\n        /* \"#utility.yul\":8699:8726   */\n      swap1\n      pop\n        /* \"#utility.yul\":8736:8807   */\n      tag_601\n        /* \"#utility.yul\":8804:8805   */\n      0x00\n        /* \"#utility.yul\":8793:8802   */\n      dup4\n        /* \"#utility.yul\":8789:8806   */\n      add\n        /* \"#utility.yul\":8780:8786   */\n      dup12\n        /* \"#utility.yul\":8736:8807   */\n      tag_436\n      jump\t// in\n    tag_601:\n        /* \"#utility.yul\":8817:8889   */\n      tag_602\n        /* \"#utility.yul\":8885:8887   */\n      0x20\n        /* \"#utility.yul\":8874:8883   */\n      dup4\n        /* \"#utility.yul\":8870:8888   */\n      add\n        /* \"#utility.yul\":8861:8867   */\n      dup11\n        /* \"#utility.yul\":8817:8889   */\n      tag_439\n      jump\t// in\n    tag_602:\n        /* \"#utility.yul\":8899:8971   */\n      tag_603\n        /* \"#utility.yul\":8967:8969   */\n      0x40\n        /* \"#utility.yul\":8956:8965   */\n      dup4\n        /* \"#utility.yul\":8952:8970   */\n      add\n        /* \"#utility.yul\":8943:8949   */\n      dup10\n        /* \"#utility.yul\":8899:8971   */\n      tag_436\n      jump\t// in\n    tag_603:\n        /* \"#utility.yul\":8981:9053   */\n      tag_604\n        /* \"#utility.yul\":9049:9051   */\n      0x60\n        /* \"#utility.yul\":9038:9047   */\n      dup4\n        /* \"#utility.yul\":9034:9052   */\n      add\n        /* \"#utility.yul\":9025:9031   */\n      dup9\n        /* \"#utility.yul\":8981:9053   */\n      tag_436\n      jump\t// in\n    tag_604:\n        /* \"#utility.yul\":9063:9136   */\n      tag_605\n        /* \"#utility.yul\":9131:9134   */\n      0x80\n        /* \"#utility.yul\":9120:9129   */\n      dup4\n        /* \"#utility.yul\":9116:9135   */\n      add\n        /* \"#utility.yul\":9107:9113   */\n      dup8\n        /* \"#utility.yul\":9063:9136   */\n      tag_436\n      jump\t// in\n    tag_605:\n        /* \"#utility.yul\":9146:9219   */\n      tag_606\n        /* \"#utility.yul\":9214:9217   */\n      0xa0\n        /* \"#utility.yul\":9203:9212   */\n      dup4\n        /* \"#utility.yul\":9199:9218   */\n      add\n        /* \"#utility.yul\":9190:9196   */\n      dup7\n        /* \"#utility.yul\":9146:9219   */\n      tag_436\n      jump\t// in\n    tag_606:\n        /* \"#utility.yul\":9229:9302   */\n      tag_607\n        /* \"#utility.yul\":9297:9300   */\n      0xc0\n        /* \"#utility.yul\":9286:9295   */\n      dup4\n        /* \"#utility.yul\":9282:9301   */\n      add\n        /* \"#utility.yul\":9273:9279   */\n      dup6\n        /* \"#utility.yul\":9229:9302   */\n      tag_436\n      jump\t// in\n    tag_607:\n        /* \"#utility.yul\":9312:9379   */\n      tag_608\n        /* \"#utility.yul\":9374:9377   */\n      0xe0\n        /* \"#utility.yul\":9363:9372   */\n      dup4\n        /* \"#utility.yul\":9359:9378   */\n      add\n        /* \"#utility.yul\":9350:9356   */\n      dup5\n        /* \"#utility.yul\":9312:9379   */\n      tag_438\n      jump\t// in\n    tag_608:\n        /* \"#utility.yul\":8401:9386   */\n      swap10\n      swap9\n      pop\n      pop\n      pop\n      pop\n      pop\n      pop\n      pop\n      pop\n      pop\n      jump\t// out\n        /* \"#utility.yul\":9392:9561   */\n    tag_447:\n        /* \"#utility.yul\":9476:9487   */\n      0x00\n        /* \"#utility.yul\":9510:9516   */\n      dup3\n        /* \"#utility.yul\":9505:9508   */\n      dup3\n        /* \"#utility.yul\":9498:9517   */\n      mstore\n        /* \"#utility.yul\":9550:9554   */\n      0x20\n        /* \"#utility.yul\":9545:9548   */\n      dup3\n        /* \"#utility.yul\":9541:9555   */\n      add\n        /* \"#utility.yul\":9526:9555   */\n      swap1\n      pop\n        /* \"#utility.yul\":9392:9561   */\n      swap3\n      swap2\n      pop\n      pop\n      jump\t// out\n        /* \"#utility.yul\":9567:9739   */\n    tag_448:\n        /* \"#utility.yul\":9707:9731   */\n      0x436f6c6c61746572616c206d757374206265203e203000000000000000000000\n        /* \"#utility.yul\":9703:9704   */\n      0x00\n        /* \"#utility.yul\":9695:9701   */\n      dup3\n        /* \"#utility.yul\":9691:9705   */\n      add\n        /* \"#utility.yul\":9684:9732   */\n      mstore\n        /* \"#utility.yul\":9567:9739   */\n      pop\n      jump\t// out\n        /* \"#utility.yul\":9745:10111   */\n    tag_449:\n        /* \"#utility.yul\":9887:9890   */\n      0x00\n        /* \"#utility.yul\":9908:9975   */\n      tag_612\n        /* \"#utility.yul\":9972:9974   */\n      0x16\n        /* \"#utility.yul\":9967:9970   */\n      dup4\n        /* \"#utility.yul\":9908:9975   */\n      tag_447\n      jump\t// in\n    tag_612:\n        /* \"#utility.yul\":9901:9975   */\n      swap2\n      pop\n        /* \"#utility.yul\":9984:10077   */\n      tag_613\n        /* \"#utility.yul\":10073:10076   */\n      dup3\n        /* \"#utility.yul\":9984:10077   */\n      tag_448\n      jump\t// in\n    tag_613:\n        /* \"#utility.yul\":10102:10104   */\n      0x20\n        /* \"#utility.yul\":10097:10100   */\n      dup3\n        /* \"#utility.yul\":10093:10105   */\n      add\n        /* \"#utility.yul\":10086:10105   */\n      swap1\n      pop\n        /* \"#utility.yul\":9745:10111   */\n      swap2\n      swap1\n      pop\n      jump\t// out\n        /* \"#utility.yul\":10117:10536   */\n    tag_163:\n        /* \"#utility.yul\":10283:10287   */\n      0x00\n        /* \"#utility.yul\":10321:10323   */\n      0x20\n        /* \"#utility.yul\":10310:10319   */\n      dup3\n        /* \"#utility.yul\":10306:10324   */\n      add\n        /* \"#utility.yul\":10298:10324   */\n      swap1\n      pop\n        /* \"#utility.yul\":10370:10379   */\n      dup2\n        /* \"#utility.yul\":10364:10368   */\n      dup2\n        /* \"#utility.yul\":10360:10380   */\n      sub\n        /* \"#utility.yul\":10356:10357   */\n      0x00\n        /* \"#utility.yul\":10345:10354   */\n      dup4\n        /* \"#utility.yul\":10341:10358   */\n      add\n        /* \"#utility.yul\":10334:10381   */\n      mstore\n        /* \"#utility.yul\":10398:10529   */\n      tag_615\n        /* \"#utility.yul\":10524:10528   */\n      dup2\n        /* \"#utility.yul\":10398:10529   */\n      tag_449\n      jump\t// in\n    tag_615:\n        /* \"#utility.yul\":10390:10529   */\n      swap1\n      pop\n        /* \"#utility.yul\":10117:10536   */\n      swap2\n      swap1\n      pop\n      jump\t// out\n        /* \"#utility.yul\":10542:10717   */\n    tag_450:\n        /* \"#utility.yul\":10682:10709   */\n      0x426f72726f7720616d6f756e74206d757374206265203e203000000000000000\n        /* \"#utility.yul\":10678:10679   */\n      0x00\n        /* \"#utility.yul\":10670:10676   */\n      dup3\n        /* \"#utility.yul\":10666:10680   */\n      add\n        /* \"#utility.yul\":10659:10710   */\n      mstore\n        /* \"#utility.yul\":10542:10717   */\n      pop\n      jump\t// out\n        /* \"#utility.yul\":10723:11089   */\n    tag_451:\n        /* \"#utility.yul\":10865:10868   */\n      0x00\n        /* \"#utility.yul\":10886:10953   */\n      tag_618\n        /* \"#utility.yul\":10950:10952   */\n      0x19\n        /* \"#utility.yul\":10945:10948   */\n      dup4\n        /* \"#utility.yul\":10886:10953   */\n      tag_447\n      jump\t// in\n    tag_618:\n        /* \"#utility.yul\":10879:10953   */\n      swap2\n      pop\n        /* \"#utility.yul\":10962:11055   */\n      tag_619\n        /* \"#utility.yul\":11051:11054   */\n      dup3\n        /* \"#utility.yul\":10962:11055   */\n      tag_450\n      jump\t// in\n    tag_619:\n        /* \"#utility.yul\":11080:11082   */\n      0x20\n        /* \"#utility.yul\":11075:11078   */\n      dup3\n        /* \"#utility.yul\":11071:11083   */\n      add\n        /* \"#utility.yul\":11064:11083   */\n      swap1\n      pop\n        /* \"#utility.yul\":10723:11089   */\n      swap2\n      swap1\n      pop\n      jump\t// out\n        /* \"#utility.yul\":11095:11514   */\n    tag_166:\n        /* \"#utility.yul\":11261:11265   */\n      0x00\n        /* \"#utility.yul\":11299:11301   */\n      0x20\n        /* \"#utility.yul\":11288:11297   */\n      dup3\n        /* \"#utility.yul\":11284:11302   */\n      add\n        /* \"#utility.yul\":11276:11302   */\n      swap1\n      pop\n        /* \"#utility.yul\":11348:11357   */\n      dup2\n        /* \"#utility.yul\":11342:11346   */\n      dup2\n        /* \"#utility.yul\":11338:11358   */\n      sub\n        /* \"#utility.yul\":11334:11335   */\n      0x00\n        /* \"#utility.yul\":11323:11332   */\n      dup4\n        /* \"#utility.yul\":11319:11336   */\n      add\n        /* \"#utility.yul\":11312:11359   */\n      mstore\n        /* \"#utility.yul\":11376:11507   */\n      tag_621\n        /* \"#utility.yul\":11502:11506   */\n      dup2\n        /* \"#utility.yul\":11376:11507   */\n      tag_451\n      jump\t// in\n    tag_621:\n        /* \"#utility.yul\":11368:11507   */\n      swap1\n      pop\n        /* \"#utility.yul\":11095:11514   */\n      swap2\n      swap1\n      pop\n      jump\t// out\n        /* \"#utility.yul\":11520:11663   */\n    tag_452:\n        /* \"#utility.yul\":11577:11582   */\n      0x00\n        /* \"#utility.yul\":11608:11614   */\n      dup2\n        /* \"#utility.yul\":11602:11615   */\n      mload\n        /* \"#utility.yul\":11593:11615   */\n      swap1\n      pop\n        /* \"#utility.yul\":11624:11657   */\n      tag_623\n        /* \"#utility.yul\":11651:11656   */\n      dup2\n        /* \"#utility.yul\":11624:11657   */\n      tag_434\n      jump\t// in\n    tag_623:\n        /* \"#utility.yul\":11520:11663   */\n      swap3\n      swap2\n      pop\n      pop\n      jump\t// out\n        /* \"#utility.yul\":11669:12020   */\n    tag_171:\n        /* \"#utility.yul\":11739:11745   */\n      0x00\n        /* \"#utility.yul\":11788:11790   */\n      0x20\n        /* \"#utility.yul\":11776:11785   */\n      dup3\n        /* \"#utility.yul\":11767:11774   */\n      dup5\n        /* \"#utility.yul\":11763:11786   */\n      sub\n        /* \"#utility.yul\":11759:11791   */\n      slt\n        /* \"#utility.yul\":11756:11875   */\n      iszero\n      tag_625\n      jumpi\n        /* \"#utility.yul\":11794:11873   */\n      tag_626\n      tag_420\n      jump\t// in\n    tag_626:\n        /* \"#utility.yul\":11756:11875   */\n    tag_625:\n        /* \"#utility.yul\":11914:11915   */\n      0x00\n        /* \"#utility.yul\":11939:12003   */\n      tag_627\n        /* \"#utility.yul\":11995:12002   */\n      dup5\n        /* \"#utility.yul\":11986:11992   */\n      dup3\n        /* \"#utility.yul\":11975:11984   */\n      dup6\n        /* \"#utility.yul\":11971:11993   */\n      add\n        /* \"#utility.yul\":11939:12003   */\n      tag_452\n      jump\t// in\n    tag_627:\n        /* \"#utility.yul\":11929:12003   */\n      swap2\n      pop\n        /* \"#utility.yul\":11885:12013   */\n      pop\n        /* \"#utility.yul\":11669:12020   */\n      swap3\n      swap2\n      pop\n      pop\n      jump\t// out\n        /* \"#utility.yul\":12026:12205   */\n    tag_453:\n        /* \"#utility.yul\":12166:12197   */\n      0x496e73756666696369656e74207661756c744254432062616c616e6365000000\n        /* \"#utility.yul\":12162:12163   */\n      0x00\n        /* \"#utility.yul\":12154:12160   */\n      dup3\n        /* \"#utility.yul\":12150:12164   */\n      add\n        /* \"#utility.yul\":12143:12198   */\n      mstore\n        /* \"#utility.yul\":12026:12205   */\n      pop\n      jump\t// out\n        /* \"#utility.yul\":12211:12577   */\n    tag_454:\n        /* \"#utility.yul\":12353:12356   */\n      0x00\n        /* \"#utility.yul\":12374:12441   */\n      tag_630\n        /* \"#utility.yul\":12438:12440   */\n      0x1d\n        /* \"#utility.yul\":12433:12436   */\n      dup4\n        /* \"#utility.yul\":12374:12441   */\n      tag_447\n      jump\t// in\n    tag_630:\n        /* \"#utility.yul\":12367:12441   */\n      swap2\n      pop\n        /* \"#utility.yul\":12450:12543   */\n      tag_631\n        /* \"#utility.yul\":12539:12542   */\n      dup3\n        /* \"#utility.yul\":12450:12543   */\n      tag_453\n      jump\t// in\n    tag_631:\n        /* \"#utility.yul\":12568:12570   */\n      0x20\n        /* \"#utility.yul\":12563:12566   */\n      dup3\n        /* \"#utility.yul\":12559:12571   */\n      add\n        /* \"#utility.yul\":12552:12571   */\n      swap1\n      pop\n        /* \"#utility.yul\":12211:12577   */\n      swap2\n      swap1\n      pop\n      jump\t// out\n        /* \"#utility.yul\":12583:13002   */\n    tag_174:\n        /* \"#utility.yul\":12749:12753   */\n      0x00\n        /* \"#utility.yul\":12787:12789   */\n      0x20\n        /* \"#utility.yul\":12776:12785   */\n      dup3\n        /* \"#utility.yul\":12772:12790   */\n      add\n        /* \"#utility.yul\":12764:12790   */\n      swap1\n      pop\n        /* \"#utility.yul\":12836:12845   */\n      dup2\n        /* \"#utility.yul\":12830:12834   */\n      dup2\n        /* \"#utility.yul\":12826:12846   */\n      sub\n        /* \"#utility.yul\":12822:12823   */\n      0x00\n        /* \"#utility.yul\":12811:12820   */\n      dup4\n        /* \"#utility.yul\":12807:12824   */\n      add\n        /* \"#utility.yul\":12800:12847   */\n      mstore\n        /* \"#utility.yul\":12864:12995   */\n      tag_633\n        /* \"#utility.yul\":12990:12994   */\n      dup2\n        /* \"#utility.yul\":12864:12995   */\n      tag_454\n      jump\t// in\n    tag_633:\n        /* \"#utility.yul\":12856:12995   */\n      swap1\n      pop\n        /* \"#utility.yul\":12583:13002   */\n      swap2\n      swap1\n      pop\n      jump\t// out\n        /* \"#utility.yul\":13008:13181   */\n    tag_455:\n        /* \"#utility.yul\":13148:13173   */\n      0x496e73756666696369656e7420636f6c6c61746572616c000000000000000000\n        /* \"#utility.yul\":13144:13145   */\n      0x00\n        /* \"#utility.yul\":13136:13142   */\n      dup3\n        /* \"#utility.yul\":13132:13146   */\n      add\n        /* \"#utility.yul\":13125:13174   */\n      mstore\n        /* \"#utility.yul\":13008:13181   */\n      pop\n      jump\t// out\n        /* \"#utility.yul\":13187:13553   */\n    tag_456:\n        /* \"#utility.yul\":13329:13332   */\n      0x00\n        /* \"#utility.yul\":13350:13417   */\n      tag_636\n        /* \"#utility.yul\":13414:13416   */\n      0x17\n        /* \"#utility.yul\":13409:13412   */\n      dup4\n        /* \"#utility.yul\":13350:13417   */\n      tag_447\n      jump\t// in\n    tag_636:\n        /* \"#utility.yul\":13343:13417   */\n      swap2\n      pop\n        /* \"#utility.yul\":13426:13519   */\n      tag_637\n        /* \"#utility.yul\":13515:13518   */\n      dup3\n        /* \"#utility.yul\":13426:13519   */\n      tag_455\n      jump\t// in\n    tag_637:\n        /* \"#utility.yul\":13544:13546   */\n      0x20\n        /* \"#utility.yul\":13539:13542   */\n      dup3\n        /* \"#utility.yul\":13535:13547   */\n      add\n        /* \"#utility.yul\":13528:13547   */\n      swap1\n      pop\n        /* \"#utility.yul\":13187:13553   */\n      swap2\n      swap1\n      pop\n      jump\t// out\n        /* \"#utility.yul\":13559:13978   */\n    tag_178:\n        /* \"#utility.yul\":13725:13729   */\n      0x00\n        /* \"#utility.yul\":13763:13765   */\n      0x20\n        /* \"#utility.yul\":13752:13761   */\n      dup3\n        /* \"#utility.yul\":13748:13766   */\n      add\n        /* \"#utility.yul\":13740:13766   */\n      swap1\n      pop\n        /* \"#utility.yul\":13812:13821   */\n      dup2\n        /* \"#utility.yul\":13806:13810   */\n      dup2\n        /* \"#utility.yul\":13802:13822   */\n      sub\n        /* \"#utility.yul\":13798:13799   */\n      0x00\n        /* \"#utility.yul\":13787:13796   */\n      dup4\n        /* \"#utility.yul\":13783:13800   */\n      add\n        /* \"#utility.yul\":13776:13823   */\n      mstore\n        /* \"#utility.yul\":13840:13971   */\n      tag_639\n        /* \"#utility.yul\":13966:13970   */\n      dup2\n        /* \"#utility.yul\":13840:13971   */\n      tag_456\n      jump\t// in\n    tag_639:\n        /* \"#utility.yul\":13832:13971   */\n      swap1\n      pop\n        /* \"#utility.yul\":13559:13978   */\n      swap2\n      swap1\n      pop\n      jump\t// out\n        /* \"#utility.yul\":13984:14156   */\n    tag_457:\n        /* \"#utility.yul\":14124:14148   */\n      0x496e73756666696369656e74206c697175696469747900000000000000000000\n        /* \"#utility.yul\":14120:14121   */\n      0x00\n        /* \"#utility.yul\":14112:14118   */\n      dup3\n        /* \"#utility.yul\":14108:14122   */\n      add\n        /* \"#utility.yul\":14101:14149   */\n      mstore\n        /* \"#utility.yul\":13984:14156   */\n      pop\n      jump\t// out\n        /* \"#utility.yul\":14162:14528   */\n    tag_458:\n        /* \"#utility.yul\":14304:14307   */\n      0x00\n        /* \"#utility.yul\":14325:14392   */\n      tag_642\n        /* \"#utility.yul\":14389:14391   */\n      0x16\n        /* \"#utility.yul\":14384:14387   */\n      dup4\n        /* \"#utility.yul\":14325:14392   */\n      tag_447\n      jump\t// in\n    tag_642:\n        /* \"#utility.yul\":14318:14392   */\n      swap2\n      pop\n        /* \"#utility.yul\":14401:14494   */\n      tag_643\n        /* \"#utility.yul\":14490:14493   */\n      dup3\n        /* \"#utility.yul\":14401:14494   */\n      tag_457\n      jump\t// in\n    tag_643:\n        /* \"#utility.yul\":14519:14521   */\n      0x20\n        /* \"#utility.yul\":14514:14517   */\n      dup3\n        /* \"#utility.yul\":14510:14522   */\n      add\n        /* \"#utility.yul\":14503:14522   */\n      swap1\n      pop\n        /* \"#utility.yul\":14162:14528   */\n      swap2\n      swap1\n      pop\n      jump\t// out\n        /* \"#utility.yul\":14534:14953   */\n    tag_185:\n        /* \"#utility.yul\":14700:14704   */\n      0x00\n        /* \"#utility.yul\":14738:14740   */\n      0x20\n        /* \"#utility.yul\":14727:14736   */\n      dup3\n        /* \"#utility.yul\":14723:14741   */\n      add\n        /* \"#utility.yul\":14715:14741   */\n      swap1\n      pop\n        /* \"#utility.yul\":14787:14796   */\n      dup2\n        /* \"#utility.yul\":14781:14785   */\n      dup2\n        /* \"#utility.yul\":14777:14797   */\n      sub\n        /* \"#utility.yul\":14773:14774   */\n      0x00\n        /* \"#utility.yul\":14762:14771   */\n      dup4\n        /* \"#utility.yul\":14758:14775   */\n      add\n        /* \"#utility.yul\":14751:14798   */\n      mstore\n        /* \"#utility.yul\":14815:14946   */\n      tag_645\n        /* \"#utility.yul\":14941:14945   */\n      dup2\n        /* \"#utility.yul\":14815:14946   */\n      tag_458\n      jump\t// in\n    tag_645:\n        /* \"#utility.yul\":14807:14946   */\n      swap1\n      pop\n        /* \"#utility.yul\":14534:14953   */\n      swap2\n      swap1\n      pop\n      jump\t// out\n        /* \"#utility.yul\":14959:15401   */\n    tag_187:\n        /* \"#utility.yul\":15108:15112   */\n      0x00\n        /* \"#utility.yul\":15146:15148   */\n      0x60\n        /* \"#utility.yul\":15135:15144   */\n      dup3\n        /* \"#utility.yul\":15131:15149   */\n      add\n        /* \"#utility.yul\":15123:15149   */\n      swap1\n      pop\n        /* \"#utility.yul\":15159:15230   */\n      tag_647\n        /* \"#utility.yul\":15227:15228   */\n      0x00\n        /* \"#utility.yul\":15216:15225   */\n      dup4\n        /* \"#utility.yul\":15212:15229   */\n      add\n        /* \"#utility.yul\":15203:15209   */\n      dup7\n        /* \"#utility.yul\":15159:15230   */\n      tag_439\n      jump\t// in\n    tag_647:\n        /* \"#utility.yul\":15240:15312   */\n      tag_648\n        /* \"#utility.yul\":15308:15310   */\n      0x20\n        /* \"#utility.yul\":15297:15306   */\n      dup4\n        /* \"#utility.yul\":15293:15311   */\n      add\n        /* \"#utility.yul\":15284:15290   */\n      dup6\n        /* \"#utility.yul\":15240:15312   */\n      tag_439\n      jump\t// in\n    tag_648:\n        /* \"#utility.yul\":15322:15394   */\n      tag_649\n        /* \"#utility.yul\":15390:15392   */\n      0x40\n        /* \"#utility.yul\":15379:15388   */\n      dup4\n        /* \"#utility.yul\":15375:15393   */\n      add\n        /* \"#utility.yul\":15366:15372   */\n      dup5\n        /* \"#utility.yul\":15322:15394   */\n      tag_436\n      jump\t// in\n    tag_649:\n        /* \"#utility.yul\":14959:15401   */\n      swap5\n      swap4\n      pop\n      pop\n      pop\n      pop\n      jump\t// out\n        /* \"#utility.yul\":15407:15523   */\n    tag_459:\n        /* \"#utility.yul\":15477:15498   */\n      tag_651\n        /* \"#utility.yul\":15492:15497   */\n      dup2\n        /* \"#utility.yul\":15477:15498   */\n      tag_437\n      jump\t// in\n    tag_651:\n        /* \"#utility.yul\":15470:15475   */\n      dup2\n        /* \"#utility.yul\":15467:15499   */\n      eq\n        /* \"#utility.yul\":15457:15517   */\n      tag_652\n      jumpi\n        /* \"#utility.yul\":15513:15514   */\n      0x00\n        /* \"#utility.yul\":15510:15511   */\n      0x00\n        /* \"#utility.yul\":15503:15515   */\n      revert\n        /* \"#utility.yul\":15457:15517   */\n    tag_652:\n        /* \"#utility.yul\":15407:15523   */\n      pop\n      jump\t// out\n        /* \"#utility.yul\":15529:15666   */\n    tag_460:\n        /* \"#utility.yul\":15583:15588   */\n      0x00\n        /* \"#utility.yul\":15614:15620   */\n      dup2\n        /* \"#utility.yul\":15608:15621   */\n      mload\n        /* \"#utility.yul\":15599:15621   */\n      swap1\n      pop\n        /* \"#utility.yul\":15630:15660   */\n      tag_654\n        /* \"#utility.yul\":15654:15659   */\n      dup2\n        /* \"#utility.yul\":15630:15660   */\n      tag_459\n      jump\t// in\n    tag_654:\n        /* \"#utility.yul\":15529:15666   */\n      swap3\n      swap2\n      pop\n      pop\n      jump\t// out\n        /* \"#utility.yul\":15672:16017   */\n    tag_191:\n        /* \"#utility.yul\":15739:15745   */\n      0x00\n        /* \"#utility.yul\":15788:15790   */\n      0x20\n        /* \"#utility.yul\":15776:15785   */\n      dup3\n        /* \"#utility.yul\":15767:15774   */\n      dup5\n        /* \"#utility.yul\":15763:15786   */\n      sub\n        /* \"#utility.yul\":15759:15791   */\n      slt\n        /* \"#utility.yul\":15756:15875   */\n      iszero\n      tag_656\n      jumpi\n        /* \"#utility.yul\":15794:15873   */\n      tag_657\n      tag_420\n      jump\t// in\n    tag_657:\n        /* \"#utility.yul\":15756:15875   */\n    tag_656:\n        /* \"#utility.yul\":15914:15915   */\n      0x00\n        /* \"#utility.yul\":15939:16000   */\n      tag_658\n        /* \"#utility.yul\":15992:15999   */\n      dup5\n        /* \"#utility.yul\":15983:15989   */\n      dup3\n        /* \"#utility.yul\":15972:15981   */\n      dup6\n        /* \"#utility.yul\":15968:15990   */\n      add\n        /* \"#utility.yul\":15939:16000   */\n      tag_460\n      jump\t// in\n    tag_658:\n        /* \"#utility.yul\":15929:16000   */\n      swap2\n      pop\n        /* \"#utility.yul\":15885:16010   */\n      pop\n        /* \"#utility.yul\":15672:16017   */\n      swap3\n      swap2\n      pop\n      pop\n      jump\t// out\n        /* \"#utility.yul\":16023:16199   */\n    tag_461:\n        /* \"#utility.yul\":16163:16191   */\n      0x436f6c6c61746572616c207472616e73666572206661696c6564000000000000\n        /* \"#utility.yul\":16159:16160   */\n      0x00\n        /* \"#utility.yul\":16151:16157   */\n      dup3\n        /* \"#utility.yul\":16147:16161   */\n      add\n        /* \"#utility.yul\":16140:16192   */\n      mstore\n        /* \"#utility.yul\":16023:16199   */\n      pop\n      jump\t// out\n        /* \"#utility.yul\":16205:16571   */\n    tag_462:\n        /* \"#utility.yul\":16347:16350   */\n      0x00\n        /* \"#utility.yul\":16368:16435   */\n      tag_661\n        /* \"#utility.yul\":16432:16434   */\n      0x1a\n        /* \"#utility.yul\":16427:16430   */\n      dup4\n        /* \"#utility.yul\":16368:16435   */\n      tag_447\n      jump\t// in\n    tag_661:\n        /* \"#utility.yul\":16361:16435   */\n      swap2\n      pop\n        /* \"#utility.yul\":16444:16537   */\n      tag_662\n        /* \"#utility.yul\":16533:16536   */\n      dup3\n        /* \"#utility.yul\":16444:16537   */\n      tag_461\n      jump\t// in\n    tag_662:\n        /* \"#utility.yul\":16562:16564   */\n      0x20\n        /* \"#utility.yul\":16557:16560   */\n      dup3\n        /* \"#utility.yul\":16553:16565   */\n      add\n        /* \"#utility.yul\":16546:16565   */\n      swap1\n      pop\n        /* \"#utility.yul\":16205:16571   */\n      swap2\n      swap1\n      pop\n      jump\t// out\n        /* \"#utility.yul\":16577:16996   */\n    tag_194:\n        /* \"#utility.yul\":16743:16747   */\n      0x00\n        /* \"#utility.yul\":16781:16783   */\n      0x20\n        /* \"#utility.yul\":16770:16779   */\n      dup3\n        /* \"#utility.yul\":16766:16784   */\n      add\n        /* \"#utility.yul\":16758:16784   */\n      swap1\n      pop\n        /* \"#utility.yul\":16830:16839   */\n      dup2\n        /* \"#utility.yul\":16824:16828   */\n      dup2\n        /* \"#utility.yul\":16820:16840   */\n      sub\n        /* \"#utility.yul\":16816:16817   */\n      0x00\n        /* \"#utility.yul\":16805:16814   */\n      dup4\n        /* \"#utility.yul\":16801:16818   */\n      add\n        /* \"#utility.yul\":16794:16841   */\n      mstore\n        /* \"#utility.yul\":16858:16989   */\n      tag_664\n        /* \"#utility.yul\":16984:16988   */\n      dup2\n        /* \"#utility.yul\":16858:16989   */\n      tag_462\n      jump\t// in\n    tag_664:\n        /* \"#utility.yul\":16850:16989   */\n      swap1\n      pop\n        /* \"#utility.yul\":16577:16996   */\n      swap2\n      swap1\n      pop\n      jump\t// out\n        /* \"#utility.yul\":17002:17182   */\n    tag_463:\n        /* \"#utility.yul\":17050:17127   */\n      0x4e487b7100000000000000000000000000000000000000000000000000000000\n        /* \"#utility.yul\":17047:17048   */\n      0x00\n        /* \"#utility.yul\":17040:17128   */\n      mstore\n        /* \"#utility.yul\":17147:17151   */\n      0x11\n        /* \"#utility.yul\":17144:17145   */\n      0x04\n        /* \"#utility.yul\":17137:17152   */\n      mstore\n        /* \"#utility.yul\":17171:17175   */\n      0x24\n        /* \"#utility.yul\":17168:17169   */\n      0x00\n        /* \"#utility.yul\":17161:17176   */\n      revert\n        /* \"#utility.yul\":17188:17421   */\n    tag_196:\n        /* \"#utility.yul\":17227:17230   */\n      0x00\n        /* \"#utility.yul\":17250:17274   */\n      tag_667\n        /* \"#utility.yul\":17268:17273   */\n      dup3\n        /* \"#utility.yul\":17250:17274   */\n      tag_429\n      jump\t// in\n    tag_667:\n        /* \"#utility.yul\":17241:17274   */\n      swap2\n      pop\n        /* \"#utility.yul\":17296:17362   */\n      0xffffffffffffffffffffffffffffffffffffffffffffffffffffffffffffffff\n        /* \"#utility.yul\":17289:17294   */\n      dup3\n        /* \"#utility.yul\":17286:17363   */\n      sub\n        /* \"#utility.yul\":17283:17386   */\n      tag_668\n      jumpi\n        /* \"#utility.yul\":17366:17384   */\n      tag_669\n      tag_463\n      jump\t// in\n    tag_669:\n        /* \"#utility.yul\":17283:17386   */\n    tag_668:\n        /* \"#utility.yul\":17413:17414   */\n      0x01\n        /* \"#utility.yul\":17406:17411   */\n      dup3\n        /* \"#utility.yul\":17402:17415   */\n      add\n        /* \"#utility.yul\":17395:17415   */\n      swap1\n      pop\n        /* \"#utility.yul\":17188:17421   */\n      swap2\n      swap1\n      pop\n      jump\t// out\n        /* \"#utility.yul\":17427:17618   */\n    tag_199:\n        /* \"#utility.yul\":17467:17470   */\n      0x00\n        /* \"#utility.yul\":17486:17506   */\n      tag_671\n        /* \"#utility.yul\":17504:17505   */\n      dup3\n        /* \"#utility.yul\":17486:17506   */\n      tag_429\n      jump\t// in\n    tag_671:\n        /* \"#utility.yul\":17481:17506   */\n      swap2\n      pop\n        /* \"#utility.yul\":17520:17540   */\n      tag_672\n        /* \"#utility.yul\":17538:17539   */\n      dup4\n        /* \"#utility.yul\":17520:17540   */\n      tag_429\n      jump\t// in\n    tag_672:\n        /* \"#utility.yul\":17515:17540   */\n      swap3\n      pop\n        /* \"#utility.yul\":17563:17564   */\n      dup3\n        /* \"#utility.yul\":17560:17561   */\n      dup3\n        /* \"#utility.yul\":17556:17565   */\n      add\n        /* \"#utility.yul\":17549:17565   */\n      swap1\n      pop\n        /* \"#utility.yul\":17584:17587   */\n      dup1\n        /* \"#utility.yul\":17581:17582   */\n      dup3\n        /* \"#utility.yul\":17578:17588   */\n      gt\n        /* \"#utility.yul\":17575:17611   */\n      iszero\n      tag_673\n      jumpi\n        /* \"#utility.yul\":17591:17609   */\n      tag_674\n      tag_463\n      jump\t// in\n    tag_674:\n        /* \"#utility.yul\":17575:17611   */\n    tag_673:\n        /* \"#utility.yul\":17427:17618   */\n      swap3\n      swap2\n      pop\n      pop\n      jump\t// out\n        /* \"#utility.yul\":17624:17956   */\n    tag_202:\n        /* \"#utility.yul\":17745:17749   */\n      0x00\n        /* \"#utility.yul\":17783:17785   */\n      0x40\n        /* \"#utility.yul\":17772:17781   */\n      dup3\n        /* \"#utility.yul\":17768:17786   */\n      add\n        /* \"#utility.yul\":17760:17786   */\n      swap1\n      pop\n        /* \"#utility.yul\":17796:17867   */\n      tag_676\n        /* \"#utility.yul\":17864:17865   */\n      0x00\n        /* \"#utility.yul\":17853:17862   */\n      dup4\n        /* \"#utility.yul\":17849:17866   */\n      add\n        /* \"#utility.yul\":17840:17846   */\n      dup6\n        /* \"#utility.yul\":17796:17867   */\n      tag_439\n      jump\t// in\n    tag_676:\n        /* \"#utility.yul\":17877:17949   */\n      tag_677\n        /* \"#utility.yul\":17945:17947   */\n      0x20\n        /* \"#utility.yul\":17934:17943   */\n      dup4\n        /* \"#utility.yul\":17930:17948   */\n      add\n        /* \"#utility.yul\":17921:17927   */\n      dup5\n        /* \"#utility.yul\":17877:17949   */\n      tag_436\n      jump\t// in\n    tag_677:\n        /* \"#utility.yul\":17624:17956   */\n      swap4\n      swap3\n      pop\n      pop\n      pop\n      jump\t// out\n        /* \"#utility.yul\":17962:18134   */\n    tag_464:\n        /* \"#utility.yul\":18102:18126   */\n      0x426f72726f77207472616e73666572206661696c656400000000000000000000\n        /* \"#utility.yul\":18098:18099   */\n      0x00\n        /* \"#utility.yul\":18090:18096   */\n      dup3\n        /* \"#utility.yul\":18086:18100   */\n      add\n        /* \"#utility.yul\":18079:18127   */\n      mstore\n        /* \"#utility.yul\":17962:18134   */\n      pop\n      jump\t// out\n        /* \"#utility.yul\":18140:18506   */\n    tag_465:\n        /* \"#utility.yul\":18282:18285   */\n      0x00\n        /* \"#utility.yul\":18303:18370   */\n      tag_680\n        /* \"#utility.yul\":18367:18369   */\n      0x16\n        /* \"#utility.yul\":18362:18365   */\n      dup4\n        /* \"#utility.yul\":18303:18370   */\n      tag_447\n      jump\t// in\n    tag_680:\n        /* \"#utility.yul\":18296:18370   */\n      swap2\n      pop\n        /* \"#utility.yul\":18379:18472   */\n      tag_681\n        /* \"#utility.yul\":18468:18471   */\n      dup3\n        /* \"#utility.yul\":18379:18472   */\n      tag_464\n      jump\t// in\n    tag_681:\n        /* \"#utility.yul\":18497:18499   */\n      0x20\n        /* \"#utility.yul\":18492:18495   */\n      dup3\n        /* \"#utility.yul\":18488:18500   */\n      add\n        /* \"#utility.yul\":18481:18500   */\n      swap1\n      pop\n        /* \"#utility.yul\":18140:18506   */\n      swap2\n      swap1\n      pop\n      jump\t// out\n        /* \"#utility.yul\":18512:18931   */\n    tag_208:\n        /* \"#utility.yul\":18678:18682   */\n      0x00\n        /* \"#utility.yul\":18716:18718   */\n      0x20\n        /* \"#utility.yul\":18705:18714   */\n      dup3\n        /* \"#utility.yul\":18701:18719   */\n      add\n        /* \"#utility.yul\":18693:18719   */\n      swap1\n      pop\n        /* \"#utility.yul\":18765:18774   */\n      dup2\n        /* \"#utility.yul\":18759:18763   */\n      dup2\n        /* \"#utility.yul\":18755:18775   */\n      sub\n        /* \"#utility.yul\":18751:18752   */\n      0x00\n        /* \"#utility.yul\":18740:18749   */\n      dup4\n        /* \"#utility.yul\":18736:18753   */\n      add\n        /* \"#utility.yul\":18729:18776   */\n      mstore\n        /* \"#utility.yul\":18793:18924   */\n      tag_683\n        /* \"#utility.yul\":18919:18923   */\n      dup2\n        /* \"#utility.yul\":18793:18924   */\n      tag_465\n      jump\t// in\n    tag_683:\n        /* \"#utility.yul\":18785:18924   */\n      swap1\n      pop\n        /* \"#utility.yul\":18512:18931   */\n      swap2\n      swap1\n      pop\n      jump\t// out\n        /* \"#utility.yul\":18937:19269   */\n    tag_210:\n        /* \"#utility.yul\":19058:19062   */\n      0x00\n        /* \"#utility.yul\":19096:19098   */\n      0x40\n        /* \"#utility.yul\":19085:19094   */\n      dup3\n        /* \"#utility.yul\":19081:19099   */\n      add\n        /* \"#utility.yul\":19073:19099   */\n      swap1\n      pop\n        /* \"#utility.yul\":19109:19180   */\n      tag_685\n        /* \"#utility.yul\":19177:19178   */\n      0x00\n        /* \"#utility.yul\":19166:19175   */\n      dup4\n        /* \"#utility.yul\":19162:19179   */\n      add\n        /* \"#utility.yul\":19153:19159   */\n      dup6\n        /* \"#utility.yul\":19109:19180   */\n      tag_436\n      jump\t// in\n    tag_685:\n        /* \"#utility.yul\":19190:19262   */\n      tag_686\n        /* \"#utility.yul\":19258:19260   */\n      0x20\n        /* \"#utility.yul\":19247:19256   */\n      dup4\n        /* \"#utility.yul\":19243:19261   */\n      add\n        /* \"#utility.yul\":19234:19240   */\n      dup5\n        /* \"#utility.yul\":19190:19262   */\n      tag_436\n      jump\t// in\n    tag_686:\n        /* \"#utility.yul\":18937:19269   */\n      swap4\n      swap3\n      pop\n      pop\n      pop\n      jump\t// out\n        /* \"#utility.yul\":19275:19361   */\n    tag_466:\n        /* \"#utility.yul\":19310:19317   */\n      0x00\n        /* \"#utility.yul\":19350:19354   */\n      0xff\n        /* \"#utility.yul\":19343:19348   */\n      dup3\n        /* \"#utility.yul\":19339:19355   */\n      and\n        /* \"#utility.yul\":19328:19355   */\n      swap1\n      pop\n        /* \"#utility.yul\":19275:19361   */\n      swap2\n      swap1\n      pop\n      jump\t// out\n        /* \"#utility.yul\":19367:19485   */\n    tag_467:\n        /* \"#utility.yul\":19438:19460   */\n      tag_689\n        /* \"#utility.yul\":19454:19459   */\n      dup2\n        /* \"#utility.yul\":19438:19460   */\n      tag_466\n      jump\t// in\n    tag_689:\n        /* \"#utility.yul\":19431:19436   */\n      dup2\n        /* \"#utility.yul\":19428:19461   */\n      eq\n        /* \"#utility.yul\":19418:19479   */\n      tag_690\n      jumpi\n        /* \"#utility.yul\":19475:19476   */\n      0x00\n        /* \"#utility.yul\":19472:19473   */\n      0x00\n        /* \"#utility.yul\":19465:19477   */\n      revert\n        /* \"#utility.yul\":19418:19479   */\n    tag_690:\n        /* \"#utility.yul\":19367:19485   */\n      pop\n      jump\t// out\n        /* \"#utility.yul\":19491:19630   */\n    tag_468:\n        /* \"#utility.yul\":19546:19551   */\n      0x00\n        /* \"#utility.yul\":19577:19583   */\n      dup2\n        /* \"#utility.yul\":19571:19584   */\n      mload\n        /* \"#utility.yul\":19562:19584   */\n      swap1\n      pop\n        /* \"#utility.yul\":19593:19624   */\n      tag_692\n        /* \"#utility.yul\":19618:19623   */\n      dup2\n        /* \"#utility.yul\":19593:19624   */\n      tag_467\n      jump\t// in\n    tag_692:\n        /* \"#utility.yul\":19491:19630   */\n      swap3\n      swap2\n      pop\n      pop\n      jump\t// out\n        /* \"#utility.yul\":19636:19983   */\n    tag_219:\n        /* \"#utility.yul\":19704:19710   */\n      0x00\n        /* \"#utility.yul\":19753:19755   */\n      0x20\n        /* \"#utility.yul\":19741:19750   */\n      dup3\n        /* \"#utility.yul\":19732:19739   */\n      dup5\n        /* \"#utility.yul\":19728:19751   */\n      sub\n        /* \"#utility.yul\":19724:19756   */\n      slt\n        /* \"#utility.yul\":19721:19840   */\n      iszero\n      tag_694\n      jumpi\n        /* \"#utility.yul\":19759:19838   */\n      tag_695\n      tag_420\n      jump\t// in\n    tag_695:\n        /* \"#utility.yul\":19721:19840   */\n    tag_694:\n        /* \"#utility.yul\":19879:19880   */\n      0x00\n        /* \"#utility.yul\":19904:19966   */\n      tag_696\n        /* \"#utility.yul\":19958:19965   */\n      dup5\n        /* \"#utility.yul\":19949:19955   */\n      dup3\n        /* \"#utility.yul\":19938:19947   */\n      dup6\n        /* \"#utility.yul\":19934:19956   */\n      add\n        /* \"#utility.yul\":19904:19966   */\n      tag_468\n      jump\t// in\n    tag_696:\n        /* \"#utility.yul\":19894:19966   */\n      swap2\n      pop\n        /* \"#utility.yul\":19850:19976   */\n      pop\n        /* \"#utility.yul\":19636:19983   */\n      swap3\n      swap2\n      pop\n      pop\n      jump\t// out\n        /* \"#utility.yul\":19989:20091   */\n    tag_469:\n        /* \"#utility.yul\":20031:20039   */\n      0x00\n        /* \"#utility.yul\":20078:20083   */\n      dup2\n        /* \"#utility.yul\":20075:20076   */\n      0x01\n        /* \"#utility.yul\":20071:20084   */\n      shr\n        /* \"#utility.yul\":20050:20084   */\n      swap1\n      pop\n        /* \"#utility.yul\":19989:20091   */\n      swap2\n      swap1\n      pop\n      jump\t// out\n        /* \"#utility.yul\":20097:20945   */\n    tag_470:\n        /* \"#utility.yul\":20158:20163   */\n      0x00\n        /* \"#utility.yul\":20165:20169   */\n      0x00\n        /* \"#utility.yul\":20189:20195   */\n      dup3\n        /* \"#utility.yul\":20180:20195   */\n      swap2\n      pop\n        /* \"#utility.yul\":20213:20218   */\n      dup4\n        /* \"#utility.yul\":20204:20218   */\n      swap1\n      pop\n        /* \"#utility.yul\":20227:20939   */\n    tag_699:\n        /* \"#utility.yul\":20248:20249   */\n      0x01\n        /* \"#utility.yul\":20238:20246   */\n      dup6\n        /* \"#utility.yul\":20235:20250   */\n      gt\n        /* \"#utility.yul\":20227:20939   */\n      iszero\n      tag_701\n      jumpi\n        /* \"#utility.yul\":20343:20347   */\n      dup1\n        /* \"#utility.yul\":20338:20341   */\n      dup7\n        /* \"#utility.yul\":20334:20348   */\n      div\n        /* \"#utility.yul\":20328:20332   */\n      dup2\n        /* \"#utility.yul\":20325:20349   */\n      gt\n        /* \"#utility.yul\":20322:20372   */\n      iszero\n      tag_702\n      jumpi\n        /* \"#utility.yul\":20352:20370   */\n      tag_703\n      tag_463\n      jump\t// in\n    tag_703:\n        /* \"#utility.yul\":20322:20372   */\n    tag_702:\n        /* \"#utility.yul\":20402:20403   */\n      0x01\n        /* \"#utility.yul\":20392:20400   */\n      dup6\n        /* \"#utility.yul\":20388:20404   */\n      and\n        /* \"#utility.yul\":20385:20836   */\n      iszero\n      tag_704\n      jumpi\n        /* \"#utility.yul\":20817:20821   */\n      dup1\n        /* \"#utility.yul\":20810:20815   */\n      dup3\n        /* \"#utility.yul\":20806:20822   */\n      mul\n        /* \"#utility.yul\":20797:20822   */\n      swap2\n      pop\n        /* \"#utility.yul\":20385:20836   */\n    tag_704:\n        /* \"#utility.yul\":20867:20871   */\n      dup1\n        /* \"#utility.yul\":20861:20865   */\n      dup2\n        /* \"#utility.yul\":20857:20872   */\n      mul\n        /* \"#utility.yul\":20849:20872   */\n      swap1\n      pop\n        /* \"#utility.yul\":20897:20929   */\n      tag_705\n        /* \"#utility.yul\":20920:20928   */\n      dup6\n        /* \"#utility.yul\":20897:20929   */\n      tag_469\n      jump\t// in\n    tag_705:\n        /* \"#utility.yul\":20885:20929   */\n      swap5\n      pop\n        /* \"#utility.yul\":20227:20939   */\n      jump(tag_699)\n    tag_701:\n        /* \"#utility.yul\":20097:20945   */\n      swap5\n      pop\n      swap5\n      swap3\n      pop\n      pop\n      pop\n      jump\t// out\n        /* \"#utility.yul\":20951:22024   */\n    tag_471:\n        /* \"#utility.yul\":21005:21010   */\n      0x00\n        /* \"#utility.yul\":21196:21204   */\n      dup3\n        /* \"#utility.yul\":21186:21226   */\n      tag_707\n      jumpi\n        /* \"#utility.yul\":21217:21218   */\n      0x01\n        /* \"#utility.yul\":21208:21218   */\n      swap1\n      pop\n        /* \"#utility.yul\":21219:21224   */\n      jump(tag_706)\n        /* \"#utility.yul\":21186:21226   */\n    tag_707:\n        /* \"#utility.yul\":21245:21249   */\n      dup2\n        /* \"#utility.yul\":21235:21271   */\n      tag_708\n      jumpi\n        /* \"#utility.yul\":21262:21263   */\n      0x00\n        /* \"#utility.yul\":21253:21263   */\n      swap1\n      pop\n        /* \"#utility.yul\":21264:21269   */\n      jump(tag_706)\n        /* \"#utility.yul\":21235:21271   */\n    tag_708:\n        /* \"#utility.yul\":21331:21335   */\n      dup2\n        /* \"#utility.yul\":21379:21380   */\n      0x01\n        /* \"#utility.yul\":21374:21401   */\n      dup2\n      eq\n      tag_710\n      jumpi\n        /* \"#utility.yul\":21415:21416   */\n      0x02\n        /* \"#utility.yul\":21410:21601   */\n      dup2\n      eq\n      tag_711\n      jumpi\n        /* \"#utility.yul\":21324:21601   */\n      jump(tag_709)\n        /* \"#utility.yul\":21374:21401   */\n    tag_710:\n        /* \"#utility.yul\":21392:21393   */\n      0x01\n        /* \"#utility.yul\":21383:21393   */\n      swap2\n      pop\n        /* \"#utility.yul\":21394:21399   */\n      pop\n      jump(tag_706)\n        /* \"#utility.yul\":21410:21601   */\n    tag_711:\n        /* \"#utility.yul\":21455:21458   */\n      0xff\n        /* \"#utility.yul\":21445:21453   */\n      dup5\n        /* \"#utility.yul\":21442:21459   */\n      gt\n        /* \"#utility.yul\":21439:21482   */\n      iszero\n      tag_712\n      jumpi\n        /* \"#utility.yul\":21462:21480   */\n      tag_713\n      tag_463\n      jump\t// in\n    tag_713:\n        /* \"#utility.yul\":21439:21482   */\n    tag_712:\n        /* \"#utility.yul\":21511:21519   */\n      dup4\n        /* \"#utility.yul\":21508:21509   */\n      0x02\n        /* \"#utility.yul\":21504:21520   */\n      exp\n        /* \"#utility.yul\":21495:21520   */\n      swap2\n      pop\n        /* \"#utility.yul\":21546:21549   */\n      dup5\n        /* \"#utility.yul\":21539:21544   */\n      dup3\n        /* \"#utility.yul\":21536:21550   */\n      gt\n        /* \"#utility.yul\":21533:21573   */\n      iszero\n      tag_714\n      jumpi\n        /* \"#utility.yul\":21553:21571   */\n      tag_715\n      tag_463\n      jump\t// in\n    tag_715:\n        /* \"#utility.yul\":21533:21573   */\n    tag_714:\n        /* \"#utility.yul\":21586:21591   */\n      pop\n      jump(tag_706)\n        /* \"#utility.yul\":21324:21601   */\n    tag_709:\n      pop\n        /* \"#utility.yul\":21710:21712   */\n      0x20\n        /* \"#utility.yul\":21700:21708   */\n      dup4\n        /* \"#utility.yul\":21697:21713   */\n      lt\n        /* \"#utility.yul\":21691:21694   */\n      0x0133\n        /* \"#utility.yul\":21685:21689   */\n      dup4\n        /* \"#utility.yul\":21682:21695   */\n      lt\n        /* \"#utility.yul\":21678:21714   */\n      and\n        /* \"#utility.yul\":21660:21662   */\n      0x4e\n        /* \"#utility.yul\":21650:21658   */\n      dup5\n        /* \"#utility.yul\":21647:21663   */\n      lt\n        /* \"#utility.yul\":21642:21644   */\n      0x0b\n        /* \"#utility.yul\":21636:21640   */\n      dup5\n        /* \"#utility.yul\":21633:21645   */\n      lt\n        /* \"#utility.yul\":21629:21664   */\n      and\n        /* \"#utility.yul\":21613:21724   */\n      or\n        /* \"#utility.yul\":21610:21856   */\n      iszero\n      tag_716\n      jumpi\n        /* \"#utility.yul\":21766:21774   */\n      dup3\n        /* \"#utility.yul\":21760:21764   */\n      dup3\n        /* \"#utility.yul\":21756:21775   */\n      exp\n        /* \"#utility.yul\":21747:21775   */\n      swap1\n      pop\n        /* \"#utility.yul\":21801:21804   */\n      dup4\n        /* \"#utility.yul\":21794:21799   */\n      dup2\n        /* \"#utility.yul\":21791:21805   */\n      gt\n        /* \"#utility.yul\":21788:21828   */\n      iszero\n      tag_717\n      jumpi\n        /* \"#utility.yul\":21808:21826   */\n      tag_718\n      tag_463\n      jump\t// in\n    tag_718:\n        /* \"#utility.yul\":21788:21828   */\n    tag_717:\n        /* \"#utility.yul\":21841:21846   */\n      jump(tag_706)\n        /* \"#utility.yul\":21610:21856   */\n    tag_716:\n        /* \"#utility.yul\":21881:21923   */\n      tag_719\n        /* \"#utility.yul\":21919:21922   */\n      dup5\n        /* \"#utility.yul\":21909:21917   */\n      dup5\n        /* \"#utility.yul\":21903:21907   */\n      dup5\n        /* \"#utility.yul\":21900:21901   */\n      0x01\n        /* \"#utility.yul\":21881:21923   */\n      tag_470\n      jump\t// in\n    tag_719:\n        /* \"#utility.yul\":21866:21923   */\n      swap3\n      pop\n      swap1\n      pop\n        /* \"#utility.yul\":21955:21959   */\n      dup2\n        /* \"#utility.yul\":21950:21953   */\n      dup5\n        /* \"#utility.yul\":21946:21960   */\n      div\n        /* \"#utility.yul\":21939:21944   */\n      dup2\n        /* \"#utility.yul\":21936:21961   */\n      gt\n        /* \"#utility.yul\":21933:21984   */\n      iszero\n      tag_720\n      jumpi\n        /* \"#utility.yul\":21964:21982   */\n      tag_721\n      tag_463\n      jump\t// in\n    tag_721:\n        /* \"#utility.yul\":21933:21984   */\n    tag_720:\n        /* \"#utility.yul\":22013:22017   */\n      dup2\n        /* \"#utility.yul\":22006:22011   */\n      dup2\n        /* \"#utility.yul\":22002:22018   */\n      mul\n        /* \"#utility.yul\":21993:22018   */\n      swap1\n      pop\n        /* \"#utility.yul\":20951:22024   */\n    tag_706:\n      swap4\n      swap3\n      pop\n      pop\n      pop\n      jump\t// out\n        /* \"#utility.yul\":22030:22315   */\n    tag_221:\n        /* \"#utility.yul\":22090:22095   */\n      0x00\n        /* \"#utility.yul\":22114:22137   */\n      tag_723\n        /* \"#utility.yul\":22132:22136   */\n      dup3\n        /* \"#utility.yul\":22114:22137   */\n      tag_429\n      jump\t// in\n    tag_723:\n        /* \"#utility.yul\":22106:22137   */\n      swap2\n      pop\n        /* \"#utility.yul\":22158:22185   */\n      tag_724\n        /* \"#utility.yul\":22176:22184   */\n      dup4\n        /* \"#utility.yul\":22158:22185   */\n      tag_429\n      jump\t// in\n    tag_724:\n        /* \"#utility.yul\":22146:22185   */\n      swap3\n      pop\n        /* \"#utility.yul\":22204:22308   */\n      tag_725\n        /* \"#utility.yul\":22241:22307   */\n      0xffffffffffffffffffffffffffffffffffffffffffffffffffffffffffffffff\n        /* \"#utility.yul\":22231:22239   */\n      dup5\n        /* \"#utility.yul\":22225:22229   */\n      dup5\n        /* \"#utility.yul\":22204:22308   */\n      tag_471\n      jump\t// in\n    tag_725:\n        /* \"#utility.yul\":22195:22308   */\n      swap1\n      pop\n        /* \"#utility.yul\":22030:22315   */\n      swap3\n      swap2\n      pop\n      pop\n      jump\t// out\n        /* \"#utility.yul\":22321:22731   */\n    tag_223:\n        /* \"#utility.yul\":22361:22368   */\n      0x00\n        /* \"#utility.yul\":22384:22404   */\n      tag_727\n        /* \"#utility.yul\":22402:22403   */\n      dup3\n        /* \"#utility.yul\":22384:22404   */\n      tag_429\n      jump\t// in\n    tag_727:\n        /* \"#utility.yul\":22379:22404   */\n      swap2\n      pop\n        /* \"#utility.yul\":22418:22438   */\n      tag_728\n        /* \"#utility.yul\":22436:22437   */\n      dup4\n        /* \"#utility.yul\":22418:22438   */\n      tag_429\n      jump\t// in\n    tag_728:\n        /* \"#utility.yul\":22413:22438   */\n      swap3\n      pop\n        /* \"#utility.yul\":22473:22474   */\n      dup3\n        /* \"#utility.yul\":22470:22471   */\n      dup3\n        /* \"#utility.yul\":22466:22475   */\n      mul\n        /* \"#utility.yul\":22495:22525   */\n      tag_729\n        /* \"#utility.yul\":22513:22524   */\n      dup2\n        /* \"#utility.yul\":22495:22525   */\n      tag_429\n      jump\t// in\n    tag_729:\n        /* \"#utility.yul\":22484:22525   */\n      swap2\n      pop\n        /* \"#utility.yul\":22674:22675   */\n      dup3\n        /* \"#utility.yul\":22665:22672   */\n      dup3\n        /* \"#utility.yul\":22661:22676   */\n      div\n        /* \"#utility.yul\":22658:22659   */\n      dup5\n        /* \"#utility.yul\":22655:22677   */\n      eq\n        /* \"#utility.yul\":22635:22636   */\n      dup4\n        /* \"#utility.yul\":22628:22637   */\n      iszero\n        /* \"#utility.yul\":22608:22691   */\n      or\n        /* \"#utility.yul\":22585:22724   */\n      tag_730\n      jumpi\n        /* \"#utility.yul\":22704:22722   */\n      tag_731\n      tag_463\n      jump\t// in\n    tag_731:\n        /* \"#utility.yul\":22585:22724   */\n    tag_730:\n        /* \"#utility.yul\":22369:22731   */\n      pop\n        /* \"#utility.yul\":22321:22731   */\n      swap3\n      swap2\n      pop\n      pop\n      jump\t// out\n        /* \"#utility.yul\":22737:22917   */\n    tag_472:\n        /* \"#utility.yul\":22785:22862   */\n      0x4e487b7100000000000000000000000000000000000000000000000000000000\n        /* \"#utility.yul\":22782:22783   */\n      0x00\n        /* \"#utility.yul\":22775:22863   */\n      mstore\n        /* \"#utility.yul\":22882:22886   */\n      0x12\n        /* \"#utility.yul\":22879:22880   */\n      0x04\n        /* \"#utility.yul\":22872:22887   */\n      mstore\n        /* \"#utility.yul\":22906:22910   */\n      0x24\n        /* \"#utility.yul\":22903:22904   */\n      0x00\n        /* \"#utility.yul\":22896:22911   */\n      revert\n        /* \"#utility.yul\":22923:23108   */\n    tag_225:\n        /* \"#utility.yul\":22963:22964   */\n      0x00\n        /* \"#utility.yul\":22980:23000   */\n      tag_734\n        /* \"#utility.yul\":22998:22999   */\n      dup3\n        /* \"#utility.yul\":22980:23000   */\n      tag_429\n      jump\t// in\n    tag_734:\n        /* \"#utility.yul\":22975:23000   */\n      swap2\n      pop\n        /* \"#utility.yul\":23014:23034   */\n      tag_735\n        /* \"#utility.yul\":23032:23033   */\n      dup4\n        /* \"#utility.yul\":23014:23034   */\n      tag_429\n      jump\t// in\n    tag_735:\n        /* \"#utility.yul\":23009:23034   */\n      swap3\n      pop\n        /* \"#utility.yul\":23053:23054   */\n      dup3\n        /* \"#utility.yul\":23043:23078   */\n      tag_736\n      jumpi\n        /* \"#utility.yul\":23058:23076   */\n      tag_737\n      tag_472\n      jump\t// in\n    tag_737:\n        /* \"#utility.yul\":23043:23078   */\n    tag_736:\n        /* \"#utility.yul\":23100:23101   */\n      dup3\n        /* \"#utility.yul\":23097:23098   */\n      dup3\n        /* \"#utility.yul\":23093:23102   */\n      div\n        /* \"#utility.yul\":23088:23102   */\n      swap1\n      pop\n        /* \"#utility.yul\":22923:23108   */\n      swap3\n      swap2\n      pop\n      pop\n      jump\t// out\n        /* \"#utility.yul\":23114:23279   */\n    tag_473:\n        /* \"#utility.yul\":23254:23271   */\n      0x4c6f616e206e6f74206163746976650000000000000000000000000000000000\n        /* \"#utility.yul\":23250:23251   */\n      0x00\n        /* \"#utility.yul\":23242:23248   */\n      dup3\n        /* \"#utility.yul\":23238:23252   */\n      add\n        /* \"#utility.yul\":23231:23272   */\n      mstore\n        /* \"#utility.yul\":23114:23279   */\n      pop\n      jump\t// out\n        /* \"#utility.yul\":23285:23651   */\n    tag_474:\n        /* \"#utility.yul\":23427:23430   */\n      0x00\n        /* \"#utility.yul\":23448:23515   */\n      tag_740\n        /* \"#utility.yul\":23512:23514   */\n      0x0f\n        /* \"#utility.yul\":23507:23510   */\n      dup4\n        /* \"#utility.yul\":23448:23515   */\n      tag_447\n      jump\t// in\n    tag_740:\n        /* \"#utility.yul\":23441:23515   */\n      swap2\n      pop\n        /* \"#utility.yul\":23524:23617   */\n      tag_741\n        /* \"#utility.yul\":23613:23616   */\n      dup3\n        /* \"#utility.yul\":23524:23617   */\n      tag_473\n      jump\t// in\n    tag_741:\n        /* \"#utility.yul\":23642:23644   */\n      0x20\n        /* \"#utility.yul\":23637:23640   */\n      dup3\n        /* \"#utility.yul\":23633:23645   */\n      add\n        /* \"#utility.yul\":23626:23645   */\n      swap1\n      pop\n        /* \"#utility.yul\":23285:23651   */\n      swap2\n      swap1\n      pop\n      jump\t// out\n        /* \"#utility.yul\":23657:24076   */\n    tag_236:\n        /* \"#utility.yul\":23823:23827   */\n      0x00\n        /* \"#utility.yul\":23861:23863   */\n      0x20\n        /* \"#utility.yul\":23850:23859   */\n      dup3\n        /* \"#utility.yul\":23846:23864   */\n      add\n        /* \"#utility.yul\":23838:23864   */\n      swap1\n      pop\n        /* \"#utility.yul\":23910:23919   */\n      dup2\n        /* \"#utility.yul\":23904:23908   */\n      dup2\n        /* \"#utility.yul\":23900:23920   */\n      sub\n        /* \"#utility.yul\":23896:23897   */\n      0x00\n        /* \"#utility.yul\":23885:23894   */\n      dup4\n        /* \"#utility.yul\":23881:23898   */\n      add\n        /* \"#utility.yul\":23874:23921   */\n      mstore\n        /* \"#utility.yul\":23938:24069   */\n      tag_743\n        /* \"#utility.yul\":24064:24068   */\n      dup2\n        /* \"#utility.yul\":23938:24069   */\n      tag_474\n      jump\t// in\n    tag_743:\n        /* \"#utility.yul\":23930:24069   */\n      swap1\n      pop\n        /* \"#utility.yul\":23657:24076   */\n      swap2\n      swap1\n      pop\n      jump\t// out\n        /* \"#utility.yul\":24082:24246   */\n    tag_475:\n        /* \"#utility.yul\":24222:24238   */\n      0x4e6f74206c6f616e206f776e6572000000000000000000000000000000000000\n        /* \"#utility.yul\":24218:24219   */\n      0x00\n        /* \"#utility.yul\":24210:24216   */\n      dup3\n        /* \"#utility.yul\":24206:24220   */\n      add\n        /* \"#utility.yul\":24199:24239   */\n      mstore\n        /* \"#utility.yul\":24082:24246   */\n      pop\n      jump\t// out\n        /* \"#utility.yul\":24252:24618   */\n    tag_476:\n        /* \"#utility.yul\":24394:24397   */\n      0x00\n        /* \"#utility.yul\":24415:24482   */\n      tag_746\n        /* \"#utility.yul\":24479:24481   */\n      0x0e\n        /* \"#utility.yul\":24474:24477   */\n      dup4\n        /* \"#utility.yul\":24415:24482   */\n      tag_447\n      jump\t// in\n    tag_746:\n        /* \"#utility.yul\":24408:24482   */\n      swap2\n      pop\n        /* \"#utility.yul\":24491:24584   */\n      tag_747\n        /* \"#utility.yul\":24580:24583   */\n      dup3\n        /* \"#utility.yul\":24491:24584   */\n      tag_475\n      jump\t// in\n    tag_747:\n        /* \"#utility.yul\":24609:24611   */\n      0x20\n        /* \"#utility.yul\":24604:24607   */\n      dup3\n        /* \"#utility.yul\":24600:24612   */\n      add\n        /* \"#utility.yul\":24593:24612   */\n      swap1\n      pop\n        /* \"#utility.yul\":24252:24618   */\n      swap2\n      swap1\n      pop\n      jump\t// out\n        /* \"#utility.yul\":24624:25043   */\n    tag_239:\n        /* \"#utility.yul\":24790:24794   */\n      0x00\n        /* \"#utility.yul\":24828:24830   */\n      0x20\n        /* \"#utility.yul\":24817:24826   */\n      dup3\n        /* \"#utility.yul\":24813:24831   */\n      add\n        /* \"#utility.yul\":24805:24831   */\n      swap1\n      pop\n        /* \"#utility.yul\":24877:24886   */\n      dup2\n        /* \"#utility.yul\":24871:24875   */\n      dup2\n        /* \"#utility.yul\":24867:24887   */\n      sub\n        /* \"#utility.yul\":24863:24864   */\n      0x00\n        /* \"#utility.yul\":24852:24861   */\n      dup4\n        /* \"#utility.yul\":24848:24865   */\n      add\n        /* \"#utility.yul\":24841:24888   */\n      mstore\n        /* \"#utility.yul\":24905:25036   */\n      tag_749\n        /* \"#utility.yul\":25031:25035   */\n      dup2\n        /* \"#utility.yul\":24905:25036   */\n      tag_476\n      jump\t// in\n    tag_749:\n        /* \"#utility.yul\":24897:25036   */\n      swap1\n      pop\n        /* \"#utility.yul\":24624:25043   */\n      swap2\n      swap1\n      pop\n      jump\t// out\n        /* \"#utility.yul\":25049:25224   */\n    tag_477:\n        /* \"#utility.yul\":25189:25216   */\n      0x52657061796d656e74207472616e73666572206661696c656400000000000000\n        /* \"#utility.yul\":25185:25186   */\n      0x00\n        /* \"#utility.yul\":25177:25183   */\n      dup3\n        /* \"#utility.yul\":25173:25187   */\n      add\n        /* \"#utility.yul\":25166:25217   */\n      mstore\n        /* \"#utility.yul\":25049:25224   */\n      pop\n      jump\t// out\n        /* \"#utility.yul\":25230:25596   */\n    tag_478:\n        /* \"#utility.yul\":25372:25375   */\n      0x00\n        /* \"#utility.yul\":25393:25460   */\n      tag_752\n        /* \"#utility.yul\":25457:25459   */\n      0x19\n        /* \"#utility.yul\":25452:25455   */\n      dup4\n        /* \"#utility.yul\":25393:25460   */\n      tag_447\n      jump\t// in\n    tag_752:\n        /* \"#utility.yul\":25386:25460   */\n      swap2\n      pop\n        /* \"#utility.yul\":25469:25562   */\n      tag_753\n        /* \"#utility.yul\":25558:25561   */\n      dup3\n        /* \"#utility.yul\":25469:25562   */\n      tag_477\n      jump\t// in\n    tag_753:\n        /* \"#utility.yul\":25587:25589   */\n      0x20\n        /* \"#utility.yul\":25582:25585   */\n      dup3\n        /* \"#utility.yul\":25578:25590   */\n      add\n        /* \"#utility.yul\":25571:25590   */\n      swap1\n      pop\n        /* \"#utility.yul\":25230:25596   */\n      swap2\n      swap1\n      pop\n      jump\t// out\n        /* \"#utility.yul\":25602:26021   */\n    tag_248:\n        /* \"#utility.yul\":25768:25772   */\n      0x00\n        /* \"#utility.yul\":25806:25808   */\n      0x20\n        /* \"#utility.yul\":25795:25804   */\n      dup3\n        /* \"#utility.yul\":25791:25809   */\n      add\n        /* \"#utility.yul\":25783:25809   */\n      swap1\n      pop\n        /* \"#utility.yul\":25855:25864   */\n      dup2\n        /* \"#utility.yul\":25849:25853   */\n      dup2\n        /* \"#utility.yul\":25845:25865   */\n      sub\n        /* \"#utility.yul\":25841:25842   */\n      0x00\n        /* \"#utility.yul\":25830:25839   */\n      dup4\n        /* \"#utility.yul\":25826:25843   */\n      add\n        /* \"#utility.yul\":25819:25866   */\n      mstore\n        /* \"#utility.yul\":25883:26014   */\n      tag_755\n        /* \"#utility.yul\":26009:26013   */\n      dup2\n        /* \"#utility.yul\":25883:26014   */\n      tag_478\n      jump\t// in\n    tag_755:\n        /* \"#utility.yul\":25875:26014   */\n      swap1\n      pop\n        /* \"#utility.yul\":25602:26021   */\n      swap2\n      swap1\n      pop\n      jump\t// out\n        /* \"#utility.yul\":26027:26201   */\n    tag_479:\n        /* \"#utility.yul\":26167:26193   */\n      0x436f6c6c61746572616c2072657475726e206661696c65640000000000000000\n        /* \"#utility.yul\":26163:26164   */\n      0x00\n        /* \"#utility.yul\":26155:26161   */\n      dup3\n        /* \"#utility.yul\":26151:26165   */\n      add\n        /* \"#utility.yul\":26144:26194   */\n      mstore\n        /* \"#utility.yul\":26027:26201   */\n      pop\n      jump\t// out\n        /* \"#utility.yul\":26207:26573   */\n    tag_480:\n        /* \"#utility.yul\":26349:26352   */\n      0x00\n        /* \"#utility.yul\":26370:26437   */\n      tag_758\n        /* \"#utility.yul\":26434:26436   */\n      0x18\n        /* \"#utility.yul\":26429:26432   */\n      dup4\n        /* \"#utility.yul\":26370:26437   */\n      tag_447\n      jump\t// in\n    tag_758:\n        /* \"#utility.yul\":26363:26437   */\n      swap2\n      pop\n        /* \"#utility.yul\":26446:26539   */\n      tag_759\n        /* \"#utility.yul\":26535:26538   */\n      dup3\n        /* \"#utility.yul\":26446:26539   */\n      tag_479\n      jump\t// in\n    tag_759:\n        /* \"#utility.yul\":26564:26566   */\n      0x20\n        /* \"#utility.yul\":26559:26562   */\n      dup3\n        /* \"#utility.yul\":26555:26567   */\n      add\n        /* \"#utility.yul\":26548:26567   */\n      swap1\n      pop\n        /* \"#utility.yul\":26207:26573   */\n      swap2\n      swap1\n      pop\n      jump\t// out\n        /* \"#utility.yul\":26579:26998   */\n    tag_255:\n        /* \"#utility.yul\":26745:26749   */\n      0x00\n        /* \"#utility.yul\":26783:26785   */\n      0x20\n        /* \"#utility.yul\":26772:26781   */\n      dup3\n        /* \"#utility.yul\":26768:26786   */\n      add\n        /* \"#utility.yul\":26760:26786   */\n      swap1\n      pop\n        /* \"#utility.yul\":26832:26841   */\n      dup2\n        /* \"#utility.yul\":26826:26830   */\n      dup2\n        /* \"#utility.yul\":26822:26842   */\n      sub\n        /* \"#utility.yul\":26818:26819   */\n      0x00\n        /* \"#utility.yul\":26807:26816   */\n      dup4\n        /* \"#utility.yul\":26803:26820   */\n      add\n        /* \"#utility.yul\":26796:26843   */\n      mstore\n        /* \"#utility.yul\":26860:26991   */\n      tag_761\n        /* \"#utility.yul\":26986:26990   */\n      dup2\n        /* \"#utility.yul\":26860:26991   */\n      tag_480\n      jump\t// in\n    tag_761:\n        /* \"#utility.yul\":26852:26991   */\n      swap1\n      pop\n        /* \"#utility.yul\":26579:26998   */\n      swap2\n      swap1\n      pop\n      jump\t// out\n        /* \"#utility.yul\":27004:27198   */\n    tag_257:\n        /* \"#utility.yul\":27044:27048   */\n      0x00\n        /* \"#utility.yul\":27064:27084   */\n      tag_763\n        /* \"#utility.yul\":27082:27083   */\n      dup3\n        /* \"#utility.yul\":27064:27084   */\n      tag_429\n      jump\t// in\n    tag_763:\n        /* \"#utility.yul\":27059:27084   */\n      swap2\n      pop\n        /* \"#utility.yul\":27098:27118   */\n      tag_764\n        /* \"#utility.yul\":27116:27117   */\n      dup4\n        /* \"#utility.yul\":27098:27118   */\n      tag_429\n      jump\t// in\n    tag_764:\n        /* \"#utility.yul\":27093:27118   */\n      swap3\n      pop\n        /* \"#utility.yul\":27142:27143   */\n      dup3\n        /* \"#utility.yul\":27139:27140   */\n      dup3\n        /* \"#utility.yul\":27135:27144   */\n      sub\n        /* \"#utility.yul\":27127:27144   */\n      swap1\n      pop\n        /* \"#utility.yul\":27166:27167   */\n      dup2\n        /* \"#utility.yul\":27160:27164   */\n      dup2\n        /* \"#utility.yul\":27157:27168   */\n      gt\n        /* \"#utility.yul\":27154:27191   */\n      iszero\n      tag_765\n      jumpi\n        /* \"#utility.yul\":27171:27189   */\n      tag_766\n      tag_463\n      jump\t// in\n    tag_766:\n        /* \"#utility.yul\":27154:27191   */\n    tag_765:\n        /* \"#utility.yul\":27004:27198   */\n      swap3\n      swap2\n      pop\n      pop\n      jump\t// out\n        /* \"#utility.yul\":27204:27375   */\n    tag_481:\n        /* \"#utility.yul\":27344:27367   */\n      0x4c6f616e206e6f74206c6971756964617461626c650000000000000000000000\n        /* \"#utility.yul\":27340:27341   */\n      0x00\n        /* \"#utility.yul\":27332:27338   */\n      dup3\n        /* \"#utility.yul\":27328:27342   */\n      add\n        /* \"#utility.yul\":27321:27368   */\n      mstore\n        /* \"#utility.yul\":27204:27375   */\n      pop\n      jump\t// out\n        /* \"#utility.yul\":27381:27747   */\n    tag_482:\n        /* \"#utility.yul\":27523:27526   */\n      0x00\n        /* \"#utility.yul\":27544:27611   */\n      tag_769\n        /* \"#utility.yul\":27608:27610   */\n      0x15\n        /* \"#utility.yul\":27603:27606   */\n      dup4\n        /* \"#utility.yul\":27544:27611   */\n      tag_447\n      jump\t// in\n    tag_769:\n        /* \"#utility.yul\":27537:27611   */\n      swap2\n      pop\n        /* \"#utility.yul\":27620:27713   */\n      tag_770\n        /* \"#utility.yul\":27709:27712   */\n      dup3\n        /* \"#utility.yul\":27620:27713   */\n      tag_481\n      jump\t// in\n    tag_770:\n        /* \"#utility.yul\":27738:27740   */\n      0x20\n        /* \"#utility.yul\":27733:27736   */\n      dup3\n        /* \"#utility.yul\":27729:27741   */\n      add\n        /* \"#utility.yul\":27722:27741   */\n      swap1\n      pop\n        /* \"#utility.yul\":27381:27747   */\n      swap2\n      swap1\n      pop\n      jump\t// out\n        /* \"#utility.yul\":27753:28172   */\n    tag_275:\n        /* \"#utility.yul\":27919:27923   */\n      0x00\n        /* \"#utility.yul\":27957:27959   */\n      0x20\n        /* \"#utility.yul\":27946:27955   */\n      dup3\n        /* \"#utility.yul\":27942:27960   */\n      add\n        /* \"#utility.yul\":27934:27960   */\n      swap1\n      pop\n        /* \"#utility.yul\":28006:28015   */\n      dup2\n        /* \"#utility.yul\":28000:28004   */\n      dup2\n        /* \"#utility.yul\":27996:28016   */\n      sub\n        /* \"#utility.yul\":27992:27993   */\n      0x00\n        /* \"#utility.yul\":27981:27990   */\n      dup4\n        /* \"#utility.yul\":27977:27994   */\n      add\n        /* \"#utility.yul\":27970:28017   */\n      mstore\n        /* \"#utility.yul\":28034:28165   */\n      tag_772\n        /* \"#utility.yul\":28160:28164   */\n      dup2\n        /* \"#utility.yul\":28034:28165   */\n      tag_482\n      jump\t// in\n    tag_772:\n        /* \"#utility.yul\":28026:28165   */\n      swap1\n      pop\n        /* \"#utility.yul\":27753:28172   */\n      swap2\n      swap1\n      pop\n      jump\t// out\n        /* \"#utility.yul\":28178:28354   */\n    tag_483:\n        /* \"#utility.yul\":28318:28346   */\n      0x4c69717569646174696f6e207061796d656e74206661696c6564000000000000\n        /* \"#utility.yul\":28314:28315   */\n      0x00\n        /* \"#utility.yul\":28306:28312   */\n      dup3\n        /* \"#utility.yul\":28302:28316   */\n      add\n        /* \"#utility.yul\":28295:28347   */\n      mstore\n        /* \"#utility.yul\":28178:28354   */\n      pop\n      jump\t// out\n        /* \"#utility.yul\":28360:28726   */\n    tag_484:\n        /* \"#utility.yul\":28502:28505   */\n      0x00\n        /* \"#utility.yul\":28523:28590   */\n      tag_775\n        /* \"#utility.yul\":28587:28589   */\n      0x1a\n        /* \"#utility.yul\":28582:28585   */\n      dup4\n        /* \"#utility.yul\":28523:28590   */\n      tag_447\n      jump\t// in\n    tag_775:\n        /* \"#utility.yul\":28516:28590   */\n      swap2\n      pop\n        /* \"#utility.yul\":28599:28692   */\n      tag_776\n        /* \"#utility.yul\":28688:28691   */\n      dup3\n        /* \"#utility.yul\":28599:28692   */\n      tag_483\n      jump\t// in\n    tag_776:\n        /* \"#utility.yul\":28717:28719   */\n      0x20\n        /* \"#utility.yul\":28712:28715   */\n      dup3\n        /* \"#utility.yul\":28708:28720   */\n      add\n        /* \"#utility.yul\":28701:28720   */\n      swap1\n      pop\n        /* \"#utility.yul\":28360:28726   */\n      swap2\n      swap1\n      pop\n      jump\t// out\n        /* \"#utility.yul\":28732:29151   */\n    tag_287:\n        /* \"#utility.yul\":28898:28902   */\n      0x00\n        /* \"#utility.yul\":28936:28938   */\n      0x20\n        /* \"#utility.yul\":28925:28934   */\n      dup3\n        /* \"#utility.yul\":28921:28939   */\n      add\n        /* \"#utility.yul\":28913:28939   */\n      swap1\n      pop\n        /* \"#utility.yul\":28985:28994   */\n      dup2\n        /* \"#utility.yul\":28979:28983   */\n      dup2\n        /* \"#utility.yul\":28975:28995   */\n      sub\n        /* \"#utility.yul\":28971:28972   */\n      0x00\n        /* \"#utility.yul\":28960:28969   */\n      dup4\n        /* \"#utility.yul\":28956:28973   */\n      add\n        /* \"#utility.yul\":28949:28996   */\n      mstore\n        /* \"#utility.yul\":29013:29144   */\n      tag_778\n        /* \"#utility.yul\":29139:29143   */\n      dup2\n        /* \"#utility.yul\":29013:29144   */\n      tag_484\n      jump\t// in\n    tag_778:\n        /* \"#utility.yul\":29005:29144   */\n      swap1\n      pop\n        /* \"#utility.yul\":28732:29151   */\n      swap2\n      swap1\n      pop\n      jump\t// out\n        /* \"#utility.yul\":29157:29320   */\n    tag_485:\n        /* \"#utility.yul\":29297:29312   */\n      0x5261746520746f6f206869676800000000000000000000000000000000000000\n        /* \"#utility.yul\":29293:29294   */\n      0x00\n        /* \"#utility.yul\":29285:29291   */\n      dup3\n        /* \"#utility.yul\":29281:29295   */\n      add\n        /* \"#utility.yul\":29274:29313   */\n      mstore\n        /* \"#utility.yul\":29157:29320   */\n      pop\n      jump\t// out\n        /* \"#utility.yul\":29326:29692   */\n    tag_486:\n        /* \"#utility.yul\":29468:29471   */\n      0x00\n        /* \"#utility.yul\":29489:29556   */\n      tag_781\n        /* \"#utility.yul\":29553:29555   */\n      0x0d\n        /* \"#utility.yul\":29548:29551   */\n      dup4\n        /* \"#utility.yul\":29489:29556   */\n      tag_447\n      jump\t// in\n    tag_781:\n        /* \"#utility.yul\":29482:29556   */\n      swap2\n      pop\n        /* \"#utility.yul\":29565:29658   */\n      tag_782\n        /* \"#utility.yul\":29654:29657   */\n      dup3\n        /* \"#utility.yul\":29565:29658   */\n      tag_485\n      jump\t// in\n    tag_782:\n        /* \"#utility.yul\":29683:29685   */\n      0x20\n        /* \"#utility.yul\":29678:29681   */\n      dup3\n        /* \"#utility.yul\":29674:29686   */\n      add\n        /* \"#utility.yul\":29667:29686   */\n      swap1\n      pop\n        /* \"#utility.yul\":29326:29692   */\n      swap2\n      swap1\n      pop\n      jump\t// out\n        /* \"#utility.yul\":29698:30117   */\n    tag_304:\n        /* \"#utility.yul\":29864:29868   */\n      0x00\n        /* \"#utility.yul\":29902:29904   */\n      0x20\n        /* \"#utility.yul\":29891:29900   */\n      dup3\n        /* \"#utility.yul\":29887:29905   */\n      add\n        /* \"#utility.yul\":29879:29905   */\n      swap1\n      pop\n        /* \"#utility.yul\":29951:29960   */\n      dup2\n        /* \"#utility.yul\":29945:29949   */\n      dup2\n        /* \"#utility.yul\":29941:29961   */\n      sub\n        /* \"#utility.yul\":29937:29938   */\n      0x00\n        /* \"#utility.yul\":29926:29935   */\n      dup4\n        /* \"#utility.yul\":29922:29939   */\n      add\n        /* \"#utility.yul\":29915:29962   */\n      mstore\n        /* \"#utility.yul\":29979:30110   */\n      tag_784\n        /* \"#utility.yul\":30105:30109   */\n      dup2\n        /* \"#utility.yul\":29979:30110   */\n      tag_486\n      jump\t// in\n    tag_784:\n        /* \"#utility.yul\":29971:30110   */\n      swap1\n      pop\n        /* \"#utility.yul\":29698:30117   */\n      swap2\n      swap1\n      pop\n      jump\t// out\n        /* \"#utility.yul\":30123:30228   */\n    tag_487:\n        /* \"#utility.yul\":30159:30166   */\n      0x00\n        /* \"#utility.yul\":30199:30221   */\n      0xffffffffffffffffffff\n        /* \"#utility.yul\":30192:30197   */\n      dup3\n        /* \"#utility.yul\":30188:30222   */\n      and\n        /* \"#utility.yul\":30177:30222   */\n      swap1\n      pop\n        /* \"#utility.yul\":30123:30228   */\n      swap2\n      swap1\n      pop\n      jump\t// out\n        /* \"#utility.yul\":30234:30354   */\n    tag_488:\n        /* \"#utility.yul\":30306:30329   */\n      tag_787\n        /* \"#utility.yul\":30323:30328   */\n      dup2\n        /* \"#utility.yul\":30306:30329   */\n      tag_487\n      jump\t// in\n    tag_787:\n        /* \"#utility.yul\":30299:30304   */\n      dup2\n        /* \"#utility.yul\":30296:30330   */\n      eq\n        /* \"#utility.yul\":30286:30348   */\n      tag_788\n      jumpi\n        /* \"#utility.yul\":30344:30345   */\n      0x00\n        /* \"#utility.yul\":30341:30342   */\n      0x00\n        /* \"#utility.yul\":30334:30346   */\n      revert\n        /* \"#utility.yul\":30286:30348   */\n    tag_788:\n        /* \"#utility.yul\":30234:30354   */\n      pop\n      jump\t// out\n        /* \"#utility.yul\":30360:30501   */\n    tag_489:\n        /* \"#utility.yul\":30416:30421   */\n      0x00\n        /* \"#utility.yul\":30447:30453   */\n      dup2\n        /* \"#utility.yul\":30441:30454   */\n      mload\n        /* \"#utility.yul\":30432:30454   */\n      swap1\n      pop\n        /* \"#utility.yul\":30463:30495   */\n      tag_790\n        /* \"#utility.yul\":30489:30494   */\n      dup2\n        /* \"#utility.yul\":30463:30495   */\n      tag_488\n      jump\t// in\n    tag_790:\n        /* \"#utility.yul\":30360:30501   */\n      swap3\n      swap2\n      pop\n      pop\n      jump\t// out\n        /* \"#utility.yul\":30507:30583   */\n    tag_490:\n        /* \"#utility.yul\":30543:30550   */\n      0x00\n        /* \"#utility.yul\":30572:30577   */\n      dup2\n        /* \"#utility.yul\":30561:30577   */\n      swap1\n      pop\n        /* \"#utility.yul\":30507:30583   */\n      swap2\n      swap1\n      pop\n      jump\t// out\n        /* \"#utility.yul\":30589:30709   */\n    tag_491:\n        /* \"#utility.yul\":30661:30684   */\n      tag_793\n        /* \"#utility.yul\":30678:30683   */\n      dup2\n        /* \"#utility.yul\":30661:30684   */\n      tag_490\n      jump\t// in\n    tag_793:\n        /* \"#utility.yul\":30654:30659   */\n      dup2\n        /* \"#utility.yul\":30651:30685   */\n      eq\n        /* \"#utility.yul\":30641:30703   */\n      tag_794\n      jumpi\n        /* \"#utility.yul\":30699:30700   */\n      0x00\n        /* \"#utility.yul\":30696:30697   */\n      0x00\n        /* \"#utility.yul\":30689:30701   */\n      revert\n        /* \"#utility.yul\":30641:30703   */\n    tag_794:\n        /* \"#utility.yul\":30589:30709   */\n      pop\n      jump\t// out\n        /* \"#utility.yul\":30715:30856   */\n    tag_492:\n        /* \"#utility.yul\":30771:30776   */\n      0x00\n        /* \"#utility.yul\":30802:30808   */\n      dup2\n        /* \"#utility.yul\":30796:30809   */\n      mload\n        /* \"#utility.yul\":30787:30809   */\n      swap1\n      pop\n        /* \"#utility.yul\":30818:30850   */\n      tag_796\n        /* \"#utility.yul\":30844:30849   */\n      dup2\n        /* \"#utility.yul\":30818:30850   */\n      tag_491\n      jump\t// in\n    tag_796:\n        /* \"#utility.yul\":30715:30856   */\n      swap3\n      swap2\n      pop\n      pop\n      jump\t// out\n        /* \"#utility.yul\":30862:31833   */\n    tag_334:\n        /* \"#utility.yul\":30965:30971   */\n      0x00\n        /* \"#utility.yul\":30973:30979   */\n      0x00\n        /* \"#utility.yul\":30981:30987   */\n      0x00\n        /* \"#utility.yul\":30989:30995   */\n      0x00\n        /* \"#utility.yul\":30997:31003   */\n      0x00\n        /* \"#utility.yul\":31046:31049   */\n      0xa0\n        /* \"#utility.yul\":31034:31043   */\n      dup7\n        /* \"#utility.yul\":31025:31032   */\n      dup9\n        /* \"#utility.yul\":31021:31044   */\n      sub\n        /* \"#utility.yul\":31017:31050   */\n      slt\n        /* \"#utility.yul\":31014:31134   */\n      iszero\n      tag_798\n      jumpi\n        /* \"#utility.yul\":31053:31132   */\n      tag_799\n      tag_420\n      jump\t// in\n    tag_799:\n        /* \"#utility.yul\":31014:31134   */\n    tag_798:\n        /* \"#utility.yul\":31173:31174   */\n      0x00\n        /* \"#utility.yul\":31198:31261   */\n      tag_800\n        /* \"#utility.yul\":31253:31260   */\n      dup9\n        /* \"#utility.yul\":31244:31250   */\n      dup3\n        /* \"#utility.yul\":31233:31242   */\n      dup10\n        /* \"#utility.yul\":31229:31251   */\n      add\n        /* \"#utility.yul\":31198:31261   */\n      tag_489\n      jump\t// in\n    tag_800:\n        /* \"#utility.yul\":31188:31261   */\n      swap6\n      pop\n        /* \"#utility.yul\":31144:31271   */\n      pop\n        /* \"#utility.yul\":31310:31312   */\n      0x20\n        /* \"#utility.yul\":31336:31399   */\n      tag_801\n        /* \"#utility.yul\":31391:31398   */\n      dup9\n        /* \"#utility.yul\":31382:31388   */\n      dup3\n        /* \"#utility.yul\":31371:31380   */\n      dup10\n        /* \"#utility.yul\":31367:31389   */\n      add\n        /* \"#utility.yul\":31336:31399   */\n      tag_492\n      jump\t// in\n    tag_801:\n        /* \"#utility.yul\":31326:31399   */\n      swap5\n      pop\n        /* \"#utility.yul\":31281:31409   */\n      pop\n        /* \"#utility.yul\":31448:31450   */\n      0x40\n        /* \"#utility.yul\":31474:31538   */\n      tag_802\n        /* \"#utility.yul\":31530:31537   */\n      dup9\n        /* \"#utility.yul\":31521:31527   */\n      dup3\n        /* \"#utility.yul\":31510:31519   */\n      dup10\n        /* \"#utility.yul\":31506:31528   */\n      add\n        /* \"#utility.yul\":31474:31538   */\n      tag_452\n      jump\t// in\n    tag_802:\n        /* \"#utility.yul\":31464:31538   */\n      swap4\n      pop\n        /* \"#utility.yul\":31419:31548   */\n      pop\n        /* \"#utility.yul\":31587:31589   */\n      0x60\n        /* \"#utility.yul\":31613:31677   */\n      tag_803\n        /* \"#utility.yul\":31669:31676   */\n      dup9\n        /* \"#utility.yul\":31660:31666   */\n      dup3\n        /* \"#utility.yul\":31649:31658   */\n      dup10\n        /* \"#utility.yul\":31645:31667   */\n      add\n        /* \"#utility.yul\":31613:31677   */\n      tag_452\n      jump\t// in\n    tag_803:\n        /* \"#utility.yul\":31603:31677   */\n      swap3\n      pop\n        /* \"#utility.yul\":31558:31687   */\n      pop\n        /* \"#utility.yul\":31726:31729   */\n      0x80\n        /* \"#utility.yul\":31753:31816   */\n      tag_804\n        /* \"#utility.yul\":31808:31815   */\n      dup9\n        /* \"#utility.yul\":31799:31805   */\n      dup3\n        /* \"#utility.yul\":31788:31797   */\n      dup10\n        /* \"#utility.yul\":31784:31806   */\n      add\n        /* \"#utility.yul\":31753:31816   */\n      tag_489\n      jump\t// in\n    tag_804:\n        /* \"#utility.yul\":31743:31816   */\n      swap2\n      pop\n        /* \"#utility.yul\":31697:31826   */\n      pop\n        /* \"#utility.yul\":30862:31833   */\n      swap3\n      swap6\n      pop\n      swap3\n      swap6\n      swap1\n      swap4\n      pop\n      jump\t// out\n        /* \"#utility.yul\":31839:32064   */\n    tag_493:\n        /* \"#utility.yul\":31979:32013   */\n      0x507269636520666565642072657475726e6564206e6f6e2d706f736974697665\n        /* \"#utility.yul\":31975:31976   */\n      0x00\n        /* \"#utility.yul\":31967:31973   */\n      dup3\n        /* \"#utility.yul\":31963:31977   */\n      add\n        /* \"#utility.yul\":31956:32014   */\n      mstore\n        /* \"#utility.yul\":32048:32056   */\n      0x2076616c75650000000000000000000000000000000000000000000000000000\n        /* \"#utility.yul\":32043:32045   */\n      0x20\n        /* \"#utility.yul\":32035:32041   */\n      dup3\n        /* \"#utility.yul\":32031:32046   */\n      add\n        /* \"#utility.yul\":32024:32057   */\n      mstore\n        /* \"#utility.yul\":31839:32064   */\n      pop\n      jump\t// out\n        /* \"#utility.yul\":32070:32436   */\n    tag_494:\n        /* \"#utility.yul\":32212:32215   */\n      0x00\n        /* \"#utility.yul\":32233:32300   */\n      tag_807\n        /* \"#utility.yul\":32297:32299   */\n      0x26\n        /* \"#utility.yul\":32292:32295   */\n      dup4\n        /* \"#utility.yul\":32233:32300   */\n      tag_447\n      jump\t// in\n    tag_807:\n        /* \"#utility.yul\":32226:32300   */\n      swap2\n      pop\n        /* \"#utility.yul\":32309:32402   */\n      tag_808\n        /* \"#utility.yul\":32398:32401   */\n      dup3\n        /* \"#utility.yul\":32309:32402   */\n      tag_493\n      jump\t// in\n    tag_808:\n        /* \"#utility.yul\":32427:32429   */\n      0x40\n        /* \"#utility.yul\":32422:32425   */\n      dup3\n        /* \"#utility.yul\":32418:32430   */\n      add\n        /* \"#utility.yul\":32411:32430   */\n      swap1\n      pop\n        /* \"#utility.yul\":32070:32436   */\n      swap2\n      swap1\n      pop\n      jump\t// out\n        /* \"#utility.yul\":32442:32861   */\n    tag_337:\n        /* \"#utility.yul\":32608:32612   */\n      0x00\n        /* \"#utility.yul\":32646:32648   */\n      0x20\n        /* \"#utility.yul\":32635:32644   */\n      dup3\n        /* \"#utility.yul\":32631:32649   */\n      add\n        /* \"#utility.yul\":32623:32649   */\n      swap1\n      pop\n        /* \"#utility.yul\":32695:32704   */\n      dup2\n        /* \"#utility.yul\":32689:32693   */\n      dup2\n        /* \"#utility.yul\":32685:32705   */\n      sub\n        /* \"#utility.yul\":32681:32682   */\n      0x00\n        /* \"#utility.yul\":32670:32679   */\n      dup4\n        /* \"#utility.yul\":32666:32683   */\n      add\n        /* \"#utility.yul\":32659:32706   */\n      mstore\n        /* \"#utility.yul\":32723:32854   */\n      tag_810\n        /* \"#utility.yul\":32849:32853   */\n      dup2\n        /* \"#utility.yul\":32723:32854   */\n      tag_494\n      jump\t// in\n    tag_810:\n        /* \"#utility.yul\":32715:32854   */\n      swap1\n      pop\n        /* \"#utility.yul\":32442:32861   */\n      swap2\n      swap1\n      pop\n      jump\t// out\n        /* \"#utility.yul\":32867:33032   */\n    tag_495:\n        /* \"#utility.yul\":33007:33024   */\n      0x5769746864726177206661696c65640000000000000000000000000000000000\n        /* \"#utility.yul\":33003:33004   */\n      0x00\n        /* \"#utility.yul\":32995:33001   */\n      dup3\n        /* \"#utility.yul\":32991:33005   */\n      add\n        /* \"#utility.yul\":32984:33025   */\n      mstore\n        /* \"#utility.yul\":32867:33032   */\n      pop\n      jump\t// out\n        /* \"#utility.yul\":33038:33404   */\n    tag_496:\n        /* \"#utility.yul\":33180:33183   */\n      0x00\n        /* \"#utility.yul\":33201:33268   */\n      tag_813\n        /* \"#utility.yul\":33265:33267   */\n      0x0f\n        /* \"#utility.yul\":33260:33263   */\n      dup4\n        /* \"#utility.yul\":33201:33268   */\n      tag_447\n      jump\t// in\n    tag_813:\n        /* \"#utility.yul\":33194:33268   */\n      swap2\n      pop\n        /* \"#utility.yul\":33277:33370   */\n      tag_814\n        /* \"#utility.yul\":33366:33369   */\n      dup3\n        /* \"#utility.yul\":33277:33370   */\n      tag_495\n      jump\t// in\n    tag_814:\n        /* \"#utility.yul\":33395:33397   */\n      0x20\n        /* \"#utility.yul\":33390:33393   */\n      dup3\n        /* \"#utility.yul\":33386:33398   */\n      add\n        /* \"#utility.yul\":33379:33398   */\n      swap1\n      pop\n        /* \"#utility.yul\":33038:33404   */\n      swap2\n      swap1\n      pop\n      jump\t// out\n        /* \"#utility.yul\":33410:33829   */\n    tag_348:\n        /* \"#utility.yul\":33576:33580   */\n      0x00\n        /* \"#utility.yul\":33614:33616   */\n      0x20\n        /* \"#utility.yul\":33603:33612   */\n      dup3\n        /* \"#utility.yul\":33599:33617   */\n      add\n        /* \"#utility.yul\":33591:33617   */\n      swap1\n      pop\n        /* \"#utility.yul\":33663:33672   */\n      dup2\n        /* \"#utility.yul\":33657:33661   */\n      dup2\n        /* \"#utility.yul\":33653:33673   */\n      sub\n        /* \"#utility.yul\":33649:33650   */\n      0x00\n        /* \"#utility.yul\":33638:33647   */\n      dup4\n        /* \"#utility.yul\":33634:33651   */\n      add\n        /* \"#utility.yul\":33627:33674   */\n      mstore\n        /* \"#utility.yul\":33691:33822   */\n      tag_816\n        /* \"#utility.yul\":33817:33821   */\n      dup2\n        /* \"#utility.yul\":33691:33822   */\n      tag_496\n      jump\t// in\n    tag_816:\n        /* \"#utility.yul\":33683:33822   */\n      swap1\n      pop\n        /* \"#utility.yul\":33410:33829   */\n      swap2\n      swap1\n      pop\n      jump\t// out\n        /* \"#utility.yul\":33835:34003   */\n    tag_497:\n        /* \"#utility.yul\":33975:33995   */\n      0x416d6f756e74206d757374206265203e20300000000000000000000000000000\n        /* \"#utility.yul\":33971:33972   */\n      0x00\n        /* \"#utility.yul\":33963:33969   */\n      dup3\n        /* \"#utility.yul\":33959:33973   */\n      add\n        /* \"#utility.yul\":33952:33996   */\n      mstore\n        /* \"#utility.yul\":33835:34003   */\n      pop\n      jump\t// out\n        /* \"#utility.yul\":34009:34375   */\n    tag_498:\n        /* \"#utility.yul\":34151:34154   */\n      0x00\n        /* \"#utility.yul\":34172:34239   */\n      tag_819\n        /* \"#utility.yul\":34236:34238   */\n      0x12\n        /* \"#utility.yul\":34231:34234   */\n      dup4\n        /* \"#utility.yul\":34172:34239   */\n      tag_447\n      jump\t// in\n    tag_819:\n        /* \"#utility.yul\":34165:34239   */\n      swap2\n      pop\n        /* \"#utility.yul\":34248:34341   */\n      tag_820\n        /* \"#utility.yul\":34337:34340   */\n      dup3\n        /* \"#utility.yul\":34248:34341   */\n      tag_497\n      jump\t// in\n    tag_820:\n        /* \"#utility.yul\":34366:34368   */\n      0x20\n        /* \"#utility.yul\":34361:34364   */\n      dup3\n        /* \"#utility.yul\":34357:34369   */\n      add\n        /* \"#utility.yul\":34350:34369   */\n      swap1\n      pop\n        /* \"#utility.yul\":34009:34375   */\n      swap2\n      swap1\n      pop\n      jump\t// out\n        /* \"#utility.yul\":34381:34800   */\n    tag_365:\n        /* \"#utility.yul\":34547:34551   */\n      0x00\n        /* \"#utility.yul\":34585:34587   */\n      0x20\n        /* \"#utility.yul\":34574:34583   */\n      dup3\n        /* \"#utility.yul\":34570:34588   */\n      add\n        /* \"#utility.yul\":34562:34588   */\n      swap1\n      pop\n        /* \"#utility.yul\":34634:34643   */\n      dup2\n        /* \"#utility.yul\":34628:34632   */\n      dup2\n        /* \"#utility.yul\":34624:34644   */\n      sub\n        /* \"#utility.yul\":34620:34621   */\n      0x00\n        /* \"#utility.yul\":34609:34618   */\n      dup4\n        /* \"#utility.yul\":34605:34622   */\n      add\n        /* \"#utility.yul\":34598:34645   */\n      mstore\n        /* \"#utility.yul\":34662:34793   */\n      tag_822\n        /* \"#utility.yul\":34788:34792   */\n      dup2\n        /* \"#utility.yul\":34662:34793   */\n      tag_498\n      jump\t// in\n    tag_822:\n        /* \"#utility.yul\":34654:34793   */\n      swap1\n      pop\n        /* \"#utility.yul\":34381:34800   */\n      swap2\n      swap1\n      pop\n      jump\t// out\n        /* \"#utility.yul\":34806:34987   */\n    tag_499:\n        /* \"#utility.yul\":34946:34979   */\n      0x5265656e7472616e637947756172643a207265656e7472616e742063616c6c00\n        /* \"#utility.yul\":34942:34943   */\n      0x00\n        /* \"#utility.yul\":34934:34940   */\n      dup3\n        /* \"#utility.yul\":34930:34944   */\n      add\n        /* \"#utility.yul\":34923:34980   */\n      mstore\n        /* \"#utility.yul\":34806:34987   */\n      pop\n      jump\t// out\n        /* \"#utility.yul\":34993:35359   */\n    tag_500:\n        /* \"#utility.yul\":35135:35138   */\n      0x00\n        /* \"#utility.yul\":35156:35223   */\n      tag_825\n        /* \"#utility.yul\":35220:35222   */\n      0x1f\n        /* \"#utility.yul\":35215:35218   */\n      dup4\n        /* \"#utility.yul\":35156:35223   */\n      tag_447\n      jump\t// in\n    tag_825:\n        /* \"#utility.yul\":35149:35223   */\n      swap2\n      pop\n        /* \"#utility.yul\":35232:35325   */\n      tag_826\n        /* \"#utility.yul\":35321:35324   */\n      dup3\n        /* \"#utility.yul\":35232:35325   */\n      tag_499\n      jump\t// in\n    tag_826:\n        /* \"#utility.yul\":35350:35352   */\n      0x20\n        /* \"#utility.yul\":35345:35348   */\n      dup3\n        /* \"#utility.yul\":35341:35353   */\n      add\n        /* \"#utility.yul\":35334:35353   */\n      swap1\n      pop\n        /* \"#utility.yul\":34993:35359   */\n      swap2\n      swap1\n      pop\n      jump\t// out\n        /* \"#utility.yul\":35365:35784   */\n    tag_387:\n        /* \"#utility.yul\":35531:35535   */\n      0x00\n        /* \"#utility.yul\":35569:35571   */\n      0x20\n        /* \"#utility.yul\":35558:35567   */\n      dup3\n        /* \"#utility.yul\":35554:35572   */\n      add\n        /* \"#utility.yul\":35546:35572   */\n      swap1\n      pop\n        /* \"#utility.yul\":35618:35627   */\n      dup2\n        /* \"#utility.yul\":35612:35616   */\n      dup2\n        /* \"#utility.yul\":35608:35628   */\n      sub\n        /* \"#utility.yul\":35604:35605   */\n      0x00\n        /* \"#utility.yul\":35593:35602   */\n      dup4\n        /* \"#utility.yul\":35589:35606   */\n      add\n        /* \"#utility.yul\":35582:35629   */\n      mstore\n        /* \"#utility.yul\":35646:35777   */\n      tag_828\n        /* \"#utility.yul\":35772:35776   */\n      dup2\n        /* \"#utility.yul\":35646:35777   */\n      tag_500\n      jump\t// in\n    tag_828:\n        /* \"#utility.yul\":35638:35777   */\n      swap1\n      pop\n        /* \"#utility.yul\":35365:35784   */\n      swap2\n      swap1\n      pop\n      jump\t// out\n        /* \"#utility.yul\":35790:35956   */\n    tag_501:\n        /* \"#utility.yul\":35930:35948   */\n      0x5061757361626c653a2070617573656400000000000000000000000000000000\n        /* \"#utility.yul\":35926:35927   */\n      0x00\n        /* \"#utility.yul\":35918:35924   */\n      dup3\n        /* \"#utility.yul\":35914:35928   */\n      add\n        /* \"#utility.yul\":35907:35949   */\n      mstore\n        /* \"#utility.yul\":35790:35956   */\n      pop\n      jump\t// out\n        /* \"#utility.yul\":35962:36328   */\n    tag_502:\n        /* \"#utility.yul\":36104:36107   */\n      0x00\n        /* \"#utility.yul\":36125:36192   */\n      tag_831\n        /* \"#utility.yul\":36189:36191   */\n      0x10\n        /* \"#utility.yul\":36184:36187   */\n      dup4\n        /* \"#utility.yul\":36125:36192   */\n      tag_447\n      jump\t// in\n    tag_831:\n        /* \"#utility.yul\":36118:36192   */\n      swap2\n      pop\n        /* \"#utility.yul\":36201:36294   */\n      tag_832\n        /* \"#utility.yul\":36290:36293   */\n      dup3\n        /* \"#utility.yul\":36201:36294   */\n      tag_501\n      jump\t// in\n    tag_832:\n        /* \"#utility.yul\":36319:36321   */\n      0x20\n        /* \"#utility.yul\":36314:36317   */\n      dup3\n        /* \"#utility.yul\":36310:36322   */\n      add\n        /* \"#utility.yul\":36303:36322   */\n      swap1\n      pop\n        /* \"#utility.yul\":35962:36328   */\n      swap2\n      swap1\n      pop\n      jump\t// out\n        /* \"#utility.yul\":36334:36753   */\n    tag_392:\n        /* \"#utility.yul\":36500:36504   */\n      0x00\n        /* \"#utility.yul\":36538:36540   */\n      0x20\n        /* \"#utility.yul\":36527:36536   */\n      dup3\n        /* \"#utility.yul\":36523:36541   */\n      add\n        /* \"#utility.yul\":36515:36541   */\n      swap1\n      pop\n        /* \"#utility.yul\":36587:36596   */\n      dup2\n        /* \"#utility.yul\":36581:36585   */\n      dup2\n        /* \"#utility.yul\":36577:36597   */\n      sub\n        /* \"#utility.yul\":36573:36574   */\n      0x00\n        /* \"#utility.yul\":36562:36571   */\n      dup4\n        /* \"#utility.yul\":36558:36575   */\n      add\n        /* \"#utility.yul\":36551:36598   */\n      mstore\n        /* \"#utility.yul\":36615:36746   */\n      tag_834\n        /* \"#utility.yul\":36741:36745   */\n      dup2\n        /* \"#utility.yul\":36615:36746   */\n      tag_502\n      jump\t// in\n    tag_834:\n        /* \"#utility.yul\":36607:36746   */\n      swap1\n      pop\n        /* \"#utility.yul\":36334:36753   */\n      swap2\n      swap1\n      pop\n      jump\t// out\n        /* \"#utility.yul\":36759:36929   */\n    tag_503:\n        /* \"#utility.yul\":36899:36921   */\n      0x5061757361626c653a206e6f7420706175736564000000000000000000000000\n        /* \"#utility.yul\":36895:36896   */\n      0x00\n        /* \"#utility.yul\":36887:36893   */\n      dup3\n        /* \"#utility.yul\":36883:36897   */\n      add\n        /* \"#utility.yul\":36876:36922   */\n      mstore\n        /* \"#utility.yul\":36759:36929   */\n      pop\n      jump\t// out\n        /* \"#utility.yul\":36935:37301   */\n    tag_504:\n        /* \"#utility.yul\":37077:37080   */\n      0x00\n        /* \"#utility.yul\":37098:37165   */\n      tag_837\n        /* \"#utility.yul\":37162:37164   */\n      0x14\n        /* \"#utility.yul\":37157:37160   */\n      dup4\n        /* \"#utility.yul\":37098:37165   */\n      tag_447\n      jump\t// in\n    tag_837:\n        /* \"#utility.yul\":37091:37165   */\n      swap2\n      pop\n        /* \"#utility.yul\":37174:37267   */\n      tag_838\n        /* \"#utility.yul\":37263:37266   */\n      dup3\n        /* \"#utility.yul\":37174:37267   */\n      tag_503\n      jump\t// in\n    tag_838:\n        /* \"#utility.yul\":37292:37294   */\n      0x20\n        /* \"#utility.yul\":37287:37290   */\n      dup3\n        /* \"#utility.yul\":37283:37295   */\n      add\n        /* \"#utility.yul\":37276:37295   */\n      swap1\n      pop\n        /* \"#utility.yul\":36935:37301   */\n      swap2\n      swap1\n      pop\n      jump\t// out\n        /* \"#utility.yul\":37307:37726   */\n    tag_418:\n        /* \"#utility.yul\":37473:37477   */\n      0x00\n        /* \"#utility.yul\":37511:37513   */\n      0x20\n        /* \"#utility.yul\":37500:37509   */\n      dup3\n        /* \"#utility.yul\":37496:37514   */\n      add\n        /* \"#utility.yul\":37488:37514   */\n      swap1\n      pop\n        /* \"#utility.yul\":37560:37569   */\n      dup2\n        /* \"#utility.yul\":37554:37558   */\n      dup2\n        /* \"#utility.yul\":37550:37570   */\n      sub\n        /* \"#utility.yul\":37546:37547   */\n      0x00\n        /* \"#utility.yul\":37535:37544   */\n      dup4\n        /* \"#utility.yul\":37531:37548   */\n      add\n        /* \"#utility.yul\":37524:37571   */\n      mstore\n        /* \"#utility.yul\":37588:37719   */\n      tag_840\n        /* \"#utility.yul\":37714:37718   */\n      dup2\n        /* \"#utility.yul\":37588:37719   */\n      tag_504\n      jump\t// in\n    tag_840:\n        /* \"#utility.yul\":37580:37719   */\n      swap1\n      pop\n        /* \"#utility.yul\":37307:37726   */\n      swap2\n      swap1\n      pop\n      jump\t// out\n\n    auxdata: 0xa2646970667358221220ae28b8d3f97726c0ae8156a3984b44e8d7488e0de602f930b32bb3325ce330e264736f6c634300081e0033\n}\n",
				"bytecode": {
					"linkReferences": {},
					"object": "6080604052610226600555348015610015575f5ffd5b50604051613b2d380380613b2d8339818101604052810190610037919061040c565b3360015f819055505f73ffffffffffffffffffffffffffffffffffffffff168173ffffffffffffffffffffffffffffffffffffffff16036100af575f6040517f1e4fbdf70000000000000000000000000000000000000000000000000000000081526004016100a6919061046b565b60405180910390fd5b6100be816102eb60201b60201c565b505f600160146101000a81548160ff0219169083151502179055505f73ffffffffffffffffffffffffffffffffffffffff168373ffffffffffffffffffffffffffffffffffffffff1603610147576040517f08c379a000000000000000000000000000000000000000000000000000000000815260040161013e906104de565b60405180910390fd5b5f73ffffffffffffffffffffffffffffffffffffffff168273ffffffffffffffffffffffffffffffffffffffff16036101b5576040517f08c379a00000000000000000000000000000000000000000000000000000000081526004016101ac90610546565b60405180910390fd5b5f73ffffffffffffffffffffffffffffffffffffffff168173ffffffffffffffffffffffffffffffffffffffff1603610223576040517f08c379a000000000000000000000000000000000000000000000000000000000815260040161021a906105ae565b60405180910390fd5b8260025f6101000a81548173ffffffffffffffffffffffffffffffffffffffff021916908373ffffffffffffffffffffffffffffffffffffffff1602179055508160035f6101000a81548173ffffffffffffffffffffffffffffffffffffffff021916908373ffffffffffffffffffffffffffffffffffffffff1602179055508060045f6101000a81548173ffffffffffffffffffffffffffffffffffffffff021916908373ffffffffffffffffffffffffffffffffffffffff1602179055505050506105cc565b5f60015f9054906101000a900473ffffffffffffffffffffffffffffffffffffffff1690508160015f6101000a81548173ffffffffffffffffffffffffffffffffffffffff021916908373ffffffffffffffffffffffffffffffffffffffff1602179055508173ffffffffffffffffffffffffffffffffffffffff168173ffffffffffffffffffffffffffffffffffffffff167f8be0079c531659141344cd1fd0a4f28419497f9722a3daafe3b4186f6b6457e060405160405180910390a35050565b5f5ffd5b5f73ffffffffffffffffffffffffffffffffffffffff82169050919050565b5f6103db826103b2565b9050919050565b6103eb816103d1565b81146103f5575f5ffd5b50565b5f81519050610406816103e2565b92915050565b5f5f5f60608486031215610423576104226103ae565b5b5f610430868287016103f8565b9350506020610441868287016103f8565b9250506040610452868287016103f8565b9150509250925092565b610465816103d1565b82525050565b5f60208201905061047e5f83018461045c565b92915050565b5f82825260208201905092915050565b7f496e76616c6964207661756c74425443000000000000000000000000000000005f82015250565b5f6104c8601083610484565b91506104d382610494565b602082019050919050565b5f6020820190508181035f8301526104f5816104bc565b9050919050565b7f496e76616c696420737461626c65636f696e00000000000000000000000000005f82015250565b5f610530601283610484565b915061053b826104fc565b602082019050919050565b5f6020820190508181035f83015261055d81610524565b9050919050565b7f496e76616c6964206f7261636c650000000000000000000000000000000000005f82015250565b5f610598600e83610484565b91506105a382610564565b602082019050919050565b5f6020820190508181035f8301526105c58161058c565b9050919050565b613554806105d95f395ff3fe608060405234801561000f575f5ffd5b50600436106101e3575f3560e01c80638da5cb5b1161010d578063a8f35adf116100a0578063e1ec3c681161006f578063e1ec3c681461054f578063e1f1c4a714610586578063e9cbd822146105a4578063f2fde38b146105c2576101e3565b8063a8f35adf146104c7578063afd92762146104e3578063d8bad5bd14610501578063d9e69a0514610531576101e3565b806395ccea67116100dc57806395ccea671461043f5780639b8621d51461045b5780639d939d1614610479578063a57475e014610497576101e3565b80638da5cb5b146103c75780638e15f473146103e5578063902781a91461040357806390a8ae9b14610421576101e3565b80634c19386c1161018557806366877b8d1161015457806366877b8d1461035f578063715018a614610395578063741bef1a1461039f5780638456cb59146103bd576101e3565b80634c19386c146102d75780635c975abb146102f55780635f84f3021461031357806361a4d4ef1461032f576101e3565b8063371fd8e6116101c1578063371fd8e6146102775780633f4ba83a14610293578063415f12401461029d5780634ac8eb5f146102b9576101e3565b806302bf321f146101e75780630ecbcdab1461021757806317845c6914610247575b5f5ffd5b61020160048036038101906101fc9190612381565b6105de565b60405161020e919061246c565b60405180910390f35b610231600480360381019061022c91906124b6565b610671565b60405161023e9190612503565b60405180910390f35b610261600480360381019061025c919061251c565b610cdd565b60405161026e9190612503565b60405180910390f35b610291600480360381019061028c919061251c565b610ef1565b005b61029b61127b565b005b6102b760048036038101906102b2919061251c565b61128d565b005b6102c1611602565b6040516102ce9190612503565b60405180910390f35b6102df611608565b6040516102ec9190612503565b60405180910390f35b6102fd61160e565b60405161030a9190612561565b60405180910390f35b61032d6004803603810190610328919061251c565b611624565b005b6103496004803603810190610344919061251c565b6116b2565b6040516103569190612503565b60405180910390f35b6103796004803603810190610374919061251c565b611796565b60405161038c9796959493929190612589565b60405180910390f35b61039d6118ac565b005b6103a76118bf565b6040516103b49190612651565b60405180910390f35b6103c56118e4565b005b6103cf6118f6565b6040516103dc919061266a565b60405180910390f35b6103ed61191e565b6040516103fa9190612503565b60405180910390f35b61040b6119fd565b60405161041891906126a3565b60405180910390f35b610429611a22565b6040516104369190612503565b60405180910390f35b610459600480360381019061045491906126bc565b611a27565b005b610463611af4565b6040516104709190612503565b60405180910390f35b610481611af9565b60405161048e9190612503565b60405180910390f35b6104b160048036038101906104ac919061251c565b611aff565b6040516104be9190612503565b60405180910390f35b6104e160048036038101906104dc91906124b6565b611c3e565b005b6104eb611ed1565b6040516104f89190612503565b60405180910390f35b61051b600480360381019061051691906126bc565b611ed7565b6040516105289190612503565b60405180910390f35b610539611f02565b6040516105469190612503565b60405180910390f35b6105696004803603810190610564919061251c565b611f07565b60405161057d9897969594939291906126fa565b60405180910390f35b61058e611f76565b60405161059b9190612503565b60405180910390f35b6105ac611f7c565b6040516105b991906126a3565b60405180910390f35b6105dc60048036038101906105d79190612381565b611fa1565b005b6060600a5f8373ffffffffffffffffffffffffffffffffffffffff1673ffffffffffffffffffffffffffffffffffffffff1681526020019081526020015f2080548060200260200160405190810160405280929190818152602001828054801561066557602002820191905f5260205f20905b815481526020019060010190808311610651575b50505050509050919050565b5f61067a612025565b610682612072565b5f83116106c4576040517f08c379a00000000000000000000000000000000000000000000000000000000081526004016106bb906127d0565b60405180910390fd5b5f8211610706576040517f08c379a00000000000000000000000000000000000000000000000000000000081526004016106fd90612838565b60405180910390fd5b8260025f9054906101000a900473ffffffffffffffffffffffffffffffffffffffff1673ffffffffffffffffffffffffffffffffffffffff166370a08231336040518263ffffffff1660e01b8152600401610761919061266a565b602060405180830381865afa15801561077c573d5f5f3e3d5ffd5b505050506040513d601f19601f820116820180604052508101906107a0919061286a565b10156107e1576040517f08c379a00000000000000000000000000000000000000000000000000000000081526004016107d8906128df565b60405180910390fd5b5f6107eb846116b2565b905080831115610830576040517f08c379a000000000000000000000000000000000000000000000000000000000815260040161082790612947565b60405180910390fd5b8260035f9054906101000a900473ffffffffffffffffffffffffffffffffffffffff1673ffffffffffffffffffffffffffffffffffffffff166370a08231306040518263ffffffff1660e01b815260040161088b919061266a565b602060405180830381865afa1580156108a6573d5f5f3e3d5ffd5b505050506040513d601f19601f820116820180604052508101906108ca919061286a565b101561090b576040517f08c379a0000000000000000000000000000000000000000000000000000000008152600401610902906129af565b60405180910390fd5b60025f9054906101000a900473ffffffffffffffffffffffffffffffffffffffff1673ffffffffffffffffffffffffffffffffffffffff166323b872dd3330876040518463ffffffff1660e01b8152600401610969939291906129cd565b6020604051808303815f875af1158015610985573d5f5f3e3d5ffd5b505050506040513d601f19601f820116820180604052508101906109a99190612a2c565b6109e8576040517f08c379a00000000000000000000000000000000000000000000000000000000081526004016109df90612aa1565b60405180910390fd5b60085f8154809291906109fa90612aec565b91905055505f60085490506040518061010001604052808281526020013373ffffffffffffffffffffffffffffffffffffffff16815260200186815260200185815260200160055481526020014281526020014281526020016001151581525060095f8381526020019081526020015f205f820151815f01556020820151816001015f6101000a81548173ffffffffffffffffffffffffffffffffffffffff021916908373ffffffffffffffffffffffffffffffffffffffff16021790555060408201518160020155606082015181600301556080820151816004015560a0820151816005015560c0820151816006015560e0820151816007015f6101000a81548160ff021916908315150217905550905050600a5f3373ffffffffffffffffffffffffffffffffffffffff1673ffffffffffffffffffffffffffffffffffffffff1681526020019081526020015f2081908060018154018082558091505060019003905f5260205f20015f90919091909150558360065f828254610b7f9190612b33565b925050819055508460075f828254610b979190612b33565b9250508190555060035f9054906101000a900473ffffffffffffffffffffffffffffffffffffffff1673ffffffffffffffffffffffffffffffffffffffff1663a9059cbb33866040518363ffffffff1660e01b8152600401610bfa929190612b66565b6020604051808303815f875af1158015610c16573d5f5f3e3d5ffd5b505050506040513d601f19601f82011682018060405250810190610c3a9190612a2c565b610c79576040517f08c379a0000000000000000000000000000000000000000000000000000000008152600401610c7090612bd7565b60405180910390fd5b3373ffffffffffffffffffffffffffffffffffffffff16817f3373919ad665425d2cddb4072830e5935b6ee308440fa99b23383648da473bc08787604051610cc2929190612bf5565b60405180910390a38092505050610cd76120bc565b92915050565b5f5f60095f8481526020019081526020015f20604051806101000160405290815f8201548152602001600182015f9054906101000a900473ffffffffffffffffffffffffffffffffffffffff1673ffffffffffffffffffffffffffffffffffffffff1673ffffffffffffffffffffffffffffffffffffffff1681526020016002820154815260200160038201548152602001600482015481526020016005820154815260200160068201548152602001600782015f9054906101000a900460ff16151515158152505090508060e00151610dba575f915050610eec565b5f610dc361191e565b90505f60045f9054906101000a900473ffffffffffffffffffffffffffffffffffffffff1673ffffffffffffffffffffffffffffffffffffffff1663313ce5676040518163ffffffff1660e01b8152600401602060405180830381865afa158015610e30573d5f5f3e3d5ffd5b505050506040513d601f19601f82011682018060405250810190610e549190612c52565b60ff16600a610e639190612dac565b828460400151610e739190612df6565b610e7d9190612e64565b90505f610e8986611aff565b8460600151610e989190612b33565b90505f8103610ecd577fffffffffffffffffffffffffffffffffffffffffffffffffffffffffffffffff945050505050610eec565b80606483610edb9190612df6565b610ee59190612e64565b9450505050505b919050565b610ef9612025565b5f60095f8381526020019081526020015f209050806007015f9054906101000a900460ff16610f5d576040517f08c379a0000000000000000000000000000000000000000000000000000000008152600401610f5490612ede565b60405180910390fd5b3373ffffffffffffffffffffffffffffffffffffffff16816001015f9054906101000a900473ffffffffffffffffffffffffffffffffffffffff1673ffffffffffffffffffffffffffffffffffffffff1614610fee576040517f08c379a0000000000000000000000000000000000000000000000000000000008152600401610fe590612f46565b60405180910390fd5b5f610ff883611aff565b90505f81836003015461100b9190612b33565b905060035f9054906101000a900473ffffffffffffffffffffffffffffffffffffffff1673ffffffffffffffffffffffffffffffffffffffff166323b872dd3330846040518463ffffffff1660e01b815260040161106b939291906129cd565b6020604051808303815f875af1158015611087573d5f5f3e3d5ffd5b505050506040513d601f19601f820116820180604052508101906110ab9190612a2c565b6110ea576040517f08c379a00000000000000000000000000000000000000000000000000000000081526004016110e190612fae565b60405180910390fd5b60025f9054906101000a900473ffffffffffffffffffffffffffffffffffffffff1673ffffffffffffffffffffffffffffffffffffffff1663a9059cbb3385600201546040518363ffffffff1660e01b815260040161114a929190612b66565b6020604051808303815f875af1158015611166573d5f5f3e3d5ffd5b505050506040513d601f19601f8201168201806040525081019061118a9190612a2c565b6111c9576040517f08c379a00000000000000000000000000000000000000000000000000000000081526004016111c090613016565b60405180910390fd5b826003015460065f8282546111de9190613034565b92505081905550826002015460075f8282546111fa9190613034565b925050819055505f836007015f6101000a81548160ff0219169083151502179055503373ffffffffffffffffffffffffffffffffffffffff16847f553c9087bff5b534e499a66dac3fa9db2962cd252ea01165239755836ae5345e8385604051611265929190612bf5565b60405180910390a35050506112786120bc565b50565b6112836120c5565b61128b61214c565b565b611295612025565b5f60095f8381526020019081526020015f209050806007015f9054906101000a900460ff166112f9576040517f08c379a00000000000000000000000000000000000000000000000000000000081526004016112f090612ede565b60405180910390fd5b5f61130383610cdd565b905060788110611348576040517f08c379a000000000000000000000000000000000000000000000000000000000815260040161133f906130b1565b60405180910390fd5b5f61135284611aff565b83600301546113619190612b33565b90505f6064600a85600201546113779190612df6565b6113819190612e64565b90505f8185600201546113949190613034565b905060035f9054906101000a900473ffffffffffffffffffffffffffffffffffffffff1673ffffffffffffffffffffffffffffffffffffffff166323b872dd3330866040518463ffffffff1660e01b81526004016113f4939291906129cd565b6020604051808303815f875af1158015611410573d5f5f3e3d5ffd5b505050506040513d601f19601f820116820180604052508101906114349190612a2c565b611473576040517f08c379a000000000000000000000000000000000000000000000000000000000815260040161146a90613119565b60405180910390fd5b60025f9054906101000a900473ffffffffffffffffffffffffffffffffffffffff1673ffffffffffffffffffffffffffffffffffffffff1663a9059cbb33836040518363ffffffff1660e01b81526004016114cf929190612b66565b6020604051808303815f875af11580156114eb573d5f5f3e3d5ffd5b505050506040513d601f19601f8201168201806040525081019061150f9190612a2c565b61154e576040517f08c379a000000000000000000000000000000000000000000000000000000000815260040161154590612aa1565b60405180910390fd5b846003015460065f8282546115639190613034565b92505081905550846002015460075f82825461157f9190613034565b925050819055505f856007015f6101000a81548160ff0219169083151502179055503373ffffffffffffffffffffffffffffffffffffffff16867fd1b144c94c58ceab69737edeed9e57e7a7bf0e63c3232da2b7c1e65d7ab7f3d083856040516115ea929190612bf5565b60405180910390a350505050506115ff6120bc565b50565b60075481565b60065481565b5f600160149054906101000a900460ff16905090565b61162c6120c5565b6107d0811115611671576040517f08c379a000000000000000000000000000000000000000000000000000000000815260040161166890613181565b60405180910390fd5b806005819055507fa90e14be5aa57b910aa6dc16c31ff1b5cda380ae25a793b0d3f74df6131a7d74816040516116a79190612503565b60405180910390a150565b5f5f6116bc61191e565b90505f60045f9054906101000a900473ffffffffffffffffffffffffffffffffffffffff1673ffffffffffffffffffffffffffffffffffffffff1663313ce5676040518163ffffffff1660e01b8152600401602060405180830381865afa158015611729573d5f5f3e3d5ffd5b505050506040513d601f19601f8201168201806040525081019061174d9190612c52565b60ff16600a61175c9190612dac565b82856117689190612df6565b6117729190612e64565b905060966064826117839190612df6565b61178d9190612e64565b92505050919050565b5f5f5f5f5f5f5f5f60095f8a81526020019081526020015f20604051806101000160405290815f8201548152602001600182015f9054906101000a900473ffffffffffffffffffffffffffffffffffffffff1673ffffffffffffffffffffffffffffffffffffffff1673ffffffffffffffffffffffffffffffffffffffff1681526020016002820154815260200160038201548152602001600482015481526020016005820154815260200160068201548152602001600782015f9054906101000a900460ff161515151581525050905080602001518160400151826060015183608001516118848d610cdd565b61188d8e611aff565b8660e00151975097509750975097509750975050919395979092949650565b6118b46120c5565b6118bd5f6121ae565b565b60045f9054906101000a900473ffffffffffffffffffffffffffffffffffffffff1681565b6118ec6120c5565b6118f4612271565b565b5f60015f9054906101000a900473ffffffffffffffffffffffffffffffffffffffff16905090565b5f5f60045f9054906101000a900473ffffffffffffffffffffffffffffffffffffffff1673ffffffffffffffffffffffffffffffffffffffff1663feaf968c6040518163ffffffff1660e01b815260040160a060405180830381865afa15801561198a573d5f5f3e3d5ffd5b505050506040513d601f19601f820116820180604052508101906119ae9190613211565b5050509150505f81136119f6576040517f08c379a00000000000000000000000000000000000000000000000000000000081526004016119ed906132f8565b60405180910390fd5b8091505090565b60025f9054906101000a900473ffffffffffffffffffffffffffffffffffffffff1681565b607881565b611a2f6120c5565b8173ffffffffffffffffffffffffffffffffffffffff1663a9059cbb611a536118f6565b836040518363ffffffff1660e01b8152600401611a71929190612b66565b6020604051808303815f875af1158015611a8d573d5f5f3e3d5ffd5b505050506040513d601f19601f82011682018060405250810190611ab19190612a2c565b611af0576040517f08c379a0000000000000000000000000000000000000000000000000000000008152600401611ae790613360565b60405180910390fd5b5050565b600a81565b60085481565b5f5f60095f8481526020019081526020015f20604051806101000160405290815f8201548152602001600182015f9054906101000a900473ffffffffffffffffffffffffffffffffffffffff1673ffffffffffffffffffffffffffffffffffffffff1673ffffffffffffffffffffffffffffffffffffffff1681526020016002820154815260200160038201548152602001600482015481526020016005820154815260200160068201548152602001600782015f9054906101000a900460ff16151515158152505090508060e00151611bdc575f915050611c39565b5f8160c0015142611bed9190613034565b90505f61271083608001518460600151611c079190612df6565b611c119190612e64565b90505f6301e133808383611c259190612df6565b611c2f9190612e64565b9050809450505050505b919050565b611c46612025565b5f60095f8481526020019081526020015f209050806007015f9054906101000a900460ff16611caa576040517f08c379a0000000000000000000000000000000000000000000000000000000008152600401611ca190612ede565b60405180910390fd5b3373ffffffffffffffffffffffffffffffffffffffff16816001015f9054906101000a900473ffffffffffffffffffffffffffffffffffffffff1673ffffffffffffffffffffffffffffffffffffffff1614611d3b576040517f08c379a0000000000000000000000000000000000000000000000000000000008152600401611d3290612f46565b60405180910390fd5b5f8211611d7d576040517f08c379a0000000000000000000000000000000000000000000000000000000008152600401611d74906133c8565b60405180910390fd5b60025f9054906101000a900473ffffffffffffffffffffffffffffffffffffffff1673ffffffffffffffffffffffffffffffffffffffff166323b872dd3330856040518463ffffffff1660e01b8152600401611ddb939291906129cd565b6020604051808303815f875af1158015611df7573d5f5f3e3d5ffd5b505050506040513d601f19601f82011682018060405250810190611e1b9190612a2c565b611e5a576040517f08c379a0000000000000000000000000000000000000000000000000000000008152600401611e5190612aa1565b60405180910390fd5b81816002015f828254611e6d9190612b33565b925050819055508160075f828254611e859190612b33565b92505081905550827f244160b15e69cc411f041d94ae7fab6f6bba85dade8403216c05ff4b920d544983604051611ebc9190612503565b60405180910390a250611ecd6120bc565b5050565b60055481565b600a602052815f5260405f208181548110611ef0575f80fd5b905f5260205f20015f91509150505481565b609681565b6009602052805f5260405f205f91509050805f015490806001015f9054906101000a900473ffffffffffffffffffffffffffffffffffffffff1690806002015490806003015490806004015490806005015490806006015490806007015f9054906101000a900460ff16905088565b61271081565b60035f9054906101000a900473ffffffffffffffffffffffffffffffffffffffff1681565b611fa96120c5565b5f73ffffffffffffffffffffffffffffffffffffffff168173ffffffffffffffffffffffffffffffffffffffff1603612019575f6040517f1e4fbdf7000000000000000000000000000000000000000000000000000000008152600401612010919061266a565b60405180910390fd5b612022816121ae565b50565b60025f5403612069576040517f08c379a000000000000000000000000000000000000000000000000000000000815260040161206090613430565b60405180910390fd5b60025f81905550565b61207a61160e565b156120ba576040517f08c379a00000000000000000000000000000000000000000000000000000000081526004016120b190613498565b60405180910390fd5b565b60015f81905550565b6120cd6122d3565b73ffffffffffffffffffffffffffffffffffffffff166120eb6118f6565b73ffffffffffffffffffffffffffffffffffffffff161461214a5761210e6122d3565b6040517f118cdaa7000000000000000000000000000000000000000000000000000000008152600401612141919061266a565b60405180910390fd5b565b6121546122da565b5f600160146101000a81548160ff0219169083151502179055507f5db9ee0a495bf2e6ff9c91a7834c1ba4fdd244a5e8aa4e537bd38aeae4b073aa6121976122d3565b6040516121a4919061266a565b60405180910390a1565b5f60015f9054906101000a900473ffffffffffffffffffffffffffffffffffffffff1690508160015f6101000a81548173ffffffffffffffffffffffffffffffffffffffff021916908373ffffffffffffffffffffffffffffffffffffffff1602179055508173ffffffffffffffffffffffffffffffffffffffff168173ffffffffffffffffffffffffffffffffffffffff167f8be0079c531659141344cd1fd0a4f28419497f9722a3daafe3b4186f6b6457e060405160405180910390a35050565b612279612072565b60018060146101000a81548160ff0219169083151502179055507f62e78cea01bee320cd4e420270b5ea74000d11b0c9f74754ebdbfc544b05a2586122bc6122d3565b6040516122c9919061266a565b60405180910390a1565b5f33905090565b6122e261160e565b612321576040517f08c379a000000000000000000000000000000000000000000000000000000000815260040161231890613500565b60405180910390fd5b565b5f5ffd5b5f73ffffffffffffffffffffffffffffffffffffffff82169050919050565b5f61235082612327565b9050919050565b61236081612346565b811461236a575f5ffd5b50565b5f8135905061237b81612357565b92915050565b5f6020828403121561239657612395612323565b5b5f6123a38482850161236d565b91505092915050565b5f81519050919050565b5f82825260208201905092915050565b5f819050602082019050919050565b5f819050919050565b6123e7816123d5565b82525050565b5f6123f883836123de565b60208301905092915050565b5f602082019050919050565b5f61241a826123ac565b61242481856123b6565b935061242f836123c6565b805f5b8381101561245f57815161244688826123ed565b975061245183612404565b925050600181019050612432565b5085935050505092915050565b5f6020820190508181035f8301526124848184612410565b905092915050565b612495816123d5565b811461249f575f5ffd5b50565b5f813590506124b08161248c565b92915050565b5f5f604083850312156124cc576124cb612323565b5b5f6124d9858286016124a2565b92505060206124ea858286016124a2565b9150509250929050565b6124fd816123d5565b82525050565b5f6020820190506125165f8301846124f4565b92915050565b5f6020828403121561253157612530612323565b5b5f61253e848285016124a2565b91505092915050565b5f8115159050919050565b61255b81612547565b82525050565b5f6020820190506125745f830184612552565b92915050565b61258381612346565b82525050565b5f60e08201905061259c5f83018a61257a565b6125a960208301896124f4565b6125b660408301886124f4565b6125c360608301876124f4565b6125d060808301866124f4565b6125dd60a08301856124f4565b6125ea60c0830184612552565b98975050505050505050565b5f819050919050565b5f61261961261461260f84612327565b6125f6565b612327565b9050919050565b5f61262a826125ff565b9050919050565b5f61263b82612620565b9050919050565b61264b81612631565b82525050565b5f6020820190506126645f830184612642565b92915050565b5f60208201905061267d5f83018461257a565b92915050565b5f61268d82612620565b9050919050565b61269d81612683565b82525050565b5f6020820190506126b65f830184612694565b92915050565b5f5f604083850312156126d2576126d1612323565b5b5f6126df8582860161236d565b92505060206126f0858286016124a2565b9150509250929050565b5f6101008201905061270e5f83018b6124f4565b61271b602083018a61257a565b61272860408301896124f4565b61273560608301886124f4565b61274260808301876124f4565b61274f60a08301866124f4565b61275c60c08301856124f4565b61276960e0830184612552565b9998505050505050505050565b5f82825260208201905092915050565b7f436f6c6c61746572616c206d757374206265203e2030000000000000000000005f82015250565b5f6127ba601683612776565b91506127c582612786565b602082019050919050565b5f6020820190508181035f8301526127e7816127ae565b9050919050565b7f426f72726f7720616d6f756e74206d757374206265203e2030000000000000005f82015250565b5f612822601983612776565b915061282d826127ee565b602082019050919050565b5f6020820190508181035f83015261284f81612816565b9050919050565b5f815190506128648161248c565b92915050565b5f6020828403121561287f5761287e612323565b5b5f61288c84828501612856565b91505092915050565b7f496e73756666696369656e74207661756c744254432062616c616e63650000005f82015250565b5f6128c9601d83612776565b91506128d482612895565b602082019050919050565b5f6020820190508181035f8301526128f6816128bd565b9050919050565b7f496e73756666696369656e7420636f6c6c61746572616c0000000000000000005f82015250565b5f612931601783612776565b915061293c826128fd565b602082019050919050565b5f6020820190508181035f83015261295e81612925565b9050919050565b7f496e73756666696369656e74206c6971756964697479000000000000000000005f82015250565b5f612999601683612776565b91506129a482612965565b602082019050919050565b5f6020820190508181035f8301526129c68161298d565b9050919050565b5f6060820190506129e05f83018661257a565b6129ed602083018561257a565b6129fa60408301846124f4565b949350505050565b612a0b81612547565b8114612a15575f5ffd5b50565b5f81519050612a2681612a02565b92915050565b5f60208284031215612a4157612a40612323565b5b5f612a4e84828501612a18565b91505092915050565b7f436f6c6c61746572616c207472616e73666572206661696c65640000000000005f82015250565b5f612a8b601a83612776565b9150612a9682612a57565b602082019050919050565b5f6020820190508181035f830152612ab881612a7f565b9050919050565b7f4e487b71000000000000000000000000000000000000000000000000000000005f52601160045260245ffd5b5f612af6826123d5565b91507fffffffffffffffffffffffffffffffffffffffffffffffffffffffffffffffff8203612b2857612b27612abf565b5b600182019050919050565b5f612b3d826123d5565b9150612b48836123d5565b9250828201905080821115612b6057612b5f612abf565b5b92915050565b5f604082019050612b795f83018561257a565b612b8660208301846124f4565b9392505050565b7f426f72726f77207472616e73666572206661696c6564000000000000000000005f82015250565b5f612bc1601683612776565b9150612bcc82612b8d565b602082019050919050565b5f6020820190508181035f830152612bee81612bb5565b9050919050565b5f604082019050612c085f8301856124f4565b612c1560208301846124f4565b9392505050565b5f60ff82169050919050565b612c3181612c1c565b8114612c3b575f5ffd5b50565b5f81519050612c4c81612c28565b92915050565b5f60208284031215612c6757612c66612323565b5b5f612c7484828501612c3e565b91505092915050565b5f8160011c9050919050565b5f5f8291508390505b6001851115612cd257808604811115612cae57612cad612abf565b5b6001851615612cbd5780820291505b8081029050612ccb85612c7d565b9450612c92565b94509492505050565b5f82612cea5760019050612da5565b81612cf7575f9050612da5565b8160018114612d0d5760028114612d1757612d46565b6001915050612da5565b60ff841115612d2957612d28612abf565b5b8360020a915084821115612d4057612d3f612abf565b5b50612da5565b5060208310610133831016604e8410600b8410161715612d7b5782820a905083811115612d7657612d75612abf565b5b612da5565b612d888484846001612c89565b92509050818404811115612d9f57612d9e612abf565b5b81810290505b9392505050565b5f612db6826123d5565b9150612dc1836123d5565b9250612dee7fffffffffffffffffffffffffffffffffffffffffffffffffffffffffffffffff8484612cdb565b905092915050565b5f612e00826123d5565b9150612e0b836123d5565b9250828202612e19816123d5565b91508282048414831517612e3057612e2f612abf565b5b5092915050565b7f4e487b71000000000000000000000000000000000000000000000000000000005f52601260045260245ffd5b5f612e6e826123d5565b9150612e79836123d5565b925082612e8957612e88612e37565b5b828204905092915050565b7f4c6f616e206e6f742061637469766500000000000000000000000000000000005f82015250565b5f612ec8600f83612776565b9150612ed382612e94565b602082019050919050565b5f6020820190508181035f830152612ef581612ebc565b9050919050565b7f4e6f74206c6f616e206f776e65720000000000000000000000000000000000005f82015250565b5f612f30600e83612776565b9150612f3b82612efc565b602082019050919050565b5f6020820190508181035f830152612f5d81612f24565b9050919050565b7f52657061796d656e74207472616e73666572206661696c6564000000000000005f82015250565b5f612f98601983612776565b9150612fa382612f64565b602082019050919050565b5f6020820190508181035f830152612fc581612f8c565b9050919050565b7f436f6c6c61746572616c2072657475726e206661696c656400000000000000005f82015250565b5f613000601883612776565b915061300b82612fcc565b602082019050919050565b5f6020820190508181035f83015261302d81612ff4565b9050919050565b5f61303e826123d5565b9150613049836123d5565b925082820390508181111561306157613060612abf565b5b92915050565b7f4c6f616e206e6f74206c6971756964617461626c6500000000000000000000005f82015250565b5f61309b601583612776565b91506130a682613067565b602082019050919050565b5f6020820190508181035f8301526130c88161308f565b9050919050565b7f4c69717569646174696f6e207061796d656e74206661696c65640000000000005f82015250565b5f613103601a83612776565b915061310e826130cf565b602082019050919050565b5f6020820190508181035f830152613130816130f7565b9050919050565b7f5261746520746f6f2068696768000000000000000000000000000000000000005f82015250565b5f61316b600d83612776565b915061317682613137565b602082019050919050565b5f6020820190508181035f8301526131988161315f565b9050919050565b5f69ffffffffffffffffffff82169050919050565b6131bd8161319f565b81146131c7575f5ffd5b50565b5f815190506131d8816131b4565b92915050565b5f819050919050565b6131f0816131de565b81146131fa575f5ffd5b50565b5f8151905061320b816131e7565b92915050565b5f5f5f5f5f60a0868803121561322a57613229612323565b5b5f613237888289016131ca565b9550506020613248888289016131fd565b945050604061325988828901612856565b935050606061326a88828901612856565b925050608061327b888289016131ca565b9150509295509295909350565b7f507269636520666565642072657475726e6564206e6f6e2d706f7369746976655f8201527f2076616c75650000000000000000000000000000000000000000000000000000602082015250565b5f6132e2602683612776565b91506132ed82613288565b604082019050919050565b5f6020820190508181035f83015261330f816132d6565b9050919050565b7f5769746864726177206661696c656400000000000000000000000000000000005f82015250565b5f61334a600f83612776565b915061335582613316565b602082019050919050565b5f6020820190508181035f8301526133778161333e565b9050919050565b7f416d6f756e74206d757374206265203e203000000000000000000000000000005f82015250565b5f6133b2601283612776565b91506133bd8261337e565b602082019050919050565b5f6020820190508181035f8301526133df816133a6565b9050919050565b7f5265656e7472616e637947756172643a207265656e7472616e742063616c6c005f82015250565b5f61341a601f83612776565b9150613425826133e6565b602082019050919050565b5f6020820190508181035f8301526134478161340e565b9050919050565b7f5061757361626c653a20706175736564000000000000000000000000000000005f82015250565b5f613482601083612776565b915061348d8261344e565b602082019050919050565b5f6020820190508181035f8301526134af81613476565b9050919050565b7f5061757361626c653a206e6f74207061757365640000000000000000000000005f82015250565b5f6134ea601483612776565b91506134f5826134b6565b602082019050919050565b5f6020820190508181035f830152613517816134de565b905091905056fea2646970667358221220ae28b8d3f97726c0ae8156a3984b44e8d7488e0de602f930b32bb3325ce330e264736f6c634300081e0033",
					"opcodes": "PUSH1 0x80 PUSH1 0x40 MSTORE PUSH2 0x226 PUSH1 0x5 SSTORE CALLVALUE DUP1 ISZERO PUSH2 0x15 JUMPI PUSH0 PUSH0 REVERT JUMPDEST POP PUSH1 0x40 MLOAD PUSH2 0x3B2D CODESIZE SUB DUP1 PUSH2 0x3B2D DUP4 CODECOPY DUP2 DUP2 ADD PUSH1 0x40 MSTORE DUP2 ADD SWAP1 PUSH2 0x37 SWAP2 SWAP1 PUSH2 0x40C JUMP JUMPDEST CALLER PUSH1 0x1 PUSH0 DUP2 SWAP1 SSTORE POP PUSH0 PUSH20 0xFFFFFFFFFFFFFFFFFFFFFFFFFFFFFFFFFFFFFFFF AND DUP2 PUSH20 0xFFFFFFFFFFFFFFFFFFFFFFFFFFFFFFFFFFFFFFFF AND SUB PUSH2 0xAF JUMPI PUSH0 PUSH1 0x40 MLOAD PUSH32 0x1E4FBDF700000000000000000000000000000000000000000000000000000000 DUP2 MSTORE PUSH1 0x4 ADD PUSH2 0xA6 SWAP2 SWAP1 PUSH2 0x46B JUMP JUMPDEST PUSH1 0x40 MLOAD DUP1 SWAP2 SUB SWAP1 REVERT JUMPDEST PUSH2 0xBE DUP2 PUSH2 0x2EB PUSH1 0x20 SHL PUSH1 0x20 SHR JUMP JUMPDEST POP PUSH0 PUSH1 0x1 PUSH1 0x14 PUSH2 0x100 EXP DUP2 SLOAD DUP2 PUSH1 0xFF MUL NOT AND SWAP1 DUP4 ISZERO ISZERO MUL OR SWAP1 SSTORE POP PUSH0 PUSH20 0xFFFFFFFFFFFFFFFFFFFFFFFFFFFFFFFFFFFFFFFF AND DUP4 PUSH20 0xFFFFFFFFFFFFFFFFFFFFFFFFFFFFFFFFFFFFFFFF AND SUB PUSH2 0x147 JUMPI PUSH1 0x40 MLOAD PUSH32 0x8C379A000000000000000000000000000000000000000000000000000000000 DUP2 MSTORE PUSH1 0x4 ADD PUSH2 0x13E SWAP1 PUSH2 0x4DE JUMP JUMPDEST PUSH1 0x40 MLOAD DUP1 SWAP2 SUB SWAP1 REVERT JUMPDEST PUSH0 PUSH20 0xFFFFFFFFFFFFFFFFFFFFFFFFFFFFFFFFFFFFFFFF AND DUP3 PUSH20 0xFFFFFFFFFFFFFFFFFFFFFFFFFFFFFFFFFFFFFFFF AND SUB PUSH2 0x1B5 JUMPI PUSH1 0x40 MLOAD PUSH32 0x8C379A000000000000000000000000000000000000000000000000000000000 DUP2 MSTORE PUSH1 0x4 ADD PUSH2 0x1AC SWAP1 PUSH2 0x546 JUMP JUMPDEST PUSH1 0x40 MLOAD DUP1 SWAP2 SUB SWAP1 REVERT JUMPDEST PUSH0 PUSH20 0xFFFFFFFFFFFFFFFFFFFFFFFFFFFFFFFFFFFFFFFF AND DUP2 PUSH20 0xFFFFFFFFFFFFFFFFFFFFFFFFFFFFFFFFFFFFFFFF AND SUB PUSH2 0x223 JUMPI PUSH1 0x40 MLOAD PUSH32 0x8C379A000000000000000000000000000000000000000000000000000000000 DUP2 MSTORE PUSH1 0x4 ADD PUSH2 0x21A SWAP1 PUSH2 0x5AE JUMP JUMPDEST PUSH1 0x40 MLOAD DUP1 SWAP2 SUB SWAP1 REVERT JUMPDEST DUP3 PUSH1 0x2 PUSH0 PUSH2 0x100 EXP DUP2 SLOAD DUP2 PUSH20 0xFFFFFFFFFFFFFFFFFFFFFFFFFFFFFFFFFFFFFFFF MUL NOT AND SWAP1 DUP4 PUSH20 0xFFFFFFFFFFFFFFFFFFFFFFFFFFFFFFFFFFFFFFFF AND MUL OR SWAP1 SSTORE POP DUP2 PUSH1 0x3 PUSH0 PUSH2 0x100 EXP DUP2 SLOAD DUP2 PUSH20 0xFFFFFFFFFFFFFFFFFFFFFFFFFFFFFFFFFFFFFFFF MUL NOT AND SWAP1 DUP4 PUSH20 0xFFFFFFFFFFFFFFFFFFFFFFFFFFFFFFFFFFFFFFFF AND MUL OR SWAP1 SSTORE POP DUP1 PUSH1 0x4 PUSH0 PUSH2 0x100 EXP DUP2 SLOAD DUP2 PUSH20 0xFFFFFFFFFFFFFFFFFFFFFFFFFFFFFFFFFFFFFFFF MUL NOT AND SWAP1 DUP4 PUSH20 0xFFFFFFFFFFFFFFFFFFFFFFFFFFFFFFFFFFFFFFFF AND MUL OR SWAP1 SSTORE POP POP POP POP PUSH2 0x5CC JUMP JUMPDEST PUSH0 PUSH1 0x1 PUSH0 SWAP1 SLOAD SWAP1 PUSH2 0x100 EXP SWAP1 DIV PUSH20 0xFFFFFFFFFFFFFFFFFFFFFFFFFFFFFFFFFFFFFFFF AND SWAP1 POP DUP2 PUSH1 0x1 PUSH0 PUSH2 0x100 EXP DUP2 SLOAD DUP2 PUSH20 0xFFFFFFFFFFFFFFFFFFFFFFFFFFFFFFFFFFFFFFFF MUL NOT AND SWAP1 DUP4 PUSH20 0xFFFFFFFFFFFFFFFFFFFFFFFFFFFFFFFFFFFFFFFF AND MUL OR SWAP1 SSTORE POP DUP2 PUSH20 0xFFFFFFFFFFFFFFFFFFFFFFFFFFFFFFFFFFFFFFFF AND DUP2 PUSH20 0xFFFFFFFFFFFFFFFFFFFFFFFFFFFFFFFFFFFFFFFF AND PUSH32 0x8BE0079C531659141344CD1FD0A4F28419497F9722A3DAAFE3B4186F6B6457E0 PUSH1 0x40 MLOAD PUSH1 0x40 MLOAD DUP1 SWAP2 SUB SWAP1 LOG3 POP POP JUMP JUMPDEST PUSH0 PUSH0 REVERT JUMPDEST PUSH0 PUSH20 0xFFFFFFFFFFFFFFFFFFFFFFFFFFFFFFFFFFFFFFFF DUP3 AND SWAP1 POP SWAP2 SWAP1 POP JUMP JUMPDEST PUSH0 PUSH2 0x3DB DUP3 PUSH2 0x3B2 JUMP JUMPDEST SWAP1 POP SWAP2 SWAP1 POP JUMP JUMPDEST PUSH2 0x3EB DUP2 PUSH2 0x3D1 JUMP JUMPDEST DUP2 EQ PUSH2 0x3F5 JUMPI PUSH0 PUSH0 REVERT JUMPDEST POP JUMP JUMPDEST PUSH0 DUP2 MLOAD SWAP1 POP PUSH2 0x406 DUP2 PUSH2 0x3E2 JUMP JUMPDEST SWAP3 SWAP2 POP POP JUMP JUMPDEST PUSH0 PUSH0 PUSH0 PUSH1 0x60 DUP5 DUP7 SUB SLT ISZERO PUSH2 0x423 JUMPI PUSH2 0x422 PUSH2 0x3AE JUMP JUMPDEST JUMPDEST PUSH0 PUSH2 0x430 DUP7 DUP3 DUP8 ADD PUSH2 0x3F8 JUMP JUMPDEST SWAP4 POP POP PUSH1 0x20 PUSH2 0x441 DUP7 DUP3 DUP8 ADD PUSH2 0x3F8 JUMP JUMPDEST SWAP3 POP POP PUSH1 0x40 PUSH2 0x452 DUP7 DUP3 DUP8 ADD PUSH2 0x3F8 JUMP JUMPDEST SWAP2 POP POP SWAP3 POP SWAP3 POP SWAP3 JUMP JUMPDEST PUSH2 0x465 DUP2 PUSH2 0x3D1 JUMP JUMPDEST DUP3 MSTORE POP POP JUMP JUMPDEST PUSH0 PUSH1 0x20 DUP3 ADD SWAP1 POP PUSH2 0x47E PUSH0 DUP4 ADD DUP5 PUSH2 0x45C JUMP JUMPDEST SWAP3 SWAP2 POP POP JUMP JUMPDEST PUSH0 DUP3 DUP3 MSTORE PUSH1 0x20 DUP3 ADD SWAP1 POP SWAP3 SWAP2 POP POP JUMP JUMPDEST PUSH32 0x496E76616C6964207661756C7442544300000000000000000000000000000000 PUSH0 DUP3 ADD MSTORE POP JUMP JUMPDEST PUSH0 PUSH2 0x4C8 PUSH1 0x10 DUP4 PUSH2 0x484 JUMP JUMPDEST SWAP2 POP PUSH2 0x4D3 DUP3 PUSH2 0x494 JUMP JUMPDEST PUSH1 0x20 DUP3 ADD SWAP1 POP SWAP2 SWAP1 POP JUMP JUMPDEST PUSH0 PUSH1 0x20 DUP3 ADD SWAP1 POP DUP2 DUP2 SUB PUSH0 DUP4 ADD MSTORE PUSH2 0x4F5 DUP2 PUSH2 0x4BC JUMP JUMPDEST SWAP1 POP SWAP2 SWAP1 POP JUMP JUMPDEST PUSH32 0x496E76616C696420737461626C65636F696E0000000000000000000000000000 PUSH0 DUP3 ADD MSTORE POP JUMP JUMPDEST PUSH0 PUSH2 0x530 PUSH1 0x12 DUP4 PUSH2 0x484 JUMP JUMPDEST SWAP2 POP PUSH2 0x53B DUP3 PUSH2 0x4FC JUMP JUMPDEST PUSH1 0x20 DUP3 ADD SWAP1 POP SWAP2 SWAP1 POP JUMP JUMPDEST PUSH0 PUSH1 0x20 DUP3 ADD SWAP1 POP DUP2 DUP2 SUB PUSH0 DUP4 ADD MSTORE PUSH2 0x55D DUP2 PUSH2 0x524 JUMP JUMPDEST SWAP1 POP SWAP2 SWAP1 POP JUMP JUMPDEST PUSH32 0x496E76616C6964206F7261636C65000000000000000000000000000000000000 PUSH0 DUP3 ADD MSTORE POP JUMP JUMPDEST PUSH0 PUSH2 0x598 PUSH1 0xE DUP4 PUSH2 0x484 JUMP JUMPDEST SWAP2 POP PUSH2 0x5A3 DUP3 PUSH2 0x564 JUMP JUMPDEST PUSH1 0x20 DUP3 ADD SWAP1 POP SWAP2 SWAP1 POP JUMP JUMPDEST PUSH0 PUSH1 0x20 DUP3 ADD SWAP1 POP DUP2 DUP2 SUB PUSH0 DUP4 ADD MSTORE PUSH2 0x5C5 DUP2 PUSH2 0x58C JUMP JUMPDEST SWAP1 POP SWAP2 SWAP1 POP JUMP JUMPDEST PUSH2 0x3554 DUP1 PUSH2 0x5D9 PUSH0 CODECOPY PUSH0 RETURN INVALID PUSH1 0x80 PUSH1 0x40 MSTORE CALLVALUE DUP1 ISZERO PUSH2 0xF JUMPI PUSH0 PUSH0 REVERT JUMPDEST POP PUSH1 0x4 CALLDATASIZE LT PUSH2 0x1E3 JUMPI PUSH0 CALLDATALOAD PUSH1 0xE0 SHR DUP1 PUSH4 0x8DA5CB5B GT PUSH2 0x10D JUMPI DUP1 PUSH4 0xA8F35ADF GT PUSH2 0xA0 JUMPI DUP1 PUSH4 0xE1EC3C68 GT PUSH2 0x6F JUMPI DUP1 PUSH4 0xE1EC3C68 EQ PUSH2 0x54F JUMPI DUP1 PUSH4 0xE1F1C4A7 EQ PUSH2 0x586 JUMPI DUP1 PUSH4 0xE9CBD822 EQ PUSH2 0x5A4 JUMPI DUP1 PUSH4 0xF2FDE38B EQ PUSH2 0x5C2 JUMPI PUSH2 0x1E3 JUMP JUMPDEST DUP1 PUSH4 0xA8F35ADF EQ PUSH2 0x4C7 JUMPI DUP1 PUSH4 0xAFD92762 EQ PUSH2 0x4E3 JUMPI DUP1 PUSH4 0xD8BAD5BD EQ PUSH2 0x501 JUMPI DUP1 PUSH4 0xD9E69A05 EQ PUSH2 0x531 JUMPI PUSH2 0x1E3 JUMP JUMPDEST DUP1 PUSH4 0x95CCEA67 GT PUSH2 0xDC JUMPI DUP1 PUSH4 0x95CCEA67 EQ PUSH2 0x43F JUMPI DUP1 PUSH4 0x9B8621D5 EQ PUSH2 0x45B JUMPI DUP1 PUSH4 0x9D939D16 EQ PUSH2 0x479 JUMPI DUP1 PUSH4 0xA57475E0 EQ PUSH2 0x497 JUMPI PUSH2 0x1E3 JUMP JUMPDEST DUP1 PUSH4 0x8DA5CB5B EQ PUSH2 0x3C7 JUMPI DUP1 PUSH4 0x8E15F473 EQ PUSH2 0x3E5 JUMPI DUP1 PUSH4 0x902781A9 EQ PUSH2 0x403 JUMPI DUP1 PUSH4 0x90A8AE9B EQ PUSH2 0x421 JUMPI PUSH2 0x1E3 JUMP JUMPDEST DUP1 PUSH4 0x4C19386C GT PUSH2 0x185 JUMPI DUP1 PUSH4 0x66877B8D GT PUSH2 0x154 JUMPI DUP1 PUSH4 0x66877B8D EQ PUSH2 0x35F JUMPI DUP1 PUSH4 0x715018A6 EQ PUSH2 0x395 JUMPI DUP1 PUSH4 0x741BEF1A EQ PUSH2 0x39F JUMPI DUP1 PUSH4 0x8456CB59 EQ PUSH2 0x3BD JUMPI PUSH2 0x1E3 JUMP JUMPDEST DUP1 PUSH4 0x4C19386C EQ PUSH2 0x2D7 JUMPI DUP1 PUSH4 0x5C975ABB EQ PUSH2 0x2F5 JUMPI DUP1 PUSH4 0x5F84F302 EQ PUSH2 0x313 JUMPI DUP1 PUSH4 0x61A4D4EF EQ PUSH2 0x32F JUMPI PUSH2 0x1E3 JUMP JUMPDEST DUP1 PUSH4 0x371FD8E6 GT PUSH2 0x1C1 JUMPI DUP1 PUSH4 0x371FD8E6 EQ PUSH2 0x277 JUMPI DUP1 PUSH4 0x3F4BA83A EQ PUSH2 0x293 JUMPI DUP1 PUSH4 0x415F1240 EQ PUSH2 0x29D JUMPI DUP1 PUSH4 0x4AC8EB5F EQ PUSH2 0x2B9 JUMPI PUSH2 0x1E3 JUMP JUMPDEST DUP1 PUSH4 0x2BF321F EQ PUSH2 0x1E7 JUMPI DUP1 PUSH4 0xECBCDAB EQ PUSH2 0x217 JUMPI DUP1 PUSH4 0x17845C69 EQ PUSH2 0x247 JUMPI JUMPDEST PUSH0 PUSH0 REVERT JUMPDEST PUSH2 0x201 PUSH1 0x4 DUP1 CALLDATASIZE SUB DUP2 ADD SWAP1 PUSH2 0x1FC SWAP2 SWAP1 PUSH2 0x2381 JUMP JUMPDEST PUSH2 0x5DE JUMP JUMPDEST PUSH1 0x40 MLOAD PUSH2 0x20E SWAP2 SWAP1 PUSH2 0x246C JUMP JUMPDEST PUSH1 0x40 MLOAD DUP1 SWAP2 SUB SWAP1 RETURN JUMPDEST PUSH2 0x231 PUSH1 0x4 DUP1 CALLDATASIZE SUB DUP2 ADD SWAP1 PUSH2 0x22C SWAP2 SWAP1 PUSH2 0x24B6 JUMP JUMPDEST PUSH2 0x671 JUMP JUMPDEST PUSH1 0x40 MLOAD PUSH2 0x23E SWAP2 SWAP1 PUSH2 0x2503 JUMP JUMPDEST PUSH1 0x40 MLOAD DUP1 SWAP2 SUB SWAP1 RETURN JUMPDEST PUSH2 0x261 PUSH1 0x4 DUP1 CALLDATASIZE SUB DUP2 ADD SWAP1 PUSH2 0x25C SWAP2 SWAP1 PUSH2 0x251C JUMP JUMPDEST PUSH2 0xCDD JUMP JUMPDEST PUSH1 0x40 MLOAD PUSH2 0x26E SWAP2 SWAP1 PUSH2 0x2503 JUMP JUMPDEST PUSH1 0x40 MLOAD DUP1 SWAP2 SUB SWAP1 RETURN JUMPDEST PUSH2 0x291 PUSH1 0x4 DUP1 CALLDATASIZE SUB DUP2 ADD SWAP1 PUSH2 0x28C SWAP2 SWAP1 PUSH2 0x251C JUMP JUMPDEST PUSH2 0xEF1 JUMP JUMPDEST STOP JUMPDEST PUSH2 0x29B PUSH2 0x127B JUMP JUMPDEST STOP JUMPDEST PUSH2 0x2B7 PUSH1 0x4 DUP1 CALLDATASIZE SUB DUP2 ADD SWAP1 PUSH2 0x2B2 SWAP2 SWAP1 PUSH2 0x251C JUMP JUMPDEST PUSH2 0x128D JUMP JUMPDEST STOP JUMPDEST PUSH2 0x2C1 PUSH2 0x1602 JUMP JUMPDEST PUSH1 0x40 MLOAD PUSH2 0x2CE SWAP2 SWAP1 PUSH2 0x2503 JUMP JUMPDEST PUSH1 0x40 MLOAD DUP1 SWAP2 SUB SWAP1 RETURN JUMPDEST PUSH2 0x2DF PUSH2 0x1608 JUMP JUMPDEST PUSH1 0x40 MLOAD PUSH2 0x2EC SWAP2 SWAP1 PUSH2 0x2503 JUMP JUMPDEST PUSH1 0x40 MLOAD DUP1 SWAP2 SUB SWAP1 RETURN JUMPDEST PUSH2 0x2FD PUSH2 0x160E JUMP JUMPDEST PUSH1 0x40 MLOAD PUSH2 0x30A SWAP2 SWAP1 PUSH2 0x2561 JUMP JUMPDEST PUSH1 0x40 MLOAD DUP1 SWAP2 SUB SWAP1 RETURN JUMPDEST PUSH2 0x32D PUSH1 0x4 DUP1 CALLDATASIZE SUB DUP2 ADD SWAP1 PUSH2 0x328 SWAP2 SWAP1 PUSH2 0x251C JUMP JUMPDEST PUSH2 0x1624 JUMP JUMPDEST STOP JUMPDEST PUSH2 0x349 PUSH1 0x4 DUP1 CALLDATASIZE SUB DUP2 ADD SWAP1 PUSH2 0x344 SWAP2 SWAP1 PUSH2 0x251C JUMP JUMPDEST PUSH2 0x16B2 JUMP JUMPDEST PUSH1 0x40 MLOAD PUSH2 0x356 SWAP2 SWAP1 PUSH2 0x2503 JUMP JUMPDEST PUSH1 0x40 MLOAD DUP1 SWAP2 SUB SWAP1 RETURN JUMPDEST PUSH2 0x379 PUSH1 0x4 DUP1 CALLDATASIZE SUB DUP2 ADD SWAP1 PUSH2 0x374 SWAP2 SWAP1 PUSH2 0x251C JUMP JUMPDEST PUSH2 0x1796 JUMP JUMPDEST PUSH1 0x40 MLOAD PUSH2 0x38C SWAP8 SWAP7 SWAP6 SWAP5 SWAP4 SWAP3 SWAP2 SWAP1 PUSH2 0x2589 JUMP JUMPDEST PUSH1 0x40 MLOAD DUP1 SWAP2 SUB SWAP1 RETURN JUMPDEST PUSH2 0x39D PUSH2 0x18AC JUMP JUMPDEST STOP JUMPDEST PUSH2 0x3A7 PUSH2 0x18BF JUMP JUMPDEST PUSH1 0x40 MLOAD PUSH2 0x3B4 SWAP2 SWAP1 PUSH2 0x2651 JUMP JUMPDEST PUSH1 0x40 MLOAD DUP1 SWAP2 SUB SWAP1 RETURN JUMPDEST PUSH2 0x3C5 PUSH2 0x18E4 JUMP JUMPDEST STOP JUMPDEST PUSH2 0x3CF PUSH2 0x18F6 JUMP JUMPDEST PUSH1 0x40 MLOAD PUSH2 0x3DC SWAP2 SWAP1 PUSH2 0x266A JUMP JUMPDEST PUSH1 0x40 MLOAD DUP1 SWAP2 SUB SWAP1 RETURN JUMPDEST PUSH2 0x3ED PUSH2 0x191E JUMP JUMPDEST PUSH1 0x40 MLOAD PUSH2 0x3FA SWAP2 SWAP1 PUSH2 0x2503 JUMP JUMPDEST PUSH1 0x40 MLOAD DUP1 SWAP2 SUB SWAP1 RETURN JUMPDEST PUSH2 0x40B PUSH2 0x19FD JUMP JUMPDEST PUSH1 0x40 MLOAD PUSH2 0x418 SWAP2 SWAP1 PUSH2 0x26A3 JUMP JUMPDEST PUSH1 0x40 MLOAD DUP1 SWAP2 SUB SWAP1 RETURN JUMPDEST PUSH2 0x429 PUSH2 0x1A22 JUMP JUMPDEST PUSH1 0x40 MLOAD PUSH2 0x436 SWAP2 SWAP1 PUSH2 0x2503 JUMP JUMPDEST PUSH1 0x40 MLOAD DUP1 SWAP2 SUB SWAP1 RETURN JUMPDEST PUSH2 0x459 PUSH1 0x4 DUP1 CALLDATASIZE SUB DUP2 ADD SWAP1 PUSH2 0x454 SWAP2 SWAP1 PUSH2 0x26BC JUMP JUMPDEST PUSH2 0x1A27 JUMP JUMPDEST STOP JUMPDEST PUSH2 0x463 PUSH2 0x1AF4 JUMP JUMPDEST PUSH1 0x40 MLOAD PUSH2 0x470 SWAP2 SWAP1 PUSH2 0x2503 JUMP JUMPDEST PUSH1 0x40 MLOAD DUP1 SWAP2 SUB SWAP1 RETURN JUMPDEST PUSH2 0x481 PUSH2 0x1AF9 JUMP JUMPDEST PUSH1 0x40 MLOAD PUSH2 0x48E SWAP2 SWAP1 PUSH2 0x2503 JUMP JUMPDEST PUSH1 0x40 MLOAD DUP1 SWAP2 SUB SWAP1 RETURN JUMPDEST PUSH2 0x4B1 PUSH1 0x4 DUP1 CALLDATASIZE SUB DUP2 ADD SWAP1 PUSH2 0x4AC SWAP2 SWAP1 PUSH2 0x251C JUMP JUMPDEST PUSH2 0x1AFF JUMP JUMPDEST PUSH1 0x40 MLOAD PUSH2 0x4BE SWAP2 SWAP1 PUSH2 0x2503 JUMP JUMPDEST PUSH1 0x40 MLOAD DUP1 SWAP2 SUB SWAP1 RETURN JUMPDEST PUSH2 0x4E1 PUSH1 0x4 DUP1 CALLDATASIZE SUB DUP2 ADD SWAP1 PUSH2 0x4DC SWAP2 SWAP1 PUSH2 0x24B6 JUMP JUMPDEST PUSH2 0x1C3E JUMP JUMPDEST STOP JUMPDEST PUSH2 0x4EB PUSH2 0x1ED1 JUMP JUMPDEST PUSH1 0x40 MLOAD PUSH2 0x4F8 SWAP2 SWAP1 PUSH2 0x2503 JUMP JUMPDEST PUSH1 0x40 MLOAD DUP1 SWAP2 SUB SWAP1 RETURN JUMPDEST PUSH2 0x51B PUSH1 0x4 DUP1 CALLDATASIZE SUB DUP2 ADD SWAP1 PUSH2 0x516 SWAP2 SWAP1 PUSH2 0x26BC JUMP JUMPDEST PUSH2 0x1ED7 JUMP JUMPDEST PUSH1 0x40 MLOAD PUSH2 0x528 SWAP2 SWAP1 PUSH2 0x2503 JUMP JUMPDEST PUSH1 0x40 MLOAD DUP1 SWAP2 SUB SWAP1 RETURN JUMPDEST PUSH2 0x539 PUSH2 0x1F02 JUMP JUMPDEST PUSH1 0x40 MLOAD PUSH2 0x546 SWAP2 SWAP1 PUSH2 0x2503 JUMP JUMPDEST PUSH1 0x40 MLOAD DUP1 SWAP2 SUB SWAP1 RETURN JUMPDEST PUSH2 0x569 PUSH1 0x4 DUP1 CALLDATASIZE SUB DUP2 ADD SWAP1 PUSH2 0x564 SWAP2 SWAP1 PUSH2 0x251C JUMP JUMPDEST PUSH2 0x1F07 JUMP JUMPDEST PUSH1 0x40 MLOAD PUSH2 0x57D SWAP9 SWAP8 SWAP7 SWAP6 SWAP5 SWAP4 SWAP3 SWAP2 SWAP1 PUSH2 0x26FA JUMP JUMPDEST PUSH1 0x40 MLOAD DUP1 SWAP2 SUB SWAP1 RETURN JUMPDEST PUSH2 0x58E PUSH2 0x1F76 JUMP JUMPDEST PUSH1 0x40 MLOAD PUSH2 0x59B SWAP2 SWAP1 PUSH2 0x2503 JUMP JUMPDEST PUSH1 0x40 MLOAD DUP1 SWAP2 SUB SWAP1 RETURN JUMPDEST PUSH2 0x5AC PUSH2 0x1F7C JUMP JUMPDEST PUSH1 0x40 MLOAD PUSH2 0x5B9 SWAP2 SWAP1 PUSH2 0x26A3 JUMP JUMPDEST PUSH1 0x40 MLOAD DUP1 SWAP2 SUB SWAP1 RETURN JUMPDEST PUSH2 0x5DC PUSH1 0x4 DUP1 CALLDATASIZE SUB DUP2 ADD SWAP1 PUSH2 0x5D7 SWAP2 SWAP1 PUSH2 0x2381 JUMP JUMPDEST PUSH2 0x1FA1 JUMP JUMPDEST STOP JUMPDEST PUSH1 0x60 PUSH1 0xA PUSH0 DUP4 PUSH20 0xFFFFFFFFFFFFFFFFFFFFFFFFFFFFFFFFFFFFFFFF AND PUSH20 0xFFFFFFFFFFFFFFFFFFFFFFFFFFFFFFFFFFFFFFFF AND DUP2 MSTORE PUSH1 0x20 ADD SWAP1 DUP2 MSTORE PUSH1 0x20 ADD PUSH0 KECCAK256 DUP1 SLOAD DUP1 PUSH1 0x20 MUL PUSH1 0x20 ADD PUSH1 0x40 MLOAD SWAP1 DUP2 ADD PUSH1 0x40 MSTORE DUP1 SWAP3 SWAP2 SWAP1 DUP2 DUP2 MSTORE PUSH1 0x20 ADD DUP3 DUP1 SLOAD DUP1 ISZERO PUSH2 0x665 JUMPI PUSH1 0x20 MUL DUP3 ADD SWAP2 SWAP1 PUSH0 MSTORE PUSH1 0x20 PUSH0 KECCAK256 SWAP1 JUMPDEST DUP2 SLOAD DUP2 MSTORE PUSH1 0x20 ADD SWAP1 PUSH1 0x1 ADD SWAP1 DUP1 DUP4 GT PUSH2 0x651 JUMPI JUMPDEST POP POP POP POP POP SWAP1 POP SWAP2 SWAP1 POP JUMP JUMPDEST PUSH0 PUSH2 0x67A PUSH2 0x2025 JUMP JUMPDEST PUSH2 0x682 PUSH2 0x2072 JUMP JUMPDEST PUSH0 DUP4 GT PUSH2 0x6C4 JUMPI PUSH1 0x40 MLOAD PUSH32 0x8C379A000000000000000000000000000000000000000000000000000000000 DUP2 MSTORE PUSH1 0x4 ADD PUSH2 0x6BB SWAP1 PUSH2 0x27D0 JUMP JUMPDEST PUSH1 0x40 MLOAD DUP1 SWAP2 SUB SWAP1 REVERT JUMPDEST PUSH0 DUP3 GT PUSH2 0x706 JUMPI PUSH1 0x40 MLOAD PUSH32 0x8C379A000000000000000000000000000000000000000000000000000000000 DUP2 MSTORE PUSH1 0x4 ADD PUSH2 0x6FD SWAP1 PUSH2 0x2838 JUMP JUMPDEST PUSH1 0x40 MLOAD DUP1 SWAP2 SUB SWAP1 REVERT JUMPDEST DUP3 PUSH1 0x2 PUSH0 SWAP1 SLOAD SWAP1 PUSH2 0x100 EXP SWAP1 DIV PUSH20 0xFFFFFFFFFFFFFFFFFFFFFFFFFFFFFFFFFFFFFFFF AND PUSH20 0xFFFFFFFFFFFFFFFFFFFFFFFFFFFFFFFFFFFFFFFF AND PUSH4 0x70A08231 CALLER PUSH1 0x40 MLOAD DUP3 PUSH4 0xFFFFFFFF AND PUSH1 0xE0 SHL DUP2 MSTORE PUSH1 0x4 ADD PUSH2 0x761 SWAP2 SWAP1 PUSH2 0x266A JUMP JUMPDEST PUSH1 0x20 PUSH1 0x40 MLOAD DUP1 DUP4 SUB DUP2 DUP7 GAS STATICCALL ISZERO DUP1 ISZERO PUSH2 0x77C JUMPI RETURNDATASIZE PUSH0 PUSH0 RETURNDATACOPY RETURNDATASIZE PUSH0 REVERT JUMPDEST POP POP POP POP PUSH1 0x40 MLOAD RETURNDATASIZE PUSH1 0x1F NOT PUSH1 0x1F DUP3 ADD AND DUP3 ADD DUP1 PUSH1 0x40 MSTORE POP DUP2 ADD SWAP1 PUSH2 0x7A0 SWAP2 SWAP1 PUSH2 0x286A JUMP JUMPDEST LT ISZERO PUSH2 0x7E1 JUMPI PUSH1 0x40 MLOAD PUSH32 0x8C379A000000000000000000000000000000000000000000000000000000000 DUP2 MSTORE PUSH1 0x4 ADD PUSH2 0x7D8 SWAP1 PUSH2 0x28DF JUMP JUMPDEST PUSH1 0x40 MLOAD DUP1 SWAP2 SUB SWAP1 REVERT JUMPDEST PUSH0 PUSH2 0x7EB DUP5 PUSH2 0x16B2 JUMP JUMPDEST SWAP1 POP DUP1 DUP4 GT ISZERO PUSH2 0x830 JUMPI PUSH1 0x40 MLOAD PUSH32 0x8C379A000000000000000000000000000000000000000000000000000000000 DUP2 MSTORE PUSH1 0x4 ADD PUSH2 0x827 SWAP1 PUSH2 0x2947 JUMP JUMPDEST PUSH1 0x40 MLOAD DUP1 SWAP2 SUB SWAP1 REVERT JUMPDEST DUP3 PUSH1 0x3 PUSH0 SWAP1 SLOAD SWAP1 PUSH2 0x100 EXP SWAP1 DIV PUSH20 0xFFFFFFFFFFFFFFFFFFFFFFFFFFFFFFFFFFFFFFFF AND PUSH20 0xFFFFFFFFFFFFFFFFFFFFFFFFFFFFFFFFFFFFFFFF AND PUSH4 0x70A08231 ADDRESS PUSH1 0x40 MLOAD DUP3 PUSH4 0xFFFFFFFF AND PUSH1 0xE0 SHL DUP2 MSTORE PUSH1 0x4 ADD PUSH2 0x88B SWAP2 SWAP1 PUSH2 0x266A JUMP JUMPDEST PUSH1 0x20 PUSH1 0x40 MLOAD DUP1 DUP4 SUB DUP2 DUP7 GAS STATICCALL ISZERO DUP1 ISZERO PUSH2 0x8A6 JUMPI RETURNDATASIZE PUSH0 PUSH0 RETURNDATACOPY RETURNDATASIZE PUSH0 REVERT JUMPDEST POP POP POP POP PUSH1 0x40 MLOAD RETURNDATASIZE PUSH1 0x1F NOT PUSH1 0x1F DUP3 ADD AND DUP3 ADD DUP1 PUSH1 0x40 MSTORE POP DUP2 ADD SWAP1 PUSH2 0x8CA SWAP2 SWAP1 PUSH2 0x286A JUMP JUMPDEST LT ISZERO PUSH2 0x90B JUMPI PUSH1 0x40 MLOAD PUSH32 0x8C379A000000000000000000000000000000000000000000000000000000000 DUP2 MSTORE PUSH1 0x4 ADD PUSH2 0x902 SWAP1 PUSH2 0x29AF JUMP JUMPDEST PUSH1 0x40 MLOAD DUP1 SWAP2 SUB SWAP1 REVERT JUMPDEST PUSH1 0x2 PUSH0 SWAP1 SLOAD SWAP1 PUSH2 0x100 EXP SWAP1 DIV PUSH20 0xFFFFFFFFFFFFFFFFFFFFFFFFFFFFFFFFFFFFFFFF AND PUSH20 0xFFFFFFFFFFFFFFFFFFFFFFFFFFFFFFFFFFFFFFFF AND PUSH4 0x23B872DD CALLER ADDRESS DUP8 PUSH1 0x40 MLOAD DUP5 PUSH4 0xFFFFFFFF AND PUSH1 0xE0 SHL DUP2 MSTORE PUSH1 0x4 ADD PUSH2 0x969 SWAP4 SWAP3 SWAP2 SWAP1 PUSH2 0x29CD JUMP JUMPDEST PUSH1 0x20 PUSH1 0x40 MLOAD DUP1 DUP4 SUB DUP2 PUSH0 DUP8 GAS CALL ISZERO DUP1 ISZERO PUSH2 0x985 JUMPI RETURNDATASIZE PUSH0 PUSH0 RETURNDATACOPY RETURNDATASIZE PUSH0 REVERT JUMPDEST POP POP POP POP PUSH1 0x40 MLOAD RETURNDATASIZE PUSH1 0x1F NOT PUSH1 0x1F DUP3 ADD AND DUP3 ADD DUP1 PUSH1 0x40 MSTORE POP DUP2 ADD SWAP1 PUSH2 0x9A9 SWAP2 SWAP1 PUSH2 0x2A2C JUMP JUMPDEST PUSH2 0x9E8 JUMPI PUSH1 0x40 MLOAD PUSH32 0x8C379A000000000000000000000000000000000000000000000000000000000 DUP2 MSTORE PUSH1 0x4 ADD PUSH2 0x9DF SWAP1 PUSH2 0x2AA1 JUMP JUMPDEST PUSH1 0x40 MLOAD DUP1 SWAP2 SUB SWAP1 REVERT JUMPDEST PUSH1 0x8 PUSH0 DUP2 SLOAD DUP1 SWAP3 SWAP2 SWAP1 PUSH2 0x9FA SWAP1 PUSH2 0x2AEC JUMP JUMPDEST SWAP2 SWAP1 POP SSTORE POP PUSH0 PUSH1 0x8 SLOAD SWAP1 POP PUSH1 0x40 MLOAD DUP1 PUSH2 0x100 ADD PUSH1 0x40 MSTORE DUP1 DUP3 DUP2 MSTORE PUSH1 0x20 ADD CALLER PUSH20 0xFFFFFFFFFFFFFFFFFFFFFFFFFFFFFFFFFFFFFFFF AND DUP2 MSTORE PUSH1 0x20 ADD DUP7 DUP2 MSTORE PUSH1 0x20 ADD DUP6 DUP2 MSTORE PUSH1 0x20 ADD PUSH1 0x5 SLOAD DUP2 MSTORE PUSH1 0x20 ADD TIMESTAMP DUP2 MSTORE PUSH1 0x20 ADD TIMESTAMP DUP2 MSTORE PUSH1 0x20 ADD PUSH1 0x1 ISZERO ISZERO DUP2 MSTORE POP PUSH1 0x9 PUSH0 DUP4 DUP2 MSTORE PUSH1 0x20 ADD SWAP1 DUP2 MSTORE PUSH1 0x20 ADD PUSH0 KECCAK256 PUSH0 DUP3 ADD MLOAD DUP2 PUSH0 ADD SSTORE PUSH1 0x20 DUP3 ADD MLOAD DUP2 PUSH1 0x1 ADD PUSH0 PUSH2 0x100 EXP DUP2 SLOAD DUP2 PUSH20 0xFFFFFFFFFFFFFFFFFFFFFFFFFFFFFFFFFFFFFFFF MUL NOT AND SWAP1 DUP4 PUSH20 0xFFFFFFFFFFFFFFFFFFFFFFFFFFFFFFFFFFFFFFFF AND MUL OR SWAP1 SSTORE POP PUSH1 0x40 DUP3 ADD MLOAD DUP2 PUSH1 0x2 ADD SSTORE PUSH1 0x60 DUP3 ADD MLOAD DUP2 PUSH1 0x3 ADD SSTORE PUSH1 0x80 DUP3 ADD MLOAD DUP2 PUSH1 0x4 ADD SSTORE PUSH1 0xA0 DUP3 ADD MLOAD DUP2 PUSH1 0x5 ADD SSTORE PUSH1 0xC0 DUP3 ADD MLOAD DUP2 PUSH1 0x6 ADD SSTORE PUSH1 0xE0 DUP3 ADD MLOAD DUP2 PUSH1 0x7 ADD PUSH0 PUSH2 0x100 EXP DUP2 SLOAD DUP2 PUSH1 0xFF MUL NOT AND SWAP1 DUP4 ISZERO ISZERO MUL OR SWAP1 SSTORE POP SWAP1 POP POP PUSH1 0xA PUSH0 CALLER PUSH20 0xFFFFFFFFFFFFFFFFFFFFFFFFFFFFFFFFFFFFFFFF AND PUSH20 0xFFFFFFFFFFFFFFFFFFFFFFFFFFFFFFFFFFFFFFFF AND DUP2 MSTORE PUSH1 0x20 ADD SWAP1 DUP2 MSTORE PUSH1 0x20 ADD PUSH0 KECCAK256 DUP2 SWAP1 DUP1 PUSH1 0x1 DUP2 SLOAD ADD DUP1 DUP3 SSTORE DUP1 SWAP2 POP POP PUSH1 0x1 SWAP1 SUB SWAP1 PUSH0 MSTORE PUSH1 0x20 PUSH0 KECCAK256 ADD PUSH0 SWAP1 SWAP2 SWAP1 SWAP2 SWAP1 SWAP2 POP SSTORE DUP4 PUSH1 0x6 PUSH0 DUP3 DUP3 SLOAD PUSH2 0xB7F SWAP2 SWAP1 PUSH2 0x2B33 JUMP JUMPDEST SWAP3 POP POP DUP2 SWAP1 SSTORE POP DUP5 PUSH1 0x7 PUSH0 DUP3 DUP3 SLOAD PUSH2 0xB97 SWAP2 SWAP1 PUSH2 0x2B33 JUMP JUMPDEST SWAP3 POP POP DUP2 SWAP1 SSTORE POP PUSH1 0x3 PUSH0 SWAP1 SLOAD SWAP1 PUSH2 0x100 EXP SWAP1 DIV PUSH20 0xFFFFFFFFFFFFFFFFFFFFFFFFFFFFFFFFFFFFFFFF AND PUSH20 0xFFFFFFFFFFFFFFFFFFFFFFFFFFFFFFFFFFFFFFFF AND PUSH4 0xA9059CBB CALLER DUP7 PUSH1 0x40 MLOAD DUP4 PUSH4 0xFFFFFFFF AND PUSH1 0xE0 SHL DUP2 MSTORE PUSH1 0x4 ADD PUSH2 0xBFA SWAP3 SWAP2 SWAP1 PUSH2 0x2B66 JUMP JUMPDEST PUSH1 0x20 PUSH1 0x40 MLOAD DUP1 DUP4 SUB DUP2 PUSH0 DUP8 GAS CALL ISZERO DUP1 ISZERO PUSH2 0xC16 JUMPI RETURNDATASIZE PUSH0 PUSH0 RETURNDATACOPY RETURNDATASIZE PUSH0 REVERT JUMPDEST POP POP POP POP PUSH1 0x40 MLOAD RETURNDATASIZE PUSH1 0x1F NOT PUSH1 0x1F DUP3 ADD AND DUP3 ADD DUP1 PUSH1 0x40 MSTORE POP DUP2 ADD SWAP1 PUSH2 0xC3A SWAP2 SWAP1 PUSH2 0x2A2C JUMP JUMPDEST PUSH2 0xC79 JUMPI PUSH1 0x40 MLOAD PUSH32 0x8C379A000000000000000000000000000000000000000000000000000000000 DUP2 MSTORE PUSH1 0x4 ADD PUSH2 0xC70 SWAP1 PUSH2 0x2BD7 JUMP JUMPDEST PUSH1 0x40 MLOAD DUP1 SWAP2 SUB SWAP1 REVERT JUMPDEST CALLER PUSH20 0xFFFFFFFFFFFFFFFFFFFFFFFFFFFFFFFFFFFFFFFF AND DUP2 PUSH32 0x3373919AD665425D2CDDB4072830E5935B6EE308440FA99B23383648DA473BC0 DUP8 DUP8 PUSH1 0x40 MLOAD PUSH2 0xCC2 SWAP3 SWAP2 SWAP1 PUSH2 0x2BF5 JUMP JUMPDEST PUSH1 0x40 MLOAD DUP1 SWAP2 SUB SWAP1 LOG3 DUP1 SWAP3 POP POP POP PUSH2 0xCD7 PUSH2 0x20BC JUMP JUMPDEST SWAP3 SWAP2 POP POP JUMP JUMPDEST PUSH0 PUSH0 PUSH1 0x9 PUSH0 DUP5 DUP2 MSTORE PUSH1 0x20 ADD SWAP1 DUP2 MSTORE PUSH1 0x20 ADD PUSH0 KECCAK256 PUSH1 0x40 MLOAD DUP1 PUSH2 0x100 ADD PUSH1 0x40 MSTORE SWAP1 DUP2 PUSH0 DUP3 ADD SLOAD DUP2 MSTORE PUSH1 0x20 ADD PUSH1 0x1 DUP3 ADD PUSH0 SWAP1 SLOAD SWAP1 PUSH2 0x100 EXP SWAP1 DIV PUSH20 0xFFFFFFFFFFFFFFFFFFFFFFFFFFFFFFFFFFFFFFFF AND PUSH20 0xFFFFFFFFFFFFFFFFFFFFFFFFFFFFFFFFFFFFFFFF AND PUSH20 0xFFFFFFFFFFFFFFFFFFFFFFFFFFFFFFFFFFFFFFFF AND DUP2 MSTORE PUSH1 0x20 ADD PUSH1 0x2 DUP3 ADD SLOAD DUP2 MSTORE PUSH1 0x20 ADD PUSH1 0x3 DUP3 ADD SLOAD DUP2 MSTORE PUSH1 0x20 ADD PUSH1 0x4 DUP3 ADD SLOAD DUP2 MSTORE PUSH1 0x20 ADD PUSH1 0x5 DUP3 ADD SLOAD DUP2 MSTORE PUSH1 0x20 ADD PUSH1 0x6 DUP3 ADD SLOAD DUP2 MSTORE PUSH1 0x20 ADD PUSH1 0x7 DUP3 ADD PUSH0 SWAP1 SLOAD SWAP1 PUSH2 0x100 EXP SWAP1 DIV PUSH1 0xFF AND ISZERO ISZERO ISZERO ISZERO DUP2 MSTORE POP POP SWAP1 POP DUP1 PUSH1 0xE0 ADD MLOAD PUSH2 0xDBA JUMPI PUSH0 SWAP2 POP POP PUSH2 0xEEC JUMP JUMPDEST PUSH0 PUSH2 0xDC3 PUSH2 0x191E JUMP JUMPDEST SWAP1 POP PUSH0 PUSH1 0x4 PUSH0 SWAP1 SLOAD SWAP1 PUSH2 0x100 EXP SWAP1 DIV PUSH20 0xFFFFFFFFFFFFFFFFFFFFFFFFFFFFFFFFFFFFFFFF AND PUSH20 0xFFFFFFFFFFFFFFFFFFFFFFFFFFFFFFFFFFFFFFFF AND PUSH4 0x313CE567 PUSH1 0x40 MLOAD DUP2 PUSH4 0xFFFFFFFF AND PUSH1 0xE0 SHL DUP2 MSTORE PUSH1 0x4 ADD PUSH1 0x20 PUSH1 0x40 MLOAD DUP1 DUP4 SUB DUP2 DUP7 GAS STATICCALL ISZERO DUP1 ISZERO PUSH2 0xE30 JUMPI RETURNDATASIZE PUSH0 PUSH0 RETURNDATACOPY RETURNDATASIZE PUSH0 REVERT JUMPDEST POP POP POP POP PUSH1 0x40 MLOAD RETURNDATASIZE PUSH1 0x1F NOT PUSH1 0x1F DUP3 ADD AND DUP3 ADD DUP1 PUSH1 0x40 MSTORE POP DUP2 ADD SWAP1 PUSH2 0xE54 SWAP2 SWAP1 PUSH2 0x2C52 JUMP JUMPDEST PUSH1 0xFF AND PUSH1 0xA PUSH2 0xE63 SWAP2 SWAP1 PUSH2 0x2DAC JUMP JUMPDEST DUP3 DUP5 PUSH1 0x40 ADD MLOAD PUSH2 0xE73 SWAP2 SWAP1 PUSH2 0x2DF6 JUMP JUMPDEST PUSH2 0xE7D SWAP2 SWAP1 PUSH2 0x2E64 JUMP JUMPDEST SWAP1 POP PUSH0 PUSH2 0xE89 DUP7 PUSH2 0x1AFF JUMP JUMPDEST DUP5 PUSH1 0x60 ADD MLOAD PUSH2 0xE98 SWAP2 SWAP1 PUSH2 0x2B33 JUMP JUMPDEST SWAP1 POP PUSH0 DUP2 SUB PUSH2 0xECD JUMPI PUSH32 0xFFFFFFFFFFFFFFFFFFFFFFFFFFFFFFFFFFFFFFFFFFFFFFFFFFFFFFFFFFFFFFFF SWAP5 POP POP POP POP POP PUSH2 0xEEC JUMP JUMPDEST DUP1 PUSH1 0x64 DUP4 PUSH2 0xEDB SWAP2 SWAP1 PUSH2 0x2DF6 JUMP JUMPDEST PUSH2 0xEE5 SWAP2 SWAP1 PUSH2 0x2E64 JUMP JUMPDEST SWAP5 POP POP POP POP POP JUMPDEST SWAP2 SWAP1 POP JUMP JUMPDEST PUSH2 0xEF9 PUSH2 0x2025 JUMP JUMPDEST PUSH0 PUSH1 0x9 PUSH0 DUP4 DUP2 MSTORE PUSH1 0x20 ADD SWAP1 DUP2 MSTORE PUSH1 0x20 ADD PUSH0 KECCAK256 SWAP1 POP DUP1 PUSH1 0x7 ADD PUSH0 SWAP1 SLOAD SWAP1 PUSH2 0x100 EXP SWAP1 DIV PUSH1 0xFF AND PUSH2 0xF5D JUMPI PUSH1 0x40 MLOAD PUSH32 0x8C379A000000000000000000000000000000000000000000000000000000000 DUP2 MSTORE PUSH1 0x4 ADD PUSH2 0xF54 SWAP1 PUSH2 0x2EDE JUMP JUMPDEST PUSH1 0x40 MLOAD DUP1 SWAP2 SUB SWAP1 REVERT JUMPDEST CALLER PUSH20 0xFFFFFFFFFFFFFFFFFFFFFFFFFFFFFFFFFFFFFFFF AND DUP2 PUSH1 0x1 ADD PUSH0 SWAP1 SLOAD SWAP1 PUSH2 0x100 EXP SWAP1 DIV PUSH20 0xFFFFFFFFFFFFFFFFFFFFFFFFFFFFFFFFFFFFFFFF AND PUSH20 0xFFFFFFFFFFFFFFFFFFFFFFFFFFFFFFFFFFFFFFFF AND EQ PUSH2 0xFEE JUMPI PUSH1 0x40 MLOAD PUSH32 0x8C379A000000000000000000000000000000000000000000000000000000000 DUP2 MSTORE PUSH1 0x4 ADD PUSH2 0xFE5 SWAP1 PUSH2 0x2F46 JUMP JUMPDEST PUSH1 0x40 MLOAD DUP1 SWAP2 SUB SWAP1 REVERT JUMPDEST PUSH0 PUSH2 0xFF8 DUP4 PUSH2 0x1AFF JUMP JUMPDEST SWAP1 POP PUSH0 DUP2 DUP4 PUSH1 0x3 ADD SLOAD PUSH2 0x100B SWAP2 SWAP1 PUSH2 0x2B33 JUMP JUMPDEST SWAP1 POP PUSH1 0x3 PUSH0 SWAP1 SLOAD SWAP1 PUSH2 0x100 EXP SWAP1 DIV PUSH20 0xFFFFFFFFFFFFFFFFFFFFFFFFFFFFFFFFFFFFFFFF AND PUSH20 0xFFFFFFFFFFFFFFFFFFFFFFFFFFFFFFFFFFFFFFFF AND PUSH4 0x23B872DD CALLER ADDRESS DUP5 PUSH1 0x40 MLOAD DUP5 PUSH4 0xFFFFFFFF AND PUSH1 0xE0 SHL DUP2 MSTORE PUSH1 0x4 ADD PUSH2 0x106B SWAP4 SWAP3 SWAP2 SWAP1 PUSH2 0x29CD JUMP JUMPDEST PUSH1 0x20 PUSH1 0x40 MLOAD DUP1 DUP4 SUB DUP2 PUSH0 DUP8 GAS CALL ISZERO DUP1 ISZERO PUSH2 0x1087 JUMPI RETURNDATASIZE PUSH0 PUSH0 RETURNDATACOPY RETURNDATASIZE PUSH0 REVERT JUMPDEST POP POP POP POP PUSH1 0x40 MLOAD RETURNDATASIZE PUSH1 0x1F NOT PUSH1 0x1F DUP3 ADD AND DUP3 ADD DUP1 PUSH1 0x40 MSTORE POP DUP2 ADD SWAP1 PUSH2 0x10AB SWAP2 SWAP1 PUSH2 0x2A2C JUMP JUMPDEST PUSH2 0x10EA JUMPI PUSH1 0x40 MLOAD PUSH32 0x8C379A000000000000000000000000000000000000000000000000000000000 DUP2 MSTORE PUSH1 0x4 ADD PUSH2 0x10E1 SWAP1 PUSH2 0x2FAE JUMP JUMPDEST PUSH1 0x40 MLOAD DUP1 SWAP2 SUB SWAP1 REVERT JUMPDEST PUSH1 0x2 PUSH0 SWAP1 SLOAD SWAP1 PUSH2 0x100 EXP SWAP1 DIV PUSH20 0xFFFFFFFFFFFFFFFFFFFFFFFFFFFFFFFFFFFFFFFF AND PUSH20 0xFFFFFFFFFFFFFFFFFFFFFFFFFFFFFFFFFFFFFFFF AND PUSH4 0xA9059CBB CALLER DUP6 PUSH1 0x2 ADD SLOAD PUSH1 0x40 MLOAD DUP4 PUSH4 0xFFFFFFFF AND PUSH1 0xE0 SHL DUP2 MSTORE PUSH1 0x4 ADD PUSH2 0x114A SWAP3 SWAP2 SWAP1 PUSH2 0x2B66 JUMP JUMPDEST PUSH1 0x20 PUSH1 0x40 MLOAD DUP1 DUP4 SUB DUP2 PUSH0 DUP8 GAS CALL ISZERO DUP1 ISZERO PUSH2 0x1166 JUMPI RETURNDATASIZE PUSH0 PUSH0 RETURNDATACOPY RETURNDATASIZE PUSH0 REVERT JUMPDEST POP POP POP POP PUSH1 0x40 MLOAD RETURNDATASIZE PUSH1 0x1F NOT PUSH1 0x1F DUP3 ADD AND DUP3 ADD DUP1 PUSH1 0x40 MSTORE POP DUP2 ADD SWAP1 PUSH2 0x118A SWAP2 SWAP1 PUSH2 0x2A2C JUMP JUMPDEST PUSH2 0x11C9 JUMPI PUSH1 0x40 MLOAD PUSH32 0x8C379A000000000000000000000000000000000000000000000000000000000 DUP2 MSTORE PUSH1 0x4 ADD PUSH2 0x11C0 SWAP1 PUSH2 0x3016 JUMP JUMPDEST PUSH1 0x40 MLOAD DUP1 SWAP2 SUB SWAP1 REVERT JUMPDEST DUP3 PUSH1 0x3 ADD SLOAD PUSH1 0x6 PUSH0 DUP3 DUP3 SLOAD PUSH2 0x11DE SWAP2 SWAP1 PUSH2 0x3034 JUMP JUMPDEST SWAP3 POP POP DUP2 SWAP1 SSTORE POP DUP3 PUSH1 0x2 ADD SLOAD PUSH1 0x7 PUSH0 DUP3 DUP3 SLOAD PUSH2 0x11FA SWAP2 SWAP1 PUSH2 0x3034 JUMP JUMPDEST SWAP3 POP POP DUP2 SWAP1 SSTORE POP PUSH0 DUP4 PUSH1 0x7 ADD PUSH0 PUSH2 0x100 EXP DUP2 SLOAD DUP2 PUSH1 0xFF MUL NOT AND SWAP1 DUP4 ISZERO ISZERO MUL OR SWAP1 SSTORE POP CALLER PUSH20 0xFFFFFFFFFFFFFFFFFFFFFFFFFFFFFFFFFFFFFFFF AND DUP5 PUSH32 0x553C9087BFF5B534E499A66DAC3FA9DB2962CD252EA01165239755836AE5345E DUP4 DUP6 PUSH1 0x40 MLOAD PUSH2 0x1265 SWAP3 SWAP2 SWAP1 PUSH2 0x2BF5 JUMP JUMPDEST PUSH1 0x40 MLOAD DUP1 SWAP2 SUB SWAP1 LOG3 POP POP POP PUSH2 0x1278 PUSH2 0x20BC JUMP JUMPDEST POP JUMP JUMPDEST PUSH2 0x1283 PUSH2 0x20C5 JUMP JUMPDEST PUSH2 0x128B PUSH2 0x214C JUMP JUMPDEST JUMP JUMPDEST PUSH2 0x1295 PUSH2 0x2025 JUMP JUMPDEST PUSH0 PUSH1 0x9 PUSH0 DUP4 DUP2 MSTORE PUSH1 0x20 ADD SWAP1 DUP2 MSTORE PUSH1 0x20 ADD PUSH0 KECCAK256 SWAP1 POP DUP1 PUSH1 0x7 ADD PUSH0 SWAP1 SLOAD SWAP1 PUSH2 0x100 EXP SWAP1 DIV PUSH1 0xFF AND PUSH2 0x12F9 JUMPI PUSH1 0x40 MLOAD PUSH32 0x8C379A000000000000000000000000000000000000000000000000000000000 DUP2 MSTORE PUSH1 0x4 ADD PUSH2 0x12F0 SWAP1 PUSH2 0x2EDE JUMP JUMPDEST PUSH1 0x40 MLOAD DUP1 SWAP2 SUB SWAP1 REVERT JUMPDEST PUSH0 PUSH2 0x1303 DUP4 PUSH2 0xCDD JUMP JUMPDEST SWAP1 POP PUSH1 0x78 DUP2 LT PUSH2 0x1348 JUMPI PUSH1 0x40 MLOAD PUSH32 0x8C379A000000000000000000000000000000000000000000000000000000000 DUP2 MSTORE PUSH1 0x4 ADD PUSH2 0x133F SWAP1 PUSH2 0x30B1 JUMP JUMPDEST PUSH1 0x40 MLOAD DUP1 SWAP2 SUB SWAP1 REVERT JUMPDEST PUSH0 PUSH2 0x1352 DUP5 PUSH2 0x1AFF JUMP JUMPDEST DUP4 PUSH1 0x3 ADD SLOAD PUSH2 0x1361 SWAP2 SWAP1 PUSH2 0x2B33 JUMP JUMPDEST SWAP1 POP PUSH0 PUSH1 0x64 PUSH1 0xA DUP6 PUSH1 0x2 ADD SLOAD PUSH2 0x1377 SWAP2 SWAP1 PUSH2 0x2DF6 JUMP JUMPDEST PUSH2 0x1381 SWAP2 SWAP1 PUSH2 0x2E64 JUMP JUMPDEST SWAP1 POP PUSH0 DUP2 DUP6 PUSH1 0x2 ADD SLOAD PUSH2 0x1394 SWAP2 SWAP1 PUSH2 0x3034 JUMP JUMPDEST SWAP1 POP PUSH1 0x3 PUSH0 SWAP1 SLOAD SWAP1 PUSH2 0x100 EXP SWAP1 DIV PUSH20 0xFFFFFFFFFFFFFFFFFFFFFFFFFFFFFFFFFFFFFFFF AND PUSH20 0xFFFFFFFFFFFFFFFFFFFFFFFFFFFFFFFFFFFFFFFF AND PUSH4 0x23B872DD CALLER ADDRESS DUP7 PUSH1 0x40 MLOAD DUP5 PUSH4 0xFFFFFFFF AND PUSH1 0xE0 SHL DUP2 MSTORE PUSH1 0x4 ADD PUSH2 0x13F4 SWAP4 SWAP3 SWAP2 SWAP1 PUSH2 0x29CD JUMP JUMPDEST PUSH1 0x20 PUSH1 0x40 MLOAD DUP1 DUP4 SUB DUP2 PUSH0 DUP8 GAS CALL ISZERO DUP1 ISZERO PUSH2 0x1410 JUMPI RETURNDATASIZE PUSH0 PUSH0 RETURNDATACOPY RETURNDATASIZE PUSH0 REVERT JUMPDEST POP POP POP POP PUSH1 0x40 MLOAD RETURNDATASIZE PUSH1 0x1F NOT PUSH1 0x1F DUP3 ADD AND DUP3 ADD DUP1 PUSH1 0x40 MSTORE POP DUP2 ADD SWAP1 PUSH2 0x1434 SWAP2 SWAP1 PUSH2 0x2A2C JUMP JUMPDEST PUSH2 0x1473 JUMPI PUSH1 0x40 MLOAD PUSH32 0x8C379A000000000000000000000000000000000000000000000000000000000 DUP2 MSTORE PUSH1 0x4 ADD PUSH2 0x146A SWAP1 PUSH2 0x3119 JUMP JUMPDEST PUSH1 0x40 MLOAD DUP1 SWAP2 SUB SWAP1 REVERT JUMPDEST PUSH1 0x2 PUSH0 SWAP1 SLOAD SWAP1 PUSH2 0x100 EXP SWAP1 DIV PUSH20 0xFFFFFFFFFFFFFFFFFFFFFFFFFFFFFFFFFFFFFFFF AND PUSH20 0xFFFFFFFFFFFFFFFFFFFFFFFFFFFFFFFFFFFFFFFF AND PUSH4 0xA9059CBB CALLER DUP4 PUSH1 0x40 MLOAD DUP4 PUSH4 0xFFFFFFFF AND PUSH1 0xE0 SHL DUP2 MSTORE PUSH1 0x4 ADD PUSH2 0x14CF SWAP3 SWAP2 SWAP1 PUSH2 0x2B66 JUMP JUMPDEST PUSH1 0x20 PUSH1 0x40 MLOAD DUP1 DUP4 SUB DUP2 PUSH0 DUP8 GAS CALL ISZERO DUP1 ISZERO PUSH2 0x14EB JUMPI RETURNDATASIZE PUSH0 PUSH0 RETURNDATACOPY RETURNDATASIZE PUSH0 REVERT JUMPDEST POP POP POP POP PUSH1 0x40 MLOAD RETURNDATASIZE PUSH1 0x1F NOT PUSH1 0x1F DUP3 ADD AND DUP3 ADD DUP1 PUSH1 0x40 MSTORE POP DUP2 ADD SWAP1 PUSH2 0x150F SWAP2 SWAP1 PUSH2 0x2A2C JUMP JUMPDEST PUSH2 0x154E JUMPI PUSH1 0x40 MLOAD PUSH32 0x8C379A000000000000000000000000000000000000000000000000000000000 DUP2 MSTORE PUSH1 0x4 ADD PUSH2 0x1545 SWAP1 PUSH2 0x2AA1 JUMP JUMPDEST PUSH1 0x40 MLOAD DUP1 SWAP2 SUB SWAP1 REVERT JUMPDEST DUP5 PUSH1 0x3 ADD SLOAD PUSH1 0x6 PUSH0 DUP3 DUP3 SLOAD PUSH2 0x1563 SWAP2 SWAP1 PUSH2 0x3034 JUMP JUMPDEST SWAP3 POP POP DUP2 SWAP1 SSTORE POP DUP5 PUSH1 0x2 ADD SLOAD PUSH1 0x7 PUSH0 DUP3 DUP3 SLOAD PUSH2 0x157F SWAP2 SWAP1 PUSH2 0x3034 JUMP JUMPDEST SWAP3 POP POP DUP2 SWAP1 SSTORE POP PUSH0 DUP6 PUSH1 0x7 ADD PUSH0 PUSH2 0x100 EXP DUP2 SLOAD DUP2 PUSH1 0xFF MUL NOT AND SWAP1 DUP4 ISZERO ISZERO MUL OR SWAP1 SSTORE POP CALLER PUSH20 0xFFFFFFFFFFFFFFFFFFFFFFFFFFFFFFFFFFFFFFFF AND DUP7 PUSH32 0xD1B144C94C58CEAB69737EDEED9E57E7A7BF0E63C3232DA2B7C1E65D7AB7F3D0 DUP4 DUP6 PUSH1 0x40 MLOAD PUSH2 0x15EA SWAP3 SWAP2 SWAP1 PUSH2 0x2BF5 JUMP JUMPDEST PUSH1 0x40 MLOAD DUP1 SWAP2 SUB SWAP1 LOG3 POP POP POP POP POP PUSH2 0x15FF PUSH2 0x20BC JUMP JUMPDEST POP JUMP JUMPDEST PUSH1 0x7 SLOAD DUP2 JUMP JUMPDEST PUSH1 0x6 SLOAD DUP2 JUMP JUMPDEST PUSH0 PUSH1 0x1 PUSH1 0x14 SWAP1 SLOAD SWAP1 PUSH2 0x100 EXP SWAP1 DIV PUSH1 0xFF AND SWAP1 POP SWAP1 JUMP JUMPDEST PUSH2 0x162C PUSH2 0x20C5 JUMP JUMPDEST PUSH2 0x7D0 DUP2 GT ISZERO PUSH2 0x1671 JUMPI PUSH1 0x40 MLOAD PUSH32 0x8C379A000000000000000000000000000000000000000000000000000000000 DUP2 MSTORE PUSH1 0x4 ADD PUSH2 0x1668 SWAP1 PUSH2 0x3181 JUMP JUMPDEST PUSH1 0x40 MLOAD DUP1 SWAP2 SUB SWAP1 REVERT JUMPDEST DUP1 PUSH1 0x5 DUP2 SWAP1 SSTORE POP PUSH32 0xA90E14BE5AA57B910AA6DC16C31FF1B5CDA380AE25A793B0D3F74DF6131A7D74 DUP2 PUSH1 0x40 MLOAD PUSH2 0x16A7 SWAP2 SWAP1 PUSH2 0x2503 JUMP JUMPDEST PUSH1 0x40 MLOAD DUP1 SWAP2 SUB SWAP1 LOG1 POP JUMP JUMPDEST PUSH0 PUSH0 PUSH2 0x16BC PUSH2 0x191E JUMP JUMPDEST SWAP1 POP PUSH0 PUSH1 0x4 PUSH0 SWAP1 SLOAD SWAP1 PUSH2 0x100 EXP SWAP1 DIV PUSH20 0xFFFFFFFFFFFFFFFFFFFFFFFFFFFFFFFFFFFFFFFF AND PUSH20 0xFFFFFFFFFFFFFFFFFFFFFFFFFFFFFFFFFFFFFFFF AND PUSH4 0x313CE567 PUSH1 0x40 MLOAD DUP2 PUSH4 0xFFFFFFFF AND PUSH1 0xE0 SHL DUP2 MSTORE PUSH1 0x4 ADD PUSH1 0x20 PUSH1 0x40 MLOAD DUP1 DUP4 SUB DUP2 DUP7 GAS STATICCALL ISZERO DUP1 ISZERO PUSH2 0x1729 JUMPI RETURNDATASIZE PUSH0 PUSH0 RETURNDATACOPY RETURNDATASIZE PUSH0 REVERT JUMPDEST POP POP POP POP PUSH1 0x40 MLOAD RETURNDATASIZE PUSH1 0x1F NOT PUSH1 0x1F DUP3 ADD AND DUP3 ADD DUP1 PUSH1 0x40 MSTORE POP DUP2 ADD SWAP1 PUSH2 0x174D SWAP2 SWAP1 PUSH2 0x2C52 JUMP JUMPDEST PUSH1 0xFF AND PUSH1 0xA PUSH2 0x175C SWAP2 SWAP1 PUSH2 0x2DAC JUMP JUMPDEST DUP3 DUP6 PUSH2 0x1768 SWAP2 SWAP1 PUSH2 0x2DF6 JUMP JUMPDEST PUSH2 0x1772 SWAP2 SWAP1 PUSH2 0x2E64 JUMP JUMPDEST SWAP1 POP PUSH1 0x96 PUSH1 0x64 DUP3 PUSH2 0x1783 SWAP2 SWAP1 PUSH2 0x2DF6 JUMP JUMPDEST PUSH2 0x178D SWAP2 SWAP1 PUSH2 0x2E64 JUMP JUMPDEST SWAP3 POP POP POP SWAP2 SWAP1 POP JUMP JUMPDEST PUSH0 PUSH0 PUSH0 PUSH0 PUSH0 PUSH0 PUSH0 PUSH0 PUSH1 0x9 PUSH0 DUP11 DUP2 MSTORE PUSH1 0x20 ADD SWAP1 DUP2 MSTORE PUSH1 0x20 ADD PUSH0 KECCAK256 PUSH1 0x40 MLOAD DUP1 PUSH2 0x100 ADD PUSH1 0x40 MSTORE SWAP1 DUP2 PUSH0 DUP3 ADD SLOAD DUP2 MSTORE PUSH1 0x20 ADD PUSH1 0x1 DUP3 ADD PUSH0 SWAP1 SLOAD SWAP1 PUSH2 0x100 EXP SWAP1 DIV PUSH20 0xFFFFFFFFFFFFFFFFFFFFFFFFFFFFFFFFFFFFFFFF AND PUSH20 0xFFFFFFFFFFFFFFFFFFFFFFFFFFFFFFFFFFFFFFFF AND PUSH20 0xFFFFFFFFFFFFFFFFFFFFFFFFFFFFFFFFFFFFFFFF AND DUP2 MSTORE PUSH1 0x20 ADD PUSH1 0x2 DUP3 ADD SLOAD DUP2 MSTORE PUSH1 0x20 ADD PUSH1 0x3 DUP3 ADD SLOAD DUP2 MSTORE PUSH1 0x20 ADD PUSH1 0x4 DUP3 ADD SLOAD DUP2 MSTORE PUSH1 0x20 ADD PUSH1 0x5 DUP3 ADD SLOAD DUP2 MSTORE PUSH1 0x20 ADD PUSH1 0x6 DUP3 ADD SLOAD DUP2 MSTORE PUSH1 0x20 ADD PUSH1 0x7 DUP3 ADD PUSH0 SWAP1 SLOAD SWAP1 PUSH2 0x100 EXP SWAP1 DIV PUSH1 0xFF AND ISZERO ISZERO ISZERO ISZERO DUP2 MSTORE POP POP SWAP1 POP DUP1 PUSH1 0x20 ADD MLOAD DUP2 PUSH1 0x40 ADD MLOAD DUP3 PUSH1 0x60 ADD MLOAD DUP4 PUSH1 0x80 ADD MLOAD PUSH2 0x1884 DUP14 PUSH2 0xCDD JUMP JUMPDEST PUSH2 0x188D DUP15 PUSH2 0x1AFF JUMP JUMPDEST DUP7 PUSH1 0xE0 ADD MLOAD SWAP8 POP SWAP8 POP SWAP8 POP SWAP8 POP SWAP8 POP SWAP8 POP SWAP8 POP POP SWAP2 SWAP4 SWAP6 SWAP8 SWAP1 SWAP3 SWAP5 SWAP7 POP JUMP JUMPDEST PUSH2 0x18B4 PUSH2 0x20C5 JUMP JUMPDEST PUSH2 0x18BD PUSH0 PUSH2 0x21AE JUMP JUMPDEST JUMP JUMPDEST PUSH1 0x4 PUSH0 SWAP1 SLOAD SWAP1 PUSH2 0x100 EXP SWAP1 DIV PUSH20 0xFFFFFFFFFFFFFFFFFFFFFFFFFFFFFFFFFFFFFFFF AND DUP2 JUMP JUMPDEST PUSH2 0x18EC PUSH2 0x20C5 JUMP JUMPDEST PUSH2 0x18F4 PUSH2 0x2271 JUMP JUMPDEST JUMP JUMPDEST PUSH0 PUSH1 0x1 PUSH0 SWAP1 SLOAD SWAP1 PUSH2 0x100 EXP SWAP1 DIV PUSH20 0xFFFFFFFFFFFFFFFFFFFFFFFFFFFFFFFFFFFFFFFF AND SWAP1 POP SWAP1 JUMP JUMPDEST PUSH0 PUSH0 PUSH1 0x4 PUSH0 SWAP1 SLOAD SWAP1 PUSH2 0x100 EXP SWAP1 DIV PUSH20 0xFFFFFFFFFFFFFFFFFFFFFFFFFFFFFFFFFFFFFFFF AND PUSH20 0xFFFFFFFFFFFFFFFFFFFFFFFFFFFFFFFFFFFFFFFF AND PUSH4 0xFEAF968C PUSH1 0x40 MLOAD DUP2 PUSH4 0xFFFFFFFF AND PUSH1 0xE0 SHL DUP2 MSTORE PUSH1 0x4 ADD PUSH1 0xA0 PUSH1 0x40 MLOAD DUP1 DUP4 SUB DUP2 DUP7 GAS STATICCALL ISZERO DUP1 ISZERO PUSH2 0x198A JUMPI RETURNDATASIZE PUSH0 PUSH0 RETURNDATACOPY RETURNDATASIZE PUSH0 REVERT JUMPDEST POP POP POP POP PUSH1 0x40 MLOAD RETURNDATASIZE PUSH1 0x1F NOT PUSH1 0x1F DUP3 ADD AND DUP3 ADD DUP1 PUSH1 0x40 MSTORE POP DUP2 ADD SWAP1 PUSH2 0x19AE SWAP2 SWAP1 PUSH2 0x3211 JUMP JUMPDEST POP POP POP SWAP2 POP POP PUSH0 DUP2 SGT PUSH2 0x19F6 JUMPI PUSH1 0x40 MLOAD PUSH32 0x8C379A000000000000000000000000000000000000000000000000000000000 DUP2 MSTORE PUSH1 0x4 ADD PUSH2 0x19ED SWAP1 PUSH2 0x32F8 JUMP JUMPDEST PUSH1 0x40 MLOAD DUP1 SWAP2 SUB SWAP1 REVERT JUMPDEST DUP1 SWAP2 POP POP SWAP1 JUMP JUMPDEST PUSH1 0x2 PUSH0 SWAP1 SLOAD SWAP1 PUSH2 0x100 EXP SWAP1 DIV PUSH20 0xFFFFFFFFFFFFFFFFFFFFFFFFFFFFFFFFFFFFFFFF AND DUP2 JUMP JUMPDEST PUSH1 0x78 DUP2 JUMP JUMPDEST PUSH2 0x1A2F PUSH2 0x20C5 JUMP JUMPDEST DUP2 PUSH20 0xFFFFFFFFFFFFFFFFFFFFFFFFFFFFFFFFFFFFFFFF AND PUSH4 0xA9059CBB PUSH2 0x1A53 PUSH2 0x18F6 JUMP JUMPDEST DUP4 PUSH1 0x40 MLOAD DUP4 PUSH4 0xFFFFFFFF AND PUSH1 0xE0 SHL DUP2 MSTORE PUSH1 0x4 ADD PUSH2 0x1A71 SWAP3 SWAP2 SWAP1 PUSH2 0x2B66 JUMP JUMPDEST PUSH1 0x20 PUSH1 0x40 MLOAD DUP1 DUP4 SUB DUP2 PUSH0 DUP8 GAS CALL ISZERO DUP1 ISZERO PUSH2 0x1A8D JUMPI RETURNDATASIZE PUSH0 PUSH0 RETURNDATACOPY RETURNDATASIZE PUSH0 REVERT JUMPDEST POP POP POP POP PUSH1 0x40 MLOAD RETURNDATASIZE PUSH1 0x1F NOT PUSH1 0x1F DUP3 ADD AND DUP3 ADD DUP1 PUSH1 0x40 MSTORE POP DUP2 ADD SWAP1 PUSH2 0x1AB1 SWAP2 SWAP1 PUSH2 0x2A2C JUMP JUMPDEST PUSH2 0x1AF0 JUMPI PUSH1 0x40 MLOAD PUSH32 0x8C379A000000000000000000000000000000000000000000000000000000000 DUP2 MSTORE PUSH1 0x4 ADD PUSH2 0x1AE7 SWAP1 PUSH2 0x3360 JUMP JUMPDEST PUSH1 0x40 MLOAD DUP1 SWAP2 SUB SWAP1 REVERT JUMPDEST POP POP JUMP JUMPDEST PUSH1 0xA DUP2 JUMP JUMPDEST PUSH1 0x8 SLOAD DUP2 JUMP JUMPDEST PUSH0 PUSH0 PUSH1 0x9 PUSH0 DUP5 DUP2 MSTORE PUSH1 0x20 ADD SWAP1 DUP2 MSTORE PUSH1 0x20 ADD PUSH0 KECCAK256 PUSH1 0x40 MLOAD DUP1 PUSH2 0x100 ADD PUSH1 0x40 MSTORE SWAP1 DUP2 PUSH0 DUP3 ADD SLOAD DUP2 MSTORE PUSH1 0x20 ADD PUSH1 0x1 DUP3 ADD PUSH0 SWAP1 SLOAD SWAP1 PUSH2 0x100 EXP SWAP1 DIV PUSH20 0xFFFFFFFFFFFFFFFFFFFFFFFFFFFFFFFFFFFFFFFF AND PUSH20 0xFFFFFFFFFFFFFFFFFFFFFFFFFFFFFFFFFFFFFFFF AND PUSH20 0xFFFFFFFFFFFFFFFFFFFFFFFFFFFFFFFFFFFFFFFF AND DUP2 MSTORE PUSH1 0x20 ADD PUSH1 0x2 DUP3 ADD SLOAD DUP2 MSTORE PUSH1 0x20 ADD PUSH1 0x3 DUP3 ADD SLOAD DUP2 MSTORE PUSH1 0x20 ADD PUSH1 0x4 DUP3 ADD SLOAD DUP2 MSTORE PUSH1 0x20 ADD PUSH1 0x5 DUP3 ADD SLOAD DUP2 MSTORE PUSH1 0x20 ADD PUSH1 0x6 DUP3 ADD SLOAD DUP2 MSTORE PUSH1 0x20 ADD PUSH1 0x7 DUP3 ADD PUSH0 SWAP1 SLOAD SWAP1 PUSH2 0x100 EXP SWAP1 DIV PUSH1 0xFF AND ISZERO ISZERO ISZERO ISZERO DUP2 MSTORE POP POP SWAP1 POP DUP1 PUSH1 0xE0 ADD MLOAD PUSH2 0x1BDC JUMPI PUSH0 SWAP2 POP POP PUSH2 0x1C39 JUMP JUMPDEST PUSH0 DUP2 PUSH1 0xC0 ADD MLOAD TIMESTAMP PUSH2 0x1BED SWAP2 SWAP1 PUSH2 0x3034 JUMP JUMPDEST SWAP1 POP PUSH0 PUSH2 0x2710 DUP4 PUSH1 0x80 ADD MLOAD DUP5 PUSH1 0x60 ADD MLOAD PUSH2 0x1C07 SWAP2 SWAP1 PUSH2 0x2DF6 JUMP JUMPDEST PUSH2 0x1C11 SWAP2 SWAP1 PUSH2 0x2E64 JUMP JUMPDEST SWAP1 POP PUSH0 PUSH4 0x1E13380 DUP4 DUP4 PUSH2 0x1C25 SWAP2 SWAP1 PUSH2 0x2DF6 JUMP JUMPDEST PUSH2 0x1C2F SWAP2 SWAP1 PUSH2 0x2E64 JUMP JUMPDEST SWAP1 POP DUP1 SWAP5 POP POP POP POP POP JUMPDEST SWAP2 SWAP1 POP JUMP JUMPDEST PUSH2 0x1C46 PUSH2 0x2025 JUMP JUMPDEST PUSH0 PUSH1 0x9 PUSH0 DUP5 DUP2 MSTORE PUSH1 0x20 ADD SWAP1 DUP2 MSTORE PUSH1 0x20 ADD PUSH0 KECCAK256 SWAP1 POP DUP1 PUSH1 0x7 ADD PUSH0 SWAP1 SLOAD SWAP1 PUSH2 0x100 EXP SWAP1 DIV PUSH1 0xFF AND PUSH2 0x1CAA JUMPI PUSH1 0x40 MLOAD PUSH32 0x8C379A000000000000000000000000000000000000000000000000000000000 DUP2 MSTORE PUSH1 0x4 ADD PUSH2 0x1CA1 SWAP1 PUSH2 0x2EDE JUMP JUMPDEST PUSH1 0x40 MLOAD DUP1 SWAP2 SUB SWAP1 REVERT JUMPDEST CALLER PUSH20 0xFFFFFFFFFFFFFFFFFFFFFFFFFFFFFFFFFFFFFFFF AND DUP2 PUSH1 0x1 ADD PUSH0 SWAP1 SLOAD SWAP1 PUSH2 0x100 EXP SWAP1 DIV PUSH20 0xFFFFFFFFFFFFFFFFFFFFFFFFFFFFFFFFFFFFFFFF AND PUSH20 0xFFFFFFFFFFFFFFFFFFFFFFFFFFFFFFFFFFFFFFFF AND EQ PUSH2 0x1D3B JUMPI PUSH1 0x40 MLOAD PUSH32 0x8C379A000000000000000000000000000000000000000000000000000000000 DUP2 MSTORE PUSH1 0x4 ADD PUSH2 0x1D32 SWAP1 PUSH2 0x2F46 JUMP JUMPDEST PUSH1 0x40 MLOAD DUP1 SWAP2 SUB SWAP1 REVERT JUMPDEST PUSH0 DUP3 GT PUSH2 0x1D7D JUMPI PUSH1 0x40 MLOAD PUSH32 0x8C379A000000000000000000000000000000000000000000000000000000000 DUP2 MSTORE PUSH1 0x4 ADD PUSH2 0x1D74 SWAP1 PUSH2 0x33C8 JUMP JUMPDEST PUSH1 0x40 MLOAD DUP1 SWAP2 SUB SWAP1 REVERT JUMPDEST PUSH1 0x2 PUSH0 SWAP1 SLOAD SWAP1 PUSH2 0x100 EXP SWAP1 DIV PUSH20 0xFFFFFFFFFFFFFFFFFFFFFFFFFFFFFFFFFFFFFFFF AND PUSH20 0xFFFFFFFFFFFFFFFFFFFFFFFFFFFFFFFFFFFFFFFF AND PUSH4 0x23B872DD CALLER ADDRESS DUP6 PUSH1 0x40 MLOAD DUP5 PUSH4 0xFFFFFFFF AND PUSH1 0xE0 SHL DUP2 MSTORE PUSH1 0x4 ADD PUSH2 0x1DDB SWAP4 SWAP3 SWAP2 SWAP1 PUSH2 0x29CD JUMP JUMPDEST PUSH1 0x20 PUSH1 0x40 MLOAD DUP1 DUP4 SUB DUP2 PUSH0 DUP8 GAS CALL ISZERO DUP1 ISZERO PUSH2 0x1DF7 JUMPI RETURNDATASIZE PUSH0 PUSH0 RETURNDATACOPY RETURNDATASIZE PUSH0 REVERT JUMPDEST POP POP POP POP PUSH1 0x40 MLOAD RETURNDATASIZE PUSH1 0x1F NOT PUSH1 0x1F DUP3 ADD AND DUP3 ADD DUP1 PUSH1 0x40 MSTORE POP DUP2 ADD SWAP1 PUSH2 0x1E1B SWAP2 SWAP1 PUSH2 0x2A2C JUMP JUMPDEST PUSH2 0x1E5A JUMPI PUSH1 0x40 MLOAD PUSH32 0x8C379A000000000000000000000000000000000000000000000000000000000 DUP2 MSTORE PUSH1 0x4 ADD PUSH2 0x1E51 SWAP1 PUSH2 0x2AA1 JUMP JUMPDEST PUSH1 0x40 MLOAD DUP1 SWAP2 SUB SWAP1 REVERT JUMPDEST DUP2 DUP2 PUSH1 0x2 ADD PUSH0 DUP3 DUP3 SLOAD PUSH2 0x1E6D SWAP2 SWAP1 PUSH2 0x2B33 JUMP JUMPDEST SWAP3 POP POP DUP2 SWAP1 SSTORE POP DUP2 PUSH1 0x7 PUSH0 DUP3 DUP3 SLOAD PUSH2 0x1E85 SWAP2 SWAP1 PUSH2 0x2B33 JUMP JUMPDEST SWAP3 POP POP DUP2 SWAP1 SSTORE POP DUP3 PUSH32 0x244160B15E69CC411F041D94AE7FAB6F6BBA85DADE8403216C05FF4B920D5449 DUP4 PUSH1 0x40 MLOAD PUSH2 0x1EBC SWAP2 SWAP1 PUSH2 0x2503 JUMP JUMPDEST PUSH1 0x40 MLOAD DUP1 SWAP2 SUB SWAP1 LOG2 POP PUSH2 0x1ECD PUSH2 0x20BC JUMP JUMPDEST POP POP JUMP JUMPDEST PUSH1 0x5 SLOAD DUP2 JUMP JUMPDEST PUSH1 0xA PUSH1 0x20 MSTORE DUP2 PUSH0 MSTORE PUSH1 0x40 PUSH0 KECCAK256 DUP2 DUP2 SLOAD DUP2 LT PUSH2 0x1EF0 JUMPI PUSH0 DUP1 REVERT JUMPDEST SWAP1 PUSH0 MSTORE PUSH1 0x20 PUSH0 KECCAK256 ADD PUSH0 SWAP2 POP SWAP2 POP POP SLOAD DUP2 JUMP JUMPDEST PUSH1 0x96 DUP2 JUMP JUMPDEST PUSH1 0x9 PUSH1 0x20 MSTORE DUP1 PUSH0 MSTORE PUSH1 0x40 PUSH0 KECCAK256 PUSH0 SWAP2 POP SWAP1 POP DUP1 PUSH0 ADD SLOAD SWAP1 DUP1 PUSH1 0x1 ADD PUSH0 SWAP1 SLOAD SWAP1 PUSH2 0x100 EXP SWAP1 DIV PUSH20 0xFFFFFFFFFFFFFFFFFFFFFFFFFFFFFFFFFFFFFFFF AND SWAP1 DUP1 PUSH1 0x2 ADD SLOAD SWAP1 DUP1 PUSH1 0x3 ADD SLOAD SWAP1 DUP1 PUSH1 0x4 ADD SLOAD SWAP1 DUP1 PUSH1 0x5 ADD SLOAD SWAP1 DUP1 PUSH1 0x6 ADD SLOAD SWAP1 DUP1 PUSH1 0x7 ADD PUSH0 SWAP1 SLOAD SWAP1 PUSH2 0x100 EXP SWAP1 DIV PUSH1 0xFF AND SWAP1 POP DUP9 JUMP JUMPDEST PUSH2 0x2710 DUP2 JUMP JUMPDEST PUSH1 0x3 PUSH0 SWAP1 SLOAD SWAP1 PUSH2 0x100 EXP SWAP1 DIV PUSH20 0xFFFFFFFFFFFFFFFFFFFFFFFFFFFFFFFFFFFFFFFF AND DUP2 JUMP JUMPDEST PUSH2 0x1FA9 PUSH2 0x20C5 JUMP JUMPDEST PUSH0 PUSH20 0xFFFFFFFFFFFFFFFFFFFFFFFFFFFFFFFFFFFFFFFF AND DUP2 PUSH20 0xFFFFFFFFFFFFFFFFFFFFFFFFFFFFFFFFFFFFFFFF AND SUB PUSH2 0x2019 JUMPI PUSH0 PUSH1 0x40 MLOAD PUSH32 0x1E4FBDF700000000000000000000000000000000000000000000000000000000 DUP2 MSTORE PUSH1 0x4 ADD PUSH2 0x2010 SWAP2 SWAP1 PUSH2 0x266A JUMP JUMPDEST PUSH1 0x40 MLOAD DUP1 SWAP2 SUB SWAP1 REVERT JUMPDEST PUSH2 0x2022 DUP2 PUSH2 0x21AE JUMP JUMPDEST POP JUMP JUMPDEST PUSH1 0x2 PUSH0 SLOAD SUB PUSH2 0x2069 JUMPI PUSH1 0x40 MLOAD PUSH32 0x8C379A000000000000000000000000000000000000000000000000000000000 DUP2 MSTORE PUSH1 0x4 ADD PUSH2 0x2060 SWAP1 PUSH2 0x3430 JUMP JUMPDEST PUSH1 0x40 MLOAD DUP1 SWAP2 SUB SWAP1 REVERT JUMPDEST PUSH1 0x2 PUSH0 DUP2 SWAP1 SSTORE POP JUMP JUMPDEST PUSH2 0x207A PUSH2 0x160E JUMP JUMPDEST ISZERO PUSH2 0x20BA JUMPI PUSH1 0x40 MLOAD PUSH32 0x8C379A000000000000000000000000000000000000000000000000000000000 DUP2 MSTORE PUSH1 0x4 ADD PUSH2 0x20B1 SWAP1 PUSH2 0x3498 JUMP JUMPDEST PUSH1 0x40 MLOAD DUP1 SWAP2 SUB SWAP1 REVERT JUMPDEST JUMP JUMPDEST PUSH1 0x1 PUSH0 DUP2 SWAP1 SSTORE POP JUMP JUMPDEST PUSH2 0x20CD PUSH2 0x22D3 JUMP JUMPDEST PUSH20 0xFFFFFFFFFFFFFFFFFFFFFFFFFFFFFFFFFFFFFFFF AND PUSH2 0x20EB PUSH2 0x18F6 JUMP JUMPDEST PUSH20 0xFFFFFFFFFFFFFFFFFFFFFFFFFFFFFFFFFFFFFFFF AND EQ PUSH2 0x214A JUMPI PUSH2 0x210E PUSH2 0x22D3 JUMP JUMPDEST PUSH1 0x40 MLOAD PUSH32 0x118CDAA700000000000000000000000000000000000000000000000000000000 DUP2 MSTORE PUSH1 0x4 ADD PUSH2 0x2141 SWAP2 SWAP1 PUSH2 0x266A JUMP JUMPDEST PUSH1 0x40 MLOAD DUP1 SWAP2 SUB SWAP1 REVERT JUMPDEST JUMP JUMPDEST PUSH2 0x2154 PUSH2 0x22DA JUMP JUMPDEST PUSH0 PUSH1 0x1 PUSH1 0x14 PUSH2 0x100 EXP DUP2 SLOAD DUP2 PUSH1 0xFF MUL NOT AND SWAP1 DUP4 ISZERO ISZERO MUL OR SWAP1 SSTORE POP PUSH32 0x5DB9EE0A495BF2E6FF9C91A7834C1BA4FDD244A5E8AA4E537BD38AEAE4B073AA PUSH2 0x2197 PUSH2 0x22D3 JUMP JUMPDEST PUSH1 0x40 MLOAD PUSH2 0x21A4 SWAP2 SWAP1 PUSH2 0x266A JUMP JUMPDEST PUSH1 0x40 MLOAD DUP1 SWAP2 SUB SWAP1 LOG1 JUMP JUMPDEST PUSH0 PUSH1 0x1 PUSH0 SWAP1 SLOAD SWAP1 PUSH2 0x100 EXP SWAP1 DIV PUSH20 0xFFFFFFFFFFFFFFFFFFFFFFFFFFFFFFFFFFFFFFFF AND SWAP1 POP DUP2 PUSH1 0x1 PUSH0 PUSH2 0x100 EXP DUP2 SLOAD DUP2 PUSH20 0xFFFFFFFFFFFFFFFFFFFFFFFFFFFFFFFFFFFFFFFF MUL NOT AND SWAP1 DUP4 PUSH20 0xFFFFFFFFFFFFFFFFFFFFFFFFFFFFFFFFFFFFFFFF AND MUL OR SWAP1 SSTORE POP DUP2 PUSH20 0xFFFFFFFFFFFFFFFFFFFFFFFFFFFFFFFFFFFFFFFF AND DUP2 PUSH20 0xFFFFFFFFFFFFFFFFFFFFFFFFFFFFFFFFFFFFFFFF AND PUSH32 0x8BE0079C531659141344CD1FD0A4F28419497F9722A3DAAFE3B4186F6B6457E0 PUSH1 0x40 MLOAD PUSH1 0x40 MLOAD DUP1 SWAP2 SUB SWAP1 LOG3 POP POP JUMP JUMPDEST PUSH2 0x2279 PUSH2 0x2072 JUMP JUMPDEST PUSH1 0x1 DUP1 PUSH1 0x14 PUSH2 0x100 EXP DUP2 SLOAD DUP2 PUSH1 0xFF MUL NOT AND SWAP1 DUP4 ISZERO ISZERO MUL OR SWAP1 SSTORE POP PUSH32 0x62E78CEA01BEE320CD4E420270B5EA74000D11B0C9F74754EBDBFC544B05A258 PUSH2 0x22BC PUSH2 0x22D3 JUMP JUMPDEST PUSH1 0x40 MLOAD PUSH2 0x22C9 SWAP2 SWAP1 PUSH2 0x266A JUMP JUMPDEST PUSH1 0x40 MLOAD DUP1 SWAP2 SUB SWAP1 LOG1 JUMP JUMPDEST PUSH0 CALLER SWAP1 POP SWAP1 JUMP JUMPDEST PUSH2 0x22E2 PUSH2 0x160E JUMP JUMPDEST PUSH2 0x2321 JUMPI PUSH1 0x40 MLOAD PUSH32 0x8C379A000000000000000000000000000000000000000000000000000000000 DUP2 MSTORE PUSH1 0x4 ADD PUSH2 0x2318 SWAP1 PUSH2 0x3500 JUMP JUMPDEST PUSH1 0x40 MLOAD DUP1 SWAP2 SUB SWAP1 REVERT JUMPDEST JUMP JUMPDEST PUSH0 PUSH0 REVERT JUMPDEST PUSH0 PUSH20 0xFFFFFFFFFFFFFFFFFFFFFFFFFFFFFFFFFFFFFFFF DUP3 AND SWAP1 POP SWAP2 SWAP1 POP JUMP JUMPDEST PUSH0 PUSH2 0x2350 DUP3 PUSH2 0x2327 JUMP JUMPDEST SWAP1 POP SWAP2 SWAP1 POP JUMP JUMPDEST PUSH2 0x2360 DUP2 PUSH2 0x2346 JUMP JUMPDEST DUP2 EQ PUSH2 0x236A JUMPI PUSH0 PUSH0 REVERT JUMPDEST POP JUMP JUMPDEST PUSH0 DUP2 CALLDATALOAD SWAP1 POP PUSH2 0x237B DUP2 PUSH2 0x2357 JUMP JUMPDEST SWAP3 SWAP2 POP POP JUMP JUMPDEST PUSH0 PUSH1 0x20 DUP3 DUP5 SUB SLT ISZERO PUSH2 0x2396 JUMPI PUSH2 0x2395 PUSH2 0x2323 JUMP JUMPDEST JUMPDEST PUSH0 PUSH2 0x23A3 DUP5 DUP3 DUP6 ADD PUSH2 0x236D JUMP JUMPDEST SWAP2 POP POP SWAP3 SWAP2 POP POP JUMP JUMPDEST PUSH0 DUP2 MLOAD SWAP1 POP SWAP2 SWAP1 POP JUMP JUMPDEST PUSH0 DUP3 DUP3 MSTORE PUSH1 0x20 DUP3 ADD SWAP1 POP SWAP3 SWAP2 POP POP JUMP JUMPDEST PUSH0 DUP2 SWAP1 POP PUSH1 0x20 DUP3 ADD SWAP1 POP SWAP2 SWAP1 POP JUMP JUMPDEST PUSH0 DUP2 SWAP1 POP SWAP2 SWAP1 POP JUMP JUMPDEST PUSH2 0x23E7 DUP2 PUSH2 0x23D5 JUMP JUMPDEST DUP3 MSTORE POP POP JUMP JUMPDEST PUSH0 PUSH2 0x23F8 DUP4 DUP4 PUSH2 0x23DE JUMP JUMPDEST PUSH1 0x20 DUP4 ADD SWAP1 POP SWAP3 SWAP2 POP POP JUMP JUMPDEST PUSH0 PUSH1 0x20 DUP3 ADD SWAP1 POP SWAP2 SWAP1 POP JUMP JUMPDEST PUSH0 PUSH2 0x241A DUP3 PUSH2 0x23AC JUMP JUMPDEST PUSH2 0x2424 DUP2 DUP6 PUSH2 0x23B6 JUMP JUMPDEST SWAP4 POP PUSH2 0x242F DUP4 PUSH2 0x23C6 JUMP JUMPDEST DUP1 PUSH0 JUMPDEST DUP4 DUP2 LT ISZERO PUSH2 0x245F JUMPI DUP2 MLOAD PUSH2 0x2446 DUP9 DUP3 PUSH2 0x23ED JUMP JUMPDEST SWAP8 POP PUSH2 0x2451 DUP4 PUSH2 0x2404 JUMP JUMPDEST SWAP3 POP POP PUSH1 0x1 DUP2 ADD SWAP1 POP PUSH2 0x2432 JUMP JUMPDEST POP DUP6 SWAP4 POP POP POP POP SWAP3 SWAP2 POP POP JUMP JUMPDEST PUSH0 PUSH1 0x20 DUP3 ADD SWAP1 POP DUP2 DUP2 SUB PUSH0 DUP4 ADD MSTORE PUSH2 0x2484 DUP2 DUP5 PUSH2 0x2410 JUMP JUMPDEST SWAP1 POP SWAP3 SWAP2 POP POP JUMP JUMPDEST PUSH2 0x2495 DUP2 PUSH2 0x23D5 JUMP JUMPDEST DUP2 EQ PUSH2 0x249F JUMPI PUSH0 PUSH0 REVERT JUMPDEST POP JUMP JUMPDEST PUSH0 DUP2 CALLDATALOAD SWAP1 POP PUSH2 0x24B0 DUP2 PUSH2 0x248C JUMP JUMPDEST SWAP3 SWAP2 POP POP JUMP JUMPDEST PUSH0 PUSH0 PUSH1 0x40 DUP4 DUP6 SUB SLT ISZERO PUSH2 0x24CC JUMPI PUSH2 0x24CB PUSH2 0x2323 JUMP JUMPDEST JUMPDEST PUSH0 PUSH2 0x24D9 DUP6 DUP3 DUP7 ADD PUSH2 0x24A2 JUMP JUMPDEST SWAP3 POP POP PUSH1 0x20 PUSH2 0x24EA DUP6 DUP3 DUP7 ADD PUSH2 0x24A2 JUMP JUMPDEST SWAP2 POP POP SWAP3 POP SWAP3 SWAP1 POP JUMP JUMPDEST PUSH2 0x24FD DUP2 PUSH2 0x23D5 JUMP JUMPDEST DUP3 MSTORE POP POP JUMP JUMPDEST PUSH0 PUSH1 0x20 DUP3 ADD SWAP1 POP PUSH2 0x2516 PUSH0 DUP4 ADD DUP5 PUSH2 0x24F4 JUMP JUMPDEST SWAP3 SWAP2 POP POP JUMP JUMPDEST PUSH0 PUSH1 0x20 DUP3 DUP5 SUB SLT ISZERO PUSH2 0x2531 JUMPI PUSH2 0x2530 PUSH2 0x2323 JUMP JUMPDEST JUMPDEST PUSH0 PUSH2 0x253E DUP5 DUP3 DUP6 ADD PUSH2 0x24A2 JUMP JUMPDEST SWAP2 POP POP SWAP3 SWAP2 POP POP JUMP JUMPDEST PUSH0 DUP2 ISZERO ISZERO SWAP1 POP SWAP2 SWAP1 POP JUMP JUMPDEST PUSH2 0x255B DUP2 PUSH2 0x2547 JUMP JUMPDEST DUP3 MSTORE POP POP JUMP JUMPDEST PUSH0 PUSH1 0x20 DUP3 ADD SWAP1 POP PUSH2 0x2574 PUSH0 DUP4 ADD DUP5 PUSH2 0x2552 JUMP JUMPDEST SWAP3 SWAP2 POP POP JUMP JUMPDEST PUSH2 0x2583 DUP2 PUSH2 0x2346 JUMP JUMPDEST DUP3 MSTORE POP POP JUMP JUMPDEST PUSH0 PUSH1 0xE0 DUP3 ADD SWAP1 POP PUSH2 0x259C PUSH0 DUP4 ADD DUP11 PUSH2 0x257A JUMP JUMPDEST PUSH2 0x25A9 PUSH1 0x20 DUP4 ADD DUP10 PUSH2 0x24F4 JUMP JUMPDEST PUSH2 0x25B6 PUSH1 0x40 DUP4 ADD DUP9 PUSH2 0x24F4 JUMP JUMPDEST PUSH2 0x25C3 PUSH1 0x60 DUP4 ADD DUP8 PUSH2 0x24F4 JUMP JUMPDEST PUSH2 0x25D0 PUSH1 0x80 DUP4 ADD DUP7 PUSH2 0x24F4 JUMP JUMPDEST PUSH2 0x25DD PUSH1 0xA0 DUP4 ADD DUP6 PUSH2 0x24F4 JUMP JUMPDEST PUSH2 0x25EA PUSH1 0xC0 DUP4 ADD DUP5 PUSH2 0x2552 JUMP JUMPDEST SWAP9 SWAP8 POP POP POP POP POP POP POP POP JUMP JUMPDEST PUSH0 DUP2 SWAP1 POP SWAP2 SWAP1 POP JUMP JUMPDEST PUSH0 PUSH2 0x2619 PUSH2 0x2614 PUSH2 0x260F DUP5 PUSH2 0x2327 JUMP JUMPDEST PUSH2 0x25F6 JUMP JUMPDEST PUSH2 0x2327 JUMP JUMPDEST SWAP1 POP SWAP2 SWAP1 POP JUMP JUMPDEST PUSH0 PUSH2 0x262A DUP3 PUSH2 0x25FF JUMP JUMPDEST SWAP1 POP SWAP2 SWAP1 POP JUMP JUMPDEST PUSH0 PUSH2 0x263B DUP3 PUSH2 0x2620 JUMP JUMPDEST SWAP1 POP SWAP2 SWAP1 POP JUMP JUMPDEST PUSH2 0x264B DUP2 PUSH2 0x2631 JUMP JUMPDEST DUP3 MSTORE POP POP JUMP JUMPDEST PUSH0 PUSH1 0x20 DUP3 ADD SWAP1 POP PUSH2 0x2664 PUSH0 DUP4 ADD DUP5 PUSH2 0x2642 JUMP JUMPDEST SWAP3 SWAP2 POP POP JUMP JUMPDEST PUSH0 PUSH1 0x20 DUP3 ADD SWAP1 POP PUSH2 0x267D PUSH0 DUP4 ADD DUP5 PUSH2 0x257A JUMP JUMPDEST SWAP3 SWAP2 POP POP JUMP JUMPDEST PUSH0 PUSH2 0x268D DUP3 PUSH2 0x2620 JUMP JUMPDEST SWAP1 POP SWAP2 SWAP1 POP JUMP JUMPDEST PUSH2 0x269D DUP2 PUSH2 0x2683 JUMP JUMPDEST DUP3 MSTORE POP POP JUMP JUMPDEST PUSH0 PUSH1 0x20 DUP3 ADD SWAP1 POP PUSH2 0x26B6 PUSH0 DUP4 ADD DUP5 PUSH2 0x2694 JUMP JUMPDEST SWAP3 SWAP2 POP POP JUMP JUMPDEST PUSH0 PUSH0 PUSH1 0x40 DUP4 DUP6 SUB SLT ISZERO PUSH2 0x26D2 JUMPI PUSH2 0x26D1 PUSH2 0x2323 JUMP JUMPDEST JUMPDEST PUSH0 PUSH2 0x26DF DUP6 DUP3 DUP7 ADD PUSH2 0x236D JUMP JUMPDEST SWAP3 POP POP PUSH1 0x20 PUSH2 0x26F0 DUP6 DUP3 DUP7 ADD PUSH2 0x24A2 JUMP JUMPDEST SWAP2 POP POP SWAP3 POP SWAP3 SWAP1 POP JUMP JUMPDEST PUSH0 PUSH2 0x100 DUP3 ADD SWAP1 POP PUSH2 0x270E PUSH0 DUP4 ADD DUP12 PUSH2 0x24F4 JUMP JUMPDEST PUSH2 0x271B PUSH1 0x20 DUP4 ADD DUP11 PUSH2 0x257A JUMP JUMPDEST PUSH2 0x2728 PUSH1 0x40 DUP4 ADD DUP10 PUSH2 0x24F4 JUMP JUMPDEST PUSH2 0x2735 PUSH1 0x60 DUP4 ADD DUP9 PUSH2 0x24F4 JUMP JUMPDEST PUSH2 0x2742 PUSH1 0x80 DUP4 ADD DUP8 PUSH2 0x24F4 JUMP JUMPDEST PUSH2 0x274F PUSH1 0xA0 DUP4 ADD DUP7 PUSH2 0x24F4 JUMP JUMPDEST PUSH2 0x275C PUSH1 0xC0 DUP4 ADD DUP6 PUSH2 0x24F4 JUMP JUMPDEST PUSH2 0x2769 PUSH1 0xE0 DUP4 ADD DUP5 PUSH2 0x2552 JUMP JUMPDEST SWAP10 SWAP9 POP POP POP POP POP POP POP POP POP JUMP JUMPDEST PUSH0 DUP3 DUP3 MSTORE PUSH1 0x20 DUP3 ADD SWAP1 POP SWAP3 SWAP2 POP POP JUMP JUMPDEST PUSH32 0x436F6C6C61746572616C206D757374206265203E203000000000000000000000 PUSH0 DUP3 ADD MSTORE POP JUMP JUMPDEST PUSH0 PUSH2 0x27BA PUSH1 0x16 DUP4 PUSH2 0x2776 JUMP JUMPDEST SWAP2 POP PUSH2 0x27C5 DUP3 PUSH2 0x2786 JUMP JUMPDEST PUSH1 0x20 DUP3 ADD SWAP1 POP SWAP2 SWAP1 POP JUMP JUMPDEST PUSH0 PUSH1 0x20 DUP3 ADD SWAP1 POP DUP2 DUP2 SUB PUSH0 DUP4 ADD MSTORE PUSH2 0x27E7 DUP2 PUSH2 0x27AE JUMP JUMPDEST SWAP1 POP SWAP2 SWAP1 POP JUMP JUMPDEST PUSH32 0x426F72726F7720616D6F756E74206D757374206265203E203000000000000000 PUSH0 DUP3 ADD MSTORE POP JUMP JUMPDEST PUSH0 PUSH2 0x2822 PUSH1 0x19 DUP4 PUSH2 0x2776 JUMP JUMPDEST SWAP2 POP PUSH2 0x282D DUP3 PUSH2 0x27EE JUMP JUMPDEST PUSH1 0x20 DUP3 ADD SWAP1 POP SWAP2 SWAP1 POP JUMP JUMPDEST PUSH0 PUSH1 0x20 DUP3 ADD SWAP1 POP DUP2 DUP2 SUB PUSH0 DUP4 ADD MSTORE PUSH2 0x284F DUP2 PUSH2 0x2816 JUMP JUMPDEST SWAP1 POP SWAP2 SWAP1 POP JUMP JUMPDEST PUSH0 DUP2 MLOAD SWAP1 POP PUSH2 0x2864 DUP2 PUSH2 0x248C JUMP JUMPDEST SWAP3 SWAP2 POP POP JUMP JUMPDEST PUSH0 PUSH1 0x20 DUP3 DUP5 SUB SLT ISZERO PUSH2 0x287F JUMPI PUSH2 0x287E PUSH2 0x2323 JUMP JUMPDEST JUMPDEST PUSH0 PUSH2 0x288C DUP5 DUP3 DUP6 ADD PUSH2 0x2856 JUMP JUMPDEST SWAP2 POP POP SWAP3 SWAP2 POP POP JUMP JUMPDEST PUSH32 0x496E73756666696369656E74207661756C744254432062616C616E6365000000 PUSH0 DUP3 ADD MSTORE POP JUMP JUMPDEST PUSH0 PUSH2 0x28C9 PUSH1 0x1D DUP4 PUSH2 0x2776 JUMP JUMPDEST SWAP2 POP PUSH2 0x28D4 DUP3 PUSH2 0x2895 JUMP JUMPDEST PUSH1 0x20 DUP3 ADD SWAP1 POP SWAP2 SWAP1 POP JUMP JUMPDEST PUSH0 PUSH1 0x20 DUP3 ADD SWAP1 POP DUP2 DUP2 SUB PUSH0 DUP4 ADD MSTORE PUSH2 0x28F6 DUP2 PUSH2 0x28BD JUMP JUMPDEST SWAP1 POP SWAP2 SWAP1 POP JUMP JUMPDEST PUSH32 0x496E73756666696369656E7420636F6C6C61746572616C000000000000000000 PUSH0 DUP3 ADD MSTORE POP JUMP JUMPDEST PUSH0 PUSH2 0x2931 PUSH1 0x17 DUP4 PUSH2 0x2776 JUMP JUMPDEST SWAP2 POP PUSH2 0x293C DUP3 PUSH2 0x28FD JUMP JUMPDEST PUSH1 0x20 DUP3 ADD SWAP1 POP SWAP2 SWAP1 POP JUMP JUMPDEST PUSH0 PUSH1 0x20 DUP3 ADD SWAP1 POP DUP2 DUP2 SUB PUSH0 DUP4 ADD MSTORE PUSH2 0x295E DUP2 PUSH2 0x2925 JUMP JUMPDEST SWAP1 POP SWAP2 SWAP1 POP JUMP JUMPDEST PUSH32 0x496E73756666696369656E74206C697175696469747900000000000000000000 PUSH0 DUP3 ADD MSTORE POP JUMP JUMPDEST PUSH0 PUSH2 0x2999 PUSH1 0x16 DUP4 PUSH2 0x2776 JUMP JUMPDEST SWAP2 POP PUSH2 0x29A4 DUP3 PUSH2 0x2965 JUMP JUMPDEST PUSH1 0x20 DUP3 ADD SWAP1 POP SWAP2 SWAP1 POP JUMP JUMPDEST PUSH0 PUSH1 0x20 DUP3 ADD SWAP1 POP DUP2 DUP2 SUB PUSH0 DUP4 ADD MSTORE PUSH2 0x29C6 DUP2 PUSH2 0x298D JUMP JUMPDEST SWAP1 POP SWAP2 SWAP1 POP JUMP JUMPDEST PUSH0 PUSH1 0x60 DUP3 ADD SWAP1 POP PUSH2 0x29E0 PUSH0 DUP4 ADD DUP7 PUSH2 0x257A JUMP JUMPDEST PUSH2 0x29ED PUSH1 0x20 DUP4 ADD DUP6 PUSH2 0x257A JUMP JUMPDEST PUSH2 0x29FA PUSH1 0x40 DUP4 ADD DUP5 PUSH2 0x24F4 JUMP JUMPDEST SWAP5 SWAP4 POP POP POP POP JUMP JUMPDEST PUSH2 0x2A0B DUP2 PUSH2 0x2547 JUMP JUMPDEST DUP2 EQ PUSH2 0x2A15 JUMPI PUSH0 PUSH0 REVERT JUMPDEST POP JUMP JUMPDEST PUSH0 DUP2 MLOAD SWAP1 POP PUSH2 0x2A26 DUP2 PUSH2 0x2A02 JUMP JUMPDEST SWAP3 SWAP2 POP POP JUMP JUMPDEST PUSH0 PUSH1 0x20 DUP3 DUP5 SUB SLT ISZERO PUSH2 0x2A41 JUMPI PUSH2 0x2A40 PUSH2 0x2323 JUMP JUMPDEST JUMPDEST PUSH0 PUSH2 0x2A4E DUP5 DUP3 DUP6 ADD PUSH2 0x2A18 JUMP JUMPDEST SWAP2 POP POP SWAP3 SWAP2 POP POP JUMP JUMPDEST PUSH32 0x436F6C6C61746572616C207472616E73666572206661696C6564000000000000 PUSH0 DUP3 ADD MSTORE POP JUMP JUMPDEST PUSH0 PUSH2 0x2A8B PUSH1 0x1A DUP4 PUSH2 0x2776 JUMP JUMPDEST SWAP2 POP PUSH2 0x2A96 DUP3 PUSH2 0x2A57 JUMP JUMPDEST PUSH1 0x20 DUP3 ADD SWAP1 POP SWAP2 SWAP1 POP JUMP JUMPDEST PUSH0 PUSH1 0x20 DUP3 ADD SWAP1 POP DUP2 DUP2 SUB PUSH0 DUP4 ADD MSTORE PUSH2 0x2AB8 DUP2 PUSH2 0x2A7F JUMP JUMPDEST SWAP1 POP SWAP2 SWAP1 POP JUMP JUMPDEST PUSH32 0x4E487B7100000000000000000000000000000000000000000000000000000000 PUSH0 MSTORE PUSH1 0x11 PUSH1 0x4 MSTORE PUSH1 0x24 PUSH0 REVERT JUMPDEST PUSH0 PUSH2 0x2AF6 DUP3 PUSH2 0x23D5 JUMP JUMPDEST SWAP2 POP PUSH32 0xFFFFFFFFFFFFFFFFFFFFFFFFFFFFFFFFFFFFFFFFFFFFFFFFFFFFFFFFFFFFFFFF DUP3 SUB PUSH2 0x2B28 JUMPI PUSH2 0x2B27 PUSH2 0x2ABF JUMP JUMPDEST JUMPDEST PUSH1 0x1 DUP3 ADD SWAP1 POP SWAP2 SWAP1 POP JUMP JUMPDEST PUSH0 PUSH2 0x2B3D DUP3 PUSH2 0x23D5 JUMP JUMPDEST SWAP2 POP PUSH2 0x2B48 DUP4 PUSH2 0x23D5 JUMP JUMPDEST SWAP3 POP DUP3 DUP3 ADD SWAP1 POP DUP1 DUP3 GT ISZERO PUSH2 0x2B60 JUMPI PUSH2 0x2B5F PUSH2 0x2ABF JUMP JUMPDEST JUMPDEST SWAP3 SWAP2 POP POP JUMP JUMPDEST PUSH0 PUSH1 0x40 DUP3 ADD SWAP1 POP PUSH2 0x2B79 PUSH0 DUP4 ADD DUP6 PUSH2 0x257A JUMP JUMPDEST PUSH2 0x2B86 PUSH1 0x20 DUP4 ADD DUP5 PUSH2 0x24F4 JUMP JUMPDEST SWAP4 SWAP3 POP POP POP JUMP JUMPDEST PUSH32 0x426F72726F77207472616E73666572206661696C656400000000000000000000 PUSH0 DUP3 ADD MSTORE POP JUMP JUMPDEST PUSH0 PUSH2 0x2BC1 PUSH1 0x16 DUP4 PUSH2 0x2776 JUMP JUMPDEST SWAP2 POP PUSH2 0x2BCC DUP3 PUSH2 0x2B8D JUMP JUMPDEST PUSH1 0x20 DUP3 ADD SWAP1 POP SWAP2 SWAP1 POP JUMP JUMPDEST PUSH0 PUSH1 0x20 DUP3 ADD SWAP1 POP DUP2 DUP2 SUB PUSH0 DUP4 ADD MSTORE PUSH2 0x2BEE DUP2 PUSH2 0x2BB5 JUMP JUMPDEST SWAP1 POP SWAP2 SWAP1 POP JUMP JUMPDEST PUSH0 PUSH1 0x40 DUP3 ADD SWAP1 POP PUSH2 0x2C08 PUSH0 DUP4 ADD DUP6 PUSH2 0x24F4 JUMP JUMPDEST PUSH2 0x2C15 PUSH1 0x20 DUP4 ADD DUP5 PUSH2 0x24F4 JUMP JUMPDEST SWAP4 SWAP3 POP POP POP JUMP JUMPDEST PUSH0 PUSH1 0xFF DUP3 AND SWAP1 POP SWAP2 SWAP1 POP JUMP JUMPDEST PUSH2 0x2C31 DUP2 PUSH2 0x2C1C JUMP JUMPDEST DUP2 EQ PUSH2 0x2C3B JUMPI PUSH0 PUSH0 REVERT JUMPDEST POP JUMP JUMPDEST PUSH0 DUP2 MLOAD SWAP1 POP PUSH2 0x2C4C DUP2 PUSH2 0x2C28 JUMP JUMPDEST SWAP3 SWAP2 POP POP JUMP JUMPDEST PUSH0 PUSH1 0x20 DUP3 DUP5 SUB SLT ISZERO PUSH2 0x2C67 JUMPI PUSH2 0x2C66 PUSH2 0x2323 JUMP JUMPDEST JUMPDEST PUSH0 PUSH2 0x2C74 DUP5 DUP3 DUP6 ADD PUSH2 0x2C3E JUMP JUMPDEST SWAP2 POP POP SWAP3 SWAP2 POP POP JUMP JUMPDEST PUSH0 DUP2 PUSH1 0x1 SHR SWAP1 POP SWAP2 SWAP1 POP JUMP JUMPDEST PUSH0 PUSH0 DUP3 SWAP2 POP DUP4 SWAP1 POP JUMPDEST PUSH1 0x1 DUP6 GT ISZERO PUSH2 0x2CD2 JUMPI DUP1 DUP7 DIV DUP2 GT ISZERO PUSH2 0x2CAE JUMPI PUSH2 0x2CAD PUSH2 0x2ABF JUMP JUMPDEST JUMPDEST PUSH1 0x1 DUP6 AND ISZERO PUSH2 0x2CBD JUMPI DUP1 DUP3 MUL SWAP2 POP JUMPDEST DUP1 DUP2 MUL SWAP1 POP PUSH2 0x2CCB DUP6 PUSH2 0x2C7D JUMP JUMPDEST SWAP5 POP PUSH2 0x2C92 JUMP JUMPDEST SWAP5 POP SWAP5 SWAP3 POP POP POP JUMP JUMPDEST PUSH0 DUP3 PUSH2 0x2CEA JUMPI PUSH1 0x1 SWAP1 POP PUSH2 0x2DA5 JUMP JUMPDEST DUP2 PUSH2 0x2CF7 JUMPI PUSH0 SWAP1 POP PUSH2 0x2DA5 JUMP JUMPDEST DUP2 PUSH1 0x1 DUP2 EQ PUSH2 0x2D0D JUMPI PUSH1 0x2 DUP2 EQ PUSH2 0x2D17 JUMPI PUSH2 0x2D46 JUMP JUMPDEST PUSH1 0x1 SWAP2 POP POP PUSH2 0x2DA5 JUMP JUMPDEST PUSH1 0xFF DUP5 GT ISZERO PUSH2 0x2D29 JUMPI PUSH2 0x2D28 PUSH2 0x2ABF JUMP JUMPDEST JUMPDEST DUP4 PUSH1 0x2 EXP SWAP2 POP DUP5 DUP3 GT ISZERO PUSH2 0x2D40 JUMPI PUSH2 0x2D3F PUSH2 0x2ABF JUMP JUMPDEST JUMPDEST POP PUSH2 0x2DA5 JUMP JUMPDEST POP PUSH1 0x20 DUP4 LT PUSH2 0x133 DUP4 LT AND PUSH1 0x4E DUP5 LT PUSH1 0xB DUP5 LT AND OR ISZERO PUSH2 0x2D7B JUMPI DUP3 DUP3 EXP SWAP1 POP DUP4 DUP2 GT ISZERO PUSH2 0x2D76 JUMPI PUSH2 0x2D75 PUSH2 0x2ABF JUMP JUMPDEST JUMPDEST PUSH2 0x2DA5 JUMP JUMPDEST PUSH2 0x2D88 DUP5 DUP5 DUP5 PUSH1 0x1 PUSH2 0x2C89 JUMP JUMPDEST SWAP3 POP SWAP1 POP DUP2 DUP5 DIV DUP2 GT ISZERO PUSH2 0x2D9F JUMPI PUSH2 0x2D9E PUSH2 0x2ABF JUMP JUMPDEST JUMPDEST DUP2 DUP2 MUL SWAP1 POP JUMPDEST SWAP4 SWAP3 POP POP POP JUMP JUMPDEST PUSH0 PUSH2 0x2DB6 DUP3 PUSH2 0x23D5 JUMP JUMPDEST SWAP2 POP PUSH2 0x2DC1 DUP4 PUSH2 0x23D5 JUMP JUMPDEST SWAP3 POP PUSH2 0x2DEE PUSH32 0xFFFFFFFFFFFFFFFFFFFFFFFFFFFFFFFFFFFFFFFFFFFFFFFFFFFFFFFFFFFFFFFF DUP5 DUP5 PUSH2 0x2CDB JUMP JUMPDEST SWAP1 POP SWAP3 SWAP2 POP POP JUMP JUMPDEST PUSH0 PUSH2 0x2E00 DUP3 PUSH2 0x23D5 JUMP JUMPDEST SWAP2 POP PUSH2 0x2E0B DUP4 PUSH2 0x23D5 JUMP JUMPDEST SWAP3 POP DUP3 DUP3 MUL PUSH2 0x2E19 DUP2 PUSH2 0x23D5 JUMP JUMPDEST SWAP2 POP DUP3 DUP3 DIV DUP5 EQ DUP4 ISZERO OR PUSH2 0x2E30 JUMPI PUSH2 0x2E2F PUSH2 0x2ABF JUMP JUMPDEST JUMPDEST POP SWAP3 SWAP2 POP POP JUMP JUMPDEST PUSH32 0x4E487B7100000000000000000000000000000000000000000000000000000000 PUSH0 MSTORE PUSH1 0x12 PUSH1 0x4 MSTORE PUSH1 0x24 PUSH0 REVERT JUMPDEST PUSH0 PUSH2 0x2E6E DUP3 PUSH2 0x23D5 JUMP JUMPDEST SWAP2 POP PUSH2 0x2E79 DUP4 PUSH2 0x23D5 JUMP JUMPDEST SWAP3 POP DUP3 PUSH2 0x2E89 JUMPI PUSH2 0x2E88 PUSH2 0x2E37 JUMP JUMPDEST JUMPDEST DUP3 DUP3 DIV SWAP1 POP SWAP3 SWAP2 POP POP JUMP JUMPDEST PUSH32 0x4C6F616E206E6F74206163746976650000000000000000000000000000000000 PUSH0 DUP3 ADD MSTORE POP JUMP JUMPDEST PUSH0 PUSH2 0x2EC8 PUSH1 0xF DUP4 PUSH2 0x2776 JUMP JUMPDEST SWAP2 POP PUSH2 0x2ED3 DUP3 PUSH2 0x2E94 JUMP JUMPDEST PUSH1 0x20 DUP3 ADD SWAP1 POP SWAP2 SWAP1 POP JUMP JUMPDEST PUSH0 PUSH1 0x20 DUP3 ADD SWAP1 POP DUP2 DUP2 SUB PUSH0 DUP4 ADD MSTORE PUSH2 0x2EF5 DUP2 PUSH2 0x2EBC JUMP JUMPDEST SWAP1 POP SWAP2 SWAP1 POP JUMP JUMPDEST PUSH32 0x4E6F74206C6F616E206F776E6572000000000000000000000000000000000000 PUSH0 DUP3 ADD MSTORE POP JUMP JUMPDEST PUSH0 PUSH2 0x2F30 PUSH1 0xE DUP4 PUSH2 0x2776 JUMP JUMPDEST SWAP2 POP PUSH2 0x2F3B DUP3 PUSH2 0x2EFC JUMP JUMPDEST PUSH1 0x20 DUP3 ADD SWAP1 POP SWAP2 SWAP1 POP JUMP JUMPDEST PUSH0 PUSH1 0x20 DUP3 ADD SWAP1 POP DUP2 DUP2 SUB PUSH0 DUP4 ADD MSTORE PUSH2 0x2F5D DUP2 PUSH2 0x2F24 JUMP JUMPDEST SWAP1 POP SWAP2 SWAP1 POP JUMP JUMPDEST PUSH32 0x52657061796D656E74207472616E73666572206661696C656400000000000000 PUSH0 DUP3 ADD MSTORE POP JUMP JUMPDEST PUSH0 PUSH2 0x2F98 PUSH1 0x19 DUP4 PUSH2 0x2776 JUMP JUMPDEST SWAP2 POP PUSH2 0x2FA3 DUP3 PUSH2 0x2F64 JUMP JUMPDEST PUSH1 0x20 DUP3 ADD SWAP1 POP SWAP2 SWAP1 POP JUMP JUMPDEST PUSH0 PUSH1 0x20 DUP3 ADD SWAP1 POP DUP2 DUP2 SUB PUSH0 DUP4 ADD MSTORE PUSH2 0x2FC5 DUP2 PUSH2 0x2F8C JUMP JUMPDEST SWAP1 POP SWAP2 SWAP1 POP JUMP JUMPDEST PUSH32 0x436F6C6C61746572616C2072657475726E206661696C65640000000000000000 PUSH0 DUP3 ADD MSTORE POP JUMP JUMPDEST PUSH0 PUSH2 0x3000 PUSH1 0x18 DUP4 PUSH2 0x2776 JUMP JUMPDEST SWAP2 POP PUSH2 0x300B DUP3 PUSH2 0x2FCC JUMP JUMPDEST PUSH1 0x20 DUP3 ADD SWAP1 POP SWAP2 SWAP1 POP JUMP JUMPDEST PUSH0 PUSH1 0x20 DUP3 ADD SWAP1 POP DUP2 DUP2 SUB PUSH0 DUP4 ADD MSTORE PUSH2 0x302D DUP2 PUSH2 0x2FF4 JUMP JUMPDEST SWAP1 POP SWAP2 SWAP1 POP JUMP JUMPDEST PUSH0 PUSH2 0x303E DUP3 PUSH2 0x23D5 JUMP JUMPDEST SWAP2 POP PUSH2 0x3049 DUP4 PUSH2 0x23D5 JUMP JUMPDEST SWAP3 POP DUP3 DUP3 SUB SWAP1 POP DUP2 DUP2 GT ISZERO PUSH2 0x3061 JUMPI PUSH2 0x3060 PUSH2 0x2ABF JUMP JUMPDEST JUMPDEST SWAP3 SWAP2 POP POP JUMP JUMPDEST PUSH32 0x4C6F616E206E6F74206C6971756964617461626C650000000000000000000000 PUSH0 DUP3 ADD MSTORE POP JUMP JUMPDEST PUSH0 PUSH2 0x309B PUSH1 0x15 DUP4 PUSH2 0x2776 JUMP JUMPDEST SWAP2 POP PUSH2 0x30A6 DUP3 PUSH2 0x3067 JUMP JUMPDEST PUSH1 0x20 DUP3 ADD SWAP1 POP SWAP2 SWAP1 POP JUMP JUMPDEST PUSH0 PUSH1 0x20 DUP3 ADD SWAP1 POP DUP2 DUP2 SUB PUSH0 DUP4 ADD MSTORE PUSH2 0x30C8 DUP2 PUSH2 0x308F JUMP JUMPDEST SWAP1 POP SWAP2 SWAP1 POP JUMP JUMPDEST PUSH32 0x4C69717569646174696F6E207061796D656E74206661696C6564000000000000 PUSH0 DUP3 ADD MSTORE POP JUMP JUMPDEST PUSH0 PUSH2 0x3103 PUSH1 0x1A DUP4 PUSH2 0x2776 JUMP JUMPDEST SWAP2 POP PUSH2 0x310E DUP3 PUSH2 0x30CF JUMP JUMPDEST PUSH1 0x20 DUP3 ADD SWAP1 POP SWAP2 SWAP1 POP JUMP JUMPDEST PUSH0 PUSH1 0x20 DUP3 ADD SWAP1 POP DUP2 DUP2 SUB PUSH0 DUP4 ADD MSTORE PUSH2 0x3130 DUP2 PUSH2 0x30F7 JUMP JUMPDEST SWAP1 POP SWAP2 SWAP1 POP JUMP JUMPDEST PUSH32 0x5261746520746F6F206869676800000000000000000000000000000000000000 PUSH0 DUP3 ADD MSTORE POP JUMP JUMPDEST PUSH0 PUSH2 0x316B PUSH1 0xD DUP4 PUSH2 0x2776 JUMP JUMPDEST SWAP2 POP PUSH2 0x3176 DUP3 PUSH2 0x3137 JUMP JUMPDEST PUSH1 0x20 DUP3 ADD SWAP1 POP SWAP2 SWAP1 POP JUMP JUMPDEST PUSH0 PUSH1 0x20 DUP3 ADD SWAP1 POP DUP2 DUP2 SUB PUSH0 DUP4 ADD MSTORE PUSH2 0x3198 DUP2 PUSH2 0x315F JUMP JUMPDEST SWAP1 POP SWAP2 SWAP1 POP JUMP JUMPDEST PUSH0 PUSH10 0xFFFFFFFFFFFFFFFFFFFF DUP3 AND SWAP1 POP SWAP2 SWAP1 POP JUMP JUMPDEST PUSH2 0x31BD DUP2 PUSH2 0x319F JUMP JUMPDEST DUP2 EQ PUSH2 0x31C7 JUMPI PUSH0 PUSH0 REVERT JUMPDEST POP JUMP JUMPDEST PUSH0 DUP2 MLOAD SWAP1 POP PUSH2 0x31D8 DUP2 PUSH2 0x31B4 JUMP JUMPDEST SWAP3 SWAP2 POP POP JUMP JUMPDEST PUSH0 DUP2 SWAP1 POP SWAP2 SWAP1 POP JUMP JUMPDEST PUSH2 0x31F0 DUP2 PUSH2 0x31DE JUMP JUMPDEST DUP2 EQ PUSH2 0x31FA JUMPI PUSH0 PUSH0 REVERT JUMPDEST POP JUMP JUMPDEST PUSH0 DUP2 MLOAD SWAP1 POP PUSH2 0x320B DUP2 PUSH2 0x31E7 JUMP JUMPDEST SWAP3 SWAP2 POP POP JUMP JUMPDEST PUSH0 PUSH0 PUSH0 PUSH0 PUSH0 PUSH1 0xA0 DUP7 DUP9 SUB SLT ISZERO PUSH2 0x322A JUMPI PUSH2 0x3229 PUSH2 0x2323 JUMP JUMPDEST JUMPDEST PUSH0 PUSH2 0x3237 DUP9 DUP3 DUP10 ADD PUSH2 0x31CA JUMP JUMPDEST SWAP6 POP POP PUSH1 0x20 PUSH2 0x3248 DUP9 DUP3 DUP10 ADD PUSH2 0x31FD JUMP JUMPDEST SWAP5 POP POP PUSH1 0x40 PUSH2 0x3259 DUP9 DUP3 DUP10 ADD PUSH2 0x2856 JUMP JUMPDEST SWAP4 POP POP PUSH1 0x60 PUSH2 0x326A DUP9 DUP3 DUP10 ADD PUSH2 0x2856 JUMP JUMPDEST SWAP3 POP POP PUSH1 0x80 PUSH2 0x327B DUP9 DUP3 DUP10 ADD PUSH2 0x31CA JUMP JUMPDEST SWAP2 POP POP SWAP3 SWAP6 POP SWAP3 SWAP6 SWAP1 SWAP4 POP JUMP JUMPDEST PUSH32 0x507269636520666565642072657475726E6564206E6F6E2D706F736974697665 PUSH0 DUP3 ADD MSTORE PUSH32 0x2076616C75650000000000000000000000000000000000000000000000000000 PUSH1 0x20 DUP3 ADD MSTORE POP JUMP JUMPDEST PUSH0 PUSH2 0x32E2 PUSH1 0x26 DUP4 PUSH2 0x2776 JUMP JUMPDEST SWAP2 POP PUSH2 0x32ED DUP3 PUSH2 0x3288 JUMP JUMPDEST PUSH1 0x40 DUP3 ADD SWAP1 POP SWAP2 SWAP1 POP JUMP JUMPDEST PUSH0 PUSH1 0x20 DUP3 ADD SWAP1 POP DUP2 DUP2 SUB PUSH0 DUP4 ADD MSTORE PUSH2 0x330F DUP2 PUSH2 0x32D6 JUMP JUMPDEST SWAP1 POP SWAP2 SWAP1 POP JUMP JUMPDEST PUSH32 0x5769746864726177206661696C65640000000000000000000000000000000000 PUSH0 DUP3 ADD MSTORE POP JUMP JUMPDEST PUSH0 PUSH2 0x334A PUSH1 0xF DUP4 PUSH2 0x2776 JUMP JUMPDEST SWAP2 POP PUSH2 0x3355 DUP3 PUSH2 0x3316 JUMP JUMPDEST PUSH1 0x20 DUP3 ADD SWAP1 POP SWAP2 SWAP1 POP JUMP JUMPDEST PUSH0 PUSH1 0x20 DUP3 ADD SWAP1 POP DUP2 DUP2 SUB PUSH0 DUP4 ADD MSTORE PUSH2 0x3377 DUP2 PUSH2 0x333E JUMP JUMPDEST SWAP1 POP SWAP2 SWAP1 POP JUMP JUMPDEST PUSH32 0x416D6F756E74206D757374206265203E20300000000000000000000000000000 PUSH0 DUP3 ADD MSTORE POP JUMP JUMPDEST PUSH0 PUSH2 0x33B2 PUSH1 0x12 DUP4 PUSH2 0x2776 JUMP JUMPDEST SWAP2 POP PUSH2 0x33BD DUP3 PUSH2 0x337E JUMP JUMPDEST PUSH1 0x20 DUP3 ADD SWAP1 POP SWAP2 SWAP1 POP JUMP JUMPDEST PUSH0 PUSH1 0x20 DUP3 ADD SWAP1 POP DUP2 DUP2 SUB PUSH0 DUP4 ADD MSTORE PUSH2 0x33DF DUP2 PUSH2 0x33A6 JUMP JUMPDEST SWAP1 POP SWAP2 SWAP1 POP JUMP JUMPDEST PUSH32 0x5265656E7472616E637947756172643A207265656E7472616E742063616C6C00 PUSH0 DUP3 ADD MSTORE POP JUMP JUMPDEST PUSH0 PUSH2 0x341A PUSH1 0x1F DUP4 PUSH2 0x2776 JUMP JUMPDEST SWAP2 POP PUSH2 0x3425 DUP3 PUSH2 0x33E6 JUMP JUMPDEST PUSH1 0x20 DUP3 ADD SWAP1 POP SWAP2 SWAP1 POP JUMP JUMPDEST PUSH0 PUSH1 0x20 DUP3 ADD SWAP1 POP DUP2 DUP2 SUB PUSH0 DUP4 ADD MSTORE PUSH2 0x3447 DUP2 PUSH2 0x340E JUMP JUMPDEST SWAP1 POP SWAP2 SWAP1 POP JUMP JUMPDEST PUSH32 0x5061757361626C653A2070617573656400000000000000000000000000000000 PUSH0 DUP3 ADD MSTORE POP JUMP JUMPDEST PUSH0 PUSH2 0x3482 PUSH1 0x10 DUP4 PUSH2 0x2776 JUMP JUMPDEST SWAP2 POP PUSH2 0x348D DUP3 PUSH2 0x344E JUMP JUMPDEST PUSH1 0x20 DUP3 ADD SWAP1 POP SWAP2 SWAP1 POP JUMP JUMPDEST PUSH0 PUSH1 0x20 DUP3 ADD SWAP1 POP DUP2 DUP2 SUB PUSH0 DUP4 ADD MSTORE PUSH2 0x34AF DUP2 PUSH2 0x3476 JUMP JUMPDEST SWAP1 POP SWAP2 SWAP1 POP JUMP JUMPDEST PUSH32 0x5061757361626C653A206E6F7420706175736564000000000000000000000000 PUSH0 DUP3 ADD MSTORE POP JUMP JUMPDEST PUSH0 PUSH2 0x34EA PUSH1 0x14 DUP4 PUSH2 0x2776 JUMP JUMPDEST SWAP2 POP PUSH2 0x34F5 DUP3 PUSH2 0x34B6 JUMP JUMPDEST PUSH1 0x20 DUP3 ADD SWAP1 POP SWAP2 SWAP1 POP JUMP JUMPDEST PUSH0 PUSH1 0x20 DUP3 ADD SWAP1 POP DUP2 DUP2 SUB PUSH0 DUP4 ADD MSTORE PUSH2 0x3517 DUP2 PUSH2 0x34DE JUMP JUMPDEST SWAP1 POP SWAP2 SWAP1 POP JUMP INVALID LOG2 PUSH5 0x6970667358 0x22 SLT KECCAK256 0xAE 0x28 0xB8 0xD3 EXTDELEGATECALL PUSH24 0x26C0AE8156A3984B44E8D7488E0DE602F930B32BB3325CE3 ADDRESS 0xE2 PUSH5 0x736F6C6343 STOP ADDMOD 0x1E STOP CALLER "
				},
				"gasEstimates": {
					"creation": {
						"codeDepositCost": "2730400",
						"executionCost": "infinite",
						"totalCost": "infinite"
					},
					"external": {
						"BASIS_POINTS()": "391",
						"COLLATERAL_RATIO()": "436",
						"LIQUIDATION_PENALTY()": "392",
						"LIQUIDATION_THRESHOLD()": "437",
						"addCollateral(uint256,uint256)": "infinite",
						"baseInterestRate()": "2492",
						"borrow(uint256,uint256)": "infinite",
						"calculateInterest(uint256)": "infinite",
						"emergencyWithdraw(address,uint256)": "infinite",
						"getHealthFactor(uint256)": "infinite",
						"getLatestPrice()": "infinite",
						"getLoanDetails(uint256)": "infinite",
						"getMaxBorrowAmount(uint256)": "infinite",
						"getUserLoans(address)": "infinite",
						"liquidate(uint256)": "infinite",
						"loanIdCounter()": "2514",
						"loans(uint256)": "infinite",
						"owner()": "2561",
						"pause()": "infinite",
						"paused()": "2592",
						"priceFeed()": "infinite",
						"renounceOwnership()": "infinite",
						"repay(uint256)": "infinite",
						"setInterestRate(uint256)": "infinite",
						"stablecoin()": "infinite",
						"totalBorrowed()": "2471",
						"totalCollateral()": "2537",
						"transferOwnership(address)": "infinite",
						"unpause()": "infinite",
						"userLoans(address,uint256)": "infinite",
						"vaultBTC()": "infinite"
					}
				},
				"methodIdentifiers": {
					"BASIS_POINTS()": "e1f1c4a7",
					"COLLATERAL_RATIO()": "d9e69a05",
					"LIQUIDATION_PENALTY()": "9b8621d5",
					"LIQUIDATION_THRESHOLD()": "90a8ae9b",
					"addCollateral(uint256,uint256)": "a8f35adf",
					"baseInterestRate()": "afd92762",
					"borrow(uint256,uint256)": "0ecbcdab",
					"calculateInterest(uint256)": "a57475e0",
					"emergencyWithdraw(address,uint256)": "95ccea67",
					"getHealthFactor(uint256)": "17845c69",
					"getLatestPrice()": "8e15f473",
					"getLoanDetails(uint256)": "66877b8d",
					"getMaxBorrowAmount(uint256)": "61a4d4ef",
					"getUserLoans(address)": "02bf321f",
					"liquidate(uint256)": "415f1240",
					"loanIdCounter()": "9d939d16",
					"loans(uint256)": "e1ec3c68",
					"owner()": "8da5cb5b",
					"pause()": "8456cb59",
					"paused()": "5c975abb",
					"priceFeed()": "741bef1a",
					"renounceOwnership()": "715018a6",
					"repay(uint256)": "371fd8e6",
					"setInterestRate(uint256)": "5f84f302",
					"stablecoin()": "e9cbd822",
					"totalBorrowed()": "4c19386c",
					"totalCollateral()": "4ac8eb5f",
					"transferOwnership(address)": "f2fde38b",
					"unpause()": "3f4ba83a",
					"userLoans(address,uint256)": "d8bad5bd",
					"vaultBTC()": "902781a9"
				}
			},
			"storageLayout": {
				"storage": [
					{
						"astId": 312,
						"contract": "contract/vaultswapcore.sol:VaultSwapCore",
						"label": "_status",
						"offset": 0,
						"slot": "0",
						"type": "t_uint256"
					},
					{
						"astId": 54,
						"contract": "contract/vaultswapcore.sol:VaultSwapCore",
						"label": "_owner",
						"offset": 0,
						"slot": "1",
						"type": "t_address"
					},
					{
						"astId": 211,
						"contract": "contract/vaultswapcore.sol:VaultSwapCore",
						"label": "_paused",
						"offset": 20,
						"slot": "1",
						"type": "t_bool"
					},
					{
						"astId": 507,
						"contract": "contract/vaultswapcore.sol:VaultSwapCore",
						"label": "vaultBTC",
						"offset": 0,
						"slot": "2",
						"type": "t_contract(IERC20)444"
					},
					{
						"astId": 510,
						"contract": "contract/vaultswapcore.sol:VaultSwapCore",
						"label": "stablecoin",
						"offset": 0,
						"slot": "3",
						"type": "t_contract(IERC20)444"
					},
					{
						"astId": 513,
						"contract": "contract/vaultswapcore.sol:VaultSwapCore",
						"label": "priceFeed",
						"offset": 0,
						"slot": "4",
						"type": "t_contract(AggregatorV3Interface)45"
					},
					{
						"astId": 528,
						"contract": "contract/vaultswapcore.sol:VaultSwapCore",
						"label": "baseInterestRate",
						"offset": 0,
						"slot": "5",
						"type": "t_uint256"
					},
					{
						"astId": 530,
						"contract": "contract/vaultswapcore.sol:VaultSwapCore",
						"label": "totalBorrowed",
						"offset": 0,
						"slot": "6",
						"type": "t_uint256"
					},
					{
						"astId": 532,
						"contract": "contract/vaultswapcore.sol:VaultSwapCore",
						"label": "totalCollateral",
						"offset": 0,
						"slot": "7",
						"type": "t_uint256"
					},
					{
						"astId": 534,
						"contract": "contract/vaultswapcore.sol:VaultSwapCore",
						"label": "loanIdCounter",
						"offset": 0,
						"slot": "8",
						"type": "t_uint256"
					},
					{
						"astId": 539,
						"contract": "contract/vaultswapcore.sol:VaultSwapCore",
						"label": "loans",
						"offset": 0,
						"slot": "9",
						"type": "t_mapping(t_uint256,t_struct(Loan)504_storage)"
					},
					{
						"astId": 544,
						"contract": "contract/vaultswapcore.sol:VaultSwapCore",
						"label": "userLoans",
						"offset": 0,
						"slot": "10",
						"type": "t_mapping(t_address,t_array(t_uint256)dyn_storage)"
					}
				],
				"types": {
					"t_address": {
						"encoding": "inplace",
						"label": "address",
						"numberOfBytes": "20"
					},
					"t_array(t_uint256)dyn_storage": {
						"base": "t_uint256",
						"encoding": "dynamic_array",
						"label": "uint256[]",
						"numberOfBytes": "32"
					},
					"t_bool": {
						"encoding": "inplace",
						"label": "bool",
						"numberOfBytes": "1"
					},
					"t_contract(AggregatorV3Interface)45": {
						"encoding": "inplace",
						"label": "contract AggregatorV3Interface",
						"numberOfBytes": "20"
					},
					"t_contract(IERC20)444": {
						"encoding": "inplace",
						"label": "contract IERC20",
						"numberOfBytes": "20"
					},
					"t_mapping(t_address,t_array(t_uint256)dyn_storage)": {
						"encoding": "mapping",
						"key": "t_address",
						"label": "mapping(address => uint256[])",
						"numberOfBytes": "32",
						"value": "t_array(t_uint256)dyn_storage"
					},
					"t_mapping(t_uint256,t_struct(Loan)504_storage)": {
						"encoding": "mapping",
						"key": "t_uint256",
						"label": "mapping(uint256 => struct VaultSwapCore.Loan)",
						"numberOfBytes": "32",
						"value": "t_struct(Loan)504_storage"
					},
					"t_struct(Loan)504_storage": {
						"encoding": "inplace",
						"label": "struct VaultSwapCore.Loan",
						"members": [
							{
								"astId": 489,
								"contract": "contract/vaultswapcore.sol:VaultSwapCore",
								"label": "loanId",
								"offset": 0,
								"slot": "0",
								"type": "t_uint256"
							},
							{
								"astId": 491,
								"contract": "contract/vaultswapcore.sol:VaultSwapCore",
								"label": "borrower",
								"offset": 0,
								"slot": "1",
								"type": "t_address"
							},
							{
								"astId": 493,
								"contract": "contract/vaultswapcore.sol:VaultSwapCore",
								"label": "collateralAmount",
								"offset": 0,
								"slot": "2",
								"type": "t_uint256"
							},
							{
								"astId": 495,
								"contract": "contract/vaultswapcore.sol:VaultSwapCore",
								"label": "borrowedAmount",
								"offset": 0,
								"slot": "3",
								"type": "t_uint256"
							},
							{
								"astId": 497,
								"contract": "contract/vaultswapcore.sol:VaultSwapCore",
								"label": "interestRate",
								"offset": 0,
								"slot": "4",
								"type": "t_uint256"
							},
							{
								"astId": 499,
								"contract": "contract/vaultswapcore.sol:VaultSwapCore",
								"label": "timestamp",
								"offset": 0,
								"slot": "5",
								"type": "t_uint256"
							},
							{
								"astId": 501,
								"contract": "contract/vaultswapcore.sol:VaultSwapCore",
								"label": "lastInterestUpdate",
								"offset": 0,
								"slot": "6",
								"type": "t_uint256"
							},
							{
								"astId": 503,
								"contract": "contract/vaultswapcore.sol:VaultSwapCore",
								"label": "isActive",
								"offset": 0,
								"slot": "7",
								"type": "t_bool"
							}
						],
						"numberOfBytes": "256"
					},
					"t_uint256": {
						"encoding": "inplace",
						"label": "uint256",
						"numberOfBytes": "32"
					}
				}
			},
			"userdoc": {
				"kind": "user",
				"methods": {},
				"version": 1
			}
		}
	}
}